{
  "_format": "hh-sol-artifact-1",
  "contractName": "TAOCasino",
  "sourceName": "contracts/TAO_Casino.sol",
  "abi": [
    {
      "inputs": [],
      "stateMutability": "nonpayable",
      "type": "constructor"
    },
    {
      "inputs": [],
      "name": "AlreadyClaimed",
      "type": "error"
    },
    {
      "inputs": [],
      "name": "BetTooSmall",
      "type": "error"
    },
    {
      "inputs": [],
      "name": "BettingPeriodEnded",
      "type": "error"
    },
    {
      "inputs": [],
      "name": "BettingPeriodNotEnded",
      "type": "error"
    },
    {
      "inputs": [],
      "name": "CannotReferSelf",
      "type": "error"
    },
    {
      "inputs": [],
      "name": "ContractPaused",
      "type": "error"
    },
    {
      "inputs": [],
      "name": "GameAlreadyResolved",
      "type": "error"
    },
    {
      "inputs": [],
      "name": "GameHasBets",
      "type": "error"
    },
    {
      "inputs": [],
      "name": "GameNotFound",
      "type": "error"
    },
    {
      "inputs": [],
      "name": "GameNotInBettingPhase",
      "type": "error"
    },
    {
      "inputs": [],
      "name": "GameNotResolved",
      "type": "error"
    },
    {
      "inputs": [],
      "name": "GameStillActive",
      "type": "error"
    },
    {
      "inputs": [],
      "name": "InvalidBetAmount",
      "type": "error"
    },
    {
      "inputs": [],
      "name": "InvalidGameDuration",
      "type": "error"
    },
    {
      "inputs": [],
      "name": "InvalidReferralCode",
      "type": "error"
    },
    {
      "inputs": [],
      "name": "NoActiveGame",
      "type": "error"
    },
    {
      "inputs": [],
      "name": "NoBetToClaim",
      "type": "error"
    },
    {
      "inputs": [],
      "name": "NotEnoughParticipation",
      "type": "error"
    },
    {
      "inputs": [],
      "name": "TransferFailed",
      "type": "error"
    },
    {
      "anonymous": false,
      "inputs": [
        {
          "indexed": true,
          "internalType": "uint256",
          "name": "gameId",
          "type": "uint256"
        },
        {
          "indexed": true,
          "internalType": "address",
          "name": "bettor",
          "type": "address"
        },
        {
          "indexed": false,
          "internalType": "enum TAOCasino.Side",
          "name": "side",
          "type": "uint8"
        },
        {
          "indexed": false,
          "internalType": "uint256",
          "name": "amount",
          "type": "uint256"
        },
        {
          "indexed": false,
          "internalType": "uint256",
          "name": "newPoolTotal",
          "type": "uint256"
        },
        {
          "indexed": false,
          "internalType": "address",
          "name": "referrer",
          "type": "address"
        }
      ],
      "name": "BetPlaced",
      "type": "event"
    },
    {
      "anonymous": false,
      "inputs": [
        {
          "indexed": false,
          "internalType": "bool",
          "name": "isPaused",
          "type": "bool"
        }
      ],
      "name": "ContractPausedEvent",
      "type": "event"
    },
    {
      "anonymous": false,
      "inputs": [
        {
          "indexed": true,
          "internalType": "uint256",
          "name": "gameId",
          "type": "uint256"
        },
        {
          "indexed": false,
          "internalType": "uint256",
          "name": "platformFees",
          "type": "uint256"
        },
        {
          "indexed": false,
          "internalType": "uint256",
          "name": "referralFees",
          "type": "uint256"
        }
      ],
      "name": "FeesReleased",
      "type": "event"
    },
    {
      "anonymous": false,
      "inputs": [
        {
          "indexed": true,
          "internalType": "uint256",
          "name": "gameId",
          "type": "uint256"
        },
        {
          "indexed": false,
          "internalType": "string",
          "name": "reason",
          "type": "string"
        }
      ],
      "name": "GameCancelled",
      "type": "event"
    },
    {
      "anonymous": false,
      "inputs": [
        {
          "indexed": true,
          "internalType": "uint256",
          "name": "gameId",
          "type": "uint256"
        },
        {
          "indexed": false,
          "internalType": "enum TAOCasino.GameType",
          "name": "gameType",
          "type": "uint8"
        },
        {
          "indexed": false,
          "internalType": "enum TAOCasino.GameSpeed",
          "name": "gameSpeed",
          "type": "uint8"
        },
        {
          "indexed": false,
          "internalType": "uint256",
          "name": "startTime",
          "type": "uint256"
        },
        {
          "indexed": false,
          "internalType": "uint256",
          "name": "endTime",
          "type": "uint256"
        }
      ],
      "name": "GameCreated",
      "type": "event"
    },
    {
      "anonymous": false,
      "inputs": [
        {
          "indexed": true,
          "internalType": "uint256",
          "name": "gameId",
          "type": "uint256"
        },
        {
          "indexed": false,
          "internalType": "enum TAOCasino.GameType",
          "name": "gameType",
          "type": "uint8"
        },
        {
          "indexed": false,
          "internalType": "enum TAOCasino.GameSpeed",
          "name": "gameSpeed",
          "type": "uint8"
        },
        {
          "indexed": false,
          "internalType": "enum TAOCasino.Side",
          "name": "winningSide",
          "type": "uint8"
        },
        {
          "indexed": false,
          "internalType": "uint256",
          "name": "redPool",
          "type": "uint256"
        },
        {
          "indexed": false,
          "internalType": "uint256",
          "name": "bluePool",
          "type": "uint256"
        },
        {
          "indexed": false,
          "internalType": "uint256",
          "name": "redBettors",
          "type": "uint256"
        },
        {
          "indexed": false,
          "internalType": "uint256",
          "name": "blueBettors",
          "type": "uint256"
        }
      ],
      "name": "GameResolved",
      "type": "event"
    },
    {
      "anonymous": false,
      "inputs": [
        {
          "indexed": true,
          "internalType": "uint256",
          "name": "gameId",
          "type": "uint256"
        },
        {
          "indexed": false,
          "internalType": "uint256",
          "name": "redPool",
          "type": "uint256"
        },
        {
          "indexed": false,
          "internalType": "uint256",
          "name": "bluePool",
          "type": "uint256"
        }
      ],
      "name": "GameTied",
      "type": "event"
    },
    {
      "anonymous": false,
      "inputs": [
        {
          "indexed": true,
          "internalType": "address",
          "name": "previousOwner",
          "type": "address"
        },
        {
          "indexed": true,
          "internalType": "address",
          "name": "newOwner",
          "type": "address"
        }
      ],
      "name": "OwnershipTransferred",
      "type": "event"
    },
    {
      "anonymous": false,
      "inputs": [
        {
          "indexed": true,
          "internalType": "address",
          "name": "user",
          "type": "address"
        },
        {
          "indexed": false,
          "internalType": "bytes32",
          "name": "codeHash",
          "type": "bytes32"
        }
      ],
      "name": "ReferralCodeCreated",
      "type": "event"
    },
    {
      "anonymous": false,
      "inputs": [
        {
          "indexed": true,
          "internalType": "address",
          "name": "referrer",
          "type": "address"
        },
        {
          "indexed": true,
          "internalType": "address",
          "name": "referee",
          "type": "address"
        },
        {
          "indexed": false,
          "internalType": "uint256",
          "name": "amount",
          "type": "uint256"
        }
      ],
      "name": "ReferralRewardEarned",
      "type": "event"
    },
    {
      "anonymous": false,
      "inputs": [
        {
          "indexed": true,
          "internalType": "address",
          "name": "referrer",
          "type": "address"
        },
        {
          "indexed": false,
          "internalType": "uint256",
          "name": "amount",
          "type": "uint256"
        }
      ],
      "name": "ReferralRewardsClaimed",
      "type": "event"
    },
    {
      "anonymous": false,
      "inputs": [
        {
          "indexed": true,
          "internalType": "uint256",
          "name": "gameId",
          "type": "uint256"
        },
        {
          "indexed": true,
          "internalType": "address",
          "name": "bettor",
          "type": "address"
        },
        {
          "indexed": false,
          "internalType": "enum TAOCasino.Side",
          "name": "side",
          "type": "uint8"
        },
        {
          "indexed": false,
          "internalType": "uint256",
          "name": "amount",
          "type": "uint256"
        }
      ],
      "name": "RefundClaimed",
      "type": "event"
    },
    {
      "anonymous": false,
      "inputs": [
        {
          "indexed": true,
          "internalType": "uint256",
          "name": "gameId",
          "type": "uint256"
        },
        {
          "indexed": true,
          "internalType": "address",
          "name": "bettor",
          "type": "address"
        },
        {
          "indexed": false,
          "internalType": "enum TAOCasino.Side",
          "name": "side",
          "type": "uint8"
        },
        {
          "indexed": false,
          "internalType": "uint256",
          "name": "betAmount",
          "type": "uint256"
        },
        {
          "indexed": false,
          "internalType": "uint256",
          "name": "winnings",
          "type": "uint256"
        }
      ],
      "name": "WinningsClaimed",
      "type": "event"
    },
    {
      "inputs": [],
      "name": "FEE_DENOMINATOR",
      "outputs": [
        {
          "internalType": "uint256",
          "name": "",
          "type": "uint256"
        }
      ],
      "stateMutability": "view",
      "type": "function"
    },
    {
      "inputs": [],
      "name": "MAX_LEADERBOARD_SIZE",
      "outputs": [
        {
          "internalType": "uint256",
          "name": "",
          "type": "uint256"
        }
      ],
      "stateMutability": "view",
      "type": "function"
    },
    {
      "inputs": [],
      "name": "TOKEN_DECIMALS",
      "outputs": [
        {
          "internalType": "uint256",
          "name": "",
          "type": "uint256"
        }
      ],
      "stateMutability": "view",
      "type": "function"
    },
    {
      "inputs": [],
      "name": "accumulatedFees",
      "outputs": [
        {
          "internalType": "uint256",
          "name": "",
          "type": "uint256"
        }
      ],
      "stateMutability": "view",
      "type": "function"
    },
    {
      "inputs": [],
      "name": "breakDuration",
      "outputs": [
        {
          "internalType": "uint256",
          "name": "",
          "type": "uint256"
        }
      ],
      "stateMutability": "view",
      "type": "function"
    },
    {
      "inputs": [
        {
          "internalType": "uint256",
          "name": "_gameId",
          "type": "uint256"
        },
        {
          "internalType": "address",
          "name": "_user",
          "type": "address"
        },
        {
          "internalType": "enum TAOCasino.Side",
          "name": "_side",
          "type": "uint8"
        },
        {
          "internalType": "uint256",
          "name": "_amount",
          "type": "uint256"
        }
      ],
      "name": "calculatePotentialPayout",
      "outputs": [
        {
          "internalType": "uint256",
          "name": "",
          "type": "uint256"
        }
      ],
      "stateMutability": "view",
      "type": "function"
    },
    {
      "inputs": [
        {
          "internalType": "uint256",
          "name": "_gameId",
          "type": "uint256"
        }
      ],
      "name": "claimAllWinnings",
      "outputs": [],
      "stateMutability": "nonpayable",
      "type": "function"
    },
    {
      "inputs": [],
      "name": "claimReferralRewards",
      "outputs": [],
      "stateMutability": "nonpayable",
      "type": "function"
    },
    {
      "inputs": [
        {
          "internalType": "uint256",
          "name": "_gameId",
          "type": "uint256"
        },
        {
          "internalType": "enum TAOCasino.Side",
          "name": "_side",
          "type": "uint8"
        }
      ],
      "name": "claimWinnings",
      "outputs": [],
      "stateMutability": "nonpayable",
      "type": "function"
    },
    {
      "inputs": [
        {
          "internalType": "string",
          "name": "_code",
          "type": "string"
        }
      ],
      "name": "createReferralCode",
      "outputs": [],
      "stateMutability": "nonpayable",
      "type": "function"
    },
    {
      "inputs": [],
      "name": "currentGameId",
      "outputs": [
        {
          "internalType": "uint256",
          "name": "",
          "type": "uint256"
        }
      ],
      "stateMutability": "view",
      "type": "function"
    },
    {
      "inputs": [
        {
          "internalType": "uint256",
          "name": "_gameId",
          "type": "uint256"
        }
      ],
      "name": "emergencyCancelGame",
      "outputs": [],
      "stateMutability": "nonpayable",
      "type": "function"
    },
    {
      "inputs": [],
      "name": "finalCallDuration",
      "outputs": [
        {
          "internalType": "uint256",
          "name": "",
          "type": "uint256"
        }
      ],
      "stateMutability": "view",
      "type": "function"
    },
    {
      "inputs": [
        {
          "internalType": "uint256",
          "name": "",
          "type": "uint256"
        }
      ],
      "name": "gameBalance",
      "outputs": [
        {
          "internalType": "uint256",
          "name": "",
          "type": "uint256"
        }
      ],
      "stateMutability": "view",
      "type": "function"
    },
    {
      "inputs": [
        {
          "internalType": "uint256",
          "name": "",
          "type": "uint256"
        },
        {
          "internalType": "uint256",
          "name": "",
          "type": "uint256"
        }
      ],
      "name": "gameBettors",
      "outputs": [
        {
          "internalType": "address",
          "name": "",
          "type": "address"
        }
      ],
      "stateMutability": "view",
      "type": "function"
    },
    {
      "inputs": [
        {
          "internalType": "uint256",
          "name": "",
          "type": "uint256"
        }
      ],
      "name": "gameFees",
      "outputs": [
        {
          "internalType": "uint256",
          "name": "",
          "type": "uint256"
        }
      ],
      "stateMutability": "view",
      "type": "function"
    },
    {
      "inputs": [
        {
          "internalType": "uint256",
          "name": "",
          "type": "uint256"
        },
        {
          "internalType": "address",
          "name": "",
          "type": "address"
        }
      ],
      "name": "gamePendingReferralRewards",
      "outputs": [
        {
          "internalType": "uint256",
          "name": "",
          "type": "uint256"
        }
      ],
      "stateMutability": "view",
      "type": "function"
    },
    {
      "inputs": [
        {
          "internalType": "uint256",
          "name": "",
          "type": "uint256"
        }
      ],
      "name": "gameReferralRewards",
      "outputs": [
        {
          "internalType": "uint256",
          "name": "",
          "type": "uint256"
        }
      ],
      "stateMutability": "view",
      "type": "function"
    },
    {
      "inputs": [
        {
          "internalType": "uint256",
          "name": "",
          "type": "uint256"
        }
      ],
      "name": "games",
      "outputs": [
        {
          "internalType": "uint256",
          "name": "id",
          "type": "uint256"
        },
        {
          "internalType": "enum TAOCasino.GameType",
          "name": "gameType",
          "type": "uint8"
        },
        {
          "internalType": "enum TAOCasino.GameSpeed",
          "name": "gameSpeed",
          "type": "uint8"
        },
        {
          "internalType": "enum TAOCasino.GamePhase",
          "name": "phase",
          "type": "uint8"
        },
        {
          "internalType": "uint256",
          "name": "redPool",
          "type": "uint256"
        },
        {
          "internalType": "uint256",
          "name": "bluePool",
          "type": "uint256"
        },
        {
          "internalType": "uint256",
          "name": "redBettors",
          "type": "uint256"
        },
        {
          "internalType": "uint256",
          "name": "blueBettors",
          "type": "uint256"
        },
        {
          "internalType": "uint256",
          "name": "startTime",
          "type": "uint256"
        },
        {
          "internalType": "uint256",
          "name": "endTime",
          "type": "uint256"
        },
        {
          "internalType": "uint256",
          "name": "resolvedTime",
          "type": "uint256"
        },
        {
          "internalType": "enum TAOCasino.Side",
          "name": "winningSide",
          "type": "uint8"
        },
        {
          "internalType": "uint256",
          "name": "totalLiquidity",
          "type": "uint256"
        },
        {
          "internalType": "bool",
          "name": "hasWinner",
          "type": "bool"
        }
      ],
      "stateMutability": "view",
      "type": "function"
    },
    {
      "inputs": [],
      "name": "getAccumulatedFees",
      "outputs": [
        {
          "internalType": "uint256",
          "name": "",
          "type": "uint256"
        }
      ],
      "stateMutability": "view",
      "type": "function"
    },
    {
      "inputs": [],
      "name": "getCurrentGame",
      "outputs": [
        {
          "components": [
            {
              "internalType": "uint256",
              "name": "id",
              "type": "uint256"
            },
            {
              "internalType": "enum TAOCasino.GameType",
              "name": "gameType",
              "type": "uint8"
            },
            {
              "internalType": "enum TAOCasino.GameSpeed",
              "name": "gameSpeed",
              "type": "uint8"
            },
            {
              "internalType": "enum TAOCasino.GamePhase",
              "name": "phase",
              "type": "uint8"
            },
            {
              "internalType": "uint256",
              "name": "redPool",
              "type": "uint256"
            },
            {
              "internalType": "uint256",
              "name": "bluePool",
              "type": "uint256"
            },
            {
              "internalType": "uint256",
              "name": "redBettors",
              "type": "uint256"
            },
            {
              "internalType": "uint256",
              "name": "blueBettors",
              "type": "uint256"
            },
            {
              "internalType": "uint256",
              "name": "startTime",
              "type": "uint256"
            },
            {
              "internalType": "uint256",
              "name": "endTime",
              "type": "uint256"
            },
            {
              "internalType": "uint256",
              "name": "resolvedTime",
              "type": "uint256"
            },
            {
              "internalType": "enum TAOCasino.Side",
              "name": "winningSide",
              "type": "uint8"
            },
            {
              "internalType": "uint256",
              "name": "totalLiquidity",
              "type": "uint256"
            },
            {
              "internalType": "bool",
              "name": "hasWinner",
              "type": "bool"
            }
          ],
          "internalType": "struct TAOCasino.Game",
          "name": "",
          "type": "tuple"
        }
      ],
      "stateMutability": "view",
      "type": "function"
    },
    {
      "inputs": [
        {
          "internalType": "uint256",
          "name": "_gameId",
          "type": "uint256"
        },
        {
          "internalType": "enum TAOCasino.Side",
          "name": "_side",
          "type": "uint8"
        }
      ],
      "name": "getCurrentMultiplier",
      "outputs": [
        {
          "internalType": "uint256",
          "name": "",
          "type": "uint256"
        }
      ],
      "stateMutability": "view",
      "type": "function"
    },
    {
      "inputs": [
        {
          "internalType": "uint256",
          "name": "_gameId",
          "type": "uint256"
        }
      ],
      "name": "getGame",
      "outputs": [
        {
          "components": [
            {
              "internalType": "uint256",
              "name": "id",
              "type": "uint256"
            },
            {
              "internalType": "enum TAOCasino.GameType",
              "name": "gameType",
              "type": "uint8"
            },
            {
              "internalType": "enum TAOCasino.GameSpeed",
              "name": "gameSpeed",
              "type": "uint8"
            },
            {
              "internalType": "enum TAOCasino.GamePhase",
              "name": "phase",
              "type": "uint8"
            },
            {
              "internalType": "uint256",
              "name": "redPool",
              "type": "uint256"
            },
            {
              "internalType": "uint256",
              "name": "bluePool",
              "type": "uint256"
            },
            {
              "internalType": "uint256",
              "name": "redBettors",
              "type": "uint256"
            },
            {
              "internalType": "uint256",
              "name": "blueBettors",
              "type": "uint256"
            },
            {
              "internalType": "uint256",
              "name": "startTime",
              "type": "uint256"
            },
            {
              "internalType": "uint256",
              "name": "endTime",
              "type": "uint256"
            },
            {
              "internalType": "uint256",
              "name": "resolvedTime",
              "type": "uint256"
            },
            {
              "internalType": "enum TAOCasino.Side",
              "name": "winningSide",
              "type": "uint8"
            },
            {
              "internalType": "uint256",
              "name": "totalLiquidity",
              "type": "uint256"
            },
            {
              "internalType": "bool",
              "name": "hasWinner",
              "type": "bool"
            }
          ],
          "internalType": "struct TAOCasino.Game",
          "name": "",
          "type": "tuple"
        }
      ],
      "stateMutability": "view",
      "type": "function"
    },
    {
      "inputs": [
        {
          "internalType": "uint256",
          "name": "_gameId",
          "type": "uint256"
        }
      ],
      "name": "getGameBalance",
      "outputs": [
        {
          "internalType": "uint256",
          "name": "",
          "type": "uint256"
        }
      ],
      "stateMutability": "view",
      "type": "function"
    },
    {
      "inputs": [
        {
          "internalType": "uint256",
          "name": "_gameId",
          "type": "uint256"
        }
      ],
      "name": "getGameBettors",
      "outputs": [
        {
          "internalType": "address[]",
          "name": "",
          "type": "address[]"
        }
      ],
      "stateMutability": "view",
      "type": "function"
    },
    {
      "inputs": [],
      "name": "getGameCount",
      "outputs": [
        {
          "internalType": "uint256",
          "name": "",
          "type": "uint256"
        }
      ],
      "stateMutability": "view",
      "type": "function"
    },
    {
      "inputs": [
        {
          "internalType": "uint256",
          "name": "_gameId",
          "type": "uint256"
        }
      ],
      "name": "getGameFees",
      "outputs": [
        {
          "internalType": "uint256",
          "name": "platformFees",
          "type": "uint256"
        },
        {
          "internalType": "uint256",
          "name": "referralFees",
          "type": "uint256"
        }
      ],
      "stateMutability": "view",
      "type": "function"
    },
    {
      "inputs": [
        {
          "internalType": "uint256",
          "name": "_gameId",
          "type": "uint256"
        },
        {
          "internalType": "address",
          "name": "_referrer",
          "type": "address"
        }
      ],
      "name": "getGamePendingReferralReward",
      "outputs": [
        {
          "internalType": "uint256",
          "name": "",
          "type": "uint256"
        }
      ],
      "stateMutability": "view",
      "type": "function"
    },
    {
      "inputs": [],
      "name": "getLeaderboard",
      "outputs": [
        {
          "internalType": "address[]",
          "name": "",
          "type": "address[]"
        }
      ],
      "stateMutability": "view",
      "type": "function"
    },
    {
      "inputs": [
        {
          "internalType": "uint256",
          "name": "_limit",
          "type": "uint256"
        }
      ],
      "name": "getLeaderboardWithStats",
      "outputs": [
        {
          "internalType": "address[]",
          "name": "addresses",
          "type": "address[]"
        },
        {
          "internalType": "uint256[]",
          "name": "winnings",
          "type": "uint256[]"
        },
        {
          "internalType": "uint256[]",
          "name": "wins",
          "type": "uint256[]"
        }
      ],
      "stateMutability": "view",
      "type": "function"
    },
    {
      "inputs": [
        {
          "internalType": "address",
          "name": "_user",
          "type": "address"
        }
      ],
      "name": "getPendingReferralRewards",
      "outputs": [
        {
          "internalType": "uint256",
          "name": "",
          "type": "uint256"
        }
      ],
      "stateMutability": "view",
      "type": "function"
    },
    {
      "inputs": [
        {
          "internalType": "address",
          "name": "_user",
          "type": "address"
        }
      ],
      "name": "getReferralInfo",
      "outputs": [
        {
          "components": [
            {
              "internalType": "address",
              "name": "referrer",
              "type": "address"
            },
            {
              "internalType": "uint256",
              "name": "totalReferred",
              "type": "uint256"
            },
            {
              "internalType": "uint256",
              "name": "totalEarnings",
              "type": "uint256"
            },
            {
              "internalType": "bool",
              "name": "isActive",
              "type": "bool"
            }
          ],
          "internalType": "struct TAOCasino.ReferralInfo",
          "name": "",
          "type": "tuple"
        }
      ],
      "stateMutability": "view",
      "type": "function"
    },
    {
      "inputs": [
        {
          "internalType": "uint256",
          "name": "_gameId",
          "type": "uint256"
        }
      ],
      "name": "getTimeRemaining",
      "outputs": [
        {
          "internalType": "uint256",
          "name": "",
          "type": "uint256"
        }
      ],
      "stateMutability": "view",
      "type": "function"
    },
    {
      "inputs": [
        {
          "internalType": "uint256",
          "name": "_gameId",
          "type": "uint256"
        },
        {
          "internalType": "address",
          "name": "_user",
          "type": "address"
        }
      ],
      "name": "getUserBets",
      "outputs": [
        {
          "components": [
            {
              "components": [
                {
                  "internalType": "uint256",
                  "name": "amount",
                  "type": "uint256"
                },
                {
                  "internalType": "bool",
                  "name": "claimed",
                  "type": "bool"
                },
                {
                  "internalType": "address",
                  "name": "referrer",
                  "type": "address"
                }
              ],
              "internalType": "struct TAOCasino.SideBet",
              "name": "redBet",
              "type": "tuple"
            },
            {
              "components": [
                {
                  "internalType": "uint256",
                  "name": "amount",
                  "type": "uint256"
                },
                {
                  "internalType": "bool",
                  "name": "claimed",
                  "type": "bool"
                },
                {
                  "internalType": "address",
                  "name": "referrer",
                  "type": "address"
                }
              ],
              "internalType": "struct TAOCasino.SideBet",
              "name": "blueBet",
              "type": "tuple"
            }
          ],
          "internalType": "struct TAOCasino.UserBets",
          "name": "",
          "type": "tuple"
        }
      ],
      "stateMutability": "view",
      "type": "function"
    },
    {
      "inputs": [
        {
          "internalType": "uint256",
          "name": "_gameId",
          "type": "uint256"
        },
        {
          "internalType": "address",
          "name": "_user",
          "type": "address"
        },
        {
          "internalType": "enum TAOCasino.Side",
          "name": "_side",
          "type": "uint8"
        }
      ],
      "name": "getUserSideBet",
      "outputs": [
        {
          "components": [
            {
              "internalType": "uint256",
              "name": "amount",
              "type": "uint256"
            },
            {
              "internalType": "bool",
              "name": "claimed",
              "type": "bool"
            },
            {
              "internalType": "address",
              "name": "referrer",
              "type": "address"
            }
          ],
          "internalType": "struct TAOCasino.SideBet",
          "name": "",
          "type": "tuple"
        }
      ],
      "stateMutability": "view",
      "type": "function"
    },
    {
      "inputs": [
        {
          "internalType": "address",
          "name": "_user",
          "type": "address"
        }
      ],
      "name": "getUserStats",
      "outputs": [
        {
          "components": [
            {
              "internalType": "uint256",
              "name": "totalBets",
              "type": "uint256"
            },
            {
              "internalType": "uint256",
              "name": "totalWins",
              "type": "uint256"
            },
            {
              "internalType": "uint256",
              "name": "totalWinnings",
              "type": "uint256"
            },
            {
              "internalType": "uint256",
              "name": "totalLosses",
              "type": "uint256"
            },
            {
              "internalType": "uint256",
              "name": "referralEarnings",
              "type": "uint256"
            }
          ],
          "internalType": "struct TAOCasino.UserStats",
          "name": "",
          "type": "tuple"
        }
      ],
      "stateMutability": "view",
      "type": "function"
    },
    {
      "inputs": [
        {
          "internalType": "uint256",
          "name": "",
          "type": "uint256"
        },
        {
          "internalType": "address",
          "name": "",
          "type": "address"
        }
      ],
      "name": "hasAnyBet",
      "outputs": [
        {
          "internalType": "bool",
          "name": "",
          "type": "bool"
        }
      ],
      "stateMutability": "view",
      "type": "function"
    },
    {
      "inputs": [
        {
          "internalType": "uint256",
          "name": "_gameId",
          "type": "uint256"
        }
      ],
      "name": "isInFinalCall",
      "outputs": [
        {
          "internalType": "bool",
          "name": "",
          "type": "bool"
        }
      ],
      "stateMutability": "view",
      "type": "function"
    },
    {
      "inputs": [
        {
          "internalType": "uint256",
          "name": "_gameId",
          "type": "uint256"
        },
        {
          "internalType": "enum TAOCasino.Side",
          "name": "_side",
          "type": "uint8"
        }
      ],
      "name": "isUnderdogSide",
      "outputs": [
        {
          "internalType": "bool",
          "name": "",
          "type": "bool"
        }
      ],
      "stateMutability": "view",
      "type": "function"
    },
    {
      "inputs": [
        {
          "internalType": "uint256",
          "name": "",
          "type": "uint256"
        }
      ],
      "name": "leaderboard",
      "outputs": [
        {
          "internalType": "address",
          "name": "",
          "type": "address"
        }
      ],
      "stateMutability": "view",
      "type": "function"
    },
    {
      "inputs": [],
      "name": "minBetAmount",
      "outputs": [
        {
          "internalType": "uint256",
          "name": "",
          "type": "uint256"
        }
      ],
      "stateMutability": "view",
      "type": "function"
    },
    {
      "inputs": [],
      "name": "minPoolSize",
      "outputs": [
        {
          "internalType": "uint256",
          "name": "",
          "type": "uint256"
        }
      ],
      "stateMutability": "view",
      "type": "function"
    },
    {
      "inputs": [],
      "name": "minTotalBets",
      "outputs": [
        {
          "internalType": "uint256",
          "name": "",
          "type": "uint256"
        }
      ],
      "stateMutability": "view",
      "type": "function"
    },
    {
      "inputs": [],
      "name": "nextGameId",
      "outputs": [
        {
          "internalType": "uint256",
          "name": "",
          "type": "uint256"
        }
      ],
      "stateMutability": "view",
      "type": "function"
    },
    {
      "inputs": [],
      "name": "owner",
      "outputs": [
        {
          "internalType": "address",
          "name": "",
          "type": "address"
        }
      ],
      "stateMutability": "view",
      "type": "function"
    },
    {
      "inputs": [],
      "name": "paused",
      "outputs": [
        {
          "internalType": "bool",
          "name": "",
          "type": "bool"
        }
      ],
      "stateMutability": "view",
      "type": "function"
    },
    {
      "inputs": [
        {
          "internalType": "address",
          "name": "",
          "type": "address"
        }
      ],
      "name": "pendingReferralRewards",
      "outputs": [
        {
          "internalType": "uint256",
          "name": "",
          "type": "uint256"
        }
      ],
      "stateMutability": "view",
      "type": "function"
    },
    {
      "inputs": [
        {
          "internalType": "uint256",
          "name": "_gameId",
          "type": "uint256"
        },
        {
          "internalType": "enum TAOCasino.Side",
          "name": "_side",
          "type": "uint8"
        },
        {
          "internalType": "string",
          "name": "_referralCode",
          "type": "string"
        }
      ],
      "name": "placeBet",
      "outputs": [],
      "stateMutability": "payable",
      "type": "function"
    },
    {
      "inputs": [],
      "name": "platformFee",
      "outputs": [
        {
          "internalType": "uint256",
          "name": "",
          "type": "uint256"
        }
      ],
      "stateMutability": "view",
      "type": "function"
    },
    {
      "inputs": [],
      "name": "rapidBettingDuration",
      "outputs": [
        {
          "internalType": "uint256",
          "name": "",
          "type": "uint256"
        }
      ],
      "stateMutability": "view",
      "type": "function"
    },
    {
      "inputs": [],
      "name": "rapidBreakDuration",
      "outputs": [
        {
          "internalType": "uint256",
          "name": "",
          "type": "uint256"
        }
      ],
      "stateMutability": "view",
      "type": "function"
    },
    {
      "inputs": [],
      "name": "rapidFinalCallDuration",
      "outputs": [
        {
          "internalType": "uint256",
          "name": "",
          "type": "uint256"
        }
      ],
      "stateMutability": "view",
      "type": "function"
    },
    {
      "inputs": [],
      "name": "rapidMinPoolSize",
      "outputs": [
        {
          "internalType": "uint256",
          "name": "",
          "type": "uint256"
        }
      ],
      "stateMutability": "view",
      "type": "function"
    },
    {
      "inputs": [
        {
          "internalType": "bytes32",
          "name": "",
          "type": "bytes32"
        }
      ],
      "name": "referralCodes",
      "outputs": [
        {
          "internalType": "address",
          "name": "",
          "type": "address"
        }
      ],
      "stateMutability": "view",
      "type": "function"
    },
    {
      "inputs": [],
      "name": "referralShareBps",
      "outputs": [
        {
          "internalType": "uint256",
          "name": "",
          "type": "uint256"
        }
      ],
      "stateMutability": "view",
      "type": "function"
    },
    {
      "inputs": [
        {
          "internalType": "address",
          "name": "",
          "type": "address"
        }
      ],
      "name": "referrals",
      "outputs": [
        {
          "internalType": "address",
          "name": "referrer",
          "type": "address"
        },
        {
          "internalType": "uint256",
          "name": "totalReferred",
          "type": "uint256"
        },
        {
          "internalType": "uint256",
          "name": "totalEarnings",
          "type": "uint256"
        },
        {
          "internalType": "bool",
          "name": "isActive",
          "type": "bool"
        }
      ],
      "stateMutability": "view",
      "type": "function"
    },
    {
      "inputs": [],
      "name": "regularBettingDuration",
      "outputs": [
        {
          "internalType": "uint256",
          "name": "",
          "type": "uint256"
        }
      ],
      "stateMutability": "view",
      "type": "function"
    },
    {
      "inputs": [
        {
          "internalType": "uint256",
          "name": "_gameId",
          "type": "uint256"
        }
      ],
      "name": "releaseGameReferralRewards",
      "outputs": [],
      "stateMutability": "nonpayable",
      "type": "function"
    },
    {
      "inputs": [],
      "name": "renounceOwnership",
      "outputs": [],
      "stateMutability": "nonpayable",
      "type": "function"
    },
    {
      "inputs": [
        {
          "internalType": "uint256",
          "name": "_gameId",
          "type": "uint256"
        }
      ],
      "name": "resolveGame",
      "outputs": [],
      "stateMutability": "nonpayable",
      "type": "function"
    },
    {
      "inputs": [
        {
          "internalType": "uint256",
          "name": "_minBet",
          "type": "uint256"
        }
      ],
      "name": "setMinBetAmount",
      "outputs": [],
      "stateMutability": "nonpayable",
      "type": "function"
    },
    {
      "inputs": [
        {
          "internalType": "uint256",
          "name": "_minBets",
          "type": "uint256"
        },
        {
          "internalType": "uint256",
          "name": "_minPool",
          "type": "uint256"
        },
        {
          "internalType": "uint256",
          "name": "_rapidMinPool",
          "type": "uint256"
        }
      ],
      "name": "setMinParticipation",
      "outputs": [],
      "stateMutability": "nonpayable",
      "type": "function"
    },
    {
      "inputs": [
        {
          "internalType": "bool",
          "name": "_paused",
          "type": "bool"
        }
      ],
      "name": "setPaused",
      "outputs": [],
      "stateMutability": "nonpayable",
      "type": "function"
    },
    {
      "inputs": [
        {
          "internalType": "uint256",
          "name": "_fee",
          "type": "uint256"
        }
      ],
      "name": "setPlatformFee",
      "outputs": [],
      "stateMutability": "nonpayable",
      "type": "function"
    },
    {
      "inputs": [
        {
          "internalType": "uint256",
          "name": "_duration",
          "type": "uint256"
        }
      ],
      "name": "setRapidBettingDuration",
      "outputs": [],
      "stateMutability": "nonpayable",
      "type": "function"
    },
    {
      "inputs": [
        {
          "internalType": "uint256",
          "name": "_share",
          "type": "uint256"
        }
      ],
      "name": "setReferralShareBps",
      "outputs": [],
      "stateMutability": "nonpayable",
      "type": "function"
    },
    {
      "inputs": [
        {
          "internalType": "uint256",
          "name": "_duration",
          "type": "uint256"
        }
      ],
      "name": "setRegularBettingDuration",
      "outputs": [],
      "stateMutability": "nonpayable",
      "type": "function"
    },
    {
      "inputs": [
        {
          "internalType": "uint256",
          "name": "_bonus",
          "type": "uint256"
        },
        {
          "internalType": "uint256",
          "name": "_threshold",
          "type": "uint256"
        }
      ],
      "name": "setUnderdogBonus",
      "outputs": [],
      "stateMutability": "nonpayable",
      "type": "function"
    },
    {
      "inputs": [
        {
          "internalType": "uint256",
          "name": "",
          "type": "uint256"
        },
        {
          "internalType": "address",
          "name": "",
          "type": "address"
        },
        {
          "internalType": "enum TAOCasino.Side",
          "name": "",
          "type": "uint8"
        }
      ],
      "name": "sideBets",
      "outputs": [
        {
          "internalType": "uint256",
          "name": "amount",
          "type": "uint256"
        },
        {
          "internalType": "bool",
          "name": "claimed",
          "type": "bool"
        },
        {
          "internalType": "address",
          "name": "referrer",
          "type": "address"
        }
      ],
      "stateMutability": "view",
      "type": "function"
    },
    {
      "inputs": [
        {
          "internalType": "enum TAOCasino.GameSpeed",
          "name": "_gameSpeed",
          "type": "uint8"
        }
      ],
      "name": "startNewGame",
      "outputs": [],
      "stateMutability": "nonpayable",
      "type": "function"
    },
    {
      "inputs": [
        {
          "internalType": "address",
          "name": "newOwner",
          "type": "address"
        }
      ],
      "name": "transferOwnership",
      "outputs": [],
      "stateMutability": "nonpayable",
      "type": "function"
    },
    {
      "inputs": [],
      "name": "underdogBonusBps",
      "outputs": [
        {
          "internalType": "uint256",
          "name": "",
          "type": "uint256"
        }
      ],
      "stateMutability": "view",
      "type": "function"
    },
    {
      "inputs": [],
      "name": "underdogThreshold",
      "outputs": [
        {
          "internalType": "uint256",
          "name": "",
          "type": "uint256"
        }
      ],
      "stateMutability": "view",
      "type": "function"
    },
    {
      "inputs": [
        {
          "internalType": "address",
          "name": "",
          "type": "address"
        }
      ],
      "name": "userReferralCode",
      "outputs": [
        {
          "internalType": "bytes32",
          "name": "",
          "type": "bytes32"
        }
      ],
      "stateMutability": "view",
      "type": "function"
    },
    {
      "inputs": [
        {
          "internalType": "address",
          "name": "",
          "type": "address"
        }
      ],
      "name": "userStats",
      "outputs": [
        {
          "internalType": "uint256",
          "name": "totalBets",
          "type": "uint256"
        },
        {
          "internalType": "uint256",
          "name": "totalWins",
          "type": "uint256"
        },
        {
          "internalType": "uint256",
          "name": "totalWinnings",
          "type": "uint256"
        },
        {
          "internalType": "uint256",
          "name": "totalLosses",
          "type": "uint256"
        },
        {
          "internalType": "uint256",
          "name": "referralEarnings",
          "type": "uint256"
        }
      ],
      "stateMutability": "view",
      "type": "function"
    },
    {
      "inputs": [
        {
          "internalType": "string",
          "name": "_code",
          "type": "string"
        }
      ],
      "name": "validateReferralCode",
      "outputs": [
        {
          "internalType": "address",
          "name": "",
          "type": "address"
        }
      ],
      "stateMutability": "view",
      "type": "function"
    },
    {
      "inputs": [],
      "name": "withdrawFees",
      "outputs": [],
      "stateMutability": "nonpayable",
      "type": "function"
    },
    {
      "stateMutability": "payable",
      "type": "receive"
    }
  ],
  "bytecode": "0x608080604052346100d257600160008181558154336001600160a01b0319821681179093556001600160a01b0316907f8be0079c531659141344cd1fd0a4f28419497f9722a3daafe3b4186f6b6457e09080a3600160025560966003556103e86004556101f4600555611b5860065566038d7ea4c6800060075560ff196008541660085561189c600d55610258600e5561038480600f5560b460105560115561012c6012556002601355670de0b6b3a76400006014556706f05b59d3b200006015556000601655613cb190816100d88239f35b600080fdfe608080604052600436101561001d575b50361561001b57600080fd5b005b60003560e01c90816297dcc61461253f575080630293399c1461241257806305eaab4b1461234f578063075aa970146122145780630ab53fa514611c83578063113965c41461216a578063117a5b901461207757806312e8e2c31461201057806316c38b3c14611fae57806319be5ad01461114f57806321874ae214611f0157806326232a2e14611ee3578063340cd9bb14611ec55780633469336d1461164a57806334dee60b14611ea75780633e0183d114611ce95780633fa2762514611ccb57806341b4418914611c835780634740609614611b18578063476343ee14611abc57806347c9bc2d14611a9e5780634e43603a146119e657806351bcefa114611999578063536a3ddc1461197b578063587f5ed71461191e5780635b7f415c1461195f5780635c975abb1461193c5780635df45a371461191e57806360d6a94114611900578063618c506d146118c657806364be7a01146118a857806367c15f6a1461188f57806369f2372d146117b65780636b21bed6146117795780636c188593146117065780636c3c1a45146116e85780636d763a6e146116845780636e8ba9f61461164a5780636ed296e4146113b9578063715018a61461136e57806375c14dd8146113505780637b51ac7a146113325780637e644547146112fe5780638a65d874146112995780638cd429911461127b5780638da5cb5b14611252578063968d901b146111fd57806396ee4688146111df5780639ca423b31461117b5780639dad1da51461114f578063a2f77bcc1461103a578063a5a996931461101c578063a5c44a6514610f50578063aa21684514610f03578063afc250a714610ed7578063b135bbb014610eb9578063b7a5a5b614610e9d578063bcbdecb714610e13578063bf36839914610dea578063c62d359c14610864578063c6fd03df14610846578063ce1ea732146107fc578063d07e995b1461078e578063d73792a914610771578063d824e03c14610723578063db87714214610707578063e0ca49ae1461069a578063e87c0ee614610659578063e978f045146105f4578063ebf28b51146105c8578063ec1b3ab5146105a2578063ec84465414610562578063f18cdb651461053f578063f2fde38b1461048e578063f95547fa14610455578063fa744dd31461039b5763fa968eea14610378573861000f565b34610396576000366003190112610396576020600754604051908152f35b600080fd5b346103965760403660031901126103965760c06004356104536103bc6125cb565b604051906103c982612881565b6103d161384a565b82526103db61384a565b60209283015260009384526018825260408085206001600160a01b0392909216855290825280842084805282528084206001855293819020905193610434919061042d9061042887612881565b613869565b8552613869565b9083019081526104486040518094516127b3565b5160608301906127b3565bf35b3461039657602036600319011261039657600435600052600a60205260408060002054600b602052816000205482519182526020820152f35b34610396576020366003190112610396576104a76125e1565b6104af6127d7565b6001600160a01b039081169081156104eb57600180546001600160a01b03198116841790915516600080516020613c1c833981519152600080a3005b60405162461bcd60e51b815260206004820152602660248201527f4f776e61626c653a206e6577206f776e657220697320746865207a65726f206160448201526564647265737360d01b6064820152608490fd5b346103965760206105586105523661265e565b90613b59565b6040519015158152f35b346103965760803660031901126103965761057b6125cb565b60443560028110156103965760209161059a91606435916004356138fc565b604051908152f35b34610396576105c16105b33661265e565b906105bc61295c565b6131ed565b6001600055005b3461039657602036600319011261039657600435600052600b6020526020604060002054604051908152f35b346103965761060236612780565b9161060b61384a565b50600052601860205260406000209060018060a01b03166000526020526040600020906106378161261a565b600052602052606061064c6040600020613869565b61045360405180926127b3565b3461039657600036600319011261039657600254600019810190811161068457602090604051908152f35b634e487b7160e01b600052601160045260246000fd5b346103965760606106aa36612780565b90916000526018602052604060002060018060a01b038093166000526020526040600020906106d88161261a565b6000526020526040600020906001825492015460405192835260ff81161515602084015260081c166040820152f35b3461039657600036600319011261039657602060405160648152f35b346103965760203660031901126103965760043561073f6127d7565b61012c81108015610766575b61075457600e55005b604051630a68a0ed60e01b8152600490fd5b50610e10811161074b565b346103965760003660031901126103965760206040516127108152f35b34610396576020366003190112610396576004356107aa6127d7565b61138881116107b857600455005b606460405162461bcd60e51b815260206004820152602060248201527f526566657272616c2073686172652063616e6e6f7420657863656564203530256044820152fd5b346103965761080a366125f7565b906000526019602052604060002080548210156103965760209161082d91612768565b905460405160039290921b1c6001600160a01b03168152f35b34610396576000366003190112610396576020601454604051908152f35b6060366003190112610396576024356004356002821015610396576044356001600160401b0381116103965761089e903690600401612631565b6108a661295c565b82158015610dde575b610dcc573415610dba576007543410610da857826000526020906017825260406000209060ff600183015460101c166005811015610d9257600103610d80576007820154421015610d6e5784600052601883526040600020336000528352604060002061091b8761261a565b86600052835260406000206003549160028401938454916003820194855461094381866129b2565b610cf1575b5061095a9350612710938491346129fe565b046109658134612a31565b938a600187019360018060a01b039b8c865460081c1682151580610ce9575b15610c545750938c979693610a4296936109a18e94600a986128da565b9e8f169182151580610c4a575b610bb4575b50505090505b8c600052838b526109d060406000209182546129b2565b90558b600052601a8a5260406000206109ea8682546129b2565b90558654966109fc88159834906129b2565b9055805460ff198082168355968c169b8c610b8d575b505050610a1e8c61261a565b8b15958615610b6d57610a32348a546129b2565b8955610b58575b019182546129b2565b905586600052601b8552604060002033600052855260ff6040600020541615610ae5575b50336000528380526040600020610a7d81546129bf565b9055610a888761261a565b15610adc575054905b60405194610a9e8161261a565b85523490850152604084015260608301527f6c8573037a11bfad9b3a07afcfdd9a9790c4748ea22c9348a596f466194d59b060803393a36001600055005b90505490610a91565b86600052601b85526040600020336000528552600160406000209182541617905585600052601984526040600020805490600160401b821015610b425781610b35916001610b3c94018155612768565b3391612a3e565b87610a66565b634e487b7160e01b600052604160045260246000fd5b60048101610b6681546129bf565b9055610a39565b610b783489546129b2565b885515610a395760058101610b6681546129bf565b6001600160a81b031990911660089190911b610100600160a81b03161790558c8080610a12565b610bce600c91610bc6600454876129fe565b048095612a31565b9482600052528d60406000209083600052526040600020610bf08482546129b2565b9055600052600b8d526040600020610c098382546129b2565b905580600052601c8d526001604060002001610c2581546129bf565b9055604051918252600080516020613bfc8339815191528d3393a38a908f8e816109b3565b50338314156109ae565b610a42969350600a959250809d9897949150610c71575b506109b9565b610c8990610c81600454846129fe565b048092612a31565b908d600052600c8c5260406000208d6000528c526040600020610cad8282546129b2565b90558d600052600b8c526040600020610cc78282546129b2565b90556040519081528c600080516020613bfc8339815191528d3393a38e610c6b565b508015610984565b610d0990610cfe8d61261a565b8c610d6757856129b2565b93612710948582029180830487149015171561068457610d2891612a11565b9360065481039081116106845761095a9410610d45575b8b610948565b60055480821115610d5e57610d5991612a31565b610d3f565b50506000610d3f565b80956129b2565b6040516356c7983160e01b8152600490fd5b60405163976a06eb60e01b8152600490fd5b634e487b7160e01b600052602160045260246000fd5b604051631a6254d160e31b8152600490fd5b604051639de3d44160e01b8152600490fd5b6040516309b3c62760e21b8152600490fd5b506002548310156108af565b34610396576020366003190112610396576004356021548110156103965761082d602091612737565b34610396576020806003193601126103965760043560005260198152604060002090604051808383829554938481520190600052836000209260005b85828210610e7e57505050610e66925003836128b7565b610e7a60405192828493845283019061255a565b0390f35b85546001600160a01b0316845260019586019588955093019201610e4f565b346103965760203660031901126103965761001b600435612a5c565b34610396576000366003190112610396576020600254604051908152f35b3461039657602036600319011261039657600435600052600a6020526020604060002054604051908152f35b34610396576020366003190112610396576004356001600160401b03811161039657610f3e610f386020923690600401612631565b906128da565b6040516001600160a01b039091168152f35b34610396576020806003193601126103965760043590610f6e61295c565b8160005260188152604060002033600052815260406000206000805281526040600020908260005260188152604060002033600052815260406000209060016000525260406000209080541515908161100c575b50610ffe575b805415159081610fee575b50610fdf576001600055005b610fe890612fe0565b806105c1565b60ff915060010154161582610fd3565b61100782612d35565b610fc8565b60ff915060010154161583610fc2565b34610396576000366003190112610396576020600e54604051908152f35b34610396576020366003190112610396576004356110566137e2565b5080158015611143575b610dcc576000526017602052610e7a604060002060ff600b6040519261108584612865565b805484526110c28360018301546110a1828216602089016129ce565b818160081c166110b08161261a565b604088015260101c16606086016129da565b60028101546080850152600381015460a0850152600481015460c0850152600581015460e08501526006810154610100850152600781015461012085015260088101546101408501528260098201541661111b8161261a565b610160850152600a81015461018085015201541615156101a08201526040519182918261267d565b50600254811015611060565b3461039657602036600319011261039657600435600052601a6020526020604060002054604051908152f35b346103965760203660031901126103965760806001600160a01b038061119f6125e1565b16600052601c6020526040600020908154169060018101549060ff6003600283015492015416916040519384526020840152604083015215156060820152f35b34610396576000366003190112610396576020600f54604051908152f35b34610396576000366003190112610396576112166137e2565b506016548015611241576000526017602052610e7a604060002060ff600b6040519261108584612865565b6040516295b66160e61b8152600490fd5b34610396576000366003190112610396576001546040516001600160a01b039091168152602090f35b3461039657602036600319011261039657602061059a600435613a48565b34610396576020366003190112610396576001600160a01b036112ba6125e1565b166000526020805260a06040600020805490600181015490600281015460046003830154920154926040519485526020850152604084015260608301526080820152f35b3461039657602036600319011261039657600435600052601d602052602060018060a01b0360406000205416604051908152f35b34610396576000366003190112610396576020601054604051908152f35b34610396576000366003190112610396576020600d54604051908152f35b34610396576000366003190112610396576113876127d7565b600180546001600160a01b031981169091556000906001600160a01b0316600080516020613c1c8339815191528280a3005b3461039657602036600319011261039657600260043510156103965760ff6008541661163857601654806115f1575b506002546113f5816129bf565b60025561140360043561261a565b6004356115e657611417600d545b426129b2565b6040519061142482612865565b8282526000602083015261143960043561261a565b60043560408301526001606083015260006080830152600060a0830152600060c0830152600060e0830152426101008301528061012083015260006101408301526000610160830152600061018083015260006101a0830152826000526017602052604060002090825182556020830151916001831015610d92576001810154906040850151916114c98361261a565b6114d28361261a565b6060860151906005821015610d92577f5bffe7e5c8098c6e3688eb38e9850f561c9f5cbb9e256d591242a8a92ee7af26966080966115b99561ff006101a09460ff62ff0000600b9860101b1694169062ffffff1916179160081b161717600185015586810151600285015560a0810151600385015560c0810151600485015560e0810151600585015561010081015160068501556101208101516007850155610140810151600885015561159761016082015161158e8161261a565b600986016129e6565b610180810151600a8501550151151591019060ff801983541691151516179055565b8360165560405190600082526115d060043561261a565b60043560208301524260408301526060820152a2005b611417600e54611411565b600052601760205260ff60016040600020015460101c166005811015610d9257600181146116265760021461162657806113e8565b604051632127c5b560e01b8152600490fd5b60405163ab35696f60e01b8152600490fd5b34610396576020366003190112610396576001600160a01b0361166b6125e1565b16600052601f6020526020604060002054604051908152f35b3461039657600036600319011261039657604051806021548082528260208093016021600052836000209260005b858282106116c957505050610e66925003836128b7565b85546001600160a01b03168452600195860195889550930192016116b2565b34610396576020366003190112610396576020610558600435613ac0565b34610396576020366003190112610396576004356117226127d7565b670de0b6b3a7640000811161173657600755005b60405162461bcd60e51b815260206004820152601b60248201527a4d696e206265742063616e6e6f742065786365656420312054414f60281b6044820152606490fd5b34610396576020366003190112610396576004356117956127d7565b610708811080156117aa575b61075457600d55005b506201518081116117a1565b34610396576020366003190112610396576004356117d26127d7565b80158015611883575b610dcc57806000526017602052604060002060ff600182015460101c166005811015610d925760041461187157806005600461181c930154910154906129b2565b61185f5760405161001b9161183082612881565b601f82527f456d657267656e63792063616e63656c6c6174696f6e206279206f776e65720060208301526134a7565b6040516344a603bb60e11b8152600490fd5b6040516341d5c2cf60e01b8152600490fd5b506002548110156117db565b3461039657602061059a6118a23661265e565b906139ca565b34610396576000366003190112610396576020601554604051908152f35b34610396576020366003190112610396576001600160a01b036118e76125e1565b16600052601e6020526020604060002054604051908152f35b34610396576000366003190112610396576020600554604051908152f35b34610396576000366003190112610396576020600954604051908152f35b3461039657600036600319011261039657602060ff600854166040519015158152f35b3461039657600036600319011261039657602060405160128152f35b34610396576000366003190112610396576020601654604051908152f35b34610396576040366003190112610396576119b26125cb565b600435600052601b60205260406000209060018060a01b0316600052602052602060ff604060002054166040519015158152f35b34610396576020806003193601126103965760a090611a036125e1565b60006080604051611a138161284a565b82815282858201528260408201528260608201520152600180841b0316600052808052604060002060405190611a488261284a565b805492838352600182015490808401918252600283015491604085019283526080600460038601549560608801968752015495019485526040519586525190850152516040840152516060830152516080820152f35b34610396576000366003190112610396576020600454604051908152f35b3461039657600036600319011261039657611ad56127d7565b60095480611adf57005b6000808080938160095560018060a01b03600154165af1611afe61291d565b5015611b0657005b6040516312171d8360e31b8152600490fd5b3461039657602080600319360112610396576004359081158015611c77575b610dcc578160005260178152604060002060ff600b820154169081611c44575b5015611c0c5781600052600c81526040600020336000528152604060002054918215611bcc5790601c91600052600c8152604060002033600052815260006040812055601f81526040600020611bae8482546129b2565b90553360005252611bc860026040600020019182546129b2565b9055005b60405162461bcd60e51b81526004810183905260186024820152774e6f207265776172647320666f7220746869732067616d6560401b6044820152606490fd5b6064906040519062461bcd60e51b82526004820152601160248201527011d85b59481b9bdd081c995cdbdb1d9959607a1b6044820152fd5b60ff91506001015460101c166005811015610d925760038114908115611c6c575b5083611b57565b600491501483611c65565b50600254821015611b37565b3461039657604036600319011261039657611c9c6125cb565b600435600052600c60205260406000209060018060a01b03166000526020526020604060002054604051908152f35b34610396576000366003190112610396576020601354604051908152f35b3461039657602080600319360112610396576004356001600160401b03811161039657611d1a903690600401612631565b611d3d8360405183819483830196873781016000838201520380845201826128b7565b5190209081600052601d815260018060a01b038060406000205416611e6d5733600052601e8252604060002054611e325790611e277f84d410093008674eba76b70ab072a4f33a5858f8aebca4c89a70447eccf6ffda9284600052601d8352600360406000209160018060a01b031992338482541617905533600052601e85528660406000205560405192611dd18461282f565b600084528584016000815260408501916000835260608601936001855233600052601c895260406000209651169086541617855551600185015551600284015551151591019060ff801983541691151516179055565b6040519283523392a2005b60405162461bcd60e51b8152600481018390526013602482015272416c72656164792068617665206120636f646560681b6044820152606490fd5b60405162461bcd60e51b815260048101839052601260248201527121b7b2329030b63932b0b23c903a30b5b2b760711b6044820152606490fd5b34610396576000366003190112610396576020601154604051908152f35b34610396576000366003190112610396576020601254604051908152f35b34610396576000366003190112610396576020600354604051908152f35b34610396576020366003190112610396576080611f1c6125e1565b60006060604051611f2c8161282f565b828152826020820152826040820152015260018060a01b03809116600052601c60205260406000209060405190611f628261282f565b82541691828252600181015460208301908152606060ff600360028501549460408701958652015416930192151583526040519384525160208401525160408301525115156060820152f35b34610396576020366003190112610396576004358015158091036103965760207f11cec829ff57d278cffee07757e9621bfa0ae0cd17b3d23a7b81cba95174b8a491611ff86127d7565b60ff196008541660ff821617600855604051908152a1005b346103965760203660031901126103965760043561202c6127d7565b6103e8811161203a57600355005b60405162461bcd60e51b81526020600482015260156024820152744665652063616e6e6f74206578636565642031302560581b6044820152606490fd5b3461039657602036600319011261039657600435600052601760205260406000208054906001810154908160081c60ff16916002820154600383015460048401546005850154600686015491600787015493600888015495600989015460ff1697600a8a015499600b015460ff169a6040519c8d5260208d0160ff8316906120fe9161260d565b6121078161261a565b60408d015260608c019060101c60ff169061212191612624565b60808b015260a08a015260c089015260e08801526101008701526101208601526101408501526121508161261a565b61016084015261018083015215156101a08201526101c090f35b3461039657612178366125f7565b906121816127d7565b6103e881116121d557612328821161219b57600555600655005b60405162461bcd60e51b81526020600482015260126024820152710a8d0e4cae6d0ded8c840e8dede40d0d2ced60731b6044820152606490fd5b60405162461bcd60e51b8152602060048201526017602482015276426f6e75732063616e6e6f74206578636565642031302560481b6044820152606490fd5b34610396576020806003193601126103965760043560215480821060001461234857505b6122418161389f565b9061224f60405192836128b7565b808252601f1961225e8261389f565b01368484013761226d816138b6565b92612277826138b6565b9160005b8181106122be576122a385610e7a866122b0878b60405196879660608852606088019061255a565b9186830390870152612597565b908382036040850152612597565b806122cb61234392612737565b90546001600160a01b039160039190821b1c82166122e9848a6138e8565b52816122f484612737565b905490831b1c16600052858052600260406000200154612314848b6138e8565b5261231e83612737565b9054911b1c1660005283805260016040600020015461233d82876138e8565b526129bf565b61227b565b9050612238565b346103965760003660031901126103965761236861295c565b33600052601f60205260406000205480156123d75733600052601f60205260006040812055600080808084335af161239e61291d565b5015611b06576040519081527f98741ecf35c5d20a8ed68dbd8540500684864a6c98c2a41a5844d0b3a2357d4360203392a26001600055005b60405162461bcd60e51b81526020600482015260136024820152724e6f207265776172647320746f20636c61696d60681b6044820152606490fd5b34610396576060366003190112610396576044356024356004356124346127d7565b606481116124fd5768056bc75e2d6310000082116124b8576802b5e3af16b1880000831161246757601355601455601555005b60405162461bcd60e51b815260206004820152602360248201527f5261706964206d696e20706f6f6c2063616e6e6f74206578636565642035302060448201526254414f60e81b6064820152608490fd5b60405162461bcd60e51b815260206004820152601e60248201527f4d696e20706f6f6c2063616e6e6f7420657863656564203130302054414f00006044820152606490fd5b60405162461bcd60e51b815260206004820152601a60248201527904d696e20626574732063616e6e6f7420657863656564203130360341b6044820152606490fd5b34610396576000366003190112610396576020906006548152f35b90815180825260208080930193019160005b82811061257a575050505090565b83516001600160a01b03168552938101939281019260010161256c565b90815180825260208080930193019160005b8281106125b7575050505090565b8351855293810193928101926001016125a9565b602435906001600160a01b038216820361039657565b600435906001600160a01b038216820361039657565b6040906003190112610396576004359060243590565b906001821015610d925752565b60021115610d9257565b906005821015610d925752565b9181601f84011215610396578235916001600160401b038311610396576020838186019501011161039657565b6040906003190112610396576004359060243560028110156103965790565b9190916101c08101928051825261269c6020820151602084019061260d565b60408101516126aa8161261a565b60408301526126c160608201516060840190612624565b6080810151608083015260a081015160a083015260c081015160c083015260e081015160e0830152610100808201519083015261012080820151908301526101408082015190830152610160808201519061271b8261261a565b83015261018080820151908301526101a0809101511515910152565b60215481101561275257602160005260206000200190600090565b634e487b7160e01b600052603260045260246000fd5b80548210156127525760005260206000200190600090565b606090600319011261039657600435906024356001600160a01b0381168103610396579060443560028110156103965790565b805182526020808201511515908301526040908101516001600160a01b0316910152565b6001546001600160a01b031633036127eb57565b606460405162461bcd60e51b815260206004820152602060248201527f4f776e61626c653a2063616c6c6572206973206e6f7420746865206f776e65726044820152fd5b608081019081106001600160401b03821117610b4257604052565b60a081019081106001600160401b03821117610b4257604052565b6101c081019081106001600160401b03821117610b4257604052565b604081019081106001600160401b03821117610b4257604052565b606081019081106001600160401b03821117610b4257604052565b601f909101601f19168101906001600160401b03821190821017610b4257604052565b906128ff602060405183819483830196873781016000838201520380845201826128b7565b5190206000908152601d60205260409020546001600160a01b031690565b3d15612957573d906001600160401b038211610b42576040519161294b601f8201601f1916602001846128b7565b82523d6000602084013e565b606090565b60026000541461296d576002600055565b60405162461bcd60e51b815260206004820152601f60248201527f5265656e7472616e637947756172643a207265656e7472616e742063616c6c006044820152606490fd5b9190820180921161068457565b60001981146106845760010190565b6001821015610d925752565b6005821015610d925752565b906129f08161261a565b60ff80198354169116179055565b8181029291811591840414171561068457565b8115612a1b570490565b634e487b7160e01b600052601260045260246000fd5b9190820391821161068457565b919082549060031b9160018060a01b03809116831b921b1916179055565b80158015612d29575b610dcc57600081815260209060178252604080822091600183019283549260ff8460101c166005811015612d1557600103612d055760078201544210612cf5576004820193845495612abd60058501978854906129b2565b946002850192835496600160ff612ada60038a019a8b54906129b2565b9360081c16612ae88161261a565b03612cec57601554905b60135411918215612ce2575b5050612c9f5782548654808214612c26575050928260e09895928b7f416dd9b4796469cf2903ad298b9814a0c229aef0e99a8cda19126ea6cebab8df848d817f8ab79f4c0e431955cd8b26254237e48bd01ee49391716594c2ee0ec505aa4d189f9c999a60ff9e9b548b5411600014612c1e5780995b612b818b600983016129e6565b600b810160ff600190198254161790556203000062ff000019895416178855600842910155858152600a8352600b8282205493522054612bc3826009546129b2565b60095582519182528c820152a25496612bef898960081c1692549554965497549884519a8b911661260d565b612bf88261261a565b880152612c048261261a565b8601526060850152608084015260a083015260c0820152a2565b600199612b74565b915091508997507f457861637420746965202d20726566756e64696e6720616c6c20626574730000965083809650612c9d9a95507ec62d58cbb6a9291254143347fdc129d33fc8550dbb03c801abb5fcba00470d9493505191825288820152a25192612c9184612881565b601e84528301526134a7565b565b505050915050612c9d9492507924b739bab33334b1b4b2b73a103830b93a34b1b4b830ba34b7b760311b91505192612cd684612881565b601a84528301526134a7565b1090503880612afe565b60145490612af2565b5163658aead360e01b8152600490fd5b516341d5c2cf60e01b8152600490fd5b634e487b7160e01b84526021600452602484fd5b50600254811015612a65565b80158015612fd4575b610dcc5760009080825260206017815260408084209160188152818520338652815281852085805281528185208054938415612fc3576001908183019586549060ff91828116612fb25782600b850154161580612f83575b612f30575050808383015460101c166005811015612f1c5760038114159081612f10575b50612eff576009820181815416612dd08161261a565b612ed4575416612ddf8161261a565b612ecb57600201545b825490670de0b6b3a76400009182810290808204841490151715612eb757612e2391612e1391612a11565b888a52601a8652868a20546129fe565b04948160ff1982541617905584612e90575b33875282805283872001612e4981546129bf565b9055338652818052600283872001612e628582546129b2565b9055612e6d3361359b565b54908251958652850152830152600080516020613c3c83398151915260603393a3565b8680808088335af1612ea061291d565b50612e35575b83516312171d8360e31b8152600490fd5b634e487b7160e01b8a52601160045260248afd5b60030154612de8565b5050509050600395939192945060ff1982541617905533825280522001612efb81546129bf565b9055565b8551636082930560e11b8152600490fd5b60049150141538612dba565b634e487b7160e01b8a52602160045260248afd5b9250959693505060ff19161790558480808085335af1612f4e61291d565b5015612f725782519485528401523392600080516020613c5c8339815191529190a3565b82516312171d8360e31b8152600490fd5b50828585015460101c166005811015612f9e57600414612d96565b634e487b7160e01b8c52602160045260248cfd5b8751630c8d9eab60e31b8152600490fd5b8351632f42cbdd60e01b8152600490fd5b50600254811015612d3e565b801580156131e1575b610dcc576000908082526020601781526040808420916018815281852033865281528185209460019586825282528281209081549485156131d0578783019586549060ff91828116612fb2578a9083600b86015416158061319e575b613180575082915083015460101c166005811015612d155760038114159081613174575b50612eff57600982018181541661307f8161261a565b8a0361314e5754166130908161261a565b61314557600201545b825490670de0b6b3a76400009182810290808204841490151715613131576130d4916130c491612a11565b888452601a8652868420546129fe565b04948760ff198254161790558385613114575b60029133815284805288828220016130ff81546129bf565b90553381528480522001612e628582546129b2565b508080808088335af161312561291d565b5015612ea657836130e7565b634e487b7160e01b84526011600452602484fd5b60030154613099565b50505093919294505060039460ff1982541617905533825280522001612efb81546129bf565b60049150141538613069565b60ff1916179097555093949350905080808085335af1612f4e61291d565b509084015460101c831660058110156131bc579060048c9214613045565b634e487b7160e01b86526021600452602486fd5b8451632f42cbdd60e01b8152600490fd5b50600254811015612fe9565b8015801561349b575b610dcc576000818152602060178152604090818320926018825282812033825282528281206132248761261a565b86825282528281209081549485156131d0576001908184019687549060ff9182811661348a5782600b85015416158061345b575b61340f575050808383015460101c1660058110156133fb57600381141590816133ef575b506133de5760098201818154166132928161261a565b61329b8c61261a565b8b036133b65754166132ac8161261a565b6133ad57600201545b835490670de0b6b3a76400009182810290808204841490151715613399576132e3889493926132f392612a11565b8a8652601a8852848620546129fe565b04968160ff1982541617905586613369575b916002923382528580528282200161331d81546129bf565b905533815284805220016133328582546129b2565b905561333d3361359b565b549082519561334b8161261a565b8652850152830152600080516020613c3c83398151915260603393a3565b90508180808089335af161337b61291d565b5015613388578490613305565b84516312171d8360e31b8152600490fd5b634e487b7160e01b85526011600452602485fd5b600301546132b5565b505050915093919294506003955060ff1982541617905533825280522001612efb81546129bf565b8651636082930560e11b8152600490fd5b6004915014153861327c565b634e487b7160e01b85526021600452602485fd5b925096979394505060ff191617905580808085335af161342d61291d565b5015612f7257908291600080516020613c5c8339815191529351956134518161261a565b86528501523393a3565b50828585015460101c16600581101561347657600414613258565b634e487b7160e01b87526021600452602487fd5b8851630c8d9eab60e31b8152600490fd5b506002548110156131f6565b90600082815260209160178352604091600b838220600a86526134d48584205483885286852054906129b2565b878452601a87526134e98685209182546129b2565b9055868352600a86528285812055818652828581205561351260028201546003830154906129b2565b600a820155600181016204000062ff0000198254161790550160ff1981541690558251938085528251928382870152825b8481106135885750505092817f0f023b047be6c305859504186f8b03ee5a634f9ab472ff386d3b1de9387c083e948483959484010152601f80199101168101030190a2565b8181018301518782018701528201613543565b9060018060a01b03918281169260009284845260208080526002604094818688200154908798888991602154925b8381106137af575b5050156136d1575b505050955b8015801580613682575b15613678576000198201918083116136645761363961363e8761364a9361360e87612737565b9390549161361b81612737565b969054966003978661362c8d612737565b9290938b1b1c1691612a3e565b612737565b9390941b1c1691612a3e565b156135de575b634e487b7160e01b86526011600452602486fd5b634e487b7160e01b88526011600452602488fd5b5050509350505050565b508461368d83612737565b919054600392831b1c168852838052888789200154906000198401848111612eb757906136ba8892612737565b9054911b1c168852838052888789200154106135e8565b9298509091606481101561373b5750602154909150600160401b811015613727579061370682600161370c9401602155612737565b90612a3e565b6021546000198101908111613650578390965b9038806135d9565b634e487b7160e01b87526041600452602487fd5b6000199281840191821161379b578661375383612737565b90549060031b1c16895284805289888a20015410600014613790579061370661377b92612737565b6021549081019081116136505783909661371f565b505050509350505050565b634e487b7160e01b89526011600452602489fd5b818a6137ba83612737565b90549060031b1c16146137d5576137d0906129bf565b6135c9565b9b505050600138806135d1565b604051906137ef82612865565b816101a06000918281528260208201528260408201528260608201528260808201528260a08201528260c08201528260e082015282610100820152826101208201528261014082015282610160820152826101808201520152565b604051906138578261289c565b60006040838281528260208201520152565b906040516138768161289c565b825481526001929092015460ff81161515602084015260081c6001600160a01b03166040830152565b6001600160401b038111610b425760051b60200190565b906138c08261389f565b6138cd60405191826128b7565b82815280926138de601f199161389f565b0190602036910137565b80518210156127525760209160051b010190565b9091811580156139be575b6139b55761399d6139a392600a6139956139a8976000938452601760205260408420976018602052604085209060018060a01b031685526020526040842061394e8761261a565b8685526020526139628160408620546129b2565b9561397c612710613975600354856129fe565b0483612a31565b946139868261261a565b506139ab5760028801546129b2565b9501546129b2565b906129fe565b612a11565b90565b60038801546129b2565b50505050600090565b50600254821015613907565b919082158015613a3c575b613a34576000928352601760205260408320906139f18161261a565b613a29576002810154905b8115613a2557600a015461271090818102918183041490151715613131576139a8929350612a11565b5050565b6003810154906139fc565b506127109150565b506002548310156139d5565b80158015613ab4575b613aae57600090815260176020526040812060ff600182015460101c166005811015613a9a57600103613a96576007015480421015613a96576139a891504290612a31565b5090565b634e487b7160e01b83526021600452602483fd5b50600090565b50600254811015613a51565b80158015613b4d575b613aae57600090815260176020526040812090600182015460ff8160101c166005811015613a9a57600103613b47579060ff60019260081c1690613b0c8261261a565b5003613b3957613b256007601054925b01549182612a31565b4210159081613b32575090565b9050421090565b613b256007600f5492613b1c565b50905090565b50600254811015613ac9565b600090815260176020526040812060036002820154910154613b7b81836129b2565b938415613bf357613b8b8161261a565b613beb5750915b6127109283810290808204851490151715613bd75790613bb191612a11565b906006548303928311613bc357501090565b634e487b7160e01b81526011600452602490fd5b634e487b7160e01b83526011600452602483fd5b905091613b92565b50505090509056fee05841e5a327956f4a370d19d6e54c700a6b2638644182706f8ac8738c35fb8a8be0079c531659141344cd1fd0a4f28419497f9722a3daafe3b4186f6b6457e0d6a2a5fa33ed09b7e0ad44c465d1d7cc1ebac5fe4f8e9c6625c55a874855db5f96be94f3cb4521868c06461d3a4197839df4d896c7fb4362fc0e3be356a11c12a2646970667358221220219b5d9f5ea27b79c78d53fa68e000cfaac7d8ae4eb65f344cbabe31b80cd87a64736f6c63430008130033",
  "linkReferences": {},
  "deployedLinkReferences": {}
}