{
  "_format": "hh-sol-artifact-1",
  "contractName": "TAOCasino",
  "sourceName": "contracts/TAO_Casino.sol",
  "abi": [
    {
      "inputs": [],
      "stateMutability": "nonpayable",
      "type": "constructor"
    },
    {
      "inputs": [],
      "name": "AlreadyClaimed",
      "type": "error"
    },
    {
      "inputs": [],
      "name": "BetTooSmall",
      "type": "error"
    },
    {
      "inputs": [],
      "name": "BettingPeriodEnded",
      "type": "error"
    },
    {
      "inputs": [],
      "name": "BettingPeriodNotEnded",
      "type": "error"
    },
    {
      "inputs": [],
      "name": "ContractPaused",
      "type": "error"
    },
    {
      "inputs": [],
      "name": "DrandPrecompileCallFailed",
      "type": "error"
    },
    {
      "inputs": [],
      "name": "DrandPulseNotAvailable",
      "type": "error"
    },
    {
      "inputs": [],
      "name": "GameAlreadyResolved",
      "type": "error"
    },
    {
      "inputs": [],
      "name": "GameNotFound",
      "type": "error"
    },
    {
      "inputs": [],
      "name": "GameNotInBettingPhase",
      "type": "error"
    },
    {
      "inputs": [],
      "name": "GameNotResolved",
      "type": "error"
    },
    {
      "inputs": [],
      "name": "GameStillActive",
      "type": "error"
    },
    {
      "inputs": [],
      "name": "InvalidBetAmount",
      "type": "error"
    },
    {
      "inputs": [],
      "name": "LateBetRefundOnly",
      "type": "error"
    },
    {
      "inputs": [],
      "name": "NoActiveGame",
      "type": "error"
    },
    {
      "inputs": [],
      "name": "NoBetToClaim",
      "type": "error"
    },
    {
      "inputs": [],
      "name": "TooManyBettors",
      "type": "error"
    },
    {
      "inputs": [],
      "name": "TransferFailed",
      "type": "error"
    },
    {
      "inputs": [],
      "name": "WaitingForRandomness",
      "type": "error"
    },
    {
      "anonymous": false,
      "inputs": [
        {
          "indexed": true,
          "internalType": "uint256",
          "name": "gameId",
          "type": "uint256"
        },
        {
          "indexed": false,
          "internalType": "uint256",
          "name": "actualEndBlock",
          "type": "uint256"
        },
        {
          "indexed": false,
          "internalType": "uint256",
          "name": "validRedPool",
          "type": "uint256"
        },
        {
          "indexed": false,
          "internalType": "uint256",
          "name": "validBluePool",
          "type": "uint256"
        }
      ],
      "name": "ActualEndBlockSet",
      "type": "event"
    },
    {
      "anonymous": false,
      "inputs": [
        {
          "indexed": true,
          "internalType": "uint256",
          "name": "gameId",
          "type": "uint256"
        },
        {
          "indexed": true,
          "internalType": "address",
          "name": "bettor",
          "type": "address"
        },
        {
          "indexed": false,
          "internalType": "enum TAOCasino.Side",
          "name": "side",
          "type": "uint8"
        },
        {
          "indexed": false,
          "internalType": "uint256",
          "name": "amount",
          "type": "uint256"
        },
        {
          "indexed": false,
          "internalType": "uint256",
          "name": "newPoolTotal",
          "type": "uint256"
        }
      ],
      "name": "BetPlaced",
      "type": "event"
    },
    {
      "anonymous": false,
      "inputs": [
        {
          "indexed": false,
          "internalType": "bool",
          "name": "isPaused",
          "type": "bool"
        }
      ],
      "name": "ContractPausedEvent",
      "type": "event"
    },
    {
      "anonymous": false,
      "inputs": [
        {
          "indexed": true,
          "internalType": "uint256",
          "name": "gameId",
          "type": "uint256"
        },
        {
          "indexed": false,
          "internalType": "uint64",
          "name": "targetDrandRound",
          "type": "uint64"
        },
        {
          "indexed": false,
          "internalType": "uint256",
          "name": "commitBlock",
          "type": "uint256"
        }
      ],
      "name": "DrandRoundCommitted",
      "type": "event"
    },
    {
      "anonymous": false,
      "inputs": [
        {
          "indexed": true,
          "internalType": "uint256",
          "name": "gameId",
          "type": "uint256"
        },
        {
          "indexed": false,
          "internalType": "uint64",
          "name": "targetDrandRound",
          "type": "uint64"
        },
        {
          "indexed": false,
          "internalType": "uint256",
          "name": "blocksWaited",
          "type": "uint256"
        }
      ],
      "name": "DrandTimeoutCancelled",
      "type": "event"
    },
    {
      "anonymous": false,
      "inputs": [
        {
          "indexed": true,
          "internalType": "uint256",
          "name": "gameId",
          "type": "uint256"
        },
        {
          "indexed": false,
          "internalType": "uint256",
          "name": "platformFees",
          "type": "uint256"
        }
      ],
      "name": "FeesReleased",
      "type": "event"
    },
    {
      "anonymous": false,
      "inputs": [
        {
          "indexed": true,
          "internalType": "uint256",
          "name": "gameId",
          "type": "uint256"
        },
        {
          "indexed": false,
          "internalType": "string",
          "name": "reason",
          "type": "string"
        }
      ],
      "name": "GameCancelled",
      "type": "event"
    },
    {
      "anonymous": false,
      "inputs": [
        {
          "indexed": true,
          "internalType": "uint256",
          "name": "gameId",
          "type": "uint256"
        },
        {
          "indexed": false,
          "internalType": "uint256",
          "name": "startBlock",
          "type": "uint256"
        },
        {
          "indexed": false,
          "internalType": "uint256",
          "name": "endBlock",
          "type": "uint256"
        }
      ],
      "name": "GameCreated",
      "type": "event"
    },
    {
      "anonymous": false,
      "inputs": [
        {
          "indexed": true,
          "internalType": "uint256",
          "name": "gameId",
          "type": "uint256"
        },
        {
          "indexed": false,
          "internalType": "enum TAOCasino.Side",
          "name": "winningSide",
          "type": "uint8"
        },
        {
          "indexed": false,
          "internalType": "uint256",
          "name": "redPool",
          "type": "uint256"
        },
        {
          "indexed": false,
          "internalType": "uint256",
          "name": "bluePool",
          "type": "uint256"
        },
        {
          "indexed": false,
          "internalType": "uint256",
          "name": "redBettors",
          "type": "uint256"
        },
        {
          "indexed": false,
          "internalType": "uint256",
          "name": "blueBettors",
          "type": "uint256"
        }
      ],
      "name": "GameResolved",
      "type": "event"
    },
    {
      "anonymous": false,
      "inputs": [
        {
          "indexed": true,
          "internalType": "uint256",
          "name": "gameId",
          "type": "uint256"
        },
        {
          "indexed": false,
          "internalType": "uint256",
          "name": "redPool",
          "type": "uint256"
        },
        {
          "indexed": false,
          "internalType": "uint256",
          "name": "bluePool",
          "type": "uint256"
        }
      ],
      "name": "GameTied",
      "type": "event"
    },
    {
      "anonymous": false,
      "inputs": [
        {
          "indexed": true,
          "internalType": "uint256",
          "name": "gameId",
          "type": "uint256"
        },
        {
          "indexed": true,
          "internalType": "address",
          "name": "bettor",
          "type": "address"
        },
        {
          "indexed": false,
          "internalType": "enum TAOCasino.Side",
          "name": "side",
          "type": "uint8"
        },
        {
          "indexed": false,
          "internalType": "uint256",
          "name": "amount",
          "type": "uint256"
        }
      ],
      "name": "LateBetRefunded",
      "type": "event"
    },
    {
      "anonymous": false,
      "inputs": [
        {
          "indexed": true,
          "internalType": "address",
          "name": "previousOwner",
          "type": "address"
        },
        {
          "indexed": true,
          "internalType": "address",
          "name": "newOwner",
          "type": "address"
        }
      ],
      "name": "OwnershipTransferred",
      "type": "event"
    },
    {
      "anonymous": false,
      "inputs": [
        {
          "indexed": true,
          "internalType": "uint256",
          "name": "gameId",
          "type": "uint256"
        },
        {
          "indexed": true,
          "internalType": "address",
          "name": "bettor",
          "type": "address"
        },
        {
          "indexed": false,
          "internalType": "enum TAOCasino.Side",
          "name": "side",
          "type": "uint8"
        },
        {
          "indexed": false,
          "internalType": "uint256",
          "name": "amount",
          "type": "uint256"
        }
      ],
      "name": "RefundClaimed",
      "type": "event"
    },
    {
      "anonymous": false,
      "inputs": [
        {
          "indexed": true,
          "internalType": "uint256",
          "name": "gameId",
          "type": "uint256"
        },
        {
          "indexed": true,
          "internalType": "address",
          "name": "bettor",
          "type": "address"
        },
        {
          "indexed": false,
          "internalType": "enum TAOCasino.Side",
          "name": "side",
          "type": "uint8"
        },
        {
          "indexed": false,
          "internalType": "uint256",
          "name": "betAmount",
          "type": "uint256"
        },
        {
          "indexed": false,
          "internalType": "uint256",
          "name": "winnings",
          "type": "uint256"
        }
      ],
      "name": "WinningsClaimed",
      "type": "event"
    },
    {
      "inputs": [],
      "name": "BETTING_BLOCKS",
      "outputs": [
        {
          "internalType": "uint256",
          "name": "",
          "type": "uint256"
        }
      ],
      "stateMutability": "view",
      "type": "function"
    },
    {
      "inputs": [],
      "name": "DRAND_LAST_ROUND_KEY",
      "outputs": [
        {
          "internalType": "bytes32",
          "name": "",
          "type": "bytes32"
        }
      ],
      "stateMutability": "view",
      "type": "function"
    },
    {
      "inputs": [],
      "name": "DRAND_PULSES_PREFIX",
      "outputs": [
        {
          "internalType": "bytes",
          "name": "",
          "type": "bytes"
        }
      ],
      "stateMutability": "view",
      "type": "function"
    },
    {
      "inputs": [],
      "name": "DRAND_ROUND_BUFFER",
      "outputs": [
        {
          "internalType": "uint256",
          "name": "",
          "type": "uint256"
        }
      ],
      "stateMutability": "view",
      "type": "function"
    },
    {
      "inputs": [],
      "name": "DRAND_TIMEOUT_BLOCKS",
      "outputs": [
        {
          "internalType": "uint256",
          "name": "",
          "type": "uint256"
        }
      ],
      "stateMutability": "view",
      "type": "function"
    },
    {
      "inputs": [],
      "name": "FEE_DENOMINATOR",
      "outputs": [
        {
          "internalType": "uint256",
          "name": "",
          "type": "uint256"
        }
      ],
      "stateMutability": "view",
      "type": "function"
    },
    {
      "inputs": [],
      "name": "FINAL_CALL_BLOCKS",
      "outputs": [
        {
          "internalType": "uint256",
          "name": "",
          "type": "uint256"
        }
      ],
      "stateMutability": "view",
      "type": "function"
    },
    {
      "inputs": [],
      "name": "MAX_BETTORS_PER_GAME",
      "outputs": [
        {
          "internalType": "uint256",
          "name": "",
          "type": "uint256"
        }
      ],
      "stateMutability": "view",
      "type": "function"
    },
    {
      "inputs": [],
      "name": "MAX_LEADERBOARD_SIZE",
      "outputs": [
        {
          "internalType": "uint256",
          "name": "",
          "type": "uint256"
        }
      ],
      "stateMutability": "view",
      "type": "function"
    },
    {
      "inputs": [],
      "name": "MIN_BET_AMOUNT",
      "outputs": [
        {
          "internalType": "uint256",
          "name": "",
          "type": "uint256"
        }
      ],
      "stateMutability": "view",
      "type": "function"
    },
    {
      "inputs": [],
      "name": "MIN_POOL_SIZE",
      "outputs": [
        {
          "internalType": "uint256",
          "name": "",
          "type": "uint256"
        }
      ],
      "stateMutability": "view",
      "type": "function"
    },
    {
      "inputs": [],
      "name": "MIN_TOTAL_BETS",
      "outputs": [
        {
          "internalType": "uint256",
          "name": "",
          "type": "uint256"
        }
      ],
      "stateMutability": "view",
      "type": "function"
    },
    {
      "inputs": [],
      "name": "PLATFORM_FEE",
      "outputs": [
        {
          "internalType": "uint256",
          "name": "",
          "type": "uint256"
        }
      ],
      "stateMutability": "view",
      "type": "function"
    },
    {
      "inputs": [],
      "name": "STORAGE_PRECOMPILE",
      "outputs": [
        {
          "internalType": "address",
          "name": "",
          "type": "address"
        }
      ],
      "stateMutability": "view",
      "type": "function"
    },
    {
      "inputs": [],
      "name": "accumulatedFees",
      "outputs": [
        {
          "internalType": "uint256",
          "name": "",
          "type": "uint256"
        }
      ],
      "stateMutability": "view",
      "type": "function"
    },
    {
      "inputs": [
        {
          "internalType": "uint256",
          "name": "_gameId",
          "type": "uint256"
        },
        {
          "internalType": "address",
          "name": "_user",
          "type": "address"
        },
        {
          "internalType": "enum TAOCasino.Side",
          "name": "_side",
          "type": "uint8"
        },
        {
          "internalType": "uint256",
          "name": "_amount",
          "type": "uint256"
        }
      ],
      "name": "calculatePotentialPayout",
      "outputs": [
        {
          "internalType": "uint256",
          "name": "",
          "type": "uint256"
        }
      ],
      "stateMutability": "view",
      "type": "function"
    },
    {
      "inputs": [
        {
          "internalType": "uint256",
          "name": "_gameId",
          "type": "uint256"
        }
      ],
      "name": "claimAllWinnings",
      "outputs": [],
      "stateMutability": "nonpayable",
      "type": "function"
    },
    {
      "inputs": [
        {
          "internalType": "uint256",
          "name": "_gameId",
          "type": "uint256"
        },
        {
          "internalType": "enum TAOCasino.Side",
          "name": "_side",
          "type": "uint8"
        }
      ],
      "name": "claimWinnings",
      "outputs": [],
      "stateMutability": "nonpayable",
      "type": "function"
    },
    {
      "inputs": [],
      "name": "currentGameId",
      "outputs": [
        {
          "internalType": "uint256",
          "name": "",
          "type": "uint256"
        }
      ],
      "stateMutability": "view",
      "type": "function"
    },
    {
      "inputs": [
        {
          "internalType": "uint256",
          "name": "",
          "type": "uint256"
        }
      ],
      "name": "gameBalance",
      "outputs": [
        {
          "internalType": "uint256",
          "name": "",
          "type": "uint256"
        }
      ],
      "stateMutability": "view",
      "type": "function"
    },
    {
      "inputs": [
        {
          "internalType": "uint256",
          "name": "",
          "type": "uint256"
        },
        {
          "internalType": "uint256",
          "name": "",
          "type": "uint256"
        }
      ],
      "name": "gameBettors",
      "outputs": [
        {
          "internalType": "address",
          "name": "",
          "type": "address"
        }
      ],
      "stateMutability": "view",
      "type": "function"
    },
    {
      "inputs": [
        {
          "internalType": "uint256",
          "name": "",
          "type": "uint256"
        }
      ],
      "name": "gameFees",
      "outputs": [
        {
          "internalType": "uint256",
          "name": "",
          "type": "uint256"
        }
      ],
      "stateMutability": "view",
      "type": "function"
    },
    {
      "inputs": [
        {
          "internalType": "uint256",
          "name": "",
          "type": "uint256"
        }
      ],
      "name": "games",
      "outputs": [
        {
          "internalType": "uint256",
          "name": "id",
          "type": "uint256"
        },
        {
          "internalType": "enum TAOCasino.GamePhase",
          "name": "phase",
          "type": "uint8"
        },
        {
          "internalType": "uint256",
          "name": "redPool",
          "type": "uint256"
        },
        {
          "internalType": "uint256",
          "name": "bluePool",
          "type": "uint256"
        },
        {
          "internalType": "uint256",
          "name": "redBettors",
          "type": "uint256"
        },
        {
          "internalType": "uint256",
          "name": "blueBettors",
          "type": "uint256"
        },
        {
          "internalType": "uint256",
          "name": "startBlock",
          "type": "uint256"
        },
        {
          "internalType": "uint256",
          "name": "endBlock",
          "type": "uint256"
        },
        {
          "internalType": "uint256",
          "name": "resolvedBlock",
          "type": "uint256"
        },
        {
          "internalType": "enum TAOCasino.Side",
          "name": "winningSide",
          "type": "uint8"
        },
        {
          "internalType": "uint256",
          "name": "totalLiquidity",
          "type": "uint256"
        },
        {
          "internalType": "bool",
          "name": "hasWinner",
          "type": "bool"
        },
        {
          "internalType": "uint64",
          "name": "targetDrandRound",
          "type": "uint64"
        },
        {
          "internalType": "uint256",
          "name": "commitBlock",
          "type": "uint256"
        },
        {
          "internalType": "uint256",
          "name": "actualEndBlock",
          "type": "uint256"
        },
        {
          "internalType": "uint256",
          "name": "validRedPool",
          "type": "uint256"
        },
        {
          "internalType": "uint256",
          "name": "validBluePool",
          "type": "uint256"
        },
        {
          "internalType": "uint256",
          "name": "validLiquidity",
          "type": "uint256"
        }
      ],
      "stateMutability": "view",
      "type": "function"
    },
    {
      "inputs": [],
      "name": "getAccumulatedFees",
      "outputs": [
        {
          "internalType": "uint256",
          "name": "",
          "type": "uint256"
        }
      ],
      "stateMutability": "view",
      "type": "function"
    },
    {
      "inputs": [
        {
          "internalType": "uint256",
          "name": "_gameId",
          "type": "uint256"
        }
      ],
      "name": "getBlocksRemaining",
      "outputs": [
        {
          "internalType": "uint256",
          "name": "",
          "type": "uint256"
        }
      ],
      "stateMutability": "view",
      "type": "function"
    },
    {
      "inputs": [],
      "name": "getCurrentGame",
      "outputs": [
        {
          "components": [
            {
              "internalType": "uint256",
              "name": "id",
              "type": "uint256"
            },
            {
              "internalType": "enum TAOCasino.GamePhase",
              "name": "phase",
              "type": "uint8"
            },
            {
              "internalType": "uint256",
              "name": "redPool",
              "type": "uint256"
            },
            {
              "internalType": "uint256",
              "name": "bluePool",
              "type": "uint256"
            },
            {
              "internalType": "uint256",
              "name": "redBettors",
              "type": "uint256"
            },
            {
              "internalType": "uint256",
              "name": "blueBettors",
              "type": "uint256"
            },
            {
              "internalType": "uint256",
              "name": "startBlock",
              "type": "uint256"
            },
            {
              "internalType": "uint256",
              "name": "endBlock",
              "type": "uint256"
            },
            {
              "internalType": "uint256",
              "name": "resolvedBlock",
              "type": "uint256"
            },
            {
              "internalType": "enum TAOCasino.Side",
              "name": "winningSide",
              "type": "uint8"
            },
            {
              "internalType": "uint256",
              "name": "totalLiquidity",
              "type": "uint256"
            },
            {
              "internalType": "bool",
              "name": "hasWinner",
              "type": "bool"
            },
            {
              "internalType": "uint64",
              "name": "targetDrandRound",
              "type": "uint64"
            },
            {
              "internalType": "uint256",
              "name": "commitBlock",
              "type": "uint256"
            },
            {
              "internalType": "uint256",
              "name": "actualEndBlock",
              "type": "uint256"
            },
            {
              "internalType": "uint256",
              "name": "validRedPool",
              "type": "uint256"
            },
            {
              "internalType": "uint256",
              "name": "validBluePool",
              "type": "uint256"
            },
            {
              "internalType": "uint256",
              "name": "validLiquidity",
              "type": "uint256"
            }
          ],
          "internalType": "struct TAOCasino.Game",
          "name": "",
          "type": "tuple"
        }
      ],
      "stateMutability": "view",
      "type": "function"
    },
    {
      "inputs": [
        {
          "internalType": "uint256",
          "name": "_gameId",
          "type": "uint256"
        },
        {
          "internalType": "enum TAOCasino.Side",
          "name": "_side",
          "type": "uint8"
        }
      ],
      "name": "getCurrentMultiplier",
      "outputs": [
        {
          "internalType": "uint256",
          "name": "",
          "type": "uint256"
        }
      ],
      "stateMutability": "view",
      "type": "function"
    },
    {
      "inputs": [
        {
          "internalType": "uint64",
          "name": "round",
          "type": "uint64"
        }
      ],
      "name": "getDrandRandomness",
      "outputs": [
        {
          "internalType": "bytes32",
          "name": "",
          "type": "bytes32"
        }
      ],
      "stateMutability": "view",
      "type": "function"
    },
    {
      "inputs": [],
      "name": "getDrandStatus",
      "outputs": [
        {
          "internalType": "uint64",
          "name": "lastRound",
          "type": "uint64"
        },
        {
          "internalType": "bool",
          "name": "isAvailable",
          "type": "bool"
        }
      ],
      "stateMutability": "view",
      "type": "function"
    },
    {
      "inputs": [
        {
          "internalType": "uint256",
          "name": "_gameId",
          "type": "uint256"
        }
      ],
      "name": "getGame",
      "outputs": [
        {
          "components": [
            {
              "internalType": "uint256",
              "name": "id",
              "type": "uint256"
            },
            {
              "internalType": "enum TAOCasino.GamePhase",
              "name": "phase",
              "type": "uint8"
            },
            {
              "internalType": "uint256",
              "name": "redPool",
              "type": "uint256"
            },
            {
              "internalType": "uint256",
              "name": "bluePool",
              "type": "uint256"
            },
            {
              "internalType": "uint256",
              "name": "redBettors",
              "type": "uint256"
            },
            {
              "internalType": "uint256",
              "name": "blueBettors",
              "type": "uint256"
            },
            {
              "internalType": "uint256",
              "name": "startBlock",
              "type": "uint256"
            },
            {
              "internalType": "uint256",
              "name": "endBlock",
              "type": "uint256"
            },
            {
              "internalType": "uint256",
              "name": "resolvedBlock",
              "type": "uint256"
            },
            {
              "internalType": "enum TAOCasino.Side",
              "name": "winningSide",
              "type": "uint8"
            },
            {
              "internalType": "uint256",
              "name": "totalLiquidity",
              "type": "uint256"
            },
            {
              "internalType": "bool",
              "name": "hasWinner",
              "type": "bool"
            },
            {
              "internalType": "uint64",
              "name": "targetDrandRound",
              "type": "uint64"
            },
            {
              "internalType": "uint256",
              "name": "commitBlock",
              "type": "uint256"
            },
            {
              "internalType": "uint256",
              "name": "actualEndBlock",
              "type": "uint256"
            },
            {
              "internalType": "uint256",
              "name": "validRedPool",
              "type": "uint256"
            },
            {
              "internalType": "uint256",
              "name": "validBluePool",
              "type": "uint256"
            },
            {
              "internalType": "uint256",
              "name": "validLiquidity",
              "type": "uint256"
            }
          ],
          "internalType": "struct TAOCasino.Game",
          "name": "",
          "type": "tuple"
        }
      ],
      "stateMutability": "view",
      "type": "function"
    },
    {
      "inputs": [
        {
          "internalType": "uint256",
          "name": "_gameId",
          "type": "uint256"
        }
      ],
      "name": "getGameBalance",
      "outputs": [
        {
          "internalType": "uint256",
          "name": "",
          "type": "uint256"
        }
      ],
      "stateMutability": "view",
      "type": "function"
    },
    {
      "inputs": [
        {
          "internalType": "uint256",
          "name": "_gameId",
          "type": "uint256"
        }
      ],
      "name": "getGameBettors",
      "outputs": [
        {
          "internalType": "address[]",
          "name": "",
          "type": "address[]"
        }
      ],
      "stateMutability": "view",
      "type": "function"
    },
    {
      "inputs": [],
      "name": "getGameCount",
      "outputs": [
        {
          "internalType": "uint256",
          "name": "",
          "type": "uint256"
        }
      ],
      "stateMutability": "view",
      "type": "function"
    },
    {
      "inputs": [
        {
          "internalType": "uint256",
          "name": "_gameId",
          "type": "uint256"
        }
      ],
      "name": "getGameFees",
      "outputs": [
        {
          "internalType": "uint256",
          "name": "",
          "type": "uint256"
        }
      ],
      "stateMutability": "view",
      "type": "function"
    },
    {
      "inputs": [],
      "name": "getLastDrandRound",
      "outputs": [
        {
          "internalType": "uint64",
          "name": "",
          "type": "uint64"
        }
      ],
      "stateMutability": "view",
      "type": "function"
    },
    {
      "inputs": [],
      "name": "getLeaderboard",
      "outputs": [
        {
          "internalType": "address[]",
          "name": "",
          "type": "address[]"
        }
      ],
      "stateMutability": "view",
      "type": "function"
    },
    {
      "inputs": [
        {
          "internalType": "uint256",
          "name": "_limit",
          "type": "uint256"
        }
      ],
      "name": "getLeaderboardWithStats",
      "outputs": [
        {
          "internalType": "address[]",
          "name": "addresses",
          "type": "address[]"
        },
        {
          "internalType": "uint256[]",
          "name": "winnings",
          "type": "uint256[]"
        },
        {
          "internalType": "uint256[]",
          "name": "wins",
          "type": "uint256[]"
        }
      ],
      "stateMutability": "view",
      "type": "function"
    },
    {
      "inputs": [
        {
          "internalType": "uint256",
          "name": "_gameId",
          "type": "uint256"
        }
      ],
      "name": "getResolutionStatus",
      "outputs": [
        {
          "internalType": "enum TAOCasino.GamePhase",
          "name": "phase",
          "type": "uint8"
        },
        {
          "internalType": "uint64",
          "name": "targetDrandRound",
          "type": "uint64"
        },
        {
          "internalType": "uint256",
          "name": "actualEndBlock",
          "type": "uint256"
        },
        {
          "internalType": "bool",
          "name": "canFinalize",
          "type": "bool"
        }
      ],
      "stateMutability": "view",
      "type": "function"
    },
    {
      "inputs": [
        {
          "internalType": "uint256",
          "name": "_gameId",
          "type": "uint256"
        },
        {
          "internalType": "address",
          "name": "_user",
          "type": "address"
        }
      ],
      "name": "getUserBets",
      "outputs": [
        {
          "components": [
            {
              "components": [
                {
                  "internalType": "uint256",
                  "name": "amount",
                  "type": "uint256"
                },
                {
                  "internalType": "uint256",
                  "name": "placedAtBlock",
                  "type": "uint256"
                },
                {
                  "internalType": "bool",
                  "name": "claimed",
                  "type": "bool"
                },
                {
                  "internalType": "bool",
                  "name": "isLateBet",
                  "type": "bool"
                }
              ],
              "internalType": "struct TAOCasino.SideBet",
              "name": "redBet",
              "type": "tuple"
            },
            {
              "components": [
                {
                  "internalType": "uint256",
                  "name": "amount",
                  "type": "uint256"
                },
                {
                  "internalType": "uint256",
                  "name": "placedAtBlock",
                  "type": "uint256"
                },
                {
                  "internalType": "bool",
                  "name": "claimed",
                  "type": "bool"
                },
                {
                  "internalType": "bool",
                  "name": "isLateBet",
                  "type": "bool"
                }
              ],
              "internalType": "struct TAOCasino.SideBet",
              "name": "blueBet",
              "type": "tuple"
            }
          ],
          "internalType": "struct TAOCasino.UserBets",
          "name": "",
          "type": "tuple"
        }
      ],
      "stateMutability": "view",
      "type": "function"
    },
    {
      "inputs": [
        {
          "internalType": "uint256",
          "name": "_gameId",
          "type": "uint256"
        },
        {
          "internalType": "address",
          "name": "_user",
          "type": "address"
        },
        {
          "internalType": "enum TAOCasino.Side",
          "name": "_side",
          "type": "uint8"
        }
      ],
      "name": "getUserSideBet",
      "outputs": [
        {
          "components": [
            {
              "internalType": "uint256",
              "name": "amount",
              "type": "uint256"
            },
            {
              "internalType": "uint256",
              "name": "placedAtBlock",
              "type": "uint256"
            },
            {
              "internalType": "bool",
              "name": "claimed",
              "type": "bool"
            },
            {
              "internalType": "bool",
              "name": "isLateBet",
              "type": "bool"
            }
          ],
          "internalType": "struct TAOCasino.SideBet",
          "name": "",
          "type": "tuple"
        }
      ],
      "stateMutability": "view",
      "type": "function"
    },
    {
      "inputs": [
        {
          "internalType": "address",
          "name": "_user",
          "type": "address"
        }
      ],
      "name": "getUserStats",
      "outputs": [
        {
          "components": [
            {
              "internalType": "uint256",
              "name": "totalBets",
              "type": "uint256"
            },
            {
              "internalType": "uint256",
              "name": "totalWins",
              "type": "uint256"
            },
            {
              "internalType": "uint256",
              "name": "totalWinnings",
              "type": "uint256"
            },
            {
              "internalType": "uint256",
              "name": "totalLosses",
              "type": "uint256"
            }
          ],
          "internalType": "struct TAOCasino.UserStats",
          "name": "",
          "type": "tuple"
        }
      ],
      "stateMutability": "view",
      "type": "function"
    },
    {
      "inputs": [
        {
          "internalType": "uint256",
          "name": "",
          "type": "uint256"
        },
        {
          "internalType": "address",
          "name": "",
          "type": "address"
        }
      ],
      "name": "hasAnyBet",
      "outputs": [
        {
          "internalType": "bool",
          "name": "",
          "type": "bool"
        }
      ],
      "stateMutability": "view",
      "type": "function"
    },
    {
      "inputs": [
        {
          "internalType": "uint256",
          "name": "_gameId",
          "type": "uint256"
        },
        {
          "internalType": "address",
          "name": "_user",
          "type": "address"
        },
        {
          "internalType": "enum TAOCasino.Side",
          "name": "_side",
          "type": "uint8"
        }
      ],
      "name": "isBetLate",
      "outputs": [
        {
          "internalType": "bool",
          "name": "",
          "type": "bool"
        }
      ],
      "stateMutability": "view",
      "type": "function"
    },
    {
      "inputs": [
        {
          "internalType": "uint64",
          "name": "round",
          "type": "uint64"
        }
      ],
      "name": "isDrandRoundAvailable",
      "outputs": [
        {
          "internalType": "bool",
          "name": "",
          "type": "bool"
        }
      ],
      "stateMutability": "view",
      "type": "function"
    },
    {
      "inputs": [
        {
          "internalType": "uint256",
          "name": "_gameId",
          "type": "uint256"
        }
      ],
      "name": "isInFinalCall",
      "outputs": [
        {
          "internalType": "bool",
          "name": "",
          "type": "bool"
        }
      ],
      "stateMutability": "view",
      "type": "function"
    },
    {
      "inputs": [
        {
          "internalType": "uint256",
          "name": "_gameId",
          "type": "uint256"
        }
      ],
      "name": "isResolutionTimedOut",
      "outputs": [
        {
          "internalType": "bool",
          "name": "",
          "type": "bool"
        }
      ],
      "stateMutability": "view",
      "type": "function"
    },
    {
      "inputs": [
        {
          "internalType": "uint256",
          "name": "",
          "type": "uint256"
        }
      ],
      "name": "leaderboard",
      "outputs": [
        {
          "internalType": "address",
          "name": "",
          "type": "address"
        }
      ],
      "stateMutability": "view",
      "type": "function"
    },
    {
      "inputs": [],
      "name": "nextGameId",
      "outputs": [
        {
          "internalType": "uint256",
          "name": "",
          "type": "uint256"
        }
      ],
      "stateMutability": "view",
      "type": "function"
    },
    {
      "inputs": [],
      "name": "owner",
      "outputs": [
        {
          "internalType": "address",
          "name": "",
          "type": "address"
        }
      ],
      "stateMutability": "view",
      "type": "function"
    },
    {
      "inputs": [],
      "name": "paused",
      "outputs": [
        {
          "internalType": "bool",
          "name": "",
          "type": "bool"
        }
      ],
      "stateMutability": "view",
      "type": "function"
    },
    {
      "inputs": [
        {
          "internalType": "uint256",
          "name": "_gameId",
          "type": "uint256"
        },
        {
          "internalType": "enum TAOCasino.Side",
          "name": "_side",
          "type": "uint8"
        }
      ],
      "name": "placeBet",
      "outputs": [],
      "stateMutability": "payable",
      "type": "function"
    },
    {
      "inputs": [],
      "name": "renounceOwnership",
      "outputs": [],
      "stateMutability": "nonpayable",
      "type": "function"
    },
    {
      "inputs": [
        {
          "internalType": "uint256",
          "name": "_gameId",
          "type": "uint256"
        }
      ],
      "name": "resolveGame",
      "outputs": [],
      "stateMutability": "nonpayable",
      "type": "function"
    },
    {
      "inputs": [
        {
          "internalType": "bool",
          "name": "_paused",
          "type": "bool"
        }
      ],
      "name": "setPaused",
      "outputs": [],
      "stateMutability": "nonpayable",
      "type": "function"
    },
    {
      "inputs": [
        {
          "internalType": "uint256",
          "name": "",
          "type": "uint256"
        },
        {
          "internalType": "address",
          "name": "",
          "type": "address"
        },
        {
          "internalType": "enum TAOCasino.Side",
          "name": "",
          "type": "uint8"
        }
      ],
      "name": "sideBets",
      "outputs": [
        {
          "internalType": "uint256",
          "name": "amount",
          "type": "uint256"
        },
        {
          "internalType": "uint256",
          "name": "placedAtBlock",
          "type": "uint256"
        },
        {
          "internalType": "bool",
          "name": "claimed",
          "type": "bool"
        },
        {
          "internalType": "bool",
          "name": "isLateBet",
          "type": "bool"
        }
      ],
      "stateMutability": "view",
      "type": "function"
    },
    {
      "inputs": [],
      "name": "startNewGame",
      "outputs": [],
      "stateMutability": "nonpayable",
      "type": "function"
    },
    {
      "inputs": [
        {
          "internalType": "address",
          "name": "newOwner",
          "type": "address"
        }
      ],
      "name": "transferOwnership",
      "outputs": [],
      "stateMutability": "nonpayable",
      "type": "function"
    },
    {
      "inputs": [
        {
          "internalType": "address",
          "name": "",
          "type": "address"
        }
      ],
      "name": "userStats",
      "outputs": [
        {
          "internalType": "uint256",
          "name": "totalBets",
          "type": "uint256"
        },
        {
          "internalType": "uint256",
          "name": "totalWins",
          "type": "uint256"
        },
        {
          "internalType": "uint256",
          "name": "totalWinnings",
          "type": "uint256"
        },
        {
          "internalType": "uint256",
          "name": "totalLosses",
          "type": "uint256"
        }
      ],
      "stateMutability": "view",
      "type": "function"
    },
    {
      "inputs": [],
      "name": "withdrawFees",
      "outputs": [],
      "stateMutability": "nonpayable",
      "type": "function"
    }
  ],
  "bytecode": "0x6080806040523461007257600160008181558154336001600160a01b0319821681179093556001600160a01b0316907f8be0079c531659141344cd1fd0a4f28419497f9722a3daafe3b4186f6b6457e09080a36001600255600060035560ff1960055416600555613bbe90816100788239f35b600080fdfe60e0604052600436101561001257600080fd5b60003560e01c806303edf914146115525780630480091a14611522578063075aa970146113e65780630e182df1146113b9578063117a5b901461127557806316c38b3c1461121357806319be5ad014610a5d578063232ccf7d146111c757806334fbc9a1146111ab57806337e5a0eb1461118e5780634493353914611172578063476343ee14611116578063482d51e014610eae5780634e43603a14610e2557806351bcefa114610dd8578063536a3ddc14610dba578063587f5ed714610d795780635c975abb14610d975780635df45a3714610d795780636475e3d314610d57578063674943ad14610d3957806367c15f6a14610d205780636c3c1a4514610d025780636d763a6e14610c9e578063715018a614610c535780637489780b14610c2b5780637dd7f49214610b7d5780638a65d87414610b215780638d652d4314610b055780638da5cb5b14610adc5780638ed6f26c146105e1578063968d901b14610a895780639dad1da514610a5d578063a2f77bcc14610914578063a5c44a6514610848578063afc250a714610365578063b135bbb01461082a578063b3954fb31461080d578063b7a5a5b6146107ef578063baf15dd1146107d2578063bcbdecb714610748578063bdffaf7b14610725578063bef58eb2146106fc578063bf368399146106d3578063bf9607c6146106b7578063c970f63e14610684578063cc830f5014610655578063ce1ea73214610603578063d73792a9146105e6578063db877142146105e1578063e0ca49ae14610575578063e4258ade1461053c578063e87c0ee6146104fb578063e978f045146104a8578063ec1b3ab514610482578063ec84465414610442578063f2fde38b14610391578063f95547fa146103655763fa744dd3146102a557600080fd5b346103605760403660031901126103605761010060043561035e6102c7611a0b565b604051906102d482611898565b6102dc61378d565b82526102e661378d565b60209283015260009384526007825260408085206001600160a01b039290921685529082528084208480528252808420600185529381902090519361033f91906103389061033387611898565b6137b2565b85526137b2565b908301908152610353604051809451611bae565b516080830190611bae565bf35b600080fd5b3461036057602036600319011261036057600435600052600a6020526020604060002054604051908152f35b34610360576020366003190112610360576103aa6119f5565b6103b2611bd5565b6001600160a01b039081169081156103ee57600180546001600160a01b03198116841790915516600080516020613ac9833981519152600080a3005b60405162461bcd60e51b815260206004820152602660248201527f4f776e61626c653a206e6577206f776e657220697320746865207a65726f206160448201526564647265737360d01b6064820152608490fd5b346103605760803660031901126103605761045b611a0b565b60443560028110156103605760209161047a9160643591600435613849565b604051908152f35b34610360576104a161049336611842565b9061049c611d19565b612b1b565b6001600055005b346103605760806104ee6103336104be36611a21565b916104c761378d565b50600052600760205260406000209060018060a01b03166000526020526040600020611b96565b61035e6040518092611bae565b3461036057600036600319011261036057600254600019810190811161052657602090604051908152f35b634e487b7160e01b600052601160045260246000fd5b34610360576020366003190112610360576004356001600160401b03811681036103605761056b602091612fbc565b1515604051908152f35b346103605760806105af61058836611a21565b91600052600760205260406000209060018060a01b03166000526020526040600020611b96565b60ff815491600260018201549101549060405193845260208401528181161515604084015260081c1615156060820152f35b611a54565b346103605760003660031901126103605760206040516127108152f35b34610360576040366003190112610360576024356004356000526008602052604060002080548210156103605760209161063c91611b7e565b905460405160039290921b1c6001600160a01b03168152f35b34610360576020366003190112610360576004356001600160401b03811681036103605761047a602091612fbc565b346103605760003660031901126103605760406001600160401b036106a7612ecc565b1681519080825215156020820152f35b3461036057600036600319011261036057602060405160198152f35b3461036057602036600319011261036057600435600d548110156103605761063c602091611b4d565b34610360576000366003190112610360576020604051600080516020613b698339815191528152f35b346103605760003660031901126103605760206040516706f05b59d3b200008152f35b34610360576020806003193601126103605760043560005260088152604060002090604051808383829554938481520190600052836000209260005b858282106107b35750505061079b925003836118ce565b6107af60405192828493845283019061196a565b0390f35b85546001600160a01b0316845260019586019588955093019201610784565b346103605760003660031901126103605760206040516101f48152f35b346103605760203660031901126103605761080b600435611d8a565b005b346103605760003660031901126103605760206040516108078152f35b34610360576000366003190112610360576020600254604051908152f35b34610360576020806003193601126103605760043590610866611d19565b81600052600781526040600020336000528152604060002060008052815260406000209082600052600781526040600020336000528152604060002090600160005252604060002090805415159081610904575b506108f6575b8054151590816108e6575b506108d7576001600055005b6108e090612835565b806104a1565b60ff9150600201541615826108cb565b6108ff826124d9565b6108c0565b60ff9150600201541615836108ba565b3461036057602036600319011261036057600435610930613709565b5080158015610a51575b610a3f5760005260066020526107af604060002060106040519161095d83611861565b8054835261097560ff60018301541660208501611c49565b600281015460408401526003810154606084015260048101546080840152600581015460a0840152600681015460c0840152600781015460e084015260088101546101008401526109d160ff6009830154166101208501611c55565b600a810154610140840152600b81015460ff8116151561016085015260081c6001600160401b0316610180840152600c8101546101a0840152600d8101546101c0840152600e8101546101e0840152600f810154610200840152015461022082015260405191829182611a70565b6040516309b3c62760e21b8152600490fd5b5060025481101561093a565b346103605760203660031901126103605760043560005260096020526020604060002054604051908152f35b3461036057600036600319011261036057610aa2613709565b506003548015610acb5760005260066020526107af604060002060106040519161095d83611861565b6040516295b66160e61b8152600490fd5b34610360576000366003190112610360576001546040516001600160a01b039091168152602090f35b3461036057600036600319011261036057602060405160038152f35b34610360576020366003190112610360576001600160a01b03610b426119f5565b16600052600c602052608060406000208054906001810154906003600282015491015491604051938452602084015260408301526060820152f35b34610360576020366003190112610360576004356000526006602052604060002060ff600182015416600d60018060401b03600b84015460081c169201546000906005831015610c15576080936002841480610c0c575b610bf9575b610be660405180956119db565b6020840152604083015215156060820152f35b9150610c0482612fbc565b151591610bd9565b50801515610bd4565b634e487b7160e01b600052602160045260246000fd5b34610360576020366003190112610360576020610c49600435613a8b565b6040519015158152f35b3461036057600036600319011261036057610c6c611bd5565b600180546001600160a01b031981169091556000906001600160a01b0316600080516020613ac98339815191528280a3005b346103605760003660031901126103605760405180600d54808252826020809301600d600052836000209260005b85828210610ce35750505061079b925003836118ce565b85546001600160a01b0316845260019586019588955093019201610ccc565b34610360576020366003190112610360576020610c49600435613a11565b3461036057602061047a610d3336611842565b9061391e565b3461036057602036600319011261036057602061047a6004356139b0565b3461036057600036600319011261036057602060405166038d7ea4c680008152f35b34610360576000366003190112610360576020600454604051908152f35b3461036057600036600319011261036057602060ff600554166040519015158152f35b34610360576000366003190112610360576020600354604051908152f35b3461036057604036600319011261036057610df1611a0b565b600435600052600b60205260406000209060018060a01b0316600052602052602060ff604060002054166040519015158152f35b3461036057602036600319011261036057610e3e6119f5565b610e4661378d565b5060018060a01b0316600052600c60205260806040600020604051610e6a8161187d565b815491828252600181015460208301908152606060036002840154936040860194855201549301928352604051938452516020840152516040830152516060820152f35b346103605760003660031901126103605760ff6005541661110457600354806110c0575b50600254610edf81611c2d565b60025560644301431161052657604051610ef881611861565b81815260016020820152600060408201526000606082015260006080820152600060a08201524360c08201526064430160e08201526000610100820152600061012082015260006101408201526000610160820152600061018082015260006101a082015260006101c082015260006101e0820152600061020082015260006102208201528160005260066020526040600020908051825560208101516005811015610c15576001830160ff199160ff83835416911617905560408201516002840155606082015160038401556080820151600484015560a0820151600584015560c0820151600684015560e082015160078401556101008201516008840155610120820151916002831015610c15576110576102209261101e60109560098801611c61565b610140830151600a870155610160830151600b8701805491151560ff16919092161781556101808301516001600160401b031690611c79565b6101a0810151600c8501556101c0810151600d8501556101e0810151600e850155610200810151600f8501550151910155806003557fbd3f84a55fdc44f970adc6ccbaa93e78d7da5f3fc37c4b7da578d47c9ad2e46a60408051438152606443016020820152a2005b600052600660205260ff600160406000200154166005811015610c1557600181146110f2576002146110f25780610ed2565b604051632127c5b560e01b8152600490fd5b60405163ab35696f60e01b8152600490fd5b346103605760003660031901126103605761112f611bd5565b6004548061113957005b6000808080938160045560018060a01b03600154165af161115861249a565b501561116057005b6040516312171d8360e31b8152600490fd5b3461036057600036600319011261036057602060405160028152f35b34610360576000366003190112610360576020604051611c208152f35b3461036057600036600319011261036057602060405160968152f35b3461036057602060ff60026112036111de36611a21565b60009283526007875260408084206001600160a01b0390931684529187529120611b96565b015460081c166040519015158152f35b34610360576020366003190112610360576004358015158091036103605760207f11cec829ff57d278cffee07757e9621bfa0ae0cd17b3d23a7b81cba95174b8a49161125d611bd5565b60ff196005541660ff821617600555604051908152a1005b34610360576020366003190112610360576004356000526006602052604060002080808054600182015460ff1660c05260028201546003830154600484015460058501546006860154600787015490600888015492600989015460ff1694600a8a015496600b8b015498600c8c01549a600d8d01549c600e01549d600f01549e601001546080526040518060a0525260a05160200160c05190611317916119db565b60a0516040015260a0516060015260a0516080015260a05160a0015260a05160c0015260a05160e0015260a051610100015260a05161012001611359916119e8565b60a051610140015260ff8116151560a0516101600152600160401b600190039060081c1660a051610180015260a0516101a0015260a0516101c0015260a0516101e0015260a051610200015260805160a051610220015260a05161024090f35b346103605760003660031901126103605760206113d4612ecc565b6040516001600160401b039091168152f35b346103605760208060031936011261036057600435600d5480821060001461151b57505b611413816137ec565b9061142160405192836118ce565b808252601f19611430826137ec565b01368484013761143f81613803565b61144882613803565b9160005b81811061148f57611474856107af866114818a8860405196879660608852606088019061196a565b91868303908701526119a7565b9083820360408501526119a7565b8061149c61151692611b4d565b90546003916001600160a01b039190831b1c81166114ba848a613835565b52806114c584611b4d565b905490841b1c16600052600c91828a526002604060002001546114e88589613835565b526114f284611b4d565b9054911b1c1660005287526001604060002001546115108287613835565b52611c2d565b61144c565b905061140a565b34610360576000366003190112610360576107af61153e6118f1565b60405191829160208352602083019061192a565b61155b36611842565b611563611d19565b81158015611836575b610a3f5734156118245766038d7ea4c680003410611812578160005260209160068352604060002060019360ff85830154166005811015610c155785036118005760078201544310156117ee57826000526007815260406000203360005281526115da846040600020611b96565b90609634023481046096036105265761271090046115f88134611cd1565b9085600052600a83526116116040600020918254611c3c565b90558460005260098252604060002061162b828254611c3c565b9055600283549361163f8515953490611c3c565b8155438982015501805461ffff191690556002861015610c155785159283156117ca5760028501611671348254611c3c565b90556117b5575b611687600a8501918254611c3c565b905583600052600b8152604060002033600052815260ff6040600020541615611703575b916116f291600c600080516020613ae983398151915294336000525260406000206116d68154611c2d565b9055156116fa57600201545b6040519182913396349084611cfc565b0390a3600055005b600301546116e2565b9183600052600883526101f460406000205410156117a3576000848152600b845260408082203383528552808220805460ff19168917905585825260088552902080549290600160401b84101561178d57600080516020613ae98339815191529461178261177b86600c948c6116f299018155611b7e565b3391611cde565b9294505091506116ab565b634e487b7160e01b600052604160045260246000fd5b60405163844bc54960e01b8152600490fd5b600484016117c38154611c2d565b9055611678565b600385016117d9348254611c3c565b90551561167857600584016117c38154611c2d565b6040516356c7983160e01b8152600490fd5b60405163976a06eb60e01b8152600490fd5b604051631a6254d160e31b8152600490fd5b604051639de3d44160e01b8152600490fd5b5060025482101561156c565b6040906003190112610360576004359060243560028110156103605790565b61024081019081106001600160401b0382111761178d57604052565b608081019081106001600160401b0382111761178d57604052565b604081019081106001600160401b0382111761178d57604052565b606081019081106001600160401b0382111761178d57604052565b601f909101601f19168101906001600160401b0382119082101761178d57604052565b604051906118fe82611898565b602082527fa285cdb66e8b8524ea70b1693c7b1e050d8e70fd32bfb1639703f9a23d15b15e6020830152565b919082519283825260005b848110611956575050826000602080949584010152601f8019910116010190565b602081830181015184830182015201611935565b90815180825260208080930193019160005b82811061198a575050505090565b83516001600160a01b03168552938101939281019260010161197c565b90815180825260208080930193019160005b8281106119c7575050505090565b8351855293810193928101926001016119b9565b906005821015610c155752565b906002821015610c155752565b600435906001600160a01b038216820361036057565b602435906001600160a01b038216820361036057565b606090600319011261036057600435906024356001600160a01b0381168103610360579060443560028110156103605790565b3461036057600036600319011261036057602060405160648152f35b91909161024081019280518252611a8f602082015160208401906119db565b60408101516040830152606081015160608301526080810151608083015260a081015160a083015260c081015160c083015260e081015160e08301526101008082015190830152611ae961012080830151908401906119e8565b610140818101519083015261016080820151151590830152610180808201516001600160401b0316908301526101a080820151908301526101c080820151908301526101e08082015190830152610200808201519083015261022090810151910152565b600d54811015611b6857600d60005260206000200190600090565b634e487b7160e01b600052603260045260246000fd5b8054821015611b685760005260206000200190600090565b906002811015610c1557600052602052604060002090565b60608091805184526020810151602085015260408101511515604085015201511515910152565b6001546001600160a01b03163303611be957565b606460405162461bcd60e51b815260206004820152602060248201527f4f776e61626c653a2063616c6c6572206973206e6f7420746865206f776e65726044820152fd5b60001981146105265760010190565b9190820180921161052657565b6005821015610c155752565b6002821015610c155752565b906002811015610c155760ff80198354169116179055565b8054610100600160481b03191660089290921b610100600160481b0316919091179055565b8181029291811591840414171561052657565b8115611cbb570490565b634e487b7160e01b600052601260045260246000fd5b9190820391821161052657565b919082549060031b9160018060a01b03809116831b921b1916179055565b604091949392611d108260608101976119e8565b60208201520152565b600260005414611d2a576002600055565b60405162461bcd60e51b815260206004820152601f60248201527f5265656e7472616e637947756172643a207265656e7472616e742063616c6c006044820152606490fd5b6001600160401b039091168152602081019190915260400190565b8015801561248e575b610a3f5780600052600660205260406000209060ff6001830154166005811015610c15576001146123b15760ff6001830154166005811015610c1557600214611de8576040516341d5c2cf60e01b8152600490fd5b600c820154611c20810180821161052657431161230a5750600b820154611e1a9060081c6001600160401b0316612fbc565b80156122f85760078301546018198101908111610526576019611e3e920690611c3c565b600d830155806000526006602052604060002060086020526040600020936000809360009660009360005b825481101561202b57611e7c8184611b7e565b60018060a01b0391549060031b1c16846000526007602052604060002081600052602052604060002060008052602052604060002080548015908115611f9d575b505050846000526007602052604060002090600052602052604060002060016000526020526040600020805480158015611f03575b505050611efe90611c2d565b611e69565b6001830154600d8b0154949d941115611f5e575050611f2490548099611c3c565b97609691818381020483148215171561052657611f4e82612710611efe95611f5495020490611cd1565b90611c3c565b995b903880611ef2565b6002909201805461ff001916610100179055919a966096918284028490048314171561052657612710611f9792611efe94020490611c3c565b95611f56565b6001830154600d8c0154949e99941115611fef575050611fbf90548092611c3c565b95609682818102048114831517156105265782612710611f4e92611fe595020490611cd1565b995b388080611ebd565b9092979c989160020161010061ff0019825416179055609692818481020484141715610526576120259261271091020490611c3c565b95611fe7565b509793949196959050601092600e830155600f8201550155806122bc575b50600d810154600e82015490837f63664d33416c0ab02e7dfe6555e6f8fc77af9ca212a3fef165a05acdaa4e17686060600f86015493604051908152856020820152846040820152a26706f05b59d3b200006120a58284611c3c565b109182156122b3575b5081156122aa575b5061224957600e810154600f8201548082146121d557505060a081600e7ff64c79c3632fcd52f5f08e54c35fc6871794ed1878e02f3061139a4c178221bd930154600f820154116000146121cd576000905b6121158260098301611c61565b600360ff19600181600b8501541617600b84015560018301541617600182015543600882015584600052600a602052847fec81deb90bcc57c0ca18f5c03c0c05887db260d498c57b4e02fe93898578dc7e602060406000205461217a81600454611c3c565b60045583600052600a825260006040812055604051908152a2600e81015490600f81015460056004830154920154926121b660405180966119e8565b6020850152604084015260608301526080820152a2565b600190612108565b839250604061224794927ec62d58cbb6a9291254143347fdc129d33fc8550dbb03c801abb5fcba00470d9282519182526020820152a26040519061221882611898565b601e82527f457861637420746965202d20726566756e64696e6720616c6c206265747300006020830152612e16565b565b506040516122479161225a826118b3565b603882527f496e73756666696369656e742076616c69642070617274696369706174696f6e6020830152771030b33a32b91030b73a3496b9b734b832903334b63a32b960411b6040830152612e16565b905015386120b6565b159150386120ae565b82600052600a60205260406000206122d5828254611cd1565b90558260005260096020526122f06040600020918254611c3c565b905538612049565b604051639e3295eb60e01b8152600490fd5b7fdab333d290ddbdbd09a1cbf1766353f798286b4094fde23aa5d2ab9b4da6ac81829161234b61224795600b60018060401b0391015460081c169143611cd1565b9061235b60405192839283611d6f565b0390a26040519061236b826118b3565b602e82527f4472616e642070756c73652074696d656f7574202d2072616e646f6d6e65737360208301526d206e6f7420617661696c61626c6560901b6040830152612e16565b906007810154431061247c576001600160401b0390816123cf612ecc565b1680156124435760030191808311610526577fe9f1164ee64311d70a683540a72008a8eb3e00f426d9c7843faaacd938fd9a3f9282612415600b61243e95019283611c79565b43600c8201556001600260ff198284015416179101555460081c16604051918291439083611d6f565b0390a2565b505050612247906040519061245782611898565b60138252724472616e64206e6f7420617661696c61626c6560681b6020830152612e16565b60405163658aead360e01b8152600490fd5b50600254811015611d93565b3d156124d4573d906001600160401b03821161178d57604051916124c8601f8201601f1916602001846118ce565b82523d6000602084013e565b606090565b80158015612829575b610a3f576000908082526020600681526040808420916007815281852033865281528185208580528152818520805493841561281857600282019485549060ff918281166128075782600b8501541615806127da575b61277e57505080600183015416600581101561276a576003811415908161275e575b5061274d578554818160081c166126f05750600982018181541660028110156126dc576126b0575416600281101561269c5761269157600e810154905b825491670de0b6b3a7640000928381029080820485149015171561267d576125c56125cd9392601092611cb1565b910154611c9e565b0493600160ff198254161790558361263f575b338652600c82526001838720016125f78154611c2d565b9055338652600c8252600283872001612611858254611c3c565b905561261c336134b8565b54908251958652850152830152600080516020613b0983398151915260603393a3565b84865260098252828620612654858254611cd1565b90558580808087335af161266661249a565b506125e0575b82516312171d8360e31b8152600490fd5b634e487b7160e01b8a52601160045260248afd5b600f81015490612597565b634e487b7160e01b88526021600452602488fd5b50505050600c91935060039492600160ff198254161790553383525220016126d88154611c2d565b9055565b634e487b7160e01b8a52602160045260248afd5b949592905060019150549360ff191617905583855260098152828520612717838254611cd1565b90558480808085335af161272961249a565b501561266c5782519485528401523392600080516020613b298339815191529190a3565b8451636082930560e11b8152600490fd5b6004915014153861255a565b634e487b7160e01b89526021600452602489fd5b9150949592506001915060ff1916179055838552600981528285206127a4838254611cd1565b90558480808085335af16127b661249a565b501561266c5782519485528401523392600080516020613b498339815191529190a3565b508260018501541660058110156127f357600414612538565b634e487b7160e01b8b52602160045260248bfd5b8651630c8d9eab60e31b8152600490fd5b8351632f42cbdd60e01b8152600490fd5b506002548110156124e2565b80158015612b0f575b610a3f57600090808252602060068152604080842091600781528185203386528152818520946001958682528252828120908154948515612afe57600283019586549060ff91828116612aed578a9083600b860154161580612abe575b612a885750829150830154166005811015612a745760038114159081612a68575b50612a5757865489828260081c16612a2057505060098201818154166002811015612a0c578a036129e557541660028110156129d1576129c657600e810154905b835491670de0b6b3a764000092838102908082048514901517156129b2576125c561292b9392601092611cb1565b04948760ff19825416179055838561296d575b600291338152600c855288828220016129578154611c2d565b9055338152600c85522001612611858254611c3c565b5085815260098352838120612983868254611cd1565b90558080808088335af161299561249a565b50156129a1578361293e565b83516312171d8360e31b8152600490fd5b634e487b7160e01b85526011600452602485fd5b600f810154906128fd565b634e487b7160e01b83526021600452602483fd5b505050939050600c92945060039560ff198254161790553383525220016126d88154611c2d565b634e487b7160e01b85526021600452602485fd5b9250959692939050549460ff191617905584815260098252838120612a46848254611cd1565b905580808085335af161272961249a565b8551636082930560e11b8152600490fd5b600491501415386128bc565b634e487b7160e01b84526021600452602484fd5b92509250959692935060ff191617905584815260098252838120612aad848254611cd1565b905580808085335af16127b661249a565b509084015483166005811015612ad9579060048c921461289b565b634e487b7160e01b86526021600452602486fd5b8751630c8d9eab60e31b8152600490fd5b8451632f42cbdd60e01b8152600490fd5b5060025481101561283e565b80158015612e0a575b610a3f57600081815260206006815260409081832092600782528281203382528252612b5286848320611b96565b918254948515612afe57600284019586549060ff91828116612aed5782600b850154161580612ddd575b612d81575050806001830154166005811015612a0c5760038114159081612d75575b50612a57578654818160081c16612d10575060098201818154166002811015612ad95760028b1015612ad9578a03612ce65754166002811015612a7457612cdb57600e810154905b845491670de0b6b3a76400009283810290808204851490151715612cc7576125c5612c149392601092611cb1565b0494600160ff1982541617905584612c8a575b91600284612c8593600c600080516020613b09833981519152989796338352818152600184842001612c598154611c2d565b9055338352522001612c6c858254611c3c565b9055612c77336134b8565b549151928392339784611cfc565b0390a3565b85825260098152838220612c9f868254611cd1565b90558180808088335af1612cb161249a565b50612c275783516312171d8360e31b8152600490fd5b634e487b7160e01b86526011600452602486fd5b600f81015490612be6565b50505091509260039550600c929450600160ff198254161790553383525220016126d88154611c2d565b95969294905060019150549460ff191617905584815260098252838120612d38848254611cd1565b905580808085335af1612d4961249a565b501561266c57908291612d6d600080516020613b29833981519152945180976119e8565b8501523393a3565b60049150141538612b9e565b915095969294506001915060ff191617905584815260098252838120612da8848254611cd1565b905580808085335af1612db961249a565b501561266c57908291612d6d600080516020613b49833981519152945180976119e8565b50826001850154166005811015612df657600414612b7c565b634e487b7160e01b87526021600452602487fd5b50600254811015612b24565b907f0f023b047be6c305859504186f8b03ee5a634f9ab472ff386d3b1de9387c083e906000838152602090600682526040812090600a8352604081205460098452612e6660408320918254611c3c565b9055858152600a83526040812055612e876002820154600383015490611c3c565b600a820155600b600182019160ff19926004848254161790550190815416905561243e60405192828493845283019061192a565b908151811015611b68570160200190565b612ef8604051612edb81611898565b60208152600080516020613b698339815191526020820152612f5e565b600880825110612f57579060009182915b818310612f165750505090565b909192612f238483612ebb565b5160f81c908460031b85810485148615171561052657612f509260018060401b038092161b161793611c2d565b9190612f09565b5050600090565b60008082602082945191016108075afa90612f7761249a565b9115612f81575090565b6040519150602082016001600160401b03811183821017612fa85760405280825236813790565b634e487b7160e01b82526041600452602482fd5b6040805190612fca82611898565b6008908183526020938436818601376000905b83821061348557505080519261010084016001600160401b0381118582101761178d57825260d584528484019060e0368337805191600081536000602187015360006022870153600c602387015360249560188782015360f9602582015360bc602682015360f360278201536067602882015360e660298201536009602a820153606a602b820153603b602c82015360a7602d82015360ca602e8201536084602f82015360309360858583015360ae60318301536067603283015360bb6033830153602b603483015360f860358301536094603683015360fe60378301536072603883015360f36039830153606e603a830153603c603b83015360f1603c8301536036603d830153601d603e830153605f603f830153603a8683015360f56041830153604f604283015360a5604383015360d160448301536082604583015360e6604683015360ad6047830153607f604883015360526049830153600e604a8301536051604b830153601f604c830153606c604d830153603e604e830153602b604f830153608c60508301536068605183015360056052830153609b6053830153606b605483015360bd60558301536041605683015360fb605783015360ab605883015360d960598301536083605a830153601f605b8301536079605c8301536021605d830153607e605e8301536013605f8301536019606083015360cd606183015360e06062830153605b606383015360005b81811061345e5750916000929160ff838186951660e4840153891c1660e5820153600160f4820153519060095afa61322761249a565b9080613454575b1561342057860151835193613242856118b3565b6038855236888601376132536118f1565b60005b8881106133f557505060005b601081106133d457505060005b8481106133815750505061328290612f5e565b90815190811561337757602982106133775710156133625760288101518060f81c60006003821680156000146133015750505060fa1c91836009935b036132f8578151848401918285116132e45750106132dc5701015190565b505050600090565b634e487b7160e01b60009081526011600452fd5b50505050600090565b9192509060010361335a578251600a8110613351576009101561333e575061ffff9061ff00602984015160f01c161760021c169183600a936132be565b634e487b7160e01b815260326004528390fd5b50935050505090565b935050505090565b50634e487b7160e01b60009081526032600452fd5b5050505050600090565b6001600160f81b03196133948284612ebb565b5116818401908185116133bf57906133b46133ba939260001a9187612ebb565b53611c2d565b61326f565b87634e487b7160e01b60005260116004526000fd5b8088018089116133bf57906133f0916133b484831a9188612ebb565b613262565b61341b906001600160f81b031961340c8285612ebb565b511660001a6133b48289612ebb565b613256565b835162461bcd60e51b815260048101889052600e818801526d189b185ad94c998819985a5b195960921b6044820152606490fd5b508381511461322e565b80608060019210613470575b016131f1565b8a818701015160001a6064828601015361346a565b66ffffffffffffff6134b29160ff60f81b8160f81b1660001a6134a88589612ebb565b53851c1691611c2d565b90612fdd565b9060018060a01b039182811692600092848452600c92602090848252600290604090828289200154908899898a91600d54925b8381106136d6575b505015613608575b505050965b80158015806135a5575b1561359a576000198201918083116135865761355b6135608861356c9361353087611b4d565b9390549161353d81611b4d565b969054966003978661354e8d611b4d565b9290938b1b1c1691611cde565b611b4d565b9390941b1c1691611cde565b15613500575b634e487b7160e01b87526011600452602487fd5b634e487b7160e01b89526011600452602489fd5b505050509350505050565b50856135b083611b4d565b919054600392831b1c168952878552838a8a2001549060001984018481116135f457906135dd8992611b4d565b9054911b1c168952878552838a8a2001541061350a565b634e487b7160e01b8b52601160045260248bfd5b929950909160648110156136745750600d54909150600160401b811015613660579061363d8260016136439401600d55611b4d565b90611cde565b600d54600019810190811161357257908491975b909138806134fb565b634e487b7160e01b88526041600452602488fd5b6000199281840191821161267d578761368c83611b4d565b90549060031b1c168a52888652848b8b200154106000146136ca579061363d6136b492611b4d565b600d549081019081116135725790849197613657565b50505050509350505050565b818b6136e183611b4d565b90549060031b1c16146136fc576136f790611c2d565b6134eb565b9c505050600138806134f3565b6040519061371682611861565b816102206000918281528260208201528260408201528260608201528260808201528260a08201528260c08201528260e08201528261010082015282610120820152826101408201528261016082015282610180820152826101a0820152826101c0820152826101e0820152826102008201520152565b6040519061379a8261187d565b60006060838281528260208201528260408201520152565b906040516137bf8161187d565b606060ff60028395805485526001810154602086015201548181161515604085015260081c161515910152565b6001600160401b03811161178d5760051b60200190565b9061380d826137ec565b61381a60405191826118ce565b828152809261382b601f19916137ec565b0190602036910137565b8051821015611b685760209160051b010190565b9392909184158015613912575b613909576000948552600660205260408520926007602052604086209060018060a01b03168652602052613897826138918360408920611b96565b54611c3c565b916096810281810460961482151715613572576127106138b8910482611cd1565b916002811015612df65791600a6138e96138f1936138f796956138fc999a50156000146138ff576002880154611c3c565b950154611c3c565b90611c9e565b611cb1565b90565b6003880154611c3c565b50600093505050565b50600254851015613856565b9190821580156139a4575b61399c576000928352600660205260408320906002811015612a7457613991576002810154905b811561398d57600a015461271090818102918183041490151715613979576138fc929350611cb1565b634e487b7160e01b84526011600452602484fd5b5050565b600381015490613950565b506127109150565b50600254831015613929565b80158015613a05575b6139ff57600090815260066020526040812060ff60018201541660058110156129d1576001036139fb5760070154804310156139fb576138fc91504390611cd1565b5090565b50600090565b506002548110156139b9565b80158015613a7f575b6139ff57600090815260066020526040812060ff60018201541660058110156129d1576001036139fb576007015490601819820190828211613a6b57504310159081613a64575090565b9050431090565b634e487b7160e01b81526011600452602490fd5b50600254811015613a1a565b600090815260066020526040812060ff60018201541660058110156129d1576002036139fb57600c015490611c208201809211613a6b575043119056fe8be0079c531659141344cd1fd0a4f28419497f9722a3daafe3b4186f6b6457e0bfcd8f4e47cc529f86cdc7eab8fb80e015a298e021fcaee72df1f76dd57cf487d6a2a5fa33ed09b7e0ad44c465d1d7cc1ebac5fe4f8e9c6625c55a874855db5fc328de79496782527b9f229c166413e535bd9c04254c7252cd37763a43c61e7596be94f3cb4521868c06461d3a4197839df4d896c7fb4362fc0e3be356a11c12a285cdb66e8b8524ea70b1693c7b1e05087f3dd6e0ceded0e388dd34f810a73da2646970667358221220b6b6a1000554b954244eca224d019f58b02a837221593ef29e0ea76523679d8564736f6c63430008130033",
  "linkReferences": {},
  "deployedLinkReferences": {}
}