{"contracts/TAO_Casino.sol":{"TAOCasino":{"abi":[{"inputs":[],"stateMutability":"nonpayable","type":"constructor"},{"inputs":[],"name":"AlreadyClaimed","type":"error"},{"inputs":[],"name":"BetTooSmall","type":"error"},{"inputs":[],"name":"BettingPeriodEnded","type":"error"},{"inputs":[],"name":"BettingPeriodNotEnded","type":"error"},{"inputs":[],"name":"CannotReferSelf","type":"error"},{"inputs":[],"name":"ContractPaused","type":"error"},{"inputs":[],"name":"GameAlreadyResolved","type":"error"},{"inputs":[],"name":"GameHasBets","type":"error"},{"inputs":[],"name":"GameNotFound","type":"error"},{"inputs":[],"name":"GameNotInBettingPhase","type":"error"},{"inputs":[],"name":"GameNotResolved","type":"error"},{"inputs":[],"name":"GameStillActive","type":"error"},{"inputs":[],"name":"InvalidBetAmount","type":"error"},{"inputs":[],"name":"InvalidGameDuration","type":"error"},{"inputs":[],"name":"InvalidReferralCode","type":"error"},{"inputs":[],"name":"NoActiveGame","type":"error"},{"inputs":[],"name":"NoBetToClaim","type":"error"},{"inputs":[],"name":"NotEnoughParticipation","type":"error"},{"inputs":[],"name":"TransferFailed","type":"error"},{"anonymous":false,"inputs":[{"indexed":true,"internalType":"uint256","name":"gameId","type":"uint256"},{"indexed":true,"internalType":"address","name":"bettor","type":"address"},{"indexed":false,"internalType":"enum TAOCasino.Side","name":"side","type":"uint8"},{"indexed":false,"internalType":"uint256","name":"amount","type":"uint256"},{"indexed":false,"internalType":"uint256","name":"newPoolTotal","type":"uint256"},{"indexed":false,"internalType":"address","name":"referrer","type":"address"}],"name":"BetPlaced","type":"event"},{"anonymous":false,"inputs":[{"indexed":false,"internalType":"bool","name":"isPaused","type":"bool"}],"name":"ContractPausedEvent","type":"event"},{"anonymous":false,"inputs":[{"indexed":true,"internalType":"uint256","name":"gameId","type":"uint256"},{"indexed":false,"internalType":"uint256","name":"platformFees","type":"uint256"},{"indexed":false,"internalType":"uint256","name":"referralFees","type":"uint256"}],"name":"FeesReleased","type":"event"},{"anonymous":false,"inputs":[{"indexed":true,"internalType":"uint256","name":"gameId","type":"uint256"},{"indexed":false,"internalType":"string","name":"reason","type":"string"}],"name":"GameCancelled","type":"event"},{"anonymous":false,"inputs":[{"indexed":true,"internalType":"uint256","name":"gameId","type":"uint256"},{"indexed":false,"internalType":"enum TAOCasino.GameType","name":"gameType","type":"uint8"},{"indexed":false,"internalType":"enum TAOCasino.GameSpeed","name":"gameSpeed","type":"uint8"},{"indexed":false,"internalType":"uint256","name":"startTime","type":"uint256"},{"indexed":false,"internalType":"uint256","name":"endTime","type":"uint256"}],"name":"GameCreated","type":"event"},{"anonymous":false,"inputs":[{"indexed":true,"internalType":"uint256","name":"gameId","type":"uint256"},{"indexed":false,"internalType":"enum TAOCasino.GameType","name":"gameType","type":"uint8"},{"indexed":false,"internalType":"enum TAOCasino.GameSpeed","name":"gameSpeed","type":"uint8"},{"indexed":false,"internalType":"enum TAOCasino.Side","name":"winningSide","type":"uint8"},{"indexed":false,"internalType":"uint256","name":"redPool","type":"uint256"},{"indexed":false,"internalType":"uint256","name":"bluePool","type":"uint256"},{"indexed":false,"internalType":"uint256","name":"redBettors","type":"uint256"},{"indexed":false,"internalType":"uint256","name":"blueBettors","type":"uint256"}],"name":"GameResolved","type":"event"},{"anonymous":false,"inputs":[{"indexed":true,"internalType":"uint256","name":"gameId","type":"uint256"},{"indexed":false,"internalType":"uint256","name":"redPool","type":"uint256"},{"indexed":false,"internalType":"uint256","name":"bluePool","type":"uint256"}],"name":"GameTied","type":"event"},{"anonymous":false,"inputs":[{"indexed":true,"internalType":"address","name":"previousOwner","type":"address"},{"indexed":true,"internalType":"address","name":"newOwner","type":"address"}],"name":"OwnershipTransferred","type":"event"},{"anonymous":false,"inputs":[{"indexed":true,"internalType":"address","name":"user","type":"address"},{"indexed":false,"internalType":"bytes32","name":"codeHash","type":"bytes32"}],"name":"ReferralCodeCreated","type":"event"},{"anonymous":false,"inputs":[{"indexed":true,"internalType":"address","name":"referrer","type":"address"},{"indexed":true,"internalType":"address","name":"referee","type":"address"},{"indexed":false,"internalType":"uint256","name":"amount","type":"uint256"}],"name":"ReferralRewardEarned","type":"event"},{"anonymous":false,"inputs":[{"indexed":true,"internalType":"address","name":"referrer","type":"address"},{"indexed":false,"internalType":"uint256","name":"amount","type":"uint256"}],"name":"ReferralRewardsClaimed","type":"event"},{"anonymous":false,"inputs":[{"indexed":true,"internalType":"uint256","name":"gameId","type":"uint256"},{"indexed":true,"internalType":"address","name":"bettor","type":"address"},{"indexed":false,"internalType":"enum TAOCasino.Side","name":"side","type":"uint8"},{"indexed":false,"internalType":"uint256","name":"amount","type":"uint256"}],"name":"RefundClaimed","type":"event"},{"anonymous":false,"inputs":[{"indexed":true,"internalType":"uint256","name":"gameId","type":"uint256"},{"indexed":true,"internalType":"address","name":"bettor","type":"address"},{"indexed":false,"internalType":"enum TAOCasino.Side","name":"side","type":"uint8"},{"indexed":false,"internalType":"uint256","name":"betAmount","type":"uint256"},{"indexed":false,"internalType":"uint256","name":"winnings","type":"uint256"}],"name":"WinningsClaimed","type":"event"},{"inputs":[],"name":"FEE_DENOMINATOR","outputs":[{"internalType":"uint256","name":"","type":"uint256"}],"stateMutability":"view","type":"function"},{"inputs":[],"name":"MAX_LEADERBOARD_SIZE","outputs":[{"internalType":"uint256","name":"","type":"uint256"}],"stateMutability":"view","type":"function"},{"inputs":[],"name":"TOKEN_DECIMALS","outputs":[{"internalType":"uint256","name":"","type":"uint256"}],"stateMutability":"view","type":"function"},{"inputs":[],"name":"accumulatedFees","outputs":[{"internalType":"uint256","name":"","type":"uint256"}],"stateMutability":"view","type":"function"},{"inputs":[],"name":"breakDuration","outputs":[{"internalType":"uint256","name":"","type":"uint256"}],"stateMutability":"view","type":"function"},{"inputs":[{"internalType":"uint256","name":"_gameId","type":"uint256"},{"internalType":"address","name":"_user","type":"address"},{"internalType":"enum TAOCasino.Side","name":"_side","type":"uint8"},{"internalType":"uint256","name":"_amount","type":"uint256"}],"name":"calculatePotentialPayout","outputs":[{"internalType":"uint256","name":"","type":"uint256"}],"stateMutability":"view","type":"function"},{"inputs":[{"internalType":"uint256","name":"_gameId","type":"uint256"}],"name":"claimAllWinnings","outputs":[],"stateMutability":"nonpayable","type":"function"},{"inputs":[],"name":"claimReferralRewards","outputs":[],"stateMutability":"nonpayable","type":"function"},{"inputs":[{"internalType":"uint256","name":"_gameId","type":"uint256"},{"internalType":"enum TAOCasino.Side","name":"_side","type":"uint8"}],"name":"claimWinnings","outputs":[],"stateMutability":"nonpayable","type":"function"},{"inputs":[{"internalType":"string","name":"_code","type":"string"}],"name":"createReferralCode","outputs":[],"stateMutability":"nonpayable","type":"function"},{"inputs":[],"name":"currentGameId","outputs":[{"internalType":"uint256","name":"","type":"uint256"}],"stateMutability":"view","type":"function"},{"inputs":[{"internalType":"uint256","name":"_gameId","type":"uint256"}],"name":"emergencyCancelGame","outputs":[],"stateMutability":"nonpayable","type":"function"},{"inputs":[],"name":"finalCallDuration","outputs":[{"internalType":"uint256","name":"","type":"uint256"}],"stateMutability":"view","type":"function"},{"inputs":[{"internalType":"uint256","name":"","type":"uint256"}],"name":"gameBalance","outputs":[{"internalType":"uint256","name":"","type":"uint256"}],"stateMutability":"view","type":"function"},{"inputs":[{"internalType":"uint256","name":"","type":"uint256"},{"internalType":"uint256","name":"","type":"uint256"}],"name":"gameBettors","outputs":[{"internalType":"address","name":"","type":"address"}],"stateMutability":"view","type":"function"},{"inputs":[{"internalType":"uint256","name":"","type":"uint256"}],"name":"gameFees","outputs":[{"internalType":"uint256","name":"","type":"uint256"}],"stateMutability":"view","type":"function"},{"inputs":[{"internalType":"uint256","name":"","type":"uint256"},{"internalType":"address","name":"","type":"address"}],"name":"gamePendingReferralRewards","outputs":[{"internalType":"uint256","name":"","type":"uint256"}],"stateMutability":"view","type":"function"},{"inputs":[{"internalType":"uint256","name":"","type":"uint256"}],"name":"gameReferralRewards","outputs":[{"internalType":"uint256","name":"","type":"uint256"}],"stateMutability":"view","type":"function"},{"inputs":[{"internalType":"uint256","name":"","type":"uint256"}],"name":"games","outputs":[{"internalType":"uint256","name":"id","type":"uint256"},{"internalType":"enum TAOCasino.GameType","name":"gameType","type":"uint8"},{"internalType":"enum TAOCasino.GameSpeed","name":"gameSpeed","type":"uint8"},{"internalType":"enum TAOCasino.GamePhase","name":"phase","type":"uint8"},{"internalType":"uint256","name":"redPool","type":"uint256"},{"internalType":"uint256","name":"bluePool","type":"uint256"},{"internalType":"uint256","name":"redBettors","type":"uint256"},{"internalType":"uint256","name":"blueBettors","type":"uint256"},{"internalType":"uint256","name":"startTime","type":"uint256"},{"internalType":"uint256","name":"endTime","type":"uint256"},{"internalType":"uint256","name":"resolvedTime","type":"uint256"},{"internalType":"enum TAOCasino.Side","name":"winningSide","type":"uint8"},{"internalType":"uint256","name":"totalLiquidity","type":"uint256"},{"internalType":"bool","name":"hasWinner","type":"bool"}],"stateMutability":"view","type":"function"},{"inputs":[],"name":"getAccumulatedFees","outputs":[{"internalType":"uint256","name":"","type":"uint256"}],"stateMutability":"view","type":"function"},{"inputs":[],"name":"getCurrentGame","outputs":[{"components":[{"internalType":"uint256","name":"id","type":"uint256"},{"internalType":"enum TAOCasino.GameType","name":"gameType","type":"uint8"},{"internalType":"enum TAOCasino.GameSpeed","name":"gameSpeed","type":"uint8"},{"internalType":"enum TAOCasino.GamePhase","name":"phase","type":"uint8"},{"internalType":"uint256","name":"redPool","type":"uint256"},{"internalType":"uint256","name":"bluePool","type":"uint256"},{"internalType":"uint256","name":"redBettors","type":"uint256"},{"internalType":"uint256","name":"blueBettors","type":"uint256"},{"internalType":"uint256","name":"startTime","type":"uint256"},{"internalType":"uint256","name":"endTime","type":"uint256"},{"internalType":"uint256","name":"resolvedTime","type":"uint256"},{"internalType":"enum TAOCasino.Side","name":"winningSide","type":"uint8"},{"internalType":"uint256","name":"totalLiquidity","type":"uint256"},{"internalType":"bool","name":"hasWinner","type":"bool"}],"internalType":"struct TAOCasino.Game","name":"","type":"tuple"}],"stateMutability":"view","type":"function"},{"inputs":[{"internalType":"uint256","name":"_gameId","type":"uint256"},{"internalType":"enum TAOCasino.Side","name":"_side","type":"uint8"}],"name":"getCurrentMultiplier","outputs":[{"internalType":"uint256","name":"","type":"uint256"}],"stateMutability":"view","type":"function"},{"inputs":[{"internalType":"uint256","name":"_gameId","type":"uint256"}],"name":"getGame","outputs":[{"components":[{"internalType":"uint256","name":"id","type":"uint256"},{"internalType":"enum TAOCasino.GameType","name":"gameType","type":"uint8"},{"internalType":"enum TAOCasino.GameSpeed","name":"gameSpeed","type":"uint8"},{"internalType":"enum TAOCasino.GamePhase","name":"phase","type":"uint8"},{"internalType":"uint256","name":"redPool","type":"uint256"},{"internalType":"uint256","name":"bluePool","type":"uint256"},{"internalType":"uint256","name":"redBettors","type":"uint256"},{"internalType":"uint256","name":"blueBettors","type":"uint256"},{"internalType":"uint256","name":"startTime","type":"uint256"},{"internalType":"uint256","name":"endTime","type":"uint256"},{"internalType":"uint256","name":"resolvedTime","type":"uint256"},{"internalType":"enum TAOCasino.Side","name":"winningSide","type":"uint8"},{"internalType":"uint256","name":"totalLiquidity","type":"uint256"},{"internalType":"bool","name":"hasWinner","type":"bool"}],"internalType":"struct TAOCasino.Game","name":"","type":"tuple"}],"stateMutability":"view","type":"function"},{"inputs":[{"internalType":"uint256","name":"_gameId","type":"uint256"}],"name":"getGameBalance","outputs":[{"internalType":"uint256","name":"","type":"uint256"}],"stateMutability":"view","type":"function"},{"inputs":[{"internalType":"uint256","name":"_gameId","type":"uint256"}],"name":"getGameBettors","outputs":[{"internalType":"address[]","name":"","type":"address[]"}],"stateMutability":"view","type":"function"},{"inputs":[],"name":"getGameCount","outputs":[{"internalType":"uint256","name":"","type":"uint256"}],"stateMutability":"view","type":"function"},{"inputs":[{"internalType":"uint256","name":"_gameId","type":"uint256"}],"name":"getGameFees","outputs":[{"internalType":"uint256","name":"platformFees","type":"uint256"},{"internalType":"uint256","name":"referralFees","type":"uint256"}],"stateMutability":"view","type":"function"},{"inputs":[{"internalType":"uint256","name":"_gameId","type":"uint256"},{"internalType":"address","name":"_referrer","type":"address"}],"name":"getGamePendingReferralReward","outputs":[{"internalType":"uint256","name":"","type":"uint256"}],"stateMutability":"view","type":"function"},{"inputs":[],"name":"getLeaderboard","outputs":[{"internalType":"address[]","name":"","type":"address[]"}],"stateMutability":"view","type":"function"},{"inputs":[{"internalType":"uint256","name":"_limit","type":"uint256"}],"name":"getLeaderboardWithStats","outputs":[{"internalType":"address[]","name":"addresses","type":"address[]"},{"internalType":"uint256[]","name":"winnings","type":"uint256[]"},{"internalType":"uint256[]","name":"wins","type":"uint256[]"}],"stateMutability":"view","type":"function"},{"inputs":[{"internalType":"address","name":"_user","type":"address"}],"name":"getPendingReferralRewards","outputs":[{"internalType":"uint256","name":"","type":"uint256"}],"stateMutability":"view","type":"function"},{"inputs":[{"internalType":"address","name":"_user","type":"address"}],"name":"getReferralInfo","outputs":[{"components":[{"internalType":"address","name":"referrer","type":"address"},{"internalType":"uint256","name":"totalReferred","type":"uint256"},{"internalType":"uint256","name":"totalEarnings","type":"uint256"},{"internalType":"bool","name":"isActive","type":"bool"}],"internalType":"struct TAOCasino.ReferralInfo","name":"","type":"tuple"}],"stateMutability":"view","type":"function"},{"inputs":[{"internalType":"uint256","name":"_gameId","type":"uint256"}],"name":"getTimeRemaining","outputs":[{"internalType":"uint256","name":"","type":"uint256"}],"stateMutability":"view","type":"function"},{"inputs":[{"internalType":"uint256","name":"_gameId","type":"uint256"},{"internalType":"address","name":"_user","type":"address"}],"name":"getUserBets","outputs":[{"components":[{"components":[{"internalType":"uint256","name":"amount","type":"uint256"},{"internalType":"bool","name":"claimed","type":"bool"},{"internalType":"address","name":"referrer","type":"address"}],"internalType":"struct TAOCasino.SideBet","name":"redBet","type":"tuple"},{"components":[{"internalType":"uint256","name":"amount","type":"uint256"},{"internalType":"bool","name":"claimed","type":"bool"},{"internalType":"address","name":"referrer","type":"address"}],"internalType":"struct TAOCasino.SideBet","name":"blueBet","type":"tuple"}],"internalType":"struct TAOCasino.UserBets","name":"","type":"tuple"}],"stateMutability":"view","type":"function"},{"inputs":[{"internalType":"uint256","name":"_gameId","type":"uint256"},{"internalType":"address","name":"_user","type":"address"},{"internalType":"enum TAOCasino.Side","name":"_side","type":"uint8"}],"name":"getUserSideBet","outputs":[{"components":[{"internalType":"uint256","name":"amount","type":"uint256"},{"internalType":"bool","name":"claimed","type":"bool"},{"internalType":"address","name":"referrer","type":"address"}],"internalType":"struct TAOCasino.SideBet","name":"","type":"tuple"}],"stateMutability":"view","type":"function"},{"inputs":[{"internalType":"address","name":"_user","type":"address"}],"name":"getUserStats","outputs":[{"components":[{"internalType":"uint256","name":"totalBets","type":"uint256"},{"internalType":"uint256","name":"totalWins","type":"uint256"},{"internalType":"uint256","name":"totalWinnings","type":"uint256"},{"internalType":"uint256","name":"totalLosses","type":"uint256"},{"internalType":"uint256","name":"referralEarnings","type":"uint256"}],"internalType":"struct TAOCasino.UserStats","name":"","type":"tuple"}],"stateMutability":"view","type":"function"},{"inputs":[{"internalType":"uint256","name":"","type":"uint256"},{"internalType":"address","name":"","type":"address"}],"name":"hasAnyBet","outputs":[{"internalType":"bool","name":"","type":"bool"}],"stateMutability":"view","type":"function"},{"inputs":[{"internalType":"uint256","name":"_gameId","type":"uint256"}],"name":"isInFinalCall","outputs":[{"internalType":"bool","name":"","type":"bool"}],"stateMutability":"view","type":"function"},{"inputs":[{"internalType":"uint256","name":"_gameId","type":"uint256"},{"internalType":"enum TAOCasino.Side","name":"_side","type":"uint8"}],"name":"isUnderdogSide","outputs":[{"internalType":"bool","name":"","type":"bool"}],"stateMutability":"view","type":"function"},{"inputs":[{"internalType":"uint256","name":"","type":"uint256"}],"name":"leaderboard","outputs":[{"internalType":"address","name":"","type":"address"}],"stateMutability":"view","type":"function"},{"inputs":[],"name":"minBetAmount","outputs":[{"internalType":"uint256","name":"","type":"uint256"}],"stateMutability":"view","type":"function"},{"inputs":[],"name":"minPoolSize","outputs":[{"internalType":"uint256","name":"","type":"uint256"}],"stateMutability":"view","type":"function"},{"inputs":[],"name":"minTotalBets","outputs":[{"internalType":"uint256","name":"","type":"uint256"}],"stateMutability":"view","type":"function"},{"inputs":[],"name":"nextGameId","outputs":[{"internalType":"uint256","name":"","type":"uint256"}],"stateMutability":"view","type":"function"},{"inputs":[],"name":"owner","outputs":[{"internalType":"address","name":"","type":"address"}],"stateMutability":"view","type":"function"},{"inputs":[],"name":"paused","outputs":[{"internalType":"bool","name":"","type":"bool"}],"stateMutability":"view","type":"function"},{"inputs":[{"internalType":"address","name":"","type":"address"}],"name":"pendingReferralRewards","outputs":[{"internalType":"uint256","name":"","type":"uint256"}],"stateMutability":"view","type":"function"},{"inputs":[{"internalType":"uint256","name":"_gameId","type":"uint256"},{"internalType":"enum TAOCasino.Side","name":"_side","type":"uint8"},{"internalType":"string","name":"_referralCode","type":"string"}],"name":"placeBet","outputs":[],"stateMutability":"payable","type":"function"},{"inputs":[],"name":"platformFee","outputs":[{"internalType":"uint256","name":"","type":"uint256"}],"stateMutability":"view","type":"function"},{"inputs":[],"name":"rapidBettingDuration","outputs":[{"internalType":"uint256","name":"","type":"uint256"}],"stateMutability":"view","type":"function"},{"inputs":[],"name":"rapidBreakDuration","outputs":[{"internalType":"uint256","name":"","type":"uint256"}],"stateMutability":"view","type":"function"},{"inputs":[],"name":"rapidFinalCallDuration","outputs":[{"internalType":"uint256","name":"","type":"uint256"}],"stateMutability":"view","type":"function"},{"inputs":[],"name":"rapidMinPoolSize","outputs":[{"internalType":"uint256","name":"","type":"uint256"}],"stateMutability":"view","type":"function"},{"inputs":[{"internalType":"bytes32","name":"","type":"bytes32"}],"name":"referralCodes","outputs":[{"internalType":"address","name":"","type":"address"}],"stateMutability":"view","type":"function"},{"inputs":[],"name":"referralShareBps","outputs":[{"internalType":"uint256","name":"","type":"uint256"}],"stateMutability":"view","type":"function"},{"inputs":[{"internalType":"address","name":"","type":"address"}],"name":"referrals","outputs":[{"internalType":"address","name":"referrer","type":"address"},{"internalType":"uint256","name":"totalReferred","type":"uint256"},{"internalType":"uint256","name":"totalEarnings","type":"uint256"},{"internalType":"bool","name":"isActive","type":"bool"}],"stateMutability":"view","type":"function"},{"inputs":[],"name":"regularBettingDuration","outputs":[{"internalType":"uint256","name":"","type":"uint256"}],"stateMutability":"view","type":"function"},{"inputs":[{"internalType":"uint256","name":"_gameId","type":"uint256"}],"name":"releaseGameReferralRewards","outputs":[],"stateMutability":"nonpayable","type":"function"},{"inputs":[],"name":"renounceOwnership","outputs":[],"stateMutability":"nonpayable","type":"function"},{"inputs":[{"internalType":"uint256","name":"_gameId","type":"uint256"}],"name":"resolveGame","outputs":[],"stateMutability":"nonpayable","type":"function"},{"inputs":[{"internalType":"uint256","name":"_minBet","type":"uint256"}],"name":"setMinBetAmount","outputs":[],"stateMutability":"nonpayable","type":"function"},{"inputs":[{"internalType":"uint256","name":"_minBets","type":"uint256"},{"internalType":"uint256","name":"_minPool","type":"uint256"},{"internalType":"uint256","name":"_rapidMinPool","type":"uint256"}],"name":"setMinParticipation","outputs":[],"stateMutability":"nonpayable","type":"function"},{"inputs":[{"internalType":"bool","name":"_paused","type":"bool"}],"name":"setPaused","outputs":[],"stateMutability":"nonpayable","type":"function"},{"inputs":[{"internalType":"uint256","name":"_fee","type":"uint256"}],"name":"setPlatformFee","outputs":[],"stateMutability":"nonpayable","type":"function"},{"inputs":[{"internalType":"uint256","name":"_duration","type":"uint256"}],"name":"setRapidBettingDuration","outputs":[],"stateMutability":"nonpayable","type":"function"},{"inputs":[{"internalType":"uint256","name":"_share","type":"uint256"}],"name":"setReferralShareBps","outputs":[],"stateMutability":"nonpayable","type":"function"},{"inputs":[{"internalType":"uint256","name":"_duration","type":"uint256"}],"name":"setRegularBettingDuration","outputs":[],"stateMutability":"nonpayable","type":"function"},{"inputs":[{"internalType":"uint256","name":"_bonus","type":"uint256"},{"internalType":"uint256","name":"_threshold","type":"uint256"}],"name":"setUnderdogBonus","outputs":[],"stateMutability":"nonpayable","type":"function"},{"inputs":[{"internalType":"uint256","name":"","type":"uint256"},{"internalType":"address","name":"","type":"address"},{"internalType":"enum TAOCasino.Side","name":"","type":"uint8"}],"name":"sideBets","outputs":[{"internalType":"uint256","name":"amount","type":"uint256"},{"internalType":"bool","name":"claimed","type":"bool"},{"internalType":"address","name":"referrer","type":"address"}],"stateMutability":"view","type":"function"},{"inputs":[{"internalType":"enum TAOCasino.GameSpeed","name":"_gameSpeed","type":"uint8"}],"name":"startNewGame","outputs":[],"stateMutability":"nonpayable","type":"function"},{"inputs":[{"internalType":"address","name":"newOwner","type":"address"}],"name":"transferOwnership","outputs":[],"stateMutability":"nonpayable","type":"function"},{"inputs":[],"name":"underdogBonusBps","outputs":[{"internalType":"uint256","name":"","type":"uint256"}],"stateMutability":"view","type":"function"},{"inputs":[],"name":"underdogThreshold","outputs":[{"internalType":"uint256","name":"","type":"uint256"}],"stateMutability":"view","type":"function"},{"inputs":[{"internalType":"address","name":"","type":"address"}],"name":"userReferralCode","outputs":[{"internalType":"bytes32","name":"","type":"bytes32"}],"stateMutability":"view","type":"function"},{"inputs":[{"internalType":"address","name":"","type":"address"}],"name":"userStats","outputs":[{"internalType":"uint256","name":"totalBets","type":"uint256"},{"internalType":"uint256","name":"totalWins","type":"uint256"},{"internalType":"uint256","name":"totalWinnings","type":"uint256"},{"internalType":"uint256","name":"totalLosses","type":"uint256"},{"internalType":"uint256","name":"referralEarnings","type":"uint256"}],"stateMutability":"view","type":"function"},{"inputs":[{"internalType":"string","name":"_code","type":"string"}],"name":"validateReferralCode","outputs":[{"internalType":"address","name":"","type":"address"}],"stateMutability":"view","type":"function"},{"inputs":[],"name":"withdrawFees","outputs":[],"stateMutability":"nonpayable","type":"function"},{"stateMutability":"payable","type":"receive"}],"evm":{"bytecode":{"linkReferences":{},"object":"608080604052346100d257600160008181558154336001600160a01b0319821681179093556001600160a01b0316907f8be0079c531659141344cd1fd0a4f28419497f9722a3daafe3b4186f6b6457e09080a3600160025560966003556103e86004556101f4600555611b5860065566038d7ea4c6800060075560ff196008541660085561189c600d55610258600e5561038480600f5560b460105560115561012c6012556002601355670de0b6b3a76400006014556706f05b59d3b200006015556000601655613cb190816100d88239f35b600080fdfe608080604052600436101561001d575b50361561001b57600080fd5b005b60003560e01c90816297dcc61461253f575080630293399c1461241257806305eaab4b1461234f578063075aa970146122145780630ab53fa514611c83578063113965c41461216a578063117a5b901461207757806312e8e2c31461201057806316c38b3c14611fae57806319be5ad01461114f57806321874ae214611f0157806326232a2e14611ee3578063340cd9bb14611ec55780633469336d1461164a57806334dee60b14611ea75780633e0183d114611ce95780633fa2762514611ccb57806341b4418914611c835780634740609614611b18578063476343ee14611abc57806347c9bc2d14611a9e5780634e43603a146119e657806351bcefa114611999578063536a3ddc1461197b578063587f5ed71461191e5780635b7f415c1461195f5780635c975abb1461193c5780635df45a371461191e57806360d6a94114611900578063618c506d146118c657806364be7a01146118a857806367c15f6a1461188f57806369f2372d146117b65780636b21bed6146117795780636c188593146117065780636c3c1a45146116e85780636d763a6e146116845780636e8ba9f61461164a5780636ed296e4146113b9578063715018a61461136e57806375c14dd8146113505780637b51ac7a146113325780637e644547146112fe5780638a65d874146112995780638cd429911461127b5780638da5cb5b14611252578063968d901b146111fd57806396ee4688146111df5780639ca423b31461117b5780639dad1da51461114f578063a2f77bcc1461103a578063a5a996931461101c578063a5c44a6514610f50578063aa21684514610f03578063afc250a714610ed7578063b135bbb014610eb9578063b7a5a5b614610e9d578063bcbdecb714610e13578063bf36839914610dea578063c62d359c14610864578063c6fd03df14610846578063ce1ea732146107fc578063d07e995b1461078e578063d73792a914610771578063d824e03c14610723578063db87714214610707578063e0ca49ae1461069a578063e87c0ee614610659578063e978f045146105f4578063ebf28b51146105c8578063ec1b3ab5146105a2578063ec84465414610562578063f18cdb651461053f578063f2fde38b1461048e578063f95547fa14610455578063fa744dd31461039b5763fa968eea14610378573861000f565b34610396576000366003190112610396576020600754604051908152f35b600080fd5b346103965760403660031901126103965760c06004356104536103bc6125cb565b604051906103c982612881565b6103d161384a565b82526103db61384a565b60209283015260009384526018825260408085206001600160a01b0392909216855290825280842084805282528084206001855293819020905193610434919061042d9061042887612881565b613869565b8552613869565b9083019081526104486040518094516127b3565b5160608301906127b3565bf35b3461039657602036600319011261039657600435600052600a60205260408060002054600b602052816000205482519182526020820152f35b34610396576020366003190112610396576104a76125e1565b6104af6127d7565b6001600160a01b039081169081156104eb57600180546001600160a01b03198116841790915516600080516020613c1c833981519152600080a3005b60405162461bcd60e51b815260206004820152602660248201527f4f776e61626c653a206e6577206f776e657220697320746865207a65726f206160448201526564647265737360d01b6064820152608490fd5b346103965760206105586105523661265e565b90613b59565b6040519015158152f35b346103965760803660031901126103965761057b6125cb565b60443560028110156103965760209161059a91606435916004356138fc565b604051908152f35b34610396576105c16105b33661265e565b906105bc61295c565b6131ed565b6001600055005b3461039657602036600319011261039657600435600052600b6020526020604060002054604051908152f35b346103965761060236612780565b9161060b61384a565b50600052601860205260406000209060018060a01b03166000526020526040600020906106378161261a565b600052602052606061064c6040600020613869565b61045360405180926127b3565b3461039657600036600319011261039657600254600019810190811161068457602090604051908152f35b634e487b7160e01b600052601160045260246000fd5b346103965760606106aa36612780565b90916000526018602052604060002060018060a01b038093166000526020526040600020906106d88161261a565b6000526020526040600020906001825492015460405192835260ff81161515602084015260081c166040820152f35b3461039657600036600319011261039657602060405160648152f35b346103965760203660031901126103965760043561073f6127d7565b61012c81108015610766575b61075457600e55005b604051630a68a0ed60e01b8152600490fd5b50610e10811161074b565b346103965760003660031901126103965760206040516127108152f35b34610396576020366003190112610396576004356107aa6127d7565b61138881116107b857600455005b606460405162461bcd60e51b815260206004820152602060248201527f526566657272616c2073686172652063616e6e6f7420657863656564203530256044820152fd5b346103965761080a366125f7565b906000526019602052604060002080548210156103965760209161082d91612768565b905460405160039290921b1c6001600160a01b03168152f35b34610396576000366003190112610396576020601454604051908152f35b6060366003190112610396576024356004356002821015610396576044356001600160401b0381116103965761089e903690600401612631565b6108a661295c565b82158015610dde575b610dcc573415610dba576007543410610da857826000526020906017825260406000209060ff600183015460101c166005811015610d9257600103610d80576007820154421015610d6e5784600052601883526040600020336000528352604060002061091b8761261a565b86600052835260406000206003549160028401938454916003820194855461094381866129b2565b610cf1575b5061095a9350612710938491346129fe565b046109658134612a31565b938a600187019360018060a01b039b8c865460081c1682151580610ce9575b15610c545750938c979693610a4296936109a18e94600a986128da565b9e8f169182151580610c4a575b610bb4575b50505090505b8c600052838b526109d060406000209182546129b2565b90558b600052601a8a5260406000206109ea8682546129b2565b90558654966109fc88159834906129b2565b9055805460ff198082168355968c169b8c610b8d575b505050610a1e8c61261a565b8b15958615610b6d57610a32348a546129b2565b8955610b58575b019182546129b2565b905586600052601b8552604060002033600052855260ff6040600020541615610ae5575b50336000528380526040600020610a7d81546129bf565b9055610a888761261a565b15610adc575054905b60405194610a9e8161261a565b85523490850152604084015260608301527f6c8573037a11bfad9b3a07afcfdd9a9790c4748ea22c9348a596f466194d59b060803393a36001600055005b90505490610a91565b86600052601b85526040600020336000528552600160406000209182541617905585600052601984526040600020805490600160401b821015610b425781610b35916001610b3c94018155612768565b3391612a3e565b87610a66565b634e487b7160e01b600052604160045260246000fd5b60048101610b6681546129bf565b9055610a39565b610b783489546129b2565b885515610a395760058101610b6681546129bf565b6001600160a81b031990911660089190911b610100600160a81b03161790558c8080610a12565b610bce600c91610bc6600454876129fe565b048095612a31565b9482600052528d60406000209083600052526040600020610bf08482546129b2565b9055600052600b8d526040600020610c098382546129b2565b905580600052601c8d526001604060002001610c2581546129bf565b9055604051918252600080516020613bfc8339815191528d3393a38a908f8e816109b3565b50338314156109ae565b610a42969350600a959250809d9897949150610c71575b506109b9565b610c8990610c81600454846129fe565b048092612a31565b908d600052600c8c5260406000208d6000528c526040600020610cad8282546129b2565b90558d600052600b8c526040600020610cc78282546129b2565b90556040519081528c600080516020613bfc8339815191528d3393a38e610c6b565b508015610984565b610d0990610cfe8d61261a565b8c610d6757856129b2565b93612710948582029180830487149015171561068457610d2891612a11565b9360065481039081116106845761095a9410610d45575b8b610948565b60055480821115610d5e57610d5991612a31565b610d3f565b50506000610d3f565b80956129b2565b6040516356c7983160e01b8152600490fd5b60405163976a06eb60e01b8152600490fd5b634e487b7160e01b600052602160045260246000fd5b604051631a6254d160e31b8152600490fd5b604051639de3d44160e01b8152600490fd5b6040516309b3c62760e21b8152600490fd5b506002548310156108af565b34610396576020366003190112610396576004356021548110156103965761082d602091612737565b34610396576020806003193601126103965760043560005260198152604060002090604051808383829554938481520190600052836000209260005b85828210610e7e57505050610e66925003836128b7565b610e7a60405192828493845283019061255a565b0390f35b85546001600160a01b0316845260019586019588955093019201610e4f565b346103965760203660031901126103965761001b600435612a5c565b34610396576000366003190112610396576020600254604051908152f35b3461039657602036600319011261039657600435600052600a6020526020604060002054604051908152f35b34610396576020366003190112610396576004356001600160401b03811161039657610f3e610f386020923690600401612631565b906128da565b6040516001600160a01b039091168152f35b34610396576020806003193601126103965760043590610f6e61295c565b8160005260188152604060002033600052815260406000206000805281526040600020908260005260188152604060002033600052815260406000209060016000525260406000209080541515908161100c575b50610ffe575b805415159081610fee575b50610fdf576001600055005b610fe890612fe0565b806105c1565b60ff915060010154161582610fd3565b61100782612d35565b610fc8565b60ff915060010154161583610fc2565b34610396576000366003190112610396576020600e54604051908152f35b34610396576020366003190112610396576004356110566137e2565b5080158015611143575b610dcc576000526017602052610e7a604060002060ff600b6040519261108584612865565b805484526110c28360018301546110a1828216602089016129ce565b818160081c166110b08161261a565b604088015260101c16606086016129da565b60028101546080850152600381015460a0850152600481015460c0850152600581015460e08501526006810154610100850152600781015461012085015260088101546101408501528260098201541661111b8161261a565b610160850152600a81015461018085015201541615156101a08201526040519182918261267d565b50600254811015611060565b3461039657602036600319011261039657600435600052601a6020526020604060002054604051908152f35b346103965760203660031901126103965760806001600160a01b038061119f6125e1565b16600052601c6020526040600020908154169060018101549060ff6003600283015492015416916040519384526020840152604083015215156060820152f35b34610396576000366003190112610396576020600f54604051908152f35b34610396576000366003190112610396576112166137e2565b506016548015611241576000526017602052610e7a604060002060ff600b6040519261108584612865565b6040516295b66160e61b8152600490fd5b34610396576000366003190112610396576001546040516001600160a01b039091168152602090f35b3461039657602036600319011261039657602061059a600435613a48565b34610396576020366003190112610396576001600160a01b036112ba6125e1565b166000526020805260a06040600020805490600181015490600281015460046003830154920154926040519485526020850152604084015260608301526080820152f35b3461039657602036600319011261039657600435600052601d602052602060018060a01b0360406000205416604051908152f35b34610396576000366003190112610396576020601054604051908152f35b34610396576000366003190112610396576020600d54604051908152f35b34610396576000366003190112610396576113876127d7565b600180546001600160a01b031981169091556000906001600160a01b0316600080516020613c1c8339815191528280a3005b3461039657602036600319011261039657600260043510156103965760ff6008541661163857601654806115f1575b506002546113f5816129bf565b60025561140360043561261a565b6004356115e657611417600d545b426129b2565b6040519061142482612865565b8282526000602083015261143960043561261a565b60043560408301526001606083015260006080830152600060a0830152600060c0830152600060e0830152426101008301528061012083015260006101408301526000610160830152600061018083015260006101a0830152826000526017602052604060002090825182556020830151916001831015610d92576001810154906040850151916114c98361261a565b6114d28361261a565b6060860151906005821015610d92577f5bffe7e5c8098c6e3688eb38e9850f561c9f5cbb9e256d591242a8a92ee7af26966080966115b99561ff006101a09460ff62ff0000600b9860101b1694169062ffffff1916179160081b161717600185015586810151600285015560a0810151600385015560c0810151600485015560e0810151600585015561010081015160068501556101208101516007850155610140810151600885015561159761016082015161158e8161261a565b600986016129e6565b610180810151600a8501550151151591019060ff801983541691151516179055565b8360165560405190600082526115d060043561261a565b60043560208301524260408301526060820152a2005b611417600e54611411565b600052601760205260ff60016040600020015460101c166005811015610d9257600181146116265760021461162657806113e8565b604051632127c5b560e01b8152600490fd5b60405163ab35696f60e01b8152600490fd5b34610396576020366003190112610396576001600160a01b0361166b6125e1565b16600052601f6020526020604060002054604051908152f35b3461039657600036600319011261039657604051806021548082528260208093016021600052836000209260005b858282106116c957505050610e66925003836128b7565b85546001600160a01b03168452600195860195889550930192016116b2565b34610396576020366003190112610396576020610558600435613ac0565b34610396576020366003190112610396576004356117226127d7565b670de0b6b3a7640000811161173657600755005b60405162461bcd60e51b815260206004820152601b60248201527a4d696e206265742063616e6e6f742065786365656420312054414f60281b6044820152606490fd5b34610396576020366003190112610396576004356117956127d7565b610708811080156117aa575b61075457600d55005b506201518081116117a1565b34610396576020366003190112610396576004356117d26127d7565b80158015611883575b610dcc57806000526017602052604060002060ff600182015460101c166005811015610d925760041461187157806005600461181c930154910154906129b2565b61185f5760405161001b9161183082612881565b601f82527f456d657267656e63792063616e63656c6c6174696f6e206279206f776e65720060208301526134a7565b6040516344a603bb60e11b8152600490fd5b6040516341d5c2cf60e01b8152600490fd5b506002548110156117db565b3461039657602061059a6118a23661265e565b906139ca565b34610396576000366003190112610396576020601554604051908152f35b34610396576020366003190112610396576001600160a01b036118e76125e1565b16600052601e6020526020604060002054604051908152f35b34610396576000366003190112610396576020600554604051908152f35b34610396576000366003190112610396576020600954604051908152f35b3461039657600036600319011261039657602060ff600854166040519015158152f35b3461039657600036600319011261039657602060405160128152f35b34610396576000366003190112610396576020601654604051908152f35b34610396576040366003190112610396576119b26125cb565b600435600052601b60205260406000209060018060a01b0316600052602052602060ff604060002054166040519015158152f35b34610396576020806003193601126103965760a090611a036125e1565b60006080604051611a138161284a565b82815282858201528260408201528260608201520152600180841b0316600052808052604060002060405190611a488261284a565b805492838352600182015490808401918252600283015491604085019283526080600460038601549560608801968752015495019485526040519586525190850152516040840152516060830152516080820152f35b34610396576000366003190112610396576020600454604051908152f35b3461039657600036600319011261039657611ad56127d7565b60095480611adf57005b6000808080938160095560018060a01b03600154165af1611afe61291d565b5015611b0657005b6040516312171d8360e31b8152600490fd5b3461039657602080600319360112610396576004359081158015611c77575b610dcc578160005260178152604060002060ff600b820154169081611c44575b5015611c0c5781600052600c81526040600020336000528152604060002054918215611bcc5790601c91600052600c8152604060002033600052815260006040812055601f81526040600020611bae8482546129b2565b90553360005252611bc860026040600020019182546129b2565b9055005b60405162461bcd60e51b81526004810183905260186024820152774e6f207265776172647320666f7220746869732067616d6560401b6044820152606490fd5b6064906040519062461bcd60e51b82526004820152601160248201527011d85b59481b9bdd081c995cdbdb1d9959607a1b6044820152fd5b60ff91506001015460101c166005811015610d925760038114908115611c6c575b5083611b57565b600491501483611c65565b50600254821015611b37565b3461039657604036600319011261039657611c9c6125cb565b600435600052600c60205260406000209060018060a01b03166000526020526020604060002054604051908152f35b34610396576000366003190112610396576020601354604051908152f35b3461039657602080600319360112610396576004356001600160401b03811161039657611d1a903690600401612631565b611d3d8360405183819483830196873781016000838201520380845201826128b7565b5190209081600052601d815260018060a01b038060406000205416611e6d5733600052601e8252604060002054611e325790611e277f84d410093008674eba76b70ab072a4f33a5858f8aebca4c89a70447eccf6ffda9284600052601d8352600360406000209160018060a01b031992338482541617905533600052601e85528660406000205560405192611dd18461282f565b600084528584016000815260408501916000835260608601936001855233600052601c895260406000209651169086541617855551600185015551600284015551151591019060ff801983541691151516179055565b6040519283523392a2005b60405162461bcd60e51b8152600481018390526013602482015272416c72656164792068617665206120636f646560681b6044820152606490fd5b60405162461bcd60e51b815260048101839052601260248201527121b7b2329030b63932b0b23c903a30b5b2b760711b6044820152606490fd5b34610396576000366003190112610396576020601154604051908152f35b34610396576000366003190112610396576020601254604051908152f35b34610396576000366003190112610396576020600354604051908152f35b34610396576020366003190112610396576080611f1c6125e1565b60006060604051611f2c8161282f565b828152826020820152826040820152015260018060a01b03809116600052601c60205260406000209060405190611f628261282f565b82541691828252600181015460208301908152606060ff600360028501549460408701958652015416930192151583526040519384525160208401525160408301525115156060820152f35b34610396576020366003190112610396576004358015158091036103965760207f11cec829ff57d278cffee07757e9621bfa0ae0cd17b3d23a7b81cba95174b8a491611ff86127d7565b60ff196008541660ff821617600855604051908152a1005b346103965760203660031901126103965760043561202c6127d7565b6103e8811161203a57600355005b60405162461bcd60e51b81526020600482015260156024820152744665652063616e6e6f74206578636565642031302560581b6044820152606490fd5b3461039657602036600319011261039657600435600052601760205260406000208054906001810154908160081c60ff16916002820154600383015460048401546005850154600686015491600787015493600888015495600989015460ff1697600a8a015499600b015460ff169a6040519c8d5260208d0160ff8316906120fe9161260d565b6121078161261a565b60408d015260608c019060101c60ff169061212191612624565b60808b015260a08a015260c089015260e08801526101008701526101208601526101408501526121508161261a565b61016084015261018083015215156101a08201526101c090f35b3461039657612178366125f7565b906121816127d7565b6103e881116121d557612328821161219b57600555600655005b60405162461bcd60e51b81526020600482015260126024820152710a8d0e4cae6d0ded8c840e8dede40d0d2ced60731b6044820152606490fd5b60405162461bcd60e51b8152602060048201526017602482015276426f6e75732063616e6e6f74206578636565642031302560481b6044820152606490fd5b34610396576020806003193601126103965760043560215480821060001461234857505b6122418161389f565b9061224f60405192836128b7565b808252601f1961225e8261389f565b01368484013761226d816138b6565b92612277826138b6565b9160005b8181106122be576122a385610e7a866122b0878b60405196879660608852606088019061255a565b9186830390870152612597565b908382036040850152612597565b806122cb61234392612737565b90546001600160a01b039160039190821b1c82166122e9848a6138e8565b52816122f484612737565b905490831b1c16600052858052600260406000200154612314848b6138e8565b5261231e83612737565b9054911b1c1660005283805260016040600020015461233d82876138e8565b526129bf565b61227b565b9050612238565b346103965760003660031901126103965761236861295c565b33600052601f60205260406000205480156123d75733600052601f60205260006040812055600080808084335af161239e61291d565b5015611b06576040519081527f98741ecf35c5d20a8ed68dbd8540500684864a6c98c2a41a5844d0b3a2357d4360203392a26001600055005b60405162461bcd60e51b81526020600482015260136024820152724e6f207265776172647320746f20636c61696d60681b6044820152606490fd5b34610396576060366003190112610396576044356024356004356124346127d7565b606481116124fd5768056bc75e2d6310000082116124b8576802b5e3af16b1880000831161246757601355601455601555005b60405162461bcd60e51b815260206004820152602360248201527f5261706964206d696e20706f6f6c2063616e6e6f74206578636565642035302060448201526254414f60e81b6064820152608490fd5b60405162461bcd60e51b815260206004820152601e60248201527f4d696e20706f6f6c2063616e6e6f7420657863656564203130302054414f00006044820152606490fd5b60405162461bcd60e51b815260206004820152601a60248201527904d696e20626574732063616e6e6f7420657863656564203130360341b6044820152606490fd5b34610396576000366003190112610396576020906006548152f35b90815180825260208080930193019160005b82811061257a575050505090565b83516001600160a01b03168552938101939281019260010161256c565b90815180825260208080930193019160005b8281106125b7575050505090565b8351855293810193928101926001016125a9565b602435906001600160a01b038216820361039657565b600435906001600160a01b038216820361039657565b6040906003190112610396576004359060243590565b906001821015610d925752565b60021115610d9257565b906005821015610d925752565b9181601f84011215610396578235916001600160401b038311610396576020838186019501011161039657565b6040906003190112610396576004359060243560028110156103965790565b9190916101c08101928051825261269c6020820151602084019061260d565b60408101516126aa8161261a565b60408301526126c160608201516060840190612624565b6080810151608083015260a081015160a083015260c081015160c083015260e081015160e0830152610100808201519083015261012080820151908301526101408082015190830152610160808201519061271b8261261a565b83015261018080820151908301526101a0809101511515910152565b60215481101561275257602160005260206000200190600090565b634e487b7160e01b600052603260045260246000fd5b80548210156127525760005260206000200190600090565b606090600319011261039657600435906024356001600160a01b0381168103610396579060443560028110156103965790565b805182526020808201511515908301526040908101516001600160a01b0316910152565b6001546001600160a01b031633036127eb57565b606460405162461bcd60e51b815260206004820152602060248201527f4f776e61626c653a2063616c6c6572206973206e6f7420746865206f776e65726044820152fd5b608081019081106001600160401b03821117610b4257604052565b60a081019081106001600160401b03821117610b4257604052565b6101c081019081106001600160401b03821117610b4257604052565b604081019081106001600160401b03821117610b4257604052565b606081019081106001600160401b03821117610b4257604052565b601f909101601f19168101906001600160401b03821190821017610b4257604052565b906128ff602060405183819483830196873781016000838201520380845201826128b7565b5190206000908152601d60205260409020546001600160a01b031690565b3d15612957573d906001600160401b038211610b42576040519161294b601f8201601f1916602001846128b7565b82523d6000602084013e565b606090565b60026000541461296d576002600055565b60405162461bcd60e51b815260206004820152601f60248201527f5265656e7472616e637947756172643a207265656e7472616e742063616c6c006044820152606490fd5b9190820180921161068457565b60001981146106845760010190565b6001821015610d925752565b6005821015610d925752565b906129f08161261a565b60ff80198354169116179055565b8181029291811591840414171561068457565b8115612a1b570490565b634e487b7160e01b600052601260045260246000fd5b9190820391821161068457565b919082549060031b9160018060a01b03809116831b921b1916179055565b80158015612d29575b610dcc57600081815260209060178252604080822091600183019283549260ff8460101c166005811015612d1557600103612d055760078201544210612cf5576004820193845495612abd60058501978854906129b2565b946002850192835496600160ff612ada60038a019a8b54906129b2565b9360081c16612ae88161261a565b03612cec57601554905b60135411918215612ce2575b5050612c9f5782548654808214612c26575050928260e09895928b7f416dd9b4796469cf2903ad298b9814a0c229aef0e99a8cda19126ea6cebab8df848d817f8ab79f4c0e431955cd8b26254237e48bd01ee49391716594c2ee0ec505aa4d189f9c999a60ff9e9b548b5411600014612c1e5780995b612b818b600983016129e6565b600b810160ff600190198254161790556203000062ff000019895416178855600842910155858152600a8352600b8282205493522054612bc3826009546129b2565b60095582519182528c820152a25496612bef898960081c1692549554965497549884519a8b911661260d565b612bf88261261a565b880152612c048261261a565b8601526060850152608084015260a083015260c0820152a2565b600199612b74565b915091508997507f457861637420746965202d20726566756e64696e6720616c6c20626574730000965083809650612c9d9a95507ec62d58cbb6a9291254143347fdc129d33fc8550dbb03c801abb5fcba00470d9493505191825288820152a25192612c9184612881565b601e84528301526134a7565b565b505050915050612c9d9492507924b739bab33334b1b4b2b73a103830b93a34b1b4b830ba34b7b760311b91505192612cd684612881565b601a84528301526134a7565b1090503880612afe565b60145490612af2565b5163658aead360e01b8152600490fd5b516341d5c2cf60e01b8152600490fd5b634e487b7160e01b84526021600452602484fd5b50600254811015612a65565b80158015612fd4575b610dcc5760009080825260206017815260408084209160188152818520338652815281852085805281528185208054938415612fc3576001908183019586549060ff91828116612fb25782600b850154161580612f83575b612f30575050808383015460101c166005811015612f1c5760038114159081612f10575b50612eff576009820181815416612dd08161261a565b612ed4575416612ddf8161261a565b612ecb57600201545b825490670de0b6b3a76400009182810290808204841490151715612eb757612e2391612e1391612a11565b888a52601a8652868a20546129fe565b04948160ff1982541617905584612e90575b33875282805283872001612e4981546129bf565b9055338652818052600283872001612e628582546129b2565b9055612e6d3361359b565b54908251958652850152830152600080516020613c3c83398151915260603393a3565b8680808088335af1612ea061291d565b50612e35575b83516312171d8360e31b8152600490fd5b634e487b7160e01b8a52601160045260248afd5b60030154612de8565b5050509050600395939192945060ff1982541617905533825280522001612efb81546129bf565b9055565b8551636082930560e11b8152600490fd5b60049150141538612dba565b634e487b7160e01b8a52602160045260248afd5b9250959693505060ff19161790558480808085335af1612f4e61291d565b5015612f725782519485528401523392600080516020613c5c8339815191529190a3565b82516312171d8360e31b8152600490fd5b50828585015460101c166005811015612f9e57600414612d96565b634e487b7160e01b8c52602160045260248cfd5b8751630c8d9eab60e31b8152600490fd5b8351632f42cbdd60e01b8152600490fd5b50600254811015612d3e565b801580156131e1575b610dcc576000908082526020601781526040808420916018815281852033865281528185209460019586825282528281209081549485156131d0578783019586549060ff91828116612fb2578a9083600b86015416158061319e575b613180575082915083015460101c166005811015612d155760038114159081613174575b50612eff57600982018181541661307f8161261a565b8a0361314e5754166130908161261a565b61314557600201545b825490670de0b6b3a76400009182810290808204841490151715613131576130d4916130c491612a11565b888452601a8652868420546129fe565b04948760ff198254161790558385613114575b60029133815284805288828220016130ff81546129bf565b90553381528480522001612e628582546129b2565b508080808088335af161312561291d565b5015612ea657836130e7565b634e487b7160e01b84526011600452602484fd5b60030154613099565b50505093919294505060039460ff1982541617905533825280522001612efb81546129bf565b60049150141538613069565b60ff1916179097555093949350905080808085335af1612f4e61291d565b509084015460101c831660058110156131bc579060048c9214613045565b634e487b7160e01b86526021600452602486fd5b8451632f42cbdd60e01b8152600490fd5b50600254811015612fe9565b8015801561349b575b610dcc576000818152602060178152604090818320926018825282812033825282528281206132248761261a565b86825282528281209081549485156131d0576001908184019687549060ff9182811661348a5782600b85015416158061345b575b61340f575050808383015460101c1660058110156133fb57600381141590816133ef575b506133de5760098201818154166132928161261a565b61329b8c61261a565b8b036133b65754166132ac8161261a565b6133ad57600201545b835490670de0b6b3a76400009182810290808204841490151715613399576132e3889493926132f392612a11565b8a8652601a8852848620546129fe565b04968160ff1982541617905586613369575b916002923382528580528282200161331d81546129bf565b905533815284805220016133328582546129b2565b905561333d3361359b565b549082519561334b8161261a565b8652850152830152600080516020613c3c83398151915260603393a3565b90508180808089335af161337b61291d565b5015613388578490613305565b84516312171d8360e31b8152600490fd5b634e487b7160e01b85526011600452602485fd5b600301546132b5565b505050915093919294506003955060ff1982541617905533825280522001612efb81546129bf565b8651636082930560e11b8152600490fd5b6004915014153861327c565b634e487b7160e01b85526021600452602485fd5b925096979394505060ff191617905580808085335af161342d61291d565b5015612f7257908291600080516020613c5c8339815191529351956134518161261a565b86528501523393a3565b50828585015460101c16600581101561347657600414613258565b634e487b7160e01b87526021600452602487fd5b8851630c8d9eab60e31b8152600490fd5b506002548110156131f6565b90600082815260209160178352604091600b838220600a86526134d48584205483885286852054906129b2565b878452601a87526134e98685209182546129b2565b9055868352600a86528285812055818652828581205561351260028201546003830154906129b2565b600a820155600181016204000062ff0000198254161790550160ff1981541690558251938085528251928382870152825b8481106135885750505092817f0f023b047be6c305859504186f8b03ee5a634f9ab472ff386d3b1de9387c083e948483959484010152601f80199101168101030190a2565b8181018301518782018701528201613543565b9060018060a01b03918281169260009284845260208080526002604094818688200154908798888991602154925b8381106137af575b5050156136d1575b505050955b8015801580613682575b15613678576000198201918083116136645761363961363e8761364a9361360e87612737565b9390549161361b81612737565b969054966003978661362c8d612737565b9290938b1b1c1691612a3e565b612737565b9390941b1c1691612a3e565b156135de575b634e487b7160e01b86526011600452602486fd5b634e487b7160e01b88526011600452602488fd5b5050509350505050565b508461368d83612737565b919054600392831b1c168852838052888789200154906000198401848111612eb757906136ba8892612737565b9054911b1c168852838052888789200154106135e8565b9298509091606481101561373b5750602154909150600160401b811015613727579061370682600161370c9401602155612737565b90612a3e565b6021546000198101908111613650578390965b9038806135d9565b634e487b7160e01b87526041600452602487fd5b6000199281840191821161379b578661375383612737565b90549060031b1c16895284805289888a20015410600014613790579061370661377b92612737565b6021549081019081116136505783909661371f565b505050509350505050565b634e487b7160e01b89526011600452602489fd5b818a6137ba83612737565b90549060031b1c16146137d5576137d0906129bf565b6135c9565b9b505050600138806135d1565b604051906137ef82612865565b816101a06000918281528260208201528260408201528260608201528260808201528260a08201528260c08201528260e082015282610100820152826101208201528261014082015282610160820152826101808201520152565b604051906138578261289c565b60006040838281528260208201520152565b906040516138768161289c565b825481526001929092015460ff81161515602084015260081c6001600160a01b03166040830152565b6001600160401b038111610b425760051b60200190565b906138c08261389f565b6138cd60405191826128b7565b82815280926138de601f199161389f565b0190602036910137565b80518210156127525760209160051b010190565b9091811580156139be575b6139b55761399d6139a392600a6139956139a8976000938452601760205260408420976018602052604085209060018060a01b031685526020526040842061394e8761261a565b8685526020526139628160408620546129b2565b9561397c612710613975600354856129fe565b0483612a31565b946139868261261a565b506139ab5760028801546129b2565b9501546129b2565b906129fe565b612a11565b90565b60038801546129b2565b50505050600090565b50600254821015613907565b919082158015613a3c575b613a34576000928352601760205260408320906139f18161261a565b613a29576002810154905b8115613a2557600a015461271090818102918183041490151715613131576139a8929350612a11565b5050565b6003810154906139fc565b506127109150565b506002548310156139d5565b80158015613ab4575b613aae57600090815260176020526040812060ff600182015460101c166005811015613a9a57600103613a96576007015480421015613a96576139a891504290612a31565b5090565b634e487b7160e01b83526021600452602483fd5b50600090565b50600254811015613a51565b80158015613b4d575b613aae57600090815260176020526040812090600182015460ff8160101c166005811015613a9a57600103613b47579060ff60019260081c1690613b0c8261261a565b5003613b3957613b256007601054925b01549182612a31565b4210159081613b32575090565b9050421090565b613b256007600f5492613b1c565b50905090565b50600254811015613ac9565b600090815260176020526040812060036002820154910154613b7b81836129b2565b938415613bf357613b8b8161261a565b613beb5750915b6127109283810290808204851490151715613bd75790613bb191612a11565b906006548303928311613bc357501090565b634e487b7160e01b81526011600452602490fd5b634e487b7160e01b83526011600452602483fd5b905091613b92565b50505090509056fee05841e5a327956f4a370d19d6e54c700a6b2638644182706f8ac8738c35fb8a8be0079c531659141344cd1fd0a4f28419497f9722a3daafe3b4186f6b6457e0d6a2a5fa33ed09b7e0ad44c465d1d7cc1ebac5fe4f8e9c6625c55a874855db5f96be94f3cb4521868c06461d3a4197839df4d896c7fb4362fc0e3be356a11c12a2646970667358221220219b5d9f5ea27b79c78d53fa68e000cfaac7d8ae4eb65f344cbabe31b80cd87a64736f6c63430008130033","opcodes":"PUSH1 0x80 DUP1 PUSH1 0x40 MSTORE CALLVALUE PUSH2 0xD2 JUMPI PUSH1 0x1 PUSH1 0x0 DUP2 DUP2 SSTORE DUP2 SLOAD CALLER PUSH1 0x1 PUSH1 0x1 PUSH1 0xA0 SHL SUB NOT DUP3 AND DUP2 OR SWAP1 SWAP4 SSTORE PUSH1 0x1 PUSH1 0x1 PUSH1 0xA0 SHL SUB AND SWAP1 PUSH32 0x8BE0079C531659141344CD1FD0A4F28419497F9722A3DAAFE3B4186F6B6457E0 SWAP1 DUP1 LOG3 PUSH1 0x1 PUSH1 0x2 SSTORE PUSH1 0x96 PUSH1 0x3 SSTORE PUSH2 0x3E8 PUSH1 0x4 SSTORE PUSH2 0x1F4 PUSH1 0x5 SSTORE PUSH2 0x1B58 PUSH1 0x6 SSTORE PUSH7 0x38D7EA4C68000 PUSH1 0x7 SSTORE PUSH1 0xFF NOT PUSH1 0x8 SLOAD AND PUSH1 0x8 SSTORE PUSH2 0x189C PUSH1 0xD SSTORE PUSH2 0x258 PUSH1 0xE SSTORE PUSH2 0x384 DUP1 PUSH1 0xF SSTORE PUSH1 0xB4 PUSH1 0x10 SSTORE PUSH1 0x11 SSTORE PUSH2 0x12C PUSH1 0x12 SSTORE PUSH1 0x2 PUSH1 0x13 SSTORE PUSH8 0xDE0B6B3A7640000 PUSH1 0x14 SSTORE PUSH8 0x6F05B59D3B20000 PUSH1 0x15 SSTORE PUSH1 0x0 PUSH1 0x16 SSTORE PUSH2 0x3CB1 SWAP1 DUP2 PUSH2 0xD8 DUP3 CODECOPY RETURN JUMPDEST PUSH1 0x0 DUP1 REVERT INVALID PUSH1 0x80 DUP1 PUSH1 0x40 MSTORE PUSH1 0x4 CALLDATASIZE LT ISZERO PUSH2 0x1D JUMPI JUMPDEST POP CALLDATASIZE ISZERO PUSH2 0x1B JUMPI PUSH1 0x0 DUP1 REVERT JUMPDEST STOP JUMPDEST PUSH1 0x0 CALLDATALOAD PUSH1 0xE0 SHR SWAP1 DUP2 PUSH3 0x97DCC6 EQ PUSH2 0x253F JUMPI POP DUP1 PUSH4 0x293399C EQ PUSH2 0x2412 JUMPI DUP1 PUSH4 0x5EAAB4B EQ PUSH2 0x234F JUMPI DUP1 PUSH4 0x75AA970 EQ PUSH2 0x2214 JUMPI DUP1 PUSH4 0xAB53FA5 EQ PUSH2 0x1C83 JUMPI DUP1 PUSH4 0x113965C4 EQ PUSH2 0x216A JUMPI DUP1 PUSH4 0x117A5B90 EQ PUSH2 0x2077 JUMPI DUP1 PUSH4 0x12E8E2C3 EQ PUSH2 0x2010 JUMPI DUP1 PUSH4 0x16C38B3C EQ PUSH2 0x1FAE JUMPI DUP1 PUSH4 0x19BE5AD0 EQ PUSH2 0x114F JUMPI DUP1 PUSH4 0x21874AE2 EQ PUSH2 0x1F01 JUMPI DUP1 PUSH4 0x26232A2E EQ PUSH2 0x1EE3 JUMPI DUP1 PUSH4 0x340CD9BB EQ PUSH2 0x1EC5 JUMPI DUP1 PUSH4 0x3469336D EQ PUSH2 0x164A JUMPI DUP1 PUSH4 0x34DEE60B EQ PUSH2 0x1EA7 JUMPI DUP1 PUSH4 0x3E0183D1 EQ PUSH2 0x1CE9 JUMPI DUP1 PUSH4 0x3FA27625 EQ PUSH2 0x1CCB JUMPI DUP1 PUSH4 0x41B44189 EQ PUSH2 0x1C83 JUMPI DUP1 PUSH4 0x47406096 EQ PUSH2 0x1B18 JUMPI DUP1 PUSH4 0x476343EE EQ PUSH2 0x1ABC JUMPI DUP1 PUSH4 0x47C9BC2D EQ PUSH2 0x1A9E JUMPI DUP1 PUSH4 0x4E43603A EQ PUSH2 0x19E6 JUMPI DUP1 PUSH4 0x51BCEFA1 EQ PUSH2 0x1999 JUMPI DUP1 PUSH4 0x536A3DDC EQ PUSH2 0x197B JUMPI DUP1 PUSH4 0x587F5ED7 EQ PUSH2 0x191E JUMPI DUP1 PUSH4 0x5B7F415C EQ PUSH2 0x195F JUMPI DUP1 PUSH4 0x5C975ABB EQ PUSH2 0x193C JUMPI DUP1 PUSH4 0x5DF45A37 EQ PUSH2 0x191E JUMPI DUP1 PUSH4 0x60D6A941 EQ PUSH2 0x1900 JUMPI DUP1 PUSH4 0x618C506D EQ PUSH2 0x18C6 JUMPI DUP1 PUSH4 0x64BE7A01 EQ PUSH2 0x18A8 JUMPI DUP1 PUSH4 0x67C15F6A EQ PUSH2 0x188F JUMPI DUP1 PUSH4 0x69F2372D EQ PUSH2 0x17B6 JUMPI DUP1 PUSH4 0x6B21BED6 EQ PUSH2 0x1779 JUMPI DUP1 PUSH4 0x6C188593 EQ PUSH2 0x1706 JUMPI DUP1 PUSH4 0x6C3C1A45 EQ PUSH2 0x16E8 JUMPI DUP1 PUSH4 0x6D763A6E EQ PUSH2 0x1684 JUMPI DUP1 PUSH4 0x6E8BA9F6 EQ PUSH2 0x164A JUMPI DUP1 PUSH4 0x6ED296E4 EQ PUSH2 0x13B9 JUMPI DUP1 PUSH4 0x715018A6 EQ PUSH2 0x136E JUMPI DUP1 PUSH4 0x75C14DD8 EQ PUSH2 0x1350 JUMPI DUP1 PUSH4 0x7B51AC7A EQ PUSH2 0x1332 JUMPI DUP1 PUSH4 0x7E644547 EQ PUSH2 0x12FE JUMPI DUP1 PUSH4 0x8A65D874 EQ PUSH2 0x1299 JUMPI DUP1 PUSH4 0x8CD42991 EQ PUSH2 0x127B JUMPI DUP1 PUSH4 0x8DA5CB5B EQ PUSH2 0x1252 JUMPI DUP1 PUSH4 0x968D901B EQ PUSH2 0x11FD JUMPI DUP1 PUSH4 0x96EE4688 EQ PUSH2 0x11DF JUMPI DUP1 PUSH4 0x9CA423B3 EQ PUSH2 0x117B JUMPI DUP1 PUSH4 0x9DAD1DA5 EQ PUSH2 0x114F JUMPI DUP1 PUSH4 0xA2F77BCC EQ PUSH2 0x103A JUMPI DUP1 PUSH4 0xA5A99693 EQ PUSH2 0x101C JUMPI DUP1 PUSH4 0xA5C44A65 EQ PUSH2 0xF50 JUMPI DUP1 PUSH4 0xAA216845 EQ PUSH2 0xF03 JUMPI DUP1 PUSH4 0xAFC250A7 EQ PUSH2 0xED7 JUMPI DUP1 PUSH4 0xB135BBB0 EQ PUSH2 0xEB9 JUMPI DUP1 PUSH4 0xB7A5A5B6 EQ PUSH2 0xE9D JUMPI DUP1 PUSH4 0xBCBDECB7 EQ PUSH2 0xE13 JUMPI DUP1 PUSH4 0xBF368399 EQ PUSH2 0xDEA JUMPI DUP1 PUSH4 0xC62D359C EQ PUSH2 0x864 JUMPI DUP1 PUSH4 0xC6FD03DF EQ PUSH2 0x846 JUMPI DUP1 PUSH4 0xCE1EA732 EQ PUSH2 0x7FC JUMPI DUP1 PUSH4 0xD07E995B EQ PUSH2 0x78E JUMPI DUP1 PUSH4 0xD73792A9 EQ PUSH2 0x771 JUMPI DUP1 PUSH4 0xD824E03C EQ PUSH2 0x723 JUMPI DUP1 PUSH4 0xDB877142 EQ PUSH2 0x707 JUMPI DUP1 PUSH4 0xE0CA49AE EQ PUSH2 0x69A JUMPI DUP1 PUSH4 0xE87C0EE6 EQ PUSH2 0x659 JUMPI DUP1 PUSH4 0xE978F045 EQ PUSH2 0x5F4 JUMPI DUP1 PUSH4 0xEBF28B51 EQ PUSH2 0x5C8 JUMPI DUP1 PUSH4 0xEC1B3AB5 EQ PUSH2 0x5A2 JUMPI DUP1 PUSH4 0xEC844654 EQ PUSH2 0x562 JUMPI DUP1 PUSH4 0xF18CDB65 EQ PUSH2 0x53F JUMPI DUP1 PUSH4 0xF2FDE38B EQ PUSH2 0x48E JUMPI DUP1 PUSH4 0xF95547FA EQ PUSH2 0x455 JUMPI DUP1 PUSH4 0xFA744DD3 EQ PUSH2 0x39B JUMPI PUSH4 0xFA968EEA EQ PUSH2 0x378 JUMPI CODESIZE PUSH2 0xF JUMP JUMPDEST CALLVALUE PUSH2 0x396 JUMPI PUSH1 0x0 CALLDATASIZE PUSH1 0x3 NOT ADD SLT PUSH2 0x396 JUMPI PUSH1 0x20 PUSH1 0x7 SLOAD PUSH1 0x40 MLOAD SWAP1 DUP2 MSTORE RETURN JUMPDEST PUSH1 0x0 DUP1 REVERT JUMPDEST CALLVALUE PUSH2 0x396 JUMPI PUSH1 0x40 CALLDATASIZE PUSH1 0x3 NOT ADD SLT PUSH2 0x396 JUMPI PUSH1 0xC0 PUSH1 0x4 CALLDATALOAD PUSH2 0x453 PUSH2 0x3BC PUSH2 0x25CB JUMP JUMPDEST PUSH1 0x40 MLOAD SWAP1 PUSH2 0x3C9 DUP3 PUSH2 0x2881 JUMP JUMPDEST PUSH2 0x3D1 PUSH2 0x384A JUMP JUMPDEST DUP3 MSTORE PUSH2 0x3DB PUSH2 0x384A JUMP JUMPDEST PUSH1 0x20 SWAP3 DUP4 ADD MSTORE PUSH1 0x0 SWAP4 DUP5 MSTORE PUSH1 0x18 DUP3 MSTORE PUSH1 0x40 DUP1 DUP6 KECCAK256 PUSH1 0x1 PUSH1 0x1 PUSH1 0xA0 SHL SUB SWAP3 SWAP1 SWAP3 AND DUP6 MSTORE SWAP1 DUP3 MSTORE DUP1 DUP5 KECCAK256 DUP5 DUP1 MSTORE DUP3 MSTORE DUP1 DUP5 KECCAK256 PUSH1 0x1 DUP6 MSTORE SWAP4 DUP2 SWAP1 KECCAK256 SWAP1 MLOAD SWAP4 PUSH2 0x434 SWAP2 SWAP1 PUSH2 0x42D SWAP1 PUSH2 0x428 DUP8 PUSH2 0x2881 JUMP JUMPDEST PUSH2 0x3869 JUMP JUMPDEST DUP6 MSTORE PUSH2 0x3869 JUMP JUMPDEST SWAP1 DUP4 ADD SWAP1 DUP2 MSTORE PUSH2 0x448 PUSH1 0x40 MLOAD DUP1 SWAP5 MLOAD PUSH2 0x27B3 JUMP JUMPDEST MLOAD PUSH1 0x60 DUP4 ADD SWAP1 PUSH2 0x27B3 JUMP JUMPDEST RETURN JUMPDEST CALLVALUE PUSH2 0x396 JUMPI PUSH1 0x20 CALLDATASIZE PUSH1 0x3 NOT ADD SLT PUSH2 0x396 JUMPI PUSH1 0x4 CALLDATALOAD PUSH1 0x0 MSTORE PUSH1 0xA PUSH1 0x20 MSTORE PUSH1 0x40 DUP1 PUSH1 0x0 KECCAK256 SLOAD PUSH1 0xB PUSH1 0x20 MSTORE DUP2 PUSH1 0x0 KECCAK256 SLOAD DUP3 MLOAD SWAP2 DUP3 MSTORE PUSH1 0x20 DUP3 ADD MSTORE RETURN JUMPDEST CALLVALUE PUSH2 0x396 JUMPI PUSH1 0x20 CALLDATASIZE PUSH1 0x3 NOT ADD SLT PUSH2 0x396 JUMPI PUSH2 0x4A7 PUSH2 0x25E1 JUMP JUMPDEST PUSH2 0x4AF PUSH2 0x27D7 JUMP JUMPDEST PUSH1 0x1 PUSH1 0x1 PUSH1 0xA0 SHL SUB SWAP1 DUP2 AND SWAP1 DUP2 ISZERO PUSH2 0x4EB JUMPI PUSH1 0x1 DUP1 SLOAD PUSH1 0x1 PUSH1 0x1 PUSH1 0xA0 SHL SUB NOT DUP2 AND DUP5 OR SWAP1 SWAP2 SSTORE AND PUSH1 0x0 DUP1 MLOAD PUSH1 0x20 PUSH2 0x3C1C DUP4 CODECOPY DUP2 MLOAD SWAP2 MSTORE PUSH1 0x0 DUP1 LOG3 STOP JUMPDEST PUSH1 0x40 MLOAD PUSH3 0x461BCD PUSH1 0xE5 SHL DUP2 MSTORE PUSH1 0x20 PUSH1 0x4 DUP3 ADD MSTORE PUSH1 0x26 PUSH1 0x24 DUP3 ADD MSTORE PUSH32 0x4F776E61626C653A206E6577206F776E657220697320746865207A65726F2061 PUSH1 0x44 DUP3 ADD MSTORE PUSH6 0x646472657373 PUSH1 0xD0 SHL PUSH1 0x64 DUP3 ADD MSTORE PUSH1 0x84 SWAP1 REVERT JUMPDEST CALLVALUE PUSH2 0x396 JUMPI PUSH1 0x20 PUSH2 0x558 PUSH2 0x552 CALLDATASIZE PUSH2 0x265E JUMP JUMPDEST SWAP1 PUSH2 0x3B59 JUMP JUMPDEST PUSH1 0x40 MLOAD SWAP1 ISZERO ISZERO DUP2 MSTORE RETURN JUMPDEST CALLVALUE PUSH2 0x396 JUMPI PUSH1 0x80 CALLDATASIZE PUSH1 0x3 NOT ADD SLT PUSH2 0x396 JUMPI PUSH2 0x57B PUSH2 0x25CB JUMP JUMPDEST PUSH1 0x44 CALLDATALOAD PUSH1 0x2 DUP2 LT ISZERO PUSH2 0x396 JUMPI PUSH1 0x20 SWAP2 PUSH2 0x59A SWAP2 PUSH1 0x64 CALLDATALOAD SWAP2 PUSH1 0x4 CALLDATALOAD PUSH2 0x38FC JUMP JUMPDEST PUSH1 0x40 MLOAD SWAP1 DUP2 MSTORE RETURN JUMPDEST CALLVALUE PUSH2 0x396 JUMPI PUSH2 0x5C1 PUSH2 0x5B3 CALLDATASIZE PUSH2 0x265E JUMP JUMPDEST SWAP1 PUSH2 0x5BC PUSH2 0x295C JUMP JUMPDEST PUSH2 0x31ED JUMP JUMPDEST PUSH1 0x1 PUSH1 0x0 SSTORE STOP JUMPDEST CALLVALUE PUSH2 0x396 JUMPI PUSH1 0x20 CALLDATASIZE PUSH1 0x3 NOT ADD SLT PUSH2 0x396 JUMPI PUSH1 0x4 CALLDATALOAD PUSH1 0x0 MSTORE PUSH1 0xB PUSH1 0x20 MSTORE PUSH1 0x20 PUSH1 0x40 PUSH1 0x0 KECCAK256 SLOAD PUSH1 0x40 MLOAD SWAP1 DUP2 MSTORE RETURN JUMPDEST CALLVALUE PUSH2 0x396 JUMPI PUSH2 0x602 CALLDATASIZE PUSH2 0x2780 JUMP JUMPDEST SWAP2 PUSH2 0x60B PUSH2 0x384A JUMP JUMPDEST POP PUSH1 0x0 MSTORE PUSH1 0x18 PUSH1 0x20 MSTORE PUSH1 0x40 PUSH1 0x0 KECCAK256 SWAP1 PUSH1 0x1 DUP1 PUSH1 0xA0 SHL SUB AND PUSH1 0x0 MSTORE PUSH1 0x20 MSTORE PUSH1 0x40 PUSH1 0x0 KECCAK256 SWAP1 PUSH2 0x637 DUP2 PUSH2 0x261A JUMP JUMPDEST PUSH1 0x0 MSTORE PUSH1 0x20 MSTORE PUSH1 0x60 PUSH2 0x64C PUSH1 0x40 PUSH1 0x0 KECCAK256 PUSH2 0x3869 JUMP JUMPDEST PUSH2 0x453 PUSH1 0x40 MLOAD DUP1 SWAP3 PUSH2 0x27B3 JUMP JUMPDEST CALLVALUE PUSH2 0x396 JUMPI PUSH1 0x0 CALLDATASIZE PUSH1 0x3 NOT ADD SLT PUSH2 0x396 JUMPI PUSH1 0x2 SLOAD PUSH1 0x0 NOT DUP2 ADD SWAP1 DUP2 GT PUSH2 0x684 JUMPI PUSH1 0x20 SWAP1 PUSH1 0x40 MLOAD SWAP1 DUP2 MSTORE RETURN JUMPDEST PUSH4 0x4E487B71 PUSH1 0xE0 SHL PUSH1 0x0 MSTORE PUSH1 0x11 PUSH1 0x4 MSTORE PUSH1 0x24 PUSH1 0x0 REVERT JUMPDEST CALLVALUE PUSH2 0x396 JUMPI PUSH1 0x60 PUSH2 0x6AA CALLDATASIZE PUSH2 0x2780 JUMP JUMPDEST SWAP1 SWAP2 PUSH1 0x0 MSTORE PUSH1 0x18 PUSH1 0x20 MSTORE PUSH1 0x40 PUSH1 0x0 KECCAK256 PUSH1 0x1 DUP1 PUSH1 0xA0 SHL SUB DUP1 SWAP4 AND PUSH1 0x0 MSTORE PUSH1 0x20 MSTORE PUSH1 0x40 PUSH1 0x0 KECCAK256 SWAP1 PUSH2 0x6D8 DUP2 PUSH2 0x261A JUMP JUMPDEST PUSH1 0x0 MSTORE PUSH1 0x20 MSTORE PUSH1 0x40 PUSH1 0x0 KECCAK256 SWAP1 PUSH1 0x1 DUP3 SLOAD SWAP3 ADD SLOAD PUSH1 0x40 MLOAD SWAP3 DUP4 MSTORE PUSH1 0xFF DUP2 AND ISZERO ISZERO PUSH1 0x20 DUP5 ADD MSTORE PUSH1 0x8 SHR AND PUSH1 0x40 DUP3 ADD MSTORE RETURN JUMPDEST CALLVALUE PUSH2 0x396 JUMPI PUSH1 0x0 CALLDATASIZE PUSH1 0x3 NOT ADD SLT PUSH2 0x396 JUMPI PUSH1 0x20 PUSH1 0x40 MLOAD PUSH1 0x64 DUP2 MSTORE RETURN JUMPDEST CALLVALUE PUSH2 0x396 JUMPI PUSH1 0x20 CALLDATASIZE PUSH1 0x3 NOT ADD SLT PUSH2 0x396 JUMPI PUSH1 0x4 CALLDATALOAD PUSH2 0x73F PUSH2 0x27D7 JUMP JUMPDEST PUSH2 0x12C DUP2 LT DUP1 ISZERO PUSH2 0x766 JUMPI JUMPDEST PUSH2 0x754 JUMPI PUSH1 0xE SSTORE STOP JUMPDEST PUSH1 0x40 MLOAD PUSH4 0xA68A0ED PUSH1 0xE0 SHL DUP2 MSTORE PUSH1 0x4 SWAP1 REVERT JUMPDEST POP PUSH2 0xE10 DUP2 GT PUSH2 0x74B JUMP JUMPDEST CALLVALUE PUSH2 0x396 JUMPI PUSH1 0x0 CALLDATASIZE PUSH1 0x3 NOT ADD SLT PUSH2 0x396 JUMPI PUSH1 0x20 PUSH1 0x40 MLOAD PUSH2 0x2710 DUP2 MSTORE RETURN JUMPDEST CALLVALUE PUSH2 0x396 JUMPI PUSH1 0x20 CALLDATASIZE PUSH1 0x3 NOT ADD SLT PUSH2 0x396 JUMPI PUSH1 0x4 CALLDATALOAD PUSH2 0x7AA PUSH2 0x27D7 JUMP JUMPDEST PUSH2 0x1388 DUP2 GT PUSH2 0x7B8 JUMPI PUSH1 0x4 SSTORE STOP JUMPDEST PUSH1 0x64 PUSH1 0x40 MLOAD PUSH3 0x461BCD PUSH1 0xE5 SHL DUP2 MSTORE PUSH1 0x20 PUSH1 0x4 DUP3 ADD MSTORE PUSH1 0x20 PUSH1 0x24 DUP3 ADD MSTORE PUSH32 0x526566657272616C2073686172652063616E6E6F742065786365656420353025 PUSH1 0x44 DUP3 ADD MSTORE REVERT JUMPDEST CALLVALUE PUSH2 0x396 JUMPI PUSH2 0x80A CALLDATASIZE PUSH2 0x25F7 JUMP JUMPDEST SWAP1 PUSH1 0x0 MSTORE PUSH1 0x19 PUSH1 0x20 MSTORE PUSH1 0x40 PUSH1 0x0 KECCAK256 DUP1 SLOAD DUP3 LT ISZERO PUSH2 0x396 JUMPI PUSH1 0x20 SWAP2 PUSH2 0x82D SWAP2 PUSH2 0x2768 JUMP JUMPDEST SWAP1 SLOAD PUSH1 0x40 MLOAD PUSH1 0x3 SWAP3 SWAP1 SWAP3 SHL SHR PUSH1 0x1 PUSH1 0x1 PUSH1 0xA0 SHL SUB AND DUP2 MSTORE RETURN JUMPDEST CALLVALUE PUSH2 0x396 JUMPI PUSH1 0x0 CALLDATASIZE PUSH1 0x3 NOT ADD SLT PUSH2 0x396 JUMPI PUSH1 0x20 PUSH1 0x14 SLOAD PUSH1 0x40 MLOAD SWAP1 DUP2 MSTORE RETURN JUMPDEST PUSH1 0x60 CALLDATASIZE PUSH1 0x3 NOT ADD SLT PUSH2 0x396 JUMPI PUSH1 0x24 CALLDATALOAD PUSH1 0x4 CALLDATALOAD PUSH1 0x2 DUP3 LT ISZERO PUSH2 0x396 JUMPI PUSH1 0x44 CALLDATALOAD PUSH1 0x1 PUSH1 0x1 PUSH1 0x40 SHL SUB DUP2 GT PUSH2 0x396 JUMPI PUSH2 0x89E SWAP1 CALLDATASIZE SWAP1 PUSH1 0x4 ADD PUSH2 0x2631 JUMP JUMPDEST PUSH2 0x8A6 PUSH2 0x295C JUMP JUMPDEST DUP3 ISZERO DUP1 ISZERO PUSH2 0xDDE JUMPI JUMPDEST PUSH2 0xDCC JUMPI CALLVALUE ISZERO PUSH2 0xDBA JUMPI PUSH1 0x7 SLOAD CALLVALUE LT PUSH2 0xDA8 JUMPI DUP3 PUSH1 0x0 MSTORE PUSH1 0x20 SWAP1 PUSH1 0x17 DUP3 MSTORE PUSH1 0x40 PUSH1 0x0 KECCAK256 SWAP1 PUSH1 0xFF PUSH1 0x1 DUP4 ADD SLOAD PUSH1 0x10 SHR AND PUSH1 0x5 DUP2 LT ISZERO PUSH2 0xD92 JUMPI PUSH1 0x1 SUB PUSH2 0xD80 JUMPI PUSH1 0x7 DUP3 ADD SLOAD TIMESTAMP LT ISZERO PUSH2 0xD6E JUMPI DUP5 PUSH1 0x0 MSTORE PUSH1 0x18 DUP4 MSTORE PUSH1 0x40 PUSH1 0x0 KECCAK256 CALLER PUSH1 0x0 MSTORE DUP4 MSTORE PUSH1 0x40 PUSH1 0x0 KECCAK256 PUSH2 0x91B DUP8 PUSH2 0x261A JUMP JUMPDEST DUP7 PUSH1 0x0 MSTORE DUP4 MSTORE PUSH1 0x40 PUSH1 0x0 KECCAK256 PUSH1 0x3 SLOAD SWAP2 PUSH1 0x2 DUP5 ADD SWAP4 DUP5 SLOAD SWAP2 PUSH1 0x3 DUP3 ADD SWAP5 DUP6 SLOAD PUSH2 0x943 DUP2 DUP7 PUSH2 0x29B2 JUMP JUMPDEST PUSH2 0xCF1 JUMPI JUMPDEST POP PUSH2 0x95A SWAP4 POP PUSH2 0x2710 SWAP4 DUP5 SWAP2 CALLVALUE PUSH2 0x29FE JUMP JUMPDEST DIV PUSH2 0x965 DUP2 CALLVALUE PUSH2 0x2A31 JUMP JUMPDEST SWAP4 DUP11 PUSH1 0x1 DUP8 ADD SWAP4 PUSH1 0x1 DUP1 PUSH1 0xA0 SHL SUB SWAP12 DUP13 DUP7 SLOAD PUSH1 0x8 SHR AND DUP3 ISZERO ISZERO DUP1 PUSH2 0xCE9 JUMPI JUMPDEST ISZERO PUSH2 0xC54 JUMPI POP SWAP4 DUP13 SWAP8 SWAP7 SWAP4 PUSH2 0xA42 SWAP7 SWAP4 PUSH2 0x9A1 DUP15 SWAP5 PUSH1 0xA SWAP9 PUSH2 0x28DA JUMP JUMPDEST SWAP15 DUP16 AND SWAP2 DUP3 ISZERO ISZERO DUP1 PUSH2 0xC4A JUMPI JUMPDEST PUSH2 0xBB4 JUMPI JUMPDEST POP POP POP SWAP1 POP JUMPDEST DUP13 PUSH1 0x0 MSTORE DUP4 DUP12 MSTORE PUSH2 0x9D0 PUSH1 0x40 PUSH1 0x0 KECCAK256 SWAP2 DUP3 SLOAD PUSH2 0x29B2 JUMP JUMPDEST SWAP1 SSTORE DUP12 PUSH1 0x0 MSTORE PUSH1 0x1A DUP11 MSTORE PUSH1 0x40 PUSH1 0x0 KECCAK256 PUSH2 0x9EA DUP7 DUP3 SLOAD PUSH2 0x29B2 JUMP JUMPDEST SWAP1 SSTORE DUP7 SLOAD SWAP7 PUSH2 0x9FC DUP9 ISZERO SWAP9 CALLVALUE SWAP1 PUSH2 0x29B2 JUMP JUMPDEST SWAP1 SSTORE DUP1 SLOAD PUSH1 0xFF NOT DUP1 DUP3 AND DUP4 SSTORE SWAP7 DUP13 AND SWAP12 DUP13 PUSH2 0xB8D JUMPI JUMPDEST POP POP POP PUSH2 0xA1E DUP13 PUSH2 0x261A JUMP JUMPDEST DUP12 ISZERO SWAP6 DUP7 ISZERO PUSH2 0xB6D JUMPI PUSH2 0xA32 CALLVALUE DUP11 SLOAD PUSH2 0x29B2 JUMP JUMPDEST DUP10 SSTORE PUSH2 0xB58 JUMPI JUMPDEST ADD SWAP2 DUP3 SLOAD PUSH2 0x29B2 JUMP JUMPDEST SWAP1 SSTORE DUP7 PUSH1 0x0 MSTORE PUSH1 0x1B DUP6 MSTORE PUSH1 0x40 PUSH1 0x0 KECCAK256 CALLER PUSH1 0x0 MSTORE DUP6 MSTORE PUSH1 0xFF PUSH1 0x40 PUSH1 0x0 KECCAK256 SLOAD AND ISZERO PUSH2 0xAE5 JUMPI JUMPDEST POP CALLER PUSH1 0x0 MSTORE DUP4 DUP1 MSTORE PUSH1 0x40 PUSH1 0x0 KECCAK256 PUSH2 0xA7D DUP2 SLOAD PUSH2 0x29BF JUMP JUMPDEST SWAP1 SSTORE PUSH2 0xA88 DUP8 PUSH2 0x261A JUMP JUMPDEST ISZERO PUSH2 0xADC JUMPI POP SLOAD SWAP1 JUMPDEST PUSH1 0x40 MLOAD SWAP5 PUSH2 0xA9E DUP2 PUSH2 0x261A JUMP JUMPDEST DUP6 MSTORE CALLVALUE SWAP1 DUP6 ADD MSTORE PUSH1 0x40 DUP5 ADD MSTORE PUSH1 0x60 DUP4 ADD MSTORE PUSH32 0x6C8573037A11BFAD9B3A07AFCFDD9A9790C4748EA22C9348A596F466194D59B0 PUSH1 0x80 CALLER SWAP4 LOG3 PUSH1 0x1 PUSH1 0x0 SSTORE STOP JUMPDEST SWAP1 POP SLOAD SWAP1 PUSH2 0xA91 JUMP JUMPDEST DUP7 PUSH1 0x0 MSTORE PUSH1 0x1B DUP6 MSTORE PUSH1 0x40 PUSH1 0x0 KECCAK256 CALLER PUSH1 0x0 MSTORE DUP6 MSTORE PUSH1 0x1 PUSH1 0x40 PUSH1 0x0 KECCAK256 SWAP2 DUP3 SLOAD AND OR SWAP1 SSTORE DUP6 PUSH1 0x0 MSTORE PUSH1 0x19 DUP5 MSTORE PUSH1 0x40 PUSH1 0x0 KECCAK256 DUP1 SLOAD SWAP1 PUSH1 0x1 PUSH1 0x40 SHL DUP3 LT ISZERO PUSH2 0xB42 JUMPI DUP2 PUSH2 0xB35 SWAP2 PUSH1 0x1 PUSH2 0xB3C SWAP5 ADD DUP2 SSTORE PUSH2 0x2768 JUMP JUMPDEST CALLER SWAP2 PUSH2 0x2A3E JUMP JUMPDEST DUP8 PUSH2 0xA66 JUMP JUMPDEST PUSH4 0x4E487B71 PUSH1 0xE0 SHL PUSH1 0x0 MSTORE PUSH1 0x41 PUSH1 0x4 MSTORE PUSH1 0x24 PUSH1 0x0 REVERT JUMPDEST PUSH1 0x4 DUP2 ADD PUSH2 0xB66 DUP2 SLOAD PUSH2 0x29BF JUMP JUMPDEST SWAP1 SSTORE PUSH2 0xA39 JUMP JUMPDEST PUSH2 0xB78 CALLVALUE DUP10 SLOAD PUSH2 0x29B2 JUMP JUMPDEST DUP9 SSTORE ISZERO PUSH2 0xA39 JUMPI PUSH1 0x5 DUP2 ADD PUSH2 0xB66 DUP2 SLOAD PUSH2 0x29BF JUMP JUMPDEST PUSH1 0x1 PUSH1 0x1 PUSH1 0xA8 SHL SUB NOT SWAP1 SWAP2 AND PUSH1 0x8 SWAP2 SWAP1 SWAP2 SHL PUSH2 0x100 PUSH1 0x1 PUSH1 0xA8 SHL SUB AND OR SWAP1 SSTORE DUP13 DUP1 DUP1 PUSH2 0xA12 JUMP JUMPDEST PUSH2 0xBCE PUSH1 0xC SWAP2 PUSH2 0xBC6 PUSH1 0x4 SLOAD DUP8 PUSH2 0x29FE JUMP JUMPDEST DIV DUP1 SWAP6 PUSH2 0x2A31 JUMP JUMPDEST SWAP5 DUP3 PUSH1 0x0 MSTORE MSTORE DUP14 PUSH1 0x40 PUSH1 0x0 KECCAK256 SWAP1 DUP4 PUSH1 0x0 MSTORE MSTORE PUSH1 0x40 PUSH1 0x0 KECCAK256 PUSH2 0xBF0 DUP5 DUP3 SLOAD PUSH2 0x29B2 JUMP JUMPDEST SWAP1 SSTORE PUSH1 0x0 MSTORE PUSH1 0xB DUP14 MSTORE PUSH1 0x40 PUSH1 0x0 KECCAK256 PUSH2 0xC09 DUP4 DUP3 SLOAD PUSH2 0x29B2 JUMP JUMPDEST SWAP1 SSTORE DUP1 PUSH1 0x0 MSTORE PUSH1 0x1C DUP14 MSTORE PUSH1 0x1 PUSH1 0x40 PUSH1 0x0 KECCAK256 ADD PUSH2 0xC25 DUP2 SLOAD PUSH2 0x29BF JUMP JUMPDEST SWAP1 SSTORE PUSH1 0x40 MLOAD SWAP2 DUP3 MSTORE PUSH1 0x0 DUP1 MLOAD PUSH1 0x20 PUSH2 0x3BFC DUP4 CODECOPY DUP2 MLOAD SWAP2 MSTORE DUP14 CALLER SWAP4 LOG3 DUP11 SWAP1 DUP16 DUP15 DUP2 PUSH2 0x9B3 JUMP JUMPDEST POP CALLER DUP4 EQ ISZERO PUSH2 0x9AE JUMP JUMPDEST PUSH2 0xA42 SWAP7 SWAP4 POP PUSH1 0xA SWAP6 SWAP3 POP DUP1 SWAP14 SWAP9 SWAP8 SWAP5 SWAP2 POP PUSH2 0xC71 JUMPI JUMPDEST POP PUSH2 0x9B9 JUMP JUMPDEST PUSH2 0xC89 SWAP1 PUSH2 0xC81 PUSH1 0x4 SLOAD DUP5 PUSH2 0x29FE JUMP JUMPDEST DIV DUP1 SWAP3 PUSH2 0x2A31 JUMP JUMPDEST SWAP1 DUP14 PUSH1 0x0 MSTORE PUSH1 0xC DUP13 MSTORE PUSH1 0x40 PUSH1 0x0 KECCAK256 DUP14 PUSH1 0x0 MSTORE DUP13 MSTORE PUSH1 0x40 PUSH1 0x0 KECCAK256 PUSH2 0xCAD DUP3 DUP3 SLOAD PUSH2 0x29B2 JUMP JUMPDEST SWAP1 SSTORE DUP14 PUSH1 0x0 MSTORE PUSH1 0xB DUP13 MSTORE PUSH1 0x40 PUSH1 0x0 KECCAK256 PUSH2 0xCC7 DUP3 DUP3 SLOAD PUSH2 0x29B2 JUMP JUMPDEST SWAP1 SSTORE PUSH1 0x40 MLOAD SWAP1 DUP2 MSTORE DUP13 PUSH1 0x0 DUP1 MLOAD PUSH1 0x20 PUSH2 0x3BFC DUP4 CODECOPY DUP2 MLOAD SWAP2 MSTORE DUP14 CALLER SWAP4 LOG3 DUP15 PUSH2 0xC6B JUMP JUMPDEST POP DUP1 ISZERO PUSH2 0x984 JUMP JUMPDEST PUSH2 0xD09 SWAP1 PUSH2 0xCFE DUP14 PUSH2 0x261A JUMP JUMPDEST DUP13 PUSH2 0xD67 JUMPI DUP6 PUSH2 0x29B2 JUMP JUMPDEST SWAP4 PUSH2 0x2710 SWAP5 DUP6 DUP3 MUL SWAP2 DUP1 DUP4 DIV DUP8 EQ SWAP1 ISZERO OR ISZERO PUSH2 0x684 JUMPI PUSH2 0xD28 SWAP2 PUSH2 0x2A11 JUMP JUMPDEST SWAP4 PUSH1 0x6 SLOAD DUP2 SUB SWAP1 DUP2 GT PUSH2 0x684 JUMPI PUSH2 0x95A SWAP5 LT PUSH2 0xD45 JUMPI JUMPDEST DUP12 PUSH2 0x948 JUMP JUMPDEST PUSH1 0x5 SLOAD DUP1 DUP3 GT ISZERO PUSH2 0xD5E JUMPI PUSH2 0xD59 SWAP2 PUSH2 0x2A31 JUMP JUMPDEST PUSH2 0xD3F JUMP JUMPDEST POP POP PUSH1 0x0 PUSH2 0xD3F JUMP JUMPDEST DUP1 SWAP6 PUSH2 0x29B2 JUMP JUMPDEST PUSH1 0x40 MLOAD PUSH4 0x56C79831 PUSH1 0xE0 SHL DUP2 MSTORE PUSH1 0x4 SWAP1 REVERT JUMPDEST PUSH1 0x40 MLOAD PUSH4 0x976A06EB PUSH1 0xE0 SHL DUP2 MSTORE PUSH1 0x4 SWAP1 REVERT JUMPDEST PUSH4 0x4E487B71 PUSH1 0xE0 SHL PUSH1 0x0 MSTORE PUSH1 0x21 PUSH1 0x4 MSTORE PUSH1 0x24 PUSH1 0x0 REVERT JUMPDEST PUSH1 0x40 MLOAD PUSH4 0x1A6254D1 PUSH1 0xE3 SHL DUP2 MSTORE PUSH1 0x4 SWAP1 REVERT JUMPDEST PUSH1 0x40 MLOAD PUSH4 0x9DE3D441 PUSH1 0xE0 SHL DUP2 MSTORE PUSH1 0x4 SWAP1 REVERT JUMPDEST PUSH1 0x40 MLOAD PUSH4 0x9B3C627 PUSH1 0xE2 SHL DUP2 MSTORE PUSH1 0x4 SWAP1 REVERT JUMPDEST POP PUSH1 0x2 SLOAD DUP4 LT ISZERO PUSH2 0x8AF JUMP JUMPDEST CALLVALUE PUSH2 0x396 JUMPI PUSH1 0x20 CALLDATASIZE PUSH1 0x3 NOT ADD SLT PUSH2 0x396 JUMPI PUSH1 0x4 CALLDATALOAD PUSH1 0x21 SLOAD DUP2 LT ISZERO PUSH2 0x396 JUMPI PUSH2 0x82D PUSH1 0x20 SWAP2 PUSH2 0x2737 JUMP JUMPDEST CALLVALUE PUSH2 0x396 JUMPI PUSH1 0x20 DUP1 PUSH1 0x3 NOT CALLDATASIZE ADD SLT PUSH2 0x396 JUMPI PUSH1 0x4 CALLDATALOAD PUSH1 0x0 MSTORE PUSH1 0x19 DUP2 MSTORE PUSH1 0x40 PUSH1 0x0 KECCAK256 SWAP1 PUSH1 0x40 MLOAD DUP1 DUP4 DUP4 DUP3 SWAP6 SLOAD SWAP4 DUP5 DUP2 MSTORE ADD SWAP1 PUSH1 0x0 MSTORE DUP4 PUSH1 0x0 KECCAK256 SWAP3 PUSH1 0x0 JUMPDEST DUP6 DUP3 DUP3 LT PUSH2 0xE7E JUMPI POP POP POP PUSH2 0xE66 SWAP3 POP SUB DUP4 PUSH2 0x28B7 JUMP JUMPDEST PUSH2 0xE7A PUSH1 0x40 MLOAD SWAP3 DUP3 DUP5 SWAP4 DUP5 MSTORE DUP4 ADD SWAP1 PUSH2 0x255A JUMP JUMPDEST SUB SWAP1 RETURN JUMPDEST DUP6 SLOAD PUSH1 0x1 PUSH1 0x1 PUSH1 0xA0 SHL SUB AND DUP5 MSTORE PUSH1 0x1 SWAP6 DUP7 ADD SWAP6 DUP9 SWAP6 POP SWAP4 ADD SWAP3 ADD PUSH2 0xE4F JUMP JUMPDEST CALLVALUE PUSH2 0x396 JUMPI PUSH1 0x20 CALLDATASIZE PUSH1 0x3 NOT ADD SLT PUSH2 0x396 JUMPI PUSH2 0x1B PUSH1 0x4 CALLDATALOAD PUSH2 0x2A5C JUMP JUMPDEST CALLVALUE PUSH2 0x396 JUMPI PUSH1 0x0 CALLDATASIZE PUSH1 0x3 NOT ADD SLT PUSH2 0x396 JUMPI PUSH1 0x20 PUSH1 0x2 SLOAD PUSH1 0x40 MLOAD SWAP1 DUP2 MSTORE RETURN JUMPDEST CALLVALUE PUSH2 0x396 JUMPI PUSH1 0x20 CALLDATASIZE PUSH1 0x3 NOT ADD SLT PUSH2 0x396 JUMPI PUSH1 0x4 CALLDATALOAD PUSH1 0x0 MSTORE PUSH1 0xA PUSH1 0x20 MSTORE PUSH1 0x20 PUSH1 0x40 PUSH1 0x0 KECCAK256 SLOAD PUSH1 0x40 MLOAD SWAP1 DUP2 MSTORE RETURN JUMPDEST CALLVALUE PUSH2 0x396 JUMPI PUSH1 0x20 CALLDATASIZE PUSH1 0x3 NOT ADD SLT PUSH2 0x396 JUMPI PUSH1 0x4 CALLDATALOAD PUSH1 0x1 PUSH1 0x1 PUSH1 0x40 SHL SUB DUP2 GT PUSH2 0x396 JUMPI PUSH2 0xF3E PUSH2 0xF38 PUSH1 0x20 SWAP3 CALLDATASIZE SWAP1 PUSH1 0x4 ADD PUSH2 0x2631 JUMP JUMPDEST SWAP1 PUSH2 0x28DA JUMP JUMPDEST PUSH1 0x40 MLOAD PUSH1 0x1 PUSH1 0x1 PUSH1 0xA0 SHL SUB SWAP1 SWAP2 AND DUP2 MSTORE RETURN JUMPDEST CALLVALUE PUSH2 0x396 JUMPI PUSH1 0x20 DUP1 PUSH1 0x3 NOT CALLDATASIZE ADD SLT PUSH2 0x396 JUMPI PUSH1 0x4 CALLDATALOAD SWAP1 PUSH2 0xF6E PUSH2 0x295C JUMP JUMPDEST DUP2 PUSH1 0x0 MSTORE PUSH1 0x18 DUP2 MSTORE PUSH1 0x40 PUSH1 0x0 KECCAK256 CALLER PUSH1 0x0 MSTORE DUP2 MSTORE PUSH1 0x40 PUSH1 0x0 KECCAK256 PUSH1 0x0 DUP1 MSTORE DUP2 MSTORE PUSH1 0x40 PUSH1 0x0 KECCAK256 SWAP1 DUP3 PUSH1 0x0 MSTORE PUSH1 0x18 DUP2 MSTORE PUSH1 0x40 PUSH1 0x0 KECCAK256 CALLER PUSH1 0x0 MSTORE DUP2 MSTORE PUSH1 0x40 PUSH1 0x0 KECCAK256 SWAP1 PUSH1 0x1 PUSH1 0x0 MSTORE MSTORE PUSH1 0x40 PUSH1 0x0 KECCAK256 SWAP1 DUP1 SLOAD ISZERO ISZERO SWAP1 DUP2 PUSH2 0x100C JUMPI JUMPDEST POP PUSH2 0xFFE JUMPI JUMPDEST DUP1 SLOAD ISZERO ISZERO SWAP1 DUP2 PUSH2 0xFEE JUMPI JUMPDEST POP PUSH2 0xFDF JUMPI PUSH1 0x1 PUSH1 0x0 SSTORE STOP JUMPDEST PUSH2 0xFE8 SWAP1 PUSH2 0x2FE0 JUMP JUMPDEST DUP1 PUSH2 0x5C1 JUMP JUMPDEST PUSH1 0xFF SWAP2 POP PUSH1 0x1 ADD SLOAD AND ISZERO DUP3 PUSH2 0xFD3 JUMP JUMPDEST PUSH2 0x1007 DUP3 PUSH2 0x2D35 JUMP JUMPDEST PUSH2 0xFC8 JUMP JUMPDEST PUSH1 0xFF SWAP2 POP PUSH1 0x1 ADD SLOAD AND ISZERO DUP4 PUSH2 0xFC2 JUMP JUMPDEST CALLVALUE PUSH2 0x396 JUMPI PUSH1 0x0 CALLDATASIZE PUSH1 0x3 NOT ADD SLT PUSH2 0x396 JUMPI PUSH1 0x20 PUSH1 0xE SLOAD PUSH1 0x40 MLOAD SWAP1 DUP2 MSTORE RETURN JUMPDEST CALLVALUE PUSH2 0x396 JUMPI PUSH1 0x20 CALLDATASIZE PUSH1 0x3 NOT ADD SLT PUSH2 0x396 JUMPI PUSH1 0x4 CALLDATALOAD PUSH2 0x1056 PUSH2 0x37E2 JUMP JUMPDEST POP DUP1 ISZERO DUP1 ISZERO PUSH2 0x1143 JUMPI JUMPDEST PUSH2 0xDCC JUMPI PUSH1 0x0 MSTORE PUSH1 0x17 PUSH1 0x20 MSTORE PUSH2 0xE7A PUSH1 0x40 PUSH1 0x0 KECCAK256 PUSH1 0xFF PUSH1 0xB PUSH1 0x40 MLOAD SWAP3 PUSH2 0x1085 DUP5 PUSH2 0x2865 JUMP JUMPDEST DUP1 SLOAD DUP5 MSTORE PUSH2 0x10C2 DUP4 PUSH1 0x1 DUP4 ADD SLOAD PUSH2 0x10A1 DUP3 DUP3 AND PUSH1 0x20 DUP10 ADD PUSH2 0x29CE JUMP JUMPDEST DUP2 DUP2 PUSH1 0x8 SHR AND PUSH2 0x10B0 DUP2 PUSH2 0x261A JUMP JUMPDEST PUSH1 0x40 DUP9 ADD MSTORE PUSH1 0x10 SHR AND PUSH1 0x60 DUP7 ADD PUSH2 0x29DA JUMP JUMPDEST PUSH1 0x2 DUP2 ADD SLOAD PUSH1 0x80 DUP6 ADD MSTORE PUSH1 0x3 DUP2 ADD SLOAD PUSH1 0xA0 DUP6 ADD MSTORE PUSH1 0x4 DUP2 ADD SLOAD PUSH1 0xC0 DUP6 ADD MSTORE PUSH1 0x5 DUP2 ADD SLOAD PUSH1 0xE0 DUP6 ADD MSTORE PUSH1 0x6 DUP2 ADD SLOAD PUSH2 0x100 DUP6 ADD MSTORE PUSH1 0x7 DUP2 ADD SLOAD PUSH2 0x120 DUP6 ADD MSTORE PUSH1 0x8 DUP2 ADD SLOAD PUSH2 0x140 DUP6 ADD MSTORE DUP3 PUSH1 0x9 DUP3 ADD SLOAD AND PUSH2 0x111B DUP2 PUSH2 0x261A JUMP JUMPDEST PUSH2 0x160 DUP6 ADD MSTORE PUSH1 0xA DUP2 ADD SLOAD PUSH2 0x180 DUP6 ADD MSTORE ADD SLOAD AND ISZERO ISZERO PUSH2 0x1A0 DUP3 ADD MSTORE PUSH1 0x40 MLOAD SWAP2 DUP3 SWAP2 DUP3 PUSH2 0x267D JUMP JUMPDEST POP PUSH1 0x2 SLOAD DUP2 LT ISZERO PUSH2 0x1060 JUMP JUMPDEST CALLVALUE PUSH2 0x396 JUMPI PUSH1 0x20 CALLDATASIZE PUSH1 0x3 NOT ADD SLT PUSH2 0x396 JUMPI PUSH1 0x4 CALLDATALOAD PUSH1 0x0 MSTORE PUSH1 0x1A PUSH1 0x20 MSTORE PUSH1 0x20 PUSH1 0x40 PUSH1 0x0 KECCAK256 SLOAD PUSH1 0x40 MLOAD SWAP1 DUP2 MSTORE RETURN JUMPDEST CALLVALUE PUSH2 0x396 JUMPI PUSH1 0x20 CALLDATASIZE PUSH1 0x3 NOT ADD SLT PUSH2 0x396 JUMPI PUSH1 0x80 PUSH1 0x1 PUSH1 0x1 PUSH1 0xA0 SHL SUB DUP1 PUSH2 0x119F PUSH2 0x25E1 JUMP JUMPDEST AND PUSH1 0x0 MSTORE PUSH1 0x1C PUSH1 0x20 MSTORE PUSH1 0x40 PUSH1 0x0 KECCAK256 SWAP1 DUP2 SLOAD AND SWAP1 PUSH1 0x1 DUP2 ADD SLOAD SWAP1 PUSH1 0xFF PUSH1 0x3 PUSH1 0x2 DUP4 ADD SLOAD SWAP3 ADD SLOAD AND SWAP2 PUSH1 0x40 MLOAD SWAP4 DUP5 MSTORE PUSH1 0x20 DUP5 ADD MSTORE PUSH1 0x40 DUP4 ADD MSTORE ISZERO ISZERO PUSH1 0x60 DUP3 ADD MSTORE RETURN JUMPDEST CALLVALUE PUSH2 0x396 JUMPI PUSH1 0x0 CALLDATASIZE PUSH1 0x3 NOT ADD SLT PUSH2 0x396 JUMPI PUSH1 0x20 PUSH1 0xF SLOAD PUSH1 0x40 MLOAD SWAP1 DUP2 MSTORE RETURN JUMPDEST CALLVALUE PUSH2 0x396 JUMPI PUSH1 0x0 CALLDATASIZE PUSH1 0x3 NOT ADD SLT PUSH2 0x396 JUMPI PUSH2 0x1216 PUSH2 0x37E2 JUMP JUMPDEST POP PUSH1 0x16 SLOAD DUP1 ISZERO PUSH2 0x1241 JUMPI PUSH1 0x0 MSTORE PUSH1 0x17 PUSH1 0x20 MSTORE PUSH2 0xE7A PUSH1 0x40 PUSH1 0x0 KECCAK256 PUSH1 0xFF PUSH1 0xB PUSH1 0x40 MLOAD SWAP3 PUSH2 0x1085 DUP5 PUSH2 0x2865 JUMP JUMPDEST PUSH1 0x40 MLOAD PUSH3 0x95B661 PUSH1 0xE6 SHL DUP2 MSTORE PUSH1 0x4 SWAP1 REVERT JUMPDEST CALLVALUE PUSH2 0x396 JUMPI PUSH1 0x0 CALLDATASIZE PUSH1 0x3 NOT ADD SLT PUSH2 0x396 JUMPI PUSH1 0x1 SLOAD PUSH1 0x40 MLOAD PUSH1 0x1 PUSH1 0x1 PUSH1 0xA0 SHL SUB SWAP1 SWAP2 AND DUP2 MSTORE PUSH1 0x20 SWAP1 RETURN JUMPDEST CALLVALUE PUSH2 0x396 JUMPI PUSH1 0x20 CALLDATASIZE PUSH1 0x3 NOT ADD SLT PUSH2 0x396 JUMPI PUSH1 0x20 PUSH2 0x59A PUSH1 0x4 CALLDATALOAD PUSH2 0x3A48 JUMP JUMPDEST CALLVALUE PUSH2 0x396 JUMPI PUSH1 0x20 CALLDATASIZE PUSH1 0x3 NOT ADD SLT PUSH2 0x396 JUMPI PUSH1 0x1 PUSH1 0x1 PUSH1 0xA0 SHL SUB PUSH2 0x12BA PUSH2 0x25E1 JUMP JUMPDEST AND PUSH1 0x0 MSTORE PUSH1 0x20 DUP1 MSTORE PUSH1 0xA0 PUSH1 0x40 PUSH1 0x0 KECCAK256 DUP1 SLOAD SWAP1 PUSH1 0x1 DUP2 ADD SLOAD SWAP1 PUSH1 0x2 DUP2 ADD SLOAD PUSH1 0x4 PUSH1 0x3 DUP4 ADD SLOAD SWAP3 ADD SLOAD SWAP3 PUSH1 0x40 MLOAD SWAP5 DUP6 MSTORE PUSH1 0x20 DUP6 ADD MSTORE PUSH1 0x40 DUP5 ADD MSTORE PUSH1 0x60 DUP4 ADD MSTORE PUSH1 0x80 DUP3 ADD MSTORE RETURN JUMPDEST CALLVALUE PUSH2 0x396 JUMPI PUSH1 0x20 CALLDATASIZE PUSH1 0x3 NOT ADD SLT PUSH2 0x396 JUMPI PUSH1 0x4 CALLDATALOAD PUSH1 0x0 MSTORE PUSH1 0x1D PUSH1 0x20 MSTORE PUSH1 0x20 PUSH1 0x1 DUP1 PUSH1 0xA0 SHL SUB PUSH1 0x40 PUSH1 0x0 KECCAK256 SLOAD AND PUSH1 0x40 MLOAD SWAP1 DUP2 MSTORE RETURN JUMPDEST CALLVALUE PUSH2 0x396 JUMPI PUSH1 0x0 CALLDATASIZE PUSH1 0x3 NOT ADD SLT PUSH2 0x396 JUMPI PUSH1 0x20 PUSH1 0x10 SLOAD PUSH1 0x40 MLOAD SWAP1 DUP2 MSTORE RETURN JUMPDEST CALLVALUE PUSH2 0x396 JUMPI PUSH1 0x0 CALLDATASIZE PUSH1 0x3 NOT ADD SLT PUSH2 0x396 JUMPI PUSH1 0x20 PUSH1 0xD SLOAD PUSH1 0x40 MLOAD SWAP1 DUP2 MSTORE RETURN JUMPDEST CALLVALUE PUSH2 0x396 JUMPI PUSH1 0x0 CALLDATASIZE PUSH1 0x3 NOT ADD SLT PUSH2 0x396 JUMPI PUSH2 0x1387 PUSH2 0x27D7 JUMP JUMPDEST PUSH1 0x1 DUP1 SLOAD PUSH1 0x1 PUSH1 0x1 PUSH1 0xA0 SHL SUB NOT DUP2 AND SWAP1 SWAP2 SSTORE PUSH1 0x0 SWAP1 PUSH1 0x1 PUSH1 0x1 PUSH1 0xA0 SHL SUB AND PUSH1 0x0 DUP1 MLOAD PUSH1 0x20 PUSH2 0x3C1C DUP4 CODECOPY DUP2 MLOAD SWAP2 MSTORE DUP3 DUP1 LOG3 STOP JUMPDEST CALLVALUE PUSH2 0x396 JUMPI PUSH1 0x20 CALLDATASIZE PUSH1 0x3 NOT ADD SLT PUSH2 0x396 JUMPI PUSH1 0x2 PUSH1 0x4 CALLDATALOAD LT ISZERO PUSH2 0x396 JUMPI PUSH1 0xFF PUSH1 0x8 SLOAD AND PUSH2 0x1638 JUMPI PUSH1 0x16 SLOAD DUP1 PUSH2 0x15F1 JUMPI JUMPDEST POP PUSH1 0x2 SLOAD PUSH2 0x13F5 DUP2 PUSH2 0x29BF JUMP JUMPDEST PUSH1 0x2 SSTORE PUSH2 0x1403 PUSH1 0x4 CALLDATALOAD PUSH2 0x261A JUMP JUMPDEST PUSH1 0x4 CALLDATALOAD PUSH2 0x15E6 JUMPI PUSH2 0x1417 PUSH1 0xD SLOAD JUMPDEST TIMESTAMP PUSH2 0x29B2 JUMP JUMPDEST PUSH1 0x40 MLOAD SWAP1 PUSH2 0x1424 DUP3 PUSH2 0x2865 JUMP JUMPDEST DUP3 DUP3 MSTORE PUSH1 0x0 PUSH1 0x20 DUP4 ADD MSTORE PUSH2 0x1439 PUSH1 0x4 CALLDATALOAD PUSH2 0x261A JUMP JUMPDEST PUSH1 0x4 CALLDATALOAD PUSH1 0x40 DUP4 ADD MSTORE PUSH1 0x1 PUSH1 0x60 DUP4 ADD MSTORE PUSH1 0x0 PUSH1 0x80 DUP4 ADD MSTORE PUSH1 0x0 PUSH1 0xA0 DUP4 ADD MSTORE PUSH1 0x0 PUSH1 0xC0 DUP4 ADD MSTORE PUSH1 0x0 PUSH1 0xE0 DUP4 ADD MSTORE TIMESTAMP PUSH2 0x100 DUP4 ADD MSTORE DUP1 PUSH2 0x120 DUP4 ADD MSTORE PUSH1 0x0 PUSH2 0x140 DUP4 ADD MSTORE PUSH1 0x0 PUSH2 0x160 DUP4 ADD MSTORE PUSH1 0x0 PUSH2 0x180 DUP4 ADD MSTORE PUSH1 0x0 PUSH2 0x1A0 DUP4 ADD MSTORE DUP3 PUSH1 0x0 MSTORE PUSH1 0x17 PUSH1 0x20 MSTORE PUSH1 0x40 PUSH1 0x0 KECCAK256 SWAP1 DUP3 MLOAD DUP3 SSTORE PUSH1 0x20 DUP4 ADD MLOAD SWAP2 PUSH1 0x1 DUP4 LT ISZERO PUSH2 0xD92 JUMPI PUSH1 0x1 DUP2 ADD SLOAD SWAP1 PUSH1 0x40 DUP6 ADD MLOAD SWAP2 PUSH2 0x14C9 DUP4 PUSH2 0x261A JUMP JUMPDEST PUSH2 0x14D2 DUP4 PUSH2 0x261A JUMP JUMPDEST PUSH1 0x60 DUP7 ADD MLOAD SWAP1 PUSH1 0x5 DUP3 LT ISZERO PUSH2 0xD92 JUMPI PUSH32 0x5BFFE7E5C8098C6E3688EB38E9850F561C9F5CBB9E256D591242A8A92EE7AF26 SWAP7 PUSH1 0x80 SWAP7 PUSH2 0x15B9 SWAP6 PUSH2 0xFF00 PUSH2 0x1A0 SWAP5 PUSH1 0xFF PUSH3 0xFF0000 PUSH1 0xB SWAP9 PUSH1 0x10 SHL AND SWAP5 AND SWAP1 PUSH3 0xFFFFFF NOT AND OR SWAP2 PUSH1 0x8 SHL AND OR OR PUSH1 0x1 DUP6 ADD SSTORE DUP7 DUP2 ADD MLOAD PUSH1 0x2 DUP6 ADD SSTORE PUSH1 0xA0 DUP2 ADD MLOAD PUSH1 0x3 DUP6 ADD SSTORE PUSH1 0xC0 DUP2 ADD MLOAD PUSH1 0x4 DUP6 ADD SSTORE PUSH1 0xE0 DUP2 ADD MLOAD PUSH1 0x5 DUP6 ADD SSTORE PUSH2 0x100 DUP2 ADD MLOAD PUSH1 0x6 DUP6 ADD SSTORE PUSH2 0x120 DUP2 ADD MLOAD PUSH1 0x7 DUP6 ADD SSTORE PUSH2 0x140 DUP2 ADD MLOAD PUSH1 0x8 DUP6 ADD SSTORE PUSH2 0x1597 PUSH2 0x160 DUP3 ADD MLOAD PUSH2 0x158E DUP2 PUSH2 0x261A JUMP JUMPDEST PUSH1 0x9 DUP7 ADD PUSH2 0x29E6 JUMP JUMPDEST PUSH2 0x180 DUP2 ADD MLOAD PUSH1 0xA DUP6 ADD SSTORE ADD MLOAD ISZERO ISZERO SWAP2 ADD SWAP1 PUSH1 0xFF DUP1 NOT DUP4 SLOAD AND SWAP2 ISZERO ISZERO AND OR SWAP1 SSTORE JUMP JUMPDEST DUP4 PUSH1 0x16 SSTORE PUSH1 0x40 MLOAD SWAP1 PUSH1 0x0 DUP3 MSTORE PUSH2 0x15D0 PUSH1 0x4 CALLDATALOAD PUSH2 0x261A JUMP JUMPDEST PUSH1 0x4 CALLDATALOAD PUSH1 0x20 DUP4 ADD MSTORE TIMESTAMP PUSH1 0x40 DUP4 ADD MSTORE PUSH1 0x60 DUP3 ADD MSTORE LOG2 STOP JUMPDEST PUSH2 0x1417 PUSH1 0xE SLOAD PUSH2 0x1411 JUMP JUMPDEST PUSH1 0x0 MSTORE PUSH1 0x17 PUSH1 0x20 MSTORE PUSH1 0xFF PUSH1 0x1 PUSH1 0x40 PUSH1 0x0 KECCAK256 ADD SLOAD PUSH1 0x10 SHR AND PUSH1 0x5 DUP2 LT ISZERO PUSH2 0xD92 JUMPI PUSH1 0x1 DUP2 EQ PUSH2 0x1626 JUMPI PUSH1 0x2 EQ PUSH2 0x1626 JUMPI DUP1 PUSH2 0x13E8 JUMP JUMPDEST PUSH1 0x40 MLOAD PUSH4 0x2127C5B5 PUSH1 0xE0 SHL DUP2 MSTORE PUSH1 0x4 SWAP1 REVERT JUMPDEST PUSH1 0x40 MLOAD PUSH4 0xAB35696F PUSH1 0xE0 SHL DUP2 MSTORE PUSH1 0x4 SWAP1 REVERT JUMPDEST CALLVALUE PUSH2 0x396 JUMPI PUSH1 0x20 CALLDATASIZE PUSH1 0x3 NOT ADD SLT PUSH2 0x396 JUMPI PUSH1 0x1 PUSH1 0x1 PUSH1 0xA0 SHL SUB PUSH2 0x166B PUSH2 0x25E1 JUMP JUMPDEST AND PUSH1 0x0 MSTORE PUSH1 0x1F PUSH1 0x20 MSTORE PUSH1 0x20 PUSH1 0x40 PUSH1 0x0 KECCAK256 SLOAD PUSH1 0x40 MLOAD SWAP1 DUP2 MSTORE RETURN JUMPDEST CALLVALUE PUSH2 0x396 JUMPI PUSH1 0x0 CALLDATASIZE PUSH1 0x3 NOT ADD SLT PUSH2 0x396 JUMPI PUSH1 0x40 MLOAD DUP1 PUSH1 0x21 SLOAD DUP1 DUP3 MSTORE DUP3 PUSH1 0x20 DUP1 SWAP4 ADD PUSH1 0x21 PUSH1 0x0 MSTORE DUP4 PUSH1 0x0 KECCAK256 SWAP3 PUSH1 0x0 JUMPDEST DUP6 DUP3 DUP3 LT PUSH2 0x16C9 JUMPI POP POP POP PUSH2 0xE66 SWAP3 POP SUB DUP4 PUSH2 0x28B7 JUMP JUMPDEST DUP6 SLOAD PUSH1 0x1 PUSH1 0x1 PUSH1 0xA0 SHL SUB AND DUP5 MSTORE PUSH1 0x1 SWAP6 DUP7 ADD SWAP6 DUP9 SWAP6 POP SWAP4 ADD SWAP3 ADD PUSH2 0x16B2 JUMP JUMPDEST CALLVALUE PUSH2 0x396 JUMPI PUSH1 0x20 CALLDATASIZE PUSH1 0x3 NOT ADD SLT PUSH2 0x396 JUMPI PUSH1 0x20 PUSH2 0x558 PUSH1 0x4 CALLDATALOAD PUSH2 0x3AC0 JUMP JUMPDEST CALLVALUE PUSH2 0x396 JUMPI PUSH1 0x20 CALLDATASIZE PUSH1 0x3 NOT ADD SLT PUSH2 0x396 JUMPI PUSH1 0x4 CALLDATALOAD PUSH2 0x1722 PUSH2 0x27D7 JUMP JUMPDEST PUSH8 0xDE0B6B3A7640000 DUP2 GT PUSH2 0x1736 JUMPI PUSH1 0x7 SSTORE STOP JUMPDEST PUSH1 0x40 MLOAD PUSH3 0x461BCD PUSH1 0xE5 SHL DUP2 MSTORE PUSH1 0x20 PUSH1 0x4 DUP3 ADD MSTORE PUSH1 0x1B PUSH1 0x24 DUP3 ADD MSTORE PUSH27 0x4D696E206265742063616E6E6F742065786365656420312054414F PUSH1 0x28 SHL PUSH1 0x44 DUP3 ADD MSTORE PUSH1 0x64 SWAP1 REVERT JUMPDEST CALLVALUE PUSH2 0x396 JUMPI PUSH1 0x20 CALLDATASIZE PUSH1 0x3 NOT ADD SLT PUSH2 0x396 JUMPI PUSH1 0x4 CALLDATALOAD PUSH2 0x1795 PUSH2 0x27D7 JUMP JUMPDEST PUSH2 0x708 DUP2 LT DUP1 ISZERO PUSH2 0x17AA JUMPI JUMPDEST PUSH2 0x754 JUMPI PUSH1 0xD SSTORE STOP JUMPDEST POP PUSH3 0x15180 DUP2 GT PUSH2 0x17A1 JUMP JUMPDEST CALLVALUE PUSH2 0x396 JUMPI PUSH1 0x20 CALLDATASIZE PUSH1 0x3 NOT ADD SLT PUSH2 0x396 JUMPI PUSH1 0x4 CALLDATALOAD PUSH2 0x17D2 PUSH2 0x27D7 JUMP JUMPDEST DUP1 ISZERO DUP1 ISZERO PUSH2 0x1883 JUMPI JUMPDEST PUSH2 0xDCC JUMPI DUP1 PUSH1 0x0 MSTORE PUSH1 0x17 PUSH1 0x20 MSTORE PUSH1 0x40 PUSH1 0x0 KECCAK256 PUSH1 0xFF PUSH1 0x1 DUP3 ADD SLOAD PUSH1 0x10 SHR AND PUSH1 0x5 DUP2 LT ISZERO PUSH2 0xD92 JUMPI PUSH1 0x4 EQ PUSH2 0x1871 JUMPI DUP1 PUSH1 0x5 PUSH1 0x4 PUSH2 0x181C SWAP4 ADD SLOAD SWAP2 ADD SLOAD SWAP1 PUSH2 0x29B2 JUMP JUMPDEST PUSH2 0x185F JUMPI PUSH1 0x40 MLOAD PUSH2 0x1B SWAP2 PUSH2 0x1830 DUP3 PUSH2 0x2881 JUMP JUMPDEST PUSH1 0x1F DUP3 MSTORE PUSH32 0x456D657267656E63792063616E63656C6C6174696F6E206279206F776E657200 PUSH1 0x20 DUP4 ADD MSTORE PUSH2 0x34A7 JUMP JUMPDEST PUSH1 0x40 MLOAD PUSH4 0x44A603BB PUSH1 0xE1 SHL DUP2 MSTORE PUSH1 0x4 SWAP1 REVERT JUMPDEST PUSH1 0x40 MLOAD PUSH4 0x41D5C2CF PUSH1 0xE0 SHL DUP2 MSTORE PUSH1 0x4 SWAP1 REVERT JUMPDEST POP PUSH1 0x2 SLOAD DUP2 LT ISZERO PUSH2 0x17DB JUMP JUMPDEST CALLVALUE PUSH2 0x396 JUMPI PUSH1 0x20 PUSH2 0x59A PUSH2 0x18A2 CALLDATASIZE PUSH2 0x265E JUMP JUMPDEST SWAP1 PUSH2 0x39CA JUMP JUMPDEST CALLVALUE PUSH2 0x396 JUMPI PUSH1 0x0 CALLDATASIZE PUSH1 0x3 NOT ADD SLT PUSH2 0x396 JUMPI PUSH1 0x20 PUSH1 0x15 SLOAD PUSH1 0x40 MLOAD SWAP1 DUP2 MSTORE RETURN JUMPDEST CALLVALUE PUSH2 0x396 JUMPI PUSH1 0x20 CALLDATASIZE PUSH1 0x3 NOT ADD SLT PUSH2 0x396 JUMPI PUSH1 0x1 PUSH1 0x1 PUSH1 0xA0 SHL SUB PUSH2 0x18E7 PUSH2 0x25E1 JUMP JUMPDEST AND PUSH1 0x0 MSTORE PUSH1 0x1E PUSH1 0x20 MSTORE PUSH1 0x20 PUSH1 0x40 PUSH1 0x0 KECCAK256 SLOAD PUSH1 0x40 MLOAD SWAP1 DUP2 MSTORE RETURN JUMPDEST CALLVALUE PUSH2 0x396 JUMPI PUSH1 0x0 CALLDATASIZE PUSH1 0x3 NOT ADD SLT PUSH2 0x396 JUMPI PUSH1 0x20 PUSH1 0x5 SLOAD PUSH1 0x40 MLOAD SWAP1 DUP2 MSTORE RETURN JUMPDEST CALLVALUE PUSH2 0x396 JUMPI PUSH1 0x0 CALLDATASIZE PUSH1 0x3 NOT ADD SLT PUSH2 0x396 JUMPI PUSH1 0x20 PUSH1 0x9 SLOAD PUSH1 0x40 MLOAD SWAP1 DUP2 MSTORE RETURN JUMPDEST CALLVALUE PUSH2 0x396 JUMPI PUSH1 0x0 CALLDATASIZE PUSH1 0x3 NOT ADD SLT PUSH2 0x396 JUMPI PUSH1 0x20 PUSH1 0xFF PUSH1 0x8 SLOAD AND PUSH1 0x40 MLOAD SWAP1 ISZERO ISZERO DUP2 MSTORE RETURN JUMPDEST CALLVALUE PUSH2 0x396 JUMPI PUSH1 0x0 CALLDATASIZE PUSH1 0x3 NOT ADD SLT PUSH2 0x396 JUMPI PUSH1 0x20 PUSH1 0x40 MLOAD PUSH1 0x12 DUP2 MSTORE RETURN JUMPDEST CALLVALUE PUSH2 0x396 JUMPI PUSH1 0x0 CALLDATASIZE PUSH1 0x3 NOT ADD SLT PUSH2 0x396 JUMPI PUSH1 0x20 PUSH1 0x16 SLOAD PUSH1 0x40 MLOAD SWAP1 DUP2 MSTORE RETURN JUMPDEST CALLVALUE PUSH2 0x396 JUMPI PUSH1 0x40 CALLDATASIZE PUSH1 0x3 NOT ADD SLT PUSH2 0x396 JUMPI PUSH2 0x19B2 PUSH2 0x25CB JUMP JUMPDEST PUSH1 0x4 CALLDATALOAD PUSH1 0x0 MSTORE PUSH1 0x1B PUSH1 0x20 MSTORE PUSH1 0x40 PUSH1 0x0 KECCAK256 SWAP1 PUSH1 0x1 DUP1 PUSH1 0xA0 SHL SUB AND PUSH1 0x0 MSTORE PUSH1 0x20 MSTORE PUSH1 0x20 PUSH1 0xFF PUSH1 0x40 PUSH1 0x0 KECCAK256 SLOAD AND PUSH1 0x40 MLOAD SWAP1 ISZERO ISZERO DUP2 MSTORE RETURN JUMPDEST CALLVALUE PUSH2 0x396 JUMPI PUSH1 0x20 DUP1 PUSH1 0x3 NOT CALLDATASIZE ADD SLT PUSH2 0x396 JUMPI PUSH1 0xA0 SWAP1 PUSH2 0x1A03 PUSH2 0x25E1 JUMP JUMPDEST PUSH1 0x0 PUSH1 0x80 PUSH1 0x40 MLOAD PUSH2 0x1A13 DUP2 PUSH2 0x284A JUMP JUMPDEST DUP3 DUP2 MSTORE DUP3 DUP6 DUP3 ADD MSTORE DUP3 PUSH1 0x40 DUP3 ADD MSTORE DUP3 PUSH1 0x60 DUP3 ADD MSTORE ADD MSTORE PUSH1 0x1 DUP1 DUP5 SHL SUB AND PUSH1 0x0 MSTORE DUP1 DUP1 MSTORE PUSH1 0x40 PUSH1 0x0 KECCAK256 PUSH1 0x40 MLOAD SWAP1 PUSH2 0x1A48 DUP3 PUSH2 0x284A JUMP JUMPDEST DUP1 SLOAD SWAP3 DUP4 DUP4 MSTORE PUSH1 0x1 DUP3 ADD SLOAD SWAP1 DUP1 DUP5 ADD SWAP2 DUP3 MSTORE PUSH1 0x2 DUP4 ADD SLOAD SWAP2 PUSH1 0x40 DUP6 ADD SWAP3 DUP4 MSTORE PUSH1 0x80 PUSH1 0x4 PUSH1 0x3 DUP7 ADD SLOAD SWAP6 PUSH1 0x60 DUP9 ADD SWAP7 DUP8 MSTORE ADD SLOAD SWAP6 ADD SWAP5 DUP6 MSTORE PUSH1 0x40 MLOAD SWAP6 DUP7 MSTORE MLOAD SWAP1 DUP6 ADD MSTORE MLOAD PUSH1 0x40 DUP5 ADD MSTORE MLOAD PUSH1 0x60 DUP4 ADD MSTORE MLOAD PUSH1 0x80 DUP3 ADD MSTORE RETURN JUMPDEST CALLVALUE PUSH2 0x396 JUMPI PUSH1 0x0 CALLDATASIZE PUSH1 0x3 NOT ADD SLT PUSH2 0x396 JUMPI PUSH1 0x20 PUSH1 0x4 SLOAD PUSH1 0x40 MLOAD SWAP1 DUP2 MSTORE RETURN JUMPDEST CALLVALUE PUSH2 0x396 JUMPI PUSH1 0x0 CALLDATASIZE PUSH1 0x3 NOT ADD SLT PUSH2 0x396 JUMPI PUSH2 0x1AD5 PUSH2 0x27D7 JUMP JUMPDEST PUSH1 0x9 SLOAD DUP1 PUSH2 0x1ADF JUMPI STOP JUMPDEST PUSH1 0x0 DUP1 DUP1 DUP1 SWAP4 DUP2 PUSH1 0x9 SSTORE PUSH1 0x1 DUP1 PUSH1 0xA0 SHL SUB PUSH1 0x1 SLOAD AND GAS CALL PUSH2 0x1AFE PUSH2 0x291D JUMP JUMPDEST POP ISZERO PUSH2 0x1B06 JUMPI STOP JUMPDEST PUSH1 0x40 MLOAD PUSH4 0x12171D83 PUSH1 0xE3 SHL DUP2 MSTORE PUSH1 0x4 SWAP1 REVERT JUMPDEST CALLVALUE PUSH2 0x396 JUMPI PUSH1 0x20 DUP1 PUSH1 0x3 NOT CALLDATASIZE ADD SLT PUSH2 0x396 JUMPI PUSH1 0x4 CALLDATALOAD SWAP1 DUP2 ISZERO DUP1 ISZERO PUSH2 0x1C77 JUMPI JUMPDEST PUSH2 0xDCC JUMPI DUP2 PUSH1 0x0 MSTORE PUSH1 0x17 DUP2 MSTORE PUSH1 0x40 PUSH1 0x0 KECCAK256 PUSH1 0xFF PUSH1 0xB DUP3 ADD SLOAD AND SWAP1 DUP2 PUSH2 0x1C44 JUMPI JUMPDEST POP ISZERO PUSH2 0x1C0C JUMPI DUP2 PUSH1 0x0 MSTORE PUSH1 0xC DUP2 MSTORE PUSH1 0x40 PUSH1 0x0 KECCAK256 CALLER PUSH1 0x0 MSTORE DUP2 MSTORE PUSH1 0x40 PUSH1 0x0 KECCAK256 SLOAD SWAP2 DUP3 ISZERO PUSH2 0x1BCC JUMPI SWAP1 PUSH1 0x1C SWAP2 PUSH1 0x0 MSTORE PUSH1 0xC DUP2 MSTORE PUSH1 0x40 PUSH1 0x0 KECCAK256 CALLER PUSH1 0x0 MSTORE DUP2 MSTORE PUSH1 0x0 PUSH1 0x40 DUP2 KECCAK256 SSTORE PUSH1 0x1F DUP2 MSTORE PUSH1 0x40 PUSH1 0x0 KECCAK256 PUSH2 0x1BAE DUP5 DUP3 SLOAD PUSH2 0x29B2 JUMP JUMPDEST SWAP1 SSTORE CALLER PUSH1 0x0 MSTORE MSTORE PUSH2 0x1BC8 PUSH1 0x2 PUSH1 0x40 PUSH1 0x0 KECCAK256 ADD SWAP2 DUP3 SLOAD PUSH2 0x29B2 JUMP JUMPDEST SWAP1 SSTORE STOP JUMPDEST PUSH1 0x40 MLOAD PUSH3 0x461BCD PUSH1 0xE5 SHL DUP2 MSTORE PUSH1 0x4 DUP2 ADD DUP4 SWAP1 MSTORE PUSH1 0x18 PUSH1 0x24 DUP3 ADD MSTORE PUSH24 0x4E6F207265776172647320666F7220746869732067616D65 PUSH1 0x40 SHL PUSH1 0x44 DUP3 ADD MSTORE PUSH1 0x64 SWAP1 REVERT JUMPDEST PUSH1 0x64 SWAP1 PUSH1 0x40 MLOAD SWAP1 PUSH3 0x461BCD PUSH1 0xE5 SHL DUP3 MSTORE PUSH1 0x4 DUP3 ADD MSTORE PUSH1 0x11 PUSH1 0x24 DUP3 ADD MSTORE PUSH17 0x11D85B59481B9BDD081C995CDBDB1D9959 PUSH1 0x7A SHL PUSH1 0x44 DUP3 ADD MSTORE REVERT JUMPDEST PUSH1 0xFF SWAP2 POP PUSH1 0x1 ADD SLOAD PUSH1 0x10 SHR AND PUSH1 0x5 DUP2 LT ISZERO PUSH2 0xD92 JUMPI PUSH1 0x3 DUP2 EQ SWAP1 DUP2 ISZERO PUSH2 0x1C6C JUMPI JUMPDEST POP DUP4 PUSH2 0x1B57 JUMP JUMPDEST PUSH1 0x4 SWAP2 POP EQ DUP4 PUSH2 0x1C65 JUMP JUMPDEST POP PUSH1 0x2 SLOAD DUP3 LT ISZERO PUSH2 0x1B37 JUMP JUMPDEST CALLVALUE PUSH2 0x396 JUMPI PUSH1 0x40 CALLDATASIZE PUSH1 0x3 NOT ADD SLT PUSH2 0x396 JUMPI PUSH2 0x1C9C PUSH2 0x25CB JUMP JUMPDEST PUSH1 0x4 CALLDATALOAD PUSH1 0x0 MSTORE PUSH1 0xC PUSH1 0x20 MSTORE PUSH1 0x40 PUSH1 0x0 KECCAK256 SWAP1 PUSH1 0x1 DUP1 PUSH1 0xA0 SHL SUB AND PUSH1 0x0 MSTORE PUSH1 0x20 MSTORE PUSH1 0x20 PUSH1 0x40 PUSH1 0x0 KECCAK256 SLOAD PUSH1 0x40 MLOAD SWAP1 DUP2 MSTORE RETURN JUMPDEST CALLVALUE PUSH2 0x396 JUMPI PUSH1 0x0 CALLDATASIZE PUSH1 0x3 NOT ADD SLT PUSH2 0x396 JUMPI PUSH1 0x20 PUSH1 0x13 SLOAD PUSH1 0x40 MLOAD SWAP1 DUP2 MSTORE RETURN JUMPDEST CALLVALUE PUSH2 0x396 JUMPI PUSH1 0x20 DUP1 PUSH1 0x3 NOT CALLDATASIZE ADD SLT PUSH2 0x396 JUMPI PUSH1 0x4 CALLDATALOAD PUSH1 0x1 PUSH1 0x1 PUSH1 0x40 SHL SUB DUP2 GT PUSH2 0x396 JUMPI PUSH2 0x1D1A SWAP1 CALLDATASIZE SWAP1 PUSH1 0x4 ADD PUSH2 0x2631 JUMP JUMPDEST PUSH2 0x1D3D DUP4 PUSH1 0x40 MLOAD DUP4 DUP2 SWAP5 DUP4 DUP4 ADD SWAP7 DUP8 CALLDATACOPY DUP2 ADD PUSH1 0x0 DUP4 DUP3 ADD MSTORE SUB DUP1 DUP5 MSTORE ADD DUP3 PUSH2 0x28B7 JUMP JUMPDEST MLOAD SWAP1 KECCAK256 SWAP1 DUP2 PUSH1 0x0 MSTORE PUSH1 0x1D DUP2 MSTORE PUSH1 0x1 DUP1 PUSH1 0xA0 SHL SUB DUP1 PUSH1 0x40 PUSH1 0x0 KECCAK256 SLOAD AND PUSH2 0x1E6D JUMPI CALLER PUSH1 0x0 MSTORE PUSH1 0x1E DUP3 MSTORE PUSH1 0x40 PUSH1 0x0 KECCAK256 SLOAD PUSH2 0x1E32 JUMPI SWAP1 PUSH2 0x1E27 PUSH32 0x84D410093008674EBA76B70AB072A4F33A5858F8AEBCA4C89A70447ECCF6FFDA SWAP3 DUP5 PUSH1 0x0 MSTORE PUSH1 0x1D DUP4 MSTORE PUSH1 0x3 PUSH1 0x40 PUSH1 0x0 KECCAK256 SWAP2 PUSH1 0x1 DUP1 PUSH1 0xA0 SHL SUB NOT SWAP3 CALLER DUP5 DUP3 SLOAD AND OR SWAP1 SSTORE CALLER PUSH1 0x0 MSTORE PUSH1 0x1E DUP6 MSTORE DUP7 PUSH1 0x40 PUSH1 0x0 KECCAK256 SSTORE PUSH1 0x40 MLOAD SWAP3 PUSH2 0x1DD1 DUP5 PUSH2 0x282F JUMP JUMPDEST PUSH1 0x0 DUP5 MSTORE DUP6 DUP5 ADD PUSH1 0x0 DUP2 MSTORE PUSH1 0x40 DUP6 ADD SWAP2 PUSH1 0x0 DUP4 MSTORE PUSH1 0x60 DUP7 ADD SWAP4 PUSH1 0x1 DUP6 MSTORE CALLER PUSH1 0x0 MSTORE PUSH1 0x1C DUP10 MSTORE PUSH1 0x40 PUSH1 0x0 KECCAK256 SWAP7 MLOAD AND SWAP1 DUP7 SLOAD AND OR DUP6 SSTORE MLOAD PUSH1 0x1 DUP6 ADD SSTORE MLOAD PUSH1 0x2 DUP5 ADD SSTORE MLOAD ISZERO ISZERO SWAP2 ADD SWAP1 PUSH1 0xFF DUP1 NOT DUP4 SLOAD AND SWAP2 ISZERO ISZERO AND OR SWAP1 SSTORE JUMP JUMPDEST PUSH1 0x40 MLOAD SWAP3 DUP4 MSTORE CALLER SWAP3 LOG2 STOP JUMPDEST PUSH1 0x40 MLOAD PUSH3 0x461BCD PUSH1 0xE5 SHL DUP2 MSTORE PUSH1 0x4 DUP2 ADD DUP4 SWAP1 MSTORE PUSH1 0x13 PUSH1 0x24 DUP3 ADD MSTORE PUSH19 0x416C72656164792068617665206120636F6465 PUSH1 0x68 SHL PUSH1 0x44 DUP3 ADD MSTORE PUSH1 0x64 SWAP1 REVERT JUMPDEST PUSH1 0x40 MLOAD PUSH3 0x461BCD PUSH1 0xE5 SHL DUP2 MSTORE PUSH1 0x4 DUP2 ADD DUP4 SWAP1 MSTORE PUSH1 0x12 PUSH1 0x24 DUP3 ADD MSTORE PUSH18 0x21B7B2329030B63932B0B23C903A30B5B2B7 PUSH1 0x71 SHL PUSH1 0x44 DUP3 ADD MSTORE PUSH1 0x64 SWAP1 REVERT JUMPDEST CALLVALUE PUSH2 0x396 JUMPI PUSH1 0x0 CALLDATASIZE PUSH1 0x3 NOT ADD SLT PUSH2 0x396 JUMPI PUSH1 0x20 PUSH1 0x11 SLOAD PUSH1 0x40 MLOAD SWAP1 DUP2 MSTORE RETURN JUMPDEST CALLVALUE PUSH2 0x396 JUMPI PUSH1 0x0 CALLDATASIZE PUSH1 0x3 NOT ADD SLT PUSH2 0x396 JUMPI PUSH1 0x20 PUSH1 0x12 SLOAD PUSH1 0x40 MLOAD SWAP1 DUP2 MSTORE RETURN JUMPDEST CALLVALUE PUSH2 0x396 JUMPI PUSH1 0x0 CALLDATASIZE PUSH1 0x3 NOT ADD SLT PUSH2 0x396 JUMPI PUSH1 0x20 PUSH1 0x3 SLOAD PUSH1 0x40 MLOAD SWAP1 DUP2 MSTORE RETURN JUMPDEST CALLVALUE PUSH2 0x396 JUMPI PUSH1 0x20 CALLDATASIZE PUSH1 0x3 NOT ADD SLT PUSH2 0x396 JUMPI PUSH1 0x80 PUSH2 0x1F1C PUSH2 0x25E1 JUMP JUMPDEST PUSH1 0x0 PUSH1 0x60 PUSH1 0x40 MLOAD PUSH2 0x1F2C DUP2 PUSH2 0x282F JUMP JUMPDEST DUP3 DUP2 MSTORE DUP3 PUSH1 0x20 DUP3 ADD MSTORE DUP3 PUSH1 0x40 DUP3 ADD MSTORE ADD MSTORE PUSH1 0x1 DUP1 PUSH1 0xA0 SHL SUB DUP1 SWAP2 AND PUSH1 0x0 MSTORE PUSH1 0x1C PUSH1 0x20 MSTORE PUSH1 0x40 PUSH1 0x0 KECCAK256 SWAP1 PUSH1 0x40 MLOAD SWAP1 PUSH2 0x1F62 DUP3 PUSH2 0x282F JUMP JUMPDEST DUP3 SLOAD AND SWAP2 DUP3 DUP3 MSTORE PUSH1 0x1 DUP2 ADD SLOAD PUSH1 0x20 DUP4 ADD SWAP1 DUP2 MSTORE PUSH1 0x60 PUSH1 0xFF PUSH1 0x3 PUSH1 0x2 DUP6 ADD SLOAD SWAP5 PUSH1 0x40 DUP8 ADD SWAP6 DUP7 MSTORE ADD SLOAD AND SWAP4 ADD SWAP3 ISZERO ISZERO DUP4 MSTORE PUSH1 0x40 MLOAD SWAP4 DUP5 MSTORE MLOAD PUSH1 0x20 DUP5 ADD MSTORE MLOAD PUSH1 0x40 DUP4 ADD MSTORE MLOAD ISZERO ISZERO PUSH1 0x60 DUP3 ADD MSTORE RETURN JUMPDEST CALLVALUE PUSH2 0x396 JUMPI PUSH1 0x20 CALLDATASIZE PUSH1 0x3 NOT ADD SLT PUSH2 0x396 JUMPI PUSH1 0x4 CALLDATALOAD DUP1 ISZERO ISZERO DUP1 SWAP2 SUB PUSH2 0x396 JUMPI PUSH1 0x20 PUSH32 0x11CEC829FF57D278CFFEE07757E9621BFA0AE0CD17B3D23A7B81CBA95174B8A4 SWAP2 PUSH2 0x1FF8 PUSH2 0x27D7 JUMP JUMPDEST PUSH1 0xFF NOT PUSH1 0x8 SLOAD AND PUSH1 0xFF DUP3 AND OR PUSH1 0x8 SSTORE PUSH1 0x40 MLOAD SWAP1 DUP2 MSTORE LOG1 STOP JUMPDEST CALLVALUE PUSH2 0x396 JUMPI PUSH1 0x20 CALLDATASIZE PUSH1 0x3 NOT ADD SLT PUSH2 0x396 JUMPI PUSH1 0x4 CALLDATALOAD PUSH2 0x202C PUSH2 0x27D7 JUMP JUMPDEST PUSH2 0x3E8 DUP2 GT PUSH2 0x203A JUMPI PUSH1 0x3 SSTORE STOP JUMPDEST PUSH1 0x40 MLOAD PUSH3 0x461BCD PUSH1 0xE5 SHL DUP2 MSTORE PUSH1 0x20 PUSH1 0x4 DUP3 ADD MSTORE PUSH1 0x15 PUSH1 0x24 DUP3 ADD MSTORE PUSH21 0x4665652063616E6E6F742065786365656420313025 PUSH1 0x58 SHL PUSH1 0x44 DUP3 ADD MSTORE PUSH1 0x64 SWAP1 REVERT JUMPDEST CALLVALUE PUSH2 0x396 JUMPI PUSH1 0x20 CALLDATASIZE PUSH1 0x3 NOT ADD SLT PUSH2 0x396 JUMPI PUSH1 0x4 CALLDATALOAD PUSH1 0x0 MSTORE PUSH1 0x17 PUSH1 0x20 MSTORE PUSH1 0x40 PUSH1 0x0 KECCAK256 DUP1 SLOAD SWAP1 PUSH1 0x1 DUP2 ADD SLOAD SWAP1 DUP2 PUSH1 0x8 SHR PUSH1 0xFF AND SWAP2 PUSH1 0x2 DUP3 ADD SLOAD PUSH1 0x3 DUP4 ADD SLOAD PUSH1 0x4 DUP5 ADD SLOAD PUSH1 0x5 DUP6 ADD SLOAD PUSH1 0x6 DUP7 ADD SLOAD SWAP2 PUSH1 0x7 DUP8 ADD SLOAD SWAP4 PUSH1 0x8 DUP9 ADD SLOAD SWAP6 PUSH1 0x9 DUP10 ADD SLOAD PUSH1 0xFF AND SWAP8 PUSH1 0xA DUP11 ADD SLOAD SWAP10 PUSH1 0xB ADD SLOAD PUSH1 0xFF AND SWAP11 PUSH1 0x40 MLOAD SWAP13 DUP14 MSTORE PUSH1 0x20 DUP14 ADD PUSH1 0xFF DUP4 AND SWAP1 PUSH2 0x20FE SWAP2 PUSH2 0x260D JUMP JUMPDEST PUSH2 0x2107 DUP2 PUSH2 0x261A JUMP JUMPDEST PUSH1 0x40 DUP14 ADD MSTORE PUSH1 0x60 DUP13 ADD SWAP1 PUSH1 0x10 SHR PUSH1 0xFF AND SWAP1 PUSH2 0x2121 SWAP2 PUSH2 0x2624 JUMP JUMPDEST PUSH1 0x80 DUP12 ADD MSTORE PUSH1 0xA0 DUP11 ADD MSTORE PUSH1 0xC0 DUP10 ADD MSTORE PUSH1 0xE0 DUP9 ADD MSTORE PUSH2 0x100 DUP8 ADD MSTORE PUSH2 0x120 DUP7 ADD MSTORE PUSH2 0x140 DUP6 ADD MSTORE PUSH2 0x2150 DUP2 PUSH2 0x261A JUMP JUMPDEST PUSH2 0x160 DUP5 ADD MSTORE PUSH2 0x180 DUP4 ADD MSTORE ISZERO ISZERO PUSH2 0x1A0 DUP3 ADD MSTORE PUSH2 0x1C0 SWAP1 RETURN JUMPDEST CALLVALUE PUSH2 0x396 JUMPI PUSH2 0x2178 CALLDATASIZE PUSH2 0x25F7 JUMP JUMPDEST SWAP1 PUSH2 0x2181 PUSH2 0x27D7 JUMP JUMPDEST PUSH2 0x3E8 DUP2 GT PUSH2 0x21D5 JUMPI PUSH2 0x2328 DUP3 GT PUSH2 0x219B JUMPI PUSH1 0x5 SSTORE PUSH1 0x6 SSTORE STOP JUMPDEST PUSH1 0x40 MLOAD PUSH3 0x461BCD PUSH1 0xE5 SHL DUP2 MSTORE PUSH1 0x20 PUSH1 0x4 DUP3 ADD MSTORE PUSH1 0x12 PUSH1 0x24 DUP3 ADD MSTORE PUSH18 0xA8D0E4CAE6D0DED8C840E8DEDE40D0D2CED PUSH1 0x73 SHL PUSH1 0x44 DUP3 ADD MSTORE PUSH1 0x64 SWAP1 REVERT JUMPDEST PUSH1 0x40 MLOAD PUSH3 0x461BCD PUSH1 0xE5 SHL DUP2 MSTORE PUSH1 0x20 PUSH1 0x4 DUP3 ADD MSTORE PUSH1 0x17 PUSH1 0x24 DUP3 ADD MSTORE PUSH23 0x426F6E75732063616E6E6F742065786365656420313025 PUSH1 0x48 SHL PUSH1 0x44 DUP3 ADD MSTORE PUSH1 0x64 SWAP1 REVERT JUMPDEST CALLVALUE PUSH2 0x396 JUMPI PUSH1 0x20 DUP1 PUSH1 0x3 NOT CALLDATASIZE ADD SLT PUSH2 0x396 JUMPI PUSH1 0x4 CALLDATALOAD PUSH1 0x21 SLOAD DUP1 DUP3 LT PUSH1 0x0 EQ PUSH2 0x2348 JUMPI POP JUMPDEST PUSH2 0x2241 DUP2 PUSH2 0x389F JUMP JUMPDEST SWAP1 PUSH2 0x224F PUSH1 0x40 MLOAD SWAP3 DUP4 PUSH2 0x28B7 JUMP JUMPDEST DUP1 DUP3 MSTORE PUSH1 0x1F NOT PUSH2 0x225E DUP3 PUSH2 0x389F JUMP JUMPDEST ADD CALLDATASIZE DUP5 DUP5 ADD CALLDATACOPY PUSH2 0x226D DUP2 PUSH2 0x38B6 JUMP JUMPDEST SWAP3 PUSH2 0x2277 DUP3 PUSH2 0x38B6 JUMP JUMPDEST SWAP2 PUSH1 0x0 JUMPDEST DUP2 DUP2 LT PUSH2 0x22BE JUMPI PUSH2 0x22A3 DUP6 PUSH2 0xE7A DUP7 PUSH2 0x22B0 DUP8 DUP12 PUSH1 0x40 MLOAD SWAP7 DUP8 SWAP7 PUSH1 0x60 DUP9 MSTORE PUSH1 0x60 DUP9 ADD SWAP1 PUSH2 0x255A JUMP JUMPDEST SWAP2 DUP7 DUP4 SUB SWAP1 DUP8 ADD MSTORE PUSH2 0x2597 JUMP JUMPDEST SWAP1 DUP4 DUP3 SUB PUSH1 0x40 DUP6 ADD MSTORE PUSH2 0x2597 JUMP JUMPDEST DUP1 PUSH2 0x22CB PUSH2 0x2343 SWAP3 PUSH2 0x2737 JUMP JUMPDEST SWAP1 SLOAD PUSH1 0x1 PUSH1 0x1 PUSH1 0xA0 SHL SUB SWAP2 PUSH1 0x3 SWAP2 SWAP1 DUP3 SHL SHR DUP3 AND PUSH2 0x22E9 DUP5 DUP11 PUSH2 0x38E8 JUMP JUMPDEST MSTORE DUP2 PUSH2 0x22F4 DUP5 PUSH2 0x2737 JUMP JUMPDEST SWAP1 SLOAD SWAP1 DUP4 SHL SHR AND PUSH1 0x0 MSTORE DUP6 DUP1 MSTORE PUSH1 0x2 PUSH1 0x40 PUSH1 0x0 KECCAK256 ADD SLOAD PUSH2 0x2314 DUP5 DUP12 PUSH2 0x38E8 JUMP JUMPDEST MSTORE PUSH2 0x231E DUP4 PUSH2 0x2737 JUMP JUMPDEST SWAP1 SLOAD SWAP2 SHL SHR AND PUSH1 0x0 MSTORE DUP4 DUP1 MSTORE PUSH1 0x1 PUSH1 0x40 PUSH1 0x0 KECCAK256 ADD SLOAD PUSH2 0x233D DUP3 DUP8 PUSH2 0x38E8 JUMP JUMPDEST MSTORE PUSH2 0x29BF JUMP JUMPDEST PUSH2 0x227B JUMP JUMPDEST SWAP1 POP PUSH2 0x2238 JUMP JUMPDEST CALLVALUE PUSH2 0x396 JUMPI PUSH1 0x0 CALLDATASIZE PUSH1 0x3 NOT ADD SLT PUSH2 0x396 JUMPI PUSH2 0x2368 PUSH2 0x295C JUMP JUMPDEST CALLER PUSH1 0x0 MSTORE PUSH1 0x1F PUSH1 0x20 MSTORE PUSH1 0x40 PUSH1 0x0 KECCAK256 SLOAD DUP1 ISZERO PUSH2 0x23D7 JUMPI CALLER PUSH1 0x0 MSTORE PUSH1 0x1F PUSH1 0x20 MSTORE PUSH1 0x0 PUSH1 0x40 DUP2 KECCAK256 SSTORE PUSH1 0x0 DUP1 DUP1 DUP1 DUP5 CALLER GAS CALL PUSH2 0x239E PUSH2 0x291D JUMP JUMPDEST POP ISZERO PUSH2 0x1B06 JUMPI PUSH1 0x40 MLOAD SWAP1 DUP2 MSTORE PUSH32 0x98741ECF35C5D20A8ED68DBD8540500684864A6C98C2A41A5844D0B3A2357D43 PUSH1 0x20 CALLER SWAP3 LOG2 PUSH1 0x1 PUSH1 0x0 SSTORE STOP JUMPDEST PUSH1 0x40 MLOAD PUSH3 0x461BCD PUSH1 0xE5 SHL DUP2 MSTORE PUSH1 0x20 PUSH1 0x4 DUP3 ADD MSTORE PUSH1 0x13 PUSH1 0x24 DUP3 ADD MSTORE PUSH19 0x4E6F207265776172647320746F20636C61696D PUSH1 0x68 SHL PUSH1 0x44 DUP3 ADD MSTORE PUSH1 0x64 SWAP1 REVERT JUMPDEST CALLVALUE PUSH2 0x396 JUMPI PUSH1 0x60 CALLDATASIZE PUSH1 0x3 NOT ADD SLT PUSH2 0x396 JUMPI PUSH1 0x44 CALLDATALOAD PUSH1 0x24 CALLDATALOAD PUSH1 0x4 CALLDATALOAD PUSH2 0x2434 PUSH2 0x27D7 JUMP JUMPDEST PUSH1 0x64 DUP2 GT PUSH2 0x24FD JUMPI PUSH9 0x56BC75E2D63100000 DUP3 GT PUSH2 0x24B8 JUMPI PUSH9 0x2B5E3AF16B1880000 DUP4 GT PUSH2 0x2467 JUMPI PUSH1 0x13 SSTORE PUSH1 0x14 SSTORE PUSH1 0x15 SSTORE STOP JUMPDEST PUSH1 0x40 MLOAD PUSH3 0x461BCD PUSH1 0xE5 SHL DUP2 MSTORE PUSH1 0x20 PUSH1 0x4 DUP3 ADD MSTORE PUSH1 0x23 PUSH1 0x24 DUP3 ADD MSTORE PUSH32 0x5261706964206D696E20706F6F6C2063616E6E6F742065786365656420353020 PUSH1 0x44 DUP3 ADD MSTORE PUSH3 0x54414F PUSH1 0xE8 SHL PUSH1 0x64 DUP3 ADD MSTORE PUSH1 0x84 SWAP1 REVERT JUMPDEST PUSH1 0x40 MLOAD PUSH3 0x461BCD PUSH1 0xE5 SHL DUP2 MSTORE PUSH1 0x20 PUSH1 0x4 DUP3 ADD MSTORE PUSH1 0x1E PUSH1 0x24 DUP3 ADD MSTORE PUSH32 0x4D696E20706F6F6C2063616E6E6F7420657863656564203130302054414F0000 PUSH1 0x44 DUP3 ADD MSTORE PUSH1 0x64 SWAP1 REVERT JUMPDEST PUSH1 0x40 MLOAD PUSH3 0x461BCD PUSH1 0xE5 SHL DUP2 MSTORE PUSH1 0x20 PUSH1 0x4 DUP3 ADD MSTORE PUSH1 0x1A PUSH1 0x24 DUP3 ADD MSTORE PUSH26 0x4D696E20626574732063616E6E6F74206578636565642031303 PUSH1 0x34 SHL PUSH1 0x44 DUP3 ADD MSTORE PUSH1 0x64 SWAP1 REVERT JUMPDEST CALLVALUE PUSH2 0x396 JUMPI PUSH1 0x0 CALLDATASIZE PUSH1 0x3 NOT ADD SLT PUSH2 0x396 JUMPI PUSH1 0x20 SWAP1 PUSH1 0x6 SLOAD DUP2 MSTORE RETURN JUMPDEST SWAP1 DUP2 MLOAD DUP1 DUP3 MSTORE PUSH1 0x20 DUP1 DUP1 SWAP4 ADD SWAP4 ADD SWAP2 PUSH1 0x0 JUMPDEST DUP3 DUP2 LT PUSH2 0x257A JUMPI POP POP POP POP SWAP1 JUMP JUMPDEST DUP4 MLOAD PUSH1 0x1 PUSH1 0x1 PUSH1 0xA0 SHL SUB AND DUP6 MSTORE SWAP4 DUP2 ADD SWAP4 SWAP3 DUP2 ADD SWAP3 PUSH1 0x1 ADD PUSH2 0x256C JUMP JUMPDEST SWAP1 DUP2 MLOAD DUP1 DUP3 MSTORE PUSH1 0x20 DUP1 DUP1 SWAP4 ADD SWAP4 ADD SWAP2 PUSH1 0x0 JUMPDEST DUP3 DUP2 LT PUSH2 0x25B7 JUMPI POP POP POP POP SWAP1 JUMP JUMPDEST DUP4 MLOAD DUP6 MSTORE SWAP4 DUP2 ADD SWAP4 SWAP3 DUP2 ADD SWAP3 PUSH1 0x1 ADD PUSH2 0x25A9 JUMP JUMPDEST PUSH1 0x24 CALLDATALOAD SWAP1 PUSH1 0x1 PUSH1 0x1 PUSH1 0xA0 SHL SUB DUP3 AND DUP3 SUB PUSH2 0x396 JUMPI JUMP JUMPDEST PUSH1 0x4 CALLDATALOAD SWAP1 PUSH1 0x1 PUSH1 0x1 PUSH1 0xA0 SHL SUB DUP3 AND DUP3 SUB PUSH2 0x396 JUMPI JUMP JUMPDEST PUSH1 0x40 SWAP1 PUSH1 0x3 NOT ADD SLT PUSH2 0x396 JUMPI PUSH1 0x4 CALLDATALOAD SWAP1 PUSH1 0x24 CALLDATALOAD SWAP1 JUMP JUMPDEST SWAP1 PUSH1 0x1 DUP3 LT ISZERO PUSH2 0xD92 JUMPI MSTORE JUMP JUMPDEST PUSH1 0x2 GT ISZERO PUSH2 0xD92 JUMPI JUMP JUMPDEST SWAP1 PUSH1 0x5 DUP3 LT ISZERO PUSH2 0xD92 JUMPI MSTORE JUMP JUMPDEST SWAP2 DUP2 PUSH1 0x1F DUP5 ADD SLT ISZERO PUSH2 0x396 JUMPI DUP3 CALLDATALOAD SWAP2 PUSH1 0x1 PUSH1 0x1 PUSH1 0x40 SHL SUB DUP4 GT PUSH2 0x396 JUMPI PUSH1 0x20 DUP4 DUP2 DUP7 ADD SWAP6 ADD ADD GT PUSH2 0x396 JUMPI JUMP JUMPDEST PUSH1 0x40 SWAP1 PUSH1 0x3 NOT ADD SLT PUSH2 0x396 JUMPI PUSH1 0x4 CALLDATALOAD SWAP1 PUSH1 0x24 CALLDATALOAD PUSH1 0x2 DUP2 LT ISZERO PUSH2 0x396 JUMPI SWAP1 JUMP JUMPDEST SWAP2 SWAP1 SWAP2 PUSH2 0x1C0 DUP2 ADD SWAP3 DUP1 MLOAD DUP3 MSTORE PUSH2 0x269C PUSH1 0x20 DUP3 ADD MLOAD PUSH1 0x20 DUP5 ADD SWAP1 PUSH2 0x260D JUMP JUMPDEST PUSH1 0x40 DUP2 ADD MLOAD PUSH2 0x26AA DUP2 PUSH2 0x261A JUMP JUMPDEST PUSH1 0x40 DUP4 ADD MSTORE PUSH2 0x26C1 PUSH1 0x60 DUP3 ADD MLOAD PUSH1 0x60 DUP5 ADD SWAP1 PUSH2 0x2624 JUMP JUMPDEST PUSH1 0x80 DUP2 ADD MLOAD PUSH1 0x80 DUP4 ADD MSTORE PUSH1 0xA0 DUP2 ADD MLOAD PUSH1 0xA0 DUP4 ADD MSTORE PUSH1 0xC0 DUP2 ADD MLOAD PUSH1 0xC0 DUP4 ADD MSTORE PUSH1 0xE0 DUP2 ADD MLOAD PUSH1 0xE0 DUP4 ADD MSTORE PUSH2 0x100 DUP1 DUP3 ADD MLOAD SWAP1 DUP4 ADD MSTORE PUSH2 0x120 DUP1 DUP3 ADD MLOAD SWAP1 DUP4 ADD MSTORE PUSH2 0x140 DUP1 DUP3 ADD MLOAD SWAP1 DUP4 ADD MSTORE PUSH2 0x160 DUP1 DUP3 ADD MLOAD SWAP1 PUSH2 0x271B DUP3 PUSH2 0x261A JUMP JUMPDEST DUP4 ADD MSTORE PUSH2 0x180 DUP1 DUP3 ADD MLOAD SWAP1 DUP4 ADD MSTORE PUSH2 0x1A0 DUP1 SWAP2 ADD MLOAD ISZERO ISZERO SWAP2 ADD MSTORE JUMP JUMPDEST PUSH1 0x21 SLOAD DUP2 LT ISZERO PUSH2 0x2752 JUMPI PUSH1 0x21 PUSH1 0x0 MSTORE PUSH1 0x20 PUSH1 0x0 KECCAK256 ADD SWAP1 PUSH1 0x0 SWAP1 JUMP JUMPDEST PUSH4 0x4E487B71 PUSH1 0xE0 SHL PUSH1 0x0 MSTORE PUSH1 0x32 PUSH1 0x4 MSTORE PUSH1 0x24 PUSH1 0x0 REVERT JUMPDEST DUP1 SLOAD DUP3 LT ISZERO PUSH2 0x2752 JUMPI PUSH1 0x0 MSTORE PUSH1 0x20 PUSH1 0x0 KECCAK256 ADD SWAP1 PUSH1 0x0 SWAP1 JUMP JUMPDEST PUSH1 0x60 SWAP1 PUSH1 0x3 NOT ADD SLT PUSH2 0x396 JUMPI PUSH1 0x4 CALLDATALOAD SWAP1 PUSH1 0x24 CALLDATALOAD PUSH1 0x1 PUSH1 0x1 PUSH1 0xA0 SHL SUB DUP2 AND DUP2 SUB PUSH2 0x396 JUMPI SWAP1 PUSH1 0x44 CALLDATALOAD PUSH1 0x2 DUP2 LT ISZERO PUSH2 0x396 JUMPI SWAP1 JUMP JUMPDEST DUP1 MLOAD DUP3 MSTORE PUSH1 0x20 DUP1 DUP3 ADD MLOAD ISZERO ISZERO SWAP1 DUP4 ADD MSTORE PUSH1 0x40 SWAP1 DUP2 ADD MLOAD PUSH1 0x1 PUSH1 0x1 PUSH1 0xA0 SHL SUB AND SWAP2 ADD MSTORE JUMP JUMPDEST PUSH1 0x1 SLOAD PUSH1 0x1 PUSH1 0x1 PUSH1 0xA0 SHL SUB AND CALLER SUB PUSH2 0x27EB JUMPI JUMP JUMPDEST PUSH1 0x64 PUSH1 0x40 MLOAD PUSH3 0x461BCD PUSH1 0xE5 SHL DUP2 MSTORE PUSH1 0x20 PUSH1 0x4 DUP3 ADD MSTORE PUSH1 0x20 PUSH1 0x24 DUP3 ADD MSTORE PUSH32 0x4F776E61626C653A2063616C6C6572206973206E6F7420746865206F776E6572 PUSH1 0x44 DUP3 ADD MSTORE REVERT JUMPDEST PUSH1 0x80 DUP2 ADD SWAP1 DUP2 LT PUSH1 0x1 PUSH1 0x1 PUSH1 0x40 SHL SUB DUP3 GT OR PUSH2 0xB42 JUMPI PUSH1 0x40 MSTORE JUMP JUMPDEST PUSH1 0xA0 DUP2 ADD SWAP1 DUP2 LT PUSH1 0x1 PUSH1 0x1 PUSH1 0x40 SHL SUB DUP3 GT OR PUSH2 0xB42 JUMPI PUSH1 0x40 MSTORE JUMP JUMPDEST PUSH2 0x1C0 DUP2 ADD SWAP1 DUP2 LT PUSH1 0x1 PUSH1 0x1 PUSH1 0x40 SHL SUB DUP3 GT OR PUSH2 0xB42 JUMPI PUSH1 0x40 MSTORE JUMP JUMPDEST PUSH1 0x40 DUP2 ADD SWAP1 DUP2 LT PUSH1 0x1 PUSH1 0x1 PUSH1 0x40 SHL SUB DUP3 GT OR PUSH2 0xB42 JUMPI PUSH1 0x40 MSTORE JUMP JUMPDEST PUSH1 0x60 DUP2 ADD SWAP1 DUP2 LT PUSH1 0x1 PUSH1 0x1 PUSH1 0x40 SHL SUB DUP3 GT OR PUSH2 0xB42 JUMPI PUSH1 0x40 MSTORE JUMP JUMPDEST PUSH1 0x1F SWAP1 SWAP2 ADD PUSH1 0x1F NOT AND DUP2 ADD SWAP1 PUSH1 0x1 PUSH1 0x1 PUSH1 0x40 SHL SUB DUP3 GT SWAP1 DUP3 LT OR PUSH2 0xB42 JUMPI PUSH1 0x40 MSTORE JUMP JUMPDEST SWAP1 PUSH2 0x28FF PUSH1 0x20 PUSH1 0x40 MLOAD DUP4 DUP2 SWAP5 DUP4 DUP4 ADD SWAP7 DUP8 CALLDATACOPY DUP2 ADD PUSH1 0x0 DUP4 DUP3 ADD MSTORE SUB DUP1 DUP5 MSTORE ADD DUP3 PUSH2 0x28B7 JUMP JUMPDEST MLOAD SWAP1 KECCAK256 PUSH1 0x0 SWAP1 DUP2 MSTORE PUSH1 0x1D PUSH1 0x20 MSTORE PUSH1 0x40 SWAP1 KECCAK256 SLOAD PUSH1 0x1 PUSH1 0x1 PUSH1 0xA0 SHL SUB AND SWAP1 JUMP JUMPDEST RETURNDATASIZE ISZERO PUSH2 0x2957 JUMPI RETURNDATASIZE SWAP1 PUSH1 0x1 PUSH1 0x1 PUSH1 0x40 SHL SUB DUP3 GT PUSH2 0xB42 JUMPI PUSH1 0x40 MLOAD SWAP2 PUSH2 0x294B PUSH1 0x1F DUP3 ADD PUSH1 0x1F NOT AND PUSH1 0x20 ADD DUP5 PUSH2 0x28B7 JUMP JUMPDEST DUP3 MSTORE RETURNDATASIZE PUSH1 0x0 PUSH1 0x20 DUP5 ADD RETURNDATACOPY JUMP JUMPDEST PUSH1 0x60 SWAP1 JUMP JUMPDEST PUSH1 0x2 PUSH1 0x0 SLOAD EQ PUSH2 0x296D JUMPI PUSH1 0x2 PUSH1 0x0 SSTORE JUMP JUMPDEST PUSH1 0x40 MLOAD PUSH3 0x461BCD PUSH1 0xE5 SHL DUP2 MSTORE PUSH1 0x20 PUSH1 0x4 DUP3 ADD MSTORE PUSH1 0x1F PUSH1 0x24 DUP3 ADD MSTORE PUSH32 0x5265656E7472616E637947756172643A207265656E7472616E742063616C6C00 PUSH1 0x44 DUP3 ADD MSTORE PUSH1 0x64 SWAP1 REVERT JUMPDEST SWAP2 SWAP1 DUP3 ADD DUP1 SWAP3 GT PUSH2 0x684 JUMPI JUMP JUMPDEST PUSH1 0x0 NOT DUP2 EQ PUSH2 0x684 JUMPI PUSH1 0x1 ADD SWAP1 JUMP JUMPDEST PUSH1 0x1 DUP3 LT ISZERO PUSH2 0xD92 JUMPI MSTORE JUMP JUMPDEST PUSH1 0x5 DUP3 LT ISZERO PUSH2 0xD92 JUMPI MSTORE JUMP JUMPDEST SWAP1 PUSH2 0x29F0 DUP2 PUSH2 0x261A JUMP JUMPDEST PUSH1 0xFF DUP1 NOT DUP4 SLOAD AND SWAP2 AND OR SWAP1 SSTORE JUMP JUMPDEST DUP2 DUP2 MUL SWAP3 SWAP2 DUP2 ISZERO SWAP2 DUP5 DIV EQ OR ISZERO PUSH2 0x684 JUMPI JUMP JUMPDEST DUP2 ISZERO PUSH2 0x2A1B JUMPI DIV SWAP1 JUMP JUMPDEST PUSH4 0x4E487B71 PUSH1 0xE0 SHL PUSH1 0x0 MSTORE PUSH1 0x12 PUSH1 0x4 MSTORE PUSH1 0x24 PUSH1 0x0 REVERT JUMPDEST SWAP2 SWAP1 DUP3 SUB SWAP2 DUP3 GT PUSH2 0x684 JUMPI JUMP JUMPDEST SWAP2 SWAP1 DUP3 SLOAD SWAP1 PUSH1 0x3 SHL SWAP2 PUSH1 0x1 DUP1 PUSH1 0xA0 SHL SUB DUP1 SWAP2 AND DUP4 SHL SWAP3 SHL NOT AND OR SWAP1 SSTORE JUMP JUMPDEST DUP1 ISZERO DUP1 ISZERO PUSH2 0x2D29 JUMPI JUMPDEST PUSH2 0xDCC JUMPI PUSH1 0x0 DUP2 DUP2 MSTORE PUSH1 0x20 SWAP1 PUSH1 0x17 DUP3 MSTORE PUSH1 0x40 DUP1 DUP3 KECCAK256 SWAP2 PUSH1 0x1 DUP4 ADD SWAP3 DUP4 SLOAD SWAP3 PUSH1 0xFF DUP5 PUSH1 0x10 SHR AND PUSH1 0x5 DUP2 LT ISZERO PUSH2 0x2D15 JUMPI PUSH1 0x1 SUB PUSH2 0x2D05 JUMPI PUSH1 0x7 DUP3 ADD SLOAD TIMESTAMP LT PUSH2 0x2CF5 JUMPI PUSH1 0x4 DUP3 ADD SWAP4 DUP5 SLOAD SWAP6 PUSH2 0x2ABD PUSH1 0x5 DUP6 ADD SWAP8 DUP9 SLOAD SWAP1 PUSH2 0x29B2 JUMP JUMPDEST SWAP5 PUSH1 0x2 DUP6 ADD SWAP3 DUP4 SLOAD SWAP7 PUSH1 0x1 PUSH1 0xFF PUSH2 0x2ADA PUSH1 0x3 DUP11 ADD SWAP11 DUP12 SLOAD SWAP1 PUSH2 0x29B2 JUMP JUMPDEST SWAP4 PUSH1 0x8 SHR AND PUSH2 0x2AE8 DUP2 PUSH2 0x261A JUMP JUMPDEST SUB PUSH2 0x2CEC JUMPI PUSH1 0x15 SLOAD SWAP1 JUMPDEST PUSH1 0x13 SLOAD GT SWAP2 DUP3 ISZERO PUSH2 0x2CE2 JUMPI JUMPDEST POP POP PUSH2 0x2C9F JUMPI DUP3 SLOAD DUP7 SLOAD DUP1 DUP3 EQ PUSH2 0x2C26 JUMPI POP POP SWAP3 DUP3 PUSH1 0xE0 SWAP9 SWAP6 SWAP3 DUP12 PUSH32 0x416DD9B4796469CF2903AD298B9814A0C229AEF0E99A8CDA19126EA6CEBAB8DF DUP5 DUP14 DUP2 PUSH32 0x8AB79F4C0E431955CD8B26254237E48BD01EE49391716594C2EE0EC505AA4D18 SWAP16 SWAP13 SWAP10 SWAP11 PUSH1 0xFF SWAP15 SWAP12 SLOAD DUP12 SLOAD GT PUSH1 0x0 EQ PUSH2 0x2C1E JUMPI DUP1 SWAP10 JUMPDEST PUSH2 0x2B81 DUP12 PUSH1 0x9 DUP4 ADD PUSH2 0x29E6 JUMP JUMPDEST PUSH1 0xB DUP2 ADD PUSH1 0xFF PUSH1 0x1 SWAP1 NOT DUP3 SLOAD AND OR SWAP1 SSTORE PUSH3 0x30000 PUSH3 0xFF0000 NOT DUP10 SLOAD AND OR DUP9 SSTORE PUSH1 0x8 TIMESTAMP SWAP2 ADD SSTORE DUP6 DUP2 MSTORE PUSH1 0xA DUP4 MSTORE PUSH1 0xB DUP3 DUP3 KECCAK256 SLOAD SWAP4 MSTORE KECCAK256 SLOAD PUSH2 0x2BC3 DUP3 PUSH1 0x9 SLOAD PUSH2 0x29B2 JUMP JUMPDEST PUSH1 0x9 SSTORE DUP3 MLOAD SWAP2 DUP3 MSTORE DUP13 DUP3 ADD MSTORE LOG2 SLOAD SWAP7 PUSH2 0x2BEF DUP10 DUP10 PUSH1 0x8 SHR AND SWAP3 SLOAD SWAP6 SLOAD SWAP7 SLOAD SWAP8 SLOAD SWAP9 DUP5 MLOAD SWAP11 DUP12 SWAP2 AND PUSH2 0x260D JUMP JUMPDEST PUSH2 0x2BF8 DUP3 PUSH2 0x261A JUMP JUMPDEST DUP9 ADD MSTORE PUSH2 0x2C04 DUP3 PUSH2 0x261A JUMP JUMPDEST DUP7 ADD MSTORE PUSH1 0x60 DUP6 ADD MSTORE PUSH1 0x80 DUP5 ADD MSTORE PUSH1 0xA0 DUP4 ADD MSTORE PUSH1 0xC0 DUP3 ADD MSTORE LOG2 JUMP JUMPDEST PUSH1 0x1 SWAP10 PUSH2 0x2B74 JUMP JUMPDEST SWAP2 POP SWAP2 POP DUP10 SWAP8 POP PUSH32 0x457861637420746965202D20726566756E64696E6720616C6C20626574730000 SWAP7 POP DUP4 DUP1 SWAP7 POP PUSH2 0x2C9D SWAP11 SWAP6 POP PUSH31 0xC62D58CBB6A9291254143347FDC129D33FC8550DBB03C801ABB5FCBA00470D SWAP5 SWAP4 POP MLOAD SWAP2 DUP3 MSTORE DUP9 DUP3 ADD MSTORE LOG2 MLOAD SWAP3 PUSH2 0x2C91 DUP5 PUSH2 0x2881 JUMP JUMPDEST PUSH1 0x1E DUP5 MSTORE DUP4 ADD MSTORE PUSH2 0x34A7 JUMP JUMPDEST JUMP JUMPDEST POP POP POP SWAP2 POP POP PUSH2 0x2C9D SWAP5 SWAP3 POP PUSH26 0x24B739BAB33334B1B4B2B73A103830B93A34B1B4B830BA34B7B7 PUSH1 0x31 SHL SWAP2 POP MLOAD SWAP3 PUSH2 0x2CD6 DUP5 PUSH2 0x2881 JUMP JUMPDEST PUSH1 0x1A DUP5 MSTORE DUP4 ADD MSTORE PUSH2 0x34A7 JUMP JUMPDEST LT SWAP1 POP CODESIZE DUP1 PUSH2 0x2AFE JUMP JUMPDEST PUSH1 0x14 SLOAD SWAP1 PUSH2 0x2AF2 JUMP JUMPDEST MLOAD PUSH4 0x658AEAD3 PUSH1 0xE0 SHL DUP2 MSTORE PUSH1 0x4 SWAP1 REVERT JUMPDEST MLOAD PUSH4 0x41D5C2CF PUSH1 0xE0 SHL DUP2 MSTORE PUSH1 0x4 SWAP1 REVERT JUMPDEST PUSH4 0x4E487B71 PUSH1 0xE0 SHL DUP5 MSTORE PUSH1 0x21 PUSH1 0x4 MSTORE PUSH1 0x24 DUP5 REVERT JUMPDEST POP PUSH1 0x2 SLOAD DUP2 LT ISZERO PUSH2 0x2A65 JUMP JUMPDEST DUP1 ISZERO DUP1 ISZERO PUSH2 0x2FD4 JUMPI JUMPDEST PUSH2 0xDCC JUMPI PUSH1 0x0 SWAP1 DUP1 DUP3 MSTORE PUSH1 0x20 PUSH1 0x17 DUP2 MSTORE PUSH1 0x40 DUP1 DUP5 KECCAK256 SWAP2 PUSH1 0x18 DUP2 MSTORE DUP2 DUP6 KECCAK256 CALLER DUP7 MSTORE DUP2 MSTORE DUP2 DUP6 KECCAK256 DUP6 DUP1 MSTORE DUP2 MSTORE DUP2 DUP6 KECCAK256 DUP1 SLOAD SWAP4 DUP5 ISZERO PUSH2 0x2FC3 JUMPI PUSH1 0x1 SWAP1 DUP2 DUP4 ADD SWAP6 DUP7 SLOAD SWAP1 PUSH1 0xFF SWAP2 DUP3 DUP2 AND PUSH2 0x2FB2 JUMPI DUP3 PUSH1 0xB DUP6 ADD SLOAD AND ISZERO DUP1 PUSH2 0x2F83 JUMPI JUMPDEST PUSH2 0x2F30 JUMPI POP POP DUP1 DUP4 DUP4 ADD SLOAD PUSH1 0x10 SHR AND PUSH1 0x5 DUP2 LT ISZERO PUSH2 0x2F1C JUMPI PUSH1 0x3 DUP2 EQ ISZERO SWAP1 DUP2 PUSH2 0x2F10 JUMPI JUMPDEST POP PUSH2 0x2EFF JUMPI PUSH1 0x9 DUP3 ADD DUP2 DUP2 SLOAD AND PUSH2 0x2DD0 DUP2 PUSH2 0x261A JUMP JUMPDEST PUSH2 0x2ED4 JUMPI SLOAD AND PUSH2 0x2DDF DUP2 PUSH2 0x261A JUMP JUMPDEST PUSH2 0x2ECB JUMPI PUSH1 0x2 ADD SLOAD JUMPDEST DUP3 SLOAD SWAP1 PUSH8 0xDE0B6B3A7640000 SWAP2 DUP3 DUP2 MUL SWAP1 DUP1 DUP3 DIV DUP5 EQ SWAP1 ISZERO OR ISZERO PUSH2 0x2EB7 JUMPI PUSH2 0x2E23 SWAP2 PUSH2 0x2E13 SWAP2 PUSH2 0x2A11 JUMP JUMPDEST DUP9 DUP11 MSTORE PUSH1 0x1A DUP7 MSTORE DUP7 DUP11 KECCAK256 SLOAD PUSH2 0x29FE JUMP JUMPDEST DIV SWAP5 DUP2 PUSH1 0xFF NOT DUP3 SLOAD AND OR SWAP1 SSTORE DUP5 PUSH2 0x2E90 JUMPI JUMPDEST CALLER DUP8 MSTORE DUP3 DUP1 MSTORE DUP4 DUP8 KECCAK256 ADD PUSH2 0x2E49 DUP2 SLOAD PUSH2 0x29BF JUMP JUMPDEST SWAP1 SSTORE CALLER DUP7 MSTORE DUP2 DUP1 MSTORE PUSH1 0x2 DUP4 DUP8 KECCAK256 ADD PUSH2 0x2E62 DUP6 DUP3 SLOAD PUSH2 0x29B2 JUMP JUMPDEST SWAP1 SSTORE PUSH2 0x2E6D CALLER PUSH2 0x359B JUMP JUMPDEST SLOAD SWAP1 DUP3 MLOAD SWAP6 DUP7 MSTORE DUP6 ADD MSTORE DUP4 ADD MSTORE PUSH1 0x0 DUP1 MLOAD PUSH1 0x20 PUSH2 0x3C3C DUP4 CODECOPY DUP2 MLOAD SWAP2 MSTORE PUSH1 0x60 CALLER SWAP4 LOG3 JUMP JUMPDEST DUP7 DUP1 DUP1 DUP1 DUP9 CALLER GAS CALL PUSH2 0x2EA0 PUSH2 0x291D JUMP JUMPDEST POP PUSH2 0x2E35 JUMPI JUMPDEST DUP4 MLOAD PUSH4 0x12171D83 PUSH1 0xE3 SHL DUP2 MSTORE PUSH1 0x4 SWAP1 REVERT JUMPDEST PUSH4 0x4E487B71 PUSH1 0xE0 SHL DUP11 MSTORE PUSH1 0x11 PUSH1 0x4 MSTORE PUSH1 0x24 DUP11 REVERT JUMPDEST PUSH1 0x3 ADD SLOAD PUSH2 0x2DE8 JUMP JUMPDEST POP POP POP SWAP1 POP PUSH1 0x3 SWAP6 SWAP4 SWAP2 SWAP3 SWAP5 POP PUSH1 0xFF NOT DUP3 SLOAD AND OR SWAP1 SSTORE CALLER DUP3 MSTORE DUP1 MSTORE KECCAK256 ADD PUSH2 0x2EFB DUP2 SLOAD PUSH2 0x29BF JUMP JUMPDEST SWAP1 SSTORE JUMP JUMPDEST DUP6 MLOAD PUSH4 0x60829305 PUSH1 0xE1 SHL DUP2 MSTORE PUSH1 0x4 SWAP1 REVERT JUMPDEST PUSH1 0x4 SWAP2 POP EQ ISZERO CODESIZE PUSH2 0x2DBA JUMP JUMPDEST PUSH4 0x4E487B71 PUSH1 0xE0 SHL DUP11 MSTORE PUSH1 0x21 PUSH1 0x4 MSTORE PUSH1 0x24 DUP11 REVERT JUMPDEST SWAP3 POP SWAP6 SWAP7 SWAP4 POP POP PUSH1 0xFF NOT AND OR SWAP1 SSTORE DUP5 DUP1 DUP1 DUP1 DUP6 CALLER GAS CALL PUSH2 0x2F4E PUSH2 0x291D JUMP JUMPDEST POP ISZERO PUSH2 0x2F72 JUMPI DUP3 MLOAD SWAP5 DUP6 MSTORE DUP5 ADD MSTORE CALLER SWAP3 PUSH1 0x0 DUP1 MLOAD PUSH1 0x20 PUSH2 0x3C5C DUP4 CODECOPY DUP2 MLOAD SWAP2 MSTORE SWAP2 SWAP1 LOG3 JUMP JUMPDEST DUP3 MLOAD PUSH4 0x12171D83 PUSH1 0xE3 SHL DUP2 MSTORE PUSH1 0x4 SWAP1 REVERT JUMPDEST POP DUP3 DUP6 DUP6 ADD SLOAD PUSH1 0x10 SHR AND PUSH1 0x5 DUP2 LT ISZERO PUSH2 0x2F9E JUMPI PUSH1 0x4 EQ PUSH2 0x2D96 JUMP JUMPDEST PUSH4 0x4E487B71 PUSH1 0xE0 SHL DUP13 MSTORE PUSH1 0x21 PUSH1 0x4 MSTORE PUSH1 0x24 DUP13 REVERT JUMPDEST DUP8 MLOAD PUSH4 0xC8D9EAB PUSH1 0xE3 SHL DUP2 MSTORE PUSH1 0x4 SWAP1 REVERT JUMPDEST DUP4 MLOAD PUSH4 0x2F42CBDD PUSH1 0xE0 SHL DUP2 MSTORE PUSH1 0x4 SWAP1 REVERT JUMPDEST POP PUSH1 0x2 SLOAD DUP2 LT ISZERO PUSH2 0x2D3E JUMP JUMPDEST DUP1 ISZERO DUP1 ISZERO PUSH2 0x31E1 JUMPI JUMPDEST PUSH2 0xDCC JUMPI PUSH1 0x0 SWAP1 DUP1 DUP3 MSTORE PUSH1 0x20 PUSH1 0x17 DUP2 MSTORE PUSH1 0x40 DUP1 DUP5 KECCAK256 SWAP2 PUSH1 0x18 DUP2 MSTORE DUP2 DUP6 KECCAK256 CALLER DUP7 MSTORE DUP2 MSTORE DUP2 DUP6 KECCAK256 SWAP5 PUSH1 0x1 SWAP6 DUP7 DUP3 MSTORE DUP3 MSTORE DUP3 DUP2 KECCAK256 SWAP1 DUP2 SLOAD SWAP5 DUP6 ISZERO PUSH2 0x31D0 JUMPI DUP8 DUP4 ADD SWAP6 DUP7 SLOAD SWAP1 PUSH1 0xFF SWAP2 DUP3 DUP2 AND PUSH2 0x2FB2 JUMPI DUP11 SWAP1 DUP4 PUSH1 0xB DUP7 ADD SLOAD AND ISZERO DUP1 PUSH2 0x319E JUMPI JUMPDEST PUSH2 0x3180 JUMPI POP DUP3 SWAP2 POP DUP4 ADD SLOAD PUSH1 0x10 SHR AND PUSH1 0x5 DUP2 LT ISZERO PUSH2 0x2D15 JUMPI PUSH1 0x3 DUP2 EQ ISZERO SWAP1 DUP2 PUSH2 0x3174 JUMPI JUMPDEST POP PUSH2 0x2EFF JUMPI PUSH1 0x9 DUP3 ADD DUP2 DUP2 SLOAD AND PUSH2 0x307F DUP2 PUSH2 0x261A JUMP JUMPDEST DUP11 SUB PUSH2 0x314E JUMPI SLOAD AND PUSH2 0x3090 DUP2 PUSH2 0x261A JUMP JUMPDEST PUSH2 0x3145 JUMPI PUSH1 0x2 ADD SLOAD JUMPDEST DUP3 SLOAD SWAP1 PUSH8 0xDE0B6B3A7640000 SWAP2 DUP3 DUP2 MUL SWAP1 DUP1 DUP3 DIV DUP5 EQ SWAP1 ISZERO OR ISZERO PUSH2 0x3131 JUMPI PUSH2 0x30D4 SWAP2 PUSH2 0x30C4 SWAP2 PUSH2 0x2A11 JUMP JUMPDEST DUP9 DUP5 MSTORE PUSH1 0x1A DUP7 MSTORE DUP7 DUP5 KECCAK256 SLOAD PUSH2 0x29FE JUMP JUMPDEST DIV SWAP5 DUP8 PUSH1 0xFF NOT DUP3 SLOAD AND OR SWAP1 SSTORE DUP4 DUP6 PUSH2 0x3114 JUMPI JUMPDEST PUSH1 0x2 SWAP2 CALLER DUP2 MSTORE DUP5 DUP1 MSTORE DUP9 DUP3 DUP3 KECCAK256 ADD PUSH2 0x30FF DUP2 SLOAD PUSH2 0x29BF JUMP JUMPDEST SWAP1 SSTORE CALLER DUP2 MSTORE DUP5 DUP1 MSTORE KECCAK256 ADD PUSH2 0x2E62 DUP6 DUP3 SLOAD PUSH2 0x29B2 JUMP JUMPDEST POP DUP1 DUP1 DUP1 DUP1 DUP9 CALLER GAS CALL PUSH2 0x3125 PUSH2 0x291D JUMP JUMPDEST POP ISZERO PUSH2 0x2EA6 JUMPI DUP4 PUSH2 0x30E7 JUMP JUMPDEST PUSH4 0x4E487B71 PUSH1 0xE0 SHL DUP5 MSTORE PUSH1 0x11 PUSH1 0x4 MSTORE PUSH1 0x24 DUP5 REVERT JUMPDEST PUSH1 0x3 ADD SLOAD PUSH2 0x3099 JUMP JUMPDEST POP POP POP SWAP4 SWAP2 SWAP3 SWAP5 POP POP PUSH1 0x3 SWAP5 PUSH1 0xFF NOT DUP3 SLOAD AND OR SWAP1 SSTORE CALLER DUP3 MSTORE DUP1 MSTORE KECCAK256 ADD PUSH2 0x2EFB DUP2 SLOAD PUSH2 0x29BF JUMP JUMPDEST PUSH1 0x4 SWAP2 POP EQ ISZERO CODESIZE PUSH2 0x3069 JUMP JUMPDEST PUSH1 0xFF NOT AND OR SWAP1 SWAP8 SSTORE POP SWAP4 SWAP5 SWAP4 POP SWAP1 POP DUP1 DUP1 DUP1 DUP6 CALLER GAS CALL PUSH2 0x2F4E PUSH2 0x291D JUMP JUMPDEST POP SWAP1 DUP5 ADD SLOAD PUSH1 0x10 SHR DUP4 AND PUSH1 0x5 DUP2 LT ISZERO PUSH2 0x31BC JUMPI SWAP1 PUSH1 0x4 DUP13 SWAP3 EQ PUSH2 0x3045 JUMP JUMPDEST PUSH4 0x4E487B71 PUSH1 0xE0 SHL DUP7 MSTORE PUSH1 0x21 PUSH1 0x4 MSTORE PUSH1 0x24 DUP7 REVERT JUMPDEST DUP5 MLOAD PUSH4 0x2F42CBDD PUSH1 0xE0 SHL DUP2 MSTORE PUSH1 0x4 SWAP1 REVERT JUMPDEST POP PUSH1 0x2 SLOAD DUP2 LT ISZERO PUSH2 0x2FE9 JUMP JUMPDEST DUP1 ISZERO DUP1 ISZERO PUSH2 0x349B JUMPI JUMPDEST PUSH2 0xDCC JUMPI PUSH1 0x0 DUP2 DUP2 MSTORE PUSH1 0x20 PUSH1 0x17 DUP2 MSTORE PUSH1 0x40 SWAP1 DUP2 DUP4 KECCAK256 SWAP3 PUSH1 0x18 DUP3 MSTORE DUP3 DUP2 KECCAK256 CALLER DUP3 MSTORE DUP3 MSTORE DUP3 DUP2 KECCAK256 PUSH2 0x3224 DUP8 PUSH2 0x261A JUMP JUMPDEST DUP7 DUP3 MSTORE DUP3 MSTORE DUP3 DUP2 KECCAK256 SWAP1 DUP2 SLOAD SWAP5 DUP6 ISZERO PUSH2 0x31D0 JUMPI PUSH1 0x1 SWAP1 DUP2 DUP5 ADD SWAP7 DUP8 SLOAD SWAP1 PUSH1 0xFF SWAP2 DUP3 DUP2 AND PUSH2 0x348A JUMPI DUP3 PUSH1 0xB DUP6 ADD SLOAD AND ISZERO DUP1 PUSH2 0x345B JUMPI JUMPDEST PUSH2 0x340F JUMPI POP POP DUP1 DUP4 DUP4 ADD SLOAD PUSH1 0x10 SHR AND PUSH1 0x5 DUP2 LT ISZERO PUSH2 0x33FB JUMPI PUSH1 0x3 DUP2 EQ ISZERO SWAP1 DUP2 PUSH2 0x33EF JUMPI JUMPDEST POP PUSH2 0x33DE JUMPI PUSH1 0x9 DUP3 ADD DUP2 DUP2 SLOAD AND PUSH2 0x3292 DUP2 PUSH2 0x261A JUMP JUMPDEST PUSH2 0x329B DUP13 PUSH2 0x261A JUMP JUMPDEST DUP12 SUB PUSH2 0x33B6 JUMPI SLOAD AND PUSH2 0x32AC DUP2 PUSH2 0x261A JUMP JUMPDEST PUSH2 0x33AD JUMPI PUSH1 0x2 ADD SLOAD JUMPDEST DUP4 SLOAD SWAP1 PUSH8 0xDE0B6B3A7640000 SWAP2 DUP3 DUP2 MUL SWAP1 DUP1 DUP3 DIV DUP5 EQ SWAP1 ISZERO OR ISZERO PUSH2 0x3399 JUMPI PUSH2 0x32E3 DUP9 SWAP5 SWAP4 SWAP3 PUSH2 0x32F3 SWAP3 PUSH2 0x2A11 JUMP JUMPDEST DUP11 DUP7 MSTORE PUSH1 0x1A DUP9 MSTORE DUP5 DUP7 KECCAK256 SLOAD PUSH2 0x29FE JUMP JUMPDEST DIV SWAP7 DUP2 PUSH1 0xFF NOT DUP3 SLOAD AND OR SWAP1 SSTORE DUP7 PUSH2 0x3369 JUMPI JUMPDEST SWAP2 PUSH1 0x2 SWAP3 CALLER DUP3 MSTORE DUP6 DUP1 MSTORE DUP3 DUP3 KECCAK256 ADD PUSH2 0x331D DUP2 SLOAD PUSH2 0x29BF JUMP JUMPDEST SWAP1 SSTORE CALLER DUP2 MSTORE DUP5 DUP1 MSTORE KECCAK256 ADD PUSH2 0x3332 DUP6 DUP3 SLOAD PUSH2 0x29B2 JUMP JUMPDEST SWAP1 SSTORE PUSH2 0x333D CALLER PUSH2 0x359B JUMP JUMPDEST SLOAD SWAP1 DUP3 MLOAD SWAP6 PUSH2 0x334B DUP2 PUSH2 0x261A JUMP JUMPDEST DUP7 MSTORE DUP6 ADD MSTORE DUP4 ADD MSTORE PUSH1 0x0 DUP1 MLOAD PUSH1 0x20 PUSH2 0x3C3C DUP4 CODECOPY DUP2 MLOAD SWAP2 MSTORE PUSH1 0x60 CALLER SWAP4 LOG3 JUMP JUMPDEST SWAP1 POP DUP2 DUP1 DUP1 DUP1 DUP10 CALLER GAS CALL PUSH2 0x337B PUSH2 0x291D JUMP JUMPDEST POP ISZERO PUSH2 0x3388 JUMPI DUP5 SWAP1 PUSH2 0x3305 JUMP JUMPDEST DUP5 MLOAD PUSH4 0x12171D83 PUSH1 0xE3 SHL DUP2 MSTORE PUSH1 0x4 SWAP1 REVERT JUMPDEST PUSH4 0x4E487B71 PUSH1 0xE0 SHL DUP6 MSTORE PUSH1 0x11 PUSH1 0x4 MSTORE PUSH1 0x24 DUP6 REVERT JUMPDEST PUSH1 0x3 ADD SLOAD PUSH2 0x32B5 JUMP JUMPDEST POP POP POP SWAP2 POP SWAP4 SWAP2 SWAP3 SWAP5 POP PUSH1 0x3 SWAP6 POP PUSH1 0xFF NOT DUP3 SLOAD AND OR SWAP1 SSTORE CALLER DUP3 MSTORE DUP1 MSTORE KECCAK256 ADD PUSH2 0x2EFB DUP2 SLOAD PUSH2 0x29BF JUMP JUMPDEST DUP7 MLOAD PUSH4 0x60829305 PUSH1 0xE1 SHL DUP2 MSTORE PUSH1 0x4 SWAP1 REVERT JUMPDEST PUSH1 0x4 SWAP2 POP EQ ISZERO CODESIZE PUSH2 0x327C JUMP JUMPDEST PUSH4 0x4E487B71 PUSH1 0xE0 SHL DUP6 MSTORE PUSH1 0x21 PUSH1 0x4 MSTORE PUSH1 0x24 DUP6 REVERT JUMPDEST SWAP3 POP SWAP7 SWAP8 SWAP4 SWAP5 POP POP PUSH1 0xFF NOT AND OR SWAP1 SSTORE DUP1 DUP1 DUP1 DUP6 CALLER GAS CALL PUSH2 0x342D PUSH2 0x291D JUMP JUMPDEST POP ISZERO PUSH2 0x2F72 JUMPI SWAP1 DUP3 SWAP2 PUSH1 0x0 DUP1 MLOAD PUSH1 0x20 PUSH2 0x3C5C DUP4 CODECOPY DUP2 MLOAD SWAP2 MSTORE SWAP4 MLOAD SWAP6 PUSH2 0x3451 DUP2 PUSH2 0x261A JUMP JUMPDEST DUP7 MSTORE DUP6 ADD MSTORE CALLER SWAP4 LOG3 JUMP JUMPDEST POP DUP3 DUP6 DUP6 ADD SLOAD PUSH1 0x10 SHR AND PUSH1 0x5 DUP2 LT ISZERO PUSH2 0x3476 JUMPI PUSH1 0x4 EQ PUSH2 0x3258 JUMP JUMPDEST PUSH4 0x4E487B71 PUSH1 0xE0 SHL DUP8 MSTORE PUSH1 0x21 PUSH1 0x4 MSTORE PUSH1 0x24 DUP8 REVERT JUMPDEST DUP9 MLOAD PUSH4 0xC8D9EAB PUSH1 0xE3 SHL DUP2 MSTORE PUSH1 0x4 SWAP1 REVERT JUMPDEST POP PUSH1 0x2 SLOAD DUP2 LT ISZERO PUSH2 0x31F6 JUMP JUMPDEST SWAP1 PUSH1 0x0 DUP3 DUP2 MSTORE PUSH1 0x20 SWAP2 PUSH1 0x17 DUP4 MSTORE PUSH1 0x40 SWAP2 PUSH1 0xB DUP4 DUP3 KECCAK256 PUSH1 0xA DUP7 MSTORE PUSH2 0x34D4 DUP6 DUP5 KECCAK256 SLOAD DUP4 DUP9 MSTORE DUP7 DUP6 KECCAK256 SLOAD SWAP1 PUSH2 0x29B2 JUMP JUMPDEST DUP8 DUP5 MSTORE PUSH1 0x1A DUP8 MSTORE PUSH2 0x34E9 DUP7 DUP6 KECCAK256 SWAP2 DUP3 SLOAD PUSH2 0x29B2 JUMP JUMPDEST SWAP1 SSTORE DUP7 DUP4 MSTORE PUSH1 0xA DUP7 MSTORE DUP3 DUP6 DUP2 KECCAK256 SSTORE DUP2 DUP7 MSTORE DUP3 DUP6 DUP2 KECCAK256 SSTORE PUSH2 0x3512 PUSH1 0x2 DUP3 ADD SLOAD PUSH1 0x3 DUP4 ADD SLOAD SWAP1 PUSH2 0x29B2 JUMP JUMPDEST PUSH1 0xA DUP3 ADD SSTORE PUSH1 0x1 DUP2 ADD PUSH3 0x40000 PUSH3 0xFF0000 NOT DUP3 SLOAD AND OR SWAP1 SSTORE ADD PUSH1 0xFF NOT DUP2 SLOAD AND SWAP1 SSTORE DUP3 MLOAD SWAP4 DUP1 DUP6 MSTORE DUP3 MLOAD SWAP3 DUP4 DUP3 DUP8 ADD MSTORE DUP3 JUMPDEST DUP5 DUP2 LT PUSH2 0x3588 JUMPI POP POP POP SWAP3 DUP2 PUSH32 0xF023B047BE6C305859504186F8B03EE5A634F9AB472FF386D3B1DE9387C083E SWAP5 DUP5 DUP4 SWAP6 SWAP5 DUP5 ADD ADD MSTORE PUSH1 0x1F DUP1 NOT SWAP2 ADD AND DUP2 ADD SUB ADD SWAP1 LOG2 JUMP JUMPDEST DUP2 DUP2 ADD DUP4 ADD MLOAD DUP8 DUP3 ADD DUP8 ADD MSTORE DUP3 ADD PUSH2 0x3543 JUMP JUMPDEST SWAP1 PUSH1 0x1 DUP1 PUSH1 0xA0 SHL SUB SWAP2 DUP3 DUP2 AND SWAP3 PUSH1 0x0 SWAP3 DUP5 DUP5 MSTORE PUSH1 0x20 DUP1 DUP1 MSTORE PUSH1 0x2 PUSH1 0x40 SWAP5 DUP2 DUP7 DUP9 KECCAK256 ADD SLOAD SWAP1 DUP8 SWAP9 DUP9 DUP10 SWAP2 PUSH1 0x21 SLOAD SWAP3 JUMPDEST DUP4 DUP2 LT PUSH2 0x37AF JUMPI JUMPDEST POP POP ISZERO PUSH2 0x36D1 JUMPI JUMPDEST POP POP POP SWAP6 JUMPDEST DUP1 ISZERO DUP1 ISZERO DUP1 PUSH2 0x3682 JUMPI JUMPDEST ISZERO PUSH2 0x3678 JUMPI PUSH1 0x0 NOT DUP3 ADD SWAP2 DUP1 DUP4 GT PUSH2 0x3664 JUMPI PUSH2 0x3639 PUSH2 0x363E DUP8 PUSH2 0x364A SWAP4 PUSH2 0x360E DUP8 PUSH2 0x2737 JUMP JUMPDEST SWAP4 SWAP1 SLOAD SWAP2 PUSH2 0x361B DUP2 PUSH2 0x2737 JUMP JUMPDEST SWAP7 SWAP1 SLOAD SWAP7 PUSH1 0x3 SWAP8 DUP7 PUSH2 0x362C DUP14 PUSH2 0x2737 JUMP JUMPDEST SWAP3 SWAP1 SWAP4 DUP12 SHL SHR AND SWAP2 PUSH2 0x2A3E JUMP JUMPDEST PUSH2 0x2737 JUMP JUMPDEST SWAP4 SWAP1 SWAP5 SHL SHR AND SWAP2 PUSH2 0x2A3E JUMP JUMPDEST ISZERO PUSH2 0x35DE JUMPI JUMPDEST PUSH4 0x4E487B71 PUSH1 0xE0 SHL DUP7 MSTORE PUSH1 0x11 PUSH1 0x4 MSTORE PUSH1 0x24 DUP7 REVERT JUMPDEST PUSH4 0x4E487B71 PUSH1 0xE0 SHL DUP9 MSTORE PUSH1 0x11 PUSH1 0x4 MSTORE PUSH1 0x24 DUP9 REVERT JUMPDEST POP POP POP SWAP4 POP POP POP POP JUMP JUMPDEST POP DUP5 PUSH2 0x368D DUP4 PUSH2 0x2737 JUMP JUMPDEST SWAP2 SWAP1 SLOAD PUSH1 0x3 SWAP3 DUP4 SHL SHR AND DUP9 MSTORE DUP4 DUP1 MSTORE DUP9 DUP8 DUP10 KECCAK256 ADD SLOAD SWAP1 PUSH1 0x0 NOT DUP5 ADD DUP5 DUP2 GT PUSH2 0x2EB7 JUMPI SWAP1 PUSH2 0x36BA DUP9 SWAP3 PUSH2 0x2737 JUMP JUMPDEST SWAP1 SLOAD SWAP2 SHL SHR AND DUP9 MSTORE DUP4 DUP1 MSTORE DUP9 DUP8 DUP10 KECCAK256 ADD SLOAD LT PUSH2 0x35E8 JUMP JUMPDEST SWAP3 SWAP9 POP SWAP1 SWAP2 PUSH1 0x64 DUP2 LT ISZERO PUSH2 0x373B JUMPI POP PUSH1 0x21 SLOAD SWAP1 SWAP2 POP PUSH1 0x1 PUSH1 0x40 SHL DUP2 LT ISZERO PUSH2 0x3727 JUMPI SWAP1 PUSH2 0x3706 DUP3 PUSH1 0x1 PUSH2 0x370C SWAP5 ADD PUSH1 0x21 SSTORE PUSH2 0x2737 JUMP JUMPDEST SWAP1 PUSH2 0x2A3E JUMP JUMPDEST PUSH1 0x21 SLOAD PUSH1 0x0 NOT DUP2 ADD SWAP1 DUP2 GT PUSH2 0x3650 JUMPI DUP4 SWAP1 SWAP7 JUMPDEST SWAP1 CODESIZE DUP1 PUSH2 0x35D9 JUMP JUMPDEST PUSH4 0x4E487B71 PUSH1 0xE0 SHL DUP8 MSTORE PUSH1 0x41 PUSH1 0x4 MSTORE PUSH1 0x24 DUP8 REVERT JUMPDEST PUSH1 0x0 NOT SWAP3 DUP2 DUP5 ADD SWAP2 DUP3 GT PUSH2 0x379B JUMPI DUP7 PUSH2 0x3753 DUP4 PUSH2 0x2737 JUMP JUMPDEST SWAP1 SLOAD SWAP1 PUSH1 0x3 SHL SHR AND DUP10 MSTORE DUP5 DUP1 MSTORE DUP10 DUP9 DUP11 KECCAK256 ADD SLOAD LT PUSH1 0x0 EQ PUSH2 0x3790 JUMPI SWAP1 PUSH2 0x3706 PUSH2 0x377B SWAP3 PUSH2 0x2737 JUMP JUMPDEST PUSH1 0x21 SLOAD SWAP1 DUP2 ADD SWAP1 DUP2 GT PUSH2 0x3650 JUMPI DUP4 SWAP1 SWAP7 PUSH2 0x371F JUMP JUMPDEST POP POP POP POP SWAP4 POP POP POP POP JUMP JUMPDEST PUSH4 0x4E487B71 PUSH1 0xE0 SHL DUP10 MSTORE PUSH1 0x11 PUSH1 0x4 MSTORE PUSH1 0x24 DUP10 REVERT JUMPDEST DUP2 DUP11 PUSH2 0x37BA DUP4 PUSH2 0x2737 JUMP JUMPDEST SWAP1 SLOAD SWAP1 PUSH1 0x3 SHL SHR AND EQ PUSH2 0x37D5 JUMPI PUSH2 0x37D0 SWAP1 PUSH2 0x29BF JUMP JUMPDEST PUSH2 0x35C9 JUMP JUMPDEST SWAP12 POP POP POP PUSH1 0x1 CODESIZE DUP1 PUSH2 0x35D1 JUMP JUMPDEST PUSH1 0x40 MLOAD SWAP1 PUSH2 0x37EF DUP3 PUSH2 0x2865 JUMP JUMPDEST DUP2 PUSH2 0x1A0 PUSH1 0x0 SWAP2 DUP3 DUP2 MSTORE DUP3 PUSH1 0x20 DUP3 ADD MSTORE DUP3 PUSH1 0x40 DUP3 ADD MSTORE DUP3 PUSH1 0x60 DUP3 ADD MSTORE DUP3 PUSH1 0x80 DUP3 ADD MSTORE DUP3 PUSH1 0xA0 DUP3 ADD MSTORE DUP3 PUSH1 0xC0 DUP3 ADD MSTORE DUP3 PUSH1 0xE0 DUP3 ADD MSTORE DUP3 PUSH2 0x100 DUP3 ADD MSTORE DUP3 PUSH2 0x120 DUP3 ADD MSTORE DUP3 PUSH2 0x140 DUP3 ADD MSTORE DUP3 PUSH2 0x160 DUP3 ADD MSTORE DUP3 PUSH2 0x180 DUP3 ADD MSTORE ADD MSTORE JUMP JUMPDEST PUSH1 0x40 MLOAD SWAP1 PUSH2 0x3857 DUP3 PUSH2 0x289C JUMP JUMPDEST PUSH1 0x0 PUSH1 0x40 DUP4 DUP3 DUP2 MSTORE DUP3 PUSH1 0x20 DUP3 ADD MSTORE ADD MSTORE JUMP JUMPDEST SWAP1 PUSH1 0x40 MLOAD PUSH2 0x3876 DUP2 PUSH2 0x289C JUMP JUMPDEST DUP3 SLOAD DUP2 MSTORE PUSH1 0x1 SWAP3 SWAP1 SWAP3 ADD SLOAD PUSH1 0xFF DUP2 AND ISZERO ISZERO PUSH1 0x20 DUP5 ADD MSTORE PUSH1 0x8 SHR PUSH1 0x1 PUSH1 0x1 PUSH1 0xA0 SHL SUB AND PUSH1 0x40 DUP4 ADD MSTORE JUMP JUMPDEST PUSH1 0x1 PUSH1 0x1 PUSH1 0x40 SHL SUB DUP2 GT PUSH2 0xB42 JUMPI PUSH1 0x5 SHL PUSH1 0x20 ADD SWAP1 JUMP JUMPDEST SWAP1 PUSH2 0x38C0 DUP3 PUSH2 0x389F JUMP JUMPDEST PUSH2 0x38CD PUSH1 0x40 MLOAD SWAP2 DUP3 PUSH2 0x28B7 JUMP JUMPDEST DUP3 DUP2 MSTORE DUP1 SWAP3 PUSH2 0x38DE PUSH1 0x1F NOT SWAP2 PUSH2 0x389F JUMP JUMPDEST ADD SWAP1 PUSH1 0x20 CALLDATASIZE SWAP2 ADD CALLDATACOPY JUMP JUMPDEST DUP1 MLOAD DUP3 LT ISZERO PUSH2 0x2752 JUMPI PUSH1 0x20 SWAP2 PUSH1 0x5 SHL ADD ADD SWAP1 JUMP JUMPDEST SWAP1 SWAP2 DUP2 ISZERO DUP1 ISZERO PUSH2 0x39BE JUMPI JUMPDEST PUSH2 0x39B5 JUMPI PUSH2 0x399D PUSH2 0x39A3 SWAP3 PUSH1 0xA PUSH2 0x3995 PUSH2 0x39A8 SWAP8 PUSH1 0x0 SWAP4 DUP5 MSTORE PUSH1 0x17 PUSH1 0x20 MSTORE PUSH1 0x40 DUP5 KECCAK256 SWAP8 PUSH1 0x18 PUSH1 0x20 MSTORE PUSH1 0x40 DUP6 KECCAK256 SWAP1 PUSH1 0x1 DUP1 PUSH1 0xA0 SHL SUB AND DUP6 MSTORE PUSH1 0x20 MSTORE PUSH1 0x40 DUP5 KECCAK256 PUSH2 0x394E DUP8 PUSH2 0x261A JUMP JUMPDEST DUP7 DUP6 MSTORE PUSH1 0x20 MSTORE PUSH2 0x3962 DUP2 PUSH1 0x40 DUP7 KECCAK256 SLOAD PUSH2 0x29B2 JUMP JUMPDEST SWAP6 PUSH2 0x397C PUSH2 0x2710 PUSH2 0x3975 PUSH1 0x3 SLOAD DUP6 PUSH2 0x29FE JUMP JUMPDEST DIV DUP4 PUSH2 0x2A31 JUMP JUMPDEST SWAP5 PUSH2 0x3986 DUP3 PUSH2 0x261A JUMP JUMPDEST POP PUSH2 0x39AB JUMPI PUSH1 0x2 DUP9 ADD SLOAD PUSH2 0x29B2 JUMP JUMPDEST SWAP6 ADD SLOAD PUSH2 0x29B2 JUMP JUMPDEST SWAP1 PUSH2 0x29FE JUMP JUMPDEST PUSH2 0x2A11 JUMP JUMPDEST SWAP1 JUMP JUMPDEST PUSH1 0x3 DUP9 ADD SLOAD PUSH2 0x29B2 JUMP JUMPDEST POP POP POP POP PUSH1 0x0 SWAP1 JUMP JUMPDEST POP PUSH1 0x2 SLOAD DUP3 LT ISZERO PUSH2 0x3907 JUMP JUMPDEST SWAP2 SWAP1 DUP3 ISZERO DUP1 ISZERO PUSH2 0x3A3C JUMPI JUMPDEST PUSH2 0x3A34 JUMPI PUSH1 0x0 SWAP3 DUP4 MSTORE PUSH1 0x17 PUSH1 0x20 MSTORE PUSH1 0x40 DUP4 KECCAK256 SWAP1 PUSH2 0x39F1 DUP2 PUSH2 0x261A JUMP JUMPDEST PUSH2 0x3A29 JUMPI PUSH1 0x2 DUP2 ADD SLOAD SWAP1 JUMPDEST DUP2 ISZERO PUSH2 0x3A25 JUMPI PUSH1 0xA ADD SLOAD PUSH2 0x2710 SWAP1 DUP2 DUP2 MUL SWAP2 DUP2 DUP4 DIV EQ SWAP1 ISZERO OR ISZERO PUSH2 0x3131 JUMPI PUSH2 0x39A8 SWAP3 SWAP4 POP PUSH2 0x2A11 JUMP JUMPDEST POP POP JUMP JUMPDEST PUSH1 0x3 DUP2 ADD SLOAD SWAP1 PUSH2 0x39FC JUMP JUMPDEST POP PUSH2 0x2710 SWAP2 POP JUMP JUMPDEST POP PUSH1 0x2 SLOAD DUP4 LT ISZERO PUSH2 0x39D5 JUMP JUMPDEST DUP1 ISZERO DUP1 ISZERO PUSH2 0x3AB4 JUMPI JUMPDEST PUSH2 0x3AAE JUMPI PUSH1 0x0 SWAP1 DUP2 MSTORE PUSH1 0x17 PUSH1 0x20 MSTORE PUSH1 0x40 DUP2 KECCAK256 PUSH1 0xFF PUSH1 0x1 DUP3 ADD SLOAD PUSH1 0x10 SHR AND PUSH1 0x5 DUP2 LT ISZERO PUSH2 0x3A9A JUMPI PUSH1 0x1 SUB PUSH2 0x3A96 JUMPI PUSH1 0x7 ADD SLOAD DUP1 TIMESTAMP LT ISZERO PUSH2 0x3A96 JUMPI PUSH2 0x39A8 SWAP2 POP TIMESTAMP SWAP1 PUSH2 0x2A31 JUMP JUMPDEST POP SWAP1 JUMP JUMPDEST PUSH4 0x4E487B71 PUSH1 0xE0 SHL DUP4 MSTORE PUSH1 0x21 PUSH1 0x4 MSTORE PUSH1 0x24 DUP4 REVERT JUMPDEST POP PUSH1 0x0 SWAP1 JUMP JUMPDEST POP PUSH1 0x2 SLOAD DUP2 LT ISZERO PUSH2 0x3A51 JUMP JUMPDEST DUP1 ISZERO DUP1 ISZERO PUSH2 0x3B4D JUMPI JUMPDEST PUSH2 0x3AAE JUMPI PUSH1 0x0 SWAP1 DUP2 MSTORE PUSH1 0x17 PUSH1 0x20 MSTORE PUSH1 0x40 DUP2 KECCAK256 SWAP1 PUSH1 0x1 DUP3 ADD SLOAD PUSH1 0xFF DUP2 PUSH1 0x10 SHR AND PUSH1 0x5 DUP2 LT ISZERO PUSH2 0x3A9A JUMPI PUSH1 0x1 SUB PUSH2 0x3B47 JUMPI SWAP1 PUSH1 0xFF PUSH1 0x1 SWAP3 PUSH1 0x8 SHR AND SWAP1 PUSH2 0x3B0C DUP3 PUSH2 0x261A JUMP JUMPDEST POP SUB PUSH2 0x3B39 JUMPI PUSH2 0x3B25 PUSH1 0x7 PUSH1 0x10 SLOAD SWAP3 JUMPDEST ADD SLOAD SWAP2 DUP3 PUSH2 0x2A31 JUMP JUMPDEST TIMESTAMP LT ISZERO SWAP1 DUP2 PUSH2 0x3B32 JUMPI POP SWAP1 JUMP JUMPDEST SWAP1 POP TIMESTAMP LT SWAP1 JUMP JUMPDEST PUSH2 0x3B25 PUSH1 0x7 PUSH1 0xF SLOAD SWAP3 PUSH2 0x3B1C JUMP JUMPDEST POP SWAP1 POP SWAP1 JUMP JUMPDEST POP PUSH1 0x2 SLOAD DUP2 LT ISZERO PUSH2 0x3AC9 JUMP JUMPDEST PUSH1 0x0 SWAP1 DUP2 MSTORE PUSH1 0x17 PUSH1 0x20 MSTORE PUSH1 0x40 DUP2 KECCAK256 PUSH1 0x3 PUSH1 0x2 DUP3 ADD SLOAD SWAP2 ADD SLOAD PUSH2 0x3B7B DUP2 DUP4 PUSH2 0x29B2 JUMP JUMPDEST SWAP4 DUP5 ISZERO PUSH2 0x3BF3 JUMPI PUSH2 0x3B8B DUP2 PUSH2 0x261A JUMP JUMPDEST PUSH2 0x3BEB JUMPI POP SWAP2 JUMPDEST PUSH2 0x2710 SWAP3 DUP4 DUP2 MUL SWAP1 DUP1 DUP3 DIV DUP6 EQ SWAP1 ISZERO OR ISZERO PUSH2 0x3BD7 JUMPI SWAP1 PUSH2 0x3BB1 SWAP2 PUSH2 0x2A11 JUMP JUMPDEST SWAP1 PUSH1 0x6 SLOAD DUP4 SUB SWAP3 DUP4 GT PUSH2 0x3BC3 JUMPI POP LT SWAP1 JUMP JUMPDEST PUSH4 0x4E487B71 PUSH1 0xE0 SHL DUP2 MSTORE PUSH1 0x11 PUSH1 0x4 MSTORE PUSH1 0x24 SWAP1 REVERT JUMPDEST PUSH4 0x4E487B71 PUSH1 0xE0 SHL DUP4 MSTORE PUSH1 0x11 PUSH1 0x4 MSTORE PUSH1 0x24 DUP4 REVERT JUMPDEST SWAP1 POP SWAP2 PUSH2 0x3B92 JUMP JUMPDEST POP POP POP SWAP1 POP SWAP1 JUMP INVALID 0xE0 PC COINBASE 0xE5 LOG3 0x27 SWAP6 PUSH16 0x4A370D19D6E54C700A6B263864418270 PUSH16 0x8AC8738C35FB8A8BE0079C5316591413 PREVRANDAO 0xCD 0x1F 0xD0 LOG4 CALLCODE DUP5 NOT 0x49 PUSH32 0x9722A3DAAFE3B4186F6B6457E0D6A2A5FA33ED09B7E0AD44C465D1D7CC1EBAC5 INVALID 0x4F DUP15 SWAP13 PUSH7 0x25C55A874855DB 0x5F SWAP7 0xBE SWAP5 RETURN 0xCB GASLIMIT 0x21 DUP7 DUP13 MOD CHAINID SAR GASPRICE COINBASE SWAP8 DUP4 SWAP14 DELEGATECALL 0xD8 SWAP7 0xC7 0xFB NUMBER PUSH3 0xFC0E3B 0xE3 JUMP LOG1 SHR SLT LOG2 PUSH5 0x6970667358 0x22 SLT KECCAK256 0x21 SWAP12 0x5D SWAP16 0x5E LOG2 PUSH28 0x79C78D53FA68E000CFAAC7D8AE4EB65F344CBABE31B80CD87A64736F PUSH13 0x63430008130033000000000000 "},"methodIdentifiers":{"FEE_DENOMINATOR()":"d73792a9","MAX_LEADERBOARD_SIZE()":"db877142","TOKEN_DECIMALS()":"5b7f415c","accumulatedFees()":"587f5ed7","breakDuration()":"34dee60b","calculatePotentialPayout(uint256,address,uint8,uint256)":"ec844654","claimAllWinnings(uint256)":"a5c44a65","claimReferralRewards()":"05eaab4b","claimWinnings(uint256,uint8)":"ec1b3ab5","createReferralCode(string)":"3e0183d1","currentGameId()":"536a3ddc","emergencyCancelGame(uint256)":"69f2372d","finalCallDuration()":"96ee4688","gameBalance(uint256)":"19be5ad0","gameBettors(uint256,uint256)":"ce1ea732","gameFees(uint256)":"afc250a7","gamePendingReferralRewards(uint256,address)":"0ab53fa5","gameReferralRewards(uint256)":"ebf28b51","games(uint256)":"117a5b90","getAccumulatedFees()":"5df45a37","getCurrentGame()":"968d901b","getCurrentMultiplier(uint256,uint8)":"67c15f6a","getGame(uint256)":"a2f77bcc","getGameBalance(uint256)":"9dad1da5","getGameBettors(uint256)":"bcbdecb7","getGameCount()":"e87c0ee6","getGameFees(uint256)":"f95547fa","getGamePendingReferralReward(uint256,address)":"41b44189","getLeaderboard()":"6d763a6e","getLeaderboardWithStats(uint256)":"075aa970","getPendingReferralRewards(address)":"6e8ba9f6","getReferralInfo(address)":"21874ae2","getTimeRemaining(uint256)":"8cd42991","getUserBets(uint256,address)":"fa744dd3","getUserSideBet(uint256,address,uint8)":"e978f045","getUserStats(address)":"4e43603a","hasAnyBet(uint256,address)":"51bcefa1","isInFinalCall(uint256)":"6c3c1a45","isUnderdogSide(uint256,uint8)":"f18cdb65","leaderboard(uint256)":"bf368399","minBetAmount()":"fa968eea","minPoolSize()":"c6fd03df","minTotalBets()":"3fa27625","nextGameId()":"b135bbb0","owner()":"8da5cb5b","paused()":"5c975abb","pendingReferralRewards(address)":"3469336d","placeBet(uint256,uint8,string)":"c62d359c","platformFee()":"26232a2e","rapidBettingDuration()":"a5a99693","rapidBreakDuration()":"340cd9bb","rapidFinalCallDuration()":"7b51ac7a","rapidMinPoolSize()":"64be7a01","referralCodes(bytes32)":"7e644547","referralShareBps()":"47c9bc2d","referrals(address)":"9ca423b3","regularBettingDuration()":"75c14dd8","releaseGameReferralRewards(uint256)":"47406096","renounceOwnership()":"715018a6","resolveGame(uint256)":"b7a5a5b6","setMinBetAmount(uint256)":"6c188593","setMinParticipation(uint256,uint256,uint256)":"0293399c","setPaused(bool)":"16c38b3c","setPlatformFee(uint256)":"12e8e2c3","setRapidBettingDuration(uint256)":"d824e03c","setReferralShareBps(uint256)":"d07e995b","setRegularBettingDuration(uint256)":"6b21bed6","setUnderdogBonus(uint256,uint256)":"113965c4","sideBets(uint256,address,uint8)":"e0ca49ae","startNewGame(uint8)":"6ed296e4","transferOwnership(address)":"f2fde38b","underdogBonusBps()":"60d6a941","underdogThreshold()":"0097dcc6","userReferralCode(address)":"618c506d","userStats(address)":"8a65d874","validateReferralCode(string)":"aa216845","withdrawFees()":"476343ee"}}}}}