{"contracts/TAO_Casino.sol":{"TAOCasino":{"abi":[{"inputs":[],"stateMutability":"nonpayable","type":"constructor"},{"inputs":[],"name":"AlreadyClaimed","type":"error"},{"inputs":[],"name":"BetTooSmall","type":"error"},{"inputs":[],"name":"BettingPeriodEnded","type":"error"},{"inputs":[],"name":"BettingPeriodNotEnded","type":"error"},{"inputs":[],"name":"ContractPaused","type":"error"},{"inputs":[],"name":"DrandPrecompileCallFailed","type":"error"},{"inputs":[],"name":"DrandPulseNotAvailable","type":"error"},{"inputs":[],"name":"GameAlreadyResolved","type":"error"},{"inputs":[],"name":"GameNotFound","type":"error"},{"inputs":[],"name":"GameNotInBettingPhase","type":"error"},{"inputs":[],"name":"GameNotResolved","type":"error"},{"inputs":[],"name":"GameStillActive","type":"error"},{"inputs":[],"name":"InvalidBetAmount","type":"error"},{"inputs":[],"name":"LateBetRefundOnly","type":"error"},{"inputs":[],"name":"NoActiveGame","type":"error"},{"inputs":[],"name":"NoBetToClaim","type":"error"},{"inputs":[],"name":"TooManyBettors","type":"error"},{"inputs":[],"name":"TransferFailed","type":"error"},{"inputs":[],"name":"WaitingForRandomness","type":"error"},{"anonymous":false,"inputs":[{"indexed":true,"internalType":"uint256","name":"gameId","type":"uint256"},{"indexed":false,"internalType":"uint256","name":"actualEndBlock","type":"uint256"},{"indexed":false,"internalType":"uint256","name":"validRedPool","type":"uint256"},{"indexed":false,"internalType":"uint256","name":"validBluePool","type":"uint256"}],"name":"ActualEndBlockSet","type":"event"},{"anonymous":false,"inputs":[{"indexed":true,"internalType":"uint256","name":"gameId","type":"uint256"},{"indexed":true,"internalType":"address","name":"bettor","type":"address"},{"indexed":false,"internalType":"enum TAOCasino.Side","name":"side","type":"uint8"},{"indexed":false,"internalType":"uint256","name":"amount","type":"uint256"},{"indexed":false,"internalType":"uint256","name":"newPoolTotal","type":"uint256"}],"name":"BetPlaced","type":"event"},{"anonymous":false,"inputs":[{"indexed":false,"internalType":"bool","name":"isPaused","type":"bool"}],"name":"ContractPausedEvent","type":"event"},{"anonymous":false,"inputs":[{"indexed":true,"internalType":"uint256","name":"gameId","type":"uint256"},{"indexed":false,"internalType":"uint64","name":"targetDrandRound","type":"uint64"},{"indexed":false,"internalType":"uint256","name":"commitBlock","type":"uint256"}],"name":"DrandRoundCommitted","type":"event"},{"anonymous":false,"inputs":[{"indexed":true,"internalType":"uint256","name":"gameId","type":"uint256"},{"indexed":false,"internalType":"uint64","name":"targetDrandRound","type":"uint64"},{"indexed":false,"internalType":"uint256","name":"blocksWaited","type":"uint256"}],"name":"DrandTimeoutCancelled","type":"event"},{"anonymous":false,"inputs":[{"indexed":true,"internalType":"uint256","name":"gameId","type":"uint256"},{"indexed":false,"internalType":"uint256","name":"platformFees","type":"uint256"}],"name":"FeesReleased","type":"event"},{"anonymous":false,"inputs":[{"indexed":true,"internalType":"uint256","name":"gameId","type":"uint256"},{"indexed":false,"internalType":"string","name":"reason","type":"string"}],"name":"GameCancelled","type":"event"},{"anonymous":false,"inputs":[{"indexed":true,"internalType":"uint256","name":"gameId","type":"uint256"},{"indexed":false,"internalType":"uint256","name":"startBlock","type":"uint256"},{"indexed":false,"internalType":"uint256","name":"endBlock","type":"uint256"}],"name":"GameCreated","type":"event"},{"anonymous":false,"inputs":[{"indexed":true,"internalType":"uint256","name":"gameId","type":"uint256"},{"indexed":false,"internalType":"enum TAOCasino.Side","name":"winningSide","type":"uint8"},{"indexed":false,"internalType":"uint256","name":"redPool","type":"uint256"},{"indexed":false,"internalType":"uint256","name":"bluePool","type":"uint256"},{"indexed":false,"internalType":"uint256","name":"redBettors","type":"uint256"},{"indexed":false,"internalType":"uint256","name":"blueBettors","type":"uint256"}],"name":"GameResolved","type":"event"},{"anonymous":false,"inputs":[{"indexed":true,"internalType":"uint256","name":"gameId","type":"uint256"},{"indexed":false,"internalType":"uint256","name":"redPool","type":"uint256"},{"indexed":false,"internalType":"uint256","name":"bluePool","type":"uint256"}],"name":"GameTied","type":"event"},{"anonymous":false,"inputs":[{"indexed":true,"internalType":"uint256","name":"gameId","type":"uint256"},{"indexed":true,"internalType":"address","name":"bettor","type":"address"},{"indexed":false,"internalType":"enum TAOCasino.Side","name":"side","type":"uint8"},{"indexed":false,"internalType":"uint256","name":"amount","type":"uint256"}],"name":"LateBetRefunded","type":"event"},{"anonymous":false,"inputs":[{"indexed":true,"internalType":"address","name":"previousOwner","type":"address"},{"indexed":true,"internalType":"address","name":"newOwner","type":"address"}],"name":"OwnershipTransferred","type":"event"},{"anonymous":false,"inputs":[{"indexed":true,"internalType":"uint256","name":"gameId","type":"uint256"},{"indexed":true,"internalType":"address","name":"bettor","type":"address"},{"indexed":false,"internalType":"enum TAOCasino.Side","name":"side","type":"uint8"},{"indexed":false,"internalType":"uint256","name":"amount","type":"uint256"}],"name":"RefundClaimed","type":"event"},{"anonymous":false,"inputs":[{"indexed":true,"internalType":"uint256","name":"gameId","type":"uint256"},{"indexed":true,"internalType":"address","name":"bettor","type":"address"},{"indexed":false,"internalType":"enum TAOCasino.Side","name":"side","type":"uint8"},{"indexed":false,"internalType":"uint256","name":"betAmount","type":"uint256"},{"indexed":false,"internalType":"uint256","name":"winnings","type":"uint256"}],"name":"WinningsClaimed","type":"event"},{"inputs":[],"name":"BETTING_BLOCKS","outputs":[{"internalType":"uint256","name":"","type":"uint256"}],"stateMutability":"view","type":"function"},{"inputs":[],"name":"DRAND_LAST_ROUND_KEY","outputs":[{"internalType":"bytes32","name":"","type":"bytes32"}],"stateMutability":"view","type":"function"},{"inputs":[],"name":"DRAND_PULSES_PREFIX","outputs":[{"internalType":"bytes","name":"","type":"bytes"}],"stateMutability":"view","type":"function"},{"inputs":[],"name":"DRAND_ROUND_BUFFER","outputs":[{"internalType":"uint256","name":"","type":"uint256"}],"stateMutability":"view","type":"function"},{"inputs":[],"name":"DRAND_TIMEOUT_BLOCKS","outputs":[{"internalType":"uint256","name":"","type":"uint256"}],"stateMutability":"view","type":"function"},{"inputs":[],"name":"FEE_DENOMINATOR","outputs":[{"internalType":"uint256","name":"","type":"uint256"}],"stateMutability":"view","type":"function"},{"inputs":[],"name":"FINAL_CALL_BLOCKS","outputs":[{"internalType":"uint256","name":"","type":"uint256"}],"stateMutability":"view","type":"function"},{"inputs":[],"name":"MAX_BETTORS_PER_GAME","outputs":[{"internalType":"uint256","name":"","type":"uint256"}],"stateMutability":"view","type":"function"},{"inputs":[],"name":"MAX_LEADERBOARD_SIZE","outputs":[{"internalType":"uint256","name":"","type":"uint256"}],"stateMutability":"view","type":"function"},{"inputs":[],"name":"MIN_BET_AMOUNT","outputs":[{"internalType":"uint256","name":"","type":"uint256"}],"stateMutability":"view","type":"function"},{"inputs":[],"name":"MIN_POOL_SIZE","outputs":[{"internalType":"uint256","name":"","type":"uint256"}],"stateMutability":"view","type":"function"},{"inputs":[],"name":"MIN_TOTAL_BETS","outputs":[{"internalType":"uint256","name":"","type":"uint256"}],"stateMutability":"view","type":"function"},{"inputs":[],"name":"PLATFORM_FEE","outputs":[{"internalType":"uint256","name":"","type":"uint256"}],"stateMutability":"view","type":"function"},{"inputs":[],"name":"STORAGE_PRECOMPILE","outputs":[{"internalType":"address","name":"","type":"address"}],"stateMutability":"view","type":"function"},{"inputs":[],"name":"accumulatedFees","outputs":[{"internalType":"uint256","name":"","type":"uint256"}],"stateMutability":"view","type":"function"},{"inputs":[{"internalType":"uint256","name":"_gameId","type":"uint256"},{"internalType":"address","name":"_user","type":"address"},{"internalType":"enum TAOCasino.Side","name":"_side","type":"uint8"},{"internalType":"uint256","name":"_amount","type":"uint256"}],"name":"calculatePotentialPayout","outputs":[{"internalType":"uint256","name":"","type":"uint256"}],"stateMutability":"view","type":"function"},{"inputs":[{"internalType":"uint256","name":"_gameId","type":"uint256"}],"name":"claimAllWinnings","outputs":[],"stateMutability":"nonpayable","type":"function"},{"inputs":[{"internalType":"uint256","name":"_gameId","type":"uint256"},{"internalType":"enum TAOCasino.Side","name":"_side","type":"uint8"}],"name":"claimWinnings","outputs":[],"stateMutability":"nonpayable","type":"function"},{"inputs":[],"name":"currentGameId","outputs":[{"internalType":"uint256","name":"","type":"uint256"}],"stateMutability":"view","type":"function"},{"inputs":[{"internalType":"uint256","name":"","type":"uint256"}],"name":"gameBalance","outputs":[{"internalType":"uint256","name":"","type":"uint256"}],"stateMutability":"view","type":"function"},{"inputs":[{"internalType":"uint256","name":"","type":"uint256"},{"internalType":"uint256","name":"","type":"uint256"}],"name":"gameBettors","outputs":[{"internalType":"address","name":"","type":"address"}],"stateMutability":"view","type":"function"},{"inputs":[{"internalType":"uint256","name":"","type":"uint256"}],"name":"gameFees","outputs":[{"internalType":"uint256","name":"","type":"uint256"}],"stateMutability":"view","type":"function"},{"inputs":[{"internalType":"uint256","name":"","type":"uint256"}],"name":"games","outputs":[{"internalType":"uint256","name":"id","type":"uint256"},{"internalType":"enum TAOCasino.GamePhase","name":"phase","type":"uint8"},{"internalType":"uint256","name":"redPool","type":"uint256"},{"internalType":"uint256","name":"bluePool","type":"uint256"},{"internalType":"uint256","name":"redBettors","type":"uint256"},{"internalType":"uint256","name":"blueBettors","type":"uint256"},{"internalType":"uint256","name":"startBlock","type":"uint256"},{"internalType":"uint256","name":"endBlock","type":"uint256"},{"internalType":"uint256","name":"resolvedBlock","type":"uint256"},{"internalType":"enum TAOCasino.Side","name":"winningSide","type":"uint8"},{"internalType":"uint256","name":"totalLiquidity","type":"uint256"},{"internalType":"bool","name":"hasWinner","type":"bool"},{"internalType":"uint64","name":"targetDrandRound","type":"uint64"},{"internalType":"uint256","name":"commitBlock","type":"uint256"},{"internalType":"uint256","name":"actualEndBlock","type":"uint256"},{"internalType":"uint256","name":"validRedPool","type":"uint256"},{"internalType":"uint256","name":"validBluePool","type":"uint256"},{"internalType":"uint256","name":"validLiquidity","type":"uint256"}],"stateMutability":"view","type":"function"},{"inputs":[],"name":"getAccumulatedFees","outputs":[{"internalType":"uint256","name":"","type":"uint256"}],"stateMutability":"view","type":"function"},{"inputs":[{"internalType":"uint256","name":"_gameId","type":"uint256"}],"name":"getBlocksRemaining","outputs":[{"internalType":"uint256","name":"","type":"uint256"}],"stateMutability":"view","type":"function"},{"inputs":[],"name":"getCurrentGame","outputs":[{"components":[{"internalType":"uint256","name":"id","type":"uint256"},{"internalType":"enum TAOCasino.GamePhase","name":"phase","type":"uint8"},{"internalType":"uint256","name":"redPool","type":"uint256"},{"internalType":"uint256","name":"bluePool","type":"uint256"},{"internalType":"uint256","name":"redBettors","type":"uint256"},{"internalType":"uint256","name":"blueBettors","type":"uint256"},{"internalType":"uint256","name":"startBlock","type":"uint256"},{"internalType":"uint256","name":"endBlock","type":"uint256"},{"internalType":"uint256","name":"resolvedBlock","type":"uint256"},{"internalType":"enum TAOCasino.Side","name":"winningSide","type":"uint8"},{"internalType":"uint256","name":"totalLiquidity","type":"uint256"},{"internalType":"bool","name":"hasWinner","type":"bool"},{"internalType":"uint64","name":"targetDrandRound","type":"uint64"},{"internalType":"uint256","name":"commitBlock","type":"uint256"},{"internalType":"uint256","name":"actualEndBlock","type":"uint256"},{"internalType":"uint256","name":"validRedPool","type":"uint256"},{"internalType":"uint256","name":"validBluePool","type":"uint256"},{"internalType":"uint256","name":"validLiquidity","type":"uint256"}],"internalType":"struct TAOCasino.Game","name":"","type":"tuple"}],"stateMutability":"view","type":"function"},{"inputs":[{"internalType":"uint256","name":"_gameId","type":"uint256"},{"internalType":"enum TAOCasino.Side","name":"_side","type":"uint8"}],"name":"getCurrentMultiplier","outputs":[{"internalType":"uint256","name":"","type":"uint256"}],"stateMutability":"view","type":"function"},{"inputs":[{"internalType":"uint64","name":"round","type":"uint64"}],"name":"getDrandRandomness","outputs":[{"internalType":"bytes32","name":"","type":"bytes32"}],"stateMutability":"view","type":"function"},{"inputs":[],"name":"getDrandStatus","outputs":[{"internalType":"uint64","name":"lastRound","type":"uint64"},{"internalType":"bool","name":"isAvailable","type":"bool"}],"stateMutability":"view","type":"function"},{"inputs":[{"internalType":"uint256","name":"_gameId","type":"uint256"}],"name":"getGame","outputs":[{"components":[{"internalType":"uint256","name":"id","type":"uint256"},{"internalType":"enum TAOCasino.GamePhase","name":"phase","type":"uint8"},{"internalType":"uint256","name":"redPool","type":"uint256"},{"internalType":"uint256","name":"bluePool","type":"uint256"},{"internalType":"uint256","name":"redBettors","type":"uint256"},{"internalType":"uint256","name":"blueBettors","type":"uint256"},{"internalType":"uint256","name":"startBlock","type":"uint256"},{"internalType":"uint256","name":"endBlock","type":"uint256"},{"internalType":"uint256","name":"resolvedBlock","type":"uint256"},{"internalType":"enum TAOCasino.Side","name":"winningSide","type":"uint8"},{"internalType":"uint256","name":"totalLiquidity","type":"uint256"},{"internalType":"bool","name":"hasWinner","type":"bool"},{"internalType":"uint64","name":"targetDrandRound","type":"uint64"},{"internalType":"uint256","name":"commitBlock","type":"uint256"},{"internalType":"uint256","name":"actualEndBlock","type":"uint256"},{"internalType":"uint256","name":"validRedPool","type":"uint256"},{"internalType":"uint256","name":"validBluePool","type":"uint256"},{"internalType":"uint256","name":"validLiquidity","type":"uint256"}],"internalType":"struct TAOCasino.Game","name":"","type":"tuple"}],"stateMutability":"view","type":"function"},{"inputs":[{"internalType":"uint256","name":"_gameId","type":"uint256"}],"name":"getGameBalance","outputs":[{"internalType":"uint256","name":"","type":"uint256"}],"stateMutability":"view","type":"function"},{"inputs":[{"internalType":"uint256","name":"_gameId","type":"uint256"}],"name":"getGameBettors","outputs":[{"internalType":"address[]","name":"","type":"address[]"}],"stateMutability":"view","type":"function"},{"inputs":[],"name":"getGameCount","outputs":[{"internalType":"uint256","name":"","type":"uint256"}],"stateMutability":"view","type":"function"},{"inputs":[{"internalType":"uint256","name":"_gameId","type":"uint256"}],"name":"getGameFees","outputs":[{"internalType":"uint256","name":"","type":"uint256"}],"stateMutability":"view","type":"function"},{"inputs":[],"name":"getLastDrandRound","outputs":[{"internalType":"uint64","name":"","type":"uint64"}],"stateMutability":"view","type":"function"},{"inputs":[],"name":"getLeaderboard","outputs":[{"internalType":"address[]","name":"","type":"address[]"}],"stateMutability":"view","type":"function"},{"inputs":[{"internalType":"uint256","name":"_limit","type":"uint256"}],"name":"getLeaderboardWithStats","outputs":[{"internalType":"address[]","name":"addresses","type":"address[]"},{"internalType":"uint256[]","name":"winnings","type":"uint256[]"},{"internalType":"uint256[]","name":"wins","type":"uint256[]"}],"stateMutability":"view","type":"function"},{"inputs":[{"internalType":"uint256","name":"_gameId","type":"uint256"}],"name":"getResolutionStatus","outputs":[{"internalType":"enum TAOCasino.GamePhase","name":"phase","type":"uint8"},{"internalType":"uint64","name":"targetDrandRound","type":"uint64"},{"internalType":"uint256","name":"actualEndBlock","type":"uint256"},{"internalType":"bool","name":"canFinalize","type":"bool"}],"stateMutability":"view","type":"function"},{"inputs":[{"internalType":"uint256","name":"_gameId","type":"uint256"},{"internalType":"address","name":"_user","type":"address"}],"name":"getUserBets","outputs":[{"components":[{"components":[{"internalType":"uint256","name":"amount","type":"uint256"},{"internalType":"uint256","name":"placedAtBlock","type":"uint256"},{"internalType":"bool","name":"claimed","type":"bool"},{"internalType":"bool","name":"isLateBet","type":"bool"}],"internalType":"struct TAOCasino.SideBet","name":"redBet","type":"tuple"},{"components":[{"internalType":"uint256","name":"amount","type":"uint256"},{"internalType":"uint256","name":"placedAtBlock","type":"uint256"},{"internalType":"bool","name":"claimed","type":"bool"},{"internalType":"bool","name":"isLateBet","type":"bool"}],"internalType":"struct TAOCasino.SideBet","name":"blueBet","type":"tuple"}],"internalType":"struct TAOCasino.UserBets","name":"","type":"tuple"}],"stateMutability":"view","type":"function"},{"inputs":[{"internalType":"uint256","name":"_gameId","type":"uint256"},{"internalType":"address","name":"_user","type":"address"},{"internalType":"enum TAOCasino.Side","name":"_side","type":"uint8"}],"name":"getUserSideBet","outputs":[{"components":[{"internalType":"uint256","name":"amount","type":"uint256"},{"internalType":"uint256","name":"placedAtBlock","type":"uint256"},{"internalType":"bool","name":"claimed","type":"bool"},{"internalType":"bool","name":"isLateBet","type":"bool"}],"internalType":"struct TAOCasino.SideBet","name":"","type":"tuple"}],"stateMutability":"view","type":"function"},{"inputs":[{"internalType":"address","name":"_user","type":"address"}],"name":"getUserStats","outputs":[{"components":[{"internalType":"uint256","name":"totalBets","type":"uint256"},{"internalType":"uint256","name":"totalWins","type":"uint256"},{"internalType":"uint256","name":"totalWinnings","type":"uint256"},{"internalType":"uint256","name":"totalLosses","type":"uint256"}],"internalType":"struct TAOCasino.UserStats","name":"","type":"tuple"}],"stateMutability":"view","type":"function"},{"inputs":[{"internalType":"uint256","name":"","type":"uint256"},{"internalType":"address","name":"","type":"address"}],"name":"hasAnyBet","outputs":[{"internalType":"bool","name":"","type":"bool"}],"stateMutability":"view","type":"function"},{"inputs":[{"internalType":"uint256","name":"_gameId","type":"uint256"},{"internalType":"address","name":"_user","type":"address"},{"internalType":"enum TAOCasino.Side","name":"_side","type":"uint8"}],"name":"isBetLate","outputs":[{"internalType":"bool","name":"","type":"bool"}],"stateMutability":"view","type":"function"},{"inputs":[{"internalType":"uint64","name":"round","type":"uint64"}],"name":"isDrandRoundAvailable","outputs":[{"internalType":"bool","name":"","type":"bool"}],"stateMutability":"view","type":"function"},{"inputs":[{"internalType":"uint256","name":"_gameId","type":"uint256"}],"name":"isInFinalCall","outputs":[{"internalType":"bool","name":"","type":"bool"}],"stateMutability":"view","type":"function"},{"inputs":[{"internalType":"uint256","name":"_gameId","type":"uint256"}],"name":"isResolutionTimedOut","outputs":[{"internalType":"bool","name":"","type":"bool"}],"stateMutability":"view","type":"function"},{"inputs":[{"internalType":"uint256","name":"","type":"uint256"}],"name":"leaderboard","outputs":[{"internalType":"address","name":"","type":"address"}],"stateMutability":"view","type":"function"},{"inputs":[],"name":"nextGameId","outputs":[{"internalType":"uint256","name":"","type":"uint256"}],"stateMutability":"view","type":"function"},{"inputs":[],"name":"owner","outputs":[{"internalType":"address","name":"","type":"address"}],"stateMutability":"view","type":"function"},{"inputs":[],"name":"paused","outputs":[{"internalType":"bool","name":"","type":"bool"}],"stateMutability":"view","type":"function"},{"inputs":[{"internalType":"uint256","name":"_gameId","type":"uint256"},{"internalType":"enum TAOCasino.Side","name":"_side","type":"uint8"}],"name":"placeBet","outputs":[],"stateMutability":"payable","type":"function"},{"inputs":[],"name":"renounceOwnership","outputs":[],"stateMutability":"nonpayable","type":"function"},{"inputs":[{"internalType":"uint256","name":"_gameId","type":"uint256"}],"name":"resolveGame","outputs":[],"stateMutability":"nonpayable","type":"function"},{"inputs":[{"internalType":"bool","name":"_paused","type":"bool"}],"name":"setPaused","outputs":[],"stateMutability":"nonpayable","type":"function"},{"inputs":[{"internalType":"uint256","name":"","type":"uint256"},{"internalType":"address","name":"","type":"address"},{"internalType":"enum TAOCasino.Side","name":"","type":"uint8"}],"name":"sideBets","outputs":[{"internalType":"uint256","name":"amount","type":"uint256"},{"internalType":"uint256","name":"placedAtBlock","type":"uint256"},{"internalType":"bool","name":"claimed","type":"bool"},{"internalType":"bool","name":"isLateBet","type":"bool"}],"stateMutability":"view","type":"function"},{"inputs":[],"name":"startNewGame","outputs":[],"stateMutability":"nonpayable","type":"function"},{"inputs":[{"internalType":"address","name":"newOwner","type":"address"}],"name":"transferOwnership","outputs":[],"stateMutability":"nonpayable","type":"function"},{"inputs":[{"internalType":"address","name":"","type":"address"}],"name":"userStats","outputs":[{"internalType":"uint256","name":"totalBets","type":"uint256"},{"internalType":"uint256","name":"totalWins","type":"uint256"},{"internalType":"uint256","name":"totalWinnings","type":"uint256"},{"internalType":"uint256","name":"totalLosses","type":"uint256"}],"stateMutability":"view","type":"function"},{"inputs":[],"name":"withdrawFees","outputs":[],"stateMutability":"nonpayable","type":"function"}],"evm":{"bytecode":{"linkReferences":{},"object":"6080806040523461007257600160008181558154336001600160a01b0319821681179093556001600160a01b0316907f8be0079c531659141344cd1fd0a4f28419497f9722a3daafe3b4186f6b6457e09080a36001600255600060035560ff1960055416600555613bbe90816100788239f35b600080fdfe60e0604052600436101561001257600080fd5b60003560e01c806303edf914146115525780630480091a14611522578063075aa970146113e65780630e182df1146113b9578063117a5b901461127557806316c38b3c1461121357806319be5ad014610a5d578063232ccf7d146111c757806334fbc9a1146111ab57806337e5a0eb1461118e5780634493353914611172578063476343ee14611116578063482d51e014610eae5780634e43603a14610e2557806351bcefa114610dd8578063536a3ddc14610dba578063587f5ed714610d795780635c975abb14610d975780635df45a3714610d795780636475e3d314610d57578063674943ad14610d3957806367c15f6a14610d205780636c3c1a4514610d025780636d763a6e14610c9e578063715018a614610c535780637489780b14610c2b5780637dd7f49214610b7d5780638a65d87414610b215780638d652d4314610b055780638da5cb5b14610adc5780638ed6f26c146105e1578063968d901b14610a895780639dad1da514610a5d578063a2f77bcc14610914578063a5c44a6514610848578063afc250a714610365578063b135bbb01461082a578063b3954fb31461080d578063b7a5a5b6146107ef578063baf15dd1146107d2578063bcbdecb714610748578063bdffaf7b14610725578063bef58eb2146106fc578063bf368399146106d3578063bf9607c6146106b7578063c970f63e14610684578063cc830f5014610655578063ce1ea73214610603578063d73792a9146105e6578063db877142146105e1578063e0ca49ae14610575578063e4258ade1461053c578063e87c0ee6146104fb578063e978f045146104a8578063ec1b3ab514610482578063ec84465414610442578063f2fde38b14610391578063f95547fa146103655763fa744dd3146102a557600080fd5b346103605760403660031901126103605761010060043561035e6102c7611a0b565b604051906102d482611898565b6102dc61378d565b82526102e661378d565b60209283015260009384526007825260408085206001600160a01b039290921685529082528084208480528252808420600185529381902090519361033f91906103389061033387611898565b6137b2565b85526137b2565b908301908152610353604051809451611bae565b516080830190611bae565bf35b600080fd5b3461036057602036600319011261036057600435600052600a6020526020604060002054604051908152f35b34610360576020366003190112610360576103aa6119f5565b6103b2611bd5565b6001600160a01b039081169081156103ee57600180546001600160a01b03198116841790915516600080516020613ac9833981519152600080a3005b60405162461bcd60e51b815260206004820152602660248201527f4f776e61626c653a206e6577206f776e657220697320746865207a65726f206160448201526564647265737360d01b6064820152608490fd5b346103605760803660031901126103605761045b611a0b565b60443560028110156103605760209161047a9160643591600435613849565b604051908152f35b34610360576104a161049336611842565b9061049c611d19565b612b1b565b6001600055005b346103605760806104ee6103336104be36611a21565b916104c761378d565b50600052600760205260406000209060018060a01b03166000526020526040600020611b96565b61035e6040518092611bae565b3461036057600036600319011261036057600254600019810190811161052657602090604051908152f35b634e487b7160e01b600052601160045260246000fd5b34610360576020366003190112610360576004356001600160401b03811681036103605761056b602091612fbc565b1515604051908152f35b346103605760806105af61058836611a21565b91600052600760205260406000209060018060a01b03166000526020526040600020611b96565b60ff815491600260018201549101549060405193845260208401528181161515604084015260081c1615156060820152f35b611a54565b346103605760003660031901126103605760206040516127108152f35b34610360576040366003190112610360576024356004356000526008602052604060002080548210156103605760209161063c91611b7e565b905460405160039290921b1c6001600160a01b03168152f35b34610360576020366003190112610360576004356001600160401b03811681036103605761047a602091612fbc565b346103605760003660031901126103605760406001600160401b036106a7612ecc565b1681519080825215156020820152f35b3461036057600036600319011261036057602060405160198152f35b3461036057602036600319011261036057600435600d548110156103605761063c602091611b4d565b34610360576000366003190112610360576020604051600080516020613b698339815191528152f35b346103605760003660031901126103605760206040516706f05b59d3b200008152f35b34610360576020806003193601126103605760043560005260088152604060002090604051808383829554938481520190600052836000209260005b858282106107b35750505061079b925003836118ce565b6107af60405192828493845283019061196a565b0390f35b85546001600160a01b0316845260019586019588955093019201610784565b346103605760003660031901126103605760206040516101f48152f35b346103605760203660031901126103605761080b600435611d8a565b005b346103605760003660031901126103605760206040516108078152f35b34610360576000366003190112610360576020600254604051908152f35b34610360576020806003193601126103605760043590610866611d19565b81600052600781526040600020336000528152604060002060008052815260406000209082600052600781526040600020336000528152604060002090600160005252604060002090805415159081610904575b506108f6575b8054151590816108e6575b506108d7576001600055005b6108e090612835565b806104a1565b60ff9150600201541615826108cb565b6108ff826124d9565b6108c0565b60ff9150600201541615836108ba565b3461036057602036600319011261036057600435610930613709565b5080158015610a51575b610a3f5760005260066020526107af604060002060106040519161095d83611861565b8054835261097560ff60018301541660208501611c49565b600281015460408401526003810154606084015260048101546080840152600581015460a0840152600681015460c0840152600781015460e084015260088101546101008401526109d160ff6009830154166101208501611c55565b600a810154610140840152600b81015460ff8116151561016085015260081c6001600160401b0316610180840152600c8101546101a0840152600d8101546101c0840152600e8101546101e0840152600f810154610200840152015461022082015260405191829182611a70565b6040516309b3c62760e21b8152600490fd5b5060025481101561093a565b346103605760203660031901126103605760043560005260096020526020604060002054604051908152f35b3461036057600036600319011261036057610aa2613709565b506003548015610acb5760005260066020526107af604060002060106040519161095d83611861565b6040516295b66160e61b8152600490fd5b34610360576000366003190112610360576001546040516001600160a01b039091168152602090f35b3461036057600036600319011261036057602060405160038152f35b34610360576020366003190112610360576001600160a01b03610b426119f5565b16600052600c602052608060406000208054906001810154906003600282015491015491604051938452602084015260408301526060820152f35b34610360576020366003190112610360576004356000526006602052604060002060ff600182015416600d60018060401b03600b84015460081c169201546000906005831015610c15576080936002841480610c0c575b610bf9575b610be660405180956119db565b6020840152604083015215156060820152f35b9150610c0482612fbc565b151591610bd9565b50801515610bd4565b634e487b7160e01b600052602160045260246000fd5b34610360576020366003190112610360576020610c49600435613a8b565b6040519015158152f35b3461036057600036600319011261036057610c6c611bd5565b600180546001600160a01b031981169091556000906001600160a01b0316600080516020613ac98339815191528280a3005b346103605760003660031901126103605760405180600d54808252826020809301600d600052836000209260005b85828210610ce35750505061079b925003836118ce565b85546001600160a01b0316845260019586019588955093019201610ccc565b34610360576020366003190112610360576020610c49600435613a11565b3461036057602061047a610d3336611842565b9061391e565b3461036057602036600319011261036057602061047a6004356139b0565b3461036057600036600319011261036057602060405166038d7ea4c680008152f35b34610360576000366003190112610360576020600454604051908152f35b3461036057600036600319011261036057602060ff600554166040519015158152f35b34610360576000366003190112610360576020600354604051908152f35b3461036057604036600319011261036057610df1611a0b565b600435600052600b60205260406000209060018060a01b0316600052602052602060ff604060002054166040519015158152f35b3461036057602036600319011261036057610e3e6119f5565b610e4661378d565b5060018060a01b0316600052600c60205260806040600020604051610e6a8161187d565b815491828252600181015460208301908152606060036002840154936040860194855201549301928352604051938452516020840152516040830152516060820152f35b346103605760003660031901126103605760ff6005541661110457600354806110c0575b50600254610edf81611c2d565b60025560644301431161052657604051610ef881611861565b81815260016020820152600060408201526000606082015260006080820152600060a08201524360c08201526064430160e08201526000610100820152600061012082015260006101408201526000610160820152600061018082015260006101a082015260006101c082015260006101e0820152600061020082015260006102208201528160005260066020526040600020908051825560208101516005811015610c15576001830160ff199160ff83835416911617905560408201516002840155606082015160038401556080820151600484015560a0820151600584015560c0820151600684015560e082015160078401556101008201516008840155610120820151916002831015610c15576110576102209261101e60109560098801611c61565b610140830151600a870155610160830151600b8701805491151560ff16919092161781556101808301516001600160401b031690611c79565b6101a0810151600c8501556101c0810151600d8501556101e0810151600e850155610200810151600f8501550151910155806003557fbd3f84a55fdc44f970adc6ccbaa93e78d7da5f3fc37c4b7da578d47c9ad2e46a60408051438152606443016020820152a2005b600052600660205260ff600160406000200154166005811015610c1557600181146110f2576002146110f25780610ed2565b604051632127c5b560e01b8152600490fd5b60405163ab35696f60e01b8152600490fd5b346103605760003660031901126103605761112f611bd5565b6004548061113957005b6000808080938160045560018060a01b03600154165af161115861249a565b501561116057005b6040516312171d8360e31b8152600490fd5b3461036057600036600319011261036057602060405160028152f35b34610360576000366003190112610360576020604051611c208152f35b3461036057600036600319011261036057602060405160968152f35b3461036057602060ff60026112036111de36611a21565b60009283526007875260408084206001600160a01b0390931684529187529120611b96565b015460081c166040519015158152f35b34610360576020366003190112610360576004358015158091036103605760207f11cec829ff57d278cffee07757e9621bfa0ae0cd17b3d23a7b81cba95174b8a49161125d611bd5565b60ff196005541660ff821617600555604051908152a1005b34610360576020366003190112610360576004356000526006602052604060002080808054600182015460ff1660c05260028201546003830154600484015460058501546006860154600787015490600888015492600989015460ff1694600a8a015496600b8b015498600c8c01549a600d8d01549c600e01549d600f01549e601001546080526040518060a0525260a05160200160c05190611317916119db565b60a0516040015260a0516060015260a0516080015260a05160a0015260a05160c0015260a05160e0015260a051610100015260a05161012001611359916119e8565b60a051610140015260ff8116151560a0516101600152600160401b600190039060081c1660a051610180015260a0516101a0015260a0516101c0015260a0516101e0015260a051610200015260805160a051610220015260a05161024090f35b346103605760003660031901126103605760206113d4612ecc565b6040516001600160401b039091168152f35b346103605760208060031936011261036057600435600d5480821060001461151b57505b611413816137ec565b9061142160405192836118ce565b808252601f19611430826137ec565b01368484013761143f81613803565b61144882613803565b9160005b81811061148f57611474856107af866114818a8860405196879660608852606088019061196a565b91868303908701526119a7565b9083820360408501526119a7565b8061149c61151692611b4d565b90546003916001600160a01b039190831b1c81166114ba848a613835565b52806114c584611b4d565b905490841b1c16600052600c91828a526002604060002001546114e88589613835565b526114f284611b4d565b9054911b1c1660005287526001604060002001546115108287613835565b52611c2d565b61144c565b905061140a565b34610360576000366003190112610360576107af61153e6118f1565b60405191829160208352602083019061192a565b61155b36611842565b611563611d19565b81158015611836575b610a3f5734156118245766038d7ea4c680003410611812578160005260209160068352604060002060019360ff85830154166005811015610c155785036118005760078201544310156117ee57826000526007815260406000203360005281526115da846040600020611b96565b90609634023481046096036105265761271090046115f88134611cd1565b9085600052600a83526116116040600020918254611c3c565b90558460005260098252604060002061162b828254611c3c565b9055600283549361163f8515953490611c3c565b8155438982015501805461ffff191690556002861015610c155785159283156117ca5760028501611671348254611c3c565b90556117b5575b611687600a8501918254611c3c565b905583600052600b8152604060002033600052815260ff6040600020541615611703575b916116f291600c600080516020613ae983398151915294336000525260406000206116d68154611c2d565b9055156116fa57600201545b6040519182913396349084611cfc565b0390a3600055005b600301546116e2565b9183600052600883526101f460406000205410156117a3576000848152600b845260408082203383528552808220805460ff19168917905585825260088552902080549290600160401b84101561178d57600080516020613ae98339815191529461178261177b86600c948c6116f299018155611b7e565b3391611cde565b9294505091506116ab565b634e487b7160e01b600052604160045260246000fd5b60405163844bc54960e01b8152600490fd5b600484016117c38154611c2d565b9055611678565b600385016117d9348254611c3c565b90551561167857600584016117c38154611c2d565b6040516356c7983160e01b8152600490fd5b60405163976a06eb60e01b8152600490fd5b604051631a6254d160e31b8152600490fd5b604051639de3d44160e01b8152600490fd5b5060025482101561156c565b6040906003190112610360576004359060243560028110156103605790565b61024081019081106001600160401b0382111761178d57604052565b608081019081106001600160401b0382111761178d57604052565b604081019081106001600160401b0382111761178d57604052565b606081019081106001600160401b0382111761178d57604052565b601f909101601f19168101906001600160401b0382119082101761178d57604052565b604051906118fe82611898565b602082527fa285cdb66e8b8524ea70b1693c7b1e050d8e70fd32bfb1639703f9a23d15b15e6020830152565b919082519283825260005b848110611956575050826000602080949584010152601f8019910116010190565b602081830181015184830182015201611935565b90815180825260208080930193019160005b82811061198a575050505090565b83516001600160a01b03168552938101939281019260010161197c565b90815180825260208080930193019160005b8281106119c7575050505090565b8351855293810193928101926001016119b9565b906005821015610c155752565b906002821015610c155752565b600435906001600160a01b038216820361036057565b602435906001600160a01b038216820361036057565b606090600319011261036057600435906024356001600160a01b0381168103610360579060443560028110156103605790565b3461036057600036600319011261036057602060405160648152f35b91909161024081019280518252611a8f602082015160208401906119db565b60408101516040830152606081015160608301526080810151608083015260a081015160a083015260c081015160c083015260e081015160e08301526101008082015190830152611ae961012080830151908401906119e8565b610140818101519083015261016080820151151590830152610180808201516001600160401b0316908301526101a080820151908301526101c080820151908301526101e08082015190830152610200808201519083015261022090810151910152565b600d54811015611b6857600d60005260206000200190600090565b634e487b7160e01b600052603260045260246000fd5b8054821015611b685760005260206000200190600090565b906002811015610c1557600052602052604060002090565b60608091805184526020810151602085015260408101511515604085015201511515910152565b6001546001600160a01b03163303611be957565b606460405162461bcd60e51b815260206004820152602060248201527f4f776e61626c653a2063616c6c6572206973206e6f7420746865206f776e65726044820152fd5b60001981146105265760010190565b9190820180921161052657565b6005821015610c155752565b6002821015610c155752565b906002811015610c155760ff80198354169116179055565b8054610100600160481b03191660089290921b610100600160481b0316919091179055565b8181029291811591840414171561052657565b8115611cbb570490565b634e487b7160e01b600052601260045260246000fd5b9190820391821161052657565b919082549060031b9160018060a01b03809116831b921b1916179055565b604091949392611d108260608101976119e8565b60208201520152565b600260005414611d2a576002600055565b60405162461bcd60e51b815260206004820152601f60248201527f5265656e7472616e637947756172643a207265656e7472616e742063616c6c006044820152606490fd5b6001600160401b039091168152602081019190915260400190565b8015801561248e575b610a3f5780600052600660205260406000209060ff6001830154166005811015610c15576001146123b15760ff6001830154166005811015610c1557600214611de8576040516341d5c2cf60e01b8152600490fd5b600c820154611c20810180821161052657431161230a5750600b820154611e1a9060081c6001600160401b0316612fbc565b80156122f85760078301546018198101908111610526576019611e3e920690611c3c565b600d830155806000526006602052604060002060086020526040600020936000809360009660009360005b825481101561202b57611e7c8184611b7e565b60018060a01b0391549060031b1c16846000526007602052604060002081600052602052604060002060008052602052604060002080548015908115611f9d575b505050846000526007602052604060002090600052602052604060002060016000526020526040600020805480158015611f03575b505050611efe90611c2d565b611e69565b6001830154600d8b0154949d941115611f5e575050611f2490548099611c3c565b97609691818381020483148215171561052657611f4e82612710611efe95611f5495020490611cd1565b90611c3c565b995b903880611ef2565b6002909201805461ff001916610100179055919a966096918284028490048314171561052657612710611f9792611efe94020490611c3c565b95611f56565b6001830154600d8c0154949e99941115611fef575050611fbf90548092611c3c565b95609682818102048114831517156105265782612710611f4e92611fe595020490611cd1565b995b388080611ebd565b9092979c989160020161010061ff0019825416179055609692818481020484141715610526576120259261271091020490611c3c565b95611fe7565b509793949196959050601092600e830155600f8201550155806122bc575b50600d810154600e82015490837f63664d33416c0ab02e7dfe6555e6f8fc77af9ca212a3fef165a05acdaa4e17686060600f86015493604051908152856020820152846040820152a26706f05b59d3b200006120a58284611c3c565b109182156122b3575b5081156122aa575b5061224957600e810154600f8201548082146121d557505060a081600e7ff64c79c3632fcd52f5f08e54c35fc6871794ed1878e02f3061139a4c178221bd930154600f820154116000146121cd576000905b6121158260098301611c61565b600360ff19600181600b8501541617600b84015560018301541617600182015543600882015584600052600a602052847fec81deb90bcc57c0ca18f5c03c0c05887db260d498c57b4e02fe93898578dc7e602060406000205461217a81600454611c3c565b60045583600052600a825260006040812055604051908152a2600e81015490600f81015460056004830154920154926121b660405180966119e8565b6020850152604084015260608301526080820152a2565b600190612108565b839250604061224794927ec62d58cbb6a9291254143347fdc129d33fc8550dbb03c801abb5fcba00470d9282519182526020820152a26040519061221882611898565b601e82527f457861637420746965202d20726566756e64696e6720616c6c206265747300006020830152612e16565b565b506040516122479161225a826118b3565b603882527f496e73756666696369656e742076616c69642070617274696369706174696f6e6020830152771030b33a32b91030b73a3496b9b734b832903334b63a32b960411b6040830152612e16565b905015386120b6565b159150386120ae565b82600052600a60205260406000206122d5828254611cd1565b90558260005260096020526122f06040600020918254611c3c565b905538612049565b604051639e3295eb60e01b8152600490fd5b7fdab333d290ddbdbd09a1cbf1766353f798286b4094fde23aa5d2ab9b4da6ac81829161234b61224795600b60018060401b0391015460081c169143611cd1565b9061235b60405192839283611d6f565b0390a26040519061236b826118b3565b602e82527f4472616e642070756c73652074696d656f7574202d2072616e646f6d6e65737360208301526d206e6f7420617661696c61626c6560901b6040830152612e16565b906007810154431061247c576001600160401b0390816123cf612ecc565b1680156124435760030191808311610526577fe9f1164ee64311d70a683540a72008a8eb3e00f426d9c7843faaacd938fd9a3f9282612415600b61243e95019283611c79565b43600c8201556001600260ff198284015416179101555460081c16604051918291439083611d6f565b0390a2565b505050612247906040519061245782611898565b60138252724472616e64206e6f7420617661696c61626c6560681b6020830152612e16565b60405163658aead360e01b8152600490fd5b50600254811015611d93565b3d156124d4573d906001600160401b03821161178d57604051916124c8601f8201601f1916602001846118ce565b82523d6000602084013e565b606090565b80158015612829575b610a3f576000908082526020600681526040808420916007815281852033865281528185208580528152818520805493841561281857600282019485549060ff918281166128075782600b8501541615806127da575b61277e57505080600183015416600581101561276a576003811415908161275e575b5061274d578554818160081c166126f05750600982018181541660028110156126dc576126b0575416600281101561269c5761269157600e810154905b825491670de0b6b3a7640000928381029080820485149015171561267d576125c56125cd9392601092611cb1565b910154611c9e565b0493600160ff198254161790558361263f575b338652600c82526001838720016125f78154611c2d565b9055338652600c8252600283872001612611858254611c3c565b905561261c336134b8565b54908251958652850152830152600080516020613b0983398151915260603393a3565b84865260098252828620612654858254611cd1565b90558580808087335af161266661249a565b506125e0575b82516312171d8360e31b8152600490fd5b634e487b7160e01b8a52601160045260248afd5b600f81015490612597565b634e487b7160e01b88526021600452602488fd5b50505050600c91935060039492600160ff198254161790553383525220016126d88154611c2d565b9055565b634e487b7160e01b8a52602160045260248afd5b949592905060019150549360ff191617905583855260098152828520612717838254611cd1565b90558480808085335af161272961249a565b501561266c5782519485528401523392600080516020613b298339815191529190a3565b8451636082930560e11b8152600490fd5b6004915014153861255a565b634e487b7160e01b89526021600452602489fd5b9150949592506001915060ff1916179055838552600981528285206127a4838254611cd1565b90558480808085335af16127b661249a565b501561266c5782519485528401523392600080516020613b498339815191529190a3565b508260018501541660058110156127f357600414612538565b634e487b7160e01b8b52602160045260248bfd5b8651630c8d9eab60e31b8152600490fd5b8351632f42cbdd60e01b8152600490fd5b506002548110156124e2565b80158015612b0f575b610a3f57600090808252602060068152604080842091600781528185203386528152818520946001958682528252828120908154948515612afe57600283019586549060ff91828116612aed578a9083600b860154161580612abe575b612a885750829150830154166005811015612a745760038114159081612a68575b50612a5757865489828260081c16612a2057505060098201818154166002811015612a0c578a036129e557541660028110156129d1576129c657600e810154905b835491670de0b6b3a764000092838102908082048514901517156129b2576125c561292b9392601092611cb1565b04948760ff19825416179055838561296d575b600291338152600c855288828220016129578154611c2d565b9055338152600c85522001612611858254611c3c565b5085815260098352838120612983868254611cd1565b90558080808088335af161299561249a565b50156129a1578361293e565b83516312171d8360e31b8152600490fd5b634e487b7160e01b85526011600452602485fd5b600f810154906128fd565b634e487b7160e01b83526021600452602483fd5b505050939050600c92945060039560ff198254161790553383525220016126d88154611c2d565b634e487b7160e01b85526021600452602485fd5b9250959692939050549460ff191617905584815260098252838120612a46848254611cd1565b905580808085335af161272961249a565b8551636082930560e11b8152600490fd5b600491501415386128bc565b634e487b7160e01b84526021600452602484fd5b92509250959692935060ff191617905584815260098252838120612aad848254611cd1565b905580808085335af16127b661249a565b509084015483166005811015612ad9579060048c921461289b565b634e487b7160e01b86526021600452602486fd5b8751630c8d9eab60e31b8152600490fd5b8451632f42cbdd60e01b8152600490fd5b5060025481101561283e565b80158015612e0a575b610a3f57600081815260206006815260409081832092600782528281203382528252612b5286848320611b96565b918254948515612afe57600284019586549060ff91828116612aed5782600b850154161580612ddd575b612d81575050806001830154166005811015612a0c5760038114159081612d75575b50612a57578654818160081c16612d10575060098201818154166002811015612ad95760028b1015612ad9578a03612ce65754166002811015612a7457612cdb57600e810154905b845491670de0b6b3a76400009283810290808204851490151715612cc7576125c5612c149392601092611cb1565b0494600160ff1982541617905584612c8a575b91600284612c8593600c600080516020613b09833981519152989796338352818152600184842001612c598154611c2d565b9055338352522001612c6c858254611c3c565b9055612c77336134b8565b549151928392339784611cfc565b0390a3565b85825260098152838220612c9f868254611cd1565b90558180808088335af1612cb161249a565b50612c275783516312171d8360e31b8152600490fd5b634e487b7160e01b86526011600452602486fd5b600f81015490612be6565b50505091509260039550600c929450600160ff198254161790553383525220016126d88154611c2d565b95969294905060019150549460ff191617905584815260098252838120612d38848254611cd1565b905580808085335af1612d4961249a565b501561266c57908291612d6d600080516020613b29833981519152945180976119e8565b8501523393a3565b60049150141538612b9e565b915095969294506001915060ff191617905584815260098252838120612da8848254611cd1565b905580808085335af1612db961249a565b501561266c57908291612d6d600080516020613b49833981519152945180976119e8565b50826001850154166005811015612df657600414612b7c565b634e487b7160e01b87526021600452602487fd5b50600254811015612b24565b907f0f023b047be6c305859504186f8b03ee5a634f9ab472ff386d3b1de9387c083e906000838152602090600682526040812090600a8352604081205460098452612e6660408320918254611c3c565b9055858152600a83526040812055612e876002820154600383015490611c3c565b600a820155600b600182019160ff19926004848254161790550190815416905561243e60405192828493845283019061192a565b908151811015611b68570160200190565b612ef8604051612edb81611898565b60208152600080516020613b698339815191526020820152612f5e565b600880825110612f57579060009182915b818310612f165750505090565b909192612f238483612ebb565b5160f81c908460031b85810485148615171561052657612f509260018060401b038092161b161793611c2d565b9190612f09565b5050600090565b60008082602082945191016108075afa90612f7761249a565b9115612f81575090565b6040519150602082016001600160401b03811183821017612fa85760405280825236813790565b634e487b7160e01b82526041600452602482fd5b6040805190612fca82611898565b6008908183526020938436818601376000905b83821061348557505080519261010084016001600160401b0381118582101761178d57825260d584528484019060e0368337805191600081536000602187015360006022870153600c602387015360249560188782015360f9602582015360bc602682015360f360278201536067602882015360e660298201536009602a820153606a602b820153603b602c82015360a7602d82015360ca602e8201536084602f82015360309360858583015360ae60318301536067603283015360bb6033830153602b603483015360f860358301536094603683015360fe60378301536072603883015360f36039830153606e603a830153603c603b83015360f1603c8301536036603d830153601d603e830153605f603f830153603a8683015360f56041830153604f604283015360a5604383015360d160448301536082604583015360e6604683015360ad6047830153607f604883015360526049830153600e604a8301536051604b830153601f604c830153606c604d830153603e604e830153602b604f830153608c60508301536068605183015360056052830153609b6053830153606b605483015360bd60558301536041605683015360fb605783015360ab605883015360d960598301536083605a830153601f605b8301536079605c8301536021605d830153607e605e8301536013605f8301536019606083015360cd606183015360e06062830153605b606383015360005b81811061345e5750916000929160ff838186951660e4840153891c1660e5820153600160f4820153519060095afa61322761249a565b9080613454575b1561342057860151835193613242856118b3565b6038855236888601376132536118f1565b60005b8881106133f557505060005b601081106133d457505060005b8481106133815750505061328290612f5e565b90815190811561337757602982106133775710156133625760288101518060f81c60006003821680156000146133015750505060fa1c91836009935b036132f8578151848401918285116132e45750106132dc5701015190565b505050600090565b634e487b7160e01b60009081526011600452fd5b50505050600090565b9192509060010361335a578251600a8110613351576009101561333e575061ffff9061ff00602984015160f01c161760021c169183600a936132be565b634e487b7160e01b815260326004528390fd5b50935050505090565b935050505090565b50634e487b7160e01b60009081526032600452fd5b5050505050600090565b6001600160f81b03196133948284612ebb565b5116818401908185116133bf57906133b46133ba939260001a9187612ebb565b53611c2d565b61326f565b87634e487b7160e01b60005260116004526000fd5b8088018089116133bf57906133f0916133b484831a9188612ebb565b613262565b61341b906001600160f81b031961340c8285612ebb565b511660001a6133b48289612ebb565b613256565b835162461bcd60e51b815260048101889052600e818801526d189b185ad94c998819985a5b195960921b6044820152606490fd5b508381511461322e565b80608060019210613470575b016131f1565b8a818701015160001a6064828601015361346a565b66ffffffffffffff6134b29160ff60f81b8160f81b1660001a6134a88589612ebb565b53851c1691611c2d565b90612fdd565b9060018060a01b039182811692600092848452600c92602090848252600290604090828289200154908899898a91600d54925b8381106136d6575b505015613608575b505050965b80158015806135a5575b1561359a576000198201918083116135865761355b6135608861356c9361353087611b4d565b9390549161353d81611b4d565b969054966003978661354e8d611b4d565b9290938b1b1c1691611cde565b611b4d565b9390941b1c1691611cde565b15613500575b634e487b7160e01b87526011600452602487fd5b634e487b7160e01b89526011600452602489fd5b505050509350505050565b50856135b083611b4d565b919054600392831b1c168952878552838a8a2001549060001984018481116135f457906135dd8992611b4d565b9054911b1c168952878552838a8a2001541061350a565b634e487b7160e01b8b52601160045260248bfd5b929950909160648110156136745750600d54909150600160401b811015613660579061363d8260016136439401600d55611b4d565b90611cde565b600d54600019810190811161357257908491975b909138806134fb565b634e487b7160e01b88526041600452602488fd5b6000199281840191821161267d578761368c83611b4d565b90549060031b1c168a52888652848b8b200154106000146136ca579061363d6136b492611b4d565b600d549081019081116135725790849197613657565b50505050509350505050565b818b6136e183611b4d565b90549060031b1c16146136fc576136f790611c2d565b6134eb565b9c505050600138806134f3565b6040519061371682611861565b816102206000918281528260208201528260408201528260608201528260808201528260a08201528260c08201528260e08201528261010082015282610120820152826101408201528261016082015282610180820152826101a0820152826101c0820152826101e0820152826102008201520152565b6040519061379a8261187d565b60006060838281528260208201528260408201520152565b906040516137bf8161187d565b606060ff60028395805485526001810154602086015201548181161515604085015260081c161515910152565b6001600160401b03811161178d5760051b60200190565b9061380d826137ec565b61381a60405191826118ce565b828152809261382b601f19916137ec565b0190602036910137565b8051821015611b685760209160051b010190565b9392909184158015613912575b613909576000948552600660205260408520926007602052604086209060018060a01b03168652602052613897826138918360408920611b96565b54611c3c565b916096810281810460961482151715613572576127106138b8910482611cd1565b916002811015612df65791600a6138e96138f1936138f796956138fc999a50156000146138ff576002880154611c3c565b950154611c3c565b90611c9e565b611cb1565b90565b6003880154611c3c565b50600093505050565b50600254851015613856565b9190821580156139a4575b61399c576000928352600660205260408320906002811015612a7457613991576002810154905b811561398d57600a015461271090818102918183041490151715613979576138fc929350611cb1565b634e487b7160e01b84526011600452602484fd5b5050565b600381015490613950565b506127109150565b50600254831015613929565b80158015613a05575b6139ff57600090815260066020526040812060ff60018201541660058110156129d1576001036139fb5760070154804310156139fb576138fc91504390611cd1565b5090565b50600090565b506002548110156139b9565b80158015613a7f575b6139ff57600090815260066020526040812060ff60018201541660058110156129d1576001036139fb576007015490601819820190828211613a6b57504310159081613a64575090565b9050431090565b634e487b7160e01b81526011600452602490fd5b50600254811015613a1a565b600090815260066020526040812060ff60018201541660058110156129d1576002036139fb57600c015490611c208201809211613a6b575043119056fe8be0079c531659141344cd1fd0a4f28419497f9722a3daafe3b4186f6b6457e0bfcd8f4e47cc529f86cdc7eab8fb80e015a298e021fcaee72df1f76dd57cf487d6a2a5fa33ed09b7e0ad44c465d1d7cc1ebac5fe4f8e9c6625c55a874855db5fc328de79496782527b9f229c166413e535bd9c04254c7252cd37763a43c61e7596be94f3cb4521868c06461d3a4197839df4d896c7fb4362fc0e3be356a11c12a285cdb66e8b8524ea70b1693c7b1e05087f3dd6e0ceded0e388dd34f810a73da2646970667358221220b6b6a1000554b954244eca224d019f58b02a837221593ef29e0ea76523679d8564736f6c63430008130033","opcodes":"PUSH1 0x80 DUP1 PUSH1 0x40 MSTORE CALLVALUE PUSH2 0x72 JUMPI PUSH1 0x1 PUSH1 0x0 DUP2 DUP2 SSTORE DUP2 SLOAD CALLER PUSH1 0x1 PUSH1 0x1 PUSH1 0xA0 SHL SUB NOT DUP3 AND DUP2 OR SWAP1 SWAP4 SSTORE PUSH1 0x1 PUSH1 0x1 PUSH1 0xA0 SHL SUB AND SWAP1 PUSH32 0x8BE0079C531659141344CD1FD0A4F28419497F9722A3DAAFE3B4186F6B6457E0 SWAP1 DUP1 LOG3 PUSH1 0x1 PUSH1 0x2 SSTORE PUSH1 0x0 PUSH1 0x3 SSTORE PUSH1 0xFF NOT PUSH1 0x5 SLOAD AND PUSH1 0x5 SSTORE PUSH2 0x3BBE SWAP1 DUP2 PUSH2 0x78 DUP3 CODECOPY RETURN JUMPDEST PUSH1 0x0 DUP1 REVERT INVALID PUSH1 0xE0 PUSH1 0x40 MSTORE PUSH1 0x4 CALLDATASIZE LT ISZERO PUSH2 0x12 JUMPI PUSH1 0x0 DUP1 REVERT JUMPDEST PUSH1 0x0 CALLDATALOAD PUSH1 0xE0 SHR DUP1 PUSH4 0x3EDF914 EQ PUSH2 0x1552 JUMPI DUP1 PUSH4 0x480091A EQ PUSH2 0x1522 JUMPI DUP1 PUSH4 0x75AA970 EQ PUSH2 0x13E6 JUMPI DUP1 PUSH4 0xE182DF1 EQ PUSH2 0x13B9 JUMPI DUP1 PUSH4 0x117A5B90 EQ PUSH2 0x1275 JUMPI DUP1 PUSH4 0x16C38B3C EQ PUSH2 0x1213 JUMPI DUP1 PUSH4 0x19BE5AD0 EQ PUSH2 0xA5D JUMPI DUP1 PUSH4 0x232CCF7D EQ PUSH2 0x11C7 JUMPI DUP1 PUSH4 0x34FBC9A1 EQ PUSH2 0x11AB JUMPI DUP1 PUSH4 0x37E5A0EB EQ PUSH2 0x118E JUMPI DUP1 PUSH4 0x44933539 EQ PUSH2 0x1172 JUMPI DUP1 PUSH4 0x476343EE EQ PUSH2 0x1116 JUMPI DUP1 PUSH4 0x482D51E0 EQ PUSH2 0xEAE JUMPI DUP1 PUSH4 0x4E43603A EQ PUSH2 0xE25 JUMPI DUP1 PUSH4 0x51BCEFA1 EQ PUSH2 0xDD8 JUMPI DUP1 PUSH4 0x536A3DDC EQ PUSH2 0xDBA JUMPI DUP1 PUSH4 0x587F5ED7 EQ PUSH2 0xD79 JUMPI DUP1 PUSH4 0x5C975ABB EQ PUSH2 0xD97 JUMPI DUP1 PUSH4 0x5DF45A37 EQ PUSH2 0xD79 JUMPI DUP1 PUSH4 0x6475E3D3 EQ PUSH2 0xD57 JUMPI DUP1 PUSH4 0x674943AD EQ PUSH2 0xD39 JUMPI DUP1 PUSH4 0x67C15F6A EQ PUSH2 0xD20 JUMPI DUP1 PUSH4 0x6C3C1A45 EQ PUSH2 0xD02 JUMPI DUP1 PUSH4 0x6D763A6E EQ PUSH2 0xC9E JUMPI DUP1 PUSH4 0x715018A6 EQ PUSH2 0xC53 JUMPI DUP1 PUSH4 0x7489780B EQ PUSH2 0xC2B JUMPI DUP1 PUSH4 0x7DD7F492 EQ PUSH2 0xB7D JUMPI DUP1 PUSH4 0x8A65D874 EQ PUSH2 0xB21 JUMPI DUP1 PUSH4 0x8D652D43 EQ PUSH2 0xB05 JUMPI DUP1 PUSH4 0x8DA5CB5B EQ PUSH2 0xADC JUMPI DUP1 PUSH4 0x8ED6F26C EQ PUSH2 0x5E1 JUMPI DUP1 PUSH4 0x968D901B EQ PUSH2 0xA89 JUMPI DUP1 PUSH4 0x9DAD1DA5 EQ PUSH2 0xA5D JUMPI DUP1 PUSH4 0xA2F77BCC EQ PUSH2 0x914 JUMPI DUP1 PUSH4 0xA5C44A65 EQ PUSH2 0x848 JUMPI DUP1 PUSH4 0xAFC250A7 EQ PUSH2 0x365 JUMPI DUP1 PUSH4 0xB135BBB0 EQ PUSH2 0x82A JUMPI DUP1 PUSH4 0xB3954FB3 EQ PUSH2 0x80D JUMPI DUP1 PUSH4 0xB7A5A5B6 EQ PUSH2 0x7EF JUMPI DUP1 PUSH4 0xBAF15DD1 EQ PUSH2 0x7D2 JUMPI DUP1 PUSH4 0xBCBDECB7 EQ PUSH2 0x748 JUMPI DUP1 PUSH4 0xBDFFAF7B EQ PUSH2 0x725 JUMPI DUP1 PUSH4 0xBEF58EB2 EQ PUSH2 0x6FC JUMPI DUP1 PUSH4 0xBF368399 EQ PUSH2 0x6D3 JUMPI DUP1 PUSH4 0xBF9607C6 EQ PUSH2 0x6B7 JUMPI DUP1 PUSH4 0xC970F63E EQ PUSH2 0x684 JUMPI DUP1 PUSH4 0xCC830F50 EQ PUSH2 0x655 JUMPI DUP1 PUSH4 0xCE1EA732 EQ PUSH2 0x603 JUMPI DUP1 PUSH4 0xD73792A9 EQ PUSH2 0x5E6 JUMPI DUP1 PUSH4 0xDB877142 EQ PUSH2 0x5E1 JUMPI DUP1 PUSH4 0xE0CA49AE EQ PUSH2 0x575 JUMPI DUP1 PUSH4 0xE4258ADE EQ PUSH2 0x53C JUMPI DUP1 PUSH4 0xE87C0EE6 EQ PUSH2 0x4FB JUMPI DUP1 PUSH4 0xE978F045 EQ PUSH2 0x4A8 JUMPI DUP1 PUSH4 0xEC1B3AB5 EQ PUSH2 0x482 JUMPI DUP1 PUSH4 0xEC844654 EQ PUSH2 0x442 JUMPI DUP1 PUSH4 0xF2FDE38B EQ PUSH2 0x391 JUMPI DUP1 PUSH4 0xF95547FA EQ PUSH2 0x365 JUMPI PUSH4 0xFA744DD3 EQ PUSH2 0x2A5 JUMPI PUSH1 0x0 DUP1 REVERT JUMPDEST CALLVALUE PUSH2 0x360 JUMPI PUSH1 0x40 CALLDATASIZE PUSH1 0x3 NOT ADD SLT PUSH2 0x360 JUMPI PUSH2 0x100 PUSH1 0x4 CALLDATALOAD PUSH2 0x35E PUSH2 0x2C7 PUSH2 0x1A0B JUMP JUMPDEST PUSH1 0x40 MLOAD SWAP1 PUSH2 0x2D4 DUP3 PUSH2 0x1898 JUMP JUMPDEST PUSH2 0x2DC PUSH2 0x378D JUMP JUMPDEST DUP3 MSTORE PUSH2 0x2E6 PUSH2 0x378D JUMP JUMPDEST PUSH1 0x20 SWAP3 DUP4 ADD MSTORE PUSH1 0x0 SWAP4 DUP5 MSTORE PUSH1 0x7 DUP3 MSTORE PUSH1 0x40 DUP1 DUP6 KECCAK256 PUSH1 0x1 PUSH1 0x1 PUSH1 0xA0 SHL SUB SWAP3 SWAP1 SWAP3 AND DUP6 MSTORE SWAP1 DUP3 MSTORE DUP1 DUP5 KECCAK256 DUP5 DUP1 MSTORE DUP3 MSTORE DUP1 DUP5 KECCAK256 PUSH1 0x1 DUP6 MSTORE SWAP4 DUP2 SWAP1 KECCAK256 SWAP1 MLOAD SWAP4 PUSH2 0x33F SWAP2 SWAP1 PUSH2 0x338 SWAP1 PUSH2 0x333 DUP8 PUSH2 0x1898 JUMP JUMPDEST PUSH2 0x37B2 JUMP JUMPDEST DUP6 MSTORE PUSH2 0x37B2 JUMP JUMPDEST SWAP1 DUP4 ADD SWAP1 DUP2 MSTORE PUSH2 0x353 PUSH1 0x40 MLOAD DUP1 SWAP5 MLOAD PUSH2 0x1BAE JUMP JUMPDEST MLOAD PUSH1 0x80 DUP4 ADD SWAP1 PUSH2 0x1BAE JUMP JUMPDEST RETURN JUMPDEST PUSH1 0x0 DUP1 REVERT JUMPDEST CALLVALUE PUSH2 0x360 JUMPI PUSH1 0x20 CALLDATASIZE PUSH1 0x3 NOT ADD SLT PUSH2 0x360 JUMPI PUSH1 0x4 CALLDATALOAD PUSH1 0x0 MSTORE PUSH1 0xA PUSH1 0x20 MSTORE PUSH1 0x20 PUSH1 0x40 PUSH1 0x0 KECCAK256 SLOAD PUSH1 0x40 MLOAD SWAP1 DUP2 MSTORE RETURN JUMPDEST CALLVALUE PUSH2 0x360 JUMPI PUSH1 0x20 CALLDATASIZE PUSH1 0x3 NOT ADD SLT PUSH2 0x360 JUMPI PUSH2 0x3AA PUSH2 0x19F5 JUMP JUMPDEST PUSH2 0x3B2 PUSH2 0x1BD5 JUMP JUMPDEST PUSH1 0x1 PUSH1 0x1 PUSH1 0xA0 SHL SUB SWAP1 DUP2 AND SWAP1 DUP2 ISZERO PUSH2 0x3EE JUMPI PUSH1 0x1 DUP1 SLOAD PUSH1 0x1 PUSH1 0x1 PUSH1 0xA0 SHL SUB NOT DUP2 AND DUP5 OR SWAP1 SWAP2 SSTORE AND PUSH1 0x0 DUP1 MLOAD PUSH1 0x20 PUSH2 0x3AC9 DUP4 CODECOPY DUP2 MLOAD SWAP2 MSTORE PUSH1 0x0 DUP1 LOG3 STOP JUMPDEST PUSH1 0x40 MLOAD PUSH3 0x461BCD PUSH1 0xE5 SHL DUP2 MSTORE PUSH1 0x20 PUSH1 0x4 DUP3 ADD MSTORE PUSH1 0x26 PUSH1 0x24 DUP3 ADD MSTORE PUSH32 0x4F776E61626C653A206E6577206F776E657220697320746865207A65726F2061 PUSH1 0x44 DUP3 ADD MSTORE PUSH6 0x646472657373 PUSH1 0xD0 SHL PUSH1 0x64 DUP3 ADD MSTORE PUSH1 0x84 SWAP1 REVERT JUMPDEST CALLVALUE PUSH2 0x360 JUMPI PUSH1 0x80 CALLDATASIZE PUSH1 0x3 NOT ADD SLT PUSH2 0x360 JUMPI PUSH2 0x45B PUSH2 0x1A0B JUMP JUMPDEST PUSH1 0x44 CALLDATALOAD PUSH1 0x2 DUP2 LT ISZERO PUSH2 0x360 JUMPI PUSH1 0x20 SWAP2 PUSH2 0x47A SWAP2 PUSH1 0x64 CALLDATALOAD SWAP2 PUSH1 0x4 CALLDATALOAD PUSH2 0x3849 JUMP JUMPDEST PUSH1 0x40 MLOAD SWAP1 DUP2 MSTORE RETURN JUMPDEST CALLVALUE PUSH2 0x360 JUMPI PUSH2 0x4A1 PUSH2 0x493 CALLDATASIZE PUSH2 0x1842 JUMP JUMPDEST SWAP1 PUSH2 0x49C PUSH2 0x1D19 JUMP JUMPDEST PUSH2 0x2B1B JUMP JUMPDEST PUSH1 0x1 PUSH1 0x0 SSTORE STOP JUMPDEST CALLVALUE PUSH2 0x360 JUMPI PUSH1 0x80 PUSH2 0x4EE PUSH2 0x333 PUSH2 0x4BE CALLDATASIZE PUSH2 0x1A21 JUMP JUMPDEST SWAP2 PUSH2 0x4C7 PUSH2 0x378D JUMP JUMPDEST POP PUSH1 0x0 MSTORE PUSH1 0x7 PUSH1 0x20 MSTORE PUSH1 0x40 PUSH1 0x0 KECCAK256 SWAP1 PUSH1 0x1 DUP1 PUSH1 0xA0 SHL SUB AND PUSH1 0x0 MSTORE PUSH1 0x20 MSTORE PUSH1 0x40 PUSH1 0x0 KECCAK256 PUSH2 0x1B96 JUMP JUMPDEST PUSH2 0x35E PUSH1 0x40 MLOAD DUP1 SWAP3 PUSH2 0x1BAE JUMP JUMPDEST CALLVALUE PUSH2 0x360 JUMPI PUSH1 0x0 CALLDATASIZE PUSH1 0x3 NOT ADD SLT PUSH2 0x360 JUMPI PUSH1 0x2 SLOAD PUSH1 0x0 NOT DUP2 ADD SWAP1 DUP2 GT PUSH2 0x526 JUMPI PUSH1 0x20 SWAP1 PUSH1 0x40 MLOAD SWAP1 DUP2 MSTORE RETURN JUMPDEST PUSH4 0x4E487B71 PUSH1 0xE0 SHL PUSH1 0x0 MSTORE PUSH1 0x11 PUSH1 0x4 MSTORE PUSH1 0x24 PUSH1 0x0 REVERT JUMPDEST CALLVALUE PUSH2 0x360 JUMPI PUSH1 0x20 CALLDATASIZE PUSH1 0x3 NOT ADD SLT PUSH2 0x360 JUMPI PUSH1 0x4 CALLDATALOAD PUSH1 0x1 PUSH1 0x1 PUSH1 0x40 SHL SUB DUP2 AND DUP2 SUB PUSH2 0x360 JUMPI PUSH2 0x56B PUSH1 0x20 SWAP2 PUSH2 0x2FBC JUMP JUMPDEST ISZERO ISZERO PUSH1 0x40 MLOAD SWAP1 DUP2 MSTORE RETURN JUMPDEST CALLVALUE PUSH2 0x360 JUMPI PUSH1 0x80 PUSH2 0x5AF PUSH2 0x588 CALLDATASIZE PUSH2 0x1A21 JUMP JUMPDEST SWAP2 PUSH1 0x0 MSTORE PUSH1 0x7 PUSH1 0x20 MSTORE PUSH1 0x40 PUSH1 0x0 KECCAK256 SWAP1 PUSH1 0x1 DUP1 PUSH1 0xA0 SHL SUB AND PUSH1 0x0 MSTORE PUSH1 0x20 MSTORE PUSH1 0x40 PUSH1 0x0 KECCAK256 PUSH2 0x1B96 JUMP JUMPDEST PUSH1 0xFF DUP2 SLOAD SWAP2 PUSH1 0x2 PUSH1 0x1 DUP3 ADD SLOAD SWAP2 ADD SLOAD SWAP1 PUSH1 0x40 MLOAD SWAP4 DUP5 MSTORE PUSH1 0x20 DUP5 ADD MSTORE DUP2 DUP2 AND ISZERO ISZERO PUSH1 0x40 DUP5 ADD MSTORE PUSH1 0x8 SHR AND ISZERO ISZERO PUSH1 0x60 DUP3 ADD MSTORE RETURN JUMPDEST PUSH2 0x1A54 JUMP JUMPDEST CALLVALUE PUSH2 0x360 JUMPI PUSH1 0x0 CALLDATASIZE PUSH1 0x3 NOT ADD SLT PUSH2 0x360 JUMPI PUSH1 0x20 PUSH1 0x40 MLOAD PUSH2 0x2710 DUP2 MSTORE RETURN JUMPDEST CALLVALUE PUSH2 0x360 JUMPI PUSH1 0x40 CALLDATASIZE PUSH1 0x3 NOT ADD SLT PUSH2 0x360 JUMPI PUSH1 0x24 CALLDATALOAD PUSH1 0x4 CALLDATALOAD PUSH1 0x0 MSTORE PUSH1 0x8 PUSH1 0x20 MSTORE PUSH1 0x40 PUSH1 0x0 KECCAK256 DUP1 SLOAD DUP3 LT ISZERO PUSH2 0x360 JUMPI PUSH1 0x20 SWAP2 PUSH2 0x63C SWAP2 PUSH2 0x1B7E JUMP JUMPDEST SWAP1 SLOAD PUSH1 0x40 MLOAD PUSH1 0x3 SWAP3 SWAP1 SWAP3 SHL SHR PUSH1 0x1 PUSH1 0x1 PUSH1 0xA0 SHL SUB AND DUP2 MSTORE RETURN JUMPDEST CALLVALUE PUSH2 0x360 JUMPI PUSH1 0x20 CALLDATASIZE PUSH1 0x3 NOT ADD SLT PUSH2 0x360 JUMPI PUSH1 0x4 CALLDATALOAD PUSH1 0x1 PUSH1 0x1 PUSH1 0x40 SHL SUB DUP2 AND DUP2 SUB PUSH2 0x360 JUMPI PUSH2 0x47A PUSH1 0x20 SWAP2 PUSH2 0x2FBC JUMP JUMPDEST CALLVALUE PUSH2 0x360 JUMPI PUSH1 0x0 CALLDATASIZE PUSH1 0x3 NOT ADD SLT PUSH2 0x360 JUMPI PUSH1 0x40 PUSH1 0x1 PUSH1 0x1 PUSH1 0x40 SHL SUB PUSH2 0x6A7 PUSH2 0x2ECC JUMP JUMPDEST AND DUP2 MLOAD SWAP1 DUP1 DUP3 MSTORE ISZERO ISZERO PUSH1 0x20 DUP3 ADD MSTORE RETURN JUMPDEST CALLVALUE PUSH2 0x360 JUMPI PUSH1 0x0 CALLDATASIZE PUSH1 0x3 NOT ADD SLT PUSH2 0x360 JUMPI PUSH1 0x20 PUSH1 0x40 MLOAD PUSH1 0x19 DUP2 MSTORE RETURN JUMPDEST CALLVALUE PUSH2 0x360 JUMPI PUSH1 0x20 CALLDATASIZE PUSH1 0x3 NOT ADD SLT PUSH2 0x360 JUMPI PUSH1 0x4 CALLDATALOAD PUSH1 0xD SLOAD DUP2 LT ISZERO PUSH2 0x360 JUMPI PUSH2 0x63C PUSH1 0x20 SWAP2 PUSH2 0x1B4D JUMP JUMPDEST CALLVALUE PUSH2 0x360 JUMPI PUSH1 0x0 CALLDATASIZE PUSH1 0x3 NOT ADD SLT PUSH2 0x360 JUMPI PUSH1 0x20 PUSH1 0x40 MLOAD PUSH1 0x0 DUP1 MLOAD PUSH1 0x20 PUSH2 0x3B69 DUP4 CODECOPY DUP2 MLOAD SWAP2 MSTORE DUP2 MSTORE RETURN JUMPDEST CALLVALUE PUSH2 0x360 JUMPI PUSH1 0x0 CALLDATASIZE PUSH1 0x3 NOT ADD SLT PUSH2 0x360 JUMPI PUSH1 0x20 PUSH1 0x40 MLOAD PUSH8 0x6F05B59D3B20000 DUP2 MSTORE RETURN JUMPDEST CALLVALUE PUSH2 0x360 JUMPI PUSH1 0x20 DUP1 PUSH1 0x3 NOT CALLDATASIZE ADD SLT PUSH2 0x360 JUMPI PUSH1 0x4 CALLDATALOAD PUSH1 0x0 MSTORE PUSH1 0x8 DUP2 MSTORE PUSH1 0x40 PUSH1 0x0 KECCAK256 SWAP1 PUSH1 0x40 MLOAD DUP1 DUP4 DUP4 DUP3 SWAP6 SLOAD SWAP4 DUP5 DUP2 MSTORE ADD SWAP1 PUSH1 0x0 MSTORE DUP4 PUSH1 0x0 KECCAK256 SWAP3 PUSH1 0x0 JUMPDEST DUP6 DUP3 DUP3 LT PUSH2 0x7B3 JUMPI POP POP POP PUSH2 0x79B SWAP3 POP SUB DUP4 PUSH2 0x18CE JUMP JUMPDEST PUSH2 0x7AF PUSH1 0x40 MLOAD SWAP3 DUP3 DUP5 SWAP4 DUP5 MSTORE DUP4 ADD SWAP1 PUSH2 0x196A JUMP JUMPDEST SUB SWAP1 RETURN JUMPDEST DUP6 SLOAD PUSH1 0x1 PUSH1 0x1 PUSH1 0xA0 SHL SUB AND DUP5 MSTORE PUSH1 0x1 SWAP6 DUP7 ADD SWAP6 DUP9 SWAP6 POP SWAP4 ADD SWAP3 ADD PUSH2 0x784 JUMP JUMPDEST CALLVALUE PUSH2 0x360 JUMPI PUSH1 0x0 CALLDATASIZE PUSH1 0x3 NOT ADD SLT PUSH2 0x360 JUMPI PUSH1 0x20 PUSH1 0x40 MLOAD PUSH2 0x1F4 DUP2 MSTORE RETURN JUMPDEST CALLVALUE PUSH2 0x360 JUMPI PUSH1 0x20 CALLDATASIZE PUSH1 0x3 NOT ADD SLT PUSH2 0x360 JUMPI PUSH2 0x80B PUSH1 0x4 CALLDATALOAD PUSH2 0x1D8A JUMP JUMPDEST STOP JUMPDEST CALLVALUE PUSH2 0x360 JUMPI PUSH1 0x0 CALLDATASIZE PUSH1 0x3 NOT ADD SLT PUSH2 0x360 JUMPI PUSH1 0x20 PUSH1 0x40 MLOAD PUSH2 0x807 DUP2 MSTORE RETURN JUMPDEST CALLVALUE PUSH2 0x360 JUMPI PUSH1 0x0 CALLDATASIZE PUSH1 0x3 NOT ADD SLT PUSH2 0x360 JUMPI PUSH1 0x20 PUSH1 0x2 SLOAD PUSH1 0x40 MLOAD SWAP1 DUP2 MSTORE RETURN JUMPDEST CALLVALUE PUSH2 0x360 JUMPI PUSH1 0x20 DUP1 PUSH1 0x3 NOT CALLDATASIZE ADD SLT PUSH2 0x360 JUMPI PUSH1 0x4 CALLDATALOAD SWAP1 PUSH2 0x866 PUSH2 0x1D19 JUMP JUMPDEST DUP2 PUSH1 0x0 MSTORE PUSH1 0x7 DUP2 MSTORE PUSH1 0x40 PUSH1 0x0 KECCAK256 CALLER PUSH1 0x0 MSTORE DUP2 MSTORE PUSH1 0x40 PUSH1 0x0 KECCAK256 PUSH1 0x0 DUP1 MSTORE DUP2 MSTORE PUSH1 0x40 PUSH1 0x0 KECCAK256 SWAP1 DUP3 PUSH1 0x0 MSTORE PUSH1 0x7 DUP2 MSTORE PUSH1 0x40 PUSH1 0x0 KECCAK256 CALLER PUSH1 0x0 MSTORE DUP2 MSTORE PUSH1 0x40 PUSH1 0x0 KECCAK256 SWAP1 PUSH1 0x1 PUSH1 0x0 MSTORE MSTORE PUSH1 0x40 PUSH1 0x0 KECCAK256 SWAP1 DUP1 SLOAD ISZERO ISZERO SWAP1 DUP2 PUSH2 0x904 JUMPI JUMPDEST POP PUSH2 0x8F6 JUMPI JUMPDEST DUP1 SLOAD ISZERO ISZERO SWAP1 DUP2 PUSH2 0x8E6 JUMPI JUMPDEST POP PUSH2 0x8D7 JUMPI PUSH1 0x1 PUSH1 0x0 SSTORE STOP JUMPDEST PUSH2 0x8E0 SWAP1 PUSH2 0x2835 JUMP JUMPDEST DUP1 PUSH2 0x4A1 JUMP JUMPDEST PUSH1 0xFF SWAP2 POP PUSH1 0x2 ADD SLOAD AND ISZERO DUP3 PUSH2 0x8CB JUMP JUMPDEST PUSH2 0x8FF DUP3 PUSH2 0x24D9 JUMP JUMPDEST PUSH2 0x8C0 JUMP JUMPDEST PUSH1 0xFF SWAP2 POP PUSH1 0x2 ADD SLOAD AND ISZERO DUP4 PUSH2 0x8BA JUMP JUMPDEST CALLVALUE PUSH2 0x360 JUMPI PUSH1 0x20 CALLDATASIZE PUSH1 0x3 NOT ADD SLT PUSH2 0x360 JUMPI PUSH1 0x4 CALLDATALOAD PUSH2 0x930 PUSH2 0x3709 JUMP JUMPDEST POP DUP1 ISZERO DUP1 ISZERO PUSH2 0xA51 JUMPI JUMPDEST PUSH2 0xA3F JUMPI PUSH1 0x0 MSTORE PUSH1 0x6 PUSH1 0x20 MSTORE PUSH2 0x7AF PUSH1 0x40 PUSH1 0x0 KECCAK256 PUSH1 0x10 PUSH1 0x40 MLOAD SWAP2 PUSH2 0x95D DUP4 PUSH2 0x1861 JUMP JUMPDEST DUP1 SLOAD DUP4 MSTORE PUSH2 0x975 PUSH1 0xFF PUSH1 0x1 DUP4 ADD SLOAD AND PUSH1 0x20 DUP6 ADD PUSH2 0x1C49 JUMP JUMPDEST PUSH1 0x2 DUP2 ADD SLOAD PUSH1 0x40 DUP5 ADD MSTORE PUSH1 0x3 DUP2 ADD SLOAD PUSH1 0x60 DUP5 ADD MSTORE PUSH1 0x4 DUP2 ADD SLOAD PUSH1 0x80 DUP5 ADD MSTORE PUSH1 0x5 DUP2 ADD SLOAD PUSH1 0xA0 DUP5 ADD MSTORE PUSH1 0x6 DUP2 ADD SLOAD PUSH1 0xC0 DUP5 ADD MSTORE PUSH1 0x7 DUP2 ADD SLOAD PUSH1 0xE0 DUP5 ADD MSTORE PUSH1 0x8 DUP2 ADD SLOAD PUSH2 0x100 DUP5 ADD MSTORE PUSH2 0x9D1 PUSH1 0xFF PUSH1 0x9 DUP4 ADD SLOAD AND PUSH2 0x120 DUP6 ADD PUSH2 0x1C55 JUMP JUMPDEST PUSH1 0xA DUP2 ADD SLOAD PUSH2 0x140 DUP5 ADD MSTORE PUSH1 0xB DUP2 ADD SLOAD PUSH1 0xFF DUP2 AND ISZERO ISZERO PUSH2 0x160 DUP6 ADD MSTORE PUSH1 0x8 SHR PUSH1 0x1 PUSH1 0x1 PUSH1 0x40 SHL SUB AND PUSH2 0x180 DUP5 ADD MSTORE PUSH1 0xC DUP2 ADD SLOAD PUSH2 0x1A0 DUP5 ADD MSTORE PUSH1 0xD DUP2 ADD SLOAD PUSH2 0x1C0 DUP5 ADD MSTORE PUSH1 0xE DUP2 ADD SLOAD PUSH2 0x1E0 DUP5 ADD MSTORE PUSH1 0xF DUP2 ADD SLOAD PUSH2 0x200 DUP5 ADD MSTORE ADD SLOAD PUSH2 0x220 DUP3 ADD MSTORE PUSH1 0x40 MLOAD SWAP2 DUP3 SWAP2 DUP3 PUSH2 0x1A70 JUMP JUMPDEST PUSH1 0x40 MLOAD PUSH4 0x9B3C627 PUSH1 0xE2 SHL DUP2 MSTORE PUSH1 0x4 SWAP1 REVERT JUMPDEST POP PUSH1 0x2 SLOAD DUP2 LT ISZERO PUSH2 0x93A JUMP JUMPDEST CALLVALUE PUSH2 0x360 JUMPI PUSH1 0x20 CALLDATASIZE PUSH1 0x3 NOT ADD SLT PUSH2 0x360 JUMPI PUSH1 0x4 CALLDATALOAD PUSH1 0x0 MSTORE PUSH1 0x9 PUSH1 0x20 MSTORE PUSH1 0x20 PUSH1 0x40 PUSH1 0x0 KECCAK256 SLOAD PUSH1 0x40 MLOAD SWAP1 DUP2 MSTORE RETURN JUMPDEST CALLVALUE PUSH2 0x360 JUMPI PUSH1 0x0 CALLDATASIZE PUSH1 0x3 NOT ADD SLT PUSH2 0x360 JUMPI PUSH2 0xAA2 PUSH2 0x3709 JUMP JUMPDEST POP PUSH1 0x3 SLOAD DUP1 ISZERO PUSH2 0xACB JUMPI PUSH1 0x0 MSTORE PUSH1 0x6 PUSH1 0x20 MSTORE PUSH2 0x7AF PUSH1 0x40 PUSH1 0x0 KECCAK256 PUSH1 0x10 PUSH1 0x40 MLOAD SWAP2 PUSH2 0x95D DUP4 PUSH2 0x1861 JUMP JUMPDEST PUSH1 0x40 MLOAD PUSH3 0x95B661 PUSH1 0xE6 SHL DUP2 MSTORE PUSH1 0x4 SWAP1 REVERT JUMPDEST CALLVALUE PUSH2 0x360 JUMPI PUSH1 0x0 CALLDATASIZE PUSH1 0x3 NOT ADD SLT PUSH2 0x360 JUMPI PUSH1 0x1 SLOAD PUSH1 0x40 MLOAD PUSH1 0x1 PUSH1 0x1 PUSH1 0xA0 SHL SUB SWAP1 SWAP2 AND DUP2 MSTORE PUSH1 0x20 SWAP1 RETURN JUMPDEST CALLVALUE PUSH2 0x360 JUMPI PUSH1 0x0 CALLDATASIZE PUSH1 0x3 NOT ADD SLT PUSH2 0x360 JUMPI PUSH1 0x20 PUSH1 0x40 MLOAD PUSH1 0x3 DUP2 MSTORE RETURN JUMPDEST CALLVALUE PUSH2 0x360 JUMPI PUSH1 0x20 CALLDATASIZE PUSH1 0x3 NOT ADD SLT PUSH2 0x360 JUMPI PUSH1 0x1 PUSH1 0x1 PUSH1 0xA0 SHL SUB PUSH2 0xB42 PUSH2 0x19F5 JUMP JUMPDEST AND PUSH1 0x0 MSTORE PUSH1 0xC PUSH1 0x20 MSTORE PUSH1 0x80 PUSH1 0x40 PUSH1 0x0 KECCAK256 DUP1 SLOAD SWAP1 PUSH1 0x1 DUP2 ADD SLOAD SWAP1 PUSH1 0x3 PUSH1 0x2 DUP3 ADD SLOAD SWAP2 ADD SLOAD SWAP2 PUSH1 0x40 MLOAD SWAP4 DUP5 MSTORE PUSH1 0x20 DUP5 ADD MSTORE PUSH1 0x40 DUP4 ADD MSTORE PUSH1 0x60 DUP3 ADD MSTORE RETURN JUMPDEST CALLVALUE PUSH2 0x360 JUMPI PUSH1 0x20 CALLDATASIZE PUSH1 0x3 NOT ADD SLT PUSH2 0x360 JUMPI PUSH1 0x4 CALLDATALOAD PUSH1 0x0 MSTORE PUSH1 0x6 PUSH1 0x20 MSTORE PUSH1 0x40 PUSH1 0x0 KECCAK256 PUSH1 0xFF PUSH1 0x1 DUP3 ADD SLOAD AND PUSH1 0xD PUSH1 0x1 DUP1 PUSH1 0x40 SHL SUB PUSH1 0xB DUP5 ADD SLOAD PUSH1 0x8 SHR AND SWAP3 ADD SLOAD PUSH1 0x0 SWAP1 PUSH1 0x5 DUP4 LT ISZERO PUSH2 0xC15 JUMPI PUSH1 0x80 SWAP4 PUSH1 0x2 DUP5 EQ DUP1 PUSH2 0xC0C JUMPI JUMPDEST PUSH2 0xBF9 JUMPI JUMPDEST PUSH2 0xBE6 PUSH1 0x40 MLOAD DUP1 SWAP6 PUSH2 0x19DB JUMP JUMPDEST PUSH1 0x20 DUP5 ADD MSTORE PUSH1 0x40 DUP4 ADD MSTORE ISZERO ISZERO PUSH1 0x60 DUP3 ADD MSTORE RETURN JUMPDEST SWAP2 POP PUSH2 0xC04 DUP3 PUSH2 0x2FBC JUMP JUMPDEST ISZERO ISZERO SWAP2 PUSH2 0xBD9 JUMP JUMPDEST POP DUP1 ISZERO ISZERO PUSH2 0xBD4 JUMP JUMPDEST PUSH4 0x4E487B71 PUSH1 0xE0 SHL PUSH1 0x0 MSTORE PUSH1 0x21 PUSH1 0x4 MSTORE PUSH1 0x24 PUSH1 0x0 REVERT JUMPDEST CALLVALUE PUSH2 0x360 JUMPI PUSH1 0x20 CALLDATASIZE PUSH1 0x3 NOT ADD SLT PUSH2 0x360 JUMPI PUSH1 0x20 PUSH2 0xC49 PUSH1 0x4 CALLDATALOAD PUSH2 0x3A8B JUMP JUMPDEST PUSH1 0x40 MLOAD SWAP1 ISZERO ISZERO DUP2 MSTORE RETURN JUMPDEST CALLVALUE PUSH2 0x360 JUMPI PUSH1 0x0 CALLDATASIZE PUSH1 0x3 NOT ADD SLT PUSH2 0x360 JUMPI PUSH2 0xC6C PUSH2 0x1BD5 JUMP JUMPDEST PUSH1 0x1 DUP1 SLOAD PUSH1 0x1 PUSH1 0x1 PUSH1 0xA0 SHL SUB NOT DUP2 AND SWAP1 SWAP2 SSTORE PUSH1 0x0 SWAP1 PUSH1 0x1 PUSH1 0x1 PUSH1 0xA0 SHL SUB AND PUSH1 0x0 DUP1 MLOAD PUSH1 0x20 PUSH2 0x3AC9 DUP4 CODECOPY DUP2 MLOAD SWAP2 MSTORE DUP3 DUP1 LOG3 STOP JUMPDEST CALLVALUE PUSH2 0x360 JUMPI PUSH1 0x0 CALLDATASIZE PUSH1 0x3 NOT ADD SLT PUSH2 0x360 JUMPI PUSH1 0x40 MLOAD DUP1 PUSH1 0xD SLOAD DUP1 DUP3 MSTORE DUP3 PUSH1 0x20 DUP1 SWAP4 ADD PUSH1 0xD PUSH1 0x0 MSTORE DUP4 PUSH1 0x0 KECCAK256 SWAP3 PUSH1 0x0 JUMPDEST DUP6 DUP3 DUP3 LT PUSH2 0xCE3 JUMPI POP POP POP PUSH2 0x79B SWAP3 POP SUB DUP4 PUSH2 0x18CE JUMP JUMPDEST DUP6 SLOAD PUSH1 0x1 PUSH1 0x1 PUSH1 0xA0 SHL SUB AND DUP5 MSTORE PUSH1 0x1 SWAP6 DUP7 ADD SWAP6 DUP9 SWAP6 POP SWAP4 ADD SWAP3 ADD PUSH2 0xCCC JUMP JUMPDEST CALLVALUE PUSH2 0x360 JUMPI PUSH1 0x20 CALLDATASIZE PUSH1 0x3 NOT ADD SLT PUSH2 0x360 JUMPI PUSH1 0x20 PUSH2 0xC49 PUSH1 0x4 CALLDATALOAD PUSH2 0x3A11 JUMP JUMPDEST CALLVALUE PUSH2 0x360 JUMPI PUSH1 0x20 PUSH2 0x47A PUSH2 0xD33 CALLDATASIZE PUSH2 0x1842 JUMP JUMPDEST SWAP1 PUSH2 0x391E JUMP JUMPDEST CALLVALUE PUSH2 0x360 JUMPI PUSH1 0x20 CALLDATASIZE PUSH1 0x3 NOT ADD SLT PUSH2 0x360 JUMPI PUSH1 0x20 PUSH2 0x47A PUSH1 0x4 CALLDATALOAD PUSH2 0x39B0 JUMP JUMPDEST CALLVALUE PUSH2 0x360 JUMPI PUSH1 0x0 CALLDATASIZE PUSH1 0x3 NOT ADD SLT PUSH2 0x360 JUMPI PUSH1 0x20 PUSH1 0x40 MLOAD PUSH7 0x38D7EA4C68000 DUP2 MSTORE RETURN JUMPDEST CALLVALUE PUSH2 0x360 JUMPI PUSH1 0x0 CALLDATASIZE PUSH1 0x3 NOT ADD SLT PUSH2 0x360 JUMPI PUSH1 0x20 PUSH1 0x4 SLOAD PUSH1 0x40 MLOAD SWAP1 DUP2 MSTORE RETURN JUMPDEST CALLVALUE PUSH2 0x360 JUMPI PUSH1 0x0 CALLDATASIZE PUSH1 0x3 NOT ADD SLT PUSH2 0x360 JUMPI PUSH1 0x20 PUSH1 0xFF PUSH1 0x5 SLOAD AND PUSH1 0x40 MLOAD SWAP1 ISZERO ISZERO DUP2 MSTORE RETURN JUMPDEST CALLVALUE PUSH2 0x360 JUMPI PUSH1 0x0 CALLDATASIZE PUSH1 0x3 NOT ADD SLT PUSH2 0x360 JUMPI PUSH1 0x20 PUSH1 0x3 SLOAD PUSH1 0x40 MLOAD SWAP1 DUP2 MSTORE RETURN JUMPDEST CALLVALUE PUSH2 0x360 JUMPI PUSH1 0x40 CALLDATASIZE PUSH1 0x3 NOT ADD SLT PUSH2 0x360 JUMPI PUSH2 0xDF1 PUSH2 0x1A0B JUMP JUMPDEST PUSH1 0x4 CALLDATALOAD PUSH1 0x0 MSTORE PUSH1 0xB PUSH1 0x20 MSTORE PUSH1 0x40 PUSH1 0x0 KECCAK256 SWAP1 PUSH1 0x1 DUP1 PUSH1 0xA0 SHL SUB AND PUSH1 0x0 MSTORE PUSH1 0x20 MSTORE PUSH1 0x20 PUSH1 0xFF PUSH1 0x40 PUSH1 0x0 KECCAK256 SLOAD AND PUSH1 0x40 MLOAD SWAP1 ISZERO ISZERO DUP2 MSTORE RETURN JUMPDEST CALLVALUE PUSH2 0x360 JUMPI PUSH1 0x20 CALLDATASIZE PUSH1 0x3 NOT ADD SLT PUSH2 0x360 JUMPI PUSH2 0xE3E PUSH2 0x19F5 JUMP JUMPDEST PUSH2 0xE46 PUSH2 0x378D JUMP JUMPDEST POP PUSH1 0x1 DUP1 PUSH1 0xA0 SHL SUB AND PUSH1 0x0 MSTORE PUSH1 0xC PUSH1 0x20 MSTORE PUSH1 0x80 PUSH1 0x40 PUSH1 0x0 KECCAK256 PUSH1 0x40 MLOAD PUSH2 0xE6A DUP2 PUSH2 0x187D JUMP JUMPDEST DUP2 SLOAD SWAP2 DUP3 DUP3 MSTORE PUSH1 0x1 DUP2 ADD SLOAD PUSH1 0x20 DUP4 ADD SWAP1 DUP2 MSTORE PUSH1 0x60 PUSH1 0x3 PUSH1 0x2 DUP5 ADD SLOAD SWAP4 PUSH1 0x40 DUP7 ADD SWAP5 DUP6 MSTORE ADD SLOAD SWAP4 ADD SWAP3 DUP4 MSTORE PUSH1 0x40 MLOAD SWAP4 DUP5 MSTORE MLOAD PUSH1 0x20 DUP5 ADD MSTORE MLOAD PUSH1 0x40 DUP4 ADD MSTORE MLOAD PUSH1 0x60 DUP3 ADD MSTORE RETURN JUMPDEST CALLVALUE PUSH2 0x360 JUMPI PUSH1 0x0 CALLDATASIZE PUSH1 0x3 NOT ADD SLT PUSH2 0x360 JUMPI PUSH1 0xFF PUSH1 0x5 SLOAD AND PUSH2 0x1104 JUMPI PUSH1 0x3 SLOAD DUP1 PUSH2 0x10C0 JUMPI JUMPDEST POP PUSH1 0x2 SLOAD PUSH2 0xEDF DUP2 PUSH2 0x1C2D JUMP JUMPDEST PUSH1 0x2 SSTORE PUSH1 0x64 NUMBER ADD NUMBER GT PUSH2 0x526 JUMPI PUSH1 0x40 MLOAD PUSH2 0xEF8 DUP2 PUSH2 0x1861 JUMP JUMPDEST DUP2 DUP2 MSTORE PUSH1 0x1 PUSH1 0x20 DUP3 ADD MSTORE PUSH1 0x0 PUSH1 0x40 DUP3 ADD MSTORE PUSH1 0x0 PUSH1 0x60 DUP3 ADD MSTORE PUSH1 0x0 PUSH1 0x80 DUP3 ADD MSTORE PUSH1 0x0 PUSH1 0xA0 DUP3 ADD MSTORE NUMBER PUSH1 0xC0 DUP3 ADD MSTORE PUSH1 0x64 NUMBER ADD PUSH1 0xE0 DUP3 ADD MSTORE PUSH1 0x0 PUSH2 0x100 DUP3 ADD MSTORE PUSH1 0x0 PUSH2 0x120 DUP3 ADD MSTORE PUSH1 0x0 PUSH2 0x140 DUP3 ADD MSTORE PUSH1 0x0 PUSH2 0x160 DUP3 ADD MSTORE PUSH1 0x0 PUSH2 0x180 DUP3 ADD MSTORE PUSH1 0x0 PUSH2 0x1A0 DUP3 ADD MSTORE PUSH1 0x0 PUSH2 0x1C0 DUP3 ADD MSTORE PUSH1 0x0 PUSH2 0x1E0 DUP3 ADD MSTORE PUSH1 0x0 PUSH2 0x200 DUP3 ADD MSTORE PUSH1 0x0 PUSH2 0x220 DUP3 ADD MSTORE DUP2 PUSH1 0x0 MSTORE PUSH1 0x6 PUSH1 0x20 MSTORE PUSH1 0x40 PUSH1 0x0 KECCAK256 SWAP1 DUP1 MLOAD DUP3 SSTORE PUSH1 0x20 DUP2 ADD MLOAD PUSH1 0x5 DUP2 LT ISZERO PUSH2 0xC15 JUMPI PUSH1 0x1 DUP4 ADD PUSH1 0xFF NOT SWAP2 PUSH1 0xFF DUP4 DUP4 SLOAD AND SWAP2 AND OR SWAP1 SSTORE PUSH1 0x40 DUP3 ADD MLOAD PUSH1 0x2 DUP5 ADD SSTORE PUSH1 0x60 DUP3 ADD MLOAD PUSH1 0x3 DUP5 ADD SSTORE PUSH1 0x80 DUP3 ADD MLOAD PUSH1 0x4 DUP5 ADD SSTORE PUSH1 0xA0 DUP3 ADD MLOAD PUSH1 0x5 DUP5 ADD SSTORE PUSH1 0xC0 DUP3 ADD MLOAD PUSH1 0x6 DUP5 ADD SSTORE PUSH1 0xE0 DUP3 ADD MLOAD PUSH1 0x7 DUP5 ADD SSTORE PUSH2 0x100 DUP3 ADD MLOAD PUSH1 0x8 DUP5 ADD SSTORE PUSH2 0x120 DUP3 ADD MLOAD SWAP2 PUSH1 0x2 DUP4 LT ISZERO PUSH2 0xC15 JUMPI PUSH2 0x1057 PUSH2 0x220 SWAP3 PUSH2 0x101E PUSH1 0x10 SWAP6 PUSH1 0x9 DUP9 ADD PUSH2 0x1C61 JUMP JUMPDEST PUSH2 0x140 DUP4 ADD MLOAD PUSH1 0xA DUP8 ADD SSTORE PUSH2 0x160 DUP4 ADD MLOAD PUSH1 0xB DUP8 ADD DUP1 SLOAD SWAP2 ISZERO ISZERO PUSH1 0xFF AND SWAP2 SWAP1 SWAP3 AND OR DUP2 SSTORE PUSH2 0x180 DUP4 ADD MLOAD PUSH1 0x1 PUSH1 0x1 PUSH1 0x40 SHL SUB AND SWAP1 PUSH2 0x1C79 JUMP JUMPDEST PUSH2 0x1A0 DUP2 ADD MLOAD PUSH1 0xC DUP6 ADD SSTORE PUSH2 0x1C0 DUP2 ADD MLOAD PUSH1 0xD DUP6 ADD SSTORE PUSH2 0x1E0 DUP2 ADD MLOAD PUSH1 0xE DUP6 ADD SSTORE PUSH2 0x200 DUP2 ADD MLOAD PUSH1 0xF DUP6 ADD SSTORE ADD MLOAD SWAP2 ADD SSTORE DUP1 PUSH1 0x3 SSTORE PUSH32 0xBD3F84A55FDC44F970ADC6CCBAA93E78D7DA5F3FC37C4B7DA578D47C9AD2E46A PUSH1 0x40 DUP1 MLOAD NUMBER DUP2 MSTORE PUSH1 0x64 NUMBER ADD PUSH1 0x20 DUP3 ADD MSTORE LOG2 STOP JUMPDEST PUSH1 0x0 MSTORE PUSH1 0x6 PUSH1 0x20 MSTORE PUSH1 0xFF PUSH1 0x1 PUSH1 0x40 PUSH1 0x0 KECCAK256 ADD SLOAD AND PUSH1 0x5 DUP2 LT ISZERO PUSH2 0xC15 JUMPI PUSH1 0x1 DUP2 EQ PUSH2 0x10F2 JUMPI PUSH1 0x2 EQ PUSH2 0x10F2 JUMPI DUP1 PUSH2 0xED2 JUMP JUMPDEST PUSH1 0x40 MLOAD PUSH4 0x2127C5B5 PUSH1 0xE0 SHL DUP2 MSTORE PUSH1 0x4 SWAP1 REVERT JUMPDEST PUSH1 0x40 MLOAD PUSH4 0xAB35696F PUSH1 0xE0 SHL DUP2 MSTORE PUSH1 0x4 SWAP1 REVERT JUMPDEST CALLVALUE PUSH2 0x360 JUMPI PUSH1 0x0 CALLDATASIZE PUSH1 0x3 NOT ADD SLT PUSH2 0x360 JUMPI PUSH2 0x112F PUSH2 0x1BD5 JUMP JUMPDEST PUSH1 0x4 SLOAD DUP1 PUSH2 0x1139 JUMPI STOP JUMPDEST PUSH1 0x0 DUP1 DUP1 DUP1 SWAP4 DUP2 PUSH1 0x4 SSTORE PUSH1 0x1 DUP1 PUSH1 0xA0 SHL SUB PUSH1 0x1 SLOAD AND GAS CALL PUSH2 0x1158 PUSH2 0x249A JUMP JUMPDEST POP ISZERO PUSH2 0x1160 JUMPI STOP JUMPDEST PUSH1 0x40 MLOAD PUSH4 0x12171D83 PUSH1 0xE3 SHL DUP2 MSTORE PUSH1 0x4 SWAP1 REVERT JUMPDEST CALLVALUE PUSH2 0x360 JUMPI PUSH1 0x0 CALLDATASIZE PUSH1 0x3 NOT ADD SLT PUSH2 0x360 JUMPI PUSH1 0x20 PUSH1 0x40 MLOAD PUSH1 0x2 DUP2 MSTORE RETURN JUMPDEST CALLVALUE PUSH2 0x360 JUMPI PUSH1 0x0 CALLDATASIZE PUSH1 0x3 NOT ADD SLT PUSH2 0x360 JUMPI PUSH1 0x20 PUSH1 0x40 MLOAD PUSH2 0x1C20 DUP2 MSTORE RETURN JUMPDEST CALLVALUE PUSH2 0x360 JUMPI PUSH1 0x0 CALLDATASIZE PUSH1 0x3 NOT ADD SLT PUSH2 0x360 JUMPI PUSH1 0x20 PUSH1 0x40 MLOAD PUSH1 0x96 DUP2 MSTORE RETURN JUMPDEST CALLVALUE PUSH2 0x360 JUMPI PUSH1 0x20 PUSH1 0xFF PUSH1 0x2 PUSH2 0x1203 PUSH2 0x11DE CALLDATASIZE PUSH2 0x1A21 JUMP JUMPDEST PUSH1 0x0 SWAP3 DUP4 MSTORE PUSH1 0x7 DUP8 MSTORE PUSH1 0x40 DUP1 DUP5 KECCAK256 PUSH1 0x1 PUSH1 0x1 PUSH1 0xA0 SHL SUB SWAP1 SWAP4 AND DUP5 MSTORE SWAP2 DUP8 MSTORE SWAP2 KECCAK256 PUSH2 0x1B96 JUMP JUMPDEST ADD SLOAD PUSH1 0x8 SHR AND PUSH1 0x40 MLOAD SWAP1 ISZERO ISZERO DUP2 MSTORE RETURN JUMPDEST CALLVALUE PUSH2 0x360 JUMPI PUSH1 0x20 CALLDATASIZE PUSH1 0x3 NOT ADD SLT PUSH2 0x360 JUMPI PUSH1 0x4 CALLDATALOAD DUP1 ISZERO ISZERO DUP1 SWAP2 SUB PUSH2 0x360 JUMPI PUSH1 0x20 PUSH32 0x11CEC829FF57D278CFFEE07757E9621BFA0AE0CD17B3D23A7B81CBA95174B8A4 SWAP2 PUSH2 0x125D PUSH2 0x1BD5 JUMP JUMPDEST PUSH1 0xFF NOT PUSH1 0x5 SLOAD AND PUSH1 0xFF DUP3 AND OR PUSH1 0x5 SSTORE PUSH1 0x40 MLOAD SWAP1 DUP2 MSTORE LOG1 STOP JUMPDEST CALLVALUE PUSH2 0x360 JUMPI PUSH1 0x20 CALLDATASIZE PUSH1 0x3 NOT ADD SLT PUSH2 0x360 JUMPI PUSH1 0x4 CALLDATALOAD PUSH1 0x0 MSTORE PUSH1 0x6 PUSH1 0x20 MSTORE PUSH1 0x40 PUSH1 0x0 KECCAK256 DUP1 DUP1 DUP1 SLOAD PUSH1 0x1 DUP3 ADD SLOAD PUSH1 0xFF AND PUSH1 0xC0 MSTORE PUSH1 0x2 DUP3 ADD SLOAD PUSH1 0x3 DUP4 ADD SLOAD PUSH1 0x4 DUP5 ADD SLOAD PUSH1 0x5 DUP6 ADD SLOAD PUSH1 0x6 DUP7 ADD SLOAD PUSH1 0x7 DUP8 ADD SLOAD SWAP1 PUSH1 0x8 DUP9 ADD SLOAD SWAP3 PUSH1 0x9 DUP10 ADD SLOAD PUSH1 0xFF AND SWAP5 PUSH1 0xA DUP11 ADD SLOAD SWAP7 PUSH1 0xB DUP12 ADD SLOAD SWAP9 PUSH1 0xC DUP13 ADD SLOAD SWAP11 PUSH1 0xD DUP14 ADD SLOAD SWAP13 PUSH1 0xE ADD SLOAD SWAP14 PUSH1 0xF ADD SLOAD SWAP15 PUSH1 0x10 ADD SLOAD PUSH1 0x80 MSTORE PUSH1 0x40 MLOAD DUP1 PUSH1 0xA0 MSTORE MSTORE PUSH1 0xA0 MLOAD PUSH1 0x20 ADD PUSH1 0xC0 MLOAD SWAP1 PUSH2 0x1317 SWAP2 PUSH2 0x19DB JUMP JUMPDEST PUSH1 0xA0 MLOAD PUSH1 0x40 ADD MSTORE PUSH1 0xA0 MLOAD PUSH1 0x60 ADD MSTORE PUSH1 0xA0 MLOAD PUSH1 0x80 ADD MSTORE PUSH1 0xA0 MLOAD PUSH1 0xA0 ADD MSTORE PUSH1 0xA0 MLOAD PUSH1 0xC0 ADD MSTORE PUSH1 0xA0 MLOAD PUSH1 0xE0 ADD MSTORE PUSH1 0xA0 MLOAD PUSH2 0x100 ADD MSTORE PUSH1 0xA0 MLOAD PUSH2 0x120 ADD PUSH2 0x1359 SWAP2 PUSH2 0x19E8 JUMP JUMPDEST PUSH1 0xA0 MLOAD PUSH2 0x140 ADD MSTORE PUSH1 0xFF DUP2 AND ISZERO ISZERO PUSH1 0xA0 MLOAD PUSH2 0x160 ADD MSTORE PUSH1 0x1 PUSH1 0x40 SHL PUSH1 0x1 SWAP1 SUB SWAP1 PUSH1 0x8 SHR AND PUSH1 0xA0 MLOAD PUSH2 0x180 ADD MSTORE PUSH1 0xA0 MLOAD PUSH2 0x1A0 ADD MSTORE PUSH1 0xA0 MLOAD PUSH2 0x1C0 ADD MSTORE PUSH1 0xA0 MLOAD PUSH2 0x1E0 ADD MSTORE PUSH1 0xA0 MLOAD PUSH2 0x200 ADD MSTORE PUSH1 0x80 MLOAD PUSH1 0xA0 MLOAD PUSH2 0x220 ADD MSTORE PUSH1 0xA0 MLOAD PUSH2 0x240 SWAP1 RETURN JUMPDEST CALLVALUE PUSH2 0x360 JUMPI PUSH1 0x0 CALLDATASIZE PUSH1 0x3 NOT ADD SLT PUSH2 0x360 JUMPI PUSH1 0x20 PUSH2 0x13D4 PUSH2 0x2ECC JUMP JUMPDEST PUSH1 0x40 MLOAD PUSH1 0x1 PUSH1 0x1 PUSH1 0x40 SHL SUB SWAP1 SWAP2 AND DUP2 MSTORE RETURN JUMPDEST CALLVALUE PUSH2 0x360 JUMPI PUSH1 0x20 DUP1 PUSH1 0x3 NOT CALLDATASIZE ADD SLT PUSH2 0x360 JUMPI PUSH1 0x4 CALLDATALOAD PUSH1 0xD SLOAD DUP1 DUP3 LT PUSH1 0x0 EQ PUSH2 0x151B JUMPI POP JUMPDEST PUSH2 0x1413 DUP2 PUSH2 0x37EC JUMP JUMPDEST SWAP1 PUSH2 0x1421 PUSH1 0x40 MLOAD SWAP3 DUP4 PUSH2 0x18CE JUMP JUMPDEST DUP1 DUP3 MSTORE PUSH1 0x1F NOT PUSH2 0x1430 DUP3 PUSH2 0x37EC JUMP JUMPDEST ADD CALLDATASIZE DUP5 DUP5 ADD CALLDATACOPY PUSH2 0x143F DUP2 PUSH2 0x3803 JUMP JUMPDEST PUSH2 0x1448 DUP3 PUSH2 0x3803 JUMP JUMPDEST SWAP2 PUSH1 0x0 JUMPDEST DUP2 DUP2 LT PUSH2 0x148F JUMPI PUSH2 0x1474 DUP6 PUSH2 0x7AF DUP7 PUSH2 0x1481 DUP11 DUP9 PUSH1 0x40 MLOAD SWAP7 DUP8 SWAP7 PUSH1 0x60 DUP9 MSTORE PUSH1 0x60 DUP9 ADD SWAP1 PUSH2 0x196A JUMP JUMPDEST SWAP2 DUP7 DUP4 SUB SWAP1 DUP8 ADD MSTORE PUSH2 0x19A7 JUMP JUMPDEST SWAP1 DUP4 DUP3 SUB PUSH1 0x40 DUP6 ADD MSTORE PUSH2 0x19A7 JUMP JUMPDEST DUP1 PUSH2 0x149C PUSH2 0x1516 SWAP3 PUSH2 0x1B4D JUMP JUMPDEST SWAP1 SLOAD PUSH1 0x3 SWAP2 PUSH1 0x1 PUSH1 0x1 PUSH1 0xA0 SHL SUB SWAP2 SWAP1 DUP4 SHL SHR DUP2 AND PUSH2 0x14BA DUP5 DUP11 PUSH2 0x3835 JUMP JUMPDEST MSTORE DUP1 PUSH2 0x14C5 DUP5 PUSH2 0x1B4D JUMP JUMPDEST SWAP1 SLOAD SWAP1 DUP5 SHL SHR AND PUSH1 0x0 MSTORE PUSH1 0xC SWAP2 DUP3 DUP11 MSTORE PUSH1 0x2 PUSH1 0x40 PUSH1 0x0 KECCAK256 ADD SLOAD PUSH2 0x14E8 DUP6 DUP10 PUSH2 0x3835 JUMP JUMPDEST MSTORE PUSH2 0x14F2 DUP5 PUSH2 0x1B4D JUMP JUMPDEST SWAP1 SLOAD SWAP2 SHL SHR AND PUSH1 0x0 MSTORE DUP8 MSTORE PUSH1 0x1 PUSH1 0x40 PUSH1 0x0 KECCAK256 ADD SLOAD PUSH2 0x1510 DUP3 DUP8 PUSH2 0x3835 JUMP JUMPDEST MSTORE PUSH2 0x1C2D JUMP JUMPDEST PUSH2 0x144C JUMP JUMPDEST SWAP1 POP PUSH2 0x140A JUMP JUMPDEST CALLVALUE PUSH2 0x360 JUMPI PUSH1 0x0 CALLDATASIZE PUSH1 0x3 NOT ADD SLT PUSH2 0x360 JUMPI PUSH2 0x7AF PUSH2 0x153E PUSH2 0x18F1 JUMP JUMPDEST PUSH1 0x40 MLOAD SWAP2 DUP3 SWAP2 PUSH1 0x20 DUP4 MSTORE PUSH1 0x20 DUP4 ADD SWAP1 PUSH2 0x192A JUMP JUMPDEST PUSH2 0x155B CALLDATASIZE PUSH2 0x1842 JUMP JUMPDEST PUSH2 0x1563 PUSH2 0x1D19 JUMP JUMPDEST DUP2 ISZERO DUP1 ISZERO PUSH2 0x1836 JUMPI JUMPDEST PUSH2 0xA3F JUMPI CALLVALUE ISZERO PUSH2 0x1824 JUMPI PUSH7 0x38D7EA4C68000 CALLVALUE LT PUSH2 0x1812 JUMPI DUP2 PUSH1 0x0 MSTORE PUSH1 0x20 SWAP2 PUSH1 0x6 DUP4 MSTORE PUSH1 0x40 PUSH1 0x0 KECCAK256 PUSH1 0x1 SWAP4 PUSH1 0xFF DUP6 DUP4 ADD SLOAD AND PUSH1 0x5 DUP2 LT ISZERO PUSH2 0xC15 JUMPI DUP6 SUB PUSH2 0x1800 JUMPI PUSH1 0x7 DUP3 ADD SLOAD NUMBER LT ISZERO PUSH2 0x17EE JUMPI DUP3 PUSH1 0x0 MSTORE PUSH1 0x7 DUP2 MSTORE PUSH1 0x40 PUSH1 0x0 KECCAK256 CALLER PUSH1 0x0 MSTORE DUP2 MSTORE PUSH2 0x15DA DUP5 PUSH1 0x40 PUSH1 0x0 KECCAK256 PUSH2 0x1B96 JUMP JUMPDEST SWAP1 PUSH1 0x96 CALLVALUE MUL CALLVALUE DUP2 DIV PUSH1 0x96 SUB PUSH2 0x526 JUMPI PUSH2 0x2710 SWAP1 DIV PUSH2 0x15F8 DUP2 CALLVALUE PUSH2 0x1CD1 JUMP JUMPDEST SWAP1 DUP6 PUSH1 0x0 MSTORE PUSH1 0xA DUP4 MSTORE PUSH2 0x1611 PUSH1 0x40 PUSH1 0x0 KECCAK256 SWAP2 DUP3 SLOAD PUSH2 0x1C3C JUMP JUMPDEST SWAP1 SSTORE DUP5 PUSH1 0x0 MSTORE PUSH1 0x9 DUP3 MSTORE PUSH1 0x40 PUSH1 0x0 KECCAK256 PUSH2 0x162B DUP3 DUP3 SLOAD PUSH2 0x1C3C JUMP JUMPDEST SWAP1 SSTORE PUSH1 0x2 DUP4 SLOAD SWAP4 PUSH2 0x163F DUP6 ISZERO SWAP6 CALLVALUE SWAP1 PUSH2 0x1C3C JUMP JUMPDEST DUP2 SSTORE NUMBER DUP10 DUP3 ADD SSTORE ADD DUP1 SLOAD PUSH2 0xFFFF NOT AND SWAP1 SSTORE PUSH1 0x2 DUP7 LT ISZERO PUSH2 0xC15 JUMPI DUP6 ISZERO SWAP3 DUP4 ISZERO PUSH2 0x17CA JUMPI PUSH1 0x2 DUP6 ADD PUSH2 0x1671 CALLVALUE DUP3 SLOAD PUSH2 0x1C3C JUMP JUMPDEST SWAP1 SSTORE PUSH2 0x17B5 JUMPI JUMPDEST PUSH2 0x1687 PUSH1 0xA DUP6 ADD SWAP2 DUP3 SLOAD PUSH2 0x1C3C JUMP JUMPDEST SWAP1 SSTORE DUP4 PUSH1 0x0 MSTORE PUSH1 0xB DUP2 MSTORE PUSH1 0x40 PUSH1 0x0 KECCAK256 CALLER PUSH1 0x0 MSTORE DUP2 MSTORE PUSH1 0xFF PUSH1 0x40 PUSH1 0x0 KECCAK256 SLOAD AND ISZERO PUSH2 0x1703 JUMPI JUMPDEST SWAP2 PUSH2 0x16F2 SWAP2 PUSH1 0xC PUSH1 0x0 DUP1 MLOAD PUSH1 0x20 PUSH2 0x3AE9 DUP4 CODECOPY DUP2 MLOAD SWAP2 MSTORE SWAP5 CALLER PUSH1 0x0 MSTORE MSTORE PUSH1 0x40 PUSH1 0x0 KECCAK256 PUSH2 0x16D6 DUP2 SLOAD PUSH2 0x1C2D JUMP JUMPDEST SWAP1 SSTORE ISZERO PUSH2 0x16FA JUMPI PUSH1 0x2 ADD SLOAD JUMPDEST PUSH1 0x40 MLOAD SWAP2 DUP3 SWAP2 CALLER SWAP7 CALLVALUE SWAP1 DUP5 PUSH2 0x1CFC JUMP JUMPDEST SUB SWAP1 LOG3 PUSH1 0x0 SSTORE STOP JUMPDEST PUSH1 0x3 ADD SLOAD PUSH2 0x16E2 JUMP JUMPDEST SWAP2 DUP4 PUSH1 0x0 MSTORE PUSH1 0x8 DUP4 MSTORE PUSH2 0x1F4 PUSH1 0x40 PUSH1 0x0 KECCAK256 SLOAD LT ISZERO PUSH2 0x17A3 JUMPI PUSH1 0x0 DUP5 DUP2 MSTORE PUSH1 0xB DUP5 MSTORE PUSH1 0x40 DUP1 DUP3 KECCAK256 CALLER DUP4 MSTORE DUP6 MSTORE DUP1 DUP3 KECCAK256 DUP1 SLOAD PUSH1 0xFF NOT AND DUP10 OR SWAP1 SSTORE DUP6 DUP3 MSTORE PUSH1 0x8 DUP6 MSTORE SWAP1 KECCAK256 DUP1 SLOAD SWAP3 SWAP1 PUSH1 0x1 PUSH1 0x40 SHL DUP5 LT ISZERO PUSH2 0x178D JUMPI PUSH1 0x0 DUP1 MLOAD PUSH1 0x20 PUSH2 0x3AE9 DUP4 CODECOPY DUP2 MLOAD SWAP2 MSTORE SWAP5 PUSH2 0x1782 PUSH2 0x177B DUP7 PUSH1 0xC SWAP5 DUP13 PUSH2 0x16F2 SWAP10 ADD DUP2 SSTORE PUSH2 0x1B7E JUMP JUMPDEST CALLER SWAP2 PUSH2 0x1CDE JUMP JUMPDEST SWAP3 SWAP5 POP POP SWAP2 POP PUSH2 0x16AB JUMP JUMPDEST PUSH4 0x4E487B71 PUSH1 0xE0 SHL PUSH1 0x0 MSTORE PUSH1 0x41 PUSH1 0x4 MSTORE PUSH1 0x24 PUSH1 0x0 REVERT JUMPDEST PUSH1 0x40 MLOAD PUSH4 0x844BC549 PUSH1 0xE0 SHL DUP2 MSTORE PUSH1 0x4 SWAP1 REVERT JUMPDEST PUSH1 0x4 DUP5 ADD PUSH2 0x17C3 DUP2 SLOAD PUSH2 0x1C2D JUMP JUMPDEST SWAP1 SSTORE PUSH2 0x1678 JUMP JUMPDEST PUSH1 0x3 DUP6 ADD PUSH2 0x17D9 CALLVALUE DUP3 SLOAD PUSH2 0x1C3C JUMP JUMPDEST SWAP1 SSTORE ISZERO PUSH2 0x1678 JUMPI PUSH1 0x5 DUP5 ADD PUSH2 0x17C3 DUP2 SLOAD PUSH2 0x1C2D JUMP JUMPDEST PUSH1 0x40 MLOAD PUSH4 0x56C79831 PUSH1 0xE0 SHL DUP2 MSTORE PUSH1 0x4 SWAP1 REVERT JUMPDEST PUSH1 0x40 MLOAD PUSH4 0x976A06EB PUSH1 0xE0 SHL DUP2 MSTORE PUSH1 0x4 SWAP1 REVERT JUMPDEST PUSH1 0x40 MLOAD PUSH4 0x1A6254D1 PUSH1 0xE3 SHL DUP2 MSTORE PUSH1 0x4 SWAP1 REVERT JUMPDEST PUSH1 0x40 MLOAD PUSH4 0x9DE3D441 PUSH1 0xE0 SHL DUP2 MSTORE PUSH1 0x4 SWAP1 REVERT JUMPDEST POP PUSH1 0x2 SLOAD DUP3 LT ISZERO PUSH2 0x156C JUMP JUMPDEST PUSH1 0x40 SWAP1 PUSH1 0x3 NOT ADD SLT PUSH2 0x360 JUMPI PUSH1 0x4 CALLDATALOAD SWAP1 PUSH1 0x24 CALLDATALOAD PUSH1 0x2 DUP2 LT ISZERO PUSH2 0x360 JUMPI SWAP1 JUMP JUMPDEST PUSH2 0x240 DUP2 ADD SWAP1 DUP2 LT PUSH1 0x1 PUSH1 0x1 PUSH1 0x40 SHL SUB DUP3 GT OR PUSH2 0x178D JUMPI PUSH1 0x40 MSTORE JUMP JUMPDEST PUSH1 0x80 DUP2 ADD SWAP1 DUP2 LT PUSH1 0x1 PUSH1 0x1 PUSH1 0x40 SHL SUB DUP3 GT OR PUSH2 0x178D JUMPI PUSH1 0x40 MSTORE JUMP JUMPDEST PUSH1 0x40 DUP2 ADD SWAP1 DUP2 LT PUSH1 0x1 PUSH1 0x1 PUSH1 0x40 SHL SUB DUP3 GT OR PUSH2 0x178D JUMPI PUSH1 0x40 MSTORE JUMP JUMPDEST PUSH1 0x60 DUP2 ADD SWAP1 DUP2 LT PUSH1 0x1 PUSH1 0x1 PUSH1 0x40 SHL SUB DUP3 GT OR PUSH2 0x178D JUMPI PUSH1 0x40 MSTORE JUMP JUMPDEST PUSH1 0x1F SWAP1 SWAP2 ADD PUSH1 0x1F NOT AND DUP2 ADD SWAP1 PUSH1 0x1 PUSH1 0x1 PUSH1 0x40 SHL SUB DUP3 GT SWAP1 DUP3 LT OR PUSH2 0x178D JUMPI PUSH1 0x40 MSTORE JUMP JUMPDEST PUSH1 0x40 MLOAD SWAP1 PUSH2 0x18FE DUP3 PUSH2 0x1898 JUMP JUMPDEST PUSH1 0x20 DUP3 MSTORE PUSH32 0xA285CDB66E8B8524EA70B1693C7B1E050D8E70FD32BFB1639703F9A23D15B15E PUSH1 0x20 DUP4 ADD MSTORE JUMP JUMPDEST SWAP2 SWAP1 DUP3 MLOAD SWAP3 DUP4 DUP3 MSTORE PUSH1 0x0 JUMPDEST DUP5 DUP2 LT PUSH2 0x1956 JUMPI POP POP DUP3 PUSH1 0x0 PUSH1 0x20 DUP1 SWAP5 SWAP6 DUP5 ADD ADD MSTORE PUSH1 0x1F DUP1 NOT SWAP2 ADD AND ADD ADD SWAP1 JUMP JUMPDEST PUSH1 0x20 DUP2 DUP4 ADD DUP2 ADD MLOAD DUP5 DUP4 ADD DUP3 ADD MSTORE ADD PUSH2 0x1935 JUMP JUMPDEST SWAP1 DUP2 MLOAD DUP1 DUP3 MSTORE PUSH1 0x20 DUP1 DUP1 SWAP4 ADD SWAP4 ADD SWAP2 PUSH1 0x0 JUMPDEST DUP3 DUP2 LT PUSH2 0x198A JUMPI POP POP POP POP SWAP1 JUMP JUMPDEST DUP4 MLOAD PUSH1 0x1 PUSH1 0x1 PUSH1 0xA0 SHL SUB AND DUP6 MSTORE SWAP4 DUP2 ADD SWAP4 SWAP3 DUP2 ADD SWAP3 PUSH1 0x1 ADD PUSH2 0x197C JUMP JUMPDEST SWAP1 DUP2 MLOAD DUP1 DUP3 MSTORE PUSH1 0x20 DUP1 DUP1 SWAP4 ADD SWAP4 ADD SWAP2 PUSH1 0x0 JUMPDEST DUP3 DUP2 LT PUSH2 0x19C7 JUMPI POP POP POP POP SWAP1 JUMP JUMPDEST DUP4 MLOAD DUP6 MSTORE SWAP4 DUP2 ADD SWAP4 SWAP3 DUP2 ADD SWAP3 PUSH1 0x1 ADD PUSH2 0x19B9 JUMP JUMPDEST SWAP1 PUSH1 0x5 DUP3 LT ISZERO PUSH2 0xC15 JUMPI MSTORE JUMP JUMPDEST SWAP1 PUSH1 0x2 DUP3 LT ISZERO PUSH2 0xC15 JUMPI MSTORE JUMP JUMPDEST PUSH1 0x4 CALLDATALOAD SWAP1 PUSH1 0x1 PUSH1 0x1 PUSH1 0xA0 SHL SUB DUP3 AND DUP3 SUB PUSH2 0x360 JUMPI JUMP JUMPDEST PUSH1 0x24 CALLDATALOAD SWAP1 PUSH1 0x1 PUSH1 0x1 PUSH1 0xA0 SHL SUB DUP3 AND DUP3 SUB PUSH2 0x360 JUMPI JUMP JUMPDEST PUSH1 0x60 SWAP1 PUSH1 0x3 NOT ADD SLT PUSH2 0x360 JUMPI PUSH1 0x4 CALLDATALOAD SWAP1 PUSH1 0x24 CALLDATALOAD PUSH1 0x1 PUSH1 0x1 PUSH1 0xA0 SHL SUB DUP2 AND DUP2 SUB PUSH2 0x360 JUMPI SWAP1 PUSH1 0x44 CALLDATALOAD PUSH1 0x2 DUP2 LT ISZERO PUSH2 0x360 JUMPI SWAP1 JUMP JUMPDEST CALLVALUE PUSH2 0x360 JUMPI PUSH1 0x0 CALLDATASIZE PUSH1 0x3 NOT ADD SLT PUSH2 0x360 JUMPI PUSH1 0x20 PUSH1 0x40 MLOAD PUSH1 0x64 DUP2 MSTORE RETURN JUMPDEST SWAP2 SWAP1 SWAP2 PUSH2 0x240 DUP2 ADD SWAP3 DUP1 MLOAD DUP3 MSTORE PUSH2 0x1A8F PUSH1 0x20 DUP3 ADD MLOAD PUSH1 0x20 DUP5 ADD SWAP1 PUSH2 0x19DB JUMP JUMPDEST PUSH1 0x40 DUP2 ADD MLOAD PUSH1 0x40 DUP4 ADD MSTORE PUSH1 0x60 DUP2 ADD MLOAD PUSH1 0x60 DUP4 ADD MSTORE PUSH1 0x80 DUP2 ADD MLOAD PUSH1 0x80 DUP4 ADD MSTORE PUSH1 0xA0 DUP2 ADD MLOAD PUSH1 0xA0 DUP4 ADD MSTORE PUSH1 0xC0 DUP2 ADD MLOAD PUSH1 0xC0 DUP4 ADD MSTORE PUSH1 0xE0 DUP2 ADD MLOAD PUSH1 0xE0 DUP4 ADD MSTORE PUSH2 0x100 DUP1 DUP3 ADD MLOAD SWAP1 DUP4 ADD MSTORE PUSH2 0x1AE9 PUSH2 0x120 DUP1 DUP4 ADD MLOAD SWAP1 DUP5 ADD SWAP1 PUSH2 0x19E8 JUMP JUMPDEST PUSH2 0x140 DUP2 DUP2 ADD MLOAD SWAP1 DUP4 ADD MSTORE PUSH2 0x160 DUP1 DUP3 ADD MLOAD ISZERO ISZERO SWAP1 DUP4 ADD MSTORE PUSH2 0x180 DUP1 DUP3 ADD MLOAD PUSH1 0x1 PUSH1 0x1 PUSH1 0x40 SHL SUB AND SWAP1 DUP4 ADD MSTORE PUSH2 0x1A0 DUP1 DUP3 ADD MLOAD SWAP1 DUP4 ADD MSTORE PUSH2 0x1C0 DUP1 DUP3 ADD MLOAD SWAP1 DUP4 ADD MSTORE PUSH2 0x1E0 DUP1 DUP3 ADD MLOAD SWAP1 DUP4 ADD MSTORE PUSH2 0x200 DUP1 DUP3 ADD MLOAD SWAP1 DUP4 ADD MSTORE PUSH2 0x220 SWAP1 DUP2 ADD MLOAD SWAP2 ADD MSTORE JUMP JUMPDEST PUSH1 0xD SLOAD DUP2 LT ISZERO PUSH2 0x1B68 JUMPI PUSH1 0xD PUSH1 0x0 MSTORE PUSH1 0x20 PUSH1 0x0 KECCAK256 ADD SWAP1 PUSH1 0x0 SWAP1 JUMP JUMPDEST PUSH4 0x4E487B71 PUSH1 0xE0 SHL PUSH1 0x0 MSTORE PUSH1 0x32 PUSH1 0x4 MSTORE PUSH1 0x24 PUSH1 0x0 REVERT JUMPDEST DUP1 SLOAD DUP3 LT ISZERO PUSH2 0x1B68 JUMPI PUSH1 0x0 MSTORE PUSH1 0x20 PUSH1 0x0 KECCAK256 ADD SWAP1 PUSH1 0x0 SWAP1 JUMP JUMPDEST SWAP1 PUSH1 0x2 DUP2 LT ISZERO PUSH2 0xC15 JUMPI PUSH1 0x0 MSTORE PUSH1 0x20 MSTORE PUSH1 0x40 PUSH1 0x0 KECCAK256 SWAP1 JUMP JUMPDEST PUSH1 0x60 DUP1 SWAP2 DUP1 MLOAD DUP5 MSTORE PUSH1 0x20 DUP2 ADD MLOAD PUSH1 0x20 DUP6 ADD MSTORE PUSH1 0x40 DUP2 ADD MLOAD ISZERO ISZERO PUSH1 0x40 DUP6 ADD MSTORE ADD MLOAD ISZERO ISZERO SWAP2 ADD MSTORE JUMP JUMPDEST PUSH1 0x1 SLOAD PUSH1 0x1 PUSH1 0x1 PUSH1 0xA0 SHL SUB AND CALLER SUB PUSH2 0x1BE9 JUMPI JUMP JUMPDEST PUSH1 0x64 PUSH1 0x40 MLOAD PUSH3 0x461BCD PUSH1 0xE5 SHL DUP2 MSTORE PUSH1 0x20 PUSH1 0x4 DUP3 ADD MSTORE PUSH1 0x20 PUSH1 0x24 DUP3 ADD MSTORE PUSH32 0x4F776E61626C653A2063616C6C6572206973206E6F7420746865206F776E6572 PUSH1 0x44 DUP3 ADD MSTORE REVERT JUMPDEST PUSH1 0x0 NOT DUP2 EQ PUSH2 0x526 JUMPI PUSH1 0x1 ADD SWAP1 JUMP JUMPDEST SWAP2 SWAP1 DUP3 ADD DUP1 SWAP3 GT PUSH2 0x526 JUMPI JUMP JUMPDEST PUSH1 0x5 DUP3 LT ISZERO PUSH2 0xC15 JUMPI MSTORE JUMP JUMPDEST PUSH1 0x2 DUP3 LT ISZERO PUSH2 0xC15 JUMPI MSTORE JUMP JUMPDEST SWAP1 PUSH1 0x2 DUP2 LT ISZERO PUSH2 0xC15 JUMPI PUSH1 0xFF DUP1 NOT DUP4 SLOAD AND SWAP2 AND OR SWAP1 SSTORE JUMP JUMPDEST DUP1 SLOAD PUSH2 0x100 PUSH1 0x1 PUSH1 0x48 SHL SUB NOT AND PUSH1 0x8 SWAP3 SWAP1 SWAP3 SHL PUSH2 0x100 PUSH1 0x1 PUSH1 0x48 SHL SUB AND SWAP2 SWAP1 SWAP2 OR SWAP1 SSTORE JUMP JUMPDEST DUP2 DUP2 MUL SWAP3 SWAP2 DUP2 ISZERO SWAP2 DUP5 DIV EQ OR ISZERO PUSH2 0x526 JUMPI JUMP JUMPDEST DUP2 ISZERO PUSH2 0x1CBB JUMPI DIV SWAP1 JUMP JUMPDEST PUSH4 0x4E487B71 PUSH1 0xE0 SHL PUSH1 0x0 MSTORE PUSH1 0x12 PUSH1 0x4 MSTORE PUSH1 0x24 PUSH1 0x0 REVERT JUMPDEST SWAP2 SWAP1 DUP3 SUB SWAP2 DUP3 GT PUSH2 0x526 JUMPI JUMP JUMPDEST SWAP2 SWAP1 DUP3 SLOAD SWAP1 PUSH1 0x3 SHL SWAP2 PUSH1 0x1 DUP1 PUSH1 0xA0 SHL SUB DUP1 SWAP2 AND DUP4 SHL SWAP3 SHL NOT AND OR SWAP1 SSTORE JUMP JUMPDEST PUSH1 0x40 SWAP2 SWAP5 SWAP4 SWAP3 PUSH2 0x1D10 DUP3 PUSH1 0x60 DUP2 ADD SWAP8 PUSH2 0x19E8 JUMP JUMPDEST PUSH1 0x20 DUP3 ADD MSTORE ADD MSTORE JUMP JUMPDEST PUSH1 0x2 PUSH1 0x0 SLOAD EQ PUSH2 0x1D2A JUMPI PUSH1 0x2 PUSH1 0x0 SSTORE JUMP JUMPDEST PUSH1 0x40 MLOAD PUSH3 0x461BCD PUSH1 0xE5 SHL DUP2 MSTORE PUSH1 0x20 PUSH1 0x4 DUP3 ADD MSTORE PUSH1 0x1F PUSH1 0x24 DUP3 ADD MSTORE PUSH32 0x5265656E7472616E637947756172643A207265656E7472616E742063616C6C00 PUSH1 0x44 DUP3 ADD MSTORE PUSH1 0x64 SWAP1 REVERT JUMPDEST PUSH1 0x1 PUSH1 0x1 PUSH1 0x40 SHL SUB SWAP1 SWAP2 AND DUP2 MSTORE PUSH1 0x20 DUP2 ADD SWAP2 SWAP1 SWAP2 MSTORE PUSH1 0x40 ADD SWAP1 JUMP JUMPDEST DUP1 ISZERO DUP1 ISZERO PUSH2 0x248E JUMPI JUMPDEST PUSH2 0xA3F JUMPI DUP1 PUSH1 0x0 MSTORE PUSH1 0x6 PUSH1 0x20 MSTORE PUSH1 0x40 PUSH1 0x0 KECCAK256 SWAP1 PUSH1 0xFF PUSH1 0x1 DUP4 ADD SLOAD AND PUSH1 0x5 DUP2 LT ISZERO PUSH2 0xC15 JUMPI PUSH1 0x1 EQ PUSH2 0x23B1 JUMPI PUSH1 0xFF PUSH1 0x1 DUP4 ADD SLOAD AND PUSH1 0x5 DUP2 LT ISZERO PUSH2 0xC15 JUMPI PUSH1 0x2 EQ PUSH2 0x1DE8 JUMPI PUSH1 0x40 MLOAD PUSH4 0x41D5C2CF PUSH1 0xE0 SHL DUP2 MSTORE PUSH1 0x4 SWAP1 REVERT JUMPDEST PUSH1 0xC DUP3 ADD SLOAD PUSH2 0x1C20 DUP2 ADD DUP1 DUP3 GT PUSH2 0x526 JUMPI NUMBER GT PUSH2 0x230A JUMPI POP PUSH1 0xB DUP3 ADD SLOAD PUSH2 0x1E1A SWAP1 PUSH1 0x8 SHR PUSH1 0x1 PUSH1 0x1 PUSH1 0x40 SHL SUB AND PUSH2 0x2FBC JUMP JUMPDEST DUP1 ISZERO PUSH2 0x22F8 JUMPI PUSH1 0x7 DUP4 ADD SLOAD PUSH1 0x18 NOT DUP2 ADD SWAP1 DUP2 GT PUSH2 0x526 JUMPI PUSH1 0x19 PUSH2 0x1E3E SWAP3 MOD SWAP1 PUSH2 0x1C3C JUMP JUMPDEST PUSH1 0xD DUP4 ADD SSTORE DUP1 PUSH1 0x0 MSTORE PUSH1 0x6 PUSH1 0x20 MSTORE PUSH1 0x40 PUSH1 0x0 KECCAK256 PUSH1 0x8 PUSH1 0x20 MSTORE PUSH1 0x40 PUSH1 0x0 KECCAK256 SWAP4 PUSH1 0x0 DUP1 SWAP4 PUSH1 0x0 SWAP7 PUSH1 0x0 SWAP4 PUSH1 0x0 JUMPDEST DUP3 SLOAD DUP2 LT ISZERO PUSH2 0x202B JUMPI PUSH2 0x1E7C DUP2 DUP5 PUSH2 0x1B7E JUMP JUMPDEST PUSH1 0x1 DUP1 PUSH1 0xA0 SHL SUB SWAP2 SLOAD SWAP1 PUSH1 0x3 SHL SHR AND DUP5 PUSH1 0x0 MSTORE PUSH1 0x7 PUSH1 0x20 MSTORE PUSH1 0x40 PUSH1 0x0 KECCAK256 DUP2 PUSH1 0x0 MSTORE PUSH1 0x20 MSTORE PUSH1 0x40 PUSH1 0x0 KECCAK256 PUSH1 0x0 DUP1 MSTORE PUSH1 0x20 MSTORE PUSH1 0x40 PUSH1 0x0 KECCAK256 DUP1 SLOAD DUP1 ISZERO SWAP1 DUP2 ISZERO PUSH2 0x1F9D JUMPI JUMPDEST POP POP POP DUP5 PUSH1 0x0 MSTORE PUSH1 0x7 PUSH1 0x20 MSTORE PUSH1 0x40 PUSH1 0x0 KECCAK256 SWAP1 PUSH1 0x0 MSTORE PUSH1 0x20 MSTORE PUSH1 0x40 PUSH1 0x0 KECCAK256 PUSH1 0x1 PUSH1 0x0 MSTORE PUSH1 0x20 MSTORE PUSH1 0x40 PUSH1 0x0 KECCAK256 DUP1 SLOAD DUP1 ISZERO DUP1 ISZERO PUSH2 0x1F03 JUMPI JUMPDEST POP POP POP PUSH2 0x1EFE SWAP1 PUSH2 0x1C2D JUMP JUMPDEST PUSH2 0x1E69 JUMP JUMPDEST PUSH1 0x1 DUP4 ADD SLOAD PUSH1 0xD DUP12 ADD SLOAD SWAP5 SWAP14 SWAP5 GT ISZERO PUSH2 0x1F5E JUMPI POP POP PUSH2 0x1F24 SWAP1 SLOAD DUP1 SWAP10 PUSH2 0x1C3C JUMP JUMPDEST SWAP8 PUSH1 0x96 SWAP2 DUP2 DUP4 DUP2 MUL DIV DUP4 EQ DUP3 ISZERO OR ISZERO PUSH2 0x526 JUMPI PUSH2 0x1F4E DUP3 PUSH2 0x2710 PUSH2 0x1EFE SWAP6 PUSH2 0x1F54 SWAP6 MUL DIV SWAP1 PUSH2 0x1CD1 JUMP JUMPDEST SWAP1 PUSH2 0x1C3C JUMP JUMPDEST SWAP10 JUMPDEST SWAP1 CODESIZE DUP1 PUSH2 0x1EF2 JUMP JUMPDEST PUSH1 0x2 SWAP1 SWAP3 ADD DUP1 SLOAD PUSH2 0xFF00 NOT AND PUSH2 0x100 OR SWAP1 SSTORE SWAP2 SWAP11 SWAP7 PUSH1 0x96 SWAP2 DUP3 DUP5 MUL DUP5 SWAP1 DIV DUP4 EQ OR ISZERO PUSH2 0x526 JUMPI PUSH2 0x2710 PUSH2 0x1F97 SWAP3 PUSH2 0x1EFE SWAP5 MUL DIV SWAP1 PUSH2 0x1C3C JUMP JUMPDEST SWAP6 PUSH2 0x1F56 JUMP JUMPDEST PUSH1 0x1 DUP4 ADD SLOAD PUSH1 0xD DUP13 ADD SLOAD SWAP5 SWAP15 SWAP10 SWAP5 GT ISZERO PUSH2 0x1FEF JUMPI POP POP PUSH2 0x1FBF SWAP1 SLOAD DUP1 SWAP3 PUSH2 0x1C3C JUMP JUMPDEST SWAP6 PUSH1 0x96 DUP3 DUP2 DUP2 MUL DIV DUP2 EQ DUP4 ISZERO OR ISZERO PUSH2 0x526 JUMPI DUP3 PUSH2 0x2710 PUSH2 0x1F4E SWAP3 PUSH2 0x1FE5 SWAP6 MUL DIV SWAP1 PUSH2 0x1CD1 JUMP JUMPDEST SWAP10 JUMPDEST CODESIZE DUP1 DUP1 PUSH2 0x1EBD JUMP JUMPDEST SWAP1 SWAP3 SWAP8 SWAP13 SWAP9 SWAP2 PUSH1 0x2 ADD PUSH2 0x100 PUSH2 0xFF00 NOT DUP3 SLOAD AND OR SWAP1 SSTORE PUSH1 0x96 SWAP3 DUP2 DUP5 DUP2 MUL DIV DUP5 EQ OR ISZERO PUSH2 0x526 JUMPI PUSH2 0x2025 SWAP3 PUSH2 0x2710 SWAP2 MUL DIV SWAP1 PUSH2 0x1C3C JUMP JUMPDEST SWAP6 PUSH2 0x1FE7 JUMP JUMPDEST POP SWAP8 SWAP4 SWAP5 SWAP2 SWAP7 SWAP6 SWAP1 POP PUSH1 0x10 SWAP3 PUSH1 0xE DUP4 ADD SSTORE PUSH1 0xF DUP3 ADD SSTORE ADD SSTORE DUP1 PUSH2 0x22BC JUMPI JUMPDEST POP PUSH1 0xD DUP2 ADD SLOAD PUSH1 0xE DUP3 ADD SLOAD SWAP1 DUP4 PUSH32 0x63664D33416C0AB02E7DFE6555E6F8FC77AF9CA212A3FEF165A05ACDAA4E1768 PUSH1 0x60 PUSH1 0xF DUP7 ADD SLOAD SWAP4 PUSH1 0x40 MLOAD SWAP1 DUP2 MSTORE DUP6 PUSH1 0x20 DUP3 ADD MSTORE DUP5 PUSH1 0x40 DUP3 ADD MSTORE LOG2 PUSH8 0x6F05B59D3B20000 PUSH2 0x20A5 DUP3 DUP5 PUSH2 0x1C3C JUMP JUMPDEST LT SWAP2 DUP3 ISZERO PUSH2 0x22B3 JUMPI JUMPDEST POP DUP2 ISZERO PUSH2 0x22AA JUMPI JUMPDEST POP PUSH2 0x2249 JUMPI PUSH1 0xE DUP2 ADD SLOAD PUSH1 0xF DUP3 ADD SLOAD DUP1 DUP3 EQ PUSH2 0x21D5 JUMPI POP POP PUSH1 0xA0 DUP2 PUSH1 0xE PUSH32 0xF64C79C3632FCD52F5F08E54C35FC6871794ED1878E02F3061139A4C178221BD SWAP4 ADD SLOAD PUSH1 0xF DUP3 ADD SLOAD GT PUSH1 0x0 EQ PUSH2 0x21CD JUMPI PUSH1 0x0 SWAP1 JUMPDEST PUSH2 0x2115 DUP3 PUSH1 0x9 DUP4 ADD PUSH2 0x1C61 JUMP JUMPDEST PUSH1 0x3 PUSH1 0xFF NOT PUSH1 0x1 DUP2 PUSH1 0xB DUP6 ADD SLOAD AND OR PUSH1 0xB DUP5 ADD SSTORE PUSH1 0x1 DUP4 ADD SLOAD AND OR PUSH1 0x1 DUP3 ADD SSTORE NUMBER PUSH1 0x8 DUP3 ADD SSTORE DUP5 PUSH1 0x0 MSTORE PUSH1 0xA PUSH1 0x20 MSTORE DUP5 PUSH32 0xEC81DEB90BCC57C0CA18F5C03C0C05887DB260D498C57B4E02FE93898578DC7E PUSH1 0x20 PUSH1 0x40 PUSH1 0x0 KECCAK256 SLOAD PUSH2 0x217A DUP2 PUSH1 0x4 SLOAD PUSH2 0x1C3C JUMP JUMPDEST PUSH1 0x4 SSTORE DUP4 PUSH1 0x0 MSTORE PUSH1 0xA DUP3 MSTORE PUSH1 0x0 PUSH1 0x40 DUP2 KECCAK256 SSTORE PUSH1 0x40 MLOAD SWAP1 DUP2 MSTORE LOG2 PUSH1 0xE DUP2 ADD SLOAD SWAP1 PUSH1 0xF DUP2 ADD SLOAD PUSH1 0x5 PUSH1 0x4 DUP4 ADD SLOAD SWAP3 ADD SLOAD SWAP3 PUSH2 0x21B6 PUSH1 0x40 MLOAD DUP1 SWAP7 PUSH2 0x19E8 JUMP JUMPDEST PUSH1 0x20 DUP6 ADD MSTORE PUSH1 0x40 DUP5 ADD MSTORE PUSH1 0x60 DUP4 ADD MSTORE PUSH1 0x80 DUP3 ADD MSTORE LOG2 JUMP JUMPDEST PUSH1 0x1 SWAP1 PUSH2 0x2108 JUMP JUMPDEST DUP4 SWAP3 POP PUSH1 0x40 PUSH2 0x2247 SWAP5 SWAP3 PUSH31 0xC62D58CBB6A9291254143347FDC129D33FC8550DBB03C801ABB5FCBA00470D SWAP3 DUP3 MLOAD SWAP2 DUP3 MSTORE PUSH1 0x20 DUP3 ADD MSTORE LOG2 PUSH1 0x40 MLOAD SWAP1 PUSH2 0x2218 DUP3 PUSH2 0x1898 JUMP JUMPDEST PUSH1 0x1E DUP3 MSTORE PUSH32 0x457861637420746965202D20726566756E64696E6720616C6C20626574730000 PUSH1 0x20 DUP4 ADD MSTORE PUSH2 0x2E16 JUMP JUMPDEST JUMP JUMPDEST POP PUSH1 0x40 MLOAD PUSH2 0x2247 SWAP2 PUSH2 0x225A DUP3 PUSH2 0x18B3 JUMP JUMPDEST PUSH1 0x38 DUP3 MSTORE PUSH32 0x496E73756666696369656E742076616C69642070617274696369706174696F6E PUSH1 0x20 DUP4 ADD MSTORE PUSH24 0x1030B33A32B91030B73A3496B9B734B832903334B63A32B9 PUSH1 0x41 SHL PUSH1 0x40 DUP4 ADD MSTORE PUSH2 0x2E16 JUMP JUMPDEST SWAP1 POP ISZERO CODESIZE PUSH2 0x20B6 JUMP JUMPDEST ISZERO SWAP2 POP CODESIZE PUSH2 0x20AE JUMP JUMPDEST DUP3 PUSH1 0x0 MSTORE PUSH1 0xA PUSH1 0x20 MSTORE PUSH1 0x40 PUSH1 0x0 KECCAK256 PUSH2 0x22D5 DUP3 DUP3 SLOAD PUSH2 0x1CD1 JUMP JUMPDEST SWAP1 SSTORE DUP3 PUSH1 0x0 MSTORE PUSH1 0x9 PUSH1 0x20 MSTORE PUSH2 0x22F0 PUSH1 0x40 PUSH1 0x0 KECCAK256 SWAP2 DUP3 SLOAD PUSH2 0x1C3C JUMP JUMPDEST SWAP1 SSTORE CODESIZE PUSH2 0x2049 JUMP JUMPDEST PUSH1 0x40 MLOAD PUSH4 0x9E3295EB PUSH1 0xE0 SHL DUP2 MSTORE PUSH1 0x4 SWAP1 REVERT JUMPDEST PUSH32 0xDAB333D290DDBDBD09A1CBF1766353F798286B4094FDE23AA5D2AB9B4DA6AC81 DUP3 SWAP2 PUSH2 0x234B PUSH2 0x2247 SWAP6 PUSH1 0xB PUSH1 0x1 DUP1 PUSH1 0x40 SHL SUB SWAP2 ADD SLOAD PUSH1 0x8 SHR AND SWAP2 NUMBER PUSH2 0x1CD1 JUMP JUMPDEST SWAP1 PUSH2 0x235B PUSH1 0x40 MLOAD SWAP3 DUP4 SWAP3 DUP4 PUSH2 0x1D6F JUMP JUMPDEST SUB SWAP1 LOG2 PUSH1 0x40 MLOAD SWAP1 PUSH2 0x236B DUP3 PUSH2 0x18B3 JUMP JUMPDEST PUSH1 0x2E DUP3 MSTORE PUSH32 0x4472616E642070756C73652074696D656F7574202D2072616E646F6D6E657373 PUSH1 0x20 DUP4 ADD MSTORE PUSH14 0x206E6F7420617661696C61626C65 PUSH1 0x90 SHL PUSH1 0x40 DUP4 ADD MSTORE PUSH2 0x2E16 JUMP JUMPDEST SWAP1 PUSH1 0x7 DUP2 ADD SLOAD NUMBER LT PUSH2 0x247C JUMPI PUSH1 0x1 PUSH1 0x1 PUSH1 0x40 SHL SUB SWAP1 DUP2 PUSH2 0x23CF PUSH2 0x2ECC JUMP JUMPDEST AND DUP1 ISZERO PUSH2 0x2443 JUMPI PUSH1 0x3 ADD SWAP2 DUP1 DUP4 GT PUSH2 0x526 JUMPI PUSH32 0xE9F1164EE64311D70A683540A72008A8EB3E00F426D9C7843FAAACD938FD9A3F SWAP3 DUP3 PUSH2 0x2415 PUSH1 0xB PUSH2 0x243E SWAP6 ADD SWAP3 DUP4 PUSH2 0x1C79 JUMP JUMPDEST NUMBER PUSH1 0xC DUP3 ADD SSTORE PUSH1 0x1 PUSH1 0x2 PUSH1 0xFF NOT DUP3 DUP5 ADD SLOAD AND OR SWAP2 ADD SSTORE SLOAD PUSH1 0x8 SHR AND PUSH1 0x40 MLOAD SWAP2 DUP3 SWAP2 NUMBER SWAP1 DUP4 PUSH2 0x1D6F JUMP JUMPDEST SUB SWAP1 LOG2 JUMP JUMPDEST POP POP POP PUSH2 0x2247 SWAP1 PUSH1 0x40 MLOAD SWAP1 PUSH2 0x2457 DUP3 PUSH2 0x1898 JUMP JUMPDEST PUSH1 0x13 DUP3 MSTORE PUSH19 0x4472616E64206E6F7420617661696C61626C65 PUSH1 0x68 SHL PUSH1 0x20 DUP4 ADD MSTORE PUSH2 0x2E16 JUMP JUMPDEST PUSH1 0x40 MLOAD PUSH4 0x658AEAD3 PUSH1 0xE0 SHL DUP2 MSTORE PUSH1 0x4 SWAP1 REVERT JUMPDEST POP PUSH1 0x2 SLOAD DUP2 LT ISZERO PUSH2 0x1D93 JUMP JUMPDEST RETURNDATASIZE ISZERO PUSH2 0x24D4 JUMPI RETURNDATASIZE SWAP1 PUSH1 0x1 PUSH1 0x1 PUSH1 0x40 SHL SUB DUP3 GT PUSH2 0x178D JUMPI PUSH1 0x40 MLOAD SWAP2 PUSH2 0x24C8 PUSH1 0x1F DUP3 ADD PUSH1 0x1F NOT AND PUSH1 0x20 ADD DUP5 PUSH2 0x18CE JUMP JUMPDEST DUP3 MSTORE RETURNDATASIZE PUSH1 0x0 PUSH1 0x20 DUP5 ADD RETURNDATACOPY JUMP JUMPDEST PUSH1 0x60 SWAP1 JUMP JUMPDEST DUP1 ISZERO DUP1 ISZERO PUSH2 0x2829 JUMPI JUMPDEST PUSH2 0xA3F JUMPI PUSH1 0x0 SWAP1 DUP1 DUP3 MSTORE PUSH1 0x20 PUSH1 0x6 DUP2 MSTORE PUSH1 0x40 DUP1 DUP5 KECCAK256 SWAP2 PUSH1 0x7 DUP2 MSTORE DUP2 DUP6 KECCAK256 CALLER DUP7 MSTORE DUP2 MSTORE DUP2 DUP6 KECCAK256 DUP6 DUP1 MSTORE DUP2 MSTORE DUP2 DUP6 KECCAK256 DUP1 SLOAD SWAP4 DUP5 ISZERO PUSH2 0x2818 JUMPI PUSH1 0x2 DUP3 ADD SWAP5 DUP6 SLOAD SWAP1 PUSH1 0xFF SWAP2 DUP3 DUP2 AND PUSH2 0x2807 JUMPI DUP3 PUSH1 0xB DUP6 ADD SLOAD AND ISZERO DUP1 PUSH2 0x27DA JUMPI JUMPDEST PUSH2 0x277E JUMPI POP POP DUP1 PUSH1 0x1 DUP4 ADD SLOAD AND PUSH1 0x5 DUP2 LT ISZERO PUSH2 0x276A JUMPI PUSH1 0x3 DUP2 EQ ISZERO SWAP1 DUP2 PUSH2 0x275E JUMPI JUMPDEST POP PUSH2 0x274D JUMPI DUP6 SLOAD DUP2 DUP2 PUSH1 0x8 SHR AND PUSH2 0x26F0 JUMPI POP PUSH1 0x9 DUP3 ADD DUP2 DUP2 SLOAD AND PUSH1 0x2 DUP2 LT ISZERO PUSH2 0x26DC JUMPI PUSH2 0x26B0 JUMPI SLOAD AND PUSH1 0x2 DUP2 LT ISZERO PUSH2 0x269C JUMPI PUSH2 0x2691 JUMPI PUSH1 0xE DUP2 ADD SLOAD SWAP1 JUMPDEST DUP3 SLOAD SWAP2 PUSH8 0xDE0B6B3A7640000 SWAP3 DUP4 DUP2 MUL SWAP1 DUP1 DUP3 DIV DUP6 EQ SWAP1 ISZERO OR ISZERO PUSH2 0x267D JUMPI PUSH2 0x25C5 PUSH2 0x25CD SWAP4 SWAP3 PUSH1 0x10 SWAP3 PUSH2 0x1CB1 JUMP JUMPDEST SWAP2 ADD SLOAD PUSH2 0x1C9E JUMP JUMPDEST DIV SWAP4 PUSH1 0x1 PUSH1 0xFF NOT DUP3 SLOAD AND OR SWAP1 SSTORE DUP4 PUSH2 0x263F JUMPI JUMPDEST CALLER DUP7 MSTORE PUSH1 0xC DUP3 MSTORE PUSH1 0x1 DUP4 DUP8 KECCAK256 ADD PUSH2 0x25F7 DUP2 SLOAD PUSH2 0x1C2D JUMP JUMPDEST SWAP1 SSTORE CALLER DUP7 MSTORE PUSH1 0xC DUP3 MSTORE PUSH1 0x2 DUP4 DUP8 KECCAK256 ADD PUSH2 0x2611 DUP6 DUP3 SLOAD PUSH2 0x1C3C JUMP JUMPDEST SWAP1 SSTORE PUSH2 0x261C CALLER PUSH2 0x34B8 JUMP JUMPDEST SLOAD SWAP1 DUP3 MLOAD SWAP6 DUP7 MSTORE DUP6 ADD MSTORE DUP4 ADD MSTORE PUSH1 0x0 DUP1 MLOAD PUSH1 0x20 PUSH2 0x3B09 DUP4 CODECOPY DUP2 MLOAD SWAP2 MSTORE PUSH1 0x60 CALLER SWAP4 LOG3 JUMP JUMPDEST DUP5 DUP7 MSTORE PUSH1 0x9 DUP3 MSTORE DUP3 DUP7 KECCAK256 PUSH2 0x2654 DUP6 DUP3 SLOAD PUSH2 0x1CD1 JUMP JUMPDEST SWAP1 SSTORE DUP6 DUP1 DUP1 DUP1 DUP8 CALLER GAS CALL PUSH2 0x2666 PUSH2 0x249A JUMP JUMPDEST POP PUSH2 0x25E0 JUMPI JUMPDEST DUP3 MLOAD PUSH4 0x12171D83 PUSH1 0xE3 SHL DUP2 MSTORE PUSH1 0x4 SWAP1 REVERT JUMPDEST PUSH4 0x4E487B71 PUSH1 0xE0 SHL DUP11 MSTORE PUSH1 0x11 PUSH1 0x4 MSTORE PUSH1 0x24 DUP11 REVERT JUMPDEST PUSH1 0xF DUP2 ADD SLOAD SWAP1 PUSH2 0x2597 JUMP JUMPDEST PUSH4 0x4E487B71 PUSH1 0xE0 SHL DUP9 MSTORE PUSH1 0x21 PUSH1 0x4 MSTORE PUSH1 0x24 DUP9 REVERT JUMPDEST POP POP POP POP PUSH1 0xC SWAP2 SWAP4 POP PUSH1 0x3 SWAP5 SWAP3 PUSH1 0x1 PUSH1 0xFF NOT DUP3 SLOAD AND OR SWAP1 SSTORE CALLER DUP4 MSTORE MSTORE KECCAK256 ADD PUSH2 0x26D8 DUP2 SLOAD PUSH2 0x1C2D JUMP JUMPDEST SWAP1 SSTORE JUMP JUMPDEST PUSH4 0x4E487B71 PUSH1 0xE0 SHL DUP11 MSTORE PUSH1 0x21 PUSH1 0x4 MSTORE PUSH1 0x24 DUP11 REVERT JUMPDEST SWAP5 SWAP6 SWAP3 SWAP1 POP PUSH1 0x1 SWAP2 POP SLOAD SWAP4 PUSH1 0xFF NOT AND OR SWAP1 SSTORE DUP4 DUP6 MSTORE PUSH1 0x9 DUP2 MSTORE DUP3 DUP6 KECCAK256 PUSH2 0x2717 DUP4 DUP3 SLOAD PUSH2 0x1CD1 JUMP JUMPDEST SWAP1 SSTORE DUP5 DUP1 DUP1 DUP1 DUP6 CALLER GAS CALL PUSH2 0x2729 PUSH2 0x249A JUMP JUMPDEST POP ISZERO PUSH2 0x266C JUMPI DUP3 MLOAD SWAP5 DUP6 MSTORE DUP5 ADD MSTORE CALLER SWAP3 PUSH1 0x0 DUP1 MLOAD PUSH1 0x20 PUSH2 0x3B29 DUP4 CODECOPY DUP2 MLOAD SWAP2 MSTORE SWAP2 SWAP1 LOG3 JUMP JUMPDEST DUP5 MLOAD PUSH4 0x60829305 PUSH1 0xE1 SHL DUP2 MSTORE PUSH1 0x4 SWAP1 REVERT JUMPDEST PUSH1 0x4 SWAP2 POP EQ ISZERO CODESIZE PUSH2 0x255A JUMP JUMPDEST PUSH4 0x4E487B71 PUSH1 0xE0 SHL DUP10 MSTORE PUSH1 0x21 PUSH1 0x4 MSTORE PUSH1 0x24 DUP10 REVERT JUMPDEST SWAP2 POP SWAP5 SWAP6 SWAP3 POP PUSH1 0x1 SWAP2 POP PUSH1 0xFF NOT AND OR SWAP1 SSTORE DUP4 DUP6 MSTORE PUSH1 0x9 DUP2 MSTORE DUP3 DUP6 KECCAK256 PUSH2 0x27A4 DUP4 DUP3 SLOAD PUSH2 0x1CD1 JUMP JUMPDEST SWAP1 SSTORE DUP5 DUP1 DUP1 DUP1 DUP6 CALLER GAS CALL PUSH2 0x27B6 PUSH2 0x249A JUMP JUMPDEST POP ISZERO PUSH2 0x266C JUMPI DUP3 MLOAD SWAP5 DUP6 MSTORE DUP5 ADD MSTORE CALLER SWAP3 PUSH1 0x0 DUP1 MLOAD PUSH1 0x20 PUSH2 0x3B49 DUP4 CODECOPY DUP2 MLOAD SWAP2 MSTORE SWAP2 SWAP1 LOG3 JUMP JUMPDEST POP DUP3 PUSH1 0x1 DUP6 ADD SLOAD AND PUSH1 0x5 DUP2 LT ISZERO PUSH2 0x27F3 JUMPI PUSH1 0x4 EQ PUSH2 0x2538 JUMP JUMPDEST PUSH4 0x4E487B71 PUSH1 0xE0 SHL DUP12 MSTORE PUSH1 0x21 PUSH1 0x4 MSTORE PUSH1 0x24 DUP12 REVERT JUMPDEST DUP7 MLOAD PUSH4 0xC8D9EAB PUSH1 0xE3 SHL DUP2 MSTORE PUSH1 0x4 SWAP1 REVERT JUMPDEST DUP4 MLOAD PUSH4 0x2F42CBDD PUSH1 0xE0 SHL DUP2 MSTORE PUSH1 0x4 SWAP1 REVERT JUMPDEST POP PUSH1 0x2 SLOAD DUP2 LT ISZERO PUSH2 0x24E2 JUMP JUMPDEST DUP1 ISZERO DUP1 ISZERO PUSH2 0x2B0F JUMPI JUMPDEST PUSH2 0xA3F JUMPI PUSH1 0x0 SWAP1 DUP1 DUP3 MSTORE PUSH1 0x20 PUSH1 0x6 DUP2 MSTORE PUSH1 0x40 DUP1 DUP5 KECCAK256 SWAP2 PUSH1 0x7 DUP2 MSTORE DUP2 DUP6 KECCAK256 CALLER DUP7 MSTORE DUP2 MSTORE DUP2 DUP6 KECCAK256 SWAP5 PUSH1 0x1 SWAP6 DUP7 DUP3 MSTORE DUP3 MSTORE DUP3 DUP2 KECCAK256 SWAP1 DUP2 SLOAD SWAP5 DUP6 ISZERO PUSH2 0x2AFE JUMPI PUSH1 0x2 DUP4 ADD SWAP6 DUP7 SLOAD SWAP1 PUSH1 0xFF SWAP2 DUP3 DUP2 AND PUSH2 0x2AED JUMPI DUP11 SWAP1 DUP4 PUSH1 0xB DUP7 ADD SLOAD AND ISZERO DUP1 PUSH2 0x2ABE JUMPI JUMPDEST PUSH2 0x2A88 JUMPI POP DUP3 SWAP2 POP DUP4 ADD SLOAD AND PUSH1 0x5 DUP2 LT ISZERO PUSH2 0x2A74 JUMPI PUSH1 0x3 DUP2 EQ ISZERO SWAP1 DUP2 PUSH2 0x2A68 JUMPI JUMPDEST POP PUSH2 0x2A57 JUMPI DUP7 SLOAD DUP10 DUP3 DUP3 PUSH1 0x8 SHR AND PUSH2 0x2A20 JUMPI POP POP PUSH1 0x9 DUP3 ADD DUP2 DUP2 SLOAD AND PUSH1 0x2 DUP2 LT ISZERO PUSH2 0x2A0C JUMPI DUP11 SUB PUSH2 0x29E5 JUMPI SLOAD AND PUSH1 0x2 DUP2 LT ISZERO PUSH2 0x29D1 JUMPI PUSH2 0x29C6 JUMPI PUSH1 0xE DUP2 ADD SLOAD SWAP1 JUMPDEST DUP4 SLOAD SWAP2 PUSH8 0xDE0B6B3A7640000 SWAP3 DUP4 DUP2 MUL SWAP1 DUP1 DUP3 DIV DUP6 EQ SWAP1 ISZERO OR ISZERO PUSH2 0x29B2 JUMPI PUSH2 0x25C5 PUSH2 0x292B SWAP4 SWAP3 PUSH1 0x10 SWAP3 PUSH2 0x1CB1 JUMP JUMPDEST DIV SWAP5 DUP8 PUSH1 0xFF NOT DUP3 SLOAD AND OR SWAP1 SSTORE DUP4 DUP6 PUSH2 0x296D JUMPI JUMPDEST PUSH1 0x2 SWAP2 CALLER DUP2 MSTORE PUSH1 0xC DUP6 MSTORE DUP9 DUP3 DUP3 KECCAK256 ADD PUSH2 0x2957 DUP2 SLOAD PUSH2 0x1C2D JUMP JUMPDEST SWAP1 SSTORE CALLER DUP2 MSTORE PUSH1 0xC DUP6 MSTORE KECCAK256 ADD PUSH2 0x2611 DUP6 DUP3 SLOAD PUSH2 0x1C3C JUMP JUMPDEST POP DUP6 DUP2 MSTORE PUSH1 0x9 DUP4 MSTORE DUP4 DUP2 KECCAK256 PUSH2 0x2983 DUP7 DUP3 SLOAD PUSH2 0x1CD1 JUMP JUMPDEST SWAP1 SSTORE DUP1 DUP1 DUP1 DUP1 DUP9 CALLER GAS CALL PUSH2 0x2995 PUSH2 0x249A JUMP JUMPDEST POP ISZERO PUSH2 0x29A1 JUMPI DUP4 PUSH2 0x293E JUMP JUMPDEST DUP4 MLOAD PUSH4 0x12171D83 PUSH1 0xE3 SHL DUP2 MSTORE PUSH1 0x4 SWAP1 REVERT JUMPDEST PUSH4 0x4E487B71 PUSH1 0xE0 SHL DUP6 MSTORE PUSH1 0x11 PUSH1 0x4 MSTORE PUSH1 0x24 DUP6 REVERT JUMPDEST PUSH1 0xF DUP2 ADD SLOAD SWAP1 PUSH2 0x28FD JUMP JUMPDEST PUSH4 0x4E487B71 PUSH1 0xE0 SHL DUP4 MSTORE PUSH1 0x21 PUSH1 0x4 MSTORE PUSH1 0x24 DUP4 REVERT JUMPDEST POP POP POP SWAP4 SWAP1 POP PUSH1 0xC SWAP3 SWAP5 POP PUSH1 0x3 SWAP6 PUSH1 0xFF NOT DUP3 SLOAD AND OR SWAP1 SSTORE CALLER DUP4 MSTORE MSTORE KECCAK256 ADD PUSH2 0x26D8 DUP2 SLOAD PUSH2 0x1C2D JUMP JUMPDEST PUSH4 0x4E487B71 PUSH1 0xE0 SHL DUP6 MSTORE PUSH1 0x21 PUSH1 0x4 MSTORE PUSH1 0x24 DUP6 REVERT JUMPDEST SWAP3 POP SWAP6 SWAP7 SWAP3 SWAP4 SWAP1 POP SLOAD SWAP5 PUSH1 0xFF NOT AND OR SWAP1 SSTORE DUP5 DUP2 MSTORE PUSH1 0x9 DUP3 MSTORE DUP4 DUP2 KECCAK256 PUSH2 0x2A46 DUP5 DUP3 SLOAD PUSH2 0x1CD1 JUMP JUMPDEST SWAP1 SSTORE DUP1 DUP1 DUP1 DUP6 CALLER GAS CALL PUSH2 0x2729 PUSH2 0x249A JUMP JUMPDEST DUP6 MLOAD PUSH4 0x60829305 PUSH1 0xE1 SHL DUP2 MSTORE PUSH1 0x4 SWAP1 REVERT JUMPDEST PUSH1 0x4 SWAP2 POP EQ ISZERO CODESIZE PUSH2 0x28BC JUMP JUMPDEST PUSH4 0x4E487B71 PUSH1 0xE0 SHL DUP5 MSTORE PUSH1 0x21 PUSH1 0x4 MSTORE PUSH1 0x24 DUP5 REVERT JUMPDEST SWAP3 POP SWAP3 POP SWAP6 SWAP7 SWAP3 SWAP4 POP PUSH1 0xFF NOT AND OR SWAP1 SSTORE DUP5 DUP2 MSTORE PUSH1 0x9 DUP3 MSTORE DUP4 DUP2 KECCAK256 PUSH2 0x2AAD DUP5 DUP3 SLOAD PUSH2 0x1CD1 JUMP JUMPDEST SWAP1 SSTORE DUP1 DUP1 DUP1 DUP6 CALLER GAS CALL PUSH2 0x27B6 PUSH2 0x249A JUMP JUMPDEST POP SWAP1 DUP5 ADD SLOAD DUP4 AND PUSH1 0x5 DUP2 LT ISZERO PUSH2 0x2AD9 JUMPI SWAP1 PUSH1 0x4 DUP13 SWAP3 EQ PUSH2 0x289B JUMP JUMPDEST PUSH4 0x4E487B71 PUSH1 0xE0 SHL DUP7 MSTORE PUSH1 0x21 PUSH1 0x4 MSTORE PUSH1 0x24 DUP7 REVERT JUMPDEST DUP8 MLOAD PUSH4 0xC8D9EAB PUSH1 0xE3 SHL DUP2 MSTORE PUSH1 0x4 SWAP1 REVERT JUMPDEST DUP5 MLOAD PUSH4 0x2F42CBDD PUSH1 0xE0 SHL DUP2 MSTORE PUSH1 0x4 SWAP1 REVERT JUMPDEST POP PUSH1 0x2 SLOAD DUP2 LT ISZERO PUSH2 0x283E JUMP JUMPDEST DUP1 ISZERO DUP1 ISZERO PUSH2 0x2E0A JUMPI JUMPDEST PUSH2 0xA3F JUMPI PUSH1 0x0 DUP2 DUP2 MSTORE PUSH1 0x20 PUSH1 0x6 DUP2 MSTORE PUSH1 0x40 SWAP1 DUP2 DUP4 KECCAK256 SWAP3 PUSH1 0x7 DUP3 MSTORE DUP3 DUP2 KECCAK256 CALLER DUP3 MSTORE DUP3 MSTORE PUSH2 0x2B52 DUP7 DUP5 DUP4 KECCAK256 PUSH2 0x1B96 JUMP JUMPDEST SWAP2 DUP3 SLOAD SWAP5 DUP6 ISZERO PUSH2 0x2AFE JUMPI PUSH1 0x2 DUP5 ADD SWAP6 DUP7 SLOAD SWAP1 PUSH1 0xFF SWAP2 DUP3 DUP2 AND PUSH2 0x2AED JUMPI DUP3 PUSH1 0xB DUP6 ADD SLOAD AND ISZERO DUP1 PUSH2 0x2DDD JUMPI JUMPDEST PUSH2 0x2D81 JUMPI POP POP DUP1 PUSH1 0x1 DUP4 ADD SLOAD AND PUSH1 0x5 DUP2 LT ISZERO PUSH2 0x2A0C JUMPI PUSH1 0x3 DUP2 EQ ISZERO SWAP1 DUP2 PUSH2 0x2D75 JUMPI JUMPDEST POP PUSH2 0x2A57 JUMPI DUP7 SLOAD DUP2 DUP2 PUSH1 0x8 SHR AND PUSH2 0x2D10 JUMPI POP PUSH1 0x9 DUP3 ADD DUP2 DUP2 SLOAD AND PUSH1 0x2 DUP2 LT ISZERO PUSH2 0x2AD9 JUMPI PUSH1 0x2 DUP12 LT ISZERO PUSH2 0x2AD9 JUMPI DUP11 SUB PUSH2 0x2CE6 JUMPI SLOAD AND PUSH1 0x2 DUP2 LT ISZERO PUSH2 0x2A74 JUMPI PUSH2 0x2CDB JUMPI PUSH1 0xE DUP2 ADD SLOAD SWAP1 JUMPDEST DUP5 SLOAD SWAP2 PUSH8 0xDE0B6B3A7640000 SWAP3 DUP4 DUP2 MUL SWAP1 DUP1 DUP3 DIV DUP6 EQ SWAP1 ISZERO OR ISZERO PUSH2 0x2CC7 JUMPI PUSH2 0x25C5 PUSH2 0x2C14 SWAP4 SWAP3 PUSH1 0x10 SWAP3 PUSH2 0x1CB1 JUMP JUMPDEST DIV SWAP5 PUSH1 0x1 PUSH1 0xFF NOT DUP3 SLOAD AND OR SWAP1 SSTORE DUP5 PUSH2 0x2C8A JUMPI JUMPDEST SWAP2 PUSH1 0x2 DUP5 PUSH2 0x2C85 SWAP4 PUSH1 0xC PUSH1 0x0 DUP1 MLOAD PUSH1 0x20 PUSH2 0x3B09 DUP4 CODECOPY DUP2 MLOAD SWAP2 MSTORE SWAP9 SWAP8 SWAP7 CALLER DUP4 MSTORE DUP2 DUP2 MSTORE PUSH1 0x1 DUP5 DUP5 KECCAK256 ADD PUSH2 0x2C59 DUP2 SLOAD PUSH2 0x1C2D JUMP JUMPDEST SWAP1 SSTORE CALLER DUP4 MSTORE MSTORE KECCAK256 ADD PUSH2 0x2C6C DUP6 DUP3 SLOAD PUSH2 0x1C3C JUMP JUMPDEST SWAP1 SSTORE PUSH2 0x2C77 CALLER PUSH2 0x34B8 JUMP JUMPDEST SLOAD SWAP2 MLOAD SWAP3 DUP4 SWAP3 CALLER SWAP8 DUP5 PUSH2 0x1CFC JUMP JUMPDEST SUB SWAP1 LOG3 JUMP JUMPDEST DUP6 DUP3 MSTORE PUSH1 0x9 DUP2 MSTORE DUP4 DUP3 KECCAK256 PUSH2 0x2C9F DUP7 DUP3 SLOAD PUSH2 0x1CD1 JUMP JUMPDEST SWAP1 SSTORE DUP2 DUP1 DUP1 DUP1 DUP9 CALLER GAS CALL PUSH2 0x2CB1 PUSH2 0x249A JUMP JUMPDEST POP PUSH2 0x2C27 JUMPI DUP4 MLOAD PUSH4 0x12171D83 PUSH1 0xE3 SHL DUP2 MSTORE PUSH1 0x4 SWAP1 REVERT JUMPDEST PUSH4 0x4E487B71 PUSH1 0xE0 SHL DUP7 MSTORE PUSH1 0x11 PUSH1 0x4 MSTORE PUSH1 0x24 DUP7 REVERT JUMPDEST PUSH1 0xF DUP2 ADD SLOAD SWAP1 PUSH2 0x2BE6 JUMP JUMPDEST POP POP POP SWAP2 POP SWAP3 PUSH1 0x3 SWAP6 POP PUSH1 0xC SWAP3 SWAP5 POP PUSH1 0x1 PUSH1 0xFF NOT DUP3 SLOAD AND OR SWAP1 SSTORE CALLER DUP4 MSTORE MSTORE KECCAK256 ADD PUSH2 0x26D8 DUP2 SLOAD PUSH2 0x1C2D JUMP JUMPDEST SWAP6 SWAP7 SWAP3 SWAP5 SWAP1 POP PUSH1 0x1 SWAP2 POP SLOAD SWAP5 PUSH1 0xFF NOT AND OR SWAP1 SSTORE DUP5 DUP2 MSTORE PUSH1 0x9 DUP3 MSTORE DUP4 DUP2 KECCAK256 PUSH2 0x2D38 DUP5 DUP3 SLOAD PUSH2 0x1CD1 JUMP JUMPDEST SWAP1 SSTORE DUP1 DUP1 DUP1 DUP6 CALLER GAS CALL PUSH2 0x2D49 PUSH2 0x249A JUMP JUMPDEST POP ISZERO PUSH2 0x266C JUMPI SWAP1 DUP3 SWAP2 PUSH2 0x2D6D PUSH1 0x0 DUP1 MLOAD PUSH1 0x20 PUSH2 0x3B29 DUP4 CODECOPY DUP2 MLOAD SWAP2 MSTORE SWAP5 MLOAD DUP1 SWAP8 PUSH2 0x19E8 JUMP JUMPDEST DUP6 ADD MSTORE CALLER SWAP4 LOG3 JUMP JUMPDEST PUSH1 0x4 SWAP2 POP EQ ISZERO CODESIZE PUSH2 0x2B9E JUMP JUMPDEST SWAP2 POP SWAP6 SWAP7 SWAP3 SWAP5 POP PUSH1 0x1 SWAP2 POP PUSH1 0xFF NOT AND OR SWAP1 SSTORE DUP5 DUP2 MSTORE PUSH1 0x9 DUP3 MSTORE DUP4 DUP2 KECCAK256 PUSH2 0x2DA8 DUP5 DUP3 SLOAD PUSH2 0x1CD1 JUMP JUMPDEST SWAP1 SSTORE DUP1 DUP1 DUP1 DUP6 CALLER GAS CALL PUSH2 0x2DB9 PUSH2 0x249A JUMP JUMPDEST POP ISZERO PUSH2 0x266C JUMPI SWAP1 DUP3 SWAP2 PUSH2 0x2D6D PUSH1 0x0 DUP1 MLOAD PUSH1 0x20 PUSH2 0x3B49 DUP4 CODECOPY DUP2 MLOAD SWAP2 MSTORE SWAP5 MLOAD DUP1 SWAP8 PUSH2 0x19E8 JUMP JUMPDEST POP DUP3 PUSH1 0x1 DUP6 ADD SLOAD AND PUSH1 0x5 DUP2 LT ISZERO PUSH2 0x2DF6 JUMPI PUSH1 0x4 EQ PUSH2 0x2B7C JUMP JUMPDEST PUSH4 0x4E487B71 PUSH1 0xE0 SHL DUP8 MSTORE PUSH1 0x21 PUSH1 0x4 MSTORE PUSH1 0x24 DUP8 REVERT JUMPDEST POP PUSH1 0x2 SLOAD DUP2 LT ISZERO PUSH2 0x2B24 JUMP JUMPDEST SWAP1 PUSH32 0xF023B047BE6C305859504186F8B03EE5A634F9AB472FF386D3B1DE9387C083E SWAP1 PUSH1 0x0 DUP4 DUP2 MSTORE PUSH1 0x20 SWAP1 PUSH1 0x6 DUP3 MSTORE PUSH1 0x40 DUP2 KECCAK256 SWAP1 PUSH1 0xA DUP4 MSTORE PUSH1 0x40 DUP2 KECCAK256 SLOAD PUSH1 0x9 DUP5 MSTORE PUSH2 0x2E66 PUSH1 0x40 DUP4 KECCAK256 SWAP2 DUP3 SLOAD PUSH2 0x1C3C JUMP JUMPDEST SWAP1 SSTORE DUP6 DUP2 MSTORE PUSH1 0xA DUP4 MSTORE PUSH1 0x40 DUP2 KECCAK256 SSTORE PUSH2 0x2E87 PUSH1 0x2 DUP3 ADD SLOAD PUSH1 0x3 DUP4 ADD SLOAD SWAP1 PUSH2 0x1C3C JUMP JUMPDEST PUSH1 0xA DUP3 ADD SSTORE PUSH1 0xB PUSH1 0x1 DUP3 ADD SWAP2 PUSH1 0xFF NOT SWAP3 PUSH1 0x4 DUP5 DUP3 SLOAD AND OR SWAP1 SSTORE ADD SWAP1 DUP2 SLOAD AND SWAP1 SSTORE PUSH2 0x243E PUSH1 0x40 MLOAD SWAP3 DUP3 DUP5 SWAP4 DUP5 MSTORE DUP4 ADD SWAP1 PUSH2 0x192A JUMP JUMPDEST SWAP1 DUP2 MLOAD DUP2 LT ISZERO PUSH2 0x1B68 JUMPI ADD PUSH1 0x20 ADD SWAP1 JUMP JUMPDEST PUSH2 0x2EF8 PUSH1 0x40 MLOAD PUSH2 0x2EDB DUP2 PUSH2 0x1898 JUMP JUMPDEST PUSH1 0x20 DUP2 MSTORE PUSH1 0x0 DUP1 MLOAD PUSH1 0x20 PUSH2 0x3B69 DUP4 CODECOPY DUP2 MLOAD SWAP2 MSTORE PUSH1 0x20 DUP3 ADD MSTORE PUSH2 0x2F5E JUMP JUMPDEST PUSH1 0x8 DUP1 DUP3 MLOAD LT PUSH2 0x2F57 JUMPI SWAP1 PUSH1 0x0 SWAP2 DUP3 SWAP2 JUMPDEST DUP2 DUP4 LT PUSH2 0x2F16 JUMPI POP POP POP SWAP1 JUMP JUMPDEST SWAP1 SWAP2 SWAP3 PUSH2 0x2F23 DUP5 DUP4 PUSH2 0x2EBB JUMP JUMPDEST MLOAD PUSH1 0xF8 SHR SWAP1 DUP5 PUSH1 0x3 SHL DUP6 DUP2 DIV DUP6 EQ DUP7 ISZERO OR ISZERO PUSH2 0x526 JUMPI PUSH2 0x2F50 SWAP3 PUSH1 0x1 DUP1 PUSH1 0x40 SHL SUB DUP1 SWAP3 AND SHL AND OR SWAP4 PUSH2 0x1C2D JUMP JUMPDEST SWAP2 SWAP1 PUSH2 0x2F09 JUMP JUMPDEST POP POP PUSH1 0x0 SWAP1 JUMP JUMPDEST PUSH1 0x0 DUP1 DUP3 PUSH1 0x20 DUP3 SWAP5 MLOAD SWAP2 ADD PUSH2 0x807 GAS STATICCALL SWAP1 PUSH2 0x2F77 PUSH2 0x249A JUMP JUMPDEST SWAP2 ISZERO PUSH2 0x2F81 JUMPI POP SWAP1 JUMP JUMPDEST PUSH1 0x40 MLOAD SWAP2 POP PUSH1 0x20 DUP3 ADD PUSH1 0x1 PUSH1 0x1 PUSH1 0x40 SHL SUB DUP2 GT DUP4 DUP3 LT OR PUSH2 0x2FA8 JUMPI PUSH1 0x40 MSTORE DUP1 DUP3 MSTORE CALLDATASIZE DUP2 CALLDATACOPY SWAP1 JUMP JUMPDEST PUSH4 0x4E487B71 PUSH1 0xE0 SHL DUP3 MSTORE PUSH1 0x41 PUSH1 0x4 MSTORE PUSH1 0x24 DUP3 REVERT JUMPDEST PUSH1 0x40 DUP1 MLOAD SWAP1 PUSH2 0x2FCA DUP3 PUSH2 0x1898 JUMP JUMPDEST PUSH1 0x8 SWAP1 DUP2 DUP4 MSTORE PUSH1 0x20 SWAP4 DUP5 CALLDATASIZE DUP2 DUP7 ADD CALLDATACOPY PUSH1 0x0 SWAP1 JUMPDEST DUP4 DUP3 LT PUSH2 0x3485 JUMPI POP POP DUP1 MLOAD SWAP3 PUSH2 0x100 DUP5 ADD PUSH1 0x1 PUSH1 0x1 PUSH1 0x40 SHL SUB DUP2 GT DUP6 DUP3 LT OR PUSH2 0x178D JUMPI DUP3 MSTORE PUSH1 0xD5 DUP5 MSTORE DUP5 DUP5 ADD SWAP1 PUSH1 0xE0 CALLDATASIZE DUP4 CALLDATACOPY DUP1 MLOAD SWAP2 PUSH1 0x0 DUP2 MSTORE8 PUSH1 0x0 PUSH1 0x21 DUP8 ADD MSTORE8 PUSH1 0x0 PUSH1 0x22 DUP8 ADD MSTORE8 PUSH1 0xC PUSH1 0x23 DUP8 ADD MSTORE8 PUSH1 0x24 SWAP6 PUSH1 0x18 DUP8 DUP3 ADD MSTORE8 PUSH1 0xF9 PUSH1 0x25 DUP3 ADD MSTORE8 PUSH1 0xBC PUSH1 0x26 DUP3 ADD MSTORE8 PUSH1 0xF3 PUSH1 0x27 DUP3 ADD MSTORE8 PUSH1 0x67 PUSH1 0x28 DUP3 ADD MSTORE8 PUSH1 0xE6 PUSH1 0x29 DUP3 ADD MSTORE8 PUSH1 0x9 PUSH1 0x2A DUP3 ADD MSTORE8 PUSH1 0x6A PUSH1 0x2B DUP3 ADD MSTORE8 PUSH1 0x3B PUSH1 0x2C DUP3 ADD MSTORE8 PUSH1 0xA7 PUSH1 0x2D DUP3 ADD MSTORE8 PUSH1 0xCA PUSH1 0x2E DUP3 ADD MSTORE8 PUSH1 0x84 PUSH1 0x2F DUP3 ADD MSTORE8 PUSH1 0x30 SWAP4 PUSH1 0x85 DUP6 DUP4 ADD MSTORE8 PUSH1 0xAE PUSH1 0x31 DUP4 ADD MSTORE8 PUSH1 0x67 PUSH1 0x32 DUP4 ADD MSTORE8 PUSH1 0xBB PUSH1 0x33 DUP4 ADD MSTORE8 PUSH1 0x2B PUSH1 0x34 DUP4 ADD MSTORE8 PUSH1 0xF8 PUSH1 0x35 DUP4 ADD MSTORE8 PUSH1 0x94 PUSH1 0x36 DUP4 ADD MSTORE8 PUSH1 0xFE PUSH1 0x37 DUP4 ADD MSTORE8 PUSH1 0x72 PUSH1 0x38 DUP4 ADD MSTORE8 PUSH1 0xF3 PUSH1 0x39 DUP4 ADD MSTORE8 PUSH1 0x6E PUSH1 0x3A DUP4 ADD MSTORE8 PUSH1 0x3C PUSH1 0x3B DUP4 ADD MSTORE8 PUSH1 0xF1 PUSH1 0x3C DUP4 ADD MSTORE8 PUSH1 0x36 PUSH1 0x3D DUP4 ADD MSTORE8 PUSH1 0x1D PUSH1 0x3E DUP4 ADD MSTORE8 PUSH1 0x5F PUSH1 0x3F DUP4 ADD MSTORE8 PUSH1 0x3A DUP7 DUP4 ADD MSTORE8 PUSH1 0xF5 PUSH1 0x41 DUP4 ADD MSTORE8 PUSH1 0x4F PUSH1 0x42 DUP4 ADD MSTORE8 PUSH1 0xA5 PUSH1 0x43 DUP4 ADD MSTORE8 PUSH1 0xD1 PUSH1 0x44 DUP4 ADD MSTORE8 PUSH1 0x82 PUSH1 0x45 DUP4 ADD MSTORE8 PUSH1 0xE6 PUSH1 0x46 DUP4 ADD MSTORE8 PUSH1 0xAD PUSH1 0x47 DUP4 ADD MSTORE8 PUSH1 0x7F PUSH1 0x48 DUP4 ADD MSTORE8 PUSH1 0x52 PUSH1 0x49 DUP4 ADD MSTORE8 PUSH1 0xE PUSH1 0x4A DUP4 ADD MSTORE8 PUSH1 0x51 PUSH1 0x4B DUP4 ADD MSTORE8 PUSH1 0x1F PUSH1 0x4C DUP4 ADD MSTORE8 PUSH1 0x6C PUSH1 0x4D DUP4 ADD MSTORE8 PUSH1 0x3E PUSH1 0x4E DUP4 ADD MSTORE8 PUSH1 0x2B PUSH1 0x4F DUP4 ADD MSTORE8 PUSH1 0x8C PUSH1 0x50 DUP4 ADD MSTORE8 PUSH1 0x68 PUSH1 0x51 DUP4 ADD MSTORE8 PUSH1 0x5 PUSH1 0x52 DUP4 ADD MSTORE8 PUSH1 0x9B PUSH1 0x53 DUP4 ADD MSTORE8 PUSH1 0x6B PUSH1 0x54 DUP4 ADD MSTORE8 PUSH1 0xBD PUSH1 0x55 DUP4 ADD MSTORE8 PUSH1 0x41 PUSH1 0x56 DUP4 ADD MSTORE8 PUSH1 0xFB PUSH1 0x57 DUP4 ADD MSTORE8 PUSH1 0xAB PUSH1 0x58 DUP4 ADD MSTORE8 PUSH1 0xD9 PUSH1 0x59 DUP4 ADD MSTORE8 PUSH1 0x83 PUSH1 0x5A DUP4 ADD MSTORE8 PUSH1 0x1F PUSH1 0x5B DUP4 ADD MSTORE8 PUSH1 0x79 PUSH1 0x5C DUP4 ADD MSTORE8 PUSH1 0x21 PUSH1 0x5D DUP4 ADD MSTORE8 PUSH1 0x7E PUSH1 0x5E DUP4 ADD MSTORE8 PUSH1 0x13 PUSH1 0x5F DUP4 ADD MSTORE8 PUSH1 0x19 PUSH1 0x60 DUP4 ADD MSTORE8 PUSH1 0xCD PUSH1 0x61 DUP4 ADD MSTORE8 PUSH1 0xE0 PUSH1 0x62 DUP4 ADD MSTORE8 PUSH1 0x5B PUSH1 0x63 DUP4 ADD MSTORE8 PUSH1 0x0 JUMPDEST DUP2 DUP2 LT PUSH2 0x345E JUMPI POP SWAP2 PUSH1 0x0 SWAP3 SWAP2 PUSH1 0xFF DUP4 DUP2 DUP7 SWAP6 AND PUSH1 0xE4 DUP5 ADD MSTORE8 DUP10 SHR AND PUSH1 0xE5 DUP3 ADD MSTORE8 PUSH1 0x1 PUSH1 0xF4 DUP3 ADD MSTORE8 MLOAD SWAP1 PUSH1 0x9 GAS STATICCALL PUSH2 0x3227 PUSH2 0x249A JUMP JUMPDEST SWAP1 DUP1 PUSH2 0x3454 JUMPI JUMPDEST ISZERO PUSH2 0x3420 JUMPI DUP7 ADD MLOAD DUP4 MLOAD SWAP4 PUSH2 0x3242 DUP6 PUSH2 0x18B3 JUMP JUMPDEST PUSH1 0x38 DUP6 MSTORE CALLDATASIZE DUP9 DUP7 ADD CALLDATACOPY PUSH2 0x3253 PUSH2 0x18F1 JUMP JUMPDEST PUSH1 0x0 JUMPDEST DUP9 DUP2 LT PUSH2 0x33F5 JUMPI POP POP PUSH1 0x0 JUMPDEST PUSH1 0x10 DUP2 LT PUSH2 0x33D4 JUMPI POP POP PUSH1 0x0 JUMPDEST DUP5 DUP2 LT PUSH2 0x3381 JUMPI POP POP POP PUSH2 0x3282 SWAP1 PUSH2 0x2F5E JUMP JUMPDEST SWAP1 DUP2 MLOAD SWAP1 DUP2 ISZERO PUSH2 0x3377 JUMPI PUSH1 0x29 DUP3 LT PUSH2 0x3377 JUMPI LT ISZERO PUSH2 0x3362 JUMPI PUSH1 0x28 DUP2 ADD MLOAD DUP1 PUSH1 0xF8 SHR PUSH1 0x0 PUSH1 0x3 DUP3 AND DUP1 ISZERO PUSH1 0x0 EQ PUSH2 0x3301 JUMPI POP POP POP PUSH1 0xFA SHR SWAP2 DUP4 PUSH1 0x9 SWAP4 JUMPDEST SUB PUSH2 0x32F8 JUMPI DUP2 MLOAD DUP5 DUP5 ADD SWAP2 DUP3 DUP6 GT PUSH2 0x32E4 JUMPI POP LT PUSH2 0x32DC JUMPI ADD ADD MLOAD SWAP1 JUMP JUMPDEST POP POP POP PUSH1 0x0 SWAP1 JUMP JUMPDEST PUSH4 0x4E487B71 PUSH1 0xE0 SHL PUSH1 0x0 SWAP1 DUP2 MSTORE PUSH1 0x11 PUSH1 0x4 MSTORE REVERT JUMPDEST POP POP POP POP PUSH1 0x0 SWAP1 JUMP JUMPDEST SWAP2 SWAP3 POP SWAP1 PUSH1 0x1 SUB PUSH2 0x335A JUMPI DUP3 MLOAD PUSH1 0xA DUP2 LT PUSH2 0x3351 JUMPI PUSH1 0x9 LT ISZERO PUSH2 0x333E JUMPI POP PUSH2 0xFFFF SWAP1 PUSH2 0xFF00 PUSH1 0x29 DUP5 ADD MLOAD PUSH1 0xF0 SHR AND OR PUSH1 0x2 SHR AND SWAP2 DUP4 PUSH1 0xA SWAP4 PUSH2 0x32BE JUMP JUMPDEST PUSH4 0x4E487B71 PUSH1 0xE0 SHL DUP2 MSTORE PUSH1 0x32 PUSH1 0x4 MSTORE DUP4 SWAP1 REVERT JUMPDEST POP SWAP4 POP POP POP POP SWAP1 JUMP JUMPDEST SWAP4 POP POP POP POP SWAP1 JUMP JUMPDEST POP PUSH4 0x4E487B71 PUSH1 0xE0 SHL PUSH1 0x0 SWAP1 DUP2 MSTORE PUSH1 0x32 PUSH1 0x4 MSTORE REVERT JUMPDEST POP POP POP POP POP PUSH1 0x0 SWAP1 JUMP JUMPDEST PUSH1 0x1 PUSH1 0x1 PUSH1 0xF8 SHL SUB NOT PUSH2 0x3394 DUP3 DUP5 PUSH2 0x2EBB JUMP JUMPDEST MLOAD AND DUP2 DUP5 ADD SWAP1 DUP2 DUP6 GT PUSH2 0x33BF JUMPI SWAP1 PUSH2 0x33B4 PUSH2 0x33BA SWAP4 SWAP3 PUSH1 0x0 BYTE SWAP2 DUP8 PUSH2 0x2EBB JUMP JUMPDEST MSTORE8 PUSH2 0x1C2D JUMP JUMPDEST PUSH2 0x326F JUMP JUMPDEST DUP8 PUSH4 0x4E487B71 PUSH1 0xE0 SHL PUSH1 0x0 MSTORE PUSH1 0x11 PUSH1 0x4 MSTORE PUSH1 0x0 REVERT JUMPDEST DUP1 DUP9 ADD DUP1 DUP10 GT PUSH2 0x33BF JUMPI SWAP1 PUSH2 0x33F0 SWAP2 PUSH2 0x33B4 DUP5 DUP4 BYTE SWAP2 DUP9 PUSH2 0x2EBB JUMP JUMPDEST PUSH2 0x3262 JUMP JUMPDEST PUSH2 0x341B SWAP1 PUSH1 0x1 PUSH1 0x1 PUSH1 0xF8 SHL SUB NOT PUSH2 0x340C DUP3 DUP6 PUSH2 0x2EBB JUMP JUMPDEST MLOAD AND PUSH1 0x0 BYTE PUSH2 0x33B4 DUP3 DUP10 PUSH2 0x2EBB JUMP JUMPDEST PUSH2 0x3256 JUMP JUMPDEST DUP4 MLOAD PUSH3 0x461BCD PUSH1 0xE5 SHL DUP2 MSTORE PUSH1 0x4 DUP2 ADD DUP9 SWAP1 MSTORE PUSH1 0xE DUP2 DUP9 ADD MSTORE PUSH14 0x189B185AD94C998819985A5B1959 PUSH1 0x92 SHL PUSH1 0x44 DUP3 ADD MSTORE PUSH1 0x64 SWAP1 REVERT JUMPDEST POP DUP4 DUP2 MLOAD EQ PUSH2 0x322E JUMP JUMPDEST DUP1 PUSH1 0x80 PUSH1 0x1 SWAP3 LT PUSH2 0x3470 JUMPI JUMPDEST ADD PUSH2 0x31F1 JUMP JUMPDEST DUP11 DUP2 DUP8 ADD ADD MLOAD PUSH1 0x0 BYTE PUSH1 0x64 DUP3 DUP7 ADD ADD MSTORE8 PUSH2 0x346A JUMP JUMPDEST PUSH7 0xFFFFFFFFFFFFFF PUSH2 0x34B2 SWAP2 PUSH1 0xFF PUSH1 0xF8 SHL DUP2 PUSH1 0xF8 SHL AND PUSH1 0x0 BYTE PUSH2 0x34A8 DUP6 DUP10 PUSH2 0x2EBB JUMP JUMPDEST MSTORE8 DUP6 SHR AND SWAP2 PUSH2 0x1C2D JUMP JUMPDEST SWAP1 PUSH2 0x2FDD JUMP JUMPDEST SWAP1 PUSH1 0x1 DUP1 PUSH1 0xA0 SHL SUB SWAP2 DUP3 DUP2 AND SWAP3 PUSH1 0x0 SWAP3 DUP5 DUP5 MSTORE PUSH1 0xC SWAP3 PUSH1 0x20 SWAP1 DUP5 DUP3 MSTORE PUSH1 0x2 SWAP1 PUSH1 0x40 SWAP1 DUP3 DUP3 DUP10 KECCAK256 ADD SLOAD SWAP1 DUP9 SWAP10 DUP10 DUP11 SWAP2 PUSH1 0xD SLOAD SWAP3 JUMPDEST DUP4 DUP2 LT PUSH2 0x36D6 JUMPI JUMPDEST POP POP ISZERO PUSH2 0x3608 JUMPI JUMPDEST POP POP POP SWAP7 JUMPDEST DUP1 ISZERO DUP1 ISZERO DUP1 PUSH2 0x35A5 JUMPI JUMPDEST ISZERO PUSH2 0x359A JUMPI PUSH1 0x0 NOT DUP3 ADD SWAP2 DUP1 DUP4 GT PUSH2 0x3586 JUMPI PUSH2 0x355B PUSH2 0x3560 DUP9 PUSH2 0x356C SWAP4 PUSH2 0x3530 DUP8 PUSH2 0x1B4D JUMP JUMPDEST SWAP4 SWAP1 SLOAD SWAP2 PUSH2 0x353D DUP2 PUSH2 0x1B4D JUMP JUMPDEST SWAP7 SWAP1 SLOAD SWAP7 PUSH1 0x3 SWAP8 DUP7 PUSH2 0x354E DUP14 PUSH2 0x1B4D JUMP JUMPDEST SWAP3 SWAP1 SWAP4 DUP12 SHL SHR AND SWAP2 PUSH2 0x1CDE JUMP JUMPDEST PUSH2 0x1B4D JUMP JUMPDEST SWAP4 SWAP1 SWAP5 SHL SHR AND SWAP2 PUSH2 0x1CDE JUMP JUMPDEST ISZERO PUSH2 0x3500 JUMPI JUMPDEST PUSH4 0x4E487B71 PUSH1 0xE0 SHL DUP8 MSTORE PUSH1 0x11 PUSH1 0x4 MSTORE PUSH1 0x24 DUP8 REVERT JUMPDEST PUSH4 0x4E487B71 PUSH1 0xE0 SHL DUP10 MSTORE PUSH1 0x11 PUSH1 0x4 MSTORE PUSH1 0x24 DUP10 REVERT JUMPDEST POP POP POP POP SWAP4 POP POP POP POP JUMP JUMPDEST POP DUP6 PUSH2 0x35B0 DUP4 PUSH2 0x1B4D JUMP JUMPDEST SWAP2 SWAP1 SLOAD PUSH1 0x3 SWAP3 DUP4 SHL SHR AND DUP10 MSTORE DUP8 DUP6 MSTORE DUP4 DUP11 DUP11 KECCAK256 ADD SLOAD SWAP1 PUSH1 0x0 NOT DUP5 ADD DUP5 DUP2 GT PUSH2 0x35F4 JUMPI SWAP1 PUSH2 0x35DD DUP10 SWAP3 PUSH2 0x1B4D JUMP JUMPDEST SWAP1 SLOAD SWAP2 SHL SHR AND DUP10 MSTORE DUP8 DUP6 MSTORE DUP4 DUP11 DUP11 KECCAK256 ADD SLOAD LT PUSH2 0x350A JUMP JUMPDEST PUSH4 0x4E487B71 PUSH1 0xE0 SHL DUP12 MSTORE PUSH1 0x11 PUSH1 0x4 MSTORE PUSH1 0x24 DUP12 REVERT JUMPDEST SWAP3 SWAP10 POP SWAP1 SWAP2 PUSH1 0x64 DUP2 LT ISZERO PUSH2 0x3674 JUMPI POP PUSH1 0xD SLOAD SWAP1 SWAP2 POP PUSH1 0x1 PUSH1 0x40 SHL DUP2 LT ISZERO PUSH2 0x3660 JUMPI SWAP1 PUSH2 0x363D DUP3 PUSH1 0x1 PUSH2 0x3643 SWAP5 ADD PUSH1 0xD SSTORE PUSH2 0x1B4D JUMP JUMPDEST SWAP1 PUSH2 0x1CDE JUMP JUMPDEST PUSH1 0xD SLOAD PUSH1 0x0 NOT DUP2 ADD SWAP1 DUP2 GT PUSH2 0x3572 JUMPI SWAP1 DUP5 SWAP2 SWAP8 JUMPDEST SWAP1 SWAP2 CODESIZE DUP1 PUSH2 0x34FB JUMP JUMPDEST PUSH4 0x4E487B71 PUSH1 0xE0 SHL DUP9 MSTORE PUSH1 0x41 PUSH1 0x4 MSTORE PUSH1 0x24 DUP9 REVERT JUMPDEST PUSH1 0x0 NOT SWAP3 DUP2 DUP5 ADD SWAP2 DUP3 GT PUSH2 0x267D JUMPI DUP8 PUSH2 0x368C DUP4 PUSH2 0x1B4D JUMP JUMPDEST SWAP1 SLOAD SWAP1 PUSH1 0x3 SHL SHR AND DUP11 MSTORE DUP9 DUP7 MSTORE DUP5 DUP12 DUP12 KECCAK256 ADD SLOAD LT PUSH1 0x0 EQ PUSH2 0x36CA JUMPI SWAP1 PUSH2 0x363D PUSH2 0x36B4 SWAP3 PUSH2 0x1B4D JUMP JUMPDEST PUSH1 0xD SLOAD SWAP1 DUP2 ADD SWAP1 DUP2 GT PUSH2 0x3572 JUMPI SWAP1 DUP5 SWAP2 SWAP8 PUSH2 0x3657 JUMP JUMPDEST POP POP POP POP POP SWAP4 POP POP POP POP JUMP JUMPDEST DUP2 DUP12 PUSH2 0x36E1 DUP4 PUSH2 0x1B4D JUMP JUMPDEST SWAP1 SLOAD SWAP1 PUSH1 0x3 SHL SHR AND EQ PUSH2 0x36FC JUMPI PUSH2 0x36F7 SWAP1 PUSH2 0x1C2D JUMP JUMPDEST PUSH2 0x34EB JUMP JUMPDEST SWAP13 POP POP POP PUSH1 0x1 CODESIZE DUP1 PUSH2 0x34F3 JUMP JUMPDEST PUSH1 0x40 MLOAD SWAP1 PUSH2 0x3716 DUP3 PUSH2 0x1861 JUMP JUMPDEST DUP2 PUSH2 0x220 PUSH1 0x0 SWAP2 DUP3 DUP2 MSTORE DUP3 PUSH1 0x20 DUP3 ADD MSTORE DUP3 PUSH1 0x40 DUP3 ADD MSTORE DUP3 PUSH1 0x60 DUP3 ADD MSTORE DUP3 PUSH1 0x80 DUP3 ADD MSTORE DUP3 PUSH1 0xA0 DUP3 ADD MSTORE DUP3 PUSH1 0xC0 DUP3 ADD MSTORE DUP3 PUSH1 0xE0 DUP3 ADD MSTORE DUP3 PUSH2 0x100 DUP3 ADD MSTORE DUP3 PUSH2 0x120 DUP3 ADD MSTORE DUP3 PUSH2 0x140 DUP3 ADD MSTORE DUP3 PUSH2 0x160 DUP3 ADD MSTORE DUP3 PUSH2 0x180 DUP3 ADD MSTORE DUP3 PUSH2 0x1A0 DUP3 ADD MSTORE DUP3 PUSH2 0x1C0 DUP3 ADD MSTORE DUP3 PUSH2 0x1E0 DUP3 ADD MSTORE DUP3 PUSH2 0x200 DUP3 ADD MSTORE ADD MSTORE JUMP JUMPDEST PUSH1 0x40 MLOAD SWAP1 PUSH2 0x379A DUP3 PUSH2 0x187D JUMP JUMPDEST PUSH1 0x0 PUSH1 0x60 DUP4 DUP3 DUP2 MSTORE DUP3 PUSH1 0x20 DUP3 ADD MSTORE DUP3 PUSH1 0x40 DUP3 ADD MSTORE ADD MSTORE JUMP JUMPDEST SWAP1 PUSH1 0x40 MLOAD PUSH2 0x37BF DUP2 PUSH2 0x187D JUMP JUMPDEST PUSH1 0x60 PUSH1 0xFF PUSH1 0x2 DUP4 SWAP6 DUP1 SLOAD DUP6 MSTORE PUSH1 0x1 DUP2 ADD SLOAD PUSH1 0x20 DUP7 ADD MSTORE ADD SLOAD DUP2 DUP2 AND ISZERO ISZERO PUSH1 0x40 DUP6 ADD MSTORE PUSH1 0x8 SHR AND ISZERO ISZERO SWAP2 ADD MSTORE JUMP JUMPDEST PUSH1 0x1 PUSH1 0x1 PUSH1 0x40 SHL SUB DUP2 GT PUSH2 0x178D JUMPI PUSH1 0x5 SHL PUSH1 0x20 ADD SWAP1 JUMP JUMPDEST SWAP1 PUSH2 0x380D DUP3 PUSH2 0x37EC JUMP JUMPDEST PUSH2 0x381A PUSH1 0x40 MLOAD SWAP2 DUP3 PUSH2 0x18CE JUMP JUMPDEST DUP3 DUP2 MSTORE DUP1 SWAP3 PUSH2 0x382B PUSH1 0x1F NOT SWAP2 PUSH2 0x37EC JUMP JUMPDEST ADD SWAP1 PUSH1 0x20 CALLDATASIZE SWAP2 ADD CALLDATACOPY JUMP JUMPDEST DUP1 MLOAD DUP3 LT ISZERO PUSH2 0x1B68 JUMPI PUSH1 0x20 SWAP2 PUSH1 0x5 SHL ADD ADD SWAP1 JUMP JUMPDEST SWAP4 SWAP3 SWAP1 SWAP2 DUP5 ISZERO DUP1 ISZERO PUSH2 0x3912 JUMPI JUMPDEST PUSH2 0x3909 JUMPI PUSH1 0x0 SWAP5 DUP6 MSTORE PUSH1 0x6 PUSH1 0x20 MSTORE PUSH1 0x40 DUP6 KECCAK256 SWAP3 PUSH1 0x7 PUSH1 0x20 MSTORE PUSH1 0x40 DUP7 KECCAK256 SWAP1 PUSH1 0x1 DUP1 PUSH1 0xA0 SHL SUB AND DUP7 MSTORE PUSH1 0x20 MSTORE PUSH2 0x3897 DUP3 PUSH2 0x3891 DUP4 PUSH1 0x40 DUP10 KECCAK256 PUSH2 0x1B96 JUMP JUMPDEST SLOAD PUSH2 0x1C3C JUMP JUMPDEST SWAP2 PUSH1 0x96 DUP2 MUL DUP2 DUP2 DIV PUSH1 0x96 EQ DUP3 ISZERO OR ISZERO PUSH2 0x3572 JUMPI PUSH2 0x2710 PUSH2 0x38B8 SWAP2 DIV DUP3 PUSH2 0x1CD1 JUMP JUMPDEST SWAP2 PUSH1 0x2 DUP2 LT ISZERO PUSH2 0x2DF6 JUMPI SWAP2 PUSH1 0xA PUSH2 0x38E9 PUSH2 0x38F1 SWAP4 PUSH2 0x38F7 SWAP7 SWAP6 PUSH2 0x38FC SWAP10 SWAP11 POP ISZERO PUSH1 0x0 EQ PUSH2 0x38FF JUMPI PUSH1 0x2 DUP9 ADD SLOAD PUSH2 0x1C3C JUMP JUMPDEST SWAP6 ADD SLOAD PUSH2 0x1C3C JUMP JUMPDEST SWAP1 PUSH2 0x1C9E JUMP JUMPDEST PUSH2 0x1CB1 JUMP JUMPDEST SWAP1 JUMP JUMPDEST PUSH1 0x3 DUP9 ADD SLOAD PUSH2 0x1C3C JUMP JUMPDEST POP PUSH1 0x0 SWAP4 POP POP POP JUMP JUMPDEST POP PUSH1 0x2 SLOAD DUP6 LT ISZERO PUSH2 0x3856 JUMP JUMPDEST SWAP2 SWAP1 DUP3 ISZERO DUP1 ISZERO PUSH2 0x39A4 JUMPI JUMPDEST PUSH2 0x399C JUMPI PUSH1 0x0 SWAP3 DUP4 MSTORE PUSH1 0x6 PUSH1 0x20 MSTORE PUSH1 0x40 DUP4 KECCAK256 SWAP1 PUSH1 0x2 DUP2 LT ISZERO PUSH2 0x2A74 JUMPI PUSH2 0x3991 JUMPI PUSH1 0x2 DUP2 ADD SLOAD SWAP1 JUMPDEST DUP2 ISZERO PUSH2 0x398D JUMPI PUSH1 0xA ADD SLOAD PUSH2 0x2710 SWAP1 DUP2 DUP2 MUL SWAP2 DUP2 DUP4 DIV EQ SWAP1 ISZERO OR ISZERO PUSH2 0x3979 JUMPI PUSH2 0x38FC SWAP3 SWAP4 POP PUSH2 0x1CB1 JUMP JUMPDEST PUSH4 0x4E487B71 PUSH1 0xE0 SHL DUP5 MSTORE PUSH1 0x11 PUSH1 0x4 MSTORE PUSH1 0x24 DUP5 REVERT JUMPDEST POP POP JUMP JUMPDEST PUSH1 0x3 DUP2 ADD SLOAD SWAP1 PUSH2 0x3950 JUMP JUMPDEST POP PUSH2 0x2710 SWAP2 POP JUMP JUMPDEST POP PUSH1 0x2 SLOAD DUP4 LT ISZERO PUSH2 0x3929 JUMP JUMPDEST DUP1 ISZERO DUP1 ISZERO PUSH2 0x3A05 JUMPI JUMPDEST PUSH2 0x39FF JUMPI PUSH1 0x0 SWAP1 DUP2 MSTORE PUSH1 0x6 PUSH1 0x20 MSTORE PUSH1 0x40 DUP2 KECCAK256 PUSH1 0xFF PUSH1 0x1 DUP3 ADD SLOAD AND PUSH1 0x5 DUP2 LT ISZERO PUSH2 0x29D1 JUMPI PUSH1 0x1 SUB PUSH2 0x39FB JUMPI PUSH1 0x7 ADD SLOAD DUP1 NUMBER LT ISZERO PUSH2 0x39FB JUMPI PUSH2 0x38FC SWAP2 POP NUMBER SWAP1 PUSH2 0x1CD1 JUMP JUMPDEST POP SWAP1 JUMP JUMPDEST POP PUSH1 0x0 SWAP1 JUMP JUMPDEST POP PUSH1 0x2 SLOAD DUP2 LT ISZERO PUSH2 0x39B9 JUMP JUMPDEST DUP1 ISZERO DUP1 ISZERO PUSH2 0x3A7F JUMPI JUMPDEST PUSH2 0x39FF JUMPI PUSH1 0x0 SWAP1 DUP2 MSTORE PUSH1 0x6 PUSH1 0x20 MSTORE PUSH1 0x40 DUP2 KECCAK256 PUSH1 0xFF PUSH1 0x1 DUP3 ADD SLOAD AND PUSH1 0x5 DUP2 LT ISZERO PUSH2 0x29D1 JUMPI PUSH1 0x1 SUB PUSH2 0x39FB JUMPI PUSH1 0x7 ADD SLOAD SWAP1 PUSH1 0x18 NOT DUP3 ADD SWAP1 DUP3 DUP3 GT PUSH2 0x3A6B JUMPI POP NUMBER LT ISZERO SWAP1 DUP2 PUSH2 0x3A64 JUMPI POP SWAP1 JUMP JUMPDEST SWAP1 POP NUMBER LT SWAP1 JUMP JUMPDEST PUSH4 0x4E487B71 PUSH1 0xE0 SHL DUP2 MSTORE PUSH1 0x11 PUSH1 0x4 MSTORE PUSH1 0x24 SWAP1 REVERT JUMPDEST POP PUSH1 0x2 SLOAD DUP2 LT ISZERO PUSH2 0x3A1A JUMP JUMPDEST PUSH1 0x0 SWAP1 DUP2 MSTORE PUSH1 0x6 PUSH1 0x20 MSTORE PUSH1 0x40 DUP2 KECCAK256 PUSH1 0xFF PUSH1 0x1 DUP3 ADD SLOAD AND PUSH1 0x5 DUP2 LT ISZERO PUSH2 0x29D1 JUMPI PUSH1 0x2 SUB PUSH2 0x39FB JUMPI PUSH1 0xC ADD SLOAD SWAP1 PUSH2 0x1C20 DUP3 ADD DUP1 SWAP3 GT PUSH2 0x3A6B JUMPI POP NUMBER GT SWAP1 JUMP INVALID DUP12 0xE0 SMOD SWAP13 MSTORE8 AND MSIZE EQ SGT PREVRANDAO 0xCD 0x1F 0xD0 LOG4 CALLCODE DUP5 NOT 0x49 PUSH32 0x9722A3DAAFE3B4186F6B6457E0BFCD8F4E47CC529F86CDC7EAB8FB80E015A298 0xE0 0x21 0xFC 0xAE 0xE7 0x2D CALL 0xF7 PUSH14 0xD57CF487D6A2A5FA33ED09B7E0AD PREVRANDAO 0xC4 PUSH6 0xD1D7CC1EBAC5 INVALID 0x4F DUP15 SWAP13 PUSH7 0x25C55A874855DB 0x5F 0xC3 0x28 0xDE PUSH26 0x496782527B9F229C166413E535BD9C04254C7252CD37763A43C6 0x1E PUSH22 0x96BE94F3CB4521868C06461D3A4197839DF4D896C7FB NUMBER PUSH3 0xFC0E3B 0xE3 JUMP LOG1 SHR SLT LOG2 DUP6 0xCD 0xB6 PUSH15 0x8B8524EA70B1693C7B1E05087F3DD6 0xE0 0xCE 0xDE 0xD0 0xE3 DUP9 0xDD CALLVALUE 0xF8 LT 0xA7 RETURNDATASIZE LOG2 PUSH5 0x6970667358 0x22 SLT KECCAK256 0xB6 0xB6 LOG1 STOP SDIV SLOAD 0xB9 SLOAD 0x24 0x4E 0xCA 0x22 0x4D ADD SWAP16 PC 0xB0 0x2A DUP4 PUSH19 0x21593EF29E0EA76523679D8564736F6C634300 ADDMOD SGT STOP CALLER "},"methodIdentifiers":{"BETTING_BLOCKS()":"8ed6f26c","DRAND_LAST_ROUND_KEY()":"bef58eb2","DRAND_PULSES_PREFIX()":"0480091a","DRAND_ROUND_BUFFER()":"8d652d43","DRAND_TIMEOUT_BLOCKS()":"37e5a0eb","FEE_DENOMINATOR()":"d73792a9","FINAL_CALL_BLOCKS()":"bf9607c6","MAX_BETTORS_PER_GAME()":"baf15dd1","MAX_LEADERBOARD_SIZE()":"db877142","MIN_BET_AMOUNT()":"6475e3d3","MIN_POOL_SIZE()":"bdffaf7b","MIN_TOTAL_BETS()":"44933539","PLATFORM_FEE()":"34fbc9a1","STORAGE_PRECOMPILE()":"b3954fb3","accumulatedFees()":"587f5ed7","calculatePotentialPayout(uint256,address,uint8,uint256)":"ec844654","claimAllWinnings(uint256)":"a5c44a65","claimWinnings(uint256,uint8)":"ec1b3ab5","currentGameId()":"536a3ddc","gameBalance(uint256)":"19be5ad0","gameBettors(uint256,uint256)":"ce1ea732","gameFees(uint256)":"afc250a7","games(uint256)":"117a5b90","getAccumulatedFees()":"5df45a37","getBlocksRemaining(uint256)":"674943ad","getCurrentGame()":"968d901b","getCurrentMultiplier(uint256,uint8)":"67c15f6a","getDrandRandomness(uint64)":"cc830f50","getDrandStatus()":"c970f63e","getGame(uint256)":"a2f77bcc","getGameBalance(uint256)":"9dad1da5","getGameBettors(uint256)":"bcbdecb7","getGameCount()":"e87c0ee6","getGameFees(uint256)":"f95547fa","getLastDrandRound()":"0e182df1","getLeaderboard()":"6d763a6e","getLeaderboardWithStats(uint256)":"075aa970","getResolutionStatus(uint256)":"7dd7f492","getUserBets(uint256,address)":"fa744dd3","getUserSideBet(uint256,address,uint8)":"e978f045","getUserStats(address)":"4e43603a","hasAnyBet(uint256,address)":"51bcefa1","isBetLate(uint256,address,uint8)":"232ccf7d","isDrandRoundAvailable(uint64)":"e4258ade","isInFinalCall(uint256)":"6c3c1a45","isResolutionTimedOut(uint256)":"7489780b","leaderboard(uint256)":"bf368399","nextGameId()":"b135bbb0","owner()":"8da5cb5b","paused()":"5c975abb","placeBet(uint256,uint8)":"03edf914","renounceOwnership()":"715018a6","resolveGame(uint256)":"b7a5a5b6","setPaused(bool)":"16c38b3c","sideBets(uint256,address,uint8)":"e0ca49ae","startNewGame()":"482d51e0","transferOwnership(address)":"f2fde38b","userStats(address)":"8a65d874","withdrawFees()":"476343ee"}}}}}