{"contracts/TAO_Casino.sol":{"TAOCasino":{"abi":[{"inputs":[],"stateMutability":"nonpayable","type":"constructor"},{"inputs":[],"name":"AlreadyClaimed","type":"error"},{"inputs":[],"name":"BettingPeriodEnded","type":"error"},{"inputs":[],"name":"BettingPeriodNotEnded","type":"error"},{"inputs":[],"name":"CannotReferSelf","type":"error"},{"inputs":[],"name":"GameAlreadyResolved","type":"error"},{"inputs":[],"name":"GameNotFound","type":"error"},{"inputs":[],"name":"GameNotInBettingPhase","type":"error"},{"inputs":[],"name":"GameNotResolved","type":"error"},{"inputs":[],"name":"GameStillActive","type":"error"},{"inputs":[],"name":"InvalidBetAmount","type":"error"},{"inputs":[],"name":"InvalidGameDuration","type":"error"},{"inputs":[],"name":"InvalidReferralCode","type":"error"},{"inputs":[],"name":"NoActiveGame","type":"error"},{"inputs":[],"name":"NoBetToClaim","type":"error"},{"inputs":[],"name":"NotEnoughParticipation","type":"error"},{"inputs":[],"name":"TransferFailed","type":"error"},{"anonymous":false,"inputs":[{"indexed":true,"internalType":"uint256","name":"gameId","type":"uint256"},{"indexed":true,"internalType":"address","name":"bettor","type":"address"},{"indexed":false,"internalType":"enum TAOCasino.Side","name":"side","type":"uint8"},{"indexed":false,"internalType":"uint256","name":"amount","type":"uint256"},{"indexed":false,"internalType":"uint256","name":"newPoolTotal","type":"uint256"},{"indexed":false,"internalType":"address","name":"referrer","type":"address"}],"name":"BetPlaced","type":"event"},{"anonymous":false,"inputs":[{"indexed":true,"internalType":"uint256","name":"gameId","type":"uint256"},{"indexed":false,"internalType":"string","name":"reason","type":"string"}],"name":"GameCancelled","type":"event"},{"anonymous":false,"inputs":[{"indexed":true,"internalType":"uint256","name":"gameId","type":"uint256"},{"indexed":false,"internalType":"enum TAOCasino.GameType","name":"gameType","type":"uint8"},{"indexed":false,"internalType":"enum TAOCasino.GameSpeed","name":"gameSpeed","type":"uint8"},{"indexed":false,"internalType":"uint256","name":"startTime","type":"uint256"},{"indexed":false,"internalType":"uint256","name":"endTime","type":"uint256"}],"name":"GameCreated","type":"event"},{"anonymous":false,"inputs":[{"indexed":true,"internalType":"uint256","name":"gameId","type":"uint256"},{"indexed":false,"internalType":"enum TAOCasino.GameType","name":"gameType","type":"uint8"},{"indexed":false,"internalType":"enum TAOCasino.GameSpeed","name":"gameSpeed","type":"uint8"},{"indexed":false,"internalType":"enum TAOCasino.Side","name":"winningSide","type":"uint8"},{"indexed":false,"internalType":"uint256","name":"redPool","type":"uint256"},{"indexed":false,"internalType":"uint256","name":"bluePool","type":"uint256"},{"indexed":false,"internalType":"uint256","name":"redBettors","type":"uint256"},{"indexed":false,"internalType":"uint256","name":"blueBettors","type":"uint256"}],"name":"GameResolved","type":"event"},{"anonymous":false,"inputs":[{"indexed":true,"internalType":"address","name":"previousOwner","type":"address"},{"indexed":true,"internalType":"address","name":"newOwner","type":"address"}],"name":"OwnershipTransferred","type":"event"},{"anonymous":false,"inputs":[{"indexed":true,"internalType":"address","name":"user","type":"address"},{"indexed":false,"internalType":"bytes32","name":"codeHash","type":"bytes32"}],"name":"ReferralCodeCreated","type":"event"},{"anonymous":false,"inputs":[{"indexed":true,"internalType":"address","name":"referrer","type":"address"},{"indexed":true,"internalType":"address","name":"referee","type":"address"},{"indexed":false,"internalType":"uint256","name":"amount","type":"uint256"}],"name":"ReferralRewardEarned","type":"event"},{"anonymous":false,"inputs":[{"indexed":true,"internalType":"address","name":"referrer","type":"address"},{"indexed":false,"internalType":"uint256","name":"amount","type":"uint256"}],"name":"ReferralRewardsClaimed","type":"event"},{"anonymous":false,"inputs":[{"indexed":true,"internalType":"uint256","name":"gameId","type":"uint256"},{"indexed":true,"internalType":"address","name":"bettor","type":"address"},{"indexed":false,"internalType":"enum TAOCasino.Side","name":"side","type":"uint8"},{"indexed":false,"internalType":"uint256","name":"amount","type":"uint256"}],"name":"RefundClaimed","type":"event"},{"anonymous":false,"inputs":[{"indexed":true,"internalType":"uint256","name":"gameId","type":"uint256"},{"indexed":true,"internalType":"address","name":"bettor","type":"address"},{"indexed":false,"internalType":"enum TAOCasino.Side","name":"side","type":"uint8"},{"indexed":false,"internalType":"uint256","name":"betAmount","type":"uint256"},{"indexed":false,"internalType":"uint256","name":"winnings","type":"uint256"}],"name":"WinningsClaimed","type":"event"},{"inputs":[],"name":"FEE_DENOMINATOR","outputs":[{"internalType":"uint256","name":"","type":"uint256"}],"stateMutability":"view","type":"function"},{"inputs":[],"name":"MAX_LEADERBOARD_SIZE","outputs":[{"internalType":"uint256","name":"","type":"uint256"}],"stateMutability":"view","type":"function"},{"inputs":[],"name":"TOKEN_DECIMALS","outputs":[{"internalType":"uint256","name":"","type":"uint256"}],"stateMutability":"view","type":"function"},{"inputs":[],"name":"accumulatedFees","outputs":[{"internalType":"uint256","name":"","type":"uint256"}],"stateMutability":"view","type":"function"},{"inputs":[],"name":"breakDuration","outputs":[{"internalType":"uint256","name":"","type":"uint256"}],"stateMutability":"view","type":"function"},{"inputs":[{"internalType":"uint256","name":"_gameId","type":"uint256"},{"internalType":"address","name":"_user","type":"address"},{"internalType":"enum TAOCasino.Side","name":"_side","type":"uint8"},{"internalType":"uint256","name":"_amount","type":"uint256"}],"name":"calculatePotentialPayout","outputs":[{"internalType":"uint256","name":"","type":"uint256"}],"stateMutability":"view","type":"function"},{"inputs":[{"internalType":"uint256","name":"_gameId","type":"uint256"}],"name":"claimAllWinnings","outputs":[],"stateMutability":"nonpayable","type":"function"},{"inputs":[],"name":"claimReferralRewards","outputs":[],"stateMutability":"nonpayable","type":"function"},{"inputs":[{"internalType":"uint256","name":"_gameId","type":"uint256"},{"internalType":"enum TAOCasino.Side","name":"_side","type":"uint8"}],"name":"claimWinnings","outputs":[],"stateMutability":"nonpayable","type":"function"},{"inputs":[{"internalType":"string","name":"_code","type":"string"}],"name":"createReferralCode","outputs":[],"stateMutability":"nonpayable","type":"function"},{"inputs":[],"name":"currentClassicGameId","outputs":[{"internalType":"uint256","name":"","type":"uint256"}],"stateMutability":"view","type":"function"},{"inputs":[],"name":"currentUnderdogGameId","outputs":[{"internalType":"uint256","name":"","type":"uint256"}],"stateMutability":"view","type":"function"},{"inputs":[{"internalType":"uint256","name":"_gameId","type":"uint256"}],"name":"emergencyCancelGame","outputs":[],"stateMutability":"nonpayable","type":"function"},{"inputs":[],"name":"finalCallDuration","outputs":[{"internalType":"uint256","name":"","type":"uint256"}],"stateMutability":"view","type":"function"},{"inputs":[{"internalType":"uint256","name":"","type":"uint256"}],"name":"gameBalance","outputs":[{"internalType":"uint256","name":"","type":"uint256"}],"stateMutability":"view","type":"function"},{"inputs":[{"internalType":"uint256","name":"","type":"uint256"},{"internalType":"uint256","name":"","type":"uint256"}],"name":"gameBettors","outputs":[{"internalType":"address","name":"","type":"address"}],"stateMutability":"view","type":"function"},{"inputs":[{"internalType":"uint256","name":"","type":"uint256"}],"name":"games","outputs":[{"internalType":"uint256","name":"id","type":"uint256"},{"internalType":"enum TAOCasino.GameType","name":"gameType","type":"uint8"},{"internalType":"enum TAOCasino.GameSpeed","name":"gameSpeed","type":"uint8"},{"internalType":"enum TAOCasino.GamePhase","name":"phase","type":"uint8"},{"internalType":"uint256","name":"redPool","type":"uint256"},{"internalType":"uint256","name":"bluePool","type":"uint256"},{"internalType":"uint256","name":"redBettors","type":"uint256"},{"internalType":"uint256","name":"blueBettors","type":"uint256"},{"internalType":"uint256","name":"startTime","type":"uint256"},{"internalType":"uint256","name":"endTime","type":"uint256"},{"internalType":"uint256","name":"resolvedTime","type":"uint256"},{"internalType":"enum TAOCasino.Side","name":"winningSide","type":"uint8"},{"internalType":"uint256","name":"totalLiquidity","type":"uint256"},{"internalType":"bool","name":"hasWinner","type":"bool"}],"stateMutability":"view","type":"function"},{"inputs":[],"name":"getAccumulatedFees","outputs":[{"internalType":"uint256","name":"","type":"uint256"}],"stateMutability":"view","type":"function"},{"inputs":[],"name":"getCurrentClassicGame","outputs":[{"components":[{"internalType":"uint256","name":"id","type":"uint256"},{"internalType":"enum TAOCasino.GameType","name":"gameType","type":"uint8"},{"internalType":"enum TAOCasino.GameSpeed","name":"gameSpeed","type":"uint8"},{"internalType":"enum TAOCasino.GamePhase","name":"phase","type":"uint8"},{"internalType":"uint256","name":"redPool","type":"uint256"},{"internalType":"uint256","name":"bluePool","type":"uint256"},{"internalType":"uint256","name":"redBettors","type":"uint256"},{"internalType":"uint256","name":"blueBettors","type":"uint256"},{"internalType":"uint256","name":"startTime","type":"uint256"},{"internalType":"uint256","name":"endTime","type":"uint256"},{"internalType":"uint256","name":"resolvedTime","type":"uint256"},{"internalType":"enum TAOCasino.Side","name":"winningSide","type":"uint8"},{"internalType":"uint256","name":"totalLiquidity","type":"uint256"},{"internalType":"bool","name":"hasWinner","type":"bool"}],"internalType":"struct TAOCasino.Game","name":"","type":"tuple"}],"stateMutability":"view","type":"function"},{"inputs":[{"internalType":"uint256","name":"_gameId","type":"uint256"},{"internalType":"enum TAOCasino.Side","name":"_side","type":"uint8"}],"name":"getCurrentMultiplier","outputs":[{"internalType":"uint256","name":"","type":"uint256"}],"stateMutability":"view","type":"function"},{"inputs":[],"name":"getCurrentUnderdogGame","outputs":[{"components":[{"internalType":"uint256","name":"id","type":"uint256"},{"internalType":"enum TAOCasino.GameType","name":"gameType","type":"uint8"},{"internalType":"enum TAOCasino.GameSpeed","name":"gameSpeed","type":"uint8"},{"internalType":"enum TAOCasino.GamePhase","name":"phase","type":"uint8"},{"internalType":"uint256","name":"redPool","type":"uint256"},{"internalType":"uint256","name":"bluePool","type":"uint256"},{"internalType":"uint256","name":"redBettors","type":"uint256"},{"internalType":"uint256","name":"blueBettors","type":"uint256"},{"internalType":"uint256","name":"startTime","type":"uint256"},{"internalType":"uint256","name":"endTime","type":"uint256"},{"internalType":"uint256","name":"resolvedTime","type":"uint256"},{"internalType":"enum TAOCasino.Side","name":"winningSide","type":"uint8"},{"internalType":"uint256","name":"totalLiquidity","type":"uint256"},{"internalType":"bool","name":"hasWinner","type":"bool"}],"internalType":"struct TAOCasino.Game","name":"","type":"tuple"}],"stateMutability":"view","type":"function"},{"inputs":[{"internalType":"uint256","name":"_gameId","type":"uint256"}],"name":"getGame","outputs":[{"components":[{"internalType":"uint256","name":"id","type":"uint256"},{"internalType":"enum TAOCasino.GameType","name":"gameType","type":"uint8"},{"internalType":"enum TAOCasino.GameSpeed","name":"gameSpeed","type":"uint8"},{"internalType":"enum TAOCasino.GamePhase","name":"phase","type":"uint8"},{"internalType":"uint256","name":"redPool","type":"uint256"},{"internalType":"uint256","name":"bluePool","type":"uint256"},{"internalType":"uint256","name":"redBettors","type":"uint256"},{"internalType":"uint256","name":"blueBettors","type":"uint256"},{"internalType":"uint256","name":"startTime","type":"uint256"},{"internalType":"uint256","name":"endTime","type":"uint256"},{"internalType":"uint256","name":"resolvedTime","type":"uint256"},{"internalType":"enum TAOCasino.Side","name":"winningSide","type":"uint8"},{"internalType":"uint256","name":"totalLiquidity","type":"uint256"},{"internalType":"bool","name":"hasWinner","type":"bool"}],"internalType":"struct TAOCasino.Game","name":"","type":"tuple"}],"stateMutability":"view","type":"function"},{"inputs":[{"internalType":"uint256","name":"_gameId","type":"uint256"}],"name":"getGameBalance","outputs":[{"internalType":"uint256","name":"","type":"uint256"}],"stateMutability":"view","type":"function"},{"inputs":[{"internalType":"uint256","name":"_gameId","type":"uint256"}],"name":"getGameBettors","outputs":[{"internalType":"address[]","name":"","type":"address[]"}],"stateMutability":"view","type":"function"},{"inputs":[],"name":"getGameCount","outputs":[{"internalType":"uint256","name":"","type":"uint256"}],"stateMutability":"view","type":"function"},{"inputs":[],"name":"getLeaderboard","outputs":[{"internalType":"address[]","name":"","type":"address[]"}],"stateMutability":"view","type":"function"},{"inputs":[{"internalType":"uint256","name":"_limit","type":"uint256"}],"name":"getLeaderboardWithStats","outputs":[{"internalType":"address[]","name":"addresses","type":"address[]"},{"internalType":"uint256[]","name":"winnings","type":"uint256[]"},{"internalType":"uint256[]","name":"wins","type":"uint256[]"}],"stateMutability":"view","type":"function"},{"inputs":[{"internalType":"address","name":"_user","type":"address"}],"name":"getPendingReferralRewards","outputs":[{"internalType":"uint256","name":"","type":"uint256"}],"stateMutability":"view","type":"function"},{"inputs":[{"internalType":"address","name":"_user","type":"address"}],"name":"getReferralInfo","outputs":[{"components":[{"internalType":"address","name":"referrer","type":"address"},{"internalType":"uint256","name":"totalReferred","type":"uint256"},{"internalType":"uint256","name":"totalEarnings","type":"uint256"},{"internalType":"bool","name":"isActive","type":"bool"}],"internalType":"struct TAOCasino.ReferralInfo","name":"","type":"tuple"}],"stateMutability":"view","type":"function"},{"inputs":[{"internalType":"uint256","name":"_gameId","type":"uint256"}],"name":"getTimeRemaining","outputs":[{"internalType":"uint256","name":"","type":"uint256"}],"stateMutability":"view","type":"function"},{"inputs":[{"internalType":"uint256","name":"_gameId","type":"uint256"},{"internalType":"address","name":"_user","type":"address"}],"name":"getUserBets","outputs":[{"components":[{"components":[{"internalType":"uint256","name":"amount","type":"uint256"},{"internalType":"bool","name":"claimed","type":"bool"},{"internalType":"address","name":"referrer","type":"address"}],"internalType":"struct TAOCasino.SideBet","name":"redBet","type":"tuple"},{"components":[{"internalType":"uint256","name":"amount","type":"uint256"},{"internalType":"bool","name":"claimed","type":"bool"},{"internalType":"address","name":"referrer","type":"address"}],"internalType":"struct TAOCasino.SideBet","name":"blueBet","type":"tuple"}],"internalType":"struct TAOCasino.UserBets","name":"","type":"tuple"}],"stateMutability":"view","type":"function"},{"inputs":[{"internalType":"uint256","name":"_gameId","type":"uint256"},{"internalType":"address","name":"_user","type":"address"},{"internalType":"enum TAOCasino.Side","name":"_side","type":"uint8"}],"name":"getUserSideBet","outputs":[{"components":[{"internalType":"uint256","name":"amount","type":"uint256"},{"internalType":"bool","name":"claimed","type":"bool"},{"internalType":"address","name":"referrer","type":"address"}],"internalType":"struct TAOCasino.SideBet","name":"","type":"tuple"}],"stateMutability":"view","type":"function"},{"inputs":[{"internalType":"address","name":"_user","type":"address"}],"name":"getUserStats","outputs":[{"components":[{"internalType":"uint256","name":"totalBets","type":"uint256"},{"internalType":"uint256","name":"totalWins","type":"uint256"},{"internalType":"uint256","name":"totalWinnings","type":"uint256"},{"internalType":"uint256","name":"totalLosses","type":"uint256"},{"internalType":"uint256","name":"referralEarnings","type":"uint256"}],"internalType":"struct TAOCasino.UserStats","name":"","type":"tuple"}],"stateMutability":"view","type":"function"},{"inputs":[{"internalType":"uint256","name":"","type":"uint256"},{"internalType":"address","name":"","type":"address"}],"name":"hasAnyBet","outputs":[{"internalType":"bool","name":"","type":"bool"}],"stateMutability":"view","type":"function"},{"inputs":[{"internalType":"uint256","name":"_gameId","type":"uint256"}],"name":"isInFinalCall","outputs":[{"internalType":"bool","name":"","type":"bool"}],"stateMutability":"view","type":"function"},{"inputs":[{"internalType":"uint256","name":"_gameId","type":"uint256"},{"internalType":"enum TAOCasino.Side","name":"_side","type":"uint8"}],"name":"isUnderdogSide","outputs":[{"internalType":"bool","name":"","type":"bool"}],"stateMutability":"view","type":"function"},{"inputs":[{"internalType":"uint256","name":"","type":"uint256"}],"name":"leaderboard","outputs":[{"internalType":"address","name":"","type":"address"}],"stateMutability":"view","type":"function"},{"inputs":[],"name":"minPoolSize","outputs":[{"internalType":"uint256","name":"","type":"uint256"}],"stateMutability":"view","type":"function"},{"inputs":[],"name":"minTotalBets","outputs":[{"internalType":"uint256","name":"","type":"uint256"}],"stateMutability":"view","type":"function"},{"inputs":[],"name":"nextGameId","outputs":[{"internalType":"uint256","name":"","type":"uint256"}],"stateMutability":"view","type":"function"},{"inputs":[],"name":"owner","outputs":[{"internalType":"address","name":"","type":"address"}],"stateMutability":"view","type":"function"},{"inputs":[{"internalType":"address","name":"","type":"address"}],"name":"pendingReferralRewards","outputs":[{"internalType":"uint256","name":"","type":"uint256"}],"stateMutability":"view","type":"function"},{"inputs":[{"internalType":"uint256","name":"_gameId","type":"uint256"},{"internalType":"enum TAOCasino.Side","name":"_side","type":"uint8"},{"internalType":"string","name":"_referralCode","type":"string"}],"name":"placeBet","outputs":[],"stateMutability":"payable","type":"function"},{"inputs":[],"name":"platformFee","outputs":[{"internalType":"uint256","name":"","type":"uint256"}],"stateMutability":"view","type":"function"},{"inputs":[],"name":"rapidBettingDuration","outputs":[{"internalType":"uint256","name":"","type":"uint256"}],"stateMutability":"view","type":"function"},{"inputs":[],"name":"rapidBreakDuration","outputs":[{"internalType":"uint256","name":"","type":"uint256"}],"stateMutability":"view","type":"function"},{"inputs":[],"name":"rapidFinalCallDuration","outputs":[{"internalType":"uint256","name":"","type":"uint256"}],"stateMutability":"view","type":"function"},{"inputs":[],"name":"rapidMinPoolSize","outputs":[{"internalType":"uint256","name":"","type":"uint256"}],"stateMutability":"view","type":"function"},{"inputs":[{"internalType":"bytes32","name":"","type":"bytes32"}],"name":"referralCodes","outputs":[{"internalType":"address","name":"","type":"address"}],"stateMutability":"view","type":"function"},{"inputs":[],"name":"referralShareBps","outputs":[{"internalType":"uint256","name":"","type":"uint256"}],"stateMutability":"view","type":"function"},{"inputs":[{"internalType":"address","name":"","type":"address"}],"name":"referrals","outputs":[{"internalType":"address","name":"referrer","type":"address"},{"internalType":"uint256","name":"totalReferred","type":"uint256"},{"internalType":"uint256","name":"totalEarnings","type":"uint256"},{"internalType":"bool","name":"isActive","type":"bool"}],"stateMutability":"view","type":"function"},{"inputs":[],"name":"regularBettingDuration","outputs":[{"internalType":"uint256","name":"","type":"uint256"}],"stateMutability":"view","type":"function"},{"inputs":[],"name":"renounceOwnership","outputs":[],"stateMutability":"nonpayable","type":"function"},{"inputs":[{"internalType":"uint256","name":"_gameId","type":"uint256"}],"name":"resolveGame","outputs":[],"stateMutability":"nonpayable","type":"function"},{"inputs":[{"internalType":"uint256","name":"_minBets","type":"uint256"},{"internalType":"uint256","name":"_minPool","type":"uint256"},{"internalType":"uint256","name":"_rapidMinPool","type":"uint256"}],"name":"setMinParticipation","outputs":[],"stateMutability":"nonpayable","type":"function"},{"inputs":[{"internalType":"uint256","name":"_fee","type":"uint256"}],"name":"setPlatformFee","outputs":[],"stateMutability":"nonpayable","type":"function"},{"inputs":[{"internalType":"uint256","name":"_duration","type":"uint256"}],"name":"setRapidBettingDuration","outputs":[],"stateMutability":"nonpayable","type":"function"},{"inputs":[{"internalType":"uint256","name":"_share","type":"uint256"}],"name":"setReferralShareBps","outputs":[],"stateMutability":"nonpayable","type":"function"},{"inputs":[{"internalType":"uint256","name":"_duration","type":"uint256"}],"name":"setRegularBettingDuration","outputs":[],"stateMutability":"nonpayable","type":"function"},{"inputs":[{"internalType":"uint256","name":"_bonus","type":"uint256"},{"internalType":"uint256","name":"_threshold","type":"uint256"}],"name":"setUnderdogBonus","outputs":[],"stateMutability":"nonpayable","type":"function"},{"inputs":[{"internalType":"uint256","name":"","type":"uint256"},{"internalType":"address","name":"","type":"address"},{"internalType":"enum TAOCasino.Side","name":"","type":"uint8"}],"name":"sideBets","outputs":[{"internalType":"uint256","name":"amount","type":"uint256"},{"internalType":"bool","name":"claimed","type":"bool"},{"internalType":"address","name":"referrer","type":"address"}],"stateMutability":"view","type":"function"},{"inputs":[{"internalType":"enum TAOCasino.GameType","name":"_gameType","type":"uint8"},{"internalType":"enum TAOCasino.GameSpeed","name":"_gameSpeed","type":"uint8"}],"name":"startNewGame","outputs":[],"stateMutability":"nonpayable","type":"function"},{"inputs":[{"internalType":"address","name":"newOwner","type":"address"}],"name":"transferOwnership","outputs":[],"stateMutability":"nonpayable","type":"function"},{"inputs":[],"name":"underdogBonusBps","outputs":[{"internalType":"uint256","name":"","type":"uint256"}],"stateMutability":"view","type":"function"},{"inputs":[],"name":"underdogThreshold","outputs":[{"internalType":"uint256","name":"","type":"uint256"}],"stateMutability":"view","type":"function"},{"inputs":[{"internalType":"address","name":"","type":"address"}],"name":"userReferralCode","outputs":[{"internalType":"bytes32","name":"","type":"bytes32"}],"stateMutability":"view","type":"function"},{"inputs":[{"internalType":"address","name":"","type":"address"}],"name":"userStats","outputs":[{"internalType":"uint256","name":"totalBets","type":"uint256"},{"internalType":"uint256","name":"totalWins","type":"uint256"},{"internalType":"uint256","name":"totalWinnings","type":"uint256"},{"internalType":"uint256","name":"totalLosses","type":"uint256"},{"internalType":"uint256","name":"referralEarnings","type":"uint256"}],"stateMutability":"view","type":"function"},{"inputs":[{"internalType":"string","name":"_code","type":"string"}],"name":"validateReferralCode","outputs":[{"internalType":"address","name":"","type":"address"}],"stateMutability":"view","type":"function"},{"inputs":[],"name":"withdrawFees","outputs":[],"stateMutability":"nonpayable","type":"function"},{"stateMutability":"payable","type":"receive"}],"evm":{"bytecode":{"linkReferences":{},"object":"608080604052346100c257600160008181558154336001600160a01b0319821681179093556001600160a01b0316907f8be0079c531659141344cd1fd0a4f28419497f9722a3daafe3b4186f6b6457e09080a3600160025560966003556103e86004556101f4600555611b5860065561189c60085561025860095561038480600a5560b4600b55600c5561012c600d556002600e55670de0b6b3a7640000600f556706f05b59d3b20000601055600060115560006012556133f890816100c88239f35b600080fdfe608080604052600436101561001d575b50361561001b57600080fd5b005b600090813560e01c90816297dcc6146121aa575080630293399c1461217b57806305eaab4b146120bd578063075aa97014611f81578063113965c414611ed5578063117a5b9014611de157806312e8e2c314611d7857806319be5ad01461142e57806321874ae214611cce57806326232a2e14611cb0578063340cd9bb14611c925780633469336d1461168657806334dee60b14611c745780633a1af70114611c565780633e0183d114611aa05780633fa2762514611a82578063476343ee14611a2557806347c9bc2d14611a075780634e43603a1461195257806351bcefa114611909578063587f5ed7146118cf5780635b7f415c146118ed5780635df45a37146118cf57806360d6a941146118b1578063618c506d1461187857806364be7a011461185a57806367c15f6a1461184057806369f2372d1461177f5780636b21bed6146117405780636c3c1a45146117215780636d763a6e146116bf5780636e8ba9f614611686578063715018a61461163b57806375c14dd81461161d5780637b51ac7a146115ff5780637e644547146115cc57806385addbab146115895780638a65d874146115235780638cd42991146115045780638da5cb5b146114db57806396ee4688146114bd5780639ca423b3146114585780639dad1da51461142e578063a2f77bcc146113d7578063a3d961eb146112c3578063a5a99693146112a5578063a5c44a651461115b578063aa2168451461110d578063b135bbb0146110ef578063b7a5a5b6146110cf578063bcbdecb714611049578063bf3683991461101e578063c62d359c14610aa7578063c6fd03df14610a89578063ce1ea73214610a3e578063d07e995b146109ce578063d1153bc3146106da578063d73792a9146106bd578063d824e03c1461066d578063db87714214610651578063e0ca49ae146105e8578063e87c0ee6146105a8578063e978f04514610548578063ec1b3ab514610521578063ec844654146104df578063f18cdb65146104bb578063f2fde38b14610408578063f5c045a6146103ea5763fa744dd30361000f57346103e75760403660031901126103e75760c0906103e5600435916103c66040610344612295565b928151936103518561250e565b610359612ff9565b8552610363612ff9565b602080960152868252601485528282209060018060a01b0316908160005285528260002082805285528282209682526014855282822090600052845281600020600182528452206103bf604051956103ba8761250e565b613018565b8552613018565b9083019081526103da60405180945161242d565b51606083019061242d565bf35b80fd5b50346103e757806003193601126103e7576020601154604051908152f35b50346103e75760203660031901126103e75761042261227f565b61042a612451565b6001600160a01b0390811690811561046757600180546001600160a01b031981168417909155166000805160206133a3833981519152600080a380f35b60405162461bcd60e51b815260206004820152602660248201527f4f776e61626c653a206e6577206f776e657220697320746865207a65726f206160448201526564647265737360d01b6064820152608490fd5b50346103e75760206104d56104cf366122d8565b906132f4565b6040519015158152f35b50346103e75760803660031901126103e7576104f9612295565b906044359060028210156103e757602061051960643584866004356130ab565b604051908152f35b50346103e757610541610533366122d8565b9061053c6125e9565b61290e565b6001815580f35b50346103e75761059b604060609261055f366123fa565b91610568612ff9565b50835260146020528383209060018060a01b0316600052602052826000209061059081612252565b825260205220613018565b6103e5604051809261242d565b50346103e757806003193601126103e7576002546000198101919082116105d457602082604051908152f35b634e487b7160e01b81526011600452602490fd5b50346103e75760609060406105fc366123fa565b9093918252601460205282822060018060a01b03809516600052602052826000209061062781612252565b825260205220906001825492015460405192835260ff81161515602084015260081c166040820152f35b50346103e757806003193601126103e757602060405160648152f35b50346103e75760203660031901126103e75760043561068a612451565b61012c811080156106b2575b6106a05760095580f35b604051630a68a0ed60e01b8152600490fd5b50610e108111610696565b50346103e757806003193601126103e75760206040516127108152f35b50346103e75760403660031901126103e757600260043510156103e757600260243510156103e75761070d600435612252565b6004356109c6576011545b8061096d575b5060025461072b8161263f565b600255610739602435612252565b6024356109625761074d6008545b42612664565b604051610759816124df565b828152610767600435612252565b600435602082015261077a602435612252565b6024356040820152600160608201528360808201528360a08201528360c08201528360e08201524261010082015281610120820152836101408201528361016082015283610180820152836101a0820152828452601360205260408420908051825560208101516107ea81612252565b6107f381612252565b600183015460408301519061080782612252565b61081082612252565b6060840151600581101561094e577f5bffe7e5c8098c6e3688eb38e9850f561c9f5cbb9e256d591242a8a92ee7af2696946108f8946080979461ff00600b9560ff62ff00006101a09760101b1694169062ffffff1916179160081b161717600185015586810151600285015560a0810151600385015560c0810151600485015560e081015160058501556101008101516006850155610120810151600785015561014081015160088501556108d66101608201516108cd81612252565b6009860161267d565b610180810151600a8501550151151591019060ff801983541691151516179055565b610903600435612252565b60043561094557836011555b6040519061091e600435612252565b600435825261092e602435612252565b60243560208301524260408301526060820152a280f35b8360125561090f565b634e487b7160e01b89526021600452602489fd5b61074d600954610747565b8152601360205260ff600160408320015460101c1660058110156109b257600181146109a0576002146109a0573861071e565b604051632127c5b560e01b8152600490fd5b634e487b7160e01b82526021600452602482fd5b601254610718565b50346103e75760203660031901126103e7576004356109eb612451565b61138881116109fa5760045580f35b606460405162461bcd60e51b815260206004820152602060248201527f526566657272616c2073686172652063616e6e6f7420657863656564203530256044820152fd5b50346103e757610a4d36612237565b919081526015602052604081209081548310156103e7576020610a7084846123e2565b905460405160039290921b1c6001600160a01b03168152f35b50346103e757806003193601126103e7576020600f54604051908152f35b5060603660031901126103e75760043590602435600281101561101a576044356001600160401b03811161101657610ae39036906004016122ab565b9390610aed6125e9565b8115801561100a575b610ff8573415610fe65781845260209060138252604085209060ff600183015460101c166005811015610fd257600103610fc0576007820154421015610fae5783865260148352604086203360005283526040600020610b5586612252565b85875283526040862060035491600284019384549360038201948554610b7b8183612664565b610efb575b505099610b99918a9b6127109b999a9b93849134612695565b0491610ba583346126c8565b93600187019160018060a01b039687845460081c1682151580610ef3575b15610e6d57508b9594939291610bd891612567565b9b878d169182151596600a96604094610c07938a610c759b610e63575b610de0575b505090505b600754612664565b6007558d815260168c5220610c1d868254612664565b9055865496610c2f8815983490612664565b9055805460ff198082168355968c169b8c610db9575b505050610c518c612252565b8b15958615610d9957610c65348a54612664565b8955610d84575b01918254612664565b9055868952601785526040892033600052855260ff6040600020541615610d15575b50338852601c845260408820610cad815461263f565b9055610cb887612252565b15610d0c575054905b60405194610cce81612252565b85523490850152604084015260608301527f6c8573037a11bfad9b3a07afcfdd9a9790c4748ea22c9348a596f466194d59b060803393a36001815580f35b90505490610cc1565b868952601785526040892033600052855260016040600020918254161790558588526015845260408820805490600160401b821015610d6e5781610d61916001610d68940181556123e2565b33916126d5565b38610c97565b634e487b7160e01b600052604160045260246000fd5b60048101610d92815461263f565b9055610c6c565b610da4348954612664565b885515610c6c5760058101610d92815461263f565b6001600160a81b031990911660089190911b610100600160a81b0316179055388080610c45565b610e0760008051602061338383398151915291610dff60045486612695565b0480946126c8565b93828752601b8152878720610e1d858254612664565b905582875260188152600188882001610e36815461263f565b905582875260188152600288882001610e50858254612664565b905587519384523393a38d903880610bfa565b5033821415610bf5565b9c905060409150610c078c610c75978f600a98979681610e91575b50509050610bff565b610eb060008051602061338383398151915291610dff60045486612695565b93828752601b8152878720610ec6858254612664565b905582875260188152600288882001610ee0858254612664565b905587519384523393a38d908f38610e88565b508015610bc3565b610f1390610f088c612252565b8b610fa75782612664565b6127109182810290808204841490151715610f935790610f32916126a8565b6006548203918211610f7f5791610b9993918c9d939c9a9b9c10610f5e575b919b9a9998819350610b80565b60055480821115610f7757610f72916126c8565b610f51565b505088610f51565b634e487b7160e01b8c52601160045260248cfd5b634e487b7160e01b8d52601160045260248dfd5b8092612664565b6040516356c7983160e01b8152600490fd5b60405163976a06eb60e01b8152600490fd5b634e487b7160e01b87526021600452602487fd5b604051639de3d44160e01b8152600490fd5b6040516309b3c62760e21b8152600490fd5b50600254821015610af6565b8280fd5b5080fd5b50346103e75760203660031901126103e75760043590601d548210156103e7576020610a70836123b1565b50346103e75760208060031936011261101a576004358252601581526040822091604051809384918482549182815201918452848420935b858282106110b05750505061109892500383612544565b6110ac6040519282849384528301906121c6565b0390f35b85546001600160a01b0316845260019586019588955093019201611081565b50346103e75760203660031901126103e7576110ec6004356126f3565b80f35b50346103e757806003193601126103e7576020600254604051908152f35b50346103e75760203660031901126103e757600435906001600160401b0382116103e757602061114961114336600486016122ab565b90612567565b6040516001600160a01b039091168152f35b50346103e757602090816003193601126103e75760043580825260148352604082203383528352604082208280528352604082209281835260148152604083203384528152604083209060018452526040822092805415159081611295575b5061123a575b828293541515908161122a575b506111d55750f35b303b15611227576040519063ec1b3ab560e01b8252600482015260016024820152818160448183305af1801561121c5761120c5750f35b611215906124fb565b6103e75780f35b6040513d84823e3d90fd5b50fd5b60ff9150600101541615386111cd565b303b1561101a576040519263ec1b3ab560e01b8452816004850152826024850152828460448183305af1801561128a57611276575b92506111c0565b919092611282906124fb565b90829061126f565b6040513d85823e3d90fd5b60ff9150600101541615386111ba565b50346103e757806003193601126103e7576020600954604051908152f35b50346103e757806003193601126103e7576112dc612f91565b5060125480156113c657816040916110ac935260136020522060ff600b60405192611306846124df565b8054845261134583600183015481811661131f81612252565b6020880152818160081c1661133381612252565b604088015260101c1660608601612671565b60028101546080850152600381015460a0850152600481015460c0850152600581015460e08501526006810154610100850152600781015461012085015260088101546101408501528260098201541661139e81612252565b610160850152600a81015461018085015201541615156101a0820152604051918291826122f7565b6040516295b66160e61b8152600490fd5b50346103e75760203660031901126103e7576004356113f4612f91565b5080158015611422575b610ff857816040916110ac935260136020522060ff600b60405192611306846124df565b506002548110156113fe565b50346103e75760203660031901126103e75760406020916004358152601683522054604051908152f35b50346103e75760203660031901126103e7576080906001600160a01b03906040908261148261227f565b168152601860205220908154169060018101549060ff6003600283015492015416916040519384526020840152604083015215156060820152f35b50346103e757806003193601126103e7576020600a54604051908152f35b50346103e757806003193601126103e7576001546040516001600160a01b039091168152602090f35b50346103e75760203660031901126103e75760206105196004356131f7565b50346103e75760203660031901126103e75760a0906040906001600160a01b0361154b61227f565b168152601c60205220805490600181015490600281015460046003830154920154926040519485526020850152604084015260608301526080820152f35b50346103e757806003193601126103e7576115a2612f91565b5060115480156113c657816040916110ac935260136020522060ff600b60405192611306846124df565b50346103e75760203660031901126103e757602090600435815260198252604060018060a01b0391205416604051908152f35b50346103e757806003193601126103e7576020600b54604051908152f35b50346103e757806003193601126103e7576020600854604051908152f35b50346103e757806003193601126103e757611654612451565b600180546001600160a01b0319811690915581906001600160a01b03166000805160206133a38339815191528280a380f35b50346103e75760203660031901126103e7576020906040906001600160a01b036116ae61227f565b168152601b83522054604051908152f35b50346103e757806003193601126103e757604051809182601d54808452602080940190601d8452848420935b858282106117025750505061109892500383612544565b85546001600160a01b03168452600195860195889550930192016116eb565b50346103e75760203660031901126103e75760206104d560043561325b565b50346103e75760203660031901126103e75760043561175d612451565b61070881108015611773575b6106a05760085580f35b50620151808111611769565b50346103e75760203660031901126103e75760043561179c612451565b80158015611834575b610ff857808252601360205260ff600160408420015460101c1660058110156118205760041461180e576040516110ec916117df8261250e565b601f82527f456d657267656e63792063616e63656c6c6174696f6e206279206f776e6572006020830152612c01565b6040516341d5c2cf60e01b8152600490fd5b634e487b7160e01b83526021600452602483fd5b506002548110156117a5565b50346103e7576020610519611854366122d8565b90613179565b50346103e757806003193601126103e7576020601054604051908152f35b50346103e75760203660031901126103e7576020906040906001600160a01b036118a061227f565b168152601a83522054604051908152f35b50346103e757806003193601126103e7576020600554604051908152f35b50346103e757806003193601126103e7576020600754604051908152f35b50346103e757806003193601126103e757602060405160128152f35b50346103e75760403660031901126103e75760ff604060209261192a612295565b6004358252601785528282206001600160a01b03909116825284522054604051911615158152f35b50346103e75760203660031901126103e757604060a09161197161227f565b816080845161197f816124c4565b82815282602082015282868201528260608201520152600180851b03168152601c602052206040516119b0816124c4565b81549182825260018101546020830190815260028201549060408401918252608060046003850154946060870195865201549401938452604051948552516020850152516040840152516060830152516080820152f35b50346103e757806003193601126103e7576020600454604051908152f35b50346103e757806003193601126103e757611a3e612451565b8060075480611a4a5750f35b818080928160075560018060a01b03600154165af1611a676125aa565b5015611a705780f35b6040516312171d8360e31b8152600490fd5b50346103e757806003193601126103e7576020600e54604051908152f35b50346103e75760208060031936011261101a576004356001600160401b03811161101657611ad29036906004016122ab565b611af48360405183819483830196873781018783820152038084520182612544565b5190208083526019825260408320549091906001600160a01b03908116611c1c57338452601a82526040842054611be15790611bd57f84d410093008674eba76b70ab072a4f33a5858f8aebca4c89a70447eccf6ffda92848652601983526003604087209160018060a01b0319923384825416179055338852601a855286604089205560405192611b84846124a9565b88845285840189815260408501918a8352606086019360018552338c526018895260408c209651169086541617855551600185015551600284015551151591019060ff801983541691151516179055565b6040519283523392a280f35b60405162461bcd60e51b8152600481018390526013602482015272416c72656164792068617665206120636f646560681b6044820152606490fd5b60405162461bcd60e51b815260048101839052601260248201527121b7b2329030b63932b0b23c903a30b5b2b760711b6044820152606490fd5b50346103e757806003193601126103e7576020601254604051908152f35b50346103e757806003193601126103e7576020600c54604051908152f35b50346103e757806003193601126103e7576020600d54604051908152f35b50346103e757806003193601126103e7576020600354604051908152f35b50346103e75760203660031901126103e7576080906040611ced61227f565b918060608351611cfc816124a9565b8281528260208201528285820152015260018060a01b0380931681526018602052209060405190611d2c826124a9565b82541691828252600181015460208301908152606060ff600360028501549460408701958652015416930192151583526040519384525160208401525160408301525115156060820152f35b50346103e75760203660031901126103e757600435611d95612451565b6103e88111611da45760035580f35b60405162461bcd60e51b81526020600482015260156024820152744665652063616e6e6f74206578636565642031302560581b6044820152606490fd5b50346103e75760203660031901126103e757600435815260136020526040902080549060018101549060ff8216918060081c60ff169060028301546003840154600485015460058601549060068701549260078801549460088901549660098a015460ff1698600a8b01549a600b015460ff169b6040519d8e528d611e6582612252565b60200152611e7281612252565b60408d015260608c019060101c60ff1690611e8c91612272565b60808b015260a08a015260c089015260e0880152610100870152610120860152610140850152611ebb81612252565b61016084015261018083015215156101a08201526101c090f35b50346103e757611ee436612237565b90611eed612451565b6103e88111611f42576123288211611f085760055560065580f35b60405162461bcd60e51b81526020600482015260126024820152710a8d0e4cae6d0ded8c840e8dede40d0d2ced60731b6044820152606490fd5b60405162461bcd60e51b8152602060048201526017602482015276426f6e75732063616e6e6f74206578636565642031302560481b6044820152606490fd5b50346103e757602090816003193601126103e757600435601d548082106000146120b55750905b611fb18261304e565b91611fbf6040519384612544565b808352601f19611fce8261304e565b013685850137611fdd81613065565b90611fe781613065565b92805b82811061202d57612012866110ac8761201f8b896040519687966060885260608801906121c6565b9186830390870152612203565b908382036040850152612203565b8061203a6120b0926123b1565b90546003916001600160a01b039190831b1c8116612058848b613097565b5280612063846123b1565b905490841b1c168552601c91828b526002604087200154612084858a613097565b5261208e846123b1565b9054911b1c168452885260016040842001546120aa8288613097565b5261263f565b611fea565b905090611fa8565b50346103e757806003193601126103e7576120d66125e9565b338152601b6020526040812054801561214057338252601b6020528160408120558180808084335af16121076125aa565b5015611a70576040519081527f98741ecf35c5d20a8ed68dbd8540500684864a6c98c2a41a5844d0b3a2357d4360203392a26001815580f35b60405162461bcd60e51b81526020600482015260136024820152724e6f207265776172647320746f20636c61696d60681b6044820152606490fd5b50346103e75760603660031901126103e757612195612451565b600435600e55602435600f5560443560105580f35b90503461101a578160031936011261101a576020906006548152f35b90815180825260208080930193019160005b8281106121e6575050505090565b83516001600160a01b0316855293810193928101926001016121d8565b90815180825260208080930193019160005b828110612223575050505090565b835185529381019392810192600101612215565b604090600319011261224d576004359060243590565b600080fd5b6002111561225c57565b634e487b7160e01b600052602160045260246000fd5b90600582101561225c5752565b600435906001600160a01b038216820361224d57565b602435906001600160a01b038216820361224d57565b9181601f8401121561224d578235916001600160401b03831161224d576020838186019501011161224d57565b604090600319011261224d5760043590602435600281101561224d5790565b8151815260208201516101c0820193929061231181612252565b6020830152604081015161232481612252565b604083015261233b60608201516060840190612272565b6080810151608083015260a081015160a083015260c081015160c083015260e081015160e0830152610100808201519083015261012080820151908301526101408082015190830152610160808201519061239582612252565b83015261018080820151908301526101a0809101511515910152565b601d548110156123cc57601d60005260206000200190600090565b634e487b7160e01b600052603260045260246000fd5b80548210156123cc5760005260206000200190600090565b606090600319011261224d57600435906024356001600160a01b038116810361224d5790604435600281101561224d5790565b805182526020808201511515908301526040908101516001600160a01b0316910152565b6001546001600160a01b0316330361246557565b606460405162461bcd60e51b815260206004820152602060248201527f4f776e61626c653a2063616c6c6572206973206e6f7420746865206f776e65726044820152fd5b608081019081106001600160401b03821117610d6e57604052565b60a081019081106001600160401b03821117610d6e57604052565b6101c081019081106001600160401b03821117610d6e57604052565b6001600160401b038111610d6e57604052565b604081019081106001600160401b03821117610d6e57604052565b606081019081106001600160401b03821117610d6e57604052565b601f909101601f19168101906001600160401b03821190821017610d6e57604052565b9061258c60206040518381948383019687378101600083820152038084520182612544565b5190206000908152601960205260409020546001600160a01b031690565b3d156125e4573d906001600160401b038211610d6e57604051916125d8601f8201601f191660200184612544565b82523d6000602084013e565b606090565b6002600054146125fa576002600055565b60405162461bcd60e51b815260206004820152601f60248201527f5265656e7472616e637947756172643a207265656e7472616e742063616c6c006044820152606490fd5b600019811461264e5760010190565b634e487b7160e01b600052601160045260246000fd5b9190820180921161264e57565b600582101561225c5752565b9061268781612252565b60ff80198354169116179055565b8181029291811591840414171561264e57565b81156126b2570490565b634e487b7160e01b600052601260045260246000fd5b9190820391821161264e57565b919082549060031b9160018060a01b03809116831b921b1916179055565b80158015612902575b610ff8576000908082526013602052604091828120906001918281019283549260ff8460101c1660058110156109b25782036128f157600783015442106128e05760048301918254936127556005820195865490612664565b9260028201968754948460ff6127716003870198895490612664565b9360081c1661277f81612252565b036128d757601054905b600e54119182156128cd575b5050612888579860ff8060e0999897969594938c7f8ab79f4c0e431955cd8b26254237e48bd01ee49391716594c2ee0ec505aa4d189c9d50828b54166127da81612252565b61287157895487541161286a575b945b6127f7866009840161267d565b600b82019083198254161790558954906203000062ff000019831617809b55600842910155169760081c1695549254935494549581519761283781612252565b885261284281612252565b602088015261285082612252565b8601526060850152608084015260a083015260c0820152a2565b50846127e8565b8954875410612881575b946127ea565b508461287b565b50505050505050506128cb91519061289f8261250e565b601a82527924b739bab33334b1b4b2b73a103830b93a34b1b4b830ba34b7b760311b6020830152612c01565b565b1090503880612795565b600f5490612789565b865163658aead360e01b8152600490fd5b86516341d5c2cf60e01b8152600490fd5b506002548110156126fc565b80158015612bf5575b610ff85760008181526020601381526040908183209260148252828120338252825282812061294587612252565b8682528252828120908154948515612be4576001908184019687549060ff91828116612bd35782600b850154161580612bb8575b612b49575050808383015460101c166005811015612b355760038114159081612b29575b50612b185760098201818154166129b381612252565b6129bc8c612252565b8b03612aeb5754166129cd81612252565b612ae257600201545b835490670de0b6b3a76400009182810290808204841490151715612ace57612a0488949392612a14926126a8565b8a86526016885284862054612695565b04968160ff1982541617905586612a9e575b91600292338252601c865282822001612a3f815461263f565b9055338152601c85522001612a55858254612664565b9055612a6033612d2c565b5490825195612a6e81612252565b86528501528301527fd6a2a5fa33ed09b7e0ad44c465d1d7cc1ebac5fe4f8e9c6625c55a874855db5f60603393a3565b90508180808089335af1612ab06125aa565b5015612abd578490612a26565b84516312171d8360e31b8152600490fd5b634e487b7160e01b85526011600452602485fd5b600301546129d6565b5050509094915060039650601c93955060ff19825416179055338352522001612b14815461263f565b9055565b8651636082930560e11b8152600490fd5b6004915014153861299d565b634e487b7160e01b85526021600452602485fd5b925096979394505060ff191617905580808085335af1612b676125aa565b5015612ba7579082917f96be94f3cb4521868c06461d3a4197839df4d896c7fb4362fc0e3be356a11c12935195612b9d81612252565b86528501523393a3565b82516312171d8360e31b8152600490fd5b50828585015460101c166005811015610fd257600414612979565b8851630c8d9eab60e31b8152600490fd5b8451632f42cbdd60e01b8152600490fd5b50600254811015612917565b906000828152602091601383526040918281206016855283822054612c296003548092612695565b612710918203918211612d1857600b9291612c43916126a8565b87845260168752858420612c58828254612664565b90556007549080821015612d05575b5050612c7c6002820154600383015490612664565b600a820155600181016204000062ff0000198254161790550160ff1981541690558251938085528251928382870152825b848110612cf25750505092817f0f023b047be6c305859504186f8b03ee5a634f9ab472ff386d3b1de9387c083e948483959484010152601f80199101168101030190a2565b8181018301518782018701528201612cad565b612d0e916126c8565b6007553880612c67565b634e487b7160e01b84526011600452602484fd5b9060018060a01b039182811692600092848452601c92602090848252600290604090828289200154908899898a91601d54925b838110612f5e575b505015612e7c575b505050965b8015801580612e19575b15612e0e57600019820191808311612dfa57612dcf612dd488612de093612da4876123b1565b93905491612db1816123b1565b9690549660039786612dc28d6123b1565b9290938b1b1c16916126d5565b6123b1565b9390941b1c16916126d5565b15612d74575b634e487b7160e01b87526011600452602487fd5b634e487b7160e01b89526011600452602489fd5b505050509350505050565b5085612e24836123b1565b919054600392831b1c168952878552838a8a200154906000198401848111612e685790612e5189926123b1565b9054911b1c168952878552838a8a20015410612d7e565b634e487b7160e01b8b52601160045260248bfd5b92995090916064811015612ee85750601d54909150600160401b811015612ed45790612eb1826001612eb79401601d556123b1565b906126d5565b601d546000198101908111612de657908491975b90913880612d6f565b634e487b7160e01b88526041600452602488fd5b60001992818401918211612f4a5787612f00836123b1565b90549060031b1c168a52888652848b8b20015410600014612f3e5790612eb1612f28926123b1565b601d54908101908111612de65790849197612ecb565b50505050509350505050565b634e487b7160e01b8a52601160045260248afd5b818b612f69836123b1565b90549060031b1c1614612f8457612f7f9061263f565b612d5f565b9c50505060013880612d67565b60405190612f9e826124df565b816101a06000918281528260208201528260408201528260608201528260808201528260a08201528260c08201528260e082015282610100820152826101208201528261014082015282610160820152826101808201520152565b6040519061300682612529565b60006040838281528260208201520152565b9060405161302581612529565b825481526001929092015460ff81161515602084015260081c6001600160a01b03166040830152565b6001600160401b038111610d6e5760051b60200190565b9061306f8261304e565b61307c6040519182612544565b828152809261308d601f199161304e565b0190602036910137565b80518210156123cc5760209160051b010190565b90918115801561316d575b6131645761314c61315292600a613144613157976000938452601360205260408420976014602052604085209060018060a01b03168552602052604084206130fd87612252565b868552602052613111816040862054612664565b9561312b61271061312460035485612695565b04836126c8565b9461313582612252565b5061315a576002880154612664565b950154612664565b90612695565b6126a8565b90565b6003880154612664565b50505050600090565b506002548210156130b6565b9190821580156131eb575b6131e3576000928352601360205260408320906131a081612252565b6131d8576002810154905b81156131d457600a015461271090818102918183041490151715612d18576131579293506126a8565b5050565b6003810154906131ab565b506127109150565b50600254831015613184565b8015801561324f575b61324957600090815260136020526040812060ff600182015460101c1660058110156118205760010361324557600701548042101561324557613157915042906126c8565b5090565b50600090565b50600254811015613200565b801580156132e8575b61324957600090815260136020526040812090600182015460ff8160101c166005811015611820576001036132e2579060ff60019260081c16906132a782612252565b50036132d4576132c06007600b54925b015491826126c8565b42101590816132cd575090565b9050421090565b6132c06007600a54926132b7565b50905090565b50600254811015613264565b6000908152601360205260408120600360028201549101546133168183612664565b93841561337a5761332681612252565b6133725750915b612710928381029080820485149015171561335e579061334c916126a8565b9060065483039283116105d457501090565b634e487b7160e01b83526011600452602483fd5b90509161332d565b50505090509056fee05841e5a327956f4a370d19d6e54c700a6b2638644182706f8ac8738c35fb8a8be0079c531659141344cd1fd0a4f28419497f9722a3daafe3b4186f6b6457e0a2646970667358221220092dd78f29a9635c1d9181e3e15811653895ba54179a83dfc7f26d1eb3ad51d164736f6c63430008130033","opcodes":"PUSH1 0x80 DUP1 PUSH1 0x40 MSTORE CALLVALUE PUSH2 0xC2 JUMPI PUSH1 0x1 PUSH1 0x0 DUP2 DUP2 SSTORE DUP2 SLOAD CALLER PUSH1 0x1 PUSH1 0x1 PUSH1 0xA0 SHL SUB NOT DUP3 AND DUP2 OR SWAP1 SWAP4 SSTORE PUSH1 0x1 PUSH1 0x1 PUSH1 0xA0 SHL SUB AND SWAP1 PUSH32 0x8BE0079C531659141344CD1FD0A4F28419497F9722A3DAAFE3B4186F6B6457E0 SWAP1 DUP1 LOG3 PUSH1 0x1 PUSH1 0x2 SSTORE PUSH1 0x96 PUSH1 0x3 SSTORE PUSH2 0x3E8 PUSH1 0x4 SSTORE PUSH2 0x1F4 PUSH1 0x5 SSTORE PUSH2 0x1B58 PUSH1 0x6 SSTORE PUSH2 0x189C PUSH1 0x8 SSTORE PUSH2 0x258 PUSH1 0x9 SSTORE PUSH2 0x384 DUP1 PUSH1 0xA SSTORE PUSH1 0xB4 PUSH1 0xB SSTORE PUSH1 0xC SSTORE PUSH2 0x12C PUSH1 0xD SSTORE PUSH1 0x2 PUSH1 0xE SSTORE PUSH8 0xDE0B6B3A7640000 PUSH1 0xF SSTORE PUSH8 0x6F05B59D3B20000 PUSH1 0x10 SSTORE PUSH1 0x0 PUSH1 0x11 SSTORE PUSH1 0x0 PUSH1 0x12 SSTORE PUSH2 0x33F8 SWAP1 DUP2 PUSH2 0xC8 DUP3 CODECOPY RETURN JUMPDEST PUSH1 0x0 DUP1 REVERT INVALID PUSH1 0x80 DUP1 PUSH1 0x40 MSTORE PUSH1 0x4 CALLDATASIZE LT ISZERO PUSH2 0x1D JUMPI JUMPDEST POP CALLDATASIZE ISZERO PUSH2 0x1B JUMPI PUSH1 0x0 DUP1 REVERT JUMPDEST STOP JUMPDEST PUSH1 0x0 SWAP1 DUP2 CALLDATALOAD PUSH1 0xE0 SHR SWAP1 DUP2 PUSH3 0x97DCC6 EQ PUSH2 0x21AA JUMPI POP DUP1 PUSH4 0x293399C EQ PUSH2 0x217B JUMPI DUP1 PUSH4 0x5EAAB4B EQ PUSH2 0x20BD JUMPI DUP1 PUSH4 0x75AA970 EQ PUSH2 0x1F81 JUMPI DUP1 PUSH4 0x113965C4 EQ PUSH2 0x1ED5 JUMPI DUP1 PUSH4 0x117A5B90 EQ PUSH2 0x1DE1 JUMPI DUP1 PUSH4 0x12E8E2C3 EQ PUSH2 0x1D78 JUMPI DUP1 PUSH4 0x19BE5AD0 EQ PUSH2 0x142E JUMPI DUP1 PUSH4 0x21874AE2 EQ PUSH2 0x1CCE JUMPI DUP1 PUSH4 0x26232A2E EQ PUSH2 0x1CB0 JUMPI DUP1 PUSH4 0x340CD9BB EQ PUSH2 0x1C92 JUMPI DUP1 PUSH4 0x3469336D EQ PUSH2 0x1686 JUMPI DUP1 PUSH4 0x34DEE60B EQ PUSH2 0x1C74 JUMPI DUP1 PUSH4 0x3A1AF701 EQ PUSH2 0x1C56 JUMPI DUP1 PUSH4 0x3E0183D1 EQ PUSH2 0x1AA0 JUMPI DUP1 PUSH4 0x3FA27625 EQ PUSH2 0x1A82 JUMPI DUP1 PUSH4 0x476343EE EQ PUSH2 0x1A25 JUMPI DUP1 PUSH4 0x47C9BC2D EQ PUSH2 0x1A07 JUMPI DUP1 PUSH4 0x4E43603A EQ PUSH2 0x1952 JUMPI DUP1 PUSH4 0x51BCEFA1 EQ PUSH2 0x1909 JUMPI DUP1 PUSH4 0x587F5ED7 EQ PUSH2 0x18CF JUMPI DUP1 PUSH4 0x5B7F415C EQ PUSH2 0x18ED JUMPI DUP1 PUSH4 0x5DF45A37 EQ PUSH2 0x18CF JUMPI DUP1 PUSH4 0x60D6A941 EQ PUSH2 0x18B1 JUMPI DUP1 PUSH4 0x618C506D EQ PUSH2 0x1878 JUMPI DUP1 PUSH4 0x64BE7A01 EQ PUSH2 0x185A JUMPI DUP1 PUSH4 0x67C15F6A EQ PUSH2 0x1840 JUMPI DUP1 PUSH4 0x69F2372D EQ PUSH2 0x177F JUMPI DUP1 PUSH4 0x6B21BED6 EQ PUSH2 0x1740 JUMPI DUP1 PUSH4 0x6C3C1A45 EQ PUSH2 0x1721 JUMPI DUP1 PUSH4 0x6D763A6E EQ PUSH2 0x16BF JUMPI DUP1 PUSH4 0x6E8BA9F6 EQ PUSH2 0x1686 JUMPI DUP1 PUSH4 0x715018A6 EQ PUSH2 0x163B JUMPI DUP1 PUSH4 0x75C14DD8 EQ PUSH2 0x161D JUMPI DUP1 PUSH4 0x7B51AC7A EQ PUSH2 0x15FF JUMPI DUP1 PUSH4 0x7E644547 EQ PUSH2 0x15CC JUMPI DUP1 PUSH4 0x85ADDBAB EQ PUSH2 0x1589 JUMPI DUP1 PUSH4 0x8A65D874 EQ PUSH2 0x1523 JUMPI DUP1 PUSH4 0x8CD42991 EQ PUSH2 0x1504 JUMPI DUP1 PUSH4 0x8DA5CB5B EQ PUSH2 0x14DB JUMPI DUP1 PUSH4 0x96EE4688 EQ PUSH2 0x14BD JUMPI DUP1 PUSH4 0x9CA423B3 EQ PUSH2 0x1458 JUMPI DUP1 PUSH4 0x9DAD1DA5 EQ PUSH2 0x142E JUMPI DUP1 PUSH4 0xA2F77BCC EQ PUSH2 0x13D7 JUMPI DUP1 PUSH4 0xA3D961EB EQ PUSH2 0x12C3 JUMPI DUP1 PUSH4 0xA5A99693 EQ PUSH2 0x12A5 JUMPI DUP1 PUSH4 0xA5C44A65 EQ PUSH2 0x115B JUMPI DUP1 PUSH4 0xAA216845 EQ PUSH2 0x110D JUMPI DUP1 PUSH4 0xB135BBB0 EQ PUSH2 0x10EF JUMPI DUP1 PUSH4 0xB7A5A5B6 EQ PUSH2 0x10CF JUMPI DUP1 PUSH4 0xBCBDECB7 EQ PUSH2 0x1049 JUMPI DUP1 PUSH4 0xBF368399 EQ PUSH2 0x101E JUMPI DUP1 PUSH4 0xC62D359C EQ PUSH2 0xAA7 JUMPI DUP1 PUSH4 0xC6FD03DF EQ PUSH2 0xA89 JUMPI DUP1 PUSH4 0xCE1EA732 EQ PUSH2 0xA3E JUMPI DUP1 PUSH4 0xD07E995B EQ PUSH2 0x9CE JUMPI DUP1 PUSH4 0xD1153BC3 EQ PUSH2 0x6DA JUMPI DUP1 PUSH4 0xD73792A9 EQ PUSH2 0x6BD JUMPI DUP1 PUSH4 0xD824E03C EQ PUSH2 0x66D JUMPI DUP1 PUSH4 0xDB877142 EQ PUSH2 0x651 JUMPI DUP1 PUSH4 0xE0CA49AE EQ PUSH2 0x5E8 JUMPI DUP1 PUSH4 0xE87C0EE6 EQ PUSH2 0x5A8 JUMPI DUP1 PUSH4 0xE978F045 EQ PUSH2 0x548 JUMPI DUP1 PUSH4 0xEC1B3AB5 EQ PUSH2 0x521 JUMPI DUP1 PUSH4 0xEC844654 EQ PUSH2 0x4DF JUMPI DUP1 PUSH4 0xF18CDB65 EQ PUSH2 0x4BB JUMPI DUP1 PUSH4 0xF2FDE38B EQ PUSH2 0x408 JUMPI DUP1 PUSH4 0xF5C045A6 EQ PUSH2 0x3EA JUMPI PUSH4 0xFA744DD3 SUB PUSH2 0xF JUMPI CALLVALUE PUSH2 0x3E7 JUMPI PUSH1 0x40 CALLDATASIZE PUSH1 0x3 NOT ADD SLT PUSH2 0x3E7 JUMPI PUSH1 0xC0 SWAP1 PUSH2 0x3E5 PUSH1 0x4 CALLDATALOAD SWAP2 PUSH2 0x3C6 PUSH1 0x40 PUSH2 0x344 PUSH2 0x2295 JUMP JUMPDEST SWAP3 DUP2 MLOAD SWAP4 PUSH2 0x351 DUP6 PUSH2 0x250E JUMP JUMPDEST PUSH2 0x359 PUSH2 0x2FF9 JUMP JUMPDEST DUP6 MSTORE PUSH2 0x363 PUSH2 0x2FF9 JUMP JUMPDEST PUSH1 0x20 DUP1 SWAP7 ADD MSTORE DUP7 DUP3 MSTORE PUSH1 0x14 DUP6 MSTORE DUP3 DUP3 KECCAK256 SWAP1 PUSH1 0x1 DUP1 PUSH1 0xA0 SHL SUB AND SWAP1 DUP2 PUSH1 0x0 MSTORE DUP6 MSTORE DUP3 PUSH1 0x0 KECCAK256 DUP3 DUP1 MSTORE DUP6 MSTORE DUP3 DUP3 KECCAK256 SWAP7 DUP3 MSTORE PUSH1 0x14 DUP6 MSTORE DUP3 DUP3 KECCAK256 SWAP1 PUSH1 0x0 MSTORE DUP5 MSTORE DUP2 PUSH1 0x0 KECCAK256 PUSH1 0x1 DUP3 MSTORE DUP5 MSTORE KECCAK256 PUSH2 0x3BF PUSH1 0x40 MLOAD SWAP6 PUSH2 0x3BA DUP8 PUSH2 0x250E JUMP JUMPDEST PUSH2 0x3018 JUMP JUMPDEST DUP6 MSTORE PUSH2 0x3018 JUMP JUMPDEST SWAP1 DUP4 ADD SWAP1 DUP2 MSTORE PUSH2 0x3DA PUSH1 0x40 MLOAD DUP1 SWAP5 MLOAD PUSH2 0x242D JUMP JUMPDEST MLOAD PUSH1 0x60 DUP4 ADD SWAP1 PUSH2 0x242D JUMP JUMPDEST RETURN JUMPDEST DUP1 REVERT JUMPDEST POP CALLVALUE PUSH2 0x3E7 JUMPI DUP1 PUSH1 0x3 NOT CALLDATASIZE ADD SLT PUSH2 0x3E7 JUMPI PUSH1 0x20 PUSH1 0x11 SLOAD PUSH1 0x40 MLOAD SWAP1 DUP2 MSTORE RETURN JUMPDEST POP CALLVALUE PUSH2 0x3E7 JUMPI PUSH1 0x20 CALLDATASIZE PUSH1 0x3 NOT ADD SLT PUSH2 0x3E7 JUMPI PUSH2 0x422 PUSH2 0x227F JUMP JUMPDEST PUSH2 0x42A PUSH2 0x2451 JUMP JUMPDEST PUSH1 0x1 PUSH1 0x1 PUSH1 0xA0 SHL SUB SWAP1 DUP2 AND SWAP1 DUP2 ISZERO PUSH2 0x467 JUMPI PUSH1 0x1 DUP1 SLOAD PUSH1 0x1 PUSH1 0x1 PUSH1 0xA0 SHL SUB NOT DUP2 AND DUP5 OR SWAP1 SWAP2 SSTORE AND PUSH1 0x0 DUP1 MLOAD PUSH1 0x20 PUSH2 0x33A3 DUP4 CODECOPY DUP2 MLOAD SWAP2 MSTORE PUSH1 0x0 DUP1 LOG3 DUP1 RETURN JUMPDEST PUSH1 0x40 MLOAD PUSH3 0x461BCD PUSH1 0xE5 SHL DUP2 MSTORE PUSH1 0x20 PUSH1 0x4 DUP3 ADD MSTORE PUSH1 0x26 PUSH1 0x24 DUP3 ADD MSTORE PUSH32 0x4F776E61626C653A206E6577206F776E657220697320746865207A65726F2061 PUSH1 0x44 DUP3 ADD MSTORE PUSH6 0x646472657373 PUSH1 0xD0 SHL PUSH1 0x64 DUP3 ADD MSTORE PUSH1 0x84 SWAP1 REVERT JUMPDEST POP CALLVALUE PUSH2 0x3E7 JUMPI PUSH1 0x20 PUSH2 0x4D5 PUSH2 0x4CF CALLDATASIZE PUSH2 0x22D8 JUMP JUMPDEST SWAP1 PUSH2 0x32F4 JUMP JUMPDEST PUSH1 0x40 MLOAD SWAP1 ISZERO ISZERO DUP2 MSTORE RETURN JUMPDEST POP CALLVALUE PUSH2 0x3E7 JUMPI PUSH1 0x80 CALLDATASIZE PUSH1 0x3 NOT ADD SLT PUSH2 0x3E7 JUMPI PUSH2 0x4F9 PUSH2 0x2295 JUMP JUMPDEST SWAP1 PUSH1 0x44 CALLDATALOAD SWAP1 PUSH1 0x2 DUP3 LT ISZERO PUSH2 0x3E7 JUMPI PUSH1 0x20 PUSH2 0x519 PUSH1 0x64 CALLDATALOAD DUP5 DUP7 PUSH1 0x4 CALLDATALOAD PUSH2 0x30AB JUMP JUMPDEST PUSH1 0x40 MLOAD SWAP1 DUP2 MSTORE RETURN JUMPDEST POP CALLVALUE PUSH2 0x3E7 JUMPI PUSH2 0x541 PUSH2 0x533 CALLDATASIZE PUSH2 0x22D8 JUMP JUMPDEST SWAP1 PUSH2 0x53C PUSH2 0x25E9 JUMP JUMPDEST PUSH2 0x290E JUMP JUMPDEST PUSH1 0x1 DUP2 SSTORE DUP1 RETURN JUMPDEST POP CALLVALUE PUSH2 0x3E7 JUMPI PUSH2 0x59B PUSH1 0x40 PUSH1 0x60 SWAP3 PUSH2 0x55F CALLDATASIZE PUSH2 0x23FA JUMP JUMPDEST SWAP2 PUSH2 0x568 PUSH2 0x2FF9 JUMP JUMPDEST POP DUP4 MSTORE PUSH1 0x14 PUSH1 0x20 MSTORE DUP4 DUP4 KECCAK256 SWAP1 PUSH1 0x1 DUP1 PUSH1 0xA0 SHL SUB AND PUSH1 0x0 MSTORE PUSH1 0x20 MSTORE DUP3 PUSH1 0x0 KECCAK256 SWAP1 PUSH2 0x590 DUP2 PUSH2 0x2252 JUMP JUMPDEST DUP3 MSTORE PUSH1 0x20 MSTORE KECCAK256 PUSH2 0x3018 JUMP JUMPDEST PUSH2 0x3E5 PUSH1 0x40 MLOAD DUP1 SWAP3 PUSH2 0x242D JUMP JUMPDEST POP CALLVALUE PUSH2 0x3E7 JUMPI DUP1 PUSH1 0x3 NOT CALLDATASIZE ADD SLT PUSH2 0x3E7 JUMPI PUSH1 0x2 SLOAD PUSH1 0x0 NOT DUP2 ADD SWAP2 SWAP1 DUP3 GT PUSH2 0x5D4 JUMPI PUSH1 0x20 DUP3 PUSH1 0x40 MLOAD SWAP1 DUP2 MSTORE RETURN JUMPDEST PUSH4 0x4E487B71 PUSH1 0xE0 SHL DUP2 MSTORE PUSH1 0x11 PUSH1 0x4 MSTORE PUSH1 0x24 SWAP1 REVERT JUMPDEST POP CALLVALUE PUSH2 0x3E7 JUMPI PUSH1 0x60 SWAP1 PUSH1 0x40 PUSH2 0x5FC CALLDATASIZE PUSH2 0x23FA JUMP JUMPDEST SWAP1 SWAP4 SWAP2 DUP3 MSTORE PUSH1 0x14 PUSH1 0x20 MSTORE DUP3 DUP3 KECCAK256 PUSH1 0x1 DUP1 PUSH1 0xA0 SHL SUB DUP1 SWAP6 AND PUSH1 0x0 MSTORE PUSH1 0x20 MSTORE DUP3 PUSH1 0x0 KECCAK256 SWAP1 PUSH2 0x627 DUP2 PUSH2 0x2252 JUMP JUMPDEST DUP3 MSTORE PUSH1 0x20 MSTORE KECCAK256 SWAP1 PUSH1 0x1 DUP3 SLOAD SWAP3 ADD SLOAD PUSH1 0x40 MLOAD SWAP3 DUP4 MSTORE PUSH1 0xFF DUP2 AND ISZERO ISZERO PUSH1 0x20 DUP5 ADD MSTORE PUSH1 0x8 SHR AND PUSH1 0x40 DUP3 ADD MSTORE RETURN JUMPDEST POP CALLVALUE PUSH2 0x3E7 JUMPI DUP1 PUSH1 0x3 NOT CALLDATASIZE ADD SLT PUSH2 0x3E7 JUMPI PUSH1 0x20 PUSH1 0x40 MLOAD PUSH1 0x64 DUP2 MSTORE RETURN JUMPDEST POP CALLVALUE PUSH2 0x3E7 JUMPI PUSH1 0x20 CALLDATASIZE PUSH1 0x3 NOT ADD SLT PUSH2 0x3E7 JUMPI PUSH1 0x4 CALLDATALOAD PUSH2 0x68A PUSH2 0x2451 JUMP JUMPDEST PUSH2 0x12C DUP2 LT DUP1 ISZERO PUSH2 0x6B2 JUMPI JUMPDEST PUSH2 0x6A0 JUMPI PUSH1 0x9 SSTORE DUP1 RETURN JUMPDEST PUSH1 0x40 MLOAD PUSH4 0xA68A0ED PUSH1 0xE0 SHL DUP2 MSTORE PUSH1 0x4 SWAP1 REVERT JUMPDEST POP PUSH2 0xE10 DUP2 GT PUSH2 0x696 JUMP JUMPDEST POP CALLVALUE PUSH2 0x3E7 JUMPI DUP1 PUSH1 0x3 NOT CALLDATASIZE ADD SLT PUSH2 0x3E7 JUMPI PUSH1 0x20 PUSH1 0x40 MLOAD PUSH2 0x2710 DUP2 MSTORE RETURN JUMPDEST POP CALLVALUE PUSH2 0x3E7 JUMPI PUSH1 0x40 CALLDATASIZE PUSH1 0x3 NOT ADD SLT PUSH2 0x3E7 JUMPI PUSH1 0x2 PUSH1 0x4 CALLDATALOAD LT ISZERO PUSH2 0x3E7 JUMPI PUSH1 0x2 PUSH1 0x24 CALLDATALOAD LT ISZERO PUSH2 0x3E7 JUMPI PUSH2 0x70D PUSH1 0x4 CALLDATALOAD PUSH2 0x2252 JUMP JUMPDEST PUSH1 0x4 CALLDATALOAD PUSH2 0x9C6 JUMPI PUSH1 0x11 SLOAD JUMPDEST DUP1 PUSH2 0x96D JUMPI JUMPDEST POP PUSH1 0x2 SLOAD PUSH2 0x72B DUP2 PUSH2 0x263F JUMP JUMPDEST PUSH1 0x2 SSTORE PUSH2 0x739 PUSH1 0x24 CALLDATALOAD PUSH2 0x2252 JUMP JUMPDEST PUSH1 0x24 CALLDATALOAD PUSH2 0x962 JUMPI PUSH2 0x74D PUSH1 0x8 SLOAD JUMPDEST TIMESTAMP PUSH2 0x2664 JUMP JUMPDEST PUSH1 0x40 MLOAD PUSH2 0x759 DUP2 PUSH2 0x24DF JUMP JUMPDEST DUP3 DUP2 MSTORE PUSH2 0x767 PUSH1 0x4 CALLDATALOAD PUSH2 0x2252 JUMP JUMPDEST PUSH1 0x4 CALLDATALOAD PUSH1 0x20 DUP3 ADD MSTORE PUSH2 0x77A PUSH1 0x24 CALLDATALOAD PUSH2 0x2252 JUMP JUMPDEST PUSH1 0x24 CALLDATALOAD PUSH1 0x40 DUP3 ADD MSTORE PUSH1 0x1 PUSH1 0x60 DUP3 ADD MSTORE DUP4 PUSH1 0x80 DUP3 ADD MSTORE DUP4 PUSH1 0xA0 DUP3 ADD MSTORE DUP4 PUSH1 0xC0 DUP3 ADD MSTORE DUP4 PUSH1 0xE0 DUP3 ADD MSTORE TIMESTAMP PUSH2 0x100 DUP3 ADD MSTORE DUP2 PUSH2 0x120 DUP3 ADD MSTORE DUP4 PUSH2 0x140 DUP3 ADD MSTORE DUP4 PUSH2 0x160 DUP3 ADD MSTORE DUP4 PUSH2 0x180 DUP3 ADD MSTORE DUP4 PUSH2 0x1A0 DUP3 ADD MSTORE DUP3 DUP5 MSTORE PUSH1 0x13 PUSH1 0x20 MSTORE PUSH1 0x40 DUP5 KECCAK256 SWAP1 DUP1 MLOAD DUP3 SSTORE PUSH1 0x20 DUP2 ADD MLOAD PUSH2 0x7EA DUP2 PUSH2 0x2252 JUMP JUMPDEST PUSH2 0x7F3 DUP2 PUSH2 0x2252 JUMP JUMPDEST PUSH1 0x1 DUP4 ADD SLOAD PUSH1 0x40 DUP4 ADD MLOAD SWAP1 PUSH2 0x807 DUP3 PUSH2 0x2252 JUMP JUMPDEST PUSH2 0x810 DUP3 PUSH2 0x2252 JUMP JUMPDEST PUSH1 0x60 DUP5 ADD MLOAD PUSH1 0x5 DUP2 LT ISZERO PUSH2 0x94E JUMPI PUSH32 0x5BFFE7E5C8098C6E3688EB38E9850F561C9F5CBB9E256D591242A8A92EE7AF26 SWAP7 SWAP5 PUSH2 0x8F8 SWAP5 PUSH1 0x80 SWAP8 SWAP5 PUSH2 0xFF00 PUSH1 0xB SWAP6 PUSH1 0xFF PUSH3 0xFF0000 PUSH2 0x1A0 SWAP8 PUSH1 0x10 SHL AND SWAP5 AND SWAP1 PUSH3 0xFFFFFF NOT AND OR SWAP2 PUSH1 0x8 SHL AND OR OR PUSH1 0x1 DUP6 ADD SSTORE DUP7 DUP2 ADD MLOAD PUSH1 0x2 DUP6 ADD SSTORE PUSH1 0xA0 DUP2 ADD MLOAD PUSH1 0x3 DUP6 ADD SSTORE PUSH1 0xC0 DUP2 ADD MLOAD PUSH1 0x4 DUP6 ADD SSTORE PUSH1 0xE0 DUP2 ADD MLOAD PUSH1 0x5 DUP6 ADD SSTORE PUSH2 0x100 DUP2 ADD MLOAD PUSH1 0x6 DUP6 ADD SSTORE PUSH2 0x120 DUP2 ADD MLOAD PUSH1 0x7 DUP6 ADD SSTORE PUSH2 0x140 DUP2 ADD MLOAD PUSH1 0x8 DUP6 ADD SSTORE PUSH2 0x8D6 PUSH2 0x160 DUP3 ADD MLOAD PUSH2 0x8CD DUP2 PUSH2 0x2252 JUMP JUMPDEST PUSH1 0x9 DUP7 ADD PUSH2 0x267D JUMP JUMPDEST PUSH2 0x180 DUP2 ADD MLOAD PUSH1 0xA DUP6 ADD SSTORE ADD MLOAD ISZERO ISZERO SWAP2 ADD SWAP1 PUSH1 0xFF DUP1 NOT DUP4 SLOAD AND SWAP2 ISZERO ISZERO AND OR SWAP1 SSTORE JUMP JUMPDEST PUSH2 0x903 PUSH1 0x4 CALLDATALOAD PUSH2 0x2252 JUMP JUMPDEST PUSH1 0x4 CALLDATALOAD PUSH2 0x945 JUMPI DUP4 PUSH1 0x11 SSTORE JUMPDEST PUSH1 0x40 MLOAD SWAP1 PUSH2 0x91E PUSH1 0x4 CALLDATALOAD PUSH2 0x2252 JUMP JUMPDEST PUSH1 0x4 CALLDATALOAD DUP3 MSTORE PUSH2 0x92E PUSH1 0x24 CALLDATALOAD PUSH2 0x2252 JUMP JUMPDEST PUSH1 0x24 CALLDATALOAD PUSH1 0x20 DUP4 ADD MSTORE TIMESTAMP PUSH1 0x40 DUP4 ADD MSTORE PUSH1 0x60 DUP3 ADD MSTORE LOG2 DUP1 RETURN JUMPDEST DUP4 PUSH1 0x12 SSTORE PUSH2 0x90F JUMP JUMPDEST PUSH4 0x4E487B71 PUSH1 0xE0 SHL DUP10 MSTORE PUSH1 0x21 PUSH1 0x4 MSTORE PUSH1 0x24 DUP10 REVERT JUMPDEST PUSH2 0x74D PUSH1 0x9 SLOAD PUSH2 0x747 JUMP JUMPDEST DUP2 MSTORE PUSH1 0x13 PUSH1 0x20 MSTORE PUSH1 0xFF PUSH1 0x1 PUSH1 0x40 DUP4 KECCAK256 ADD SLOAD PUSH1 0x10 SHR AND PUSH1 0x5 DUP2 LT ISZERO PUSH2 0x9B2 JUMPI PUSH1 0x1 DUP2 EQ PUSH2 0x9A0 JUMPI PUSH1 0x2 EQ PUSH2 0x9A0 JUMPI CODESIZE PUSH2 0x71E JUMP JUMPDEST PUSH1 0x40 MLOAD PUSH4 0x2127C5B5 PUSH1 0xE0 SHL DUP2 MSTORE PUSH1 0x4 SWAP1 REVERT JUMPDEST PUSH4 0x4E487B71 PUSH1 0xE0 SHL DUP3 MSTORE PUSH1 0x21 PUSH1 0x4 MSTORE PUSH1 0x24 DUP3 REVERT JUMPDEST PUSH1 0x12 SLOAD PUSH2 0x718 JUMP JUMPDEST POP CALLVALUE PUSH2 0x3E7 JUMPI PUSH1 0x20 CALLDATASIZE PUSH1 0x3 NOT ADD SLT PUSH2 0x3E7 JUMPI PUSH1 0x4 CALLDATALOAD PUSH2 0x9EB PUSH2 0x2451 JUMP JUMPDEST PUSH2 0x1388 DUP2 GT PUSH2 0x9FA JUMPI PUSH1 0x4 SSTORE DUP1 RETURN JUMPDEST PUSH1 0x64 PUSH1 0x40 MLOAD PUSH3 0x461BCD PUSH1 0xE5 SHL DUP2 MSTORE PUSH1 0x20 PUSH1 0x4 DUP3 ADD MSTORE PUSH1 0x20 PUSH1 0x24 DUP3 ADD MSTORE PUSH32 0x526566657272616C2073686172652063616E6E6F742065786365656420353025 PUSH1 0x44 DUP3 ADD MSTORE REVERT JUMPDEST POP CALLVALUE PUSH2 0x3E7 JUMPI PUSH2 0xA4D CALLDATASIZE PUSH2 0x2237 JUMP JUMPDEST SWAP2 SWAP1 DUP2 MSTORE PUSH1 0x15 PUSH1 0x20 MSTORE PUSH1 0x40 DUP2 KECCAK256 SWAP1 DUP2 SLOAD DUP4 LT ISZERO PUSH2 0x3E7 JUMPI PUSH1 0x20 PUSH2 0xA70 DUP5 DUP5 PUSH2 0x23E2 JUMP JUMPDEST SWAP1 SLOAD PUSH1 0x40 MLOAD PUSH1 0x3 SWAP3 SWAP1 SWAP3 SHL SHR PUSH1 0x1 PUSH1 0x1 PUSH1 0xA0 SHL SUB AND DUP2 MSTORE RETURN JUMPDEST POP CALLVALUE PUSH2 0x3E7 JUMPI DUP1 PUSH1 0x3 NOT CALLDATASIZE ADD SLT PUSH2 0x3E7 JUMPI PUSH1 0x20 PUSH1 0xF SLOAD PUSH1 0x40 MLOAD SWAP1 DUP2 MSTORE RETURN JUMPDEST POP PUSH1 0x60 CALLDATASIZE PUSH1 0x3 NOT ADD SLT PUSH2 0x3E7 JUMPI PUSH1 0x4 CALLDATALOAD SWAP1 PUSH1 0x24 CALLDATALOAD PUSH1 0x2 DUP2 LT ISZERO PUSH2 0x101A JUMPI PUSH1 0x44 CALLDATALOAD PUSH1 0x1 PUSH1 0x1 PUSH1 0x40 SHL SUB DUP2 GT PUSH2 0x1016 JUMPI PUSH2 0xAE3 SWAP1 CALLDATASIZE SWAP1 PUSH1 0x4 ADD PUSH2 0x22AB JUMP JUMPDEST SWAP4 SWAP1 PUSH2 0xAED PUSH2 0x25E9 JUMP JUMPDEST DUP2 ISZERO DUP1 ISZERO PUSH2 0x100A JUMPI JUMPDEST PUSH2 0xFF8 JUMPI CALLVALUE ISZERO PUSH2 0xFE6 JUMPI DUP2 DUP5 MSTORE PUSH1 0x20 SWAP1 PUSH1 0x13 DUP3 MSTORE PUSH1 0x40 DUP6 KECCAK256 SWAP1 PUSH1 0xFF PUSH1 0x1 DUP4 ADD SLOAD PUSH1 0x10 SHR AND PUSH1 0x5 DUP2 LT ISZERO PUSH2 0xFD2 JUMPI PUSH1 0x1 SUB PUSH2 0xFC0 JUMPI PUSH1 0x7 DUP3 ADD SLOAD TIMESTAMP LT ISZERO PUSH2 0xFAE JUMPI DUP4 DUP7 MSTORE PUSH1 0x14 DUP4 MSTORE PUSH1 0x40 DUP7 KECCAK256 CALLER PUSH1 0x0 MSTORE DUP4 MSTORE PUSH1 0x40 PUSH1 0x0 KECCAK256 PUSH2 0xB55 DUP7 PUSH2 0x2252 JUMP JUMPDEST DUP6 DUP8 MSTORE DUP4 MSTORE PUSH1 0x40 DUP7 KECCAK256 PUSH1 0x3 SLOAD SWAP2 PUSH1 0x2 DUP5 ADD SWAP4 DUP5 SLOAD SWAP4 PUSH1 0x3 DUP3 ADD SWAP5 DUP6 SLOAD PUSH2 0xB7B DUP2 DUP4 PUSH2 0x2664 JUMP JUMPDEST PUSH2 0xEFB JUMPI JUMPDEST POP POP SWAP10 PUSH2 0xB99 SWAP2 DUP11 SWAP12 PUSH2 0x2710 SWAP12 SWAP10 SWAP11 SWAP12 SWAP4 DUP5 SWAP2 CALLVALUE PUSH2 0x2695 JUMP JUMPDEST DIV SWAP2 PUSH2 0xBA5 DUP4 CALLVALUE PUSH2 0x26C8 JUMP JUMPDEST SWAP4 PUSH1 0x1 DUP8 ADD SWAP2 PUSH1 0x1 DUP1 PUSH1 0xA0 SHL SUB SWAP7 DUP8 DUP5 SLOAD PUSH1 0x8 SHR AND DUP3 ISZERO ISZERO DUP1 PUSH2 0xEF3 JUMPI JUMPDEST ISZERO PUSH2 0xE6D JUMPI POP DUP12 SWAP6 SWAP5 SWAP4 SWAP3 SWAP2 PUSH2 0xBD8 SWAP2 PUSH2 0x2567 JUMP JUMPDEST SWAP12 DUP8 DUP14 AND SWAP2 DUP3 ISZERO ISZERO SWAP7 PUSH1 0xA SWAP7 PUSH1 0x40 SWAP5 PUSH2 0xC07 SWAP4 DUP11 PUSH2 0xC75 SWAP12 PUSH2 0xE63 JUMPI JUMPDEST PUSH2 0xDE0 JUMPI JUMPDEST POP POP SWAP1 POP JUMPDEST PUSH1 0x7 SLOAD PUSH2 0x2664 JUMP JUMPDEST PUSH1 0x7 SSTORE DUP14 DUP2 MSTORE PUSH1 0x16 DUP13 MSTORE KECCAK256 PUSH2 0xC1D DUP7 DUP3 SLOAD PUSH2 0x2664 JUMP JUMPDEST SWAP1 SSTORE DUP7 SLOAD SWAP7 PUSH2 0xC2F DUP9 ISZERO SWAP9 CALLVALUE SWAP1 PUSH2 0x2664 JUMP JUMPDEST SWAP1 SSTORE DUP1 SLOAD PUSH1 0xFF NOT DUP1 DUP3 AND DUP4 SSTORE SWAP7 DUP13 AND SWAP12 DUP13 PUSH2 0xDB9 JUMPI JUMPDEST POP POP POP PUSH2 0xC51 DUP13 PUSH2 0x2252 JUMP JUMPDEST DUP12 ISZERO SWAP6 DUP7 ISZERO PUSH2 0xD99 JUMPI PUSH2 0xC65 CALLVALUE DUP11 SLOAD PUSH2 0x2664 JUMP JUMPDEST DUP10 SSTORE PUSH2 0xD84 JUMPI JUMPDEST ADD SWAP2 DUP3 SLOAD PUSH2 0x2664 JUMP JUMPDEST SWAP1 SSTORE DUP7 DUP10 MSTORE PUSH1 0x17 DUP6 MSTORE PUSH1 0x40 DUP10 KECCAK256 CALLER PUSH1 0x0 MSTORE DUP6 MSTORE PUSH1 0xFF PUSH1 0x40 PUSH1 0x0 KECCAK256 SLOAD AND ISZERO PUSH2 0xD15 JUMPI JUMPDEST POP CALLER DUP9 MSTORE PUSH1 0x1C DUP5 MSTORE PUSH1 0x40 DUP9 KECCAK256 PUSH2 0xCAD DUP2 SLOAD PUSH2 0x263F JUMP JUMPDEST SWAP1 SSTORE PUSH2 0xCB8 DUP8 PUSH2 0x2252 JUMP JUMPDEST ISZERO PUSH2 0xD0C JUMPI POP SLOAD SWAP1 JUMPDEST PUSH1 0x40 MLOAD SWAP5 PUSH2 0xCCE DUP2 PUSH2 0x2252 JUMP JUMPDEST DUP6 MSTORE CALLVALUE SWAP1 DUP6 ADD MSTORE PUSH1 0x40 DUP5 ADD MSTORE PUSH1 0x60 DUP4 ADD MSTORE PUSH32 0x6C8573037A11BFAD9B3A07AFCFDD9A9790C4748EA22C9348A596F466194D59B0 PUSH1 0x80 CALLER SWAP4 LOG3 PUSH1 0x1 DUP2 SSTORE DUP1 RETURN JUMPDEST SWAP1 POP SLOAD SWAP1 PUSH2 0xCC1 JUMP JUMPDEST DUP7 DUP10 MSTORE PUSH1 0x17 DUP6 MSTORE PUSH1 0x40 DUP10 KECCAK256 CALLER PUSH1 0x0 MSTORE DUP6 MSTORE PUSH1 0x1 PUSH1 0x40 PUSH1 0x0 KECCAK256 SWAP2 DUP3 SLOAD AND OR SWAP1 SSTORE DUP6 DUP9 MSTORE PUSH1 0x15 DUP5 MSTORE PUSH1 0x40 DUP9 KECCAK256 DUP1 SLOAD SWAP1 PUSH1 0x1 PUSH1 0x40 SHL DUP3 LT ISZERO PUSH2 0xD6E JUMPI DUP2 PUSH2 0xD61 SWAP2 PUSH1 0x1 PUSH2 0xD68 SWAP5 ADD DUP2 SSTORE PUSH2 0x23E2 JUMP JUMPDEST CALLER SWAP2 PUSH2 0x26D5 JUMP JUMPDEST CODESIZE PUSH2 0xC97 JUMP JUMPDEST PUSH4 0x4E487B71 PUSH1 0xE0 SHL PUSH1 0x0 MSTORE PUSH1 0x41 PUSH1 0x4 MSTORE PUSH1 0x24 PUSH1 0x0 REVERT JUMPDEST PUSH1 0x4 DUP2 ADD PUSH2 0xD92 DUP2 SLOAD PUSH2 0x263F JUMP JUMPDEST SWAP1 SSTORE PUSH2 0xC6C JUMP JUMPDEST PUSH2 0xDA4 CALLVALUE DUP10 SLOAD PUSH2 0x2664 JUMP JUMPDEST DUP9 SSTORE ISZERO PUSH2 0xC6C JUMPI PUSH1 0x5 DUP2 ADD PUSH2 0xD92 DUP2 SLOAD PUSH2 0x263F JUMP JUMPDEST PUSH1 0x1 PUSH1 0x1 PUSH1 0xA8 SHL SUB NOT SWAP1 SWAP2 AND PUSH1 0x8 SWAP2 SWAP1 SWAP2 SHL PUSH2 0x100 PUSH1 0x1 PUSH1 0xA8 SHL SUB AND OR SWAP1 SSTORE CODESIZE DUP1 DUP1 PUSH2 0xC45 JUMP JUMPDEST PUSH2 0xE07 PUSH1 0x0 DUP1 MLOAD PUSH1 0x20 PUSH2 0x3383 DUP4 CODECOPY DUP2 MLOAD SWAP2 MSTORE SWAP2 PUSH2 0xDFF PUSH1 0x4 SLOAD DUP7 PUSH2 0x2695 JUMP JUMPDEST DIV DUP1 SWAP5 PUSH2 0x26C8 JUMP JUMPDEST SWAP4 DUP3 DUP8 MSTORE PUSH1 0x1B DUP2 MSTORE DUP8 DUP8 KECCAK256 PUSH2 0xE1D DUP6 DUP3 SLOAD PUSH2 0x2664 JUMP JUMPDEST SWAP1 SSTORE DUP3 DUP8 MSTORE PUSH1 0x18 DUP2 MSTORE PUSH1 0x1 DUP9 DUP9 KECCAK256 ADD PUSH2 0xE36 DUP2 SLOAD PUSH2 0x263F JUMP JUMPDEST SWAP1 SSTORE DUP3 DUP8 MSTORE PUSH1 0x18 DUP2 MSTORE PUSH1 0x2 DUP9 DUP9 KECCAK256 ADD PUSH2 0xE50 DUP6 DUP3 SLOAD PUSH2 0x2664 JUMP JUMPDEST SWAP1 SSTORE DUP8 MLOAD SWAP4 DUP5 MSTORE CALLER SWAP4 LOG3 DUP14 SWAP1 CODESIZE DUP1 PUSH2 0xBFA JUMP JUMPDEST POP CALLER DUP3 EQ ISZERO PUSH2 0xBF5 JUMP JUMPDEST SWAP13 SWAP1 POP PUSH1 0x40 SWAP2 POP PUSH2 0xC07 DUP13 PUSH2 0xC75 SWAP8 DUP16 PUSH1 0xA SWAP9 SWAP8 SWAP7 DUP2 PUSH2 0xE91 JUMPI JUMPDEST POP POP SWAP1 POP PUSH2 0xBFF JUMP JUMPDEST PUSH2 0xEB0 PUSH1 0x0 DUP1 MLOAD PUSH1 0x20 PUSH2 0x3383 DUP4 CODECOPY DUP2 MLOAD SWAP2 MSTORE SWAP2 PUSH2 0xDFF PUSH1 0x4 SLOAD DUP7 PUSH2 0x2695 JUMP JUMPDEST SWAP4 DUP3 DUP8 MSTORE PUSH1 0x1B DUP2 MSTORE DUP8 DUP8 KECCAK256 PUSH2 0xEC6 DUP6 DUP3 SLOAD PUSH2 0x2664 JUMP JUMPDEST SWAP1 SSTORE DUP3 DUP8 MSTORE PUSH1 0x18 DUP2 MSTORE PUSH1 0x2 DUP9 DUP9 KECCAK256 ADD PUSH2 0xEE0 DUP6 DUP3 SLOAD PUSH2 0x2664 JUMP JUMPDEST SWAP1 SSTORE DUP8 MLOAD SWAP4 DUP5 MSTORE CALLER SWAP4 LOG3 DUP14 SWAP1 DUP16 CODESIZE PUSH2 0xE88 JUMP JUMPDEST POP DUP1 ISZERO PUSH2 0xBC3 JUMP JUMPDEST PUSH2 0xF13 SWAP1 PUSH2 0xF08 DUP13 PUSH2 0x2252 JUMP JUMPDEST DUP12 PUSH2 0xFA7 JUMPI DUP3 PUSH2 0x2664 JUMP JUMPDEST PUSH2 0x2710 SWAP2 DUP3 DUP2 MUL SWAP1 DUP1 DUP3 DIV DUP5 EQ SWAP1 ISZERO OR ISZERO PUSH2 0xF93 JUMPI SWAP1 PUSH2 0xF32 SWAP2 PUSH2 0x26A8 JUMP JUMPDEST PUSH1 0x6 SLOAD DUP3 SUB SWAP2 DUP3 GT PUSH2 0xF7F JUMPI SWAP2 PUSH2 0xB99 SWAP4 SWAP2 DUP13 SWAP14 SWAP4 SWAP13 SWAP11 SWAP12 SWAP13 LT PUSH2 0xF5E JUMPI JUMPDEST SWAP2 SWAP12 SWAP11 SWAP10 SWAP9 DUP2 SWAP4 POP PUSH2 0xB80 JUMP JUMPDEST PUSH1 0x5 SLOAD DUP1 DUP3 GT ISZERO PUSH2 0xF77 JUMPI PUSH2 0xF72 SWAP2 PUSH2 0x26C8 JUMP JUMPDEST PUSH2 0xF51 JUMP JUMPDEST POP POP DUP9 PUSH2 0xF51 JUMP JUMPDEST PUSH4 0x4E487B71 PUSH1 0xE0 SHL DUP13 MSTORE PUSH1 0x11 PUSH1 0x4 MSTORE PUSH1 0x24 DUP13 REVERT JUMPDEST PUSH4 0x4E487B71 PUSH1 0xE0 SHL DUP14 MSTORE PUSH1 0x11 PUSH1 0x4 MSTORE PUSH1 0x24 DUP14 REVERT JUMPDEST DUP1 SWAP3 PUSH2 0x2664 JUMP JUMPDEST PUSH1 0x40 MLOAD PUSH4 0x56C79831 PUSH1 0xE0 SHL DUP2 MSTORE PUSH1 0x4 SWAP1 REVERT JUMPDEST PUSH1 0x40 MLOAD PUSH4 0x976A06EB PUSH1 0xE0 SHL DUP2 MSTORE PUSH1 0x4 SWAP1 REVERT JUMPDEST PUSH4 0x4E487B71 PUSH1 0xE0 SHL DUP8 MSTORE PUSH1 0x21 PUSH1 0x4 MSTORE PUSH1 0x24 DUP8 REVERT JUMPDEST PUSH1 0x40 MLOAD PUSH4 0x9DE3D441 PUSH1 0xE0 SHL DUP2 MSTORE PUSH1 0x4 SWAP1 REVERT JUMPDEST PUSH1 0x40 MLOAD PUSH4 0x9B3C627 PUSH1 0xE2 SHL DUP2 MSTORE PUSH1 0x4 SWAP1 REVERT JUMPDEST POP PUSH1 0x2 SLOAD DUP3 LT ISZERO PUSH2 0xAF6 JUMP JUMPDEST DUP3 DUP1 REVERT JUMPDEST POP DUP1 REVERT JUMPDEST POP CALLVALUE PUSH2 0x3E7 JUMPI PUSH1 0x20 CALLDATASIZE PUSH1 0x3 NOT ADD SLT PUSH2 0x3E7 JUMPI PUSH1 0x4 CALLDATALOAD SWAP1 PUSH1 0x1D SLOAD DUP3 LT ISZERO PUSH2 0x3E7 JUMPI PUSH1 0x20 PUSH2 0xA70 DUP4 PUSH2 0x23B1 JUMP JUMPDEST POP CALLVALUE PUSH2 0x3E7 JUMPI PUSH1 0x20 DUP1 PUSH1 0x3 NOT CALLDATASIZE ADD SLT PUSH2 0x101A JUMPI PUSH1 0x4 CALLDATALOAD DUP3 MSTORE PUSH1 0x15 DUP2 MSTORE PUSH1 0x40 DUP3 KECCAK256 SWAP2 PUSH1 0x40 MLOAD DUP1 SWAP4 DUP5 SWAP2 DUP5 DUP3 SLOAD SWAP2 DUP3 DUP2 MSTORE ADD SWAP2 DUP5 MSTORE DUP5 DUP5 KECCAK256 SWAP4 JUMPDEST DUP6 DUP3 DUP3 LT PUSH2 0x10B0 JUMPI POP POP POP PUSH2 0x1098 SWAP3 POP SUB DUP4 PUSH2 0x2544 JUMP JUMPDEST PUSH2 0x10AC PUSH1 0x40 MLOAD SWAP3 DUP3 DUP5 SWAP4 DUP5 MSTORE DUP4 ADD SWAP1 PUSH2 0x21C6 JUMP JUMPDEST SUB SWAP1 RETURN JUMPDEST DUP6 SLOAD PUSH1 0x1 PUSH1 0x1 PUSH1 0xA0 SHL SUB AND DUP5 MSTORE PUSH1 0x1 SWAP6 DUP7 ADD SWAP6 DUP9 SWAP6 POP SWAP4 ADD SWAP3 ADD PUSH2 0x1081 JUMP JUMPDEST POP CALLVALUE PUSH2 0x3E7 JUMPI PUSH1 0x20 CALLDATASIZE PUSH1 0x3 NOT ADD SLT PUSH2 0x3E7 JUMPI PUSH2 0x10EC PUSH1 0x4 CALLDATALOAD PUSH2 0x26F3 JUMP JUMPDEST DUP1 RETURN JUMPDEST POP CALLVALUE PUSH2 0x3E7 JUMPI DUP1 PUSH1 0x3 NOT CALLDATASIZE ADD SLT PUSH2 0x3E7 JUMPI PUSH1 0x20 PUSH1 0x2 SLOAD PUSH1 0x40 MLOAD SWAP1 DUP2 MSTORE RETURN JUMPDEST POP CALLVALUE PUSH2 0x3E7 JUMPI PUSH1 0x20 CALLDATASIZE PUSH1 0x3 NOT ADD SLT PUSH2 0x3E7 JUMPI PUSH1 0x4 CALLDATALOAD SWAP1 PUSH1 0x1 PUSH1 0x1 PUSH1 0x40 SHL SUB DUP3 GT PUSH2 0x3E7 JUMPI PUSH1 0x20 PUSH2 0x1149 PUSH2 0x1143 CALLDATASIZE PUSH1 0x4 DUP7 ADD PUSH2 0x22AB JUMP JUMPDEST SWAP1 PUSH2 0x2567 JUMP JUMPDEST PUSH1 0x40 MLOAD PUSH1 0x1 PUSH1 0x1 PUSH1 0xA0 SHL SUB SWAP1 SWAP2 AND DUP2 MSTORE RETURN JUMPDEST POP CALLVALUE PUSH2 0x3E7 JUMPI PUSH1 0x20 SWAP1 DUP2 PUSH1 0x3 NOT CALLDATASIZE ADD SLT PUSH2 0x3E7 JUMPI PUSH1 0x4 CALLDATALOAD DUP1 DUP3 MSTORE PUSH1 0x14 DUP4 MSTORE PUSH1 0x40 DUP3 KECCAK256 CALLER DUP4 MSTORE DUP4 MSTORE PUSH1 0x40 DUP3 KECCAK256 DUP3 DUP1 MSTORE DUP4 MSTORE PUSH1 0x40 DUP3 KECCAK256 SWAP3 DUP2 DUP4 MSTORE PUSH1 0x14 DUP2 MSTORE PUSH1 0x40 DUP4 KECCAK256 CALLER DUP5 MSTORE DUP2 MSTORE PUSH1 0x40 DUP4 KECCAK256 SWAP1 PUSH1 0x1 DUP5 MSTORE MSTORE PUSH1 0x40 DUP3 KECCAK256 SWAP3 DUP1 SLOAD ISZERO ISZERO SWAP1 DUP2 PUSH2 0x1295 JUMPI JUMPDEST POP PUSH2 0x123A JUMPI JUMPDEST DUP3 DUP3 SWAP4 SLOAD ISZERO ISZERO SWAP1 DUP2 PUSH2 0x122A JUMPI JUMPDEST POP PUSH2 0x11D5 JUMPI POP RETURN JUMPDEST ADDRESS EXTCODESIZE ISZERO PUSH2 0x1227 JUMPI PUSH1 0x40 MLOAD SWAP1 PUSH4 0xEC1B3AB5 PUSH1 0xE0 SHL DUP3 MSTORE PUSH1 0x4 DUP3 ADD MSTORE PUSH1 0x1 PUSH1 0x24 DUP3 ADD MSTORE DUP2 DUP2 PUSH1 0x44 DUP2 DUP4 ADDRESS GAS CALL DUP1 ISZERO PUSH2 0x121C JUMPI PUSH2 0x120C JUMPI POP RETURN JUMPDEST PUSH2 0x1215 SWAP1 PUSH2 0x24FB JUMP JUMPDEST PUSH2 0x3E7 JUMPI DUP1 RETURN JUMPDEST PUSH1 0x40 MLOAD RETURNDATASIZE DUP5 DUP3 RETURNDATACOPY RETURNDATASIZE SWAP1 REVERT JUMPDEST POP REVERT JUMPDEST PUSH1 0xFF SWAP2 POP PUSH1 0x1 ADD SLOAD AND ISZERO CODESIZE PUSH2 0x11CD JUMP JUMPDEST ADDRESS EXTCODESIZE ISZERO PUSH2 0x101A JUMPI PUSH1 0x40 MLOAD SWAP3 PUSH4 0xEC1B3AB5 PUSH1 0xE0 SHL DUP5 MSTORE DUP2 PUSH1 0x4 DUP6 ADD MSTORE DUP3 PUSH1 0x24 DUP6 ADD MSTORE DUP3 DUP5 PUSH1 0x44 DUP2 DUP4 ADDRESS GAS CALL DUP1 ISZERO PUSH2 0x128A JUMPI PUSH2 0x1276 JUMPI JUMPDEST SWAP3 POP PUSH2 0x11C0 JUMP JUMPDEST SWAP2 SWAP1 SWAP3 PUSH2 0x1282 SWAP1 PUSH2 0x24FB JUMP JUMPDEST SWAP1 DUP3 SWAP1 PUSH2 0x126F JUMP JUMPDEST PUSH1 0x40 MLOAD RETURNDATASIZE DUP6 DUP3 RETURNDATACOPY RETURNDATASIZE SWAP1 REVERT JUMPDEST PUSH1 0xFF SWAP2 POP PUSH1 0x1 ADD SLOAD AND ISZERO CODESIZE PUSH2 0x11BA JUMP JUMPDEST POP CALLVALUE PUSH2 0x3E7 JUMPI DUP1 PUSH1 0x3 NOT CALLDATASIZE ADD SLT PUSH2 0x3E7 JUMPI PUSH1 0x20 PUSH1 0x9 SLOAD PUSH1 0x40 MLOAD SWAP1 DUP2 MSTORE RETURN JUMPDEST POP CALLVALUE PUSH2 0x3E7 JUMPI DUP1 PUSH1 0x3 NOT CALLDATASIZE ADD SLT PUSH2 0x3E7 JUMPI PUSH2 0x12DC PUSH2 0x2F91 JUMP JUMPDEST POP PUSH1 0x12 SLOAD DUP1 ISZERO PUSH2 0x13C6 JUMPI DUP2 PUSH1 0x40 SWAP2 PUSH2 0x10AC SWAP4 MSTORE PUSH1 0x13 PUSH1 0x20 MSTORE KECCAK256 PUSH1 0xFF PUSH1 0xB PUSH1 0x40 MLOAD SWAP3 PUSH2 0x1306 DUP5 PUSH2 0x24DF JUMP JUMPDEST DUP1 SLOAD DUP5 MSTORE PUSH2 0x1345 DUP4 PUSH1 0x1 DUP4 ADD SLOAD DUP2 DUP2 AND PUSH2 0x131F DUP2 PUSH2 0x2252 JUMP JUMPDEST PUSH1 0x20 DUP9 ADD MSTORE DUP2 DUP2 PUSH1 0x8 SHR AND PUSH2 0x1333 DUP2 PUSH2 0x2252 JUMP JUMPDEST PUSH1 0x40 DUP9 ADD MSTORE PUSH1 0x10 SHR AND PUSH1 0x60 DUP7 ADD PUSH2 0x2671 JUMP JUMPDEST PUSH1 0x2 DUP2 ADD SLOAD PUSH1 0x80 DUP6 ADD MSTORE PUSH1 0x3 DUP2 ADD SLOAD PUSH1 0xA0 DUP6 ADD MSTORE PUSH1 0x4 DUP2 ADD SLOAD PUSH1 0xC0 DUP6 ADD MSTORE PUSH1 0x5 DUP2 ADD SLOAD PUSH1 0xE0 DUP6 ADD MSTORE PUSH1 0x6 DUP2 ADD SLOAD PUSH2 0x100 DUP6 ADD MSTORE PUSH1 0x7 DUP2 ADD SLOAD PUSH2 0x120 DUP6 ADD MSTORE PUSH1 0x8 DUP2 ADD SLOAD PUSH2 0x140 DUP6 ADD MSTORE DUP3 PUSH1 0x9 DUP3 ADD SLOAD AND PUSH2 0x139E DUP2 PUSH2 0x2252 JUMP JUMPDEST PUSH2 0x160 DUP6 ADD MSTORE PUSH1 0xA DUP2 ADD SLOAD PUSH2 0x180 DUP6 ADD MSTORE ADD SLOAD AND ISZERO ISZERO PUSH2 0x1A0 DUP3 ADD MSTORE PUSH1 0x40 MLOAD SWAP2 DUP3 SWAP2 DUP3 PUSH2 0x22F7 JUMP JUMPDEST PUSH1 0x40 MLOAD PUSH3 0x95B661 PUSH1 0xE6 SHL DUP2 MSTORE PUSH1 0x4 SWAP1 REVERT JUMPDEST POP CALLVALUE PUSH2 0x3E7 JUMPI PUSH1 0x20 CALLDATASIZE PUSH1 0x3 NOT ADD SLT PUSH2 0x3E7 JUMPI PUSH1 0x4 CALLDATALOAD PUSH2 0x13F4 PUSH2 0x2F91 JUMP JUMPDEST POP DUP1 ISZERO DUP1 ISZERO PUSH2 0x1422 JUMPI JUMPDEST PUSH2 0xFF8 JUMPI DUP2 PUSH1 0x40 SWAP2 PUSH2 0x10AC SWAP4 MSTORE PUSH1 0x13 PUSH1 0x20 MSTORE KECCAK256 PUSH1 0xFF PUSH1 0xB PUSH1 0x40 MLOAD SWAP3 PUSH2 0x1306 DUP5 PUSH2 0x24DF JUMP JUMPDEST POP PUSH1 0x2 SLOAD DUP2 LT ISZERO PUSH2 0x13FE JUMP JUMPDEST POP CALLVALUE PUSH2 0x3E7 JUMPI PUSH1 0x20 CALLDATASIZE PUSH1 0x3 NOT ADD SLT PUSH2 0x3E7 JUMPI PUSH1 0x40 PUSH1 0x20 SWAP2 PUSH1 0x4 CALLDATALOAD DUP2 MSTORE PUSH1 0x16 DUP4 MSTORE KECCAK256 SLOAD PUSH1 0x40 MLOAD SWAP1 DUP2 MSTORE RETURN JUMPDEST POP CALLVALUE PUSH2 0x3E7 JUMPI PUSH1 0x20 CALLDATASIZE PUSH1 0x3 NOT ADD SLT PUSH2 0x3E7 JUMPI PUSH1 0x80 SWAP1 PUSH1 0x1 PUSH1 0x1 PUSH1 0xA0 SHL SUB SWAP1 PUSH1 0x40 SWAP1 DUP3 PUSH2 0x1482 PUSH2 0x227F JUMP JUMPDEST AND DUP2 MSTORE PUSH1 0x18 PUSH1 0x20 MSTORE KECCAK256 SWAP1 DUP2 SLOAD AND SWAP1 PUSH1 0x1 DUP2 ADD SLOAD SWAP1 PUSH1 0xFF PUSH1 0x3 PUSH1 0x2 DUP4 ADD SLOAD SWAP3 ADD SLOAD AND SWAP2 PUSH1 0x40 MLOAD SWAP4 DUP5 MSTORE PUSH1 0x20 DUP5 ADD MSTORE PUSH1 0x40 DUP4 ADD MSTORE ISZERO ISZERO PUSH1 0x60 DUP3 ADD MSTORE RETURN JUMPDEST POP CALLVALUE PUSH2 0x3E7 JUMPI DUP1 PUSH1 0x3 NOT CALLDATASIZE ADD SLT PUSH2 0x3E7 JUMPI PUSH1 0x20 PUSH1 0xA SLOAD PUSH1 0x40 MLOAD SWAP1 DUP2 MSTORE RETURN JUMPDEST POP CALLVALUE PUSH2 0x3E7 JUMPI DUP1 PUSH1 0x3 NOT CALLDATASIZE ADD SLT PUSH2 0x3E7 JUMPI PUSH1 0x1 SLOAD PUSH1 0x40 MLOAD PUSH1 0x1 PUSH1 0x1 PUSH1 0xA0 SHL SUB SWAP1 SWAP2 AND DUP2 MSTORE PUSH1 0x20 SWAP1 RETURN JUMPDEST POP CALLVALUE PUSH2 0x3E7 JUMPI PUSH1 0x20 CALLDATASIZE PUSH1 0x3 NOT ADD SLT PUSH2 0x3E7 JUMPI PUSH1 0x20 PUSH2 0x519 PUSH1 0x4 CALLDATALOAD PUSH2 0x31F7 JUMP JUMPDEST POP CALLVALUE PUSH2 0x3E7 JUMPI PUSH1 0x20 CALLDATASIZE PUSH1 0x3 NOT ADD SLT PUSH2 0x3E7 JUMPI PUSH1 0xA0 SWAP1 PUSH1 0x40 SWAP1 PUSH1 0x1 PUSH1 0x1 PUSH1 0xA0 SHL SUB PUSH2 0x154B PUSH2 0x227F JUMP JUMPDEST AND DUP2 MSTORE PUSH1 0x1C PUSH1 0x20 MSTORE KECCAK256 DUP1 SLOAD SWAP1 PUSH1 0x1 DUP2 ADD SLOAD SWAP1 PUSH1 0x2 DUP2 ADD SLOAD PUSH1 0x4 PUSH1 0x3 DUP4 ADD SLOAD SWAP3 ADD SLOAD SWAP3 PUSH1 0x40 MLOAD SWAP5 DUP6 MSTORE PUSH1 0x20 DUP6 ADD MSTORE PUSH1 0x40 DUP5 ADD MSTORE PUSH1 0x60 DUP4 ADD MSTORE PUSH1 0x80 DUP3 ADD MSTORE RETURN JUMPDEST POP CALLVALUE PUSH2 0x3E7 JUMPI DUP1 PUSH1 0x3 NOT CALLDATASIZE ADD SLT PUSH2 0x3E7 JUMPI PUSH2 0x15A2 PUSH2 0x2F91 JUMP JUMPDEST POP PUSH1 0x11 SLOAD DUP1 ISZERO PUSH2 0x13C6 JUMPI DUP2 PUSH1 0x40 SWAP2 PUSH2 0x10AC SWAP4 MSTORE PUSH1 0x13 PUSH1 0x20 MSTORE KECCAK256 PUSH1 0xFF PUSH1 0xB PUSH1 0x40 MLOAD SWAP3 PUSH2 0x1306 DUP5 PUSH2 0x24DF JUMP JUMPDEST POP CALLVALUE PUSH2 0x3E7 JUMPI PUSH1 0x20 CALLDATASIZE PUSH1 0x3 NOT ADD SLT PUSH2 0x3E7 JUMPI PUSH1 0x20 SWAP1 PUSH1 0x4 CALLDATALOAD DUP2 MSTORE PUSH1 0x19 DUP3 MSTORE PUSH1 0x40 PUSH1 0x1 DUP1 PUSH1 0xA0 SHL SUB SWAP2 KECCAK256 SLOAD AND PUSH1 0x40 MLOAD SWAP1 DUP2 MSTORE RETURN JUMPDEST POP CALLVALUE PUSH2 0x3E7 JUMPI DUP1 PUSH1 0x3 NOT CALLDATASIZE ADD SLT PUSH2 0x3E7 JUMPI PUSH1 0x20 PUSH1 0xB SLOAD PUSH1 0x40 MLOAD SWAP1 DUP2 MSTORE RETURN JUMPDEST POP CALLVALUE PUSH2 0x3E7 JUMPI DUP1 PUSH1 0x3 NOT CALLDATASIZE ADD SLT PUSH2 0x3E7 JUMPI PUSH1 0x20 PUSH1 0x8 SLOAD PUSH1 0x40 MLOAD SWAP1 DUP2 MSTORE RETURN JUMPDEST POP CALLVALUE PUSH2 0x3E7 JUMPI DUP1 PUSH1 0x3 NOT CALLDATASIZE ADD SLT PUSH2 0x3E7 JUMPI PUSH2 0x1654 PUSH2 0x2451 JUMP JUMPDEST PUSH1 0x1 DUP1 SLOAD PUSH1 0x1 PUSH1 0x1 PUSH1 0xA0 SHL SUB NOT DUP2 AND SWAP1 SWAP2 SSTORE DUP2 SWAP1 PUSH1 0x1 PUSH1 0x1 PUSH1 0xA0 SHL SUB AND PUSH1 0x0 DUP1 MLOAD PUSH1 0x20 PUSH2 0x33A3 DUP4 CODECOPY DUP2 MLOAD SWAP2 MSTORE DUP3 DUP1 LOG3 DUP1 RETURN JUMPDEST POP CALLVALUE PUSH2 0x3E7 JUMPI PUSH1 0x20 CALLDATASIZE PUSH1 0x3 NOT ADD SLT PUSH2 0x3E7 JUMPI PUSH1 0x20 SWAP1 PUSH1 0x40 SWAP1 PUSH1 0x1 PUSH1 0x1 PUSH1 0xA0 SHL SUB PUSH2 0x16AE PUSH2 0x227F JUMP JUMPDEST AND DUP2 MSTORE PUSH1 0x1B DUP4 MSTORE KECCAK256 SLOAD PUSH1 0x40 MLOAD SWAP1 DUP2 MSTORE RETURN JUMPDEST POP CALLVALUE PUSH2 0x3E7 JUMPI DUP1 PUSH1 0x3 NOT CALLDATASIZE ADD SLT PUSH2 0x3E7 JUMPI PUSH1 0x40 MLOAD DUP1 SWAP2 DUP3 PUSH1 0x1D SLOAD DUP1 DUP5 MSTORE PUSH1 0x20 DUP1 SWAP5 ADD SWAP1 PUSH1 0x1D DUP5 MSTORE DUP5 DUP5 KECCAK256 SWAP4 JUMPDEST DUP6 DUP3 DUP3 LT PUSH2 0x1702 JUMPI POP POP POP PUSH2 0x1098 SWAP3 POP SUB DUP4 PUSH2 0x2544 JUMP JUMPDEST DUP6 SLOAD PUSH1 0x1 PUSH1 0x1 PUSH1 0xA0 SHL SUB AND DUP5 MSTORE PUSH1 0x1 SWAP6 DUP7 ADD SWAP6 DUP9 SWAP6 POP SWAP4 ADD SWAP3 ADD PUSH2 0x16EB JUMP JUMPDEST POP CALLVALUE PUSH2 0x3E7 JUMPI PUSH1 0x20 CALLDATASIZE PUSH1 0x3 NOT ADD SLT PUSH2 0x3E7 JUMPI PUSH1 0x20 PUSH2 0x4D5 PUSH1 0x4 CALLDATALOAD PUSH2 0x325B JUMP JUMPDEST POP CALLVALUE PUSH2 0x3E7 JUMPI PUSH1 0x20 CALLDATASIZE PUSH1 0x3 NOT ADD SLT PUSH2 0x3E7 JUMPI PUSH1 0x4 CALLDATALOAD PUSH2 0x175D PUSH2 0x2451 JUMP JUMPDEST PUSH2 0x708 DUP2 LT DUP1 ISZERO PUSH2 0x1773 JUMPI JUMPDEST PUSH2 0x6A0 JUMPI PUSH1 0x8 SSTORE DUP1 RETURN JUMPDEST POP PUSH3 0x15180 DUP2 GT PUSH2 0x1769 JUMP JUMPDEST POP CALLVALUE PUSH2 0x3E7 JUMPI PUSH1 0x20 CALLDATASIZE PUSH1 0x3 NOT ADD SLT PUSH2 0x3E7 JUMPI PUSH1 0x4 CALLDATALOAD PUSH2 0x179C PUSH2 0x2451 JUMP JUMPDEST DUP1 ISZERO DUP1 ISZERO PUSH2 0x1834 JUMPI JUMPDEST PUSH2 0xFF8 JUMPI DUP1 DUP3 MSTORE PUSH1 0x13 PUSH1 0x20 MSTORE PUSH1 0xFF PUSH1 0x1 PUSH1 0x40 DUP5 KECCAK256 ADD SLOAD PUSH1 0x10 SHR AND PUSH1 0x5 DUP2 LT ISZERO PUSH2 0x1820 JUMPI PUSH1 0x4 EQ PUSH2 0x180E JUMPI PUSH1 0x40 MLOAD PUSH2 0x10EC SWAP2 PUSH2 0x17DF DUP3 PUSH2 0x250E JUMP JUMPDEST PUSH1 0x1F DUP3 MSTORE PUSH32 0x456D657267656E63792063616E63656C6C6174696F6E206279206F776E657200 PUSH1 0x20 DUP4 ADD MSTORE PUSH2 0x2C01 JUMP JUMPDEST PUSH1 0x40 MLOAD PUSH4 0x41D5C2CF PUSH1 0xE0 SHL DUP2 MSTORE PUSH1 0x4 SWAP1 REVERT JUMPDEST PUSH4 0x4E487B71 PUSH1 0xE0 SHL DUP4 MSTORE PUSH1 0x21 PUSH1 0x4 MSTORE PUSH1 0x24 DUP4 REVERT JUMPDEST POP PUSH1 0x2 SLOAD DUP2 LT ISZERO PUSH2 0x17A5 JUMP JUMPDEST POP CALLVALUE PUSH2 0x3E7 JUMPI PUSH1 0x20 PUSH2 0x519 PUSH2 0x1854 CALLDATASIZE PUSH2 0x22D8 JUMP JUMPDEST SWAP1 PUSH2 0x3179 JUMP JUMPDEST POP CALLVALUE PUSH2 0x3E7 JUMPI DUP1 PUSH1 0x3 NOT CALLDATASIZE ADD SLT PUSH2 0x3E7 JUMPI PUSH1 0x20 PUSH1 0x10 SLOAD PUSH1 0x40 MLOAD SWAP1 DUP2 MSTORE RETURN JUMPDEST POP CALLVALUE PUSH2 0x3E7 JUMPI PUSH1 0x20 CALLDATASIZE PUSH1 0x3 NOT ADD SLT PUSH2 0x3E7 JUMPI PUSH1 0x20 SWAP1 PUSH1 0x40 SWAP1 PUSH1 0x1 PUSH1 0x1 PUSH1 0xA0 SHL SUB PUSH2 0x18A0 PUSH2 0x227F JUMP JUMPDEST AND DUP2 MSTORE PUSH1 0x1A DUP4 MSTORE KECCAK256 SLOAD PUSH1 0x40 MLOAD SWAP1 DUP2 MSTORE RETURN JUMPDEST POP CALLVALUE PUSH2 0x3E7 JUMPI DUP1 PUSH1 0x3 NOT CALLDATASIZE ADD SLT PUSH2 0x3E7 JUMPI PUSH1 0x20 PUSH1 0x5 SLOAD PUSH1 0x40 MLOAD SWAP1 DUP2 MSTORE RETURN JUMPDEST POP CALLVALUE PUSH2 0x3E7 JUMPI DUP1 PUSH1 0x3 NOT CALLDATASIZE ADD SLT PUSH2 0x3E7 JUMPI PUSH1 0x20 PUSH1 0x7 SLOAD PUSH1 0x40 MLOAD SWAP1 DUP2 MSTORE RETURN JUMPDEST POP CALLVALUE PUSH2 0x3E7 JUMPI DUP1 PUSH1 0x3 NOT CALLDATASIZE ADD SLT PUSH2 0x3E7 JUMPI PUSH1 0x20 PUSH1 0x40 MLOAD PUSH1 0x12 DUP2 MSTORE RETURN JUMPDEST POP CALLVALUE PUSH2 0x3E7 JUMPI PUSH1 0x40 CALLDATASIZE PUSH1 0x3 NOT ADD SLT PUSH2 0x3E7 JUMPI PUSH1 0xFF PUSH1 0x40 PUSH1 0x20 SWAP3 PUSH2 0x192A PUSH2 0x2295 JUMP JUMPDEST PUSH1 0x4 CALLDATALOAD DUP3 MSTORE PUSH1 0x17 DUP6 MSTORE DUP3 DUP3 KECCAK256 PUSH1 0x1 PUSH1 0x1 PUSH1 0xA0 SHL SUB SWAP1 SWAP2 AND DUP3 MSTORE DUP5 MSTORE KECCAK256 SLOAD PUSH1 0x40 MLOAD SWAP2 AND ISZERO ISZERO DUP2 MSTORE RETURN JUMPDEST POP CALLVALUE PUSH2 0x3E7 JUMPI PUSH1 0x20 CALLDATASIZE PUSH1 0x3 NOT ADD SLT PUSH2 0x3E7 JUMPI PUSH1 0x40 PUSH1 0xA0 SWAP2 PUSH2 0x1971 PUSH2 0x227F JUMP JUMPDEST DUP2 PUSH1 0x80 DUP5 MLOAD PUSH2 0x197F DUP2 PUSH2 0x24C4 JUMP JUMPDEST DUP3 DUP2 MSTORE DUP3 PUSH1 0x20 DUP3 ADD MSTORE DUP3 DUP7 DUP3 ADD MSTORE DUP3 PUSH1 0x60 DUP3 ADD MSTORE ADD MSTORE PUSH1 0x1 DUP1 DUP6 SHL SUB AND DUP2 MSTORE PUSH1 0x1C PUSH1 0x20 MSTORE KECCAK256 PUSH1 0x40 MLOAD PUSH2 0x19B0 DUP2 PUSH2 0x24C4 JUMP JUMPDEST DUP2 SLOAD SWAP2 DUP3 DUP3 MSTORE PUSH1 0x1 DUP2 ADD SLOAD PUSH1 0x20 DUP4 ADD SWAP1 DUP2 MSTORE PUSH1 0x2 DUP3 ADD SLOAD SWAP1 PUSH1 0x40 DUP5 ADD SWAP2 DUP3 MSTORE PUSH1 0x80 PUSH1 0x4 PUSH1 0x3 DUP6 ADD SLOAD SWAP5 PUSH1 0x60 DUP8 ADD SWAP6 DUP7 MSTORE ADD SLOAD SWAP5 ADD SWAP4 DUP5 MSTORE PUSH1 0x40 MLOAD SWAP5 DUP6 MSTORE MLOAD PUSH1 0x20 DUP6 ADD MSTORE MLOAD PUSH1 0x40 DUP5 ADD MSTORE MLOAD PUSH1 0x60 DUP4 ADD MSTORE MLOAD PUSH1 0x80 DUP3 ADD MSTORE RETURN JUMPDEST POP CALLVALUE PUSH2 0x3E7 JUMPI DUP1 PUSH1 0x3 NOT CALLDATASIZE ADD SLT PUSH2 0x3E7 JUMPI PUSH1 0x20 PUSH1 0x4 SLOAD PUSH1 0x40 MLOAD SWAP1 DUP2 MSTORE RETURN JUMPDEST POP CALLVALUE PUSH2 0x3E7 JUMPI DUP1 PUSH1 0x3 NOT CALLDATASIZE ADD SLT PUSH2 0x3E7 JUMPI PUSH2 0x1A3E PUSH2 0x2451 JUMP JUMPDEST DUP1 PUSH1 0x7 SLOAD DUP1 PUSH2 0x1A4A JUMPI POP RETURN JUMPDEST DUP2 DUP1 DUP1 SWAP3 DUP2 PUSH1 0x7 SSTORE PUSH1 0x1 DUP1 PUSH1 0xA0 SHL SUB PUSH1 0x1 SLOAD AND GAS CALL PUSH2 0x1A67 PUSH2 0x25AA JUMP JUMPDEST POP ISZERO PUSH2 0x1A70 JUMPI DUP1 RETURN JUMPDEST PUSH1 0x40 MLOAD PUSH4 0x12171D83 PUSH1 0xE3 SHL DUP2 MSTORE PUSH1 0x4 SWAP1 REVERT JUMPDEST POP CALLVALUE PUSH2 0x3E7 JUMPI DUP1 PUSH1 0x3 NOT CALLDATASIZE ADD SLT PUSH2 0x3E7 JUMPI PUSH1 0x20 PUSH1 0xE SLOAD PUSH1 0x40 MLOAD SWAP1 DUP2 MSTORE RETURN JUMPDEST POP CALLVALUE PUSH2 0x3E7 JUMPI PUSH1 0x20 DUP1 PUSH1 0x3 NOT CALLDATASIZE ADD SLT PUSH2 0x101A JUMPI PUSH1 0x4 CALLDATALOAD PUSH1 0x1 PUSH1 0x1 PUSH1 0x40 SHL SUB DUP2 GT PUSH2 0x1016 JUMPI PUSH2 0x1AD2 SWAP1 CALLDATASIZE SWAP1 PUSH1 0x4 ADD PUSH2 0x22AB JUMP JUMPDEST PUSH2 0x1AF4 DUP4 PUSH1 0x40 MLOAD DUP4 DUP2 SWAP5 DUP4 DUP4 ADD SWAP7 DUP8 CALLDATACOPY DUP2 ADD DUP8 DUP4 DUP3 ADD MSTORE SUB DUP1 DUP5 MSTORE ADD DUP3 PUSH2 0x2544 JUMP JUMPDEST MLOAD SWAP1 KECCAK256 DUP1 DUP4 MSTORE PUSH1 0x19 DUP3 MSTORE PUSH1 0x40 DUP4 KECCAK256 SLOAD SWAP1 SWAP2 SWAP1 PUSH1 0x1 PUSH1 0x1 PUSH1 0xA0 SHL SUB SWAP1 DUP2 AND PUSH2 0x1C1C JUMPI CALLER DUP5 MSTORE PUSH1 0x1A DUP3 MSTORE PUSH1 0x40 DUP5 KECCAK256 SLOAD PUSH2 0x1BE1 JUMPI SWAP1 PUSH2 0x1BD5 PUSH32 0x84D410093008674EBA76B70AB072A4F33A5858F8AEBCA4C89A70447ECCF6FFDA SWAP3 DUP5 DUP7 MSTORE PUSH1 0x19 DUP4 MSTORE PUSH1 0x3 PUSH1 0x40 DUP8 KECCAK256 SWAP2 PUSH1 0x1 DUP1 PUSH1 0xA0 SHL SUB NOT SWAP3 CALLER DUP5 DUP3 SLOAD AND OR SWAP1 SSTORE CALLER DUP9 MSTORE PUSH1 0x1A DUP6 MSTORE DUP7 PUSH1 0x40 DUP10 KECCAK256 SSTORE PUSH1 0x40 MLOAD SWAP3 PUSH2 0x1B84 DUP5 PUSH2 0x24A9 JUMP JUMPDEST DUP9 DUP5 MSTORE DUP6 DUP5 ADD DUP10 DUP2 MSTORE PUSH1 0x40 DUP6 ADD SWAP2 DUP11 DUP4 MSTORE PUSH1 0x60 DUP7 ADD SWAP4 PUSH1 0x1 DUP6 MSTORE CALLER DUP13 MSTORE PUSH1 0x18 DUP10 MSTORE PUSH1 0x40 DUP13 KECCAK256 SWAP7 MLOAD AND SWAP1 DUP7 SLOAD AND OR DUP6 SSTORE MLOAD PUSH1 0x1 DUP6 ADD SSTORE MLOAD PUSH1 0x2 DUP5 ADD SSTORE MLOAD ISZERO ISZERO SWAP2 ADD SWAP1 PUSH1 0xFF DUP1 NOT DUP4 SLOAD AND SWAP2 ISZERO ISZERO AND OR SWAP1 SSTORE JUMP JUMPDEST PUSH1 0x40 MLOAD SWAP3 DUP4 MSTORE CALLER SWAP3 LOG2 DUP1 RETURN JUMPDEST PUSH1 0x40 MLOAD PUSH3 0x461BCD PUSH1 0xE5 SHL DUP2 MSTORE PUSH1 0x4 DUP2 ADD DUP4 SWAP1 MSTORE PUSH1 0x13 PUSH1 0x24 DUP3 ADD MSTORE PUSH19 0x416C72656164792068617665206120636F6465 PUSH1 0x68 SHL PUSH1 0x44 DUP3 ADD MSTORE PUSH1 0x64 SWAP1 REVERT JUMPDEST PUSH1 0x40 MLOAD PUSH3 0x461BCD PUSH1 0xE5 SHL DUP2 MSTORE PUSH1 0x4 DUP2 ADD DUP4 SWAP1 MSTORE PUSH1 0x12 PUSH1 0x24 DUP3 ADD MSTORE PUSH18 0x21B7B2329030B63932B0B23C903A30B5B2B7 PUSH1 0x71 SHL PUSH1 0x44 DUP3 ADD MSTORE PUSH1 0x64 SWAP1 REVERT JUMPDEST POP CALLVALUE PUSH2 0x3E7 JUMPI DUP1 PUSH1 0x3 NOT CALLDATASIZE ADD SLT PUSH2 0x3E7 JUMPI PUSH1 0x20 PUSH1 0x12 SLOAD PUSH1 0x40 MLOAD SWAP1 DUP2 MSTORE RETURN JUMPDEST POP CALLVALUE PUSH2 0x3E7 JUMPI DUP1 PUSH1 0x3 NOT CALLDATASIZE ADD SLT PUSH2 0x3E7 JUMPI PUSH1 0x20 PUSH1 0xC SLOAD PUSH1 0x40 MLOAD SWAP1 DUP2 MSTORE RETURN JUMPDEST POP CALLVALUE PUSH2 0x3E7 JUMPI DUP1 PUSH1 0x3 NOT CALLDATASIZE ADD SLT PUSH2 0x3E7 JUMPI PUSH1 0x20 PUSH1 0xD SLOAD PUSH1 0x40 MLOAD SWAP1 DUP2 MSTORE RETURN JUMPDEST POP CALLVALUE PUSH2 0x3E7 JUMPI DUP1 PUSH1 0x3 NOT CALLDATASIZE ADD SLT PUSH2 0x3E7 JUMPI PUSH1 0x20 PUSH1 0x3 SLOAD PUSH1 0x40 MLOAD SWAP1 DUP2 MSTORE RETURN JUMPDEST POP CALLVALUE PUSH2 0x3E7 JUMPI PUSH1 0x20 CALLDATASIZE PUSH1 0x3 NOT ADD SLT PUSH2 0x3E7 JUMPI PUSH1 0x80 SWAP1 PUSH1 0x40 PUSH2 0x1CED PUSH2 0x227F JUMP JUMPDEST SWAP2 DUP1 PUSH1 0x60 DUP4 MLOAD PUSH2 0x1CFC DUP2 PUSH2 0x24A9 JUMP JUMPDEST DUP3 DUP2 MSTORE DUP3 PUSH1 0x20 DUP3 ADD MSTORE DUP3 DUP6 DUP3 ADD MSTORE ADD MSTORE PUSH1 0x1 DUP1 PUSH1 0xA0 SHL SUB DUP1 SWAP4 AND DUP2 MSTORE PUSH1 0x18 PUSH1 0x20 MSTORE KECCAK256 SWAP1 PUSH1 0x40 MLOAD SWAP1 PUSH2 0x1D2C DUP3 PUSH2 0x24A9 JUMP JUMPDEST DUP3 SLOAD AND SWAP2 DUP3 DUP3 MSTORE PUSH1 0x1 DUP2 ADD SLOAD PUSH1 0x20 DUP4 ADD SWAP1 DUP2 MSTORE PUSH1 0x60 PUSH1 0xFF PUSH1 0x3 PUSH1 0x2 DUP6 ADD SLOAD SWAP5 PUSH1 0x40 DUP8 ADD SWAP6 DUP7 MSTORE ADD SLOAD AND SWAP4 ADD SWAP3 ISZERO ISZERO DUP4 MSTORE PUSH1 0x40 MLOAD SWAP4 DUP5 MSTORE MLOAD PUSH1 0x20 DUP5 ADD MSTORE MLOAD PUSH1 0x40 DUP4 ADD MSTORE MLOAD ISZERO ISZERO PUSH1 0x60 DUP3 ADD MSTORE RETURN JUMPDEST POP CALLVALUE PUSH2 0x3E7 JUMPI PUSH1 0x20 CALLDATASIZE PUSH1 0x3 NOT ADD SLT PUSH2 0x3E7 JUMPI PUSH1 0x4 CALLDATALOAD PUSH2 0x1D95 PUSH2 0x2451 JUMP JUMPDEST PUSH2 0x3E8 DUP2 GT PUSH2 0x1DA4 JUMPI PUSH1 0x3 SSTORE DUP1 RETURN JUMPDEST PUSH1 0x40 MLOAD PUSH3 0x461BCD PUSH1 0xE5 SHL DUP2 MSTORE PUSH1 0x20 PUSH1 0x4 DUP3 ADD MSTORE PUSH1 0x15 PUSH1 0x24 DUP3 ADD MSTORE PUSH21 0x4665652063616E6E6F742065786365656420313025 PUSH1 0x58 SHL PUSH1 0x44 DUP3 ADD MSTORE PUSH1 0x64 SWAP1 REVERT JUMPDEST POP CALLVALUE PUSH2 0x3E7 JUMPI PUSH1 0x20 CALLDATASIZE PUSH1 0x3 NOT ADD SLT PUSH2 0x3E7 JUMPI PUSH1 0x4 CALLDATALOAD DUP2 MSTORE PUSH1 0x13 PUSH1 0x20 MSTORE PUSH1 0x40 SWAP1 KECCAK256 DUP1 SLOAD SWAP1 PUSH1 0x1 DUP2 ADD SLOAD SWAP1 PUSH1 0xFF DUP3 AND SWAP2 DUP1 PUSH1 0x8 SHR PUSH1 0xFF AND SWAP1 PUSH1 0x2 DUP4 ADD SLOAD PUSH1 0x3 DUP5 ADD SLOAD PUSH1 0x4 DUP6 ADD SLOAD PUSH1 0x5 DUP7 ADD SLOAD SWAP1 PUSH1 0x6 DUP8 ADD SLOAD SWAP3 PUSH1 0x7 DUP9 ADD SLOAD SWAP5 PUSH1 0x8 DUP10 ADD SLOAD SWAP7 PUSH1 0x9 DUP11 ADD SLOAD PUSH1 0xFF AND SWAP9 PUSH1 0xA DUP12 ADD SLOAD SWAP11 PUSH1 0xB ADD SLOAD PUSH1 0xFF AND SWAP12 PUSH1 0x40 MLOAD SWAP14 DUP15 MSTORE DUP14 PUSH2 0x1E65 DUP3 PUSH2 0x2252 JUMP JUMPDEST PUSH1 0x20 ADD MSTORE PUSH2 0x1E72 DUP2 PUSH2 0x2252 JUMP JUMPDEST PUSH1 0x40 DUP14 ADD MSTORE PUSH1 0x60 DUP13 ADD SWAP1 PUSH1 0x10 SHR PUSH1 0xFF AND SWAP1 PUSH2 0x1E8C SWAP2 PUSH2 0x2272 JUMP JUMPDEST PUSH1 0x80 DUP12 ADD MSTORE PUSH1 0xA0 DUP11 ADD MSTORE PUSH1 0xC0 DUP10 ADD MSTORE PUSH1 0xE0 DUP9 ADD MSTORE PUSH2 0x100 DUP8 ADD MSTORE PUSH2 0x120 DUP7 ADD MSTORE PUSH2 0x140 DUP6 ADD MSTORE PUSH2 0x1EBB DUP2 PUSH2 0x2252 JUMP JUMPDEST PUSH2 0x160 DUP5 ADD MSTORE PUSH2 0x180 DUP4 ADD MSTORE ISZERO ISZERO PUSH2 0x1A0 DUP3 ADD MSTORE PUSH2 0x1C0 SWAP1 RETURN JUMPDEST POP CALLVALUE PUSH2 0x3E7 JUMPI PUSH2 0x1EE4 CALLDATASIZE PUSH2 0x2237 JUMP JUMPDEST SWAP1 PUSH2 0x1EED PUSH2 0x2451 JUMP JUMPDEST PUSH2 0x3E8 DUP2 GT PUSH2 0x1F42 JUMPI PUSH2 0x2328 DUP3 GT PUSH2 0x1F08 JUMPI PUSH1 0x5 SSTORE PUSH1 0x6 SSTORE DUP1 RETURN JUMPDEST PUSH1 0x40 MLOAD PUSH3 0x461BCD PUSH1 0xE5 SHL DUP2 MSTORE PUSH1 0x20 PUSH1 0x4 DUP3 ADD MSTORE PUSH1 0x12 PUSH1 0x24 DUP3 ADD MSTORE PUSH18 0xA8D0E4CAE6D0DED8C840E8DEDE40D0D2CED PUSH1 0x73 SHL PUSH1 0x44 DUP3 ADD MSTORE PUSH1 0x64 SWAP1 REVERT JUMPDEST PUSH1 0x40 MLOAD PUSH3 0x461BCD PUSH1 0xE5 SHL DUP2 MSTORE PUSH1 0x20 PUSH1 0x4 DUP3 ADD MSTORE PUSH1 0x17 PUSH1 0x24 DUP3 ADD MSTORE PUSH23 0x426F6E75732063616E6E6F742065786365656420313025 PUSH1 0x48 SHL PUSH1 0x44 DUP3 ADD MSTORE PUSH1 0x64 SWAP1 REVERT JUMPDEST POP CALLVALUE PUSH2 0x3E7 JUMPI PUSH1 0x20 SWAP1 DUP2 PUSH1 0x3 NOT CALLDATASIZE ADD SLT PUSH2 0x3E7 JUMPI PUSH1 0x4 CALLDATALOAD PUSH1 0x1D SLOAD DUP1 DUP3 LT PUSH1 0x0 EQ PUSH2 0x20B5 JUMPI POP SWAP1 JUMPDEST PUSH2 0x1FB1 DUP3 PUSH2 0x304E JUMP JUMPDEST SWAP2 PUSH2 0x1FBF PUSH1 0x40 MLOAD SWAP4 DUP5 PUSH2 0x2544 JUMP JUMPDEST DUP1 DUP4 MSTORE PUSH1 0x1F NOT PUSH2 0x1FCE DUP3 PUSH2 0x304E JUMP JUMPDEST ADD CALLDATASIZE DUP6 DUP6 ADD CALLDATACOPY PUSH2 0x1FDD DUP2 PUSH2 0x3065 JUMP JUMPDEST SWAP1 PUSH2 0x1FE7 DUP2 PUSH2 0x3065 JUMP JUMPDEST SWAP3 DUP1 JUMPDEST DUP3 DUP2 LT PUSH2 0x202D JUMPI PUSH2 0x2012 DUP7 PUSH2 0x10AC DUP8 PUSH2 0x201F DUP12 DUP10 PUSH1 0x40 MLOAD SWAP7 DUP8 SWAP7 PUSH1 0x60 DUP9 MSTORE PUSH1 0x60 DUP9 ADD SWAP1 PUSH2 0x21C6 JUMP JUMPDEST SWAP2 DUP7 DUP4 SUB SWAP1 DUP8 ADD MSTORE PUSH2 0x2203 JUMP JUMPDEST SWAP1 DUP4 DUP3 SUB PUSH1 0x40 DUP6 ADD MSTORE PUSH2 0x2203 JUMP JUMPDEST DUP1 PUSH2 0x203A PUSH2 0x20B0 SWAP3 PUSH2 0x23B1 JUMP JUMPDEST SWAP1 SLOAD PUSH1 0x3 SWAP2 PUSH1 0x1 PUSH1 0x1 PUSH1 0xA0 SHL SUB SWAP2 SWAP1 DUP4 SHL SHR DUP2 AND PUSH2 0x2058 DUP5 DUP12 PUSH2 0x3097 JUMP JUMPDEST MSTORE DUP1 PUSH2 0x2063 DUP5 PUSH2 0x23B1 JUMP JUMPDEST SWAP1 SLOAD SWAP1 DUP5 SHL SHR AND DUP6 MSTORE PUSH1 0x1C SWAP2 DUP3 DUP12 MSTORE PUSH1 0x2 PUSH1 0x40 DUP8 KECCAK256 ADD SLOAD PUSH2 0x2084 DUP6 DUP11 PUSH2 0x3097 JUMP JUMPDEST MSTORE PUSH2 0x208E DUP5 PUSH2 0x23B1 JUMP JUMPDEST SWAP1 SLOAD SWAP2 SHL SHR AND DUP5 MSTORE DUP9 MSTORE PUSH1 0x1 PUSH1 0x40 DUP5 KECCAK256 ADD SLOAD PUSH2 0x20AA DUP3 DUP9 PUSH2 0x3097 JUMP JUMPDEST MSTORE PUSH2 0x263F JUMP JUMPDEST PUSH2 0x1FEA JUMP JUMPDEST SWAP1 POP SWAP1 PUSH2 0x1FA8 JUMP JUMPDEST POP CALLVALUE PUSH2 0x3E7 JUMPI DUP1 PUSH1 0x3 NOT CALLDATASIZE ADD SLT PUSH2 0x3E7 JUMPI PUSH2 0x20D6 PUSH2 0x25E9 JUMP JUMPDEST CALLER DUP2 MSTORE PUSH1 0x1B PUSH1 0x20 MSTORE PUSH1 0x40 DUP2 KECCAK256 SLOAD DUP1 ISZERO PUSH2 0x2140 JUMPI CALLER DUP3 MSTORE PUSH1 0x1B PUSH1 0x20 MSTORE DUP2 PUSH1 0x40 DUP2 KECCAK256 SSTORE DUP2 DUP1 DUP1 DUP1 DUP5 CALLER GAS CALL PUSH2 0x2107 PUSH2 0x25AA JUMP JUMPDEST POP ISZERO PUSH2 0x1A70 JUMPI PUSH1 0x40 MLOAD SWAP1 DUP2 MSTORE PUSH32 0x98741ECF35C5D20A8ED68DBD8540500684864A6C98C2A41A5844D0B3A2357D43 PUSH1 0x20 CALLER SWAP3 LOG2 PUSH1 0x1 DUP2 SSTORE DUP1 RETURN JUMPDEST PUSH1 0x40 MLOAD PUSH3 0x461BCD PUSH1 0xE5 SHL DUP2 MSTORE PUSH1 0x20 PUSH1 0x4 DUP3 ADD MSTORE PUSH1 0x13 PUSH1 0x24 DUP3 ADD MSTORE PUSH19 0x4E6F207265776172647320746F20636C61696D PUSH1 0x68 SHL PUSH1 0x44 DUP3 ADD MSTORE PUSH1 0x64 SWAP1 REVERT JUMPDEST POP CALLVALUE PUSH2 0x3E7 JUMPI PUSH1 0x60 CALLDATASIZE PUSH1 0x3 NOT ADD SLT PUSH2 0x3E7 JUMPI PUSH2 0x2195 PUSH2 0x2451 JUMP JUMPDEST PUSH1 0x4 CALLDATALOAD PUSH1 0xE SSTORE PUSH1 0x24 CALLDATALOAD PUSH1 0xF SSTORE PUSH1 0x44 CALLDATALOAD PUSH1 0x10 SSTORE DUP1 RETURN JUMPDEST SWAP1 POP CALLVALUE PUSH2 0x101A JUMPI DUP2 PUSH1 0x3 NOT CALLDATASIZE ADD SLT PUSH2 0x101A JUMPI PUSH1 0x20 SWAP1 PUSH1 0x6 SLOAD DUP2 MSTORE RETURN JUMPDEST SWAP1 DUP2 MLOAD DUP1 DUP3 MSTORE PUSH1 0x20 DUP1 DUP1 SWAP4 ADD SWAP4 ADD SWAP2 PUSH1 0x0 JUMPDEST DUP3 DUP2 LT PUSH2 0x21E6 JUMPI POP POP POP POP SWAP1 JUMP JUMPDEST DUP4 MLOAD PUSH1 0x1 PUSH1 0x1 PUSH1 0xA0 SHL SUB AND DUP6 MSTORE SWAP4 DUP2 ADD SWAP4 SWAP3 DUP2 ADD SWAP3 PUSH1 0x1 ADD PUSH2 0x21D8 JUMP JUMPDEST SWAP1 DUP2 MLOAD DUP1 DUP3 MSTORE PUSH1 0x20 DUP1 DUP1 SWAP4 ADD SWAP4 ADD SWAP2 PUSH1 0x0 JUMPDEST DUP3 DUP2 LT PUSH2 0x2223 JUMPI POP POP POP POP SWAP1 JUMP JUMPDEST DUP4 MLOAD DUP6 MSTORE SWAP4 DUP2 ADD SWAP4 SWAP3 DUP2 ADD SWAP3 PUSH1 0x1 ADD PUSH2 0x2215 JUMP JUMPDEST PUSH1 0x40 SWAP1 PUSH1 0x3 NOT ADD SLT PUSH2 0x224D JUMPI PUSH1 0x4 CALLDATALOAD SWAP1 PUSH1 0x24 CALLDATALOAD SWAP1 JUMP JUMPDEST PUSH1 0x0 DUP1 REVERT JUMPDEST PUSH1 0x2 GT ISZERO PUSH2 0x225C JUMPI JUMP JUMPDEST PUSH4 0x4E487B71 PUSH1 0xE0 SHL PUSH1 0x0 MSTORE PUSH1 0x21 PUSH1 0x4 MSTORE PUSH1 0x24 PUSH1 0x0 REVERT JUMPDEST SWAP1 PUSH1 0x5 DUP3 LT ISZERO PUSH2 0x225C JUMPI MSTORE JUMP JUMPDEST PUSH1 0x4 CALLDATALOAD SWAP1 PUSH1 0x1 PUSH1 0x1 PUSH1 0xA0 SHL SUB DUP3 AND DUP3 SUB PUSH2 0x224D JUMPI JUMP JUMPDEST PUSH1 0x24 CALLDATALOAD SWAP1 PUSH1 0x1 PUSH1 0x1 PUSH1 0xA0 SHL SUB DUP3 AND DUP3 SUB PUSH2 0x224D JUMPI JUMP JUMPDEST SWAP2 DUP2 PUSH1 0x1F DUP5 ADD SLT ISZERO PUSH2 0x224D JUMPI DUP3 CALLDATALOAD SWAP2 PUSH1 0x1 PUSH1 0x1 PUSH1 0x40 SHL SUB DUP4 GT PUSH2 0x224D JUMPI PUSH1 0x20 DUP4 DUP2 DUP7 ADD SWAP6 ADD ADD GT PUSH2 0x224D JUMPI JUMP JUMPDEST PUSH1 0x40 SWAP1 PUSH1 0x3 NOT ADD SLT PUSH2 0x224D JUMPI PUSH1 0x4 CALLDATALOAD SWAP1 PUSH1 0x24 CALLDATALOAD PUSH1 0x2 DUP2 LT ISZERO PUSH2 0x224D JUMPI SWAP1 JUMP JUMPDEST DUP2 MLOAD DUP2 MSTORE PUSH1 0x20 DUP3 ADD MLOAD PUSH2 0x1C0 DUP3 ADD SWAP4 SWAP3 SWAP1 PUSH2 0x2311 DUP2 PUSH2 0x2252 JUMP JUMPDEST PUSH1 0x20 DUP4 ADD MSTORE PUSH1 0x40 DUP2 ADD MLOAD PUSH2 0x2324 DUP2 PUSH2 0x2252 JUMP JUMPDEST PUSH1 0x40 DUP4 ADD MSTORE PUSH2 0x233B PUSH1 0x60 DUP3 ADD MLOAD PUSH1 0x60 DUP5 ADD SWAP1 PUSH2 0x2272 JUMP JUMPDEST PUSH1 0x80 DUP2 ADD MLOAD PUSH1 0x80 DUP4 ADD MSTORE PUSH1 0xA0 DUP2 ADD MLOAD PUSH1 0xA0 DUP4 ADD MSTORE PUSH1 0xC0 DUP2 ADD MLOAD PUSH1 0xC0 DUP4 ADD MSTORE PUSH1 0xE0 DUP2 ADD MLOAD PUSH1 0xE0 DUP4 ADD MSTORE PUSH2 0x100 DUP1 DUP3 ADD MLOAD SWAP1 DUP4 ADD MSTORE PUSH2 0x120 DUP1 DUP3 ADD MLOAD SWAP1 DUP4 ADD MSTORE PUSH2 0x140 DUP1 DUP3 ADD MLOAD SWAP1 DUP4 ADD MSTORE PUSH2 0x160 DUP1 DUP3 ADD MLOAD SWAP1 PUSH2 0x2395 DUP3 PUSH2 0x2252 JUMP JUMPDEST DUP4 ADD MSTORE PUSH2 0x180 DUP1 DUP3 ADD MLOAD SWAP1 DUP4 ADD MSTORE PUSH2 0x1A0 DUP1 SWAP2 ADD MLOAD ISZERO ISZERO SWAP2 ADD MSTORE JUMP JUMPDEST PUSH1 0x1D SLOAD DUP2 LT ISZERO PUSH2 0x23CC JUMPI PUSH1 0x1D PUSH1 0x0 MSTORE PUSH1 0x20 PUSH1 0x0 KECCAK256 ADD SWAP1 PUSH1 0x0 SWAP1 JUMP JUMPDEST PUSH4 0x4E487B71 PUSH1 0xE0 SHL PUSH1 0x0 MSTORE PUSH1 0x32 PUSH1 0x4 MSTORE PUSH1 0x24 PUSH1 0x0 REVERT JUMPDEST DUP1 SLOAD DUP3 LT ISZERO PUSH2 0x23CC JUMPI PUSH1 0x0 MSTORE PUSH1 0x20 PUSH1 0x0 KECCAK256 ADD SWAP1 PUSH1 0x0 SWAP1 JUMP JUMPDEST PUSH1 0x60 SWAP1 PUSH1 0x3 NOT ADD SLT PUSH2 0x224D JUMPI PUSH1 0x4 CALLDATALOAD SWAP1 PUSH1 0x24 CALLDATALOAD PUSH1 0x1 PUSH1 0x1 PUSH1 0xA0 SHL SUB DUP2 AND DUP2 SUB PUSH2 0x224D JUMPI SWAP1 PUSH1 0x44 CALLDATALOAD PUSH1 0x2 DUP2 LT ISZERO PUSH2 0x224D JUMPI SWAP1 JUMP JUMPDEST DUP1 MLOAD DUP3 MSTORE PUSH1 0x20 DUP1 DUP3 ADD MLOAD ISZERO ISZERO SWAP1 DUP4 ADD MSTORE PUSH1 0x40 SWAP1 DUP2 ADD MLOAD PUSH1 0x1 PUSH1 0x1 PUSH1 0xA0 SHL SUB AND SWAP2 ADD MSTORE JUMP JUMPDEST PUSH1 0x1 SLOAD PUSH1 0x1 PUSH1 0x1 PUSH1 0xA0 SHL SUB AND CALLER SUB PUSH2 0x2465 JUMPI JUMP JUMPDEST PUSH1 0x64 PUSH1 0x40 MLOAD PUSH3 0x461BCD PUSH1 0xE5 SHL DUP2 MSTORE PUSH1 0x20 PUSH1 0x4 DUP3 ADD MSTORE PUSH1 0x20 PUSH1 0x24 DUP3 ADD MSTORE PUSH32 0x4F776E61626C653A2063616C6C6572206973206E6F7420746865206F776E6572 PUSH1 0x44 DUP3 ADD MSTORE REVERT JUMPDEST PUSH1 0x80 DUP2 ADD SWAP1 DUP2 LT PUSH1 0x1 PUSH1 0x1 PUSH1 0x40 SHL SUB DUP3 GT OR PUSH2 0xD6E JUMPI PUSH1 0x40 MSTORE JUMP JUMPDEST PUSH1 0xA0 DUP2 ADD SWAP1 DUP2 LT PUSH1 0x1 PUSH1 0x1 PUSH1 0x40 SHL SUB DUP3 GT OR PUSH2 0xD6E JUMPI PUSH1 0x40 MSTORE JUMP JUMPDEST PUSH2 0x1C0 DUP2 ADD SWAP1 DUP2 LT PUSH1 0x1 PUSH1 0x1 PUSH1 0x40 SHL SUB DUP3 GT OR PUSH2 0xD6E JUMPI PUSH1 0x40 MSTORE JUMP JUMPDEST PUSH1 0x1 PUSH1 0x1 PUSH1 0x40 SHL SUB DUP2 GT PUSH2 0xD6E JUMPI PUSH1 0x40 MSTORE JUMP JUMPDEST PUSH1 0x40 DUP2 ADD SWAP1 DUP2 LT PUSH1 0x1 PUSH1 0x1 PUSH1 0x40 SHL SUB DUP3 GT OR PUSH2 0xD6E JUMPI PUSH1 0x40 MSTORE JUMP JUMPDEST PUSH1 0x60 DUP2 ADD SWAP1 DUP2 LT PUSH1 0x1 PUSH1 0x1 PUSH1 0x40 SHL SUB DUP3 GT OR PUSH2 0xD6E JUMPI PUSH1 0x40 MSTORE JUMP JUMPDEST PUSH1 0x1F SWAP1 SWAP2 ADD PUSH1 0x1F NOT AND DUP2 ADD SWAP1 PUSH1 0x1 PUSH1 0x1 PUSH1 0x40 SHL SUB DUP3 GT SWAP1 DUP3 LT OR PUSH2 0xD6E JUMPI PUSH1 0x40 MSTORE JUMP JUMPDEST SWAP1 PUSH2 0x258C PUSH1 0x20 PUSH1 0x40 MLOAD DUP4 DUP2 SWAP5 DUP4 DUP4 ADD SWAP7 DUP8 CALLDATACOPY DUP2 ADD PUSH1 0x0 DUP4 DUP3 ADD MSTORE SUB DUP1 DUP5 MSTORE ADD DUP3 PUSH2 0x2544 JUMP JUMPDEST MLOAD SWAP1 KECCAK256 PUSH1 0x0 SWAP1 DUP2 MSTORE PUSH1 0x19 PUSH1 0x20 MSTORE PUSH1 0x40 SWAP1 KECCAK256 SLOAD PUSH1 0x1 PUSH1 0x1 PUSH1 0xA0 SHL SUB AND SWAP1 JUMP JUMPDEST RETURNDATASIZE ISZERO PUSH2 0x25E4 JUMPI RETURNDATASIZE SWAP1 PUSH1 0x1 PUSH1 0x1 PUSH1 0x40 SHL SUB DUP3 GT PUSH2 0xD6E JUMPI PUSH1 0x40 MLOAD SWAP2 PUSH2 0x25D8 PUSH1 0x1F DUP3 ADD PUSH1 0x1F NOT AND PUSH1 0x20 ADD DUP5 PUSH2 0x2544 JUMP JUMPDEST DUP3 MSTORE RETURNDATASIZE PUSH1 0x0 PUSH1 0x20 DUP5 ADD RETURNDATACOPY JUMP JUMPDEST PUSH1 0x60 SWAP1 JUMP JUMPDEST PUSH1 0x2 PUSH1 0x0 SLOAD EQ PUSH2 0x25FA JUMPI PUSH1 0x2 PUSH1 0x0 SSTORE JUMP JUMPDEST PUSH1 0x40 MLOAD PUSH3 0x461BCD PUSH1 0xE5 SHL DUP2 MSTORE PUSH1 0x20 PUSH1 0x4 DUP3 ADD MSTORE PUSH1 0x1F PUSH1 0x24 DUP3 ADD MSTORE PUSH32 0x5265656E7472616E637947756172643A207265656E7472616E742063616C6C00 PUSH1 0x44 DUP3 ADD MSTORE PUSH1 0x64 SWAP1 REVERT JUMPDEST PUSH1 0x0 NOT DUP2 EQ PUSH2 0x264E JUMPI PUSH1 0x1 ADD SWAP1 JUMP JUMPDEST PUSH4 0x4E487B71 PUSH1 0xE0 SHL PUSH1 0x0 MSTORE PUSH1 0x11 PUSH1 0x4 MSTORE PUSH1 0x24 PUSH1 0x0 REVERT JUMPDEST SWAP2 SWAP1 DUP3 ADD DUP1 SWAP3 GT PUSH2 0x264E JUMPI JUMP JUMPDEST PUSH1 0x5 DUP3 LT ISZERO PUSH2 0x225C JUMPI MSTORE JUMP JUMPDEST SWAP1 PUSH2 0x2687 DUP2 PUSH2 0x2252 JUMP JUMPDEST PUSH1 0xFF DUP1 NOT DUP4 SLOAD AND SWAP2 AND OR SWAP1 SSTORE JUMP JUMPDEST DUP2 DUP2 MUL SWAP3 SWAP2 DUP2 ISZERO SWAP2 DUP5 DIV EQ OR ISZERO PUSH2 0x264E JUMPI JUMP JUMPDEST DUP2 ISZERO PUSH2 0x26B2 JUMPI DIV SWAP1 JUMP JUMPDEST PUSH4 0x4E487B71 PUSH1 0xE0 SHL PUSH1 0x0 MSTORE PUSH1 0x12 PUSH1 0x4 MSTORE PUSH1 0x24 PUSH1 0x0 REVERT JUMPDEST SWAP2 SWAP1 DUP3 SUB SWAP2 DUP3 GT PUSH2 0x264E JUMPI JUMP JUMPDEST SWAP2 SWAP1 DUP3 SLOAD SWAP1 PUSH1 0x3 SHL SWAP2 PUSH1 0x1 DUP1 PUSH1 0xA0 SHL SUB DUP1 SWAP2 AND DUP4 SHL SWAP3 SHL NOT AND OR SWAP1 SSTORE JUMP JUMPDEST DUP1 ISZERO DUP1 ISZERO PUSH2 0x2902 JUMPI JUMPDEST PUSH2 0xFF8 JUMPI PUSH1 0x0 SWAP1 DUP1 DUP3 MSTORE PUSH1 0x13 PUSH1 0x20 MSTORE PUSH1 0x40 SWAP2 DUP3 DUP2 KECCAK256 SWAP1 PUSH1 0x1 SWAP2 DUP3 DUP2 ADD SWAP3 DUP4 SLOAD SWAP3 PUSH1 0xFF DUP5 PUSH1 0x10 SHR AND PUSH1 0x5 DUP2 LT ISZERO PUSH2 0x9B2 JUMPI DUP3 SUB PUSH2 0x28F1 JUMPI PUSH1 0x7 DUP4 ADD SLOAD TIMESTAMP LT PUSH2 0x28E0 JUMPI PUSH1 0x4 DUP4 ADD SWAP2 DUP3 SLOAD SWAP4 PUSH2 0x2755 PUSH1 0x5 DUP3 ADD SWAP6 DUP7 SLOAD SWAP1 PUSH2 0x2664 JUMP JUMPDEST SWAP3 PUSH1 0x2 DUP3 ADD SWAP7 DUP8 SLOAD SWAP5 DUP5 PUSH1 0xFF PUSH2 0x2771 PUSH1 0x3 DUP8 ADD SWAP9 DUP10 SLOAD SWAP1 PUSH2 0x2664 JUMP JUMPDEST SWAP4 PUSH1 0x8 SHR AND PUSH2 0x277F DUP2 PUSH2 0x2252 JUMP JUMPDEST SUB PUSH2 0x28D7 JUMPI PUSH1 0x10 SLOAD SWAP1 JUMPDEST PUSH1 0xE SLOAD GT SWAP2 DUP3 ISZERO PUSH2 0x28CD JUMPI JUMPDEST POP POP PUSH2 0x2888 JUMPI SWAP9 PUSH1 0xFF DUP1 PUSH1 0xE0 SWAP10 SWAP9 SWAP8 SWAP7 SWAP6 SWAP5 SWAP4 DUP13 PUSH32 0x8AB79F4C0E431955CD8B26254237E48BD01EE49391716594C2EE0EC505AA4D18 SWAP13 SWAP14 POP DUP3 DUP12 SLOAD AND PUSH2 0x27DA DUP2 PUSH2 0x2252 JUMP JUMPDEST PUSH2 0x2871 JUMPI DUP10 SLOAD DUP8 SLOAD GT PUSH2 0x286A JUMPI JUMPDEST SWAP5 JUMPDEST PUSH2 0x27F7 DUP7 PUSH1 0x9 DUP5 ADD PUSH2 0x267D JUMP JUMPDEST PUSH1 0xB DUP3 ADD SWAP1 DUP4 NOT DUP3 SLOAD AND OR SWAP1 SSTORE DUP10 SLOAD SWAP1 PUSH3 0x30000 PUSH3 0xFF0000 NOT DUP4 AND OR DUP1 SWAP12 SSTORE PUSH1 0x8 TIMESTAMP SWAP2 ADD SSTORE AND SWAP8 PUSH1 0x8 SHR AND SWAP6 SLOAD SWAP3 SLOAD SWAP4 SLOAD SWAP5 SLOAD SWAP6 DUP2 MLOAD SWAP8 PUSH2 0x2837 DUP2 PUSH2 0x2252 JUMP JUMPDEST DUP9 MSTORE PUSH2 0x2842 DUP2 PUSH2 0x2252 JUMP JUMPDEST PUSH1 0x20 DUP9 ADD MSTORE PUSH2 0x2850 DUP3 PUSH2 0x2252 JUMP JUMPDEST DUP7 ADD MSTORE PUSH1 0x60 DUP6 ADD MSTORE PUSH1 0x80 DUP5 ADD MSTORE PUSH1 0xA0 DUP4 ADD MSTORE PUSH1 0xC0 DUP3 ADD MSTORE LOG2 JUMP JUMPDEST POP DUP5 PUSH2 0x27E8 JUMP JUMPDEST DUP10 SLOAD DUP8 SLOAD LT PUSH2 0x2881 JUMPI JUMPDEST SWAP5 PUSH2 0x27EA JUMP JUMPDEST POP DUP5 PUSH2 0x287B JUMP JUMPDEST POP POP POP POP POP POP POP POP PUSH2 0x28CB SWAP2 MLOAD SWAP1 PUSH2 0x289F DUP3 PUSH2 0x250E JUMP JUMPDEST PUSH1 0x1A DUP3 MSTORE PUSH26 0x24B739BAB33334B1B4B2B73A103830B93A34B1B4B830BA34B7B7 PUSH1 0x31 SHL PUSH1 0x20 DUP4 ADD MSTORE PUSH2 0x2C01 JUMP JUMPDEST JUMP JUMPDEST LT SWAP1 POP CODESIZE DUP1 PUSH2 0x2795 JUMP JUMPDEST PUSH1 0xF SLOAD SWAP1 PUSH2 0x2789 JUMP JUMPDEST DUP7 MLOAD PUSH4 0x658AEAD3 PUSH1 0xE0 SHL DUP2 MSTORE PUSH1 0x4 SWAP1 REVERT JUMPDEST DUP7 MLOAD PUSH4 0x41D5C2CF PUSH1 0xE0 SHL DUP2 MSTORE PUSH1 0x4 SWAP1 REVERT JUMPDEST POP PUSH1 0x2 SLOAD DUP2 LT ISZERO PUSH2 0x26FC JUMP JUMPDEST DUP1 ISZERO DUP1 ISZERO PUSH2 0x2BF5 JUMPI JUMPDEST PUSH2 0xFF8 JUMPI PUSH1 0x0 DUP2 DUP2 MSTORE PUSH1 0x20 PUSH1 0x13 DUP2 MSTORE PUSH1 0x40 SWAP1 DUP2 DUP4 KECCAK256 SWAP3 PUSH1 0x14 DUP3 MSTORE DUP3 DUP2 KECCAK256 CALLER DUP3 MSTORE DUP3 MSTORE DUP3 DUP2 KECCAK256 PUSH2 0x2945 DUP8 PUSH2 0x2252 JUMP JUMPDEST DUP7 DUP3 MSTORE DUP3 MSTORE DUP3 DUP2 KECCAK256 SWAP1 DUP2 SLOAD SWAP5 DUP6 ISZERO PUSH2 0x2BE4 JUMPI PUSH1 0x1 SWAP1 DUP2 DUP5 ADD SWAP7 DUP8 SLOAD SWAP1 PUSH1 0xFF SWAP2 DUP3 DUP2 AND PUSH2 0x2BD3 JUMPI DUP3 PUSH1 0xB DUP6 ADD SLOAD AND ISZERO DUP1 PUSH2 0x2BB8 JUMPI JUMPDEST PUSH2 0x2B49 JUMPI POP POP DUP1 DUP4 DUP4 ADD SLOAD PUSH1 0x10 SHR AND PUSH1 0x5 DUP2 LT ISZERO PUSH2 0x2B35 JUMPI PUSH1 0x3 DUP2 EQ ISZERO SWAP1 DUP2 PUSH2 0x2B29 JUMPI JUMPDEST POP PUSH2 0x2B18 JUMPI PUSH1 0x9 DUP3 ADD DUP2 DUP2 SLOAD AND PUSH2 0x29B3 DUP2 PUSH2 0x2252 JUMP JUMPDEST PUSH2 0x29BC DUP13 PUSH2 0x2252 JUMP JUMPDEST DUP12 SUB PUSH2 0x2AEB JUMPI SLOAD AND PUSH2 0x29CD DUP2 PUSH2 0x2252 JUMP JUMPDEST PUSH2 0x2AE2 JUMPI PUSH1 0x2 ADD SLOAD JUMPDEST DUP4 SLOAD SWAP1 PUSH8 0xDE0B6B3A7640000 SWAP2 DUP3 DUP2 MUL SWAP1 DUP1 DUP3 DIV DUP5 EQ SWAP1 ISZERO OR ISZERO PUSH2 0x2ACE JUMPI PUSH2 0x2A04 DUP9 SWAP5 SWAP4 SWAP3 PUSH2 0x2A14 SWAP3 PUSH2 0x26A8 JUMP JUMPDEST DUP11 DUP7 MSTORE PUSH1 0x16 DUP9 MSTORE DUP5 DUP7 KECCAK256 SLOAD PUSH2 0x2695 JUMP JUMPDEST DIV SWAP7 DUP2 PUSH1 0xFF NOT DUP3 SLOAD AND OR SWAP1 SSTORE DUP7 PUSH2 0x2A9E JUMPI JUMPDEST SWAP2 PUSH1 0x2 SWAP3 CALLER DUP3 MSTORE PUSH1 0x1C DUP7 MSTORE DUP3 DUP3 KECCAK256 ADD PUSH2 0x2A3F DUP2 SLOAD PUSH2 0x263F JUMP JUMPDEST SWAP1 SSTORE CALLER DUP2 MSTORE PUSH1 0x1C DUP6 MSTORE KECCAK256 ADD PUSH2 0x2A55 DUP6 DUP3 SLOAD PUSH2 0x2664 JUMP JUMPDEST SWAP1 SSTORE PUSH2 0x2A60 CALLER PUSH2 0x2D2C JUMP JUMPDEST SLOAD SWAP1 DUP3 MLOAD SWAP6 PUSH2 0x2A6E DUP2 PUSH2 0x2252 JUMP JUMPDEST DUP7 MSTORE DUP6 ADD MSTORE DUP4 ADD MSTORE PUSH32 0xD6A2A5FA33ED09B7E0AD44C465D1D7CC1EBAC5FE4F8E9C6625C55A874855DB5F PUSH1 0x60 CALLER SWAP4 LOG3 JUMP JUMPDEST SWAP1 POP DUP2 DUP1 DUP1 DUP1 DUP10 CALLER GAS CALL PUSH2 0x2AB0 PUSH2 0x25AA JUMP JUMPDEST POP ISZERO PUSH2 0x2ABD JUMPI DUP5 SWAP1 PUSH2 0x2A26 JUMP JUMPDEST DUP5 MLOAD PUSH4 0x12171D83 PUSH1 0xE3 SHL DUP2 MSTORE PUSH1 0x4 SWAP1 REVERT JUMPDEST PUSH4 0x4E487B71 PUSH1 0xE0 SHL DUP6 MSTORE PUSH1 0x11 PUSH1 0x4 MSTORE PUSH1 0x24 DUP6 REVERT JUMPDEST PUSH1 0x3 ADD SLOAD PUSH2 0x29D6 JUMP JUMPDEST POP POP POP SWAP1 SWAP5 SWAP2 POP PUSH1 0x3 SWAP7 POP PUSH1 0x1C SWAP4 SWAP6 POP PUSH1 0xFF NOT DUP3 SLOAD AND OR SWAP1 SSTORE CALLER DUP4 MSTORE MSTORE KECCAK256 ADD PUSH2 0x2B14 DUP2 SLOAD PUSH2 0x263F JUMP JUMPDEST SWAP1 SSTORE JUMP JUMPDEST DUP7 MLOAD PUSH4 0x60829305 PUSH1 0xE1 SHL DUP2 MSTORE PUSH1 0x4 SWAP1 REVERT JUMPDEST PUSH1 0x4 SWAP2 POP EQ ISZERO CODESIZE PUSH2 0x299D JUMP JUMPDEST PUSH4 0x4E487B71 PUSH1 0xE0 SHL DUP6 MSTORE PUSH1 0x21 PUSH1 0x4 MSTORE PUSH1 0x24 DUP6 REVERT JUMPDEST SWAP3 POP SWAP7 SWAP8 SWAP4 SWAP5 POP POP PUSH1 0xFF NOT AND OR SWAP1 SSTORE DUP1 DUP1 DUP1 DUP6 CALLER GAS CALL PUSH2 0x2B67 PUSH2 0x25AA JUMP JUMPDEST POP ISZERO PUSH2 0x2BA7 JUMPI SWAP1 DUP3 SWAP2 PUSH32 0x96BE94F3CB4521868C06461D3A4197839DF4D896C7FB4362FC0E3BE356A11C12 SWAP4 MLOAD SWAP6 PUSH2 0x2B9D DUP2 PUSH2 0x2252 JUMP JUMPDEST DUP7 MSTORE DUP6 ADD MSTORE CALLER SWAP4 LOG3 JUMP JUMPDEST DUP3 MLOAD PUSH4 0x12171D83 PUSH1 0xE3 SHL DUP2 MSTORE PUSH1 0x4 SWAP1 REVERT JUMPDEST POP DUP3 DUP6 DUP6 ADD SLOAD PUSH1 0x10 SHR AND PUSH1 0x5 DUP2 LT ISZERO PUSH2 0xFD2 JUMPI PUSH1 0x4 EQ PUSH2 0x2979 JUMP JUMPDEST DUP9 MLOAD PUSH4 0xC8D9EAB PUSH1 0xE3 SHL DUP2 MSTORE PUSH1 0x4 SWAP1 REVERT JUMPDEST DUP5 MLOAD PUSH4 0x2F42CBDD PUSH1 0xE0 SHL DUP2 MSTORE PUSH1 0x4 SWAP1 REVERT JUMPDEST POP PUSH1 0x2 SLOAD DUP2 LT ISZERO PUSH2 0x2917 JUMP JUMPDEST SWAP1 PUSH1 0x0 DUP3 DUP2 MSTORE PUSH1 0x20 SWAP2 PUSH1 0x13 DUP4 MSTORE PUSH1 0x40 SWAP2 DUP3 DUP2 KECCAK256 PUSH1 0x16 DUP6 MSTORE DUP4 DUP3 KECCAK256 SLOAD PUSH2 0x2C29 PUSH1 0x3 SLOAD DUP1 SWAP3 PUSH2 0x2695 JUMP JUMPDEST PUSH2 0x2710 SWAP2 DUP3 SUB SWAP2 DUP3 GT PUSH2 0x2D18 JUMPI PUSH1 0xB SWAP3 SWAP2 PUSH2 0x2C43 SWAP2 PUSH2 0x26A8 JUMP JUMPDEST DUP8 DUP5 MSTORE PUSH1 0x16 DUP8 MSTORE DUP6 DUP5 KECCAK256 PUSH2 0x2C58 DUP3 DUP3 SLOAD PUSH2 0x2664 JUMP JUMPDEST SWAP1 SSTORE PUSH1 0x7 SLOAD SWAP1 DUP1 DUP3 LT ISZERO PUSH2 0x2D05 JUMPI JUMPDEST POP POP PUSH2 0x2C7C PUSH1 0x2 DUP3 ADD SLOAD PUSH1 0x3 DUP4 ADD SLOAD SWAP1 PUSH2 0x2664 JUMP JUMPDEST PUSH1 0xA DUP3 ADD SSTORE PUSH1 0x1 DUP2 ADD PUSH3 0x40000 PUSH3 0xFF0000 NOT DUP3 SLOAD AND OR SWAP1 SSTORE ADD PUSH1 0xFF NOT DUP2 SLOAD AND SWAP1 SSTORE DUP3 MLOAD SWAP4 DUP1 DUP6 MSTORE DUP3 MLOAD SWAP3 DUP4 DUP3 DUP8 ADD MSTORE DUP3 JUMPDEST DUP5 DUP2 LT PUSH2 0x2CF2 JUMPI POP POP POP SWAP3 DUP2 PUSH32 0xF023B047BE6C305859504186F8B03EE5A634F9AB472FF386D3B1DE9387C083E SWAP5 DUP5 DUP4 SWAP6 SWAP5 DUP5 ADD ADD MSTORE PUSH1 0x1F DUP1 NOT SWAP2 ADD AND DUP2 ADD SUB ADD SWAP1 LOG2 JUMP JUMPDEST DUP2 DUP2 ADD DUP4 ADD MLOAD DUP8 DUP3 ADD DUP8 ADD MSTORE DUP3 ADD PUSH2 0x2CAD JUMP JUMPDEST PUSH2 0x2D0E SWAP2 PUSH2 0x26C8 JUMP JUMPDEST PUSH1 0x7 SSTORE CODESIZE DUP1 PUSH2 0x2C67 JUMP JUMPDEST PUSH4 0x4E487B71 PUSH1 0xE0 SHL DUP5 MSTORE PUSH1 0x11 PUSH1 0x4 MSTORE PUSH1 0x24 DUP5 REVERT JUMPDEST SWAP1 PUSH1 0x1 DUP1 PUSH1 0xA0 SHL SUB SWAP2 DUP3 DUP2 AND SWAP3 PUSH1 0x0 SWAP3 DUP5 DUP5 MSTORE PUSH1 0x1C SWAP3 PUSH1 0x20 SWAP1 DUP5 DUP3 MSTORE PUSH1 0x2 SWAP1 PUSH1 0x40 SWAP1 DUP3 DUP3 DUP10 KECCAK256 ADD SLOAD SWAP1 DUP9 SWAP10 DUP10 DUP11 SWAP2 PUSH1 0x1D SLOAD SWAP3 JUMPDEST DUP4 DUP2 LT PUSH2 0x2F5E JUMPI JUMPDEST POP POP ISZERO PUSH2 0x2E7C JUMPI JUMPDEST POP POP POP SWAP7 JUMPDEST DUP1 ISZERO DUP1 ISZERO DUP1 PUSH2 0x2E19 JUMPI JUMPDEST ISZERO PUSH2 0x2E0E JUMPI PUSH1 0x0 NOT DUP3 ADD SWAP2 DUP1 DUP4 GT PUSH2 0x2DFA JUMPI PUSH2 0x2DCF PUSH2 0x2DD4 DUP9 PUSH2 0x2DE0 SWAP4 PUSH2 0x2DA4 DUP8 PUSH2 0x23B1 JUMP JUMPDEST SWAP4 SWAP1 SLOAD SWAP2 PUSH2 0x2DB1 DUP2 PUSH2 0x23B1 JUMP JUMPDEST SWAP7 SWAP1 SLOAD SWAP7 PUSH1 0x3 SWAP8 DUP7 PUSH2 0x2DC2 DUP14 PUSH2 0x23B1 JUMP JUMPDEST SWAP3 SWAP1 SWAP4 DUP12 SHL SHR AND SWAP2 PUSH2 0x26D5 JUMP JUMPDEST PUSH2 0x23B1 JUMP JUMPDEST SWAP4 SWAP1 SWAP5 SHL SHR AND SWAP2 PUSH2 0x26D5 JUMP JUMPDEST ISZERO PUSH2 0x2D74 JUMPI JUMPDEST PUSH4 0x4E487B71 PUSH1 0xE0 SHL DUP8 MSTORE PUSH1 0x11 PUSH1 0x4 MSTORE PUSH1 0x24 DUP8 REVERT JUMPDEST PUSH4 0x4E487B71 PUSH1 0xE0 SHL DUP10 MSTORE PUSH1 0x11 PUSH1 0x4 MSTORE PUSH1 0x24 DUP10 REVERT JUMPDEST POP POP POP POP SWAP4 POP POP POP POP JUMP JUMPDEST POP DUP6 PUSH2 0x2E24 DUP4 PUSH2 0x23B1 JUMP JUMPDEST SWAP2 SWAP1 SLOAD PUSH1 0x3 SWAP3 DUP4 SHL SHR AND DUP10 MSTORE DUP8 DUP6 MSTORE DUP4 DUP11 DUP11 KECCAK256 ADD SLOAD SWAP1 PUSH1 0x0 NOT DUP5 ADD DUP5 DUP2 GT PUSH2 0x2E68 JUMPI SWAP1 PUSH2 0x2E51 DUP10 SWAP3 PUSH2 0x23B1 JUMP JUMPDEST SWAP1 SLOAD SWAP2 SHL SHR AND DUP10 MSTORE DUP8 DUP6 MSTORE DUP4 DUP11 DUP11 KECCAK256 ADD SLOAD LT PUSH2 0x2D7E JUMP JUMPDEST PUSH4 0x4E487B71 PUSH1 0xE0 SHL DUP12 MSTORE PUSH1 0x11 PUSH1 0x4 MSTORE PUSH1 0x24 DUP12 REVERT JUMPDEST SWAP3 SWAP10 POP SWAP1 SWAP2 PUSH1 0x64 DUP2 LT ISZERO PUSH2 0x2EE8 JUMPI POP PUSH1 0x1D SLOAD SWAP1 SWAP2 POP PUSH1 0x1 PUSH1 0x40 SHL DUP2 LT ISZERO PUSH2 0x2ED4 JUMPI SWAP1 PUSH2 0x2EB1 DUP3 PUSH1 0x1 PUSH2 0x2EB7 SWAP5 ADD PUSH1 0x1D SSTORE PUSH2 0x23B1 JUMP JUMPDEST SWAP1 PUSH2 0x26D5 JUMP JUMPDEST PUSH1 0x1D SLOAD PUSH1 0x0 NOT DUP2 ADD SWAP1 DUP2 GT PUSH2 0x2DE6 JUMPI SWAP1 DUP5 SWAP2 SWAP8 JUMPDEST SWAP1 SWAP2 CODESIZE DUP1 PUSH2 0x2D6F JUMP JUMPDEST PUSH4 0x4E487B71 PUSH1 0xE0 SHL DUP9 MSTORE PUSH1 0x41 PUSH1 0x4 MSTORE PUSH1 0x24 DUP9 REVERT JUMPDEST PUSH1 0x0 NOT SWAP3 DUP2 DUP5 ADD SWAP2 DUP3 GT PUSH2 0x2F4A JUMPI DUP8 PUSH2 0x2F00 DUP4 PUSH2 0x23B1 JUMP JUMPDEST SWAP1 SLOAD SWAP1 PUSH1 0x3 SHL SHR AND DUP11 MSTORE DUP9 DUP7 MSTORE DUP5 DUP12 DUP12 KECCAK256 ADD SLOAD LT PUSH1 0x0 EQ PUSH2 0x2F3E JUMPI SWAP1 PUSH2 0x2EB1 PUSH2 0x2F28 SWAP3 PUSH2 0x23B1 JUMP JUMPDEST PUSH1 0x1D SLOAD SWAP1 DUP2 ADD SWAP1 DUP2 GT PUSH2 0x2DE6 JUMPI SWAP1 DUP5 SWAP2 SWAP8 PUSH2 0x2ECB JUMP JUMPDEST POP POP POP POP POP SWAP4 POP POP POP POP JUMP JUMPDEST PUSH4 0x4E487B71 PUSH1 0xE0 SHL DUP11 MSTORE PUSH1 0x11 PUSH1 0x4 MSTORE PUSH1 0x24 DUP11 REVERT JUMPDEST DUP2 DUP12 PUSH2 0x2F69 DUP4 PUSH2 0x23B1 JUMP JUMPDEST SWAP1 SLOAD SWAP1 PUSH1 0x3 SHL SHR AND EQ PUSH2 0x2F84 JUMPI PUSH2 0x2F7F SWAP1 PUSH2 0x263F JUMP JUMPDEST PUSH2 0x2D5F JUMP JUMPDEST SWAP13 POP POP POP PUSH1 0x1 CODESIZE DUP1 PUSH2 0x2D67 JUMP JUMPDEST PUSH1 0x40 MLOAD SWAP1 PUSH2 0x2F9E DUP3 PUSH2 0x24DF JUMP JUMPDEST DUP2 PUSH2 0x1A0 PUSH1 0x0 SWAP2 DUP3 DUP2 MSTORE DUP3 PUSH1 0x20 DUP3 ADD MSTORE DUP3 PUSH1 0x40 DUP3 ADD MSTORE DUP3 PUSH1 0x60 DUP3 ADD MSTORE DUP3 PUSH1 0x80 DUP3 ADD MSTORE DUP3 PUSH1 0xA0 DUP3 ADD MSTORE DUP3 PUSH1 0xC0 DUP3 ADD MSTORE DUP3 PUSH1 0xE0 DUP3 ADD MSTORE DUP3 PUSH2 0x100 DUP3 ADD MSTORE DUP3 PUSH2 0x120 DUP3 ADD MSTORE DUP3 PUSH2 0x140 DUP3 ADD MSTORE DUP3 PUSH2 0x160 DUP3 ADD MSTORE DUP3 PUSH2 0x180 DUP3 ADD MSTORE ADD MSTORE JUMP JUMPDEST PUSH1 0x40 MLOAD SWAP1 PUSH2 0x3006 DUP3 PUSH2 0x2529 JUMP JUMPDEST PUSH1 0x0 PUSH1 0x40 DUP4 DUP3 DUP2 MSTORE DUP3 PUSH1 0x20 DUP3 ADD MSTORE ADD MSTORE JUMP JUMPDEST SWAP1 PUSH1 0x40 MLOAD PUSH2 0x3025 DUP2 PUSH2 0x2529 JUMP JUMPDEST DUP3 SLOAD DUP2 MSTORE PUSH1 0x1 SWAP3 SWAP1 SWAP3 ADD SLOAD PUSH1 0xFF DUP2 AND ISZERO ISZERO PUSH1 0x20 DUP5 ADD MSTORE PUSH1 0x8 SHR PUSH1 0x1 PUSH1 0x1 PUSH1 0xA0 SHL SUB AND PUSH1 0x40 DUP4 ADD MSTORE JUMP JUMPDEST PUSH1 0x1 PUSH1 0x1 PUSH1 0x40 SHL SUB DUP2 GT PUSH2 0xD6E JUMPI PUSH1 0x5 SHL PUSH1 0x20 ADD SWAP1 JUMP JUMPDEST SWAP1 PUSH2 0x306F DUP3 PUSH2 0x304E JUMP JUMPDEST PUSH2 0x307C PUSH1 0x40 MLOAD SWAP2 DUP3 PUSH2 0x2544 JUMP JUMPDEST DUP3 DUP2 MSTORE DUP1 SWAP3 PUSH2 0x308D PUSH1 0x1F NOT SWAP2 PUSH2 0x304E JUMP JUMPDEST ADD SWAP1 PUSH1 0x20 CALLDATASIZE SWAP2 ADD CALLDATACOPY JUMP JUMPDEST DUP1 MLOAD DUP3 LT ISZERO PUSH2 0x23CC JUMPI PUSH1 0x20 SWAP2 PUSH1 0x5 SHL ADD ADD SWAP1 JUMP JUMPDEST SWAP1 SWAP2 DUP2 ISZERO DUP1 ISZERO PUSH2 0x316D JUMPI JUMPDEST PUSH2 0x3164 JUMPI PUSH2 0x314C PUSH2 0x3152 SWAP3 PUSH1 0xA PUSH2 0x3144 PUSH2 0x3157 SWAP8 PUSH1 0x0 SWAP4 DUP5 MSTORE PUSH1 0x13 PUSH1 0x20 MSTORE PUSH1 0x40 DUP5 KECCAK256 SWAP8 PUSH1 0x14 PUSH1 0x20 MSTORE PUSH1 0x40 DUP6 KECCAK256 SWAP1 PUSH1 0x1 DUP1 PUSH1 0xA0 SHL SUB AND DUP6 MSTORE PUSH1 0x20 MSTORE PUSH1 0x40 DUP5 KECCAK256 PUSH2 0x30FD DUP8 PUSH2 0x2252 JUMP JUMPDEST DUP7 DUP6 MSTORE PUSH1 0x20 MSTORE PUSH2 0x3111 DUP2 PUSH1 0x40 DUP7 KECCAK256 SLOAD PUSH2 0x2664 JUMP JUMPDEST SWAP6 PUSH2 0x312B PUSH2 0x2710 PUSH2 0x3124 PUSH1 0x3 SLOAD DUP6 PUSH2 0x2695 JUMP JUMPDEST DIV DUP4 PUSH2 0x26C8 JUMP JUMPDEST SWAP5 PUSH2 0x3135 DUP3 PUSH2 0x2252 JUMP JUMPDEST POP PUSH2 0x315A JUMPI PUSH1 0x2 DUP9 ADD SLOAD PUSH2 0x2664 JUMP JUMPDEST SWAP6 ADD SLOAD PUSH2 0x2664 JUMP JUMPDEST SWAP1 PUSH2 0x2695 JUMP JUMPDEST PUSH2 0x26A8 JUMP JUMPDEST SWAP1 JUMP JUMPDEST PUSH1 0x3 DUP9 ADD SLOAD PUSH2 0x2664 JUMP JUMPDEST POP POP POP POP PUSH1 0x0 SWAP1 JUMP JUMPDEST POP PUSH1 0x2 SLOAD DUP3 LT ISZERO PUSH2 0x30B6 JUMP JUMPDEST SWAP2 SWAP1 DUP3 ISZERO DUP1 ISZERO PUSH2 0x31EB JUMPI JUMPDEST PUSH2 0x31E3 JUMPI PUSH1 0x0 SWAP3 DUP4 MSTORE PUSH1 0x13 PUSH1 0x20 MSTORE PUSH1 0x40 DUP4 KECCAK256 SWAP1 PUSH2 0x31A0 DUP2 PUSH2 0x2252 JUMP JUMPDEST PUSH2 0x31D8 JUMPI PUSH1 0x2 DUP2 ADD SLOAD SWAP1 JUMPDEST DUP2 ISZERO PUSH2 0x31D4 JUMPI PUSH1 0xA ADD SLOAD PUSH2 0x2710 SWAP1 DUP2 DUP2 MUL SWAP2 DUP2 DUP4 DIV EQ SWAP1 ISZERO OR ISZERO PUSH2 0x2D18 JUMPI PUSH2 0x3157 SWAP3 SWAP4 POP PUSH2 0x26A8 JUMP JUMPDEST POP POP JUMP JUMPDEST PUSH1 0x3 DUP2 ADD SLOAD SWAP1 PUSH2 0x31AB JUMP JUMPDEST POP PUSH2 0x2710 SWAP2 POP JUMP JUMPDEST POP PUSH1 0x2 SLOAD DUP4 LT ISZERO PUSH2 0x3184 JUMP JUMPDEST DUP1 ISZERO DUP1 ISZERO PUSH2 0x324F JUMPI JUMPDEST PUSH2 0x3249 JUMPI PUSH1 0x0 SWAP1 DUP2 MSTORE PUSH1 0x13 PUSH1 0x20 MSTORE PUSH1 0x40 DUP2 KECCAK256 PUSH1 0xFF PUSH1 0x1 DUP3 ADD SLOAD PUSH1 0x10 SHR AND PUSH1 0x5 DUP2 LT ISZERO PUSH2 0x1820 JUMPI PUSH1 0x1 SUB PUSH2 0x3245 JUMPI PUSH1 0x7 ADD SLOAD DUP1 TIMESTAMP LT ISZERO PUSH2 0x3245 JUMPI PUSH2 0x3157 SWAP2 POP TIMESTAMP SWAP1 PUSH2 0x26C8 JUMP JUMPDEST POP SWAP1 JUMP JUMPDEST POP PUSH1 0x0 SWAP1 JUMP JUMPDEST POP PUSH1 0x2 SLOAD DUP2 LT ISZERO PUSH2 0x3200 JUMP JUMPDEST DUP1 ISZERO DUP1 ISZERO PUSH2 0x32E8 JUMPI JUMPDEST PUSH2 0x3249 JUMPI PUSH1 0x0 SWAP1 DUP2 MSTORE PUSH1 0x13 PUSH1 0x20 MSTORE PUSH1 0x40 DUP2 KECCAK256 SWAP1 PUSH1 0x1 DUP3 ADD SLOAD PUSH1 0xFF DUP2 PUSH1 0x10 SHR AND PUSH1 0x5 DUP2 LT ISZERO PUSH2 0x1820 JUMPI PUSH1 0x1 SUB PUSH2 0x32E2 JUMPI SWAP1 PUSH1 0xFF PUSH1 0x1 SWAP3 PUSH1 0x8 SHR AND SWAP1 PUSH2 0x32A7 DUP3 PUSH2 0x2252 JUMP JUMPDEST POP SUB PUSH2 0x32D4 JUMPI PUSH2 0x32C0 PUSH1 0x7 PUSH1 0xB SLOAD SWAP3 JUMPDEST ADD SLOAD SWAP2 DUP3 PUSH2 0x26C8 JUMP JUMPDEST TIMESTAMP LT ISZERO SWAP1 DUP2 PUSH2 0x32CD JUMPI POP SWAP1 JUMP JUMPDEST SWAP1 POP TIMESTAMP LT SWAP1 JUMP JUMPDEST PUSH2 0x32C0 PUSH1 0x7 PUSH1 0xA SLOAD SWAP3 PUSH2 0x32B7 JUMP JUMPDEST POP SWAP1 POP SWAP1 JUMP JUMPDEST POP PUSH1 0x2 SLOAD DUP2 LT ISZERO PUSH2 0x3264 JUMP JUMPDEST PUSH1 0x0 SWAP1 DUP2 MSTORE PUSH1 0x13 PUSH1 0x20 MSTORE PUSH1 0x40 DUP2 KECCAK256 PUSH1 0x3 PUSH1 0x2 DUP3 ADD SLOAD SWAP2 ADD SLOAD PUSH2 0x3316 DUP2 DUP4 PUSH2 0x2664 JUMP JUMPDEST SWAP4 DUP5 ISZERO PUSH2 0x337A JUMPI PUSH2 0x3326 DUP2 PUSH2 0x2252 JUMP JUMPDEST PUSH2 0x3372 JUMPI POP SWAP2 JUMPDEST PUSH2 0x2710 SWAP3 DUP4 DUP2 MUL SWAP1 DUP1 DUP3 DIV DUP6 EQ SWAP1 ISZERO OR ISZERO PUSH2 0x335E JUMPI SWAP1 PUSH2 0x334C SWAP2 PUSH2 0x26A8 JUMP JUMPDEST SWAP1 PUSH1 0x6 SLOAD DUP4 SUB SWAP3 DUP4 GT PUSH2 0x5D4 JUMPI POP LT SWAP1 JUMP JUMPDEST PUSH4 0x4E487B71 PUSH1 0xE0 SHL DUP4 MSTORE PUSH1 0x11 PUSH1 0x4 MSTORE PUSH1 0x24 DUP4 REVERT JUMPDEST SWAP1 POP SWAP2 PUSH2 0x332D JUMP JUMPDEST POP POP POP SWAP1 POP SWAP1 JUMP INVALID 0xE0 PC COINBASE 0xE5 LOG3 0x27 SWAP6 PUSH16 0x4A370D19D6E54C700A6B263864418270 PUSH16 0x8AC8738C35FB8A8BE0079C5316591413 PREVRANDAO 0xCD 0x1F 0xD0 LOG4 CALLCODE DUP5 NOT 0x49 PUSH32 0x9722A3DAAFE3B4186F6B6457E0A2646970667358221220092DD78F29A9635C1D SWAP2 DUP2 0xE3 0xE1 PC GT PUSH6 0x3895BA54179A DUP4 0xDF 0xC7 CALLCODE PUSH14 0x1EB3AD51D164736F6C6343000813 STOP CALLER "},"methodIdentifiers":{"FEE_DENOMINATOR()":"d73792a9","MAX_LEADERBOARD_SIZE()":"db877142","TOKEN_DECIMALS()":"5b7f415c","accumulatedFees()":"587f5ed7","breakDuration()":"34dee60b","calculatePotentialPayout(uint256,address,uint8,uint256)":"ec844654","claimAllWinnings(uint256)":"a5c44a65","claimReferralRewards()":"05eaab4b","claimWinnings(uint256,uint8)":"ec1b3ab5","createReferralCode(string)":"3e0183d1","currentClassicGameId()":"f5c045a6","currentUnderdogGameId()":"3a1af701","emergencyCancelGame(uint256)":"69f2372d","finalCallDuration()":"96ee4688","gameBalance(uint256)":"19be5ad0","gameBettors(uint256,uint256)":"ce1ea732","games(uint256)":"117a5b90","getAccumulatedFees()":"5df45a37","getCurrentClassicGame()":"85addbab","getCurrentMultiplier(uint256,uint8)":"67c15f6a","getCurrentUnderdogGame()":"a3d961eb","getGame(uint256)":"a2f77bcc","getGameBalance(uint256)":"9dad1da5","getGameBettors(uint256)":"bcbdecb7","getGameCount()":"e87c0ee6","getLeaderboard()":"6d763a6e","getLeaderboardWithStats(uint256)":"075aa970","getPendingReferralRewards(address)":"6e8ba9f6","getReferralInfo(address)":"21874ae2","getTimeRemaining(uint256)":"8cd42991","getUserBets(uint256,address)":"fa744dd3","getUserSideBet(uint256,address,uint8)":"e978f045","getUserStats(address)":"4e43603a","hasAnyBet(uint256,address)":"51bcefa1","isInFinalCall(uint256)":"6c3c1a45","isUnderdogSide(uint256,uint8)":"f18cdb65","leaderboard(uint256)":"bf368399","minPoolSize()":"c6fd03df","minTotalBets()":"3fa27625","nextGameId()":"b135bbb0","owner()":"8da5cb5b","pendingReferralRewards(address)":"3469336d","placeBet(uint256,uint8,string)":"c62d359c","platformFee()":"26232a2e","rapidBettingDuration()":"a5a99693","rapidBreakDuration()":"340cd9bb","rapidFinalCallDuration()":"7b51ac7a","rapidMinPoolSize()":"64be7a01","referralCodes(bytes32)":"7e644547","referralShareBps()":"47c9bc2d","referrals(address)":"9ca423b3","regularBettingDuration()":"75c14dd8","renounceOwnership()":"715018a6","resolveGame(uint256)":"b7a5a5b6","setMinParticipation(uint256,uint256,uint256)":"0293399c","setPlatformFee(uint256)":"12e8e2c3","setRapidBettingDuration(uint256)":"d824e03c","setReferralShareBps(uint256)":"d07e995b","setRegularBettingDuration(uint256)":"6b21bed6","setUnderdogBonus(uint256,uint256)":"113965c4","sideBets(uint256,address,uint8)":"e0ca49ae","startNewGame(uint8,uint8)":"d1153bc3","transferOwnership(address)":"f2fde38b","underdogBonusBps()":"60d6a941","underdogThreshold()":"0097dcc6","userReferralCode(address)":"618c506d","userStats(address)":"8a65d874","validateReferralCode(string)":"aa216845","withdrawFees()":"476343ee"}}}}}