{"contracts/TAO_Casino.sol":{"TAOCasino":{"abi":[{"inputs":[],"stateMutability":"nonpayable","type":"constructor"},{"inputs":[],"name":"AlreadyClaimed","type":"error"},{"inputs":[],"name":"BetTooSmall","type":"error"},{"inputs":[],"name":"BettingPeriodEnded","type":"error"},{"inputs":[],"name":"BettingPeriodNotEnded","type":"error"},{"inputs":[],"name":"ContractPaused","type":"error"},{"inputs":[],"name":"GameAlreadyResolved","type":"error"},{"inputs":[],"name":"GameNotFound","type":"error"},{"inputs":[],"name":"GameNotInBettingPhase","type":"error"},{"inputs":[],"name":"GameNotResolved","type":"error"},{"inputs":[],"name":"GameStillActive","type":"error"},{"inputs":[],"name":"InvalidBetAmount","type":"error"},{"inputs":[],"name":"LateBetRefundOnly","type":"error"},{"inputs":[],"name":"NoActiveGame","type":"error"},{"inputs":[],"name":"NoBetToClaim","type":"error"},{"inputs":[],"name":"TooManyBettors","type":"error"},{"inputs":[],"name":"TransferFailed","type":"error"},{"inputs":[],"name":"WaitingForRandomness","type":"error"},{"anonymous":false,"inputs":[{"indexed":true,"internalType":"uint256","name":"gameId","type":"uint256"},{"indexed":false,"internalType":"uint256","name":"actualEndBlock","type":"uint256"},{"indexed":false,"internalType":"uint256","name":"validRedPool","type":"uint256"},{"indexed":false,"internalType":"uint256","name":"validBluePool","type":"uint256"}],"name":"ActualEndBlockSet","type":"event"},{"anonymous":false,"inputs":[{"indexed":true,"internalType":"uint256","name":"gameId","type":"uint256"},{"indexed":true,"internalType":"address","name":"bettor","type":"address"},{"indexed":false,"internalType":"enum TAOCasino.Side","name":"side","type":"uint8"},{"indexed":false,"internalType":"uint256","name":"amount","type":"uint256"},{"indexed":false,"internalType":"uint256","name":"newPoolTotal","type":"uint256"}],"name":"BetPlaced","type":"event"},{"anonymous":false,"inputs":[{"indexed":false,"internalType":"bool","name":"isPaused","type":"bool"}],"name":"ContractPausedEvent","type":"event"},{"anonymous":false,"inputs":[{"indexed":true,"internalType":"uint256","name":"gameId","type":"uint256"},{"indexed":false,"internalType":"uint256","name":"platformFees","type":"uint256"}],"name":"FeesReleased","type":"event"},{"anonymous":false,"inputs":[{"indexed":true,"internalType":"uint256","name":"gameId","type":"uint256"},{"indexed":false,"internalType":"string","name":"reason","type":"string"}],"name":"GameCancelled","type":"event"},{"anonymous":false,"inputs":[{"indexed":true,"internalType":"uint256","name":"gameId","type":"uint256"},{"indexed":false,"internalType":"uint256","name":"startBlock","type":"uint256"},{"indexed":false,"internalType":"uint256","name":"endBlock","type":"uint256"}],"name":"GameCreated","type":"event"},{"anonymous":false,"inputs":[{"indexed":true,"internalType":"uint256","name":"gameId","type":"uint256"},{"indexed":false,"internalType":"enum TAOCasino.Side","name":"winningSide","type":"uint8"},{"indexed":false,"internalType":"uint256","name":"redPool","type":"uint256"},{"indexed":false,"internalType":"uint256","name":"bluePool","type":"uint256"},{"indexed":false,"internalType":"uint256","name":"redBettors","type":"uint256"},{"indexed":false,"internalType":"uint256","name":"blueBettors","type":"uint256"}],"name":"GameResolved","type":"event"},{"anonymous":false,"inputs":[{"indexed":true,"internalType":"uint256","name":"gameId","type":"uint256"},{"indexed":false,"internalType":"uint256","name":"redPool","type":"uint256"},{"indexed":false,"internalType":"uint256","name":"bluePool","type":"uint256"}],"name":"GameTied","type":"event"},{"anonymous":false,"inputs":[{"indexed":true,"internalType":"uint256","name":"gameId","type":"uint256"},{"indexed":true,"internalType":"address","name":"bettor","type":"address"},{"indexed":false,"internalType":"enum TAOCasino.Side","name":"side","type":"uint8"},{"indexed":false,"internalType":"uint256","name":"amount","type":"uint256"}],"name":"LateBetRefunded","type":"event"},{"anonymous":false,"inputs":[{"indexed":true,"internalType":"address","name":"previousOwner","type":"address"},{"indexed":true,"internalType":"address","name":"newOwner","type":"address"}],"name":"OwnershipTransferred","type":"event"},{"anonymous":false,"inputs":[{"indexed":true,"internalType":"uint256","name":"gameId","type":"uint256"},{"indexed":false,"internalType":"uint256","name":"randomnessBlock","type":"uint256"}],"name":"RandomnessCommitted","type":"event"},{"anonymous":false,"inputs":[{"indexed":true,"internalType":"uint256","name":"gameId","type":"uint256"},{"indexed":true,"internalType":"address","name":"bettor","type":"address"},{"indexed":false,"internalType":"enum TAOCasino.Side","name":"side","type":"uint8"},{"indexed":false,"internalType":"uint256","name":"amount","type":"uint256"}],"name":"RefundClaimed","type":"event"},{"anonymous":false,"inputs":[{"indexed":true,"internalType":"uint256","name":"gameId","type":"uint256"},{"indexed":true,"internalType":"address","name":"bettor","type":"address"},{"indexed":false,"internalType":"enum TAOCasino.Side","name":"side","type":"uint8"},{"indexed":false,"internalType":"uint256","name":"betAmount","type":"uint256"},{"indexed":false,"internalType":"uint256","name":"winnings","type":"uint256"}],"name":"WinningsClaimed","type":"event"},{"inputs":[],"name":"BETTING_BLOCKS","outputs":[{"internalType":"uint256","name":"","type":"uint256"}],"stateMutability":"view","type":"function"},{"inputs":[],"name":"FEE_DENOMINATOR","outputs":[{"internalType":"uint256","name":"","type":"uint256"}],"stateMutability":"view","type":"function"},{"inputs":[],"name":"FINAL_CALL_BLOCKS","outputs":[{"internalType":"uint256","name":"","type":"uint256"}],"stateMutability":"view","type":"function"},{"inputs":[],"name":"MAX_BETTORS_PER_GAME","outputs":[{"internalType":"uint256","name":"","type":"uint256"}],"stateMutability":"view","type":"function"},{"inputs":[],"name":"MAX_LEADERBOARD_SIZE","outputs":[{"internalType":"uint256","name":"","type":"uint256"}],"stateMutability":"view","type":"function"},{"inputs":[],"name":"MIN_BET_AMOUNT","outputs":[{"internalType":"uint256","name":"","type":"uint256"}],"stateMutability":"view","type":"function"},{"inputs":[],"name":"MIN_POOL_SIZE","outputs":[{"internalType":"uint256","name":"","type":"uint256"}],"stateMutability":"view","type":"function"},{"inputs":[],"name":"MIN_TOTAL_BETS","outputs":[{"internalType":"uint256","name":"","type":"uint256"}],"stateMutability":"view","type":"function"},{"inputs":[],"name":"PLATFORM_FEE","outputs":[{"internalType":"uint256","name":"","type":"uint256"}],"stateMutability":"view","type":"function"},{"inputs":[],"name":"RANDOMNESS_DELAY_BLOCKS","outputs":[{"internalType":"uint256","name":"","type":"uint256"}],"stateMutability":"view","type":"function"},{"inputs":[],"name":"accumulatedFees","outputs":[{"internalType":"uint256","name":"","type":"uint256"}],"stateMutability":"view","type":"function"},{"inputs":[{"internalType":"uint256","name":"_gameId","type":"uint256"},{"internalType":"address","name":"_user","type":"address"},{"internalType":"enum TAOCasino.Side","name":"_side","type":"uint8"},{"internalType":"uint256","name":"_amount","type":"uint256"}],"name":"calculatePotentialPayout","outputs":[{"internalType":"uint256","name":"","type":"uint256"}],"stateMutability":"view","type":"function"},{"inputs":[{"internalType":"uint256","name":"_gameId","type":"uint256"}],"name":"claimAllWinnings","outputs":[],"stateMutability":"nonpayable","type":"function"},{"inputs":[{"internalType":"uint256","name":"_gameId","type":"uint256"},{"internalType":"enum TAOCasino.Side","name":"_side","type":"uint8"}],"name":"claimWinnings","outputs":[],"stateMutability":"nonpayable","type":"function"},{"inputs":[],"name":"currentGameId","outputs":[{"internalType":"uint256","name":"","type":"uint256"}],"stateMutability":"view","type":"function"},{"inputs":[{"internalType":"uint256","name":"","type":"uint256"}],"name":"gameBalance","outputs":[{"internalType":"uint256","name":"","type":"uint256"}],"stateMutability":"view","type":"function"},{"inputs":[{"internalType":"uint256","name":"","type":"uint256"},{"internalType":"uint256","name":"","type":"uint256"}],"name":"gameBettors","outputs":[{"internalType":"address","name":"","type":"address"}],"stateMutability":"view","type":"function"},{"inputs":[{"internalType":"uint256","name":"","type":"uint256"}],"name":"gameFees","outputs":[{"internalType":"uint256","name":"","type":"uint256"}],"stateMutability":"view","type":"function"},{"inputs":[{"internalType":"uint256","name":"","type":"uint256"}],"name":"games","outputs":[{"internalType":"uint256","name":"id","type":"uint256"},{"internalType":"enum TAOCasino.GamePhase","name":"phase","type":"uint8"},{"internalType":"uint256","name":"redPool","type":"uint256"},{"internalType":"uint256","name":"bluePool","type":"uint256"},{"internalType":"uint256","name":"redBettors","type":"uint256"},{"internalType":"uint256","name":"blueBettors","type":"uint256"},{"internalType":"uint256","name":"startBlock","type":"uint256"},{"internalType":"uint256","name":"endBlock","type":"uint256"},{"internalType":"uint256","name":"resolvedBlock","type":"uint256"},{"internalType":"enum TAOCasino.Side","name":"winningSide","type":"uint8"},{"internalType":"uint256","name":"totalLiquidity","type":"uint256"},{"internalType":"bool","name":"hasWinner","type":"bool"},{"internalType":"uint256","name":"randomnessBlock","type":"uint256"},{"internalType":"uint256","name":"actualEndBlock","type":"uint256"},{"internalType":"uint256","name":"validRedPool","type":"uint256"},{"internalType":"uint256","name":"validBluePool","type":"uint256"},{"internalType":"uint256","name":"validLiquidity","type":"uint256"}],"stateMutability":"view","type":"function"},{"inputs":[],"name":"getAccumulatedFees","outputs":[{"internalType":"uint256","name":"","type":"uint256"}],"stateMutability":"view","type":"function"},{"inputs":[{"internalType":"uint256","name":"_gameId","type":"uint256"}],"name":"getBlocksRemaining","outputs":[{"internalType":"uint256","name":"","type":"uint256"}],"stateMutability":"view","type":"function"},{"inputs":[],"name":"getCurrentGame","outputs":[{"components":[{"internalType":"uint256","name":"id","type":"uint256"},{"internalType":"enum TAOCasino.GamePhase","name":"phase","type":"uint8"},{"internalType":"uint256","name":"redPool","type":"uint256"},{"internalType":"uint256","name":"bluePool","type":"uint256"},{"internalType":"uint256","name":"redBettors","type":"uint256"},{"internalType":"uint256","name":"blueBettors","type":"uint256"},{"internalType":"uint256","name":"startBlock","type":"uint256"},{"internalType":"uint256","name":"endBlock","type":"uint256"},{"internalType":"uint256","name":"resolvedBlock","type":"uint256"},{"internalType":"enum TAOCasino.Side","name":"winningSide","type":"uint8"},{"internalType":"uint256","name":"totalLiquidity","type":"uint256"},{"internalType":"bool","name":"hasWinner","type":"bool"},{"internalType":"uint256","name":"randomnessBlock","type":"uint256"},{"internalType":"uint256","name":"actualEndBlock","type":"uint256"},{"internalType":"uint256","name":"validRedPool","type":"uint256"},{"internalType":"uint256","name":"validBluePool","type":"uint256"},{"internalType":"uint256","name":"validLiquidity","type":"uint256"}],"internalType":"struct TAOCasino.Game","name":"","type":"tuple"}],"stateMutability":"view","type":"function"},{"inputs":[{"internalType":"uint256","name":"_gameId","type":"uint256"},{"internalType":"enum TAOCasino.Side","name":"_side","type":"uint8"}],"name":"getCurrentMultiplier","outputs":[{"internalType":"uint256","name":"","type":"uint256"}],"stateMutability":"view","type":"function"},{"inputs":[{"internalType":"uint256","name":"_gameId","type":"uint256"}],"name":"getGame","outputs":[{"components":[{"internalType":"uint256","name":"id","type":"uint256"},{"internalType":"enum TAOCasino.GamePhase","name":"phase","type":"uint8"},{"internalType":"uint256","name":"redPool","type":"uint256"},{"internalType":"uint256","name":"bluePool","type":"uint256"},{"internalType":"uint256","name":"redBettors","type":"uint256"},{"internalType":"uint256","name":"blueBettors","type":"uint256"},{"internalType":"uint256","name":"startBlock","type":"uint256"},{"internalType":"uint256","name":"endBlock","type":"uint256"},{"internalType":"uint256","name":"resolvedBlock","type":"uint256"},{"internalType":"enum TAOCasino.Side","name":"winningSide","type":"uint8"},{"internalType":"uint256","name":"totalLiquidity","type":"uint256"},{"internalType":"bool","name":"hasWinner","type":"bool"},{"internalType":"uint256","name":"randomnessBlock","type":"uint256"},{"internalType":"uint256","name":"actualEndBlock","type":"uint256"},{"internalType":"uint256","name":"validRedPool","type":"uint256"},{"internalType":"uint256","name":"validBluePool","type":"uint256"},{"internalType":"uint256","name":"validLiquidity","type":"uint256"}],"internalType":"struct TAOCasino.Game","name":"","type":"tuple"}],"stateMutability":"view","type":"function"},{"inputs":[{"internalType":"uint256","name":"_gameId","type":"uint256"}],"name":"getGameBalance","outputs":[{"internalType":"uint256","name":"","type":"uint256"}],"stateMutability":"view","type":"function"},{"inputs":[{"internalType":"uint256","name":"_gameId","type":"uint256"}],"name":"getGameBettors","outputs":[{"internalType":"address[]","name":"","type":"address[]"}],"stateMutability":"view","type":"function"},{"inputs":[],"name":"getGameCount","outputs":[{"internalType":"uint256","name":"","type":"uint256"}],"stateMutability":"view","type":"function"},{"inputs":[{"internalType":"uint256","name":"_gameId","type":"uint256"}],"name":"getGameFees","outputs":[{"internalType":"uint256","name":"","type":"uint256"}],"stateMutability":"view","type":"function"},{"inputs":[],"name":"getLeaderboard","outputs":[{"internalType":"address[]","name":"","type":"address[]"}],"stateMutability":"view","type":"function"},{"inputs":[{"internalType":"uint256","name":"_limit","type":"uint256"}],"name":"getLeaderboardWithStats","outputs":[{"internalType":"address[]","name":"addresses","type":"address[]"},{"internalType":"uint256[]","name":"winnings","type":"uint256[]"},{"internalType":"uint256[]","name":"wins","type":"uint256[]"}],"stateMutability":"view","type":"function"},{"inputs":[{"internalType":"uint256","name":"_gameId","type":"uint256"}],"name":"getResolutionStatus","outputs":[{"internalType":"enum TAOCasino.GamePhase","name":"phase","type":"uint8"},{"internalType":"uint256","name":"randomnessBlock","type":"uint256"},{"internalType":"uint256","name":"actualEndBlock","type":"uint256"},{"internalType":"bool","name":"canFinalize","type":"bool"}],"stateMutability":"view","type":"function"},{"inputs":[{"internalType":"uint256","name":"_gameId","type":"uint256"},{"internalType":"address","name":"_user","type":"address"}],"name":"getUserBets","outputs":[{"components":[{"components":[{"internalType":"uint256","name":"amount","type":"uint256"},{"internalType":"uint256","name":"placedAtBlock","type":"uint256"},{"internalType":"bool","name":"claimed","type":"bool"},{"internalType":"bool","name":"isLateBet","type":"bool"}],"internalType":"struct TAOCasino.SideBet","name":"redBet","type":"tuple"},{"components":[{"internalType":"uint256","name":"amount","type":"uint256"},{"internalType":"uint256","name":"placedAtBlock","type":"uint256"},{"internalType":"bool","name":"claimed","type":"bool"},{"internalType":"bool","name":"isLateBet","type":"bool"}],"internalType":"struct TAOCasino.SideBet","name":"blueBet","type":"tuple"}],"internalType":"struct TAOCasino.UserBets","name":"","type":"tuple"}],"stateMutability":"view","type":"function"},{"inputs":[{"internalType":"uint256","name":"_gameId","type":"uint256"},{"internalType":"address","name":"_user","type":"address"},{"internalType":"enum TAOCasino.Side","name":"_side","type":"uint8"}],"name":"getUserSideBet","outputs":[{"components":[{"internalType":"uint256","name":"amount","type":"uint256"},{"internalType":"uint256","name":"placedAtBlock","type":"uint256"},{"internalType":"bool","name":"claimed","type":"bool"},{"internalType":"bool","name":"isLateBet","type":"bool"}],"internalType":"struct TAOCasino.SideBet","name":"","type":"tuple"}],"stateMutability":"view","type":"function"},{"inputs":[{"internalType":"address","name":"_user","type":"address"}],"name":"getUserStats","outputs":[{"components":[{"internalType":"uint256","name":"totalBets","type":"uint256"},{"internalType":"uint256","name":"totalWins","type":"uint256"},{"internalType":"uint256","name":"totalWinnings","type":"uint256"},{"internalType":"uint256","name":"totalLosses","type":"uint256"}],"internalType":"struct TAOCasino.UserStats","name":"","type":"tuple"}],"stateMutability":"view","type":"function"},{"inputs":[{"internalType":"uint256","name":"","type":"uint256"},{"internalType":"address","name":"","type":"address"}],"name":"hasAnyBet","outputs":[{"internalType":"bool","name":"","type":"bool"}],"stateMutability":"view","type":"function"},{"inputs":[{"internalType":"uint256","name":"_gameId","type":"uint256"},{"internalType":"address","name":"_user","type":"address"},{"internalType":"enum TAOCasino.Side","name":"_side","type":"uint8"}],"name":"isBetLate","outputs":[{"internalType":"bool","name":"","type":"bool"}],"stateMutability":"view","type":"function"},{"inputs":[{"internalType":"uint256","name":"_gameId","type":"uint256"}],"name":"isInFinalCall","outputs":[{"internalType":"bool","name":"","type":"bool"}],"stateMutability":"view","type":"function"},{"inputs":[{"internalType":"uint256","name":"","type":"uint256"}],"name":"leaderboard","outputs":[{"internalType":"address","name":"","type":"address"}],"stateMutability":"view","type":"function"},{"inputs":[],"name":"nextGameId","outputs":[{"internalType":"uint256","name":"","type":"uint256"}],"stateMutability":"view","type":"function"},{"inputs":[],"name":"owner","outputs":[{"internalType":"address","name":"","type":"address"}],"stateMutability":"view","type":"function"},{"inputs":[],"name":"paused","outputs":[{"internalType":"bool","name":"","type":"bool"}],"stateMutability":"view","type":"function"},{"inputs":[{"internalType":"uint256","name":"_gameId","type":"uint256"},{"internalType":"enum TAOCasino.Side","name":"_side","type":"uint8"}],"name":"placeBet","outputs":[],"stateMutability":"payable","type":"function"},{"inputs":[],"name":"renounceOwnership","outputs":[],"stateMutability":"nonpayable","type":"function"},{"inputs":[{"internalType":"uint256","name":"_gameId","type":"uint256"}],"name":"resolveGame","outputs":[],"stateMutability":"nonpayable","type":"function"},{"inputs":[{"internalType":"bool","name":"_paused","type":"bool"}],"name":"setPaused","outputs":[],"stateMutability":"nonpayable","type":"function"},{"inputs":[{"internalType":"uint256","name":"","type":"uint256"},{"internalType":"address","name":"","type":"address"},{"internalType":"enum TAOCasino.Side","name":"","type":"uint8"}],"name":"sideBets","outputs":[{"internalType":"uint256","name":"amount","type":"uint256"},{"internalType":"uint256","name":"placedAtBlock","type":"uint256"},{"internalType":"bool","name":"claimed","type":"bool"},{"internalType":"bool","name":"isLateBet","type":"bool"}],"stateMutability":"view","type":"function"},{"inputs":[],"name":"startNewGame","outputs":[],"stateMutability":"nonpayable","type":"function"},{"inputs":[{"internalType":"address","name":"newOwner","type":"address"}],"name":"transferOwnership","outputs":[],"stateMutability":"nonpayable","type":"function"},{"inputs":[{"internalType":"address","name":"","type":"address"}],"name":"userStats","outputs":[{"internalType":"uint256","name":"totalBets","type":"uint256"},{"internalType":"uint256","name":"totalWins","type":"uint256"},{"internalType":"uint256","name":"totalWinnings","type":"uint256"},{"internalType":"uint256","name":"totalLosses","type":"uint256"}],"stateMutability":"view","type":"function"},{"inputs":[],"name":"withdrawFees","outputs":[],"stateMutability":"nonpayable","type":"function"}],"evm":{"bytecode":{"linkReferences":{},"object":"6080806040523461007257600160008181558154336001600160a01b0319821681179093556001600160a01b0316907f8be0079c531659141344cd1fd0a4f28419497f9722a3daafe3b4186f6b6457e09080a36001600255600060035560ff196005541660055561319e90816100788239f35b600080fdfe60e0604052600436101561001257600080fd5b60003560e01c806303edf9141461130a578063075aa970146111ce5780630c6d388b146111b2578063117a5b901461108557806316c38b3c1461102357806319be5ad014610906578063232ccf7d14610fd757806334fbc9a114610fbb5780634493353914610f9f578063476343ee14610f43578063482d51e014610cfb5780634e43603a14610c7257806351bcefa114610c25578063536a3ddc14610c07578063587f5ed714610bc65780635c975abb14610be45780635df45a3714610bc65780636475e3d314610ba4578063674943ad14610b8657806367c15f6a14610b6d5780636c3c1a4514610b455780636d763a6e14610ae1578063715018a614610a965780637dd7f49214610a0a5780638a65d874146109ae5780638da5cb5b146109855780638ed6f26c14610545578063968d901b146109325780639dad1da514610906578063a2f77bcc146107d0578063a5c44a6514610704578063afc250a714610302578063b135bbb0146106e6578063b7a5a5b6146106c8578063baf15dd1146106ab578063bcbdecb714610621578063bdffaf7b146105fe578063bf368399146105d5578063bf9607c6146105b9578063ce1ea73214610567578063d73792a91461054a578063db87714214610545578063e0ca49ae146104d9578063e87c0ee614610498578063e978f04514610445578063ec1b3ab51461041f578063ec844654146103df578063f2fde38b1461032e578063f95547fa146103025763fa744dd31461024257600080fd5b346102fd5760403660031901126102fd576101006004356102fb6102646116ba565b604051906102718261191b565b610279612dca565b8252610283612dca565b60209283015260009384526007825260408085206001600160a01b03929092168552908252808420848052825280842060018552938190209051936102dc91906102d5906102d08761191b565b612def565b8552612def565b9083019081526102f0604051809451611849565b516080830190611849565bf35b600080fd5b346102fd5760203660031901126102fd57600435600052600a6020526020604060002054604051908152f35b346102fd5760203660031901126102fd576103476116a4565b61034f611870565b6001600160a01b0390811690811561038b57600180546001600160a01b031981168417909155166000805160206130c9833981519152600080a3005b60405162461bcd60e51b815260206004820152602660248201527f4f776e61626c653a206e6577206f776e657220697320746865207a65726f206160448201526564647265737360d01b6064820152608490fd5b346102fd5760803660031901126102fd576103f86116ba565b60443560028110156102fd576020916104179160643591600435612e86565b604051908152f35b346102fd5761043e610430366115fa565b90610439611a04565b61272b565b6001600055005b346102fd57608061048b6102d061045b366116d0565b91610464612dca565b50600052600760205260406000209060018060a01b03166000526020526040600020611831565b6102fb6040518092611849565b346102fd5760003660031901126102fd5760025460001981019081116104c357602090604051908152f35b634e487b7160e01b600052601160045260246000fd5b346102fd5760806105136104ec366116d0565b91600052600760205260406000209060018060a01b03166000526020526040600020611831565b60ff815491600260018201549101549060405193845260208401528181161515604084015260081c1615156060820152f35b611703565b346102fd5760003660031901126102fd5760206040516127108152f35b346102fd5760403660031901126102fd576024356004356000526008602052604060002080548210156102fd576020916105a091611819565b905460405160039290921b1c6001600160a01b03168152f35b346102fd5760003660031901126102fd57602060405160198152f35b346102fd5760203660031901126102fd57600435600d548110156102fd576105a06020916117e8565b346102fd5760003660031901126102fd5760206040516706f05b59d3b200008152f35b346102fd576020806003193601126102fd5760043560005260088152604060002090604051808383829554938481520190600052836000209260005b8582821061068c5750505061067492500383611936565b610688604051928284938452830190611619565b0390f35b85546001600160a01b031684526001958601958895509301920161065d565b346102fd5760003660031901126102fd5760206040516101f48152f35b346102fd5760203660031901126102fd576106e4600435611a5a565b005b346102fd5760003660031901126102fd576020600254604051908152f35b346102fd576020806003193601126102fd5760043590610722611a04565b816000526007815260406000203360005281526040600020600080528152604060002090826000526007815260406000203360005281526040600020906001600052526040600020908054151590816107c0575b506107b2575b8054151590816107a2575b50610793576001600055005b61079c90612445565b8061043e565b60ff915060020154161582610787565b6107bb826120e9565b61077c565b60ff915060020154161583610776565b346102fd5760203660031901126102fd576004356107ec612d4d565b50801580156108fa575b6108e85760005260066020526106886040600020601060405191610819836118e4565b8054835261083160ff60018301541660208501611959565b600281015460408401526003810154606084015260048101546080840152600581015460a0840152600681015460c0840152600781015460e0840152600881015461010084015261088d60ff6009830154166101208501611965565b600a81015461014084015260ff600b820154161515610160840152600c810154610180840152600d8101546101a0840152600e8101546101c0840152600f8101546101e084015201546102008201526040519182918261171f565b6040516309b3c62760e21b8152600490fd5b506002548110156107f6565b346102fd5760203660031901126102fd5760043560005260096020526020604060002054604051908152f35b346102fd5760003660031901126102fd5761094b612d4d565b5060035480156109745760005260066020526106886040600020601060405191610819836118e4565b6040516295b66160e61b8152600490fd5b346102fd5760003660031901126102fd576001546040516001600160a01b039091168152602090f35b346102fd5760203660031901126102fd576001600160a01b036109cf6116a4565b16600052600c602052608060406000208054906001810154906003600282015491015491604051938452602084015260408301526060820152f35b346102fd5760203660031901126102fd576004356000526006602052604060002060ff600182015416600d600c830154920154916005821015610a8057608092600283149182610a75575b610a62604051809561168a565b6020840152604083015215156060820152f35b809250431191610a55565b634e487b7160e01b600052602160045260246000fd5b346102fd5760003660031901126102fd57610aaf611870565b600180546001600160a01b031981169091556000906001600160a01b03166000805160206130c98339815191528280a3005b346102fd5760003660031901126102fd5760405180600d54808252826020809301600d600052836000209260005b85828210610b265750505061067492500383611936565b85546001600160a01b0316845260019586019588955093019201610b0f565b346102fd5760203660031901126102fd576020610b6360043561304e565b6040519015158152f35b346102fd576020610417610b80366115fa565b90612f5b565b346102fd5760203660031901126102fd576020610417600435612fed565b346102fd5760003660031901126102fd57602060405166038d7ea4c680008152f35b346102fd5760003660031901126102fd576020600454604051908152f35b346102fd5760003660031901126102fd57602060ff600554166040519015158152f35b346102fd5760003660031901126102fd576020600354604051908152f35b346102fd5760403660031901126102fd57610c3e6116ba565b600435600052600b60205260406000209060018060a01b0316600052602052602060ff604060002054166040519015158152f35b346102fd5760203660031901126102fd57610c8b6116a4565b610c93612dca565b5060018060a01b0316600052600c60205260806040600020604051610cb781611900565b815491828252600181015460208301908152606060036002840154936040860194855201549301928352604051938452516020840152516040830152516060820152f35b346102fd5760003660031901126102fd5760ff60055416610f315760035480610eed575b50600254610d2c816118c8565b6002556064430143116104c357604051610d45816118e4565b81815260016020820152600060408201526000606082015260006080820152600060a08201524360c08201526064430160e08201526000610100820152600061012082015260006101408201526000610160820152600061018082015260006101a082015260006101c082015260006101e08201526000610200820152816000526006602052604060002090805182556020810151906005821015610a80576001830160ff199260ff84835416911617905560408101516002840155606081015160038401556080810151600484015560a0810151600584015560c0810151600684015560e081015160078401556101008101516008840155610120810151906002821015610a8057601092610e616102009360098701611971565b610140820151600a860155600b85019060ff6101608401511515918354169116179055610180810151600c8501556101a0810151600d8501556101c0810151600e8501556101e0810151600f8501550151910155806003557fbd3f84a55fdc44f970adc6ccbaa93e78d7da5f3fc37c4b7da578d47c9ad2e46a60408051438152606443016020820152a2005b600052600660205260ff600160406000200154166005811015610a805760018114610f1f57600214610f1f5780610d1f565b604051632127c5b560e01b8152600490fd5b60405163ab35696f60e01b8152600490fd5b346102fd5760003660031901126102fd57610f5c611870565b60045480610f6657005b6000808080938160045560018060a01b03600154165af1610f856120aa565b5015610f8d57005b6040516312171d8360e31b8152600490fd5b346102fd5760003660031901126102fd57602060405160028152f35b346102fd5760003660031901126102fd57602060405160968152f35b346102fd57602060ff6002611013610fee366116d0565b60009283526007875260408084206001600160a01b0390931684529187529120611831565b015460081c166040519015158152f35b346102fd5760203660031901126102fd576004358015158091036102fd5760207f11cec829ff57d278cffee07757e9621bfa0ae0cd17b3d23a7b81cba95174b8a49161106d611870565b60ff196005541660ff821617600555604051908152a1005b346102fd5760203660031901126102fd576004356000526006602052604060002080808054600182015460ff1660c05260028201546003830154600484015460058501546006860154600787015490600888015492600989015460ff1694600a8a015496600b8b015460ff1698600c8c01549a600d8d01549c600e01549d600f01549e6010015460a052604051806080525260805160200160c0519061112a9161168a565b60805160400152608051606001526080516080015260805160a0015260805160c0015260805160e0015260805161010001526080516101200161116c91611697565b60805161014001521515608051610160015260805161018001526080516101a001526080516101c001526080516101e0015260a051608051610200015260805161022090f35b346102fd5760003660031901126102fd57602060405160058152f35b346102fd576020806003193601126102fd57600435600d5480821060001461130357505b6111fb81612e29565b906112096040519283611936565b808252601f1961121882612e29565b01368484013761122781612e40565b61123082612e40565b9160005b8181106112775761125c85610688866112698a88604051968796606088526060880190611619565b9186830390870152611656565b908382036040850152611656565b806112846112fe926117e8565b90546003916001600160a01b039190831b1c81166112a2848a612e72565b52806112ad846117e8565b905490841b1c16600052600c91828a526002604060002001546112d08589612e72565b526112da846117e8565b9054911b1c1660005287526001604060002001546112f88287612e72565b526118c8565b611234565b90506111f2565b611313366115fa565b61131b611a04565b811580156115ee575b6108e85734156115dc5766038d7ea4c6800034106115ca578160005260209160068352604060002060019360ff85830154166005811015610a805785036115b85760078201544310156115a65782600052600781526040600020336000528152611392846040600020611831565b90609634023481046096036104c35761271090046113b081346119bc565b9085600052600a83526113c960406000209182546118d7565b9055846000526009825260406000206113e38282546118d7565b905560028354936113f785159534906118d7565b8155438982015501805461ffff191690556002861015610a8057851592831561158257600285016114293482546118d7565b905561156d575b61143f600a85019182546118d7565b905583600052600b8152604060002033600052815260ff60406000205416156114bb575b916114aa91600c6000805160206130e9833981519152943360005252604060002061148e81546118c8565b9055156114b257600201545b60405191829133963490846119e7565b0390a3600055005b6003015461149a565b9183600052600883526101f4604060002054101561155b576000848152600b845260408082203383528552808220805460ff19168917905585825260088552902080549290600160401b841015611545576000805160206130e98339815191529461153a61153386600c948c6114aa99018155611819565b33916119c9565b929450509150611463565b634e487b7160e01b600052604160045260246000fd5b60405163844bc54960e01b8152600490fd5b6004840161157b81546118c8565b9055611430565b600385016115913482546118d7565b905515611430576005840161157b81546118c8565b6040516356c7983160e01b8152600490fd5b60405163976a06eb60e01b8152600490fd5b604051631a6254d160e31b8152600490fd5b604051639de3d44160e01b8152600490fd5b50600254821015611324565b60409060031901126102fd576004359060243560028110156102fd5790565b90815180825260208080930193019160005b828110611639575050505090565b83516001600160a01b03168552938101939281019260010161162b565b90815180825260208080930193019160005b828110611676575050505090565b835185529381019392810192600101611668565b906005821015610a805752565b906002821015610a805752565b600435906001600160a01b03821682036102fd57565b602435906001600160a01b03821682036102fd57565b60609060031901126102fd57600435906024356001600160a01b03811681036102fd579060443560028110156102fd5790565b346102fd5760003660031901126102fd57602060405160648152f35b9190916102208101928051825261173e6020820151602084019061168a565b60408101516040830152606081015160608301526080810151608083015260a081015160a083015260c081015160c083015260e081015160e083015261010080820151908301526117986101208083015190840190611697565b61014080820151908301526101608082015115159083015261018080820151908301526101a080820151908301526101c080820151908301526101e0808201519083015261020080910151910152565b600d5481101561180357600d60005260206000200190600090565b634e487b7160e01b600052603260045260246000fd5b80548210156118035760005260206000200190600090565b906002811015610a8057600052602052604060002090565b60608091805184526020810151602085015260408101511515604085015201511515910152565b6001546001600160a01b0316330361188457565b606460405162461bcd60e51b815260206004820152602060248201527f4f776e61626c653a2063616c6c6572206973206e6f7420746865206f776e65726044820152fd5b60001981146104c35760010190565b919082018092116104c357565b61022081019081106001600160401b0382111761154557604052565b608081019081106001600160401b0382111761154557604052565b604081019081106001600160401b0382111761154557604052565b601f909101601f19168101906001600160401b0382119082101761154557604052565b6005821015610a805752565b6002821015610a805752565b906002811015610a805760ff80198354169116179055565b818102929181159184041417156104c357565b81156119a6570490565b634e487b7160e01b600052601260045260246000fd5b919082039182116104c357565b919082549060031b9160018060a01b03809116831b921b1916179055565b6040919493926119fb826060810197611697565b60208201520152565b600260005414611a15576002600055565b60405162461bcd60e51b815260206004820152601f60248201527f5265656e7472616e637947756172643a207265656e7472616e742063616c6c006044820152606490fd5b8015801561209e575b6108e8578060005260066020526040600020600181015460ff81166005811015610a805760011461203657509060ff6001830154166005811015610a8057600214611aba576040516341d5c2cf60e01b8152600490fd5b600c8201548043111561202457804090801561201c5760001981018181116104c357905b60018111156120145760011981019081116104c3575b60405190602082019284845240604083015240606082015260608152611b1981611900565b51902060078401805490926018198201929183116104c357611ffb57505054600d8301555b806000526006602052604060002060086020526040600020936000809360009660009360005b8254811015611d2557611b778184611819565b60018060a01b0391549060031b1c16846000526007602052604060002081600052602052604060002060008052602052604060002080548015908115611c97575b505050846000526007602052604060002090600052602052604060002060016000526020526040600020805480158015611bfe575b505050611bf9906118c8565b611b64565b6001830154600d8b0154949d941115611c59575050611c1f905480996118d7565b9760969181838102048314821517156104c357611c4982612710611bf995611c4f950204906119bc565b906118d7565b995b903880611bed565b6002909201805461ff001916610100179055919a96916096808202929183041417156104c357611bf991612710611c919204906118d7565b95611c51565b6001830154600d8c0154949e99941115611ce9575050611cb9905480926118d7565b95609682818102048114831517156104c35782612710611c4992611cdf950204906119bc565b995b388080611bb8565b9092979c989160020161010061ff00198254161790556096928184810204841417156104c357611d1f92612710910204906118d7565b95611ce1565b509793949196959050601092600e830155600f820155015580611fbf575b50600d810154600e8201918254600f820192857f63664d33416c0ab02e7dfe6555e6f8fc77af9ca212a3fef165a05acdaa4e17686060865493604051908152856020820152846040820152a26706f05b59d3b20000611da282846118d7565b10918215611fb6575b508115611fad575b50611f375782548254808214611ebf5750509160a0917ff64c79c3632fcd52f5f08e54c35fc6871794ed1878e02f3061139a4c178221bd938254825411600014611eb7576000925b611e088460098401611971565b6003600b830160ff199060018282541617905560018401541617600183015543600883015586600052600a602052867fec81deb90bcc57c0ca18f5c03c0c05887db260d498c57b4e02fe93898578dc7e6020604060002054611e6c816004546118d7565b60045583600052600a825260006040812055604051908152a25491546005600483015492015492611ea06040518096611697565b6020850152604084015260608301526080820152a2565b600192611dfb565b859450611f359593507ec62d58cbb6a9291254143347fdc129d33fc8550dbb03c801abb5fcba00470d92509060409182519182526020820152a260405190611f068261191b565b601e82527f457861637420746965202d20726566756e64696e6720616c6c206265747300006020830152612a26565b565b505060405160608101929091506001600160401b0383118284101761154557611f3592604052603882527f496e73756666696369656e742076616c69642070617274696369706174696f6e6020830152771030b33a32b91030b73a3496b9b734b832903334b63a32b960411b6040830152612a26565b90501538611db3565b15915038611dab565b82600052600a6020526040600020611fd88282546119bc565b9055826000526009602052611ff360406000209182546118d7565b905538611d43565b61200a925060199006906118d7565b600d830155611b3e565b506000611af4565b600090611ade565b604051639e3295eb60e01b8152600490fd5b6007820154431061208c57600543018043116104c357826001600260209484600c7f7533b1b4824739aa6ccaa9fe69ebabf7cd867b3c42f18208b088f10a2ebf51c998015560ff191617910155604051908152a2565b60405163658aead360e01b8152600490fd5b50600254811015611a63565b3d156120e4573d906001600160401b03821161154557604051916120d8601f8201601f191660200184611936565b82523d6000602084013e565b606090565b80158015612439575b6108e8576000908082526020600681526040808420916007815281852033865281528185208580528152818520805493841561242857600282019485549060ff918281166124175782600b8501541615806123ea575b61238e57505080600183015416600581101561237a576003811415908161236e575b5061235d578554818160081c166123005750600982018181541660028110156122ec576122c057541660028110156122ac576122a157600e810154905b825491670de0b6b3a7640000928381029080820485149015171561228d576121d56121dd939260109261199c565b910154611989565b0493600160ff198254161790558361224f575b338652600c825260018387200161220781546118c8565b9055338652600c82526002838720016122218582546118d7565b905561222c33612afc565b5490825195865285015283015260008051602061310983398151915260603393a3565b848652600982528286206122648582546119bc565b90558580808087335af16122766120aa565b506121f0575b82516312171d8360e31b8152600490fd5b634e487b7160e01b8a52601160045260248afd5b600f810154906121a7565b634e487b7160e01b88526021600452602488fd5b50505050600c91935060039492600160ff198254161790553383525220016122e881546118c8565b9055565b634e487b7160e01b8a52602160045260248afd5b949592905060019150549360ff1916179055838552600981528285206123278382546119bc565b90558480808085335af16123396120aa565b501561227c57825194855284015233926000805160206131298339815191529190a3565b8451636082930560e11b8152600490fd5b6004915014153861216a565b634e487b7160e01b89526021600452602489fd5b9150949592506001915060ff1916179055838552600981528285206123b48382546119bc565b90558480808085335af16123c66120aa565b501561227c57825194855284015233926000805160206131498339815191529190a3565b5082600185015416600581101561240357600414612148565b634e487b7160e01b8b52602160045260248bfd5b8651630c8d9eab60e31b8152600490fd5b8351632f42cbdd60e01b8152600490fd5b506002548110156120f2565b8015801561271f575b6108e85760009080825260206006815260408084209160078152818520338652815281852094600195868252825282812090815494851561270e57600283019586549060ff918281166126fd578a9083600b8601541615806126ce575b61269857508291508301541660058110156126845760038114159081612678575b5061266757865489828260081c166126305750506009820181815416600281101561261c578a036125f557541660028110156125e1576125d657600e810154905b835491670de0b6b3a764000092838102908082048514901517156125c2576121d561253b939260109261199c565b04948760ff19825416179055838561257d575b600291338152600c8552888282200161256781546118c8565b9055338152600c855220016122218582546118d7565b50858152600983528381206125938682546119bc565b90558080808088335af16125a56120aa565b50156125b1578361254e565b83516312171d8360e31b8152600490fd5b634e487b7160e01b85526011600452602485fd5b600f8101549061250d565b634e487b7160e01b83526021600452602483fd5b505050939050600c92945060039560ff198254161790553383525220016122e881546118c8565b634e487b7160e01b85526021600452602485fd5b9250959692939050549460ff1916179055848152600982528381206126568482546119bc565b905580808085335af16123396120aa565b8551636082930560e11b8152600490fd5b600491501415386124cc565b634e487b7160e01b84526021600452602484fd5b92509250959692935060ff1916179055848152600982528381206126bd8482546119bc565b905580808085335af16123c66120aa565b5090840154831660058110156126e9579060048c92146124ab565b634e487b7160e01b86526021600452602486fd5b8751630c8d9eab60e31b8152600490fd5b8451632f42cbdd60e01b8152600490fd5b5060025481101561244e565b80158015612a1a575b6108e85760008181526020600681526040908183209260078252828120338252825261276286848320611831565b91825494851561270e57600284019586549060ff918281166126fd5782600b8501541615806129ed575b61299157505080600183015416600581101561261c5760038114159081612985575b50612667578654818160081c166129205750600982018181541660028110156126e95760028b10156126e9578a036128f65754166002811015612684576128eb57600e810154905b845491670de0b6b3a764000092838102908082048514901517156128d7576121d5612824939260109261199c565b0494600160ff198254161790558461289a575b9160028461289593600c60008051602061310983398151915298979633835281815260018484200161286981546118c8565b905533835252200161287c8582546118d7565b905561288733612afc565b5491519283923397846119e7565b0390a3565b858252600981528382206128af8682546119bc565b90558180808088335af16128c16120aa565b506128375783516312171d8360e31b8152600490fd5b634e487b7160e01b86526011600452602486fd5b600f810154906127f6565b50505091509260039550600c929450600160ff198254161790553383525220016122e881546118c8565b95969294905060019150549460ff1916179055848152600982528381206129488482546119bc565b905580808085335af16129596120aa565b501561227c5790829161297d60008051602061312983398151915294518097611697565b8501523393a3565b600491501415386127ae565b915095969294506001915060ff1916179055848152600982528381206129b88482546119bc565b905580808085335af16129c96120aa565b501561227c5790829161297d60008051602061314983398151915294518097611697565b50826001850154166005811015612a065760041461278c565b634e487b7160e01b87526021600452602487fd5b50600254811015612734565b90600082815260209160068352604091828120600a85528382205460098652612a538584209182546118d7565b9055858252600a85528184812055612a7460028201546003830154906118d7565b600a820155600b600182019160ff1992600484825416179055019081541690558251938085528251928382870152825b848110612ae95750505092817f0f023b047be6c305859504186f8b03ee5a634f9ab472ff386d3b1de9387c083e948483959484010152601f80199101168101030190a2565b8181018301518782018701528201612aa4565b9060018060a01b039182811692600092848452600c92602090848252600290604090828289200154908899898a91600d54925b838110612d1a575b505015612c4c575b505050965b8015801580612be9575b15612bde57600019820191808311612bca57612b9f612ba488612bb093612b74876117e8565b93905491612b81816117e8565b9690549660039786612b928d6117e8565b9290938b1b1c16916119c9565b6117e8565b9390941b1c16916119c9565b15612b44575b634e487b7160e01b87526011600452602487fd5b634e487b7160e01b89526011600452602489fd5b505050509350505050565b5085612bf4836117e8565b919054600392831b1c168952878552838a8a200154906000198401848111612c385790612c2189926117e8565b9054911b1c168952878552838a8a20015410612b4e565b634e487b7160e01b8b52601160045260248bfd5b92995090916064811015612cb85750600d54909150600160401b811015612ca45790612c81826001612c879401600d556117e8565b906119c9565b600d546000198101908111612bb657908491975b90913880612b3f565b634e487b7160e01b88526041600452602488fd5b6000199281840191821161228d5787612cd0836117e8565b90549060031b1c168a52888652848b8b20015410600014612d0e5790612c81612cf8926117e8565b600d54908101908111612bb65790849197612c9b565b50505050509350505050565b818b612d25836117e8565b90549060031b1c1614612d4057612d3b906118c8565b612b2f565b9c50505060013880612b37565b60405190612d5a826118e4565b816102006000918281528260208201528260408201528260608201528260808201528260a08201528260c08201528260e08201528261010082015282610120820152826101408201528261016082015282610180820152826101a0820152826101c0820152826101e08201520152565b60405190612dd782611900565b60006060838281528260208201528260408201520152565b90604051612dfc81611900565b606060ff60028395805485526001810154602086015201548181161515604085015260081c161515910152565b6001600160401b0381116115455760051b60200190565b90612e4a82612e29565b612e576040519182611936565b8281528092612e68601f1991612e29565b0190602036910137565b80518210156118035760209160051b010190565b9392909184158015612f4f575b612f46576000948552600660205260408520926007602052604086209060018060a01b03168652602052612ed482612ece8360408920611831565b546118d7565b916096810281810460961482151715612bb657612710612ef59104826119bc565b916002811015612a065791600a612f26612f2e93612f349695612f39999a5015600014612f3c5760028801546118d7565b9501546118d7565b90611989565b61199c565b90565b60038801546118d7565b50600093505050565b50600254851015612e93565b919082158015612fe1575b612fd957600092835260066020526040832090600281101561268457612fce576002810154905b8115612fca57600a015461271090818102918183041490151715612fb657612f3992935061199c565b634e487b7160e01b84526011600452602484fd5b5050565b600381015490612f8d565b506127109150565b50600254831015612f66565b80158015613042575b61303c57600090815260066020526040812060ff60018201541660058110156125e15760010361303857600701548043101561303857612f39915043906119bc565b5090565b50600090565b50600254811015612ff6565b801580156130bc575b61303c57600090815260066020526040812060ff60018201541660058110156125e1576001036130385760070154906018198201908282116130a8575043101590816130a1575090565b9050431090565b634e487b7160e01b81526011600452602490fd5b5060025481101561305756fe8be0079c531659141344cd1fd0a4f28419497f9722a3daafe3b4186f6b6457e0bfcd8f4e47cc529f86cdc7eab8fb80e015a298e021fcaee72df1f76dd57cf487d6a2a5fa33ed09b7e0ad44c465d1d7cc1ebac5fe4f8e9c6625c55a874855db5fc328de79496782527b9f229c166413e535bd9c04254c7252cd37763a43c61e7596be94f3cb4521868c06461d3a4197839df4d896c7fb4362fc0e3be356a11c12a26469706673582212203310fdb863a0afe0194ba79a564cadc1c6871e45c37a1b55f73f4fe896b7c5fc64736f6c63430008130033","opcodes":"PUSH1 0x80 DUP1 PUSH1 0x40 MSTORE CALLVALUE PUSH2 0x72 JUMPI PUSH1 0x1 PUSH1 0x0 DUP2 DUP2 SSTORE DUP2 SLOAD CALLER PUSH1 0x1 PUSH1 0x1 PUSH1 0xA0 SHL SUB NOT DUP3 AND DUP2 OR SWAP1 SWAP4 SSTORE PUSH1 0x1 PUSH1 0x1 PUSH1 0xA0 SHL SUB AND SWAP1 PUSH32 0x8BE0079C531659141344CD1FD0A4F28419497F9722A3DAAFE3B4186F6B6457E0 SWAP1 DUP1 LOG3 PUSH1 0x1 PUSH1 0x2 SSTORE PUSH1 0x0 PUSH1 0x3 SSTORE PUSH1 0xFF NOT PUSH1 0x5 SLOAD AND PUSH1 0x5 SSTORE PUSH2 0x319E SWAP1 DUP2 PUSH2 0x78 DUP3 CODECOPY RETURN JUMPDEST PUSH1 0x0 DUP1 REVERT INVALID PUSH1 0xE0 PUSH1 0x40 MSTORE PUSH1 0x4 CALLDATASIZE LT ISZERO PUSH2 0x12 JUMPI PUSH1 0x0 DUP1 REVERT JUMPDEST PUSH1 0x0 CALLDATALOAD PUSH1 0xE0 SHR DUP1 PUSH4 0x3EDF914 EQ PUSH2 0x130A JUMPI DUP1 PUSH4 0x75AA970 EQ PUSH2 0x11CE JUMPI DUP1 PUSH4 0xC6D388B EQ PUSH2 0x11B2 JUMPI DUP1 PUSH4 0x117A5B90 EQ PUSH2 0x1085 JUMPI DUP1 PUSH4 0x16C38B3C EQ PUSH2 0x1023 JUMPI DUP1 PUSH4 0x19BE5AD0 EQ PUSH2 0x906 JUMPI DUP1 PUSH4 0x232CCF7D EQ PUSH2 0xFD7 JUMPI DUP1 PUSH4 0x34FBC9A1 EQ PUSH2 0xFBB JUMPI DUP1 PUSH4 0x44933539 EQ PUSH2 0xF9F JUMPI DUP1 PUSH4 0x476343EE EQ PUSH2 0xF43 JUMPI DUP1 PUSH4 0x482D51E0 EQ PUSH2 0xCFB JUMPI DUP1 PUSH4 0x4E43603A EQ PUSH2 0xC72 JUMPI DUP1 PUSH4 0x51BCEFA1 EQ PUSH2 0xC25 JUMPI DUP1 PUSH4 0x536A3DDC EQ PUSH2 0xC07 JUMPI DUP1 PUSH4 0x587F5ED7 EQ PUSH2 0xBC6 JUMPI DUP1 PUSH4 0x5C975ABB EQ PUSH2 0xBE4 JUMPI DUP1 PUSH4 0x5DF45A37 EQ PUSH2 0xBC6 JUMPI DUP1 PUSH4 0x6475E3D3 EQ PUSH2 0xBA4 JUMPI DUP1 PUSH4 0x674943AD EQ PUSH2 0xB86 JUMPI DUP1 PUSH4 0x67C15F6A EQ PUSH2 0xB6D JUMPI DUP1 PUSH4 0x6C3C1A45 EQ PUSH2 0xB45 JUMPI DUP1 PUSH4 0x6D763A6E EQ PUSH2 0xAE1 JUMPI DUP1 PUSH4 0x715018A6 EQ PUSH2 0xA96 JUMPI DUP1 PUSH4 0x7DD7F492 EQ PUSH2 0xA0A JUMPI DUP1 PUSH4 0x8A65D874 EQ PUSH2 0x9AE JUMPI DUP1 PUSH4 0x8DA5CB5B EQ PUSH2 0x985 JUMPI DUP1 PUSH4 0x8ED6F26C EQ PUSH2 0x545 JUMPI DUP1 PUSH4 0x968D901B EQ PUSH2 0x932 JUMPI DUP1 PUSH4 0x9DAD1DA5 EQ PUSH2 0x906 JUMPI DUP1 PUSH4 0xA2F77BCC EQ PUSH2 0x7D0 JUMPI DUP1 PUSH4 0xA5C44A65 EQ PUSH2 0x704 JUMPI DUP1 PUSH4 0xAFC250A7 EQ PUSH2 0x302 JUMPI DUP1 PUSH4 0xB135BBB0 EQ PUSH2 0x6E6 JUMPI DUP1 PUSH4 0xB7A5A5B6 EQ PUSH2 0x6C8 JUMPI DUP1 PUSH4 0xBAF15DD1 EQ PUSH2 0x6AB JUMPI DUP1 PUSH4 0xBCBDECB7 EQ PUSH2 0x621 JUMPI DUP1 PUSH4 0xBDFFAF7B EQ PUSH2 0x5FE JUMPI DUP1 PUSH4 0xBF368399 EQ PUSH2 0x5D5 JUMPI DUP1 PUSH4 0xBF9607C6 EQ PUSH2 0x5B9 JUMPI DUP1 PUSH4 0xCE1EA732 EQ PUSH2 0x567 JUMPI DUP1 PUSH4 0xD73792A9 EQ PUSH2 0x54A JUMPI DUP1 PUSH4 0xDB877142 EQ PUSH2 0x545 JUMPI DUP1 PUSH4 0xE0CA49AE EQ PUSH2 0x4D9 JUMPI DUP1 PUSH4 0xE87C0EE6 EQ PUSH2 0x498 JUMPI DUP1 PUSH4 0xE978F045 EQ PUSH2 0x445 JUMPI DUP1 PUSH4 0xEC1B3AB5 EQ PUSH2 0x41F JUMPI DUP1 PUSH4 0xEC844654 EQ PUSH2 0x3DF JUMPI DUP1 PUSH4 0xF2FDE38B EQ PUSH2 0x32E JUMPI DUP1 PUSH4 0xF95547FA EQ PUSH2 0x302 JUMPI PUSH4 0xFA744DD3 EQ PUSH2 0x242 JUMPI PUSH1 0x0 DUP1 REVERT JUMPDEST CALLVALUE PUSH2 0x2FD JUMPI PUSH1 0x40 CALLDATASIZE PUSH1 0x3 NOT ADD SLT PUSH2 0x2FD JUMPI PUSH2 0x100 PUSH1 0x4 CALLDATALOAD PUSH2 0x2FB PUSH2 0x264 PUSH2 0x16BA JUMP JUMPDEST PUSH1 0x40 MLOAD SWAP1 PUSH2 0x271 DUP3 PUSH2 0x191B JUMP JUMPDEST PUSH2 0x279 PUSH2 0x2DCA JUMP JUMPDEST DUP3 MSTORE PUSH2 0x283 PUSH2 0x2DCA JUMP JUMPDEST PUSH1 0x20 SWAP3 DUP4 ADD MSTORE PUSH1 0x0 SWAP4 DUP5 MSTORE PUSH1 0x7 DUP3 MSTORE PUSH1 0x40 DUP1 DUP6 KECCAK256 PUSH1 0x1 PUSH1 0x1 PUSH1 0xA0 SHL SUB SWAP3 SWAP1 SWAP3 AND DUP6 MSTORE SWAP1 DUP3 MSTORE DUP1 DUP5 KECCAK256 DUP5 DUP1 MSTORE DUP3 MSTORE DUP1 DUP5 KECCAK256 PUSH1 0x1 DUP6 MSTORE SWAP4 DUP2 SWAP1 KECCAK256 SWAP1 MLOAD SWAP4 PUSH2 0x2DC SWAP2 SWAP1 PUSH2 0x2D5 SWAP1 PUSH2 0x2D0 DUP8 PUSH2 0x191B JUMP JUMPDEST PUSH2 0x2DEF JUMP JUMPDEST DUP6 MSTORE PUSH2 0x2DEF JUMP JUMPDEST SWAP1 DUP4 ADD SWAP1 DUP2 MSTORE PUSH2 0x2F0 PUSH1 0x40 MLOAD DUP1 SWAP5 MLOAD PUSH2 0x1849 JUMP JUMPDEST MLOAD PUSH1 0x80 DUP4 ADD SWAP1 PUSH2 0x1849 JUMP JUMPDEST RETURN JUMPDEST PUSH1 0x0 DUP1 REVERT JUMPDEST CALLVALUE PUSH2 0x2FD JUMPI PUSH1 0x20 CALLDATASIZE PUSH1 0x3 NOT ADD SLT PUSH2 0x2FD JUMPI PUSH1 0x4 CALLDATALOAD PUSH1 0x0 MSTORE PUSH1 0xA PUSH1 0x20 MSTORE PUSH1 0x20 PUSH1 0x40 PUSH1 0x0 KECCAK256 SLOAD PUSH1 0x40 MLOAD SWAP1 DUP2 MSTORE RETURN JUMPDEST CALLVALUE PUSH2 0x2FD JUMPI PUSH1 0x20 CALLDATASIZE PUSH1 0x3 NOT ADD SLT PUSH2 0x2FD JUMPI PUSH2 0x347 PUSH2 0x16A4 JUMP JUMPDEST PUSH2 0x34F PUSH2 0x1870 JUMP JUMPDEST PUSH1 0x1 PUSH1 0x1 PUSH1 0xA0 SHL SUB SWAP1 DUP2 AND SWAP1 DUP2 ISZERO PUSH2 0x38B JUMPI PUSH1 0x1 DUP1 SLOAD PUSH1 0x1 PUSH1 0x1 PUSH1 0xA0 SHL SUB NOT DUP2 AND DUP5 OR SWAP1 SWAP2 SSTORE AND PUSH1 0x0 DUP1 MLOAD PUSH1 0x20 PUSH2 0x30C9 DUP4 CODECOPY DUP2 MLOAD SWAP2 MSTORE PUSH1 0x0 DUP1 LOG3 STOP JUMPDEST PUSH1 0x40 MLOAD PUSH3 0x461BCD PUSH1 0xE5 SHL DUP2 MSTORE PUSH1 0x20 PUSH1 0x4 DUP3 ADD MSTORE PUSH1 0x26 PUSH1 0x24 DUP3 ADD MSTORE PUSH32 0x4F776E61626C653A206E6577206F776E657220697320746865207A65726F2061 PUSH1 0x44 DUP3 ADD MSTORE PUSH6 0x646472657373 PUSH1 0xD0 SHL PUSH1 0x64 DUP3 ADD MSTORE PUSH1 0x84 SWAP1 REVERT JUMPDEST CALLVALUE PUSH2 0x2FD JUMPI PUSH1 0x80 CALLDATASIZE PUSH1 0x3 NOT ADD SLT PUSH2 0x2FD JUMPI PUSH2 0x3F8 PUSH2 0x16BA JUMP JUMPDEST PUSH1 0x44 CALLDATALOAD PUSH1 0x2 DUP2 LT ISZERO PUSH2 0x2FD JUMPI PUSH1 0x20 SWAP2 PUSH2 0x417 SWAP2 PUSH1 0x64 CALLDATALOAD SWAP2 PUSH1 0x4 CALLDATALOAD PUSH2 0x2E86 JUMP JUMPDEST PUSH1 0x40 MLOAD SWAP1 DUP2 MSTORE RETURN JUMPDEST CALLVALUE PUSH2 0x2FD JUMPI PUSH2 0x43E PUSH2 0x430 CALLDATASIZE PUSH2 0x15FA JUMP JUMPDEST SWAP1 PUSH2 0x439 PUSH2 0x1A04 JUMP JUMPDEST PUSH2 0x272B JUMP JUMPDEST PUSH1 0x1 PUSH1 0x0 SSTORE STOP JUMPDEST CALLVALUE PUSH2 0x2FD JUMPI PUSH1 0x80 PUSH2 0x48B PUSH2 0x2D0 PUSH2 0x45B CALLDATASIZE PUSH2 0x16D0 JUMP JUMPDEST SWAP2 PUSH2 0x464 PUSH2 0x2DCA JUMP JUMPDEST POP PUSH1 0x0 MSTORE PUSH1 0x7 PUSH1 0x20 MSTORE PUSH1 0x40 PUSH1 0x0 KECCAK256 SWAP1 PUSH1 0x1 DUP1 PUSH1 0xA0 SHL SUB AND PUSH1 0x0 MSTORE PUSH1 0x20 MSTORE PUSH1 0x40 PUSH1 0x0 KECCAK256 PUSH2 0x1831 JUMP JUMPDEST PUSH2 0x2FB PUSH1 0x40 MLOAD DUP1 SWAP3 PUSH2 0x1849 JUMP JUMPDEST CALLVALUE PUSH2 0x2FD JUMPI PUSH1 0x0 CALLDATASIZE PUSH1 0x3 NOT ADD SLT PUSH2 0x2FD JUMPI PUSH1 0x2 SLOAD PUSH1 0x0 NOT DUP2 ADD SWAP1 DUP2 GT PUSH2 0x4C3 JUMPI PUSH1 0x20 SWAP1 PUSH1 0x40 MLOAD SWAP1 DUP2 MSTORE RETURN JUMPDEST PUSH4 0x4E487B71 PUSH1 0xE0 SHL PUSH1 0x0 MSTORE PUSH1 0x11 PUSH1 0x4 MSTORE PUSH1 0x24 PUSH1 0x0 REVERT JUMPDEST CALLVALUE PUSH2 0x2FD JUMPI PUSH1 0x80 PUSH2 0x513 PUSH2 0x4EC CALLDATASIZE PUSH2 0x16D0 JUMP JUMPDEST SWAP2 PUSH1 0x0 MSTORE PUSH1 0x7 PUSH1 0x20 MSTORE PUSH1 0x40 PUSH1 0x0 KECCAK256 SWAP1 PUSH1 0x1 DUP1 PUSH1 0xA0 SHL SUB AND PUSH1 0x0 MSTORE PUSH1 0x20 MSTORE PUSH1 0x40 PUSH1 0x0 KECCAK256 PUSH2 0x1831 JUMP JUMPDEST PUSH1 0xFF DUP2 SLOAD SWAP2 PUSH1 0x2 PUSH1 0x1 DUP3 ADD SLOAD SWAP2 ADD SLOAD SWAP1 PUSH1 0x40 MLOAD SWAP4 DUP5 MSTORE PUSH1 0x20 DUP5 ADD MSTORE DUP2 DUP2 AND ISZERO ISZERO PUSH1 0x40 DUP5 ADD MSTORE PUSH1 0x8 SHR AND ISZERO ISZERO PUSH1 0x60 DUP3 ADD MSTORE RETURN JUMPDEST PUSH2 0x1703 JUMP JUMPDEST CALLVALUE PUSH2 0x2FD JUMPI PUSH1 0x0 CALLDATASIZE PUSH1 0x3 NOT ADD SLT PUSH2 0x2FD JUMPI PUSH1 0x20 PUSH1 0x40 MLOAD PUSH2 0x2710 DUP2 MSTORE RETURN JUMPDEST CALLVALUE PUSH2 0x2FD JUMPI PUSH1 0x40 CALLDATASIZE PUSH1 0x3 NOT ADD SLT PUSH2 0x2FD JUMPI PUSH1 0x24 CALLDATALOAD PUSH1 0x4 CALLDATALOAD PUSH1 0x0 MSTORE PUSH1 0x8 PUSH1 0x20 MSTORE PUSH1 0x40 PUSH1 0x0 KECCAK256 DUP1 SLOAD DUP3 LT ISZERO PUSH2 0x2FD JUMPI PUSH1 0x20 SWAP2 PUSH2 0x5A0 SWAP2 PUSH2 0x1819 JUMP JUMPDEST SWAP1 SLOAD PUSH1 0x40 MLOAD PUSH1 0x3 SWAP3 SWAP1 SWAP3 SHL SHR PUSH1 0x1 PUSH1 0x1 PUSH1 0xA0 SHL SUB AND DUP2 MSTORE RETURN JUMPDEST CALLVALUE PUSH2 0x2FD JUMPI PUSH1 0x0 CALLDATASIZE PUSH1 0x3 NOT ADD SLT PUSH2 0x2FD JUMPI PUSH1 0x20 PUSH1 0x40 MLOAD PUSH1 0x19 DUP2 MSTORE RETURN JUMPDEST CALLVALUE PUSH2 0x2FD JUMPI PUSH1 0x20 CALLDATASIZE PUSH1 0x3 NOT ADD SLT PUSH2 0x2FD JUMPI PUSH1 0x4 CALLDATALOAD PUSH1 0xD SLOAD DUP2 LT ISZERO PUSH2 0x2FD JUMPI PUSH2 0x5A0 PUSH1 0x20 SWAP2 PUSH2 0x17E8 JUMP JUMPDEST CALLVALUE PUSH2 0x2FD JUMPI PUSH1 0x0 CALLDATASIZE PUSH1 0x3 NOT ADD SLT PUSH2 0x2FD JUMPI PUSH1 0x20 PUSH1 0x40 MLOAD PUSH8 0x6F05B59D3B20000 DUP2 MSTORE RETURN JUMPDEST CALLVALUE PUSH2 0x2FD JUMPI PUSH1 0x20 DUP1 PUSH1 0x3 NOT CALLDATASIZE ADD SLT PUSH2 0x2FD JUMPI PUSH1 0x4 CALLDATALOAD PUSH1 0x0 MSTORE PUSH1 0x8 DUP2 MSTORE PUSH1 0x40 PUSH1 0x0 KECCAK256 SWAP1 PUSH1 0x40 MLOAD DUP1 DUP4 DUP4 DUP3 SWAP6 SLOAD SWAP4 DUP5 DUP2 MSTORE ADD SWAP1 PUSH1 0x0 MSTORE DUP4 PUSH1 0x0 KECCAK256 SWAP3 PUSH1 0x0 JUMPDEST DUP6 DUP3 DUP3 LT PUSH2 0x68C JUMPI POP POP POP PUSH2 0x674 SWAP3 POP SUB DUP4 PUSH2 0x1936 JUMP JUMPDEST PUSH2 0x688 PUSH1 0x40 MLOAD SWAP3 DUP3 DUP5 SWAP4 DUP5 MSTORE DUP4 ADD SWAP1 PUSH2 0x1619 JUMP JUMPDEST SUB SWAP1 RETURN JUMPDEST DUP6 SLOAD PUSH1 0x1 PUSH1 0x1 PUSH1 0xA0 SHL SUB AND DUP5 MSTORE PUSH1 0x1 SWAP6 DUP7 ADD SWAP6 DUP9 SWAP6 POP SWAP4 ADD SWAP3 ADD PUSH2 0x65D JUMP JUMPDEST CALLVALUE PUSH2 0x2FD JUMPI PUSH1 0x0 CALLDATASIZE PUSH1 0x3 NOT ADD SLT PUSH2 0x2FD JUMPI PUSH1 0x20 PUSH1 0x40 MLOAD PUSH2 0x1F4 DUP2 MSTORE RETURN JUMPDEST CALLVALUE PUSH2 0x2FD JUMPI PUSH1 0x20 CALLDATASIZE PUSH1 0x3 NOT ADD SLT PUSH2 0x2FD JUMPI PUSH2 0x6E4 PUSH1 0x4 CALLDATALOAD PUSH2 0x1A5A JUMP JUMPDEST STOP JUMPDEST CALLVALUE PUSH2 0x2FD JUMPI PUSH1 0x0 CALLDATASIZE PUSH1 0x3 NOT ADD SLT PUSH2 0x2FD JUMPI PUSH1 0x20 PUSH1 0x2 SLOAD PUSH1 0x40 MLOAD SWAP1 DUP2 MSTORE RETURN JUMPDEST CALLVALUE PUSH2 0x2FD JUMPI PUSH1 0x20 DUP1 PUSH1 0x3 NOT CALLDATASIZE ADD SLT PUSH2 0x2FD JUMPI PUSH1 0x4 CALLDATALOAD SWAP1 PUSH2 0x722 PUSH2 0x1A04 JUMP JUMPDEST DUP2 PUSH1 0x0 MSTORE PUSH1 0x7 DUP2 MSTORE PUSH1 0x40 PUSH1 0x0 KECCAK256 CALLER PUSH1 0x0 MSTORE DUP2 MSTORE PUSH1 0x40 PUSH1 0x0 KECCAK256 PUSH1 0x0 DUP1 MSTORE DUP2 MSTORE PUSH1 0x40 PUSH1 0x0 KECCAK256 SWAP1 DUP3 PUSH1 0x0 MSTORE PUSH1 0x7 DUP2 MSTORE PUSH1 0x40 PUSH1 0x0 KECCAK256 CALLER PUSH1 0x0 MSTORE DUP2 MSTORE PUSH1 0x40 PUSH1 0x0 KECCAK256 SWAP1 PUSH1 0x1 PUSH1 0x0 MSTORE MSTORE PUSH1 0x40 PUSH1 0x0 KECCAK256 SWAP1 DUP1 SLOAD ISZERO ISZERO SWAP1 DUP2 PUSH2 0x7C0 JUMPI JUMPDEST POP PUSH2 0x7B2 JUMPI JUMPDEST DUP1 SLOAD ISZERO ISZERO SWAP1 DUP2 PUSH2 0x7A2 JUMPI JUMPDEST POP PUSH2 0x793 JUMPI PUSH1 0x1 PUSH1 0x0 SSTORE STOP JUMPDEST PUSH2 0x79C SWAP1 PUSH2 0x2445 JUMP JUMPDEST DUP1 PUSH2 0x43E JUMP JUMPDEST PUSH1 0xFF SWAP2 POP PUSH1 0x2 ADD SLOAD AND ISZERO DUP3 PUSH2 0x787 JUMP JUMPDEST PUSH2 0x7BB DUP3 PUSH2 0x20E9 JUMP JUMPDEST PUSH2 0x77C JUMP JUMPDEST PUSH1 0xFF SWAP2 POP PUSH1 0x2 ADD SLOAD AND ISZERO DUP4 PUSH2 0x776 JUMP JUMPDEST CALLVALUE PUSH2 0x2FD JUMPI PUSH1 0x20 CALLDATASIZE PUSH1 0x3 NOT ADD SLT PUSH2 0x2FD JUMPI PUSH1 0x4 CALLDATALOAD PUSH2 0x7EC PUSH2 0x2D4D JUMP JUMPDEST POP DUP1 ISZERO DUP1 ISZERO PUSH2 0x8FA JUMPI JUMPDEST PUSH2 0x8E8 JUMPI PUSH1 0x0 MSTORE PUSH1 0x6 PUSH1 0x20 MSTORE PUSH2 0x688 PUSH1 0x40 PUSH1 0x0 KECCAK256 PUSH1 0x10 PUSH1 0x40 MLOAD SWAP2 PUSH2 0x819 DUP4 PUSH2 0x18E4 JUMP JUMPDEST DUP1 SLOAD DUP4 MSTORE PUSH2 0x831 PUSH1 0xFF PUSH1 0x1 DUP4 ADD SLOAD AND PUSH1 0x20 DUP6 ADD PUSH2 0x1959 JUMP JUMPDEST PUSH1 0x2 DUP2 ADD SLOAD PUSH1 0x40 DUP5 ADD MSTORE PUSH1 0x3 DUP2 ADD SLOAD PUSH1 0x60 DUP5 ADD MSTORE PUSH1 0x4 DUP2 ADD SLOAD PUSH1 0x80 DUP5 ADD MSTORE PUSH1 0x5 DUP2 ADD SLOAD PUSH1 0xA0 DUP5 ADD MSTORE PUSH1 0x6 DUP2 ADD SLOAD PUSH1 0xC0 DUP5 ADD MSTORE PUSH1 0x7 DUP2 ADD SLOAD PUSH1 0xE0 DUP5 ADD MSTORE PUSH1 0x8 DUP2 ADD SLOAD PUSH2 0x100 DUP5 ADD MSTORE PUSH2 0x88D PUSH1 0xFF PUSH1 0x9 DUP4 ADD SLOAD AND PUSH2 0x120 DUP6 ADD PUSH2 0x1965 JUMP JUMPDEST PUSH1 0xA DUP2 ADD SLOAD PUSH2 0x140 DUP5 ADD MSTORE PUSH1 0xFF PUSH1 0xB DUP3 ADD SLOAD AND ISZERO ISZERO PUSH2 0x160 DUP5 ADD MSTORE PUSH1 0xC DUP2 ADD SLOAD PUSH2 0x180 DUP5 ADD MSTORE PUSH1 0xD DUP2 ADD SLOAD PUSH2 0x1A0 DUP5 ADD MSTORE PUSH1 0xE DUP2 ADD SLOAD PUSH2 0x1C0 DUP5 ADD MSTORE PUSH1 0xF DUP2 ADD SLOAD PUSH2 0x1E0 DUP5 ADD MSTORE ADD SLOAD PUSH2 0x200 DUP3 ADD MSTORE PUSH1 0x40 MLOAD SWAP2 DUP3 SWAP2 DUP3 PUSH2 0x171F JUMP JUMPDEST PUSH1 0x40 MLOAD PUSH4 0x9B3C627 PUSH1 0xE2 SHL DUP2 MSTORE PUSH1 0x4 SWAP1 REVERT JUMPDEST POP PUSH1 0x2 SLOAD DUP2 LT ISZERO PUSH2 0x7F6 JUMP JUMPDEST CALLVALUE PUSH2 0x2FD JUMPI PUSH1 0x20 CALLDATASIZE PUSH1 0x3 NOT ADD SLT PUSH2 0x2FD JUMPI PUSH1 0x4 CALLDATALOAD PUSH1 0x0 MSTORE PUSH1 0x9 PUSH1 0x20 MSTORE PUSH1 0x20 PUSH1 0x40 PUSH1 0x0 KECCAK256 SLOAD PUSH1 0x40 MLOAD SWAP1 DUP2 MSTORE RETURN JUMPDEST CALLVALUE PUSH2 0x2FD JUMPI PUSH1 0x0 CALLDATASIZE PUSH1 0x3 NOT ADD SLT PUSH2 0x2FD JUMPI PUSH2 0x94B PUSH2 0x2D4D JUMP JUMPDEST POP PUSH1 0x3 SLOAD DUP1 ISZERO PUSH2 0x974 JUMPI PUSH1 0x0 MSTORE PUSH1 0x6 PUSH1 0x20 MSTORE PUSH2 0x688 PUSH1 0x40 PUSH1 0x0 KECCAK256 PUSH1 0x10 PUSH1 0x40 MLOAD SWAP2 PUSH2 0x819 DUP4 PUSH2 0x18E4 JUMP JUMPDEST PUSH1 0x40 MLOAD PUSH3 0x95B661 PUSH1 0xE6 SHL DUP2 MSTORE PUSH1 0x4 SWAP1 REVERT JUMPDEST CALLVALUE PUSH2 0x2FD JUMPI PUSH1 0x0 CALLDATASIZE PUSH1 0x3 NOT ADD SLT PUSH2 0x2FD JUMPI PUSH1 0x1 SLOAD PUSH1 0x40 MLOAD PUSH1 0x1 PUSH1 0x1 PUSH1 0xA0 SHL SUB SWAP1 SWAP2 AND DUP2 MSTORE PUSH1 0x20 SWAP1 RETURN JUMPDEST CALLVALUE PUSH2 0x2FD JUMPI PUSH1 0x20 CALLDATASIZE PUSH1 0x3 NOT ADD SLT PUSH2 0x2FD JUMPI PUSH1 0x1 PUSH1 0x1 PUSH1 0xA0 SHL SUB PUSH2 0x9CF PUSH2 0x16A4 JUMP JUMPDEST AND PUSH1 0x0 MSTORE PUSH1 0xC PUSH1 0x20 MSTORE PUSH1 0x80 PUSH1 0x40 PUSH1 0x0 KECCAK256 DUP1 SLOAD SWAP1 PUSH1 0x1 DUP2 ADD SLOAD SWAP1 PUSH1 0x3 PUSH1 0x2 DUP3 ADD SLOAD SWAP2 ADD SLOAD SWAP2 PUSH1 0x40 MLOAD SWAP4 DUP5 MSTORE PUSH1 0x20 DUP5 ADD MSTORE PUSH1 0x40 DUP4 ADD MSTORE PUSH1 0x60 DUP3 ADD MSTORE RETURN JUMPDEST CALLVALUE PUSH2 0x2FD JUMPI PUSH1 0x20 CALLDATASIZE PUSH1 0x3 NOT ADD SLT PUSH2 0x2FD JUMPI PUSH1 0x4 CALLDATALOAD PUSH1 0x0 MSTORE PUSH1 0x6 PUSH1 0x20 MSTORE PUSH1 0x40 PUSH1 0x0 KECCAK256 PUSH1 0xFF PUSH1 0x1 DUP3 ADD SLOAD AND PUSH1 0xD PUSH1 0xC DUP4 ADD SLOAD SWAP3 ADD SLOAD SWAP2 PUSH1 0x5 DUP3 LT ISZERO PUSH2 0xA80 JUMPI PUSH1 0x80 SWAP3 PUSH1 0x2 DUP4 EQ SWAP2 DUP3 PUSH2 0xA75 JUMPI JUMPDEST PUSH2 0xA62 PUSH1 0x40 MLOAD DUP1 SWAP6 PUSH2 0x168A JUMP JUMPDEST PUSH1 0x20 DUP5 ADD MSTORE PUSH1 0x40 DUP4 ADD MSTORE ISZERO ISZERO PUSH1 0x60 DUP3 ADD MSTORE RETURN JUMPDEST DUP1 SWAP3 POP NUMBER GT SWAP2 PUSH2 0xA55 JUMP JUMPDEST PUSH4 0x4E487B71 PUSH1 0xE0 SHL PUSH1 0x0 MSTORE PUSH1 0x21 PUSH1 0x4 MSTORE PUSH1 0x24 PUSH1 0x0 REVERT JUMPDEST CALLVALUE PUSH2 0x2FD JUMPI PUSH1 0x0 CALLDATASIZE PUSH1 0x3 NOT ADD SLT PUSH2 0x2FD JUMPI PUSH2 0xAAF PUSH2 0x1870 JUMP JUMPDEST PUSH1 0x1 DUP1 SLOAD PUSH1 0x1 PUSH1 0x1 PUSH1 0xA0 SHL SUB NOT DUP2 AND SWAP1 SWAP2 SSTORE PUSH1 0x0 SWAP1 PUSH1 0x1 PUSH1 0x1 PUSH1 0xA0 SHL SUB AND PUSH1 0x0 DUP1 MLOAD PUSH1 0x20 PUSH2 0x30C9 DUP4 CODECOPY DUP2 MLOAD SWAP2 MSTORE DUP3 DUP1 LOG3 STOP JUMPDEST CALLVALUE PUSH2 0x2FD JUMPI PUSH1 0x0 CALLDATASIZE PUSH1 0x3 NOT ADD SLT PUSH2 0x2FD JUMPI PUSH1 0x40 MLOAD DUP1 PUSH1 0xD SLOAD DUP1 DUP3 MSTORE DUP3 PUSH1 0x20 DUP1 SWAP4 ADD PUSH1 0xD PUSH1 0x0 MSTORE DUP4 PUSH1 0x0 KECCAK256 SWAP3 PUSH1 0x0 JUMPDEST DUP6 DUP3 DUP3 LT PUSH2 0xB26 JUMPI POP POP POP PUSH2 0x674 SWAP3 POP SUB DUP4 PUSH2 0x1936 JUMP JUMPDEST DUP6 SLOAD PUSH1 0x1 PUSH1 0x1 PUSH1 0xA0 SHL SUB AND DUP5 MSTORE PUSH1 0x1 SWAP6 DUP7 ADD SWAP6 DUP9 SWAP6 POP SWAP4 ADD SWAP3 ADD PUSH2 0xB0F JUMP JUMPDEST CALLVALUE PUSH2 0x2FD JUMPI PUSH1 0x20 CALLDATASIZE PUSH1 0x3 NOT ADD SLT PUSH2 0x2FD JUMPI PUSH1 0x20 PUSH2 0xB63 PUSH1 0x4 CALLDATALOAD PUSH2 0x304E JUMP JUMPDEST PUSH1 0x40 MLOAD SWAP1 ISZERO ISZERO DUP2 MSTORE RETURN JUMPDEST CALLVALUE PUSH2 0x2FD JUMPI PUSH1 0x20 PUSH2 0x417 PUSH2 0xB80 CALLDATASIZE PUSH2 0x15FA JUMP JUMPDEST SWAP1 PUSH2 0x2F5B JUMP JUMPDEST CALLVALUE PUSH2 0x2FD JUMPI PUSH1 0x20 CALLDATASIZE PUSH1 0x3 NOT ADD SLT PUSH2 0x2FD JUMPI PUSH1 0x20 PUSH2 0x417 PUSH1 0x4 CALLDATALOAD PUSH2 0x2FED JUMP JUMPDEST CALLVALUE PUSH2 0x2FD JUMPI PUSH1 0x0 CALLDATASIZE PUSH1 0x3 NOT ADD SLT PUSH2 0x2FD JUMPI PUSH1 0x20 PUSH1 0x40 MLOAD PUSH7 0x38D7EA4C68000 DUP2 MSTORE RETURN JUMPDEST CALLVALUE PUSH2 0x2FD JUMPI PUSH1 0x0 CALLDATASIZE PUSH1 0x3 NOT ADD SLT PUSH2 0x2FD JUMPI PUSH1 0x20 PUSH1 0x4 SLOAD PUSH1 0x40 MLOAD SWAP1 DUP2 MSTORE RETURN JUMPDEST CALLVALUE PUSH2 0x2FD JUMPI PUSH1 0x0 CALLDATASIZE PUSH1 0x3 NOT ADD SLT PUSH2 0x2FD JUMPI PUSH1 0x20 PUSH1 0xFF PUSH1 0x5 SLOAD AND PUSH1 0x40 MLOAD SWAP1 ISZERO ISZERO DUP2 MSTORE RETURN JUMPDEST CALLVALUE PUSH2 0x2FD JUMPI PUSH1 0x0 CALLDATASIZE PUSH1 0x3 NOT ADD SLT PUSH2 0x2FD JUMPI PUSH1 0x20 PUSH1 0x3 SLOAD PUSH1 0x40 MLOAD SWAP1 DUP2 MSTORE RETURN JUMPDEST CALLVALUE PUSH2 0x2FD JUMPI PUSH1 0x40 CALLDATASIZE PUSH1 0x3 NOT ADD SLT PUSH2 0x2FD JUMPI PUSH2 0xC3E PUSH2 0x16BA JUMP JUMPDEST PUSH1 0x4 CALLDATALOAD PUSH1 0x0 MSTORE PUSH1 0xB PUSH1 0x20 MSTORE PUSH1 0x40 PUSH1 0x0 KECCAK256 SWAP1 PUSH1 0x1 DUP1 PUSH1 0xA0 SHL SUB AND PUSH1 0x0 MSTORE PUSH1 0x20 MSTORE PUSH1 0x20 PUSH1 0xFF PUSH1 0x40 PUSH1 0x0 KECCAK256 SLOAD AND PUSH1 0x40 MLOAD SWAP1 ISZERO ISZERO DUP2 MSTORE RETURN JUMPDEST CALLVALUE PUSH2 0x2FD JUMPI PUSH1 0x20 CALLDATASIZE PUSH1 0x3 NOT ADD SLT PUSH2 0x2FD JUMPI PUSH2 0xC8B PUSH2 0x16A4 JUMP JUMPDEST PUSH2 0xC93 PUSH2 0x2DCA JUMP JUMPDEST POP PUSH1 0x1 DUP1 PUSH1 0xA0 SHL SUB AND PUSH1 0x0 MSTORE PUSH1 0xC PUSH1 0x20 MSTORE PUSH1 0x80 PUSH1 0x40 PUSH1 0x0 KECCAK256 PUSH1 0x40 MLOAD PUSH2 0xCB7 DUP2 PUSH2 0x1900 JUMP JUMPDEST DUP2 SLOAD SWAP2 DUP3 DUP3 MSTORE PUSH1 0x1 DUP2 ADD SLOAD PUSH1 0x20 DUP4 ADD SWAP1 DUP2 MSTORE PUSH1 0x60 PUSH1 0x3 PUSH1 0x2 DUP5 ADD SLOAD SWAP4 PUSH1 0x40 DUP7 ADD SWAP5 DUP6 MSTORE ADD SLOAD SWAP4 ADD SWAP3 DUP4 MSTORE PUSH1 0x40 MLOAD SWAP4 DUP5 MSTORE MLOAD PUSH1 0x20 DUP5 ADD MSTORE MLOAD PUSH1 0x40 DUP4 ADD MSTORE MLOAD PUSH1 0x60 DUP3 ADD MSTORE RETURN JUMPDEST CALLVALUE PUSH2 0x2FD JUMPI PUSH1 0x0 CALLDATASIZE PUSH1 0x3 NOT ADD SLT PUSH2 0x2FD JUMPI PUSH1 0xFF PUSH1 0x5 SLOAD AND PUSH2 0xF31 JUMPI PUSH1 0x3 SLOAD DUP1 PUSH2 0xEED JUMPI JUMPDEST POP PUSH1 0x2 SLOAD PUSH2 0xD2C DUP2 PUSH2 0x18C8 JUMP JUMPDEST PUSH1 0x2 SSTORE PUSH1 0x64 NUMBER ADD NUMBER GT PUSH2 0x4C3 JUMPI PUSH1 0x40 MLOAD PUSH2 0xD45 DUP2 PUSH2 0x18E4 JUMP JUMPDEST DUP2 DUP2 MSTORE PUSH1 0x1 PUSH1 0x20 DUP3 ADD MSTORE PUSH1 0x0 PUSH1 0x40 DUP3 ADD MSTORE PUSH1 0x0 PUSH1 0x60 DUP3 ADD MSTORE PUSH1 0x0 PUSH1 0x80 DUP3 ADD MSTORE PUSH1 0x0 PUSH1 0xA0 DUP3 ADD MSTORE NUMBER PUSH1 0xC0 DUP3 ADD MSTORE PUSH1 0x64 NUMBER ADD PUSH1 0xE0 DUP3 ADD MSTORE PUSH1 0x0 PUSH2 0x100 DUP3 ADD MSTORE PUSH1 0x0 PUSH2 0x120 DUP3 ADD MSTORE PUSH1 0x0 PUSH2 0x140 DUP3 ADD MSTORE PUSH1 0x0 PUSH2 0x160 DUP3 ADD MSTORE PUSH1 0x0 PUSH2 0x180 DUP3 ADD MSTORE PUSH1 0x0 PUSH2 0x1A0 DUP3 ADD MSTORE PUSH1 0x0 PUSH2 0x1C0 DUP3 ADD MSTORE PUSH1 0x0 PUSH2 0x1E0 DUP3 ADD MSTORE PUSH1 0x0 PUSH2 0x200 DUP3 ADD MSTORE DUP2 PUSH1 0x0 MSTORE PUSH1 0x6 PUSH1 0x20 MSTORE PUSH1 0x40 PUSH1 0x0 KECCAK256 SWAP1 DUP1 MLOAD DUP3 SSTORE PUSH1 0x20 DUP2 ADD MLOAD SWAP1 PUSH1 0x5 DUP3 LT ISZERO PUSH2 0xA80 JUMPI PUSH1 0x1 DUP4 ADD PUSH1 0xFF NOT SWAP3 PUSH1 0xFF DUP5 DUP4 SLOAD AND SWAP2 AND OR SWAP1 SSTORE PUSH1 0x40 DUP2 ADD MLOAD PUSH1 0x2 DUP5 ADD SSTORE PUSH1 0x60 DUP2 ADD MLOAD PUSH1 0x3 DUP5 ADD SSTORE PUSH1 0x80 DUP2 ADD MLOAD PUSH1 0x4 DUP5 ADD SSTORE PUSH1 0xA0 DUP2 ADD MLOAD PUSH1 0x5 DUP5 ADD SSTORE PUSH1 0xC0 DUP2 ADD MLOAD PUSH1 0x6 DUP5 ADD SSTORE PUSH1 0xE0 DUP2 ADD MLOAD PUSH1 0x7 DUP5 ADD SSTORE PUSH2 0x100 DUP2 ADD MLOAD PUSH1 0x8 DUP5 ADD SSTORE PUSH2 0x120 DUP2 ADD MLOAD SWAP1 PUSH1 0x2 DUP3 LT ISZERO PUSH2 0xA80 JUMPI PUSH1 0x10 SWAP3 PUSH2 0xE61 PUSH2 0x200 SWAP4 PUSH1 0x9 DUP8 ADD PUSH2 0x1971 JUMP JUMPDEST PUSH2 0x140 DUP3 ADD MLOAD PUSH1 0xA DUP7 ADD SSTORE PUSH1 0xB DUP6 ADD SWAP1 PUSH1 0xFF PUSH2 0x160 DUP5 ADD MLOAD ISZERO ISZERO SWAP2 DUP4 SLOAD AND SWAP2 AND OR SWAP1 SSTORE PUSH2 0x180 DUP2 ADD MLOAD PUSH1 0xC DUP6 ADD SSTORE PUSH2 0x1A0 DUP2 ADD MLOAD PUSH1 0xD DUP6 ADD SSTORE PUSH2 0x1C0 DUP2 ADD MLOAD PUSH1 0xE DUP6 ADD SSTORE PUSH2 0x1E0 DUP2 ADD MLOAD PUSH1 0xF DUP6 ADD SSTORE ADD MLOAD SWAP2 ADD SSTORE DUP1 PUSH1 0x3 SSTORE PUSH32 0xBD3F84A55FDC44F970ADC6CCBAA93E78D7DA5F3FC37C4B7DA578D47C9AD2E46A PUSH1 0x40 DUP1 MLOAD NUMBER DUP2 MSTORE PUSH1 0x64 NUMBER ADD PUSH1 0x20 DUP3 ADD MSTORE LOG2 STOP JUMPDEST PUSH1 0x0 MSTORE PUSH1 0x6 PUSH1 0x20 MSTORE PUSH1 0xFF PUSH1 0x1 PUSH1 0x40 PUSH1 0x0 KECCAK256 ADD SLOAD AND PUSH1 0x5 DUP2 LT ISZERO PUSH2 0xA80 JUMPI PUSH1 0x1 DUP2 EQ PUSH2 0xF1F JUMPI PUSH1 0x2 EQ PUSH2 0xF1F JUMPI DUP1 PUSH2 0xD1F JUMP JUMPDEST PUSH1 0x40 MLOAD PUSH4 0x2127C5B5 PUSH1 0xE0 SHL DUP2 MSTORE PUSH1 0x4 SWAP1 REVERT JUMPDEST PUSH1 0x40 MLOAD PUSH4 0xAB35696F PUSH1 0xE0 SHL DUP2 MSTORE PUSH1 0x4 SWAP1 REVERT JUMPDEST CALLVALUE PUSH2 0x2FD JUMPI PUSH1 0x0 CALLDATASIZE PUSH1 0x3 NOT ADD SLT PUSH2 0x2FD JUMPI PUSH2 0xF5C PUSH2 0x1870 JUMP JUMPDEST PUSH1 0x4 SLOAD DUP1 PUSH2 0xF66 JUMPI STOP JUMPDEST PUSH1 0x0 DUP1 DUP1 DUP1 SWAP4 DUP2 PUSH1 0x4 SSTORE PUSH1 0x1 DUP1 PUSH1 0xA0 SHL SUB PUSH1 0x1 SLOAD AND GAS CALL PUSH2 0xF85 PUSH2 0x20AA JUMP JUMPDEST POP ISZERO PUSH2 0xF8D JUMPI STOP JUMPDEST PUSH1 0x40 MLOAD PUSH4 0x12171D83 PUSH1 0xE3 SHL DUP2 MSTORE PUSH1 0x4 SWAP1 REVERT JUMPDEST CALLVALUE PUSH2 0x2FD JUMPI PUSH1 0x0 CALLDATASIZE PUSH1 0x3 NOT ADD SLT PUSH2 0x2FD JUMPI PUSH1 0x20 PUSH1 0x40 MLOAD PUSH1 0x2 DUP2 MSTORE RETURN JUMPDEST CALLVALUE PUSH2 0x2FD JUMPI PUSH1 0x0 CALLDATASIZE PUSH1 0x3 NOT ADD SLT PUSH2 0x2FD JUMPI PUSH1 0x20 PUSH1 0x40 MLOAD PUSH1 0x96 DUP2 MSTORE RETURN JUMPDEST CALLVALUE PUSH2 0x2FD JUMPI PUSH1 0x20 PUSH1 0xFF PUSH1 0x2 PUSH2 0x1013 PUSH2 0xFEE CALLDATASIZE PUSH2 0x16D0 JUMP JUMPDEST PUSH1 0x0 SWAP3 DUP4 MSTORE PUSH1 0x7 DUP8 MSTORE PUSH1 0x40 DUP1 DUP5 KECCAK256 PUSH1 0x1 PUSH1 0x1 PUSH1 0xA0 SHL SUB SWAP1 SWAP4 AND DUP5 MSTORE SWAP2 DUP8 MSTORE SWAP2 KECCAK256 PUSH2 0x1831 JUMP JUMPDEST ADD SLOAD PUSH1 0x8 SHR AND PUSH1 0x40 MLOAD SWAP1 ISZERO ISZERO DUP2 MSTORE RETURN JUMPDEST CALLVALUE PUSH2 0x2FD JUMPI PUSH1 0x20 CALLDATASIZE PUSH1 0x3 NOT ADD SLT PUSH2 0x2FD JUMPI PUSH1 0x4 CALLDATALOAD DUP1 ISZERO ISZERO DUP1 SWAP2 SUB PUSH2 0x2FD JUMPI PUSH1 0x20 PUSH32 0x11CEC829FF57D278CFFEE07757E9621BFA0AE0CD17B3D23A7B81CBA95174B8A4 SWAP2 PUSH2 0x106D PUSH2 0x1870 JUMP JUMPDEST PUSH1 0xFF NOT PUSH1 0x5 SLOAD AND PUSH1 0xFF DUP3 AND OR PUSH1 0x5 SSTORE PUSH1 0x40 MLOAD SWAP1 DUP2 MSTORE LOG1 STOP JUMPDEST CALLVALUE PUSH2 0x2FD JUMPI PUSH1 0x20 CALLDATASIZE PUSH1 0x3 NOT ADD SLT PUSH2 0x2FD JUMPI PUSH1 0x4 CALLDATALOAD PUSH1 0x0 MSTORE PUSH1 0x6 PUSH1 0x20 MSTORE PUSH1 0x40 PUSH1 0x0 KECCAK256 DUP1 DUP1 DUP1 SLOAD PUSH1 0x1 DUP3 ADD SLOAD PUSH1 0xFF AND PUSH1 0xC0 MSTORE PUSH1 0x2 DUP3 ADD SLOAD PUSH1 0x3 DUP4 ADD SLOAD PUSH1 0x4 DUP5 ADD SLOAD PUSH1 0x5 DUP6 ADD SLOAD PUSH1 0x6 DUP7 ADD SLOAD PUSH1 0x7 DUP8 ADD SLOAD SWAP1 PUSH1 0x8 DUP9 ADD SLOAD SWAP3 PUSH1 0x9 DUP10 ADD SLOAD PUSH1 0xFF AND SWAP5 PUSH1 0xA DUP11 ADD SLOAD SWAP7 PUSH1 0xB DUP12 ADD SLOAD PUSH1 0xFF AND SWAP9 PUSH1 0xC DUP13 ADD SLOAD SWAP11 PUSH1 0xD DUP14 ADD SLOAD SWAP13 PUSH1 0xE ADD SLOAD SWAP14 PUSH1 0xF ADD SLOAD SWAP15 PUSH1 0x10 ADD SLOAD PUSH1 0xA0 MSTORE PUSH1 0x40 MLOAD DUP1 PUSH1 0x80 MSTORE MSTORE PUSH1 0x80 MLOAD PUSH1 0x20 ADD PUSH1 0xC0 MLOAD SWAP1 PUSH2 0x112A SWAP2 PUSH2 0x168A JUMP JUMPDEST PUSH1 0x80 MLOAD PUSH1 0x40 ADD MSTORE PUSH1 0x80 MLOAD PUSH1 0x60 ADD MSTORE PUSH1 0x80 MLOAD PUSH1 0x80 ADD MSTORE PUSH1 0x80 MLOAD PUSH1 0xA0 ADD MSTORE PUSH1 0x80 MLOAD PUSH1 0xC0 ADD MSTORE PUSH1 0x80 MLOAD PUSH1 0xE0 ADD MSTORE PUSH1 0x80 MLOAD PUSH2 0x100 ADD MSTORE PUSH1 0x80 MLOAD PUSH2 0x120 ADD PUSH2 0x116C SWAP2 PUSH2 0x1697 JUMP JUMPDEST PUSH1 0x80 MLOAD PUSH2 0x140 ADD MSTORE ISZERO ISZERO PUSH1 0x80 MLOAD PUSH2 0x160 ADD MSTORE PUSH1 0x80 MLOAD PUSH2 0x180 ADD MSTORE PUSH1 0x80 MLOAD PUSH2 0x1A0 ADD MSTORE PUSH1 0x80 MLOAD PUSH2 0x1C0 ADD MSTORE PUSH1 0x80 MLOAD PUSH2 0x1E0 ADD MSTORE PUSH1 0xA0 MLOAD PUSH1 0x80 MLOAD PUSH2 0x200 ADD MSTORE PUSH1 0x80 MLOAD PUSH2 0x220 SWAP1 RETURN JUMPDEST CALLVALUE PUSH2 0x2FD JUMPI PUSH1 0x0 CALLDATASIZE PUSH1 0x3 NOT ADD SLT PUSH2 0x2FD JUMPI PUSH1 0x20 PUSH1 0x40 MLOAD PUSH1 0x5 DUP2 MSTORE RETURN JUMPDEST CALLVALUE PUSH2 0x2FD JUMPI PUSH1 0x20 DUP1 PUSH1 0x3 NOT CALLDATASIZE ADD SLT PUSH2 0x2FD JUMPI PUSH1 0x4 CALLDATALOAD PUSH1 0xD SLOAD DUP1 DUP3 LT PUSH1 0x0 EQ PUSH2 0x1303 JUMPI POP JUMPDEST PUSH2 0x11FB DUP2 PUSH2 0x2E29 JUMP JUMPDEST SWAP1 PUSH2 0x1209 PUSH1 0x40 MLOAD SWAP3 DUP4 PUSH2 0x1936 JUMP JUMPDEST DUP1 DUP3 MSTORE PUSH1 0x1F NOT PUSH2 0x1218 DUP3 PUSH2 0x2E29 JUMP JUMPDEST ADD CALLDATASIZE DUP5 DUP5 ADD CALLDATACOPY PUSH2 0x1227 DUP2 PUSH2 0x2E40 JUMP JUMPDEST PUSH2 0x1230 DUP3 PUSH2 0x2E40 JUMP JUMPDEST SWAP2 PUSH1 0x0 JUMPDEST DUP2 DUP2 LT PUSH2 0x1277 JUMPI PUSH2 0x125C DUP6 PUSH2 0x688 DUP7 PUSH2 0x1269 DUP11 DUP9 PUSH1 0x40 MLOAD SWAP7 DUP8 SWAP7 PUSH1 0x60 DUP9 MSTORE PUSH1 0x60 DUP9 ADD SWAP1 PUSH2 0x1619 JUMP JUMPDEST SWAP2 DUP7 DUP4 SUB SWAP1 DUP8 ADD MSTORE PUSH2 0x1656 JUMP JUMPDEST SWAP1 DUP4 DUP3 SUB PUSH1 0x40 DUP6 ADD MSTORE PUSH2 0x1656 JUMP JUMPDEST DUP1 PUSH2 0x1284 PUSH2 0x12FE SWAP3 PUSH2 0x17E8 JUMP JUMPDEST SWAP1 SLOAD PUSH1 0x3 SWAP2 PUSH1 0x1 PUSH1 0x1 PUSH1 0xA0 SHL SUB SWAP2 SWAP1 DUP4 SHL SHR DUP2 AND PUSH2 0x12A2 DUP5 DUP11 PUSH2 0x2E72 JUMP JUMPDEST MSTORE DUP1 PUSH2 0x12AD DUP5 PUSH2 0x17E8 JUMP JUMPDEST SWAP1 SLOAD SWAP1 DUP5 SHL SHR AND PUSH1 0x0 MSTORE PUSH1 0xC SWAP2 DUP3 DUP11 MSTORE PUSH1 0x2 PUSH1 0x40 PUSH1 0x0 KECCAK256 ADD SLOAD PUSH2 0x12D0 DUP6 DUP10 PUSH2 0x2E72 JUMP JUMPDEST MSTORE PUSH2 0x12DA DUP5 PUSH2 0x17E8 JUMP JUMPDEST SWAP1 SLOAD SWAP2 SHL SHR AND PUSH1 0x0 MSTORE DUP8 MSTORE PUSH1 0x1 PUSH1 0x40 PUSH1 0x0 KECCAK256 ADD SLOAD PUSH2 0x12F8 DUP3 DUP8 PUSH2 0x2E72 JUMP JUMPDEST MSTORE PUSH2 0x18C8 JUMP JUMPDEST PUSH2 0x1234 JUMP JUMPDEST SWAP1 POP PUSH2 0x11F2 JUMP JUMPDEST PUSH2 0x1313 CALLDATASIZE PUSH2 0x15FA JUMP JUMPDEST PUSH2 0x131B PUSH2 0x1A04 JUMP JUMPDEST DUP2 ISZERO DUP1 ISZERO PUSH2 0x15EE JUMPI JUMPDEST PUSH2 0x8E8 JUMPI CALLVALUE ISZERO PUSH2 0x15DC JUMPI PUSH7 0x38D7EA4C68000 CALLVALUE LT PUSH2 0x15CA JUMPI DUP2 PUSH1 0x0 MSTORE PUSH1 0x20 SWAP2 PUSH1 0x6 DUP4 MSTORE PUSH1 0x40 PUSH1 0x0 KECCAK256 PUSH1 0x1 SWAP4 PUSH1 0xFF DUP6 DUP4 ADD SLOAD AND PUSH1 0x5 DUP2 LT ISZERO PUSH2 0xA80 JUMPI DUP6 SUB PUSH2 0x15B8 JUMPI PUSH1 0x7 DUP3 ADD SLOAD NUMBER LT ISZERO PUSH2 0x15A6 JUMPI DUP3 PUSH1 0x0 MSTORE PUSH1 0x7 DUP2 MSTORE PUSH1 0x40 PUSH1 0x0 KECCAK256 CALLER PUSH1 0x0 MSTORE DUP2 MSTORE PUSH2 0x1392 DUP5 PUSH1 0x40 PUSH1 0x0 KECCAK256 PUSH2 0x1831 JUMP JUMPDEST SWAP1 PUSH1 0x96 CALLVALUE MUL CALLVALUE DUP2 DIV PUSH1 0x96 SUB PUSH2 0x4C3 JUMPI PUSH2 0x2710 SWAP1 DIV PUSH2 0x13B0 DUP2 CALLVALUE PUSH2 0x19BC JUMP JUMPDEST SWAP1 DUP6 PUSH1 0x0 MSTORE PUSH1 0xA DUP4 MSTORE PUSH2 0x13C9 PUSH1 0x40 PUSH1 0x0 KECCAK256 SWAP2 DUP3 SLOAD PUSH2 0x18D7 JUMP JUMPDEST SWAP1 SSTORE DUP5 PUSH1 0x0 MSTORE PUSH1 0x9 DUP3 MSTORE PUSH1 0x40 PUSH1 0x0 KECCAK256 PUSH2 0x13E3 DUP3 DUP3 SLOAD PUSH2 0x18D7 JUMP JUMPDEST SWAP1 SSTORE PUSH1 0x2 DUP4 SLOAD SWAP4 PUSH2 0x13F7 DUP6 ISZERO SWAP6 CALLVALUE SWAP1 PUSH2 0x18D7 JUMP JUMPDEST DUP2 SSTORE NUMBER DUP10 DUP3 ADD SSTORE ADD DUP1 SLOAD PUSH2 0xFFFF NOT AND SWAP1 SSTORE PUSH1 0x2 DUP7 LT ISZERO PUSH2 0xA80 JUMPI DUP6 ISZERO SWAP3 DUP4 ISZERO PUSH2 0x1582 JUMPI PUSH1 0x2 DUP6 ADD PUSH2 0x1429 CALLVALUE DUP3 SLOAD PUSH2 0x18D7 JUMP JUMPDEST SWAP1 SSTORE PUSH2 0x156D JUMPI JUMPDEST PUSH2 0x143F PUSH1 0xA DUP6 ADD SWAP2 DUP3 SLOAD PUSH2 0x18D7 JUMP JUMPDEST SWAP1 SSTORE DUP4 PUSH1 0x0 MSTORE PUSH1 0xB DUP2 MSTORE PUSH1 0x40 PUSH1 0x0 KECCAK256 CALLER PUSH1 0x0 MSTORE DUP2 MSTORE PUSH1 0xFF PUSH1 0x40 PUSH1 0x0 KECCAK256 SLOAD AND ISZERO PUSH2 0x14BB JUMPI JUMPDEST SWAP2 PUSH2 0x14AA SWAP2 PUSH1 0xC PUSH1 0x0 DUP1 MLOAD PUSH1 0x20 PUSH2 0x30E9 DUP4 CODECOPY DUP2 MLOAD SWAP2 MSTORE SWAP5 CALLER PUSH1 0x0 MSTORE MSTORE PUSH1 0x40 PUSH1 0x0 KECCAK256 PUSH2 0x148E DUP2 SLOAD PUSH2 0x18C8 JUMP JUMPDEST SWAP1 SSTORE ISZERO PUSH2 0x14B2 JUMPI PUSH1 0x2 ADD SLOAD JUMPDEST PUSH1 0x40 MLOAD SWAP2 DUP3 SWAP2 CALLER SWAP7 CALLVALUE SWAP1 DUP5 PUSH2 0x19E7 JUMP JUMPDEST SUB SWAP1 LOG3 PUSH1 0x0 SSTORE STOP JUMPDEST PUSH1 0x3 ADD SLOAD PUSH2 0x149A JUMP JUMPDEST SWAP2 DUP4 PUSH1 0x0 MSTORE PUSH1 0x8 DUP4 MSTORE PUSH2 0x1F4 PUSH1 0x40 PUSH1 0x0 KECCAK256 SLOAD LT ISZERO PUSH2 0x155B JUMPI PUSH1 0x0 DUP5 DUP2 MSTORE PUSH1 0xB DUP5 MSTORE PUSH1 0x40 DUP1 DUP3 KECCAK256 CALLER DUP4 MSTORE DUP6 MSTORE DUP1 DUP3 KECCAK256 DUP1 SLOAD PUSH1 0xFF NOT AND DUP10 OR SWAP1 SSTORE DUP6 DUP3 MSTORE PUSH1 0x8 DUP6 MSTORE SWAP1 KECCAK256 DUP1 SLOAD SWAP3 SWAP1 PUSH1 0x1 PUSH1 0x40 SHL DUP5 LT ISZERO PUSH2 0x1545 JUMPI PUSH1 0x0 DUP1 MLOAD PUSH1 0x20 PUSH2 0x30E9 DUP4 CODECOPY DUP2 MLOAD SWAP2 MSTORE SWAP5 PUSH2 0x153A PUSH2 0x1533 DUP7 PUSH1 0xC SWAP5 DUP13 PUSH2 0x14AA SWAP10 ADD DUP2 SSTORE PUSH2 0x1819 JUMP JUMPDEST CALLER SWAP2 PUSH2 0x19C9 JUMP JUMPDEST SWAP3 SWAP5 POP POP SWAP2 POP PUSH2 0x1463 JUMP JUMPDEST PUSH4 0x4E487B71 PUSH1 0xE0 SHL PUSH1 0x0 MSTORE PUSH1 0x41 PUSH1 0x4 MSTORE PUSH1 0x24 PUSH1 0x0 REVERT JUMPDEST PUSH1 0x40 MLOAD PUSH4 0x844BC549 PUSH1 0xE0 SHL DUP2 MSTORE PUSH1 0x4 SWAP1 REVERT JUMPDEST PUSH1 0x4 DUP5 ADD PUSH2 0x157B DUP2 SLOAD PUSH2 0x18C8 JUMP JUMPDEST SWAP1 SSTORE PUSH2 0x1430 JUMP JUMPDEST PUSH1 0x3 DUP6 ADD PUSH2 0x1591 CALLVALUE DUP3 SLOAD PUSH2 0x18D7 JUMP JUMPDEST SWAP1 SSTORE ISZERO PUSH2 0x1430 JUMPI PUSH1 0x5 DUP5 ADD PUSH2 0x157B DUP2 SLOAD PUSH2 0x18C8 JUMP JUMPDEST PUSH1 0x40 MLOAD PUSH4 0x56C79831 PUSH1 0xE0 SHL DUP2 MSTORE PUSH1 0x4 SWAP1 REVERT JUMPDEST PUSH1 0x40 MLOAD PUSH4 0x976A06EB PUSH1 0xE0 SHL DUP2 MSTORE PUSH1 0x4 SWAP1 REVERT JUMPDEST PUSH1 0x40 MLOAD PUSH4 0x1A6254D1 PUSH1 0xE3 SHL DUP2 MSTORE PUSH1 0x4 SWAP1 REVERT JUMPDEST PUSH1 0x40 MLOAD PUSH4 0x9DE3D441 PUSH1 0xE0 SHL DUP2 MSTORE PUSH1 0x4 SWAP1 REVERT JUMPDEST POP PUSH1 0x2 SLOAD DUP3 LT ISZERO PUSH2 0x1324 JUMP JUMPDEST PUSH1 0x40 SWAP1 PUSH1 0x3 NOT ADD SLT PUSH2 0x2FD JUMPI PUSH1 0x4 CALLDATALOAD SWAP1 PUSH1 0x24 CALLDATALOAD PUSH1 0x2 DUP2 LT ISZERO PUSH2 0x2FD JUMPI SWAP1 JUMP JUMPDEST SWAP1 DUP2 MLOAD DUP1 DUP3 MSTORE PUSH1 0x20 DUP1 DUP1 SWAP4 ADD SWAP4 ADD SWAP2 PUSH1 0x0 JUMPDEST DUP3 DUP2 LT PUSH2 0x1639 JUMPI POP POP POP POP SWAP1 JUMP JUMPDEST DUP4 MLOAD PUSH1 0x1 PUSH1 0x1 PUSH1 0xA0 SHL SUB AND DUP6 MSTORE SWAP4 DUP2 ADD SWAP4 SWAP3 DUP2 ADD SWAP3 PUSH1 0x1 ADD PUSH2 0x162B JUMP JUMPDEST SWAP1 DUP2 MLOAD DUP1 DUP3 MSTORE PUSH1 0x20 DUP1 DUP1 SWAP4 ADD SWAP4 ADD SWAP2 PUSH1 0x0 JUMPDEST DUP3 DUP2 LT PUSH2 0x1676 JUMPI POP POP POP POP SWAP1 JUMP JUMPDEST DUP4 MLOAD DUP6 MSTORE SWAP4 DUP2 ADD SWAP4 SWAP3 DUP2 ADD SWAP3 PUSH1 0x1 ADD PUSH2 0x1668 JUMP JUMPDEST SWAP1 PUSH1 0x5 DUP3 LT ISZERO PUSH2 0xA80 JUMPI MSTORE JUMP JUMPDEST SWAP1 PUSH1 0x2 DUP3 LT ISZERO PUSH2 0xA80 JUMPI MSTORE JUMP JUMPDEST PUSH1 0x4 CALLDATALOAD SWAP1 PUSH1 0x1 PUSH1 0x1 PUSH1 0xA0 SHL SUB DUP3 AND DUP3 SUB PUSH2 0x2FD JUMPI JUMP JUMPDEST PUSH1 0x24 CALLDATALOAD SWAP1 PUSH1 0x1 PUSH1 0x1 PUSH1 0xA0 SHL SUB DUP3 AND DUP3 SUB PUSH2 0x2FD JUMPI JUMP JUMPDEST PUSH1 0x60 SWAP1 PUSH1 0x3 NOT ADD SLT PUSH2 0x2FD JUMPI PUSH1 0x4 CALLDATALOAD SWAP1 PUSH1 0x24 CALLDATALOAD PUSH1 0x1 PUSH1 0x1 PUSH1 0xA0 SHL SUB DUP2 AND DUP2 SUB PUSH2 0x2FD JUMPI SWAP1 PUSH1 0x44 CALLDATALOAD PUSH1 0x2 DUP2 LT ISZERO PUSH2 0x2FD JUMPI SWAP1 JUMP JUMPDEST CALLVALUE PUSH2 0x2FD JUMPI PUSH1 0x0 CALLDATASIZE PUSH1 0x3 NOT ADD SLT PUSH2 0x2FD JUMPI PUSH1 0x20 PUSH1 0x40 MLOAD PUSH1 0x64 DUP2 MSTORE RETURN JUMPDEST SWAP2 SWAP1 SWAP2 PUSH2 0x220 DUP2 ADD SWAP3 DUP1 MLOAD DUP3 MSTORE PUSH2 0x173E PUSH1 0x20 DUP3 ADD MLOAD PUSH1 0x20 DUP5 ADD SWAP1 PUSH2 0x168A JUMP JUMPDEST PUSH1 0x40 DUP2 ADD MLOAD PUSH1 0x40 DUP4 ADD MSTORE PUSH1 0x60 DUP2 ADD MLOAD PUSH1 0x60 DUP4 ADD MSTORE PUSH1 0x80 DUP2 ADD MLOAD PUSH1 0x80 DUP4 ADD MSTORE PUSH1 0xA0 DUP2 ADD MLOAD PUSH1 0xA0 DUP4 ADD MSTORE PUSH1 0xC0 DUP2 ADD MLOAD PUSH1 0xC0 DUP4 ADD MSTORE PUSH1 0xE0 DUP2 ADD MLOAD PUSH1 0xE0 DUP4 ADD MSTORE PUSH2 0x100 DUP1 DUP3 ADD MLOAD SWAP1 DUP4 ADD MSTORE PUSH2 0x1798 PUSH2 0x120 DUP1 DUP4 ADD MLOAD SWAP1 DUP5 ADD SWAP1 PUSH2 0x1697 JUMP JUMPDEST PUSH2 0x140 DUP1 DUP3 ADD MLOAD SWAP1 DUP4 ADD MSTORE PUSH2 0x160 DUP1 DUP3 ADD MLOAD ISZERO ISZERO SWAP1 DUP4 ADD MSTORE PUSH2 0x180 DUP1 DUP3 ADD MLOAD SWAP1 DUP4 ADD MSTORE PUSH2 0x1A0 DUP1 DUP3 ADD MLOAD SWAP1 DUP4 ADD MSTORE PUSH2 0x1C0 DUP1 DUP3 ADD MLOAD SWAP1 DUP4 ADD MSTORE PUSH2 0x1E0 DUP1 DUP3 ADD MLOAD SWAP1 DUP4 ADD MSTORE PUSH2 0x200 DUP1 SWAP2 ADD MLOAD SWAP2 ADD MSTORE JUMP JUMPDEST PUSH1 0xD SLOAD DUP2 LT ISZERO PUSH2 0x1803 JUMPI PUSH1 0xD PUSH1 0x0 MSTORE PUSH1 0x20 PUSH1 0x0 KECCAK256 ADD SWAP1 PUSH1 0x0 SWAP1 JUMP JUMPDEST PUSH4 0x4E487B71 PUSH1 0xE0 SHL PUSH1 0x0 MSTORE PUSH1 0x32 PUSH1 0x4 MSTORE PUSH1 0x24 PUSH1 0x0 REVERT JUMPDEST DUP1 SLOAD DUP3 LT ISZERO PUSH2 0x1803 JUMPI PUSH1 0x0 MSTORE PUSH1 0x20 PUSH1 0x0 KECCAK256 ADD SWAP1 PUSH1 0x0 SWAP1 JUMP JUMPDEST SWAP1 PUSH1 0x2 DUP2 LT ISZERO PUSH2 0xA80 JUMPI PUSH1 0x0 MSTORE PUSH1 0x20 MSTORE PUSH1 0x40 PUSH1 0x0 KECCAK256 SWAP1 JUMP JUMPDEST PUSH1 0x60 DUP1 SWAP2 DUP1 MLOAD DUP5 MSTORE PUSH1 0x20 DUP2 ADD MLOAD PUSH1 0x20 DUP6 ADD MSTORE PUSH1 0x40 DUP2 ADD MLOAD ISZERO ISZERO PUSH1 0x40 DUP6 ADD MSTORE ADD MLOAD ISZERO ISZERO SWAP2 ADD MSTORE JUMP JUMPDEST PUSH1 0x1 SLOAD PUSH1 0x1 PUSH1 0x1 PUSH1 0xA0 SHL SUB AND CALLER SUB PUSH2 0x1884 JUMPI JUMP JUMPDEST PUSH1 0x64 PUSH1 0x40 MLOAD PUSH3 0x461BCD PUSH1 0xE5 SHL DUP2 MSTORE PUSH1 0x20 PUSH1 0x4 DUP3 ADD MSTORE PUSH1 0x20 PUSH1 0x24 DUP3 ADD MSTORE PUSH32 0x4F776E61626C653A2063616C6C6572206973206E6F7420746865206F776E6572 PUSH1 0x44 DUP3 ADD MSTORE REVERT JUMPDEST PUSH1 0x0 NOT DUP2 EQ PUSH2 0x4C3 JUMPI PUSH1 0x1 ADD SWAP1 JUMP JUMPDEST SWAP2 SWAP1 DUP3 ADD DUP1 SWAP3 GT PUSH2 0x4C3 JUMPI JUMP JUMPDEST PUSH2 0x220 DUP2 ADD SWAP1 DUP2 LT PUSH1 0x1 PUSH1 0x1 PUSH1 0x40 SHL SUB DUP3 GT OR PUSH2 0x1545 JUMPI PUSH1 0x40 MSTORE JUMP JUMPDEST PUSH1 0x80 DUP2 ADD SWAP1 DUP2 LT PUSH1 0x1 PUSH1 0x1 PUSH1 0x40 SHL SUB DUP3 GT OR PUSH2 0x1545 JUMPI PUSH1 0x40 MSTORE JUMP JUMPDEST PUSH1 0x40 DUP2 ADD SWAP1 DUP2 LT PUSH1 0x1 PUSH1 0x1 PUSH1 0x40 SHL SUB DUP3 GT OR PUSH2 0x1545 JUMPI PUSH1 0x40 MSTORE JUMP JUMPDEST PUSH1 0x1F SWAP1 SWAP2 ADD PUSH1 0x1F NOT AND DUP2 ADD SWAP1 PUSH1 0x1 PUSH1 0x1 PUSH1 0x40 SHL SUB DUP3 GT SWAP1 DUP3 LT OR PUSH2 0x1545 JUMPI PUSH1 0x40 MSTORE JUMP JUMPDEST PUSH1 0x5 DUP3 LT ISZERO PUSH2 0xA80 JUMPI MSTORE JUMP JUMPDEST PUSH1 0x2 DUP3 LT ISZERO PUSH2 0xA80 JUMPI MSTORE JUMP JUMPDEST SWAP1 PUSH1 0x2 DUP2 LT ISZERO PUSH2 0xA80 JUMPI PUSH1 0xFF DUP1 NOT DUP4 SLOAD AND SWAP2 AND OR SWAP1 SSTORE JUMP JUMPDEST DUP2 DUP2 MUL SWAP3 SWAP2 DUP2 ISZERO SWAP2 DUP5 DIV EQ OR ISZERO PUSH2 0x4C3 JUMPI JUMP JUMPDEST DUP2 ISZERO PUSH2 0x19A6 JUMPI DIV SWAP1 JUMP JUMPDEST PUSH4 0x4E487B71 PUSH1 0xE0 SHL PUSH1 0x0 MSTORE PUSH1 0x12 PUSH1 0x4 MSTORE PUSH1 0x24 PUSH1 0x0 REVERT JUMPDEST SWAP2 SWAP1 DUP3 SUB SWAP2 DUP3 GT PUSH2 0x4C3 JUMPI JUMP JUMPDEST SWAP2 SWAP1 DUP3 SLOAD SWAP1 PUSH1 0x3 SHL SWAP2 PUSH1 0x1 DUP1 PUSH1 0xA0 SHL SUB DUP1 SWAP2 AND DUP4 SHL SWAP3 SHL NOT AND OR SWAP1 SSTORE JUMP JUMPDEST PUSH1 0x40 SWAP2 SWAP5 SWAP4 SWAP3 PUSH2 0x19FB DUP3 PUSH1 0x60 DUP2 ADD SWAP8 PUSH2 0x1697 JUMP JUMPDEST PUSH1 0x20 DUP3 ADD MSTORE ADD MSTORE JUMP JUMPDEST PUSH1 0x2 PUSH1 0x0 SLOAD EQ PUSH2 0x1A15 JUMPI PUSH1 0x2 PUSH1 0x0 SSTORE JUMP JUMPDEST PUSH1 0x40 MLOAD PUSH3 0x461BCD PUSH1 0xE5 SHL DUP2 MSTORE PUSH1 0x20 PUSH1 0x4 DUP3 ADD MSTORE PUSH1 0x1F PUSH1 0x24 DUP3 ADD MSTORE PUSH32 0x5265656E7472616E637947756172643A207265656E7472616E742063616C6C00 PUSH1 0x44 DUP3 ADD MSTORE PUSH1 0x64 SWAP1 REVERT JUMPDEST DUP1 ISZERO DUP1 ISZERO PUSH2 0x209E JUMPI JUMPDEST PUSH2 0x8E8 JUMPI DUP1 PUSH1 0x0 MSTORE PUSH1 0x6 PUSH1 0x20 MSTORE PUSH1 0x40 PUSH1 0x0 KECCAK256 PUSH1 0x1 DUP2 ADD SLOAD PUSH1 0xFF DUP2 AND PUSH1 0x5 DUP2 LT ISZERO PUSH2 0xA80 JUMPI PUSH1 0x1 EQ PUSH2 0x2036 JUMPI POP SWAP1 PUSH1 0xFF PUSH1 0x1 DUP4 ADD SLOAD AND PUSH1 0x5 DUP2 LT ISZERO PUSH2 0xA80 JUMPI PUSH1 0x2 EQ PUSH2 0x1ABA JUMPI PUSH1 0x40 MLOAD PUSH4 0x41D5C2CF PUSH1 0xE0 SHL DUP2 MSTORE PUSH1 0x4 SWAP1 REVERT JUMPDEST PUSH1 0xC DUP3 ADD SLOAD DUP1 NUMBER GT ISZERO PUSH2 0x2024 JUMPI DUP1 BLOCKHASH SWAP1 DUP1 ISZERO PUSH2 0x201C JUMPI PUSH1 0x0 NOT DUP2 ADD DUP2 DUP2 GT PUSH2 0x4C3 JUMPI SWAP1 JUMPDEST PUSH1 0x1 DUP2 GT ISZERO PUSH2 0x2014 JUMPI PUSH1 0x1 NOT DUP2 ADD SWAP1 DUP2 GT PUSH2 0x4C3 JUMPI JUMPDEST PUSH1 0x40 MLOAD SWAP1 PUSH1 0x20 DUP3 ADD SWAP3 DUP5 DUP5 MSTORE BLOCKHASH PUSH1 0x40 DUP4 ADD MSTORE BLOCKHASH PUSH1 0x60 DUP3 ADD MSTORE PUSH1 0x60 DUP2 MSTORE PUSH2 0x1B19 DUP2 PUSH2 0x1900 JUMP JUMPDEST MLOAD SWAP1 KECCAK256 PUSH1 0x7 DUP5 ADD DUP1 SLOAD SWAP1 SWAP3 PUSH1 0x18 NOT DUP3 ADD SWAP3 SWAP2 DUP4 GT PUSH2 0x4C3 JUMPI PUSH2 0x1FFB JUMPI POP POP SLOAD PUSH1 0xD DUP4 ADD SSTORE JUMPDEST DUP1 PUSH1 0x0 MSTORE PUSH1 0x6 PUSH1 0x20 MSTORE PUSH1 0x40 PUSH1 0x0 KECCAK256 PUSH1 0x8 PUSH1 0x20 MSTORE PUSH1 0x40 PUSH1 0x0 KECCAK256 SWAP4 PUSH1 0x0 DUP1 SWAP4 PUSH1 0x0 SWAP7 PUSH1 0x0 SWAP4 PUSH1 0x0 JUMPDEST DUP3 SLOAD DUP2 LT ISZERO PUSH2 0x1D25 JUMPI PUSH2 0x1B77 DUP2 DUP5 PUSH2 0x1819 JUMP JUMPDEST PUSH1 0x1 DUP1 PUSH1 0xA0 SHL SUB SWAP2 SLOAD SWAP1 PUSH1 0x3 SHL SHR AND DUP5 PUSH1 0x0 MSTORE PUSH1 0x7 PUSH1 0x20 MSTORE PUSH1 0x40 PUSH1 0x0 KECCAK256 DUP2 PUSH1 0x0 MSTORE PUSH1 0x20 MSTORE PUSH1 0x40 PUSH1 0x0 KECCAK256 PUSH1 0x0 DUP1 MSTORE PUSH1 0x20 MSTORE PUSH1 0x40 PUSH1 0x0 KECCAK256 DUP1 SLOAD DUP1 ISZERO SWAP1 DUP2 ISZERO PUSH2 0x1C97 JUMPI JUMPDEST POP POP POP DUP5 PUSH1 0x0 MSTORE PUSH1 0x7 PUSH1 0x20 MSTORE PUSH1 0x40 PUSH1 0x0 KECCAK256 SWAP1 PUSH1 0x0 MSTORE PUSH1 0x20 MSTORE PUSH1 0x40 PUSH1 0x0 KECCAK256 PUSH1 0x1 PUSH1 0x0 MSTORE PUSH1 0x20 MSTORE PUSH1 0x40 PUSH1 0x0 KECCAK256 DUP1 SLOAD DUP1 ISZERO DUP1 ISZERO PUSH2 0x1BFE JUMPI JUMPDEST POP POP POP PUSH2 0x1BF9 SWAP1 PUSH2 0x18C8 JUMP JUMPDEST PUSH2 0x1B64 JUMP JUMPDEST PUSH1 0x1 DUP4 ADD SLOAD PUSH1 0xD DUP12 ADD SLOAD SWAP5 SWAP14 SWAP5 GT ISZERO PUSH2 0x1C59 JUMPI POP POP PUSH2 0x1C1F SWAP1 SLOAD DUP1 SWAP10 PUSH2 0x18D7 JUMP JUMPDEST SWAP8 PUSH1 0x96 SWAP2 DUP2 DUP4 DUP2 MUL DIV DUP4 EQ DUP3 ISZERO OR ISZERO PUSH2 0x4C3 JUMPI PUSH2 0x1C49 DUP3 PUSH2 0x2710 PUSH2 0x1BF9 SWAP6 PUSH2 0x1C4F SWAP6 MUL DIV SWAP1 PUSH2 0x19BC JUMP JUMPDEST SWAP1 PUSH2 0x18D7 JUMP JUMPDEST SWAP10 JUMPDEST SWAP1 CODESIZE DUP1 PUSH2 0x1BED JUMP JUMPDEST PUSH1 0x2 SWAP1 SWAP3 ADD DUP1 SLOAD PUSH2 0xFF00 NOT AND PUSH2 0x100 OR SWAP1 SSTORE SWAP2 SWAP11 SWAP7 SWAP2 PUSH1 0x96 DUP1 DUP3 MUL SWAP3 SWAP2 DUP4 DIV EQ OR ISZERO PUSH2 0x4C3 JUMPI PUSH2 0x1BF9 SWAP2 PUSH2 0x2710 PUSH2 0x1C91 SWAP3 DIV SWAP1 PUSH2 0x18D7 JUMP JUMPDEST SWAP6 PUSH2 0x1C51 JUMP JUMPDEST PUSH1 0x1 DUP4 ADD SLOAD PUSH1 0xD DUP13 ADD SLOAD SWAP5 SWAP15 SWAP10 SWAP5 GT ISZERO PUSH2 0x1CE9 JUMPI POP POP PUSH2 0x1CB9 SWAP1 SLOAD DUP1 SWAP3 PUSH2 0x18D7 JUMP JUMPDEST SWAP6 PUSH1 0x96 DUP3 DUP2 DUP2 MUL DIV DUP2 EQ DUP4 ISZERO OR ISZERO PUSH2 0x4C3 JUMPI DUP3 PUSH2 0x2710 PUSH2 0x1C49 SWAP3 PUSH2 0x1CDF SWAP6 MUL DIV SWAP1 PUSH2 0x19BC JUMP JUMPDEST SWAP10 JUMPDEST CODESIZE DUP1 DUP1 PUSH2 0x1BB8 JUMP JUMPDEST SWAP1 SWAP3 SWAP8 SWAP13 SWAP9 SWAP2 PUSH1 0x2 ADD PUSH2 0x100 PUSH2 0xFF00 NOT DUP3 SLOAD AND OR SWAP1 SSTORE PUSH1 0x96 SWAP3 DUP2 DUP5 DUP2 MUL DIV DUP5 EQ OR ISZERO PUSH2 0x4C3 JUMPI PUSH2 0x1D1F SWAP3 PUSH2 0x2710 SWAP2 MUL DIV SWAP1 PUSH2 0x18D7 JUMP JUMPDEST SWAP6 PUSH2 0x1CE1 JUMP JUMPDEST POP SWAP8 SWAP4 SWAP5 SWAP2 SWAP7 SWAP6 SWAP1 POP PUSH1 0x10 SWAP3 PUSH1 0xE DUP4 ADD SSTORE PUSH1 0xF DUP3 ADD SSTORE ADD SSTORE DUP1 PUSH2 0x1FBF JUMPI JUMPDEST POP PUSH1 0xD DUP2 ADD SLOAD PUSH1 0xE DUP3 ADD SWAP2 DUP3 SLOAD PUSH1 0xF DUP3 ADD SWAP3 DUP6 PUSH32 0x63664D33416C0AB02E7DFE6555E6F8FC77AF9CA212A3FEF165A05ACDAA4E1768 PUSH1 0x60 DUP7 SLOAD SWAP4 PUSH1 0x40 MLOAD SWAP1 DUP2 MSTORE DUP6 PUSH1 0x20 DUP3 ADD MSTORE DUP5 PUSH1 0x40 DUP3 ADD MSTORE LOG2 PUSH8 0x6F05B59D3B20000 PUSH2 0x1DA2 DUP3 DUP5 PUSH2 0x18D7 JUMP JUMPDEST LT SWAP2 DUP3 ISZERO PUSH2 0x1FB6 JUMPI JUMPDEST POP DUP2 ISZERO PUSH2 0x1FAD JUMPI JUMPDEST POP PUSH2 0x1F37 JUMPI DUP3 SLOAD DUP3 SLOAD DUP1 DUP3 EQ PUSH2 0x1EBF JUMPI POP POP SWAP2 PUSH1 0xA0 SWAP2 PUSH32 0xF64C79C3632FCD52F5F08E54C35FC6871794ED1878E02F3061139A4C178221BD SWAP4 DUP3 SLOAD DUP3 SLOAD GT PUSH1 0x0 EQ PUSH2 0x1EB7 JUMPI PUSH1 0x0 SWAP3 JUMPDEST PUSH2 0x1E08 DUP5 PUSH1 0x9 DUP5 ADD PUSH2 0x1971 JUMP JUMPDEST PUSH1 0x3 PUSH1 0xB DUP4 ADD PUSH1 0xFF NOT SWAP1 PUSH1 0x1 DUP3 DUP3 SLOAD AND OR SWAP1 SSTORE PUSH1 0x1 DUP5 ADD SLOAD AND OR PUSH1 0x1 DUP4 ADD SSTORE NUMBER PUSH1 0x8 DUP4 ADD SSTORE DUP7 PUSH1 0x0 MSTORE PUSH1 0xA PUSH1 0x20 MSTORE DUP7 PUSH32 0xEC81DEB90BCC57C0CA18F5C03C0C05887DB260D498C57B4E02FE93898578DC7E PUSH1 0x20 PUSH1 0x40 PUSH1 0x0 KECCAK256 SLOAD PUSH2 0x1E6C DUP2 PUSH1 0x4 SLOAD PUSH2 0x18D7 JUMP JUMPDEST PUSH1 0x4 SSTORE DUP4 PUSH1 0x0 MSTORE PUSH1 0xA DUP3 MSTORE PUSH1 0x0 PUSH1 0x40 DUP2 KECCAK256 SSTORE PUSH1 0x40 MLOAD SWAP1 DUP2 MSTORE LOG2 SLOAD SWAP2 SLOAD PUSH1 0x5 PUSH1 0x4 DUP4 ADD SLOAD SWAP3 ADD SLOAD SWAP3 PUSH2 0x1EA0 PUSH1 0x40 MLOAD DUP1 SWAP7 PUSH2 0x1697 JUMP JUMPDEST PUSH1 0x20 DUP6 ADD MSTORE PUSH1 0x40 DUP5 ADD MSTORE PUSH1 0x60 DUP4 ADD MSTORE PUSH1 0x80 DUP3 ADD MSTORE LOG2 JUMP JUMPDEST PUSH1 0x1 SWAP3 PUSH2 0x1DFB JUMP JUMPDEST DUP6 SWAP5 POP PUSH2 0x1F35 SWAP6 SWAP4 POP PUSH31 0xC62D58CBB6A9291254143347FDC129D33FC8550DBB03C801ABB5FCBA00470D SWAP3 POP SWAP1 PUSH1 0x40 SWAP2 DUP3 MLOAD SWAP2 DUP3 MSTORE PUSH1 0x20 DUP3 ADD MSTORE LOG2 PUSH1 0x40 MLOAD SWAP1 PUSH2 0x1F06 DUP3 PUSH2 0x191B JUMP JUMPDEST PUSH1 0x1E DUP3 MSTORE PUSH32 0x457861637420746965202D20726566756E64696E6720616C6C20626574730000 PUSH1 0x20 DUP4 ADD MSTORE PUSH2 0x2A26 JUMP JUMPDEST JUMP JUMPDEST POP POP PUSH1 0x40 MLOAD PUSH1 0x60 DUP2 ADD SWAP3 SWAP1 SWAP2 POP PUSH1 0x1 PUSH1 0x1 PUSH1 0x40 SHL SUB DUP4 GT DUP3 DUP5 LT OR PUSH2 0x1545 JUMPI PUSH2 0x1F35 SWAP3 PUSH1 0x40 MSTORE PUSH1 0x38 DUP3 MSTORE PUSH32 0x496E73756666696369656E742076616C69642070617274696369706174696F6E PUSH1 0x20 DUP4 ADD MSTORE PUSH24 0x1030B33A32B91030B73A3496B9B734B832903334B63A32B9 PUSH1 0x41 SHL PUSH1 0x40 DUP4 ADD MSTORE PUSH2 0x2A26 JUMP JUMPDEST SWAP1 POP ISZERO CODESIZE PUSH2 0x1DB3 JUMP JUMPDEST ISZERO SWAP2 POP CODESIZE PUSH2 0x1DAB JUMP JUMPDEST DUP3 PUSH1 0x0 MSTORE PUSH1 0xA PUSH1 0x20 MSTORE PUSH1 0x40 PUSH1 0x0 KECCAK256 PUSH2 0x1FD8 DUP3 DUP3 SLOAD PUSH2 0x19BC JUMP JUMPDEST SWAP1 SSTORE DUP3 PUSH1 0x0 MSTORE PUSH1 0x9 PUSH1 0x20 MSTORE PUSH2 0x1FF3 PUSH1 0x40 PUSH1 0x0 KECCAK256 SWAP2 DUP3 SLOAD PUSH2 0x18D7 JUMP JUMPDEST SWAP1 SSTORE CODESIZE PUSH2 0x1D43 JUMP JUMPDEST PUSH2 0x200A SWAP3 POP PUSH1 0x19 SWAP1 MOD SWAP1 PUSH2 0x18D7 JUMP JUMPDEST PUSH1 0xD DUP4 ADD SSTORE PUSH2 0x1B3E JUMP JUMPDEST POP PUSH1 0x0 PUSH2 0x1AF4 JUMP JUMPDEST PUSH1 0x0 SWAP1 PUSH2 0x1ADE JUMP JUMPDEST PUSH1 0x40 MLOAD PUSH4 0x9E3295EB PUSH1 0xE0 SHL DUP2 MSTORE PUSH1 0x4 SWAP1 REVERT JUMPDEST PUSH1 0x7 DUP3 ADD SLOAD NUMBER LT PUSH2 0x208C JUMPI PUSH1 0x5 NUMBER ADD DUP1 NUMBER GT PUSH2 0x4C3 JUMPI DUP3 PUSH1 0x1 PUSH1 0x2 PUSH1 0x20 SWAP5 DUP5 PUSH1 0xC PUSH32 0x7533B1B4824739AA6CCAA9FE69EBABF7CD867B3C42F18208B088F10A2EBF51C9 SWAP9 ADD SSTORE PUSH1 0xFF NOT AND OR SWAP2 ADD SSTORE PUSH1 0x40 MLOAD SWAP1 DUP2 MSTORE LOG2 JUMP JUMPDEST PUSH1 0x40 MLOAD PUSH4 0x658AEAD3 PUSH1 0xE0 SHL DUP2 MSTORE PUSH1 0x4 SWAP1 REVERT JUMPDEST POP PUSH1 0x2 SLOAD DUP2 LT ISZERO PUSH2 0x1A63 JUMP JUMPDEST RETURNDATASIZE ISZERO PUSH2 0x20E4 JUMPI RETURNDATASIZE SWAP1 PUSH1 0x1 PUSH1 0x1 PUSH1 0x40 SHL SUB DUP3 GT PUSH2 0x1545 JUMPI PUSH1 0x40 MLOAD SWAP2 PUSH2 0x20D8 PUSH1 0x1F DUP3 ADD PUSH1 0x1F NOT AND PUSH1 0x20 ADD DUP5 PUSH2 0x1936 JUMP JUMPDEST DUP3 MSTORE RETURNDATASIZE PUSH1 0x0 PUSH1 0x20 DUP5 ADD RETURNDATACOPY JUMP JUMPDEST PUSH1 0x60 SWAP1 JUMP JUMPDEST DUP1 ISZERO DUP1 ISZERO PUSH2 0x2439 JUMPI JUMPDEST PUSH2 0x8E8 JUMPI PUSH1 0x0 SWAP1 DUP1 DUP3 MSTORE PUSH1 0x20 PUSH1 0x6 DUP2 MSTORE PUSH1 0x40 DUP1 DUP5 KECCAK256 SWAP2 PUSH1 0x7 DUP2 MSTORE DUP2 DUP6 KECCAK256 CALLER DUP7 MSTORE DUP2 MSTORE DUP2 DUP6 KECCAK256 DUP6 DUP1 MSTORE DUP2 MSTORE DUP2 DUP6 KECCAK256 DUP1 SLOAD SWAP4 DUP5 ISZERO PUSH2 0x2428 JUMPI PUSH1 0x2 DUP3 ADD SWAP5 DUP6 SLOAD SWAP1 PUSH1 0xFF SWAP2 DUP3 DUP2 AND PUSH2 0x2417 JUMPI DUP3 PUSH1 0xB DUP6 ADD SLOAD AND ISZERO DUP1 PUSH2 0x23EA JUMPI JUMPDEST PUSH2 0x238E JUMPI POP POP DUP1 PUSH1 0x1 DUP4 ADD SLOAD AND PUSH1 0x5 DUP2 LT ISZERO PUSH2 0x237A JUMPI PUSH1 0x3 DUP2 EQ ISZERO SWAP1 DUP2 PUSH2 0x236E JUMPI JUMPDEST POP PUSH2 0x235D JUMPI DUP6 SLOAD DUP2 DUP2 PUSH1 0x8 SHR AND PUSH2 0x2300 JUMPI POP PUSH1 0x9 DUP3 ADD DUP2 DUP2 SLOAD AND PUSH1 0x2 DUP2 LT ISZERO PUSH2 0x22EC JUMPI PUSH2 0x22C0 JUMPI SLOAD AND PUSH1 0x2 DUP2 LT ISZERO PUSH2 0x22AC JUMPI PUSH2 0x22A1 JUMPI PUSH1 0xE DUP2 ADD SLOAD SWAP1 JUMPDEST DUP3 SLOAD SWAP2 PUSH8 0xDE0B6B3A7640000 SWAP3 DUP4 DUP2 MUL SWAP1 DUP1 DUP3 DIV DUP6 EQ SWAP1 ISZERO OR ISZERO PUSH2 0x228D JUMPI PUSH2 0x21D5 PUSH2 0x21DD SWAP4 SWAP3 PUSH1 0x10 SWAP3 PUSH2 0x199C JUMP JUMPDEST SWAP2 ADD SLOAD PUSH2 0x1989 JUMP JUMPDEST DIV SWAP4 PUSH1 0x1 PUSH1 0xFF NOT DUP3 SLOAD AND OR SWAP1 SSTORE DUP4 PUSH2 0x224F JUMPI JUMPDEST CALLER DUP7 MSTORE PUSH1 0xC DUP3 MSTORE PUSH1 0x1 DUP4 DUP8 KECCAK256 ADD PUSH2 0x2207 DUP2 SLOAD PUSH2 0x18C8 JUMP JUMPDEST SWAP1 SSTORE CALLER DUP7 MSTORE PUSH1 0xC DUP3 MSTORE PUSH1 0x2 DUP4 DUP8 KECCAK256 ADD PUSH2 0x2221 DUP6 DUP3 SLOAD PUSH2 0x18D7 JUMP JUMPDEST SWAP1 SSTORE PUSH2 0x222C CALLER PUSH2 0x2AFC JUMP JUMPDEST SLOAD SWAP1 DUP3 MLOAD SWAP6 DUP7 MSTORE DUP6 ADD MSTORE DUP4 ADD MSTORE PUSH1 0x0 DUP1 MLOAD PUSH1 0x20 PUSH2 0x3109 DUP4 CODECOPY DUP2 MLOAD SWAP2 MSTORE PUSH1 0x60 CALLER SWAP4 LOG3 JUMP JUMPDEST DUP5 DUP7 MSTORE PUSH1 0x9 DUP3 MSTORE DUP3 DUP7 KECCAK256 PUSH2 0x2264 DUP6 DUP3 SLOAD PUSH2 0x19BC JUMP JUMPDEST SWAP1 SSTORE DUP6 DUP1 DUP1 DUP1 DUP8 CALLER GAS CALL PUSH2 0x2276 PUSH2 0x20AA JUMP JUMPDEST POP PUSH2 0x21F0 JUMPI JUMPDEST DUP3 MLOAD PUSH4 0x12171D83 PUSH1 0xE3 SHL DUP2 MSTORE PUSH1 0x4 SWAP1 REVERT JUMPDEST PUSH4 0x4E487B71 PUSH1 0xE0 SHL DUP11 MSTORE PUSH1 0x11 PUSH1 0x4 MSTORE PUSH1 0x24 DUP11 REVERT JUMPDEST PUSH1 0xF DUP2 ADD SLOAD SWAP1 PUSH2 0x21A7 JUMP JUMPDEST PUSH4 0x4E487B71 PUSH1 0xE0 SHL DUP9 MSTORE PUSH1 0x21 PUSH1 0x4 MSTORE PUSH1 0x24 DUP9 REVERT JUMPDEST POP POP POP POP PUSH1 0xC SWAP2 SWAP4 POP PUSH1 0x3 SWAP5 SWAP3 PUSH1 0x1 PUSH1 0xFF NOT DUP3 SLOAD AND OR SWAP1 SSTORE CALLER DUP4 MSTORE MSTORE KECCAK256 ADD PUSH2 0x22E8 DUP2 SLOAD PUSH2 0x18C8 JUMP JUMPDEST SWAP1 SSTORE JUMP JUMPDEST PUSH4 0x4E487B71 PUSH1 0xE0 SHL DUP11 MSTORE PUSH1 0x21 PUSH1 0x4 MSTORE PUSH1 0x24 DUP11 REVERT JUMPDEST SWAP5 SWAP6 SWAP3 SWAP1 POP PUSH1 0x1 SWAP2 POP SLOAD SWAP4 PUSH1 0xFF NOT AND OR SWAP1 SSTORE DUP4 DUP6 MSTORE PUSH1 0x9 DUP2 MSTORE DUP3 DUP6 KECCAK256 PUSH2 0x2327 DUP4 DUP3 SLOAD PUSH2 0x19BC JUMP JUMPDEST SWAP1 SSTORE DUP5 DUP1 DUP1 DUP1 DUP6 CALLER GAS CALL PUSH2 0x2339 PUSH2 0x20AA JUMP JUMPDEST POP ISZERO PUSH2 0x227C JUMPI DUP3 MLOAD SWAP5 DUP6 MSTORE DUP5 ADD MSTORE CALLER SWAP3 PUSH1 0x0 DUP1 MLOAD PUSH1 0x20 PUSH2 0x3129 DUP4 CODECOPY DUP2 MLOAD SWAP2 MSTORE SWAP2 SWAP1 LOG3 JUMP JUMPDEST DUP5 MLOAD PUSH4 0x60829305 PUSH1 0xE1 SHL DUP2 MSTORE PUSH1 0x4 SWAP1 REVERT JUMPDEST PUSH1 0x4 SWAP2 POP EQ ISZERO CODESIZE PUSH2 0x216A JUMP JUMPDEST PUSH4 0x4E487B71 PUSH1 0xE0 SHL DUP10 MSTORE PUSH1 0x21 PUSH1 0x4 MSTORE PUSH1 0x24 DUP10 REVERT JUMPDEST SWAP2 POP SWAP5 SWAP6 SWAP3 POP PUSH1 0x1 SWAP2 POP PUSH1 0xFF NOT AND OR SWAP1 SSTORE DUP4 DUP6 MSTORE PUSH1 0x9 DUP2 MSTORE DUP3 DUP6 KECCAK256 PUSH2 0x23B4 DUP4 DUP3 SLOAD PUSH2 0x19BC JUMP JUMPDEST SWAP1 SSTORE DUP5 DUP1 DUP1 DUP1 DUP6 CALLER GAS CALL PUSH2 0x23C6 PUSH2 0x20AA JUMP JUMPDEST POP ISZERO PUSH2 0x227C JUMPI DUP3 MLOAD SWAP5 DUP6 MSTORE DUP5 ADD MSTORE CALLER SWAP3 PUSH1 0x0 DUP1 MLOAD PUSH1 0x20 PUSH2 0x3149 DUP4 CODECOPY DUP2 MLOAD SWAP2 MSTORE SWAP2 SWAP1 LOG3 JUMP JUMPDEST POP DUP3 PUSH1 0x1 DUP6 ADD SLOAD AND PUSH1 0x5 DUP2 LT ISZERO PUSH2 0x2403 JUMPI PUSH1 0x4 EQ PUSH2 0x2148 JUMP JUMPDEST PUSH4 0x4E487B71 PUSH1 0xE0 SHL DUP12 MSTORE PUSH1 0x21 PUSH1 0x4 MSTORE PUSH1 0x24 DUP12 REVERT JUMPDEST DUP7 MLOAD PUSH4 0xC8D9EAB PUSH1 0xE3 SHL DUP2 MSTORE PUSH1 0x4 SWAP1 REVERT JUMPDEST DUP4 MLOAD PUSH4 0x2F42CBDD PUSH1 0xE0 SHL DUP2 MSTORE PUSH1 0x4 SWAP1 REVERT JUMPDEST POP PUSH1 0x2 SLOAD DUP2 LT ISZERO PUSH2 0x20F2 JUMP JUMPDEST DUP1 ISZERO DUP1 ISZERO PUSH2 0x271F JUMPI JUMPDEST PUSH2 0x8E8 JUMPI PUSH1 0x0 SWAP1 DUP1 DUP3 MSTORE PUSH1 0x20 PUSH1 0x6 DUP2 MSTORE PUSH1 0x40 DUP1 DUP5 KECCAK256 SWAP2 PUSH1 0x7 DUP2 MSTORE DUP2 DUP6 KECCAK256 CALLER DUP7 MSTORE DUP2 MSTORE DUP2 DUP6 KECCAK256 SWAP5 PUSH1 0x1 SWAP6 DUP7 DUP3 MSTORE DUP3 MSTORE DUP3 DUP2 KECCAK256 SWAP1 DUP2 SLOAD SWAP5 DUP6 ISZERO PUSH2 0x270E JUMPI PUSH1 0x2 DUP4 ADD SWAP6 DUP7 SLOAD SWAP1 PUSH1 0xFF SWAP2 DUP3 DUP2 AND PUSH2 0x26FD JUMPI DUP11 SWAP1 DUP4 PUSH1 0xB DUP7 ADD SLOAD AND ISZERO DUP1 PUSH2 0x26CE JUMPI JUMPDEST PUSH2 0x2698 JUMPI POP DUP3 SWAP2 POP DUP4 ADD SLOAD AND PUSH1 0x5 DUP2 LT ISZERO PUSH2 0x2684 JUMPI PUSH1 0x3 DUP2 EQ ISZERO SWAP1 DUP2 PUSH2 0x2678 JUMPI JUMPDEST POP PUSH2 0x2667 JUMPI DUP7 SLOAD DUP10 DUP3 DUP3 PUSH1 0x8 SHR AND PUSH2 0x2630 JUMPI POP POP PUSH1 0x9 DUP3 ADD DUP2 DUP2 SLOAD AND PUSH1 0x2 DUP2 LT ISZERO PUSH2 0x261C JUMPI DUP11 SUB PUSH2 0x25F5 JUMPI SLOAD AND PUSH1 0x2 DUP2 LT ISZERO PUSH2 0x25E1 JUMPI PUSH2 0x25D6 JUMPI PUSH1 0xE DUP2 ADD SLOAD SWAP1 JUMPDEST DUP4 SLOAD SWAP2 PUSH8 0xDE0B6B3A7640000 SWAP3 DUP4 DUP2 MUL SWAP1 DUP1 DUP3 DIV DUP6 EQ SWAP1 ISZERO OR ISZERO PUSH2 0x25C2 JUMPI PUSH2 0x21D5 PUSH2 0x253B SWAP4 SWAP3 PUSH1 0x10 SWAP3 PUSH2 0x199C JUMP JUMPDEST DIV SWAP5 DUP8 PUSH1 0xFF NOT DUP3 SLOAD AND OR SWAP1 SSTORE DUP4 DUP6 PUSH2 0x257D JUMPI JUMPDEST PUSH1 0x2 SWAP2 CALLER DUP2 MSTORE PUSH1 0xC DUP6 MSTORE DUP9 DUP3 DUP3 KECCAK256 ADD PUSH2 0x2567 DUP2 SLOAD PUSH2 0x18C8 JUMP JUMPDEST SWAP1 SSTORE CALLER DUP2 MSTORE PUSH1 0xC DUP6 MSTORE KECCAK256 ADD PUSH2 0x2221 DUP6 DUP3 SLOAD PUSH2 0x18D7 JUMP JUMPDEST POP DUP6 DUP2 MSTORE PUSH1 0x9 DUP4 MSTORE DUP4 DUP2 KECCAK256 PUSH2 0x2593 DUP7 DUP3 SLOAD PUSH2 0x19BC JUMP JUMPDEST SWAP1 SSTORE DUP1 DUP1 DUP1 DUP1 DUP9 CALLER GAS CALL PUSH2 0x25A5 PUSH2 0x20AA JUMP JUMPDEST POP ISZERO PUSH2 0x25B1 JUMPI DUP4 PUSH2 0x254E JUMP JUMPDEST DUP4 MLOAD PUSH4 0x12171D83 PUSH1 0xE3 SHL DUP2 MSTORE PUSH1 0x4 SWAP1 REVERT JUMPDEST PUSH4 0x4E487B71 PUSH1 0xE0 SHL DUP6 MSTORE PUSH1 0x11 PUSH1 0x4 MSTORE PUSH1 0x24 DUP6 REVERT JUMPDEST PUSH1 0xF DUP2 ADD SLOAD SWAP1 PUSH2 0x250D JUMP JUMPDEST PUSH4 0x4E487B71 PUSH1 0xE0 SHL DUP4 MSTORE PUSH1 0x21 PUSH1 0x4 MSTORE PUSH1 0x24 DUP4 REVERT JUMPDEST POP POP POP SWAP4 SWAP1 POP PUSH1 0xC SWAP3 SWAP5 POP PUSH1 0x3 SWAP6 PUSH1 0xFF NOT DUP3 SLOAD AND OR SWAP1 SSTORE CALLER DUP4 MSTORE MSTORE KECCAK256 ADD PUSH2 0x22E8 DUP2 SLOAD PUSH2 0x18C8 JUMP JUMPDEST PUSH4 0x4E487B71 PUSH1 0xE0 SHL DUP6 MSTORE PUSH1 0x21 PUSH1 0x4 MSTORE PUSH1 0x24 DUP6 REVERT JUMPDEST SWAP3 POP SWAP6 SWAP7 SWAP3 SWAP4 SWAP1 POP SLOAD SWAP5 PUSH1 0xFF NOT AND OR SWAP1 SSTORE DUP5 DUP2 MSTORE PUSH1 0x9 DUP3 MSTORE DUP4 DUP2 KECCAK256 PUSH2 0x2656 DUP5 DUP3 SLOAD PUSH2 0x19BC JUMP JUMPDEST SWAP1 SSTORE DUP1 DUP1 DUP1 DUP6 CALLER GAS CALL PUSH2 0x2339 PUSH2 0x20AA JUMP JUMPDEST DUP6 MLOAD PUSH4 0x60829305 PUSH1 0xE1 SHL DUP2 MSTORE PUSH1 0x4 SWAP1 REVERT JUMPDEST PUSH1 0x4 SWAP2 POP EQ ISZERO CODESIZE PUSH2 0x24CC JUMP JUMPDEST PUSH4 0x4E487B71 PUSH1 0xE0 SHL DUP5 MSTORE PUSH1 0x21 PUSH1 0x4 MSTORE PUSH1 0x24 DUP5 REVERT JUMPDEST SWAP3 POP SWAP3 POP SWAP6 SWAP7 SWAP3 SWAP4 POP PUSH1 0xFF NOT AND OR SWAP1 SSTORE DUP5 DUP2 MSTORE PUSH1 0x9 DUP3 MSTORE DUP4 DUP2 KECCAK256 PUSH2 0x26BD DUP5 DUP3 SLOAD PUSH2 0x19BC JUMP JUMPDEST SWAP1 SSTORE DUP1 DUP1 DUP1 DUP6 CALLER GAS CALL PUSH2 0x23C6 PUSH2 0x20AA JUMP JUMPDEST POP SWAP1 DUP5 ADD SLOAD DUP4 AND PUSH1 0x5 DUP2 LT ISZERO PUSH2 0x26E9 JUMPI SWAP1 PUSH1 0x4 DUP13 SWAP3 EQ PUSH2 0x24AB JUMP JUMPDEST PUSH4 0x4E487B71 PUSH1 0xE0 SHL DUP7 MSTORE PUSH1 0x21 PUSH1 0x4 MSTORE PUSH1 0x24 DUP7 REVERT JUMPDEST DUP8 MLOAD PUSH4 0xC8D9EAB PUSH1 0xE3 SHL DUP2 MSTORE PUSH1 0x4 SWAP1 REVERT JUMPDEST DUP5 MLOAD PUSH4 0x2F42CBDD PUSH1 0xE0 SHL DUP2 MSTORE PUSH1 0x4 SWAP1 REVERT JUMPDEST POP PUSH1 0x2 SLOAD DUP2 LT ISZERO PUSH2 0x244E JUMP JUMPDEST DUP1 ISZERO DUP1 ISZERO PUSH2 0x2A1A JUMPI JUMPDEST PUSH2 0x8E8 JUMPI PUSH1 0x0 DUP2 DUP2 MSTORE PUSH1 0x20 PUSH1 0x6 DUP2 MSTORE PUSH1 0x40 SWAP1 DUP2 DUP4 KECCAK256 SWAP3 PUSH1 0x7 DUP3 MSTORE DUP3 DUP2 KECCAK256 CALLER DUP3 MSTORE DUP3 MSTORE PUSH2 0x2762 DUP7 DUP5 DUP4 KECCAK256 PUSH2 0x1831 JUMP JUMPDEST SWAP2 DUP3 SLOAD SWAP5 DUP6 ISZERO PUSH2 0x270E JUMPI PUSH1 0x2 DUP5 ADD SWAP6 DUP7 SLOAD SWAP1 PUSH1 0xFF SWAP2 DUP3 DUP2 AND PUSH2 0x26FD JUMPI DUP3 PUSH1 0xB DUP6 ADD SLOAD AND ISZERO DUP1 PUSH2 0x29ED JUMPI JUMPDEST PUSH2 0x2991 JUMPI POP POP DUP1 PUSH1 0x1 DUP4 ADD SLOAD AND PUSH1 0x5 DUP2 LT ISZERO PUSH2 0x261C JUMPI PUSH1 0x3 DUP2 EQ ISZERO SWAP1 DUP2 PUSH2 0x2985 JUMPI JUMPDEST POP PUSH2 0x2667 JUMPI DUP7 SLOAD DUP2 DUP2 PUSH1 0x8 SHR AND PUSH2 0x2920 JUMPI POP PUSH1 0x9 DUP3 ADD DUP2 DUP2 SLOAD AND PUSH1 0x2 DUP2 LT ISZERO PUSH2 0x26E9 JUMPI PUSH1 0x2 DUP12 LT ISZERO PUSH2 0x26E9 JUMPI DUP11 SUB PUSH2 0x28F6 JUMPI SLOAD AND PUSH1 0x2 DUP2 LT ISZERO PUSH2 0x2684 JUMPI PUSH2 0x28EB JUMPI PUSH1 0xE DUP2 ADD SLOAD SWAP1 JUMPDEST DUP5 SLOAD SWAP2 PUSH8 0xDE0B6B3A7640000 SWAP3 DUP4 DUP2 MUL SWAP1 DUP1 DUP3 DIV DUP6 EQ SWAP1 ISZERO OR ISZERO PUSH2 0x28D7 JUMPI PUSH2 0x21D5 PUSH2 0x2824 SWAP4 SWAP3 PUSH1 0x10 SWAP3 PUSH2 0x199C JUMP JUMPDEST DIV SWAP5 PUSH1 0x1 PUSH1 0xFF NOT DUP3 SLOAD AND OR SWAP1 SSTORE DUP5 PUSH2 0x289A JUMPI JUMPDEST SWAP2 PUSH1 0x2 DUP5 PUSH2 0x2895 SWAP4 PUSH1 0xC PUSH1 0x0 DUP1 MLOAD PUSH1 0x20 PUSH2 0x3109 DUP4 CODECOPY DUP2 MLOAD SWAP2 MSTORE SWAP9 SWAP8 SWAP7 CALLER DUP4 MSTORE DUP2 DUP2 MSTORE PUSH1 0x1 DUP5 DUP5 KECCAK256 ADD PUSH2 0x2869 DUP2 SLOAD PUSH2 0x18C8 JUMP JUMPDEST SWAP1 SSTORE CALLER DUP4 MSTORE MSTORE KECCAK256 ADD PUSH2 0x287C DUP6 DUP3 SLOAD PUSH2 0x18D7 JUMP JUMPDEST SWAP1 SSTORE PUSH2 0x2887 CALLER PUSH2 0x2AFC JUMP JUMPDEST SLOAD SWAP2 MLOAD SWAP3 DUP4 SWAP3 CALLER SWAP8 DUP5 PUSH2 0x19E7 JUMP JUMPDEST SUB SWAP1 LOG3 JUMP JUMPDEST DUP6 DUP3 MSTORE PUSH1 0x9 DUP2 MSTORE DUP4 DUP3 KECCAK256 PUSH2 0x28AF DUP7 DUP3 SLOAD PUSH2 0x19BC JUMP JUMPDEST SWAP1 SSTORE DUP2 DUP1 DUP1 DUP1 DUP9 CALLER GAS CALL PUSH2 0x28C1 PUSH2 0x20AA JUMP JUMPDEST POP PUSH2 0x2837 JUMPI DUP4 MLOAD PUSH4 0x12171D83 PUSH1 0xE3 SHL DUP2 MSTORE PUSH1 0x4 SWAP1 REVERT JUMPDEST PUSH4 0x4E487B71 PUSH1 0xE0 SHL DUP7 MSTORE PUSH1 0x11 PUSH1 0x4 MSTORE PUSH1 0x24 DUP7 REVERT JUMPDEST PUSH1 0xF DUP2 ADD SLOAD SWAP1 PUSH2 0x27F6 JUMP JUMPDEST POP POP POP SWAP2 POP SWAP3 PUSH1 0x3 SWAP6 POP PUSH1 0xC SWAP3 SWAP5 POP PUSH1 0x1 PUSH1 0xFF NOT DUP3 SLOAD AND OR SWAP1 SSTORE CALLER DUP4 MSTORE MSTORE KECCAK256 ADD PUSH2 0x22E8 DUP2 SLOAD PUSH2 0x18C8 JUMP JUMPDEST SWAP6 SWAP7 SWAP3 SWAP5 SWAP1 POP PUSH1 0x1 SWAP2 POP SLOAD SWAP5 PUSH1 0xFF NOT AND OR SWAP1 SSTORE DUP5 DUP2 MSTORE PUSH1 0x9 DUP3 MSTORE DUP4 DUP2 KECCAK256 PUSH2 0x2948 DUP5 DUP3 SLOAD PUSH2 0x19BC JUMP JUMPDEST SWAP1 SSTORE DUP1 DUP1 DUP1 DUP6 CALLER GAS CALL PUSH2 0x2959 PUSH2 0x20AA JUMP JUMPDEST POP ISZERO PUSH2 0x227C JUMPI SWAP1 DUP3 SWAP2 PUSH2 0x297D PUSH1 0x0 DUP1 MLOAD PUSH1 0x20 PUSH2 0x3129 DUP4 CODECOPY DUP2 MLOAD SWAP2 MSTORE SWAP5 MLOAD DUP1 SWAP8 PUSH2 0x1697 JUMP JUMPDEST DUP6 ADD MSTORE CALLER SWAP4 LOG3 JUMP JUMPDEST PUSH1 0x4 SWAP2 POP EQ ISZERO CODESIZE PUSH2 0x27AE JUMP JUMPDEST SWAP2 POP SWAP6 SWAP7 SWAP3 SWAP5 POP PUSH1 0x1 SWAP2 POP PUSH1 0xFF NOT AND OR SWAP1 SSTORE DUP5 DUP2 MSTORE PUSH1 0x9 DUP3 MSTORE DUP4 DUP2 KECCAK256 PUSH2 0x29B8 DUP5 DUP3 SLOAD PUSH2 0x19BC JUMP JUMPDEST SWAP1 SSTORE DUP1 DUP1 DUP1 DUP6 CALLER GAS CALL PUSH2 0x29C9 PUSH2 0x20AA JUMP JUMPDEST POP ISZERO PUSH2 0x227C JUMPI SWAP1 DUP3 SWAP2 PUSH2 0x297D PUSH1 0x0 DUP1 MLOAD PUSH1 0x20 PUSH2 0x3149 DUP4 CODECOPY DUP2 MLOAD SWAP2 MSTORE SWAP5 MLOAD DUP1 SWAP8 PUSH2 0x1697 JUMP JUMPDEST POP DUP3 PUSH1 0x1 DUP6 ADD SLOAD AND PUSH1 0x5 DUP2 LT ISZERO PUSH2 0x2A06 JUMPI PUSH1 0x4 EQ PUSH2 0x278C JUMP JUMPDEST PUSH4 0x4E487B71 PUSH1 0xE0 SHL DUP8 MSTORE PUSH1 0x21 PUSH1 0x4 MSTORE PUSH1 0x24 DUP8 REVERT JUMPDEST POP PUSH1 0x2 SLOAD DUP2 LT ISZERO PUSH2 0x2734 JUMP JUMPDEST SWAP1 PUSH1 0x0 DUP3 DUP2 MSTORE PUSH1 0x20 SWAP2 PUSH1 0x6 DUP4 MSTORE PUSH1 0x40 SWAP2 DUP3 DUP2 KECCAK256 PUSH1 0xA DUP6 MSTORE DUP4 DUP3 KECCAK256 SLOAD PUSH1 0x9 DUP7 MSTORE PUSH2 0x2A53 DUP6 DUP5 KECCAK256 SWAP2 DUP3 SLOAD PUSH2 0x18D7 JUMP JUMPDEST SWAP1 SSTORE DUP6 DUP3 MSTORE PUSH1 0xA DUP6 MSTORE DUP2 DUP5 DUP2 KECCAK256 SSTORE PUSH2 0x2A74 PUSH1 0x2 DUP3 ADD SLOAD PUSH1 0x3 DUP4 ADD SLOAD SWAP1 PUSH2 0x18D7 JUMP JUMPDEST PUSH1 0xA DUP3 ADD SSTORE PUSH1 0xB PUSH1 0x1 DUP3 ADD SWAP2 PUSH1 0xFF NOT SWAP3 PUSH1 0x4 DUP5 DUP3 SLOAD AND OR SWAP1 SSTORE ADD SWAP1 DUP2 SLOAD AND SWAP1 SSTORE DUP3 MLOAD SWAP4 DUP1 DUP6 MSTORE DUP3 MLOAD SWAP3 DUP4 DUP3 DUP8 ADD MSTORE DUP3 JUMPDEST DUP5 DUP2 LT PUSH2 0x2AE9 JUMPI POP POP POP SWAP3 DUP2 PUSH32 0xF023B047BE6C305859504186F8B03EE5A634F9AB472FF386D3B1DE9387C083E SWAP5 DUP5 DUP4 SWAP6 SWAP5 DUP5 ADD ADD MSTORE PUSH1 0x1F DUP1 NOT SWAP2 ADD AND DUP2 ADD SUB ADD SWAP1 LOG2 JUMP JUMPDEST DUP2 DUP2 ADD DUP4 ADD MLOAD DUP8 DUP3 ADD DUP8 ADD MSTORE DUP3 ADD PUSH2 0x2AA4 JUMP JUMPDEST SWAP1 PUSH1 0x1 DUP1 PUSH1 0xA0 SHL SUB SWAP2 DUP3 DUP2 AND SWAP3 PUSH1 0x0 SWAP3 DUP5 DUP5 MSTORE PUSH1 0xC SWAP3 PUSH1 0x20 SWAP1 DUP5 DUP3 MSTORE PUSH1 0x2 SWAP1 PUSH1 0x40 SWAP1 DUP3 DUP3 DUP10 KECCAK256 ADD SLOAD SWAP1 DUP9 SWAP10 DUP10 DUP11 SWAP2 PUSH1 0xD SLOAD SWAP3 JUMPDEST DUP4 DUP2 LT PUSH2 0x2D1A JUMPI JUMPDEST POP POP ISZERO PUSH2 0x2C4C JUMPI JUMPDEST POP POP POP SWAP7 JUMPDEST DUP1 ISZERO DUP1 ISZERO DUP1 PUSH2 0x2BE9 JUMPI JUMPDEST ISZERO PUSH2 0x2BDE JUMPI PUSH1 0x0 NOT DUP3 ADD SWAP2 DUP1 DUP4 GT PUSH2 0x2BCA JUMPI PUSH2 0x2B9F PUSH2 0x2BA4 DUP9 PUSH2 0x2BB0 SWAP4 PUSH2 0x2B74 DUP8 PUSH2 0x17E8 JUMP JUMPDEST SWAP4 SWAP1 SLOAD SWAP2 PUSH2 0x2B81 DUP2 PUSH2 0x17E8 JUMP JUMPDEST SWAP7 SWAP1 SLOAD SWAP7 PUSH1 0x3 SWAP8 DUP7 PUSH2 0x2B92 DUP14 PUSH2 0x17E8 JUMP JUMPDEST SWAP3 SWAP1 SWAP4 DUP12 SHL SHR AND SWAP2 PUSH2 0x19C9 JUMP JUMPDEST PUSH2 0x17E8 JUMP JUMPDEST SWAP4 SWAP1 SWAP5 SHL SHR AND SWAP2 PUSH2 0x19C9 JUMP JUMPDEST ISZERO PUSH2 0x2B44 JUMPI JUMPDEST PUSH4 0x4E487B71 PUSH1 0xE0 SHL DUP8 MSTORE PUSH1 0x11 PUSH1 0x4 MSTORE PUSH1 0x24 DUP8 REVERT JUMPDEST PUSH4 0x4E487B71 PUSH1 0xE0 SHL DUP10 MSTORE PUSH1 0x11 PUSH1 0x4 MSTORE PUSH1 0x24 DUP10 REVERT JUMPDEST POP POP POP POP SWAP4 POP POP POP POP JUMP JUMPDEST POP DUP6 PUSH2 0x2BF4 DUP4 PUSH2 0x17E8 JUMP JUMPDEST SWAP2 SWAP1 SLOAD PUSH1 0x3 SWAP3 DUP4 SHL SHR AND DUP10 MSTORE DUP8 DUP6 MSTORE DUP4 DUP11 DUP11 KECCAK256 ADD SLOAD SWAP1 PUSH1 0x0 NOT DUP5 ADD DUP5 DUP2 GT PUSH2 0x2C38 JUMPI SWAP1 PUSH2 0x2C21 DUP10 SWAP3 PUSH2 0x17E8 JUMP JUMPDEST SWAP1 SLOAD SWAP2 SHL SHR AND DUP10 MSTORE DUP8 DUP6 MSTORE DUP4 DUP11 DUP11 KECCAK256 ADD SLOAD LT PUSH2 0x2B4E JUMP JUMPDEST PUSH4 0x4E487B71 PUSH1 0xE0 SHL DUP12 MSTORE PUSH1 0x11 PUSH1 0x4 MSTORE PUSH1 0x24 DUP12 REVERT JUMPDEST SWAP3 SWAP10 POP SWAP1 SWAP2 PUSH1 0x64 DUP2 LT ISZERO PUSH2 0x2CB8 JUMPI POP PUSH1 0xD SLOAD SWAP1 SWAP2 POP PUSH1 0x1 PUSH1 0x40 SHL DUP2 LT ISZERO PUSH2 0x2CA4 JUMPI SWAP1 PUSH2 0x2C81 DUP3 PUSH1 0x1 PUSH2 0x2C87 SWAP5 ADD PUSH1 0xD SSTORE PUSH2 0x17E8 JUMP JUMPDEST SWAP1 PUSH2 0x19C9 JUMP JUMPDEST PUSH1 0xD SLOAD PUSH1 0x0 NOT DUP2 ADD SWAP1 DUP2 GT PUSH2 0x2BB6 JUMPI SWAP1 DUP5 SWAP2 SWAP8 JUMPDEST SWAP1 SWAP2 CODESIZE DUP1 PUSH2 0x2B3F JUMP JUMPDEST PUSH4 0x4E487B71 PUSH1 0xE0 SHL DUP9 MSTORE PUSH1 0x41 PUSH1 0x4 MSTORE PUSH1 0x24 DUP9 REVERT JUMPDEST PUSH1 0x0 NOT SWAP3 DUP2 DUP5 ADD SWAP2 DUP3 GT PUSH2 0x228D JUMPI DUP8 PUSH2 0x2CD0 DUP4 PUSH2 0x17E8 JUMP JUMPDEST SWAP1 SLOAD SWAP1 PUSH1 0x3 SHL SHR AND DUP11 MSTORE DUP9 DUP7 MSTORE DUP5 DUP12 DUP12 KECCAK256 ADD SLOAD LT PUSH1 0x0 EQ PUSH2 0x2D0E JUMPI SWAP1 PUSH2 0x2C81 PUSH2 0x2CF8 SWAP3 PUSH2 0x17E8 JUMP JUMPDEST PUSH1 0xD SLOAD SWAP1 DUP2 ADD SWAP1 DUP2 GT PUSH2 0x2BB6 JUMPI SWAP1 DUP5 SWAP2 SWAP8 PUSH2 0x2C9B JUMP JUMPDEST POP POP POP POP POP SWAP4 POP POP POP POP JUMP JUMPDEST DUP2 DUP12 PUSH2 0x2D25 DUP4 PUSH2 0x17E8 JUMP JUMPDEST SWAP1 SLOAD SWAP1 PUSH1 0x3 SHL SHR AND EQ PUSH2 0x2D40 JUMPI PUSH2 0x2D3B SWAP1 PUSH2 0x18C8 JUMP JUMPDEST PUSH2 0x2B2F JUMP JUMPDEST SWAP13 POP POP POP PUSH1 0x1 CODESIZE DUP1 PUSH2 0x2B37 JUMP JUMPDEST PUSH1 0x40 MLOAD SWAP1 PUSH2 0x2D5A DUP3 PUSH2 0x18E4 JUMP JUMPDEST DUP2 PUSH2 0x200 PUSH1 0x0 SWAP2 DUP3 DUP2 MSTORE DUP3 PUSH1 0x20 DUP3 ADD MSTORE DUP3 PUSH1 0x40 DUP3 ADD MSTORE DUP3 PUSH1 0x60 DUP3 ADD MSTORE DUP3 PUSH1 0x80 DUP3 ADD MSTORE DUP3 PUSH1 0xA0 DUP3 ADD MSTORE DUP3 PUSH1 0xC0 DUP3 ADD MSTORE DUP3 PUSH1 0xE0 DUP3 ADD MSTORE DUP3 PUSH2 0x100 DUP3 ADD MSTORE DUP3 PUSH2 0x120 DUP3 ADD MSTORE DUP3 PUSH2 0x140 DUP3 ADD MSTORE DUP3 PUSH2 0x160 DUP3 ADD MSTORE DUP3 PUSH2 0x180 DUP3 ADD MSTORE DUP3 PUSH2 0x1A0 DUP3 ADD MSTORE DUP3 PUSH2 0x1C0 DUP3 ADD MSTORE DUP3 PUSH2 0x1E0 DUP3 ADD MSTORE ADD MSTORE JUMP JUMPDEST PUSH1 0x40 MLOAD SWAP1 PUSH2 0x2DD7 DUP3 PUSH2 0x1900 JUMP JUMPDEST PUSH1 0x0 PUSH1 0x60 DUP4 DUP3 DUP2 MSTORE DUP3 PUSH1 0x20 DUP3 ADD MSTORE DUP3 PUSH1 0x40 DUP3 ADD MSTORE ADD MSTORE JUMP JUMPDEST SWAP1 PUSH1 0x40 MLOAD PUSH2 0x2DFC DUP2 PUSH2 0x1900 JUMP JUMPDEST PUSH1 0x60 PUSH1 0xFF PUSH1 0x2 DUP4 SWAP6 DUP1 SLOAD DUP6 MSTORE PUSH1 0x1 DUP2 ADD SLOAD PUSH1 0x20 DUP7 ADD MSTORE ADD SLOAD DUP2 DUP2 AND ISZERO ISZERO PUSH1 0x40 DUP6 ADD MSTORE PUSH1 0x8 SHR AND ISZERO ISZERO SWAP2 ADD MSTORE JUMP JUMPDEST PUSH1 0x1 PUSH1 0x1 PUSH1 0x40 SHL SUB DUP2 GT PUSH2 0x1545 JUMPI PUSH1 0x5 SHL PUSH1 0x20 ADD SWAP1 JUMP JUMPDEST SWAP1 PUSH2 0x2E4A DUP3 PUSH2 0x2E29 JUMP JUMPDEST PUSH2 0x2E57 PUSH1 0x40 MLOAD SWAP2 DUP3 PUSH2 0x1936 JUMP JUMPDEST DUP3 DUP2 MSTORE DUP1 SWAP3 PUSH2 0x2E68 PUSH1 0x1F NOT SWAP2 PUSH2 0x2E29 JUMP JUMPDEST ADD SWAP1 PUSH1 0x20 CALLDATASIZE SWAP2 ADD CALLDATACOPY JUMP JUMPDEST DUP1 MLOAD DUP3 LT ISZERO PUSH2 0x1803 JUMPI PUSH1 0x20 SWAP2 PUSH1 0x5 SHL ADD ADD SWAP1 JUMP JUMPDEST SWAP4 SWAP3 SWAP1 SWAP2 DUP5 ISZERO DUP1 ISZERO PUSH2 0x2F4F JUMPI JUMPDEST PUSH2 0x2F46 JUMPI PUSH1 0x0 SWAP5 DUP6 MSTORE PUSH1 0x6 PUSH1 0x20 MSTORE PUSH1 0x40 DUP6 KECCAK256 SWAP3 PUSH1 0x7 PUSH1 0x20 MSTORE PUSH1 0x40 DUP7 KECCAK256 SWAP1 PUSH1 0x1 DUP1 PUSH1 0xA0 SHL SUB AND DUP7 MSTORE PUSH1 0x20 MSTORE PUSH2 0x2ED4 DUP3 PUSH2 0x2ECE DUP4 PUSH1 0x40 DUP10 KECCAK256 PUSH2 0x1831 JUMP JUMPDEST SLOAD PUSH2 0x18D7 JUMP JUMPDEST SWAP2 PUSH1 0x96 DUP2 MUL DUP2 DUP2 DIV PUSH1 0x96 EQ DUP3 ISZERO OR ISZERO PUSH2 0x2BB6 JUMPI PUSH2 0x2710 PUSH2 0x2EF5 SWAP2 DIV DUP3 PUSH2 0x19BC JUMP JUMPDEST SWAP2 PUSH1 0x2 DUP2 LT ISZERO PUSH2 0x2A06 JUMPI SWAP2 PUSH1 0xA PUSH2 0x2F26 PUSH2 0x2F2E SWAP4 PUSH2 0x2F34 SWAP7 SWAP6 PUSH2 0x2F39 SWAP10 SWAP11 POP ISZERO PUSH1 0x0 EQ PUSH2 0x2F3C JUMPI PUSH1 0x2 DUP9 ADD SLOAD PUSH2 0x18D7 JUMP JUMPDEST SWAP6 ADD SLOAD PUSH2 0x18D7 JUMP JUMPDEST SWAP1 PUSH2 0x1989 JUMP JUMPDEST PUSH2 0x199C JUMP JUMPDEST SWAP1 JUMP JUMPDEST PUSH1 0x3 DUP9 ADD SLOAD PUSH2 0x18D7 JUMP JUMPDEST POP PUSH1 0x0 SWAP4 POP POP POP JUMP JUMPDEST POP PUSH1 0x2 SLOAD DUP6 LT ISZERO PUSH2 0x2E93 JUMP JUMPDEST SWAP2 SWAP1 DUP3 ISZERO DUP1 ISZERO PUSH2 0x2FE1 JUMPI JUMPDEST PUSH2 0x2FD9 JUMPI PUSH1 0x0 SWAP3 DUP4 MSTORE PUSH1 0x6 PUSH1 0x20 MSTORE PUSH1 0x40 DUP4 KECCAK256 SWAP1 PUSH1 0x2 DUP2 LT ISZERO PUSH2 0x2684 JUMPI PUSH2 0x2FCE JUMPI PUSH1 0x2 DUP2 ADD SLOAD SWAP1 JUMPDEST DUP2 ISZERO PUSH2 0x2FCA JUMPI PUSH1 0xA ADD SLOAD PUSH2 0x2710 SWAP1 DUP2 DUP2 MUL SWAP2 DUP2 DUP4 DIV EQ SWAP1 ISZERO OR ISZERO PUSH2 0x2FB6 JUMPI PUSH2 0x2F39 SWAP3 SWAP4 POP PUSH2 0x199C JUMP JUMPDEST PUSH4 0x4E487B71 PUSH1 0xE0 SHL DUP5 MSTORE PUSH1 0x11 PUSH1 0x4 MSTORE PUSH1 0x24 DUP5 REVERT JUMPDEST POP POP JUMP JUMPDEST PUSH1 0x3 DUP2 ADD SLOAD SWAP1 PUSH2 0x2F8D JUMP JUMPDEST POP PUSH2 0x2710 SWAP2 POP JUMP JUMPDEST POP PUSH1 0x2 SLOAD DUP4 LT ISZERO PUSH2 0x2F66 JUMP JUMPDEST DUP1 ISZERO DUP1 ISZERO PUSH2 0x3042 JUMPI JUMPDEST PUSH2 0x303C JUMPI PUSH1 0x0 SWAP1 DUP2 MSTORE PUSH1 0x6 PUSH1 0x20 MSTORE PUSH1 0x40 DUP2 KECCAK256 PUSH1 0xFF PUSH1 0x1 DUP3 ADD SLOAD AND PUSH1 0x5 DUP2 LT ISZERO PUSH2 0x25E1 JUMPI PUSH1 0x1 SUB PUSH2 0x3038 JUMPI PUSH1 0x7 ADD SLOAD DUP1 NUMBER LT ISZERO PUSH2 0x3038 JUMPI PUSH2 0x2F39 SWAP2 POP NUMBER SWAP1 PUSH2 0x19BC JUMP JUMPDEST POP SWAP1 JUMP JUMPDEST POP PUSH1 0x0 SWAP1 JUMP JUMPDEST POP PUSH1 0x2 SLOAD DUP2 LT ISZERO PUSH2 0x2FF6 JUMP JUMPDEST DUP1 ISZERO DUP1 ISZERO PUSH2 0x30BC JUMPI JUMPDEST PUSH2 0x303C JUMPI PUSH1 0x0 SWAP1 DUP2 MSTORE PUSH1 0x6 PUSH1 0x20 MSTORE PUSH1 0x40 DUP2 KECCAK256 PUSH1 0xFF PUSH1 0x1 DUP3 ADD SLOAD AND PUSH1 0x5 DUP2 LT ISZERO PUSH2 0x25E1 JUMPI PUSH1 0x1 SUB PUSH2 0x3038 JUMPI PUSH1 0x7 ADD SLOAD SWAP1 PUSH1 0x18 NOT DUP3 ADD SWAP1 DUP3 DUP3 GT PUSH2 0x30A8 JUMPI POP NUMBER LT ISZERO SWAP1 DUP2 PUSH2 0x30A1 JUMPI POP SWAP1 JUMP JUMPDEST SWAP1 POP NUMBER LT SWAP1 JUMP JUMPDEST PUSH4 0x4E487B71 PUSH1 0xE0 SHL DUP2 MSTORE PUSH1 0x11 PUSH1 0x4 MSTORE PUSH1 0x24 SWAP1 REVERT JUMPDEST POP PUSH1 0x2 SLOAD DUP2 LT ISZERO PUSH2 0x3057 JUMP INVALID DUP12 0xE0 SMOD SWAP13 MSTORE8 AND MSIZE EQ SGT PREVRANDAO 0xCD 0x1F 0xD0 LOG4 CALLCODE DUP5 NOT 0x49 PUSH32 0x9722A3DAAFE3B4186F6B6457E0BFCD8F4E47CC529F86CDC7EAB8FB80E015A298 0xE0 0x21 0xFC 0xAE 0xE7 0x2D CALL 0xF7 PUSH14 0xD57CF487D6A2A5FA33ED09B7E0AD PREVRANDAO 0xC4 PUSH6 0xD1D7CC1EBAC5 INVALID 0x4F DUP15 SWAP13 PUSH7 0x25C55A874855DB 0x5F 0xC3 0x28 0xDE PUSH26 0x496782527B9F229C166413E535BD9C04254C7252CD37763A43C6 0x1E PUSH22 0x96BE94F3CB4521868C06461D3A4197839DF4D896C7FB NUMBER PUSH3 0xFC0E3B 0xE3 JUMP LOG1 SHR SLT LOG2 PUSH5 0x6970667358 0x22 SLT KECCAK256 CALLER LT REVERT 0xB8 PUSH4 0xA0AFE019 0x4B 0xA7 SWAP11 JUMP 0x4C 0xAD 0xC1 0xC6 DUP8 0x1E GASLIMIT 0xC3 PUSH27 0x1B55F73F4FE896B7C5FC64736F6C63430008130033000000000000 "},"methodIdentifiers":{"BETTING_BLOCKS()":"8ed6f26c","FEE_DENOMINATOR()":"d73792a9","FINAL_CALL_BLOCKS()":"bf9607c6","MAX_BETTORS_PER_GAME()":"baf15dd1","MAX_LEADERBOARD_SIZE()":"db877142","MIN_BET_AMOUNT()":"6475e3d3","MIN_POOL_SIZE()":"bdffaf7b","MIN_TOTAL_BETS()":"44933539","PLATFORM_FEE()":"34fbc9a1","RANDOMNESS_DELAY_BLOCKS()":"0c6d388b","accumulatedFees()":"587f5ed7","calculatePotentialPayout(uint256,address,uint8,uint256)":"ec844654","claimAllWinnings(uint256)":"a5c44a65","claimWinnings(uint256,uint8)":"ec1b3ab5","currentGameId()":"536a3ddc","gameBalance(uint256)":"19be5ad0","gameBettors(uint256,uint256)":"ce1ea732","gameFees(uint256)":"afc250a7","games(uint256)":"117a5b90","getAccumulatedFees()":"5df45a37","getBlocksRemaining(uint256)":"674943ad","getCurrentGame()":"968d901b","getCurrentMultiplier(uint256,uint8)":"67c15f6a","getGame(uint256)":"a2f77bcc","getGameBalance(uint256)":"9dad1da5","getGameBettors(uint256)":"bcbdecb7","getGameCount()":"e87c0ee6","getGameFees(uint256)":"f95547fa","getLeaderboard()":"6d763a6e","getLeaderboardWithStats(uint256)":"075aa970","getResolutionStatus(uint256)":"7dd7f492","getUserBets(uint256,address)":"fa744dd3","getUserSideBet(uint256,address,uint8)":"e978f045","getUserStats(address)":"4e43603a","hasAnyBet(uint256,address)":"51bcefa1","isBetLate(uint256,address,uint8)":"232ccf7d","isInFinalCall(uint256)":"6c3c1a45","leaderboard(uint256)":"bf368399","nextGameId()":"b135bbb0","owner()":"8da5cb5b","paused()":"5c975abb","placeBet(uint256,uint8)":"03edf914","renounceOwnership()":"715018a6","resolveGame(uint256)":"b7a5a5b6","setPaused(bool)":"16c38b3c","sideBets(uint256,address,uint8)":"e0ca49ae","startNewGame()":"482d51e0","transferOwnership(address)":"f2fde38b","userStats(address)":"8a65d874","withdrawFees()":"476343ee"}}}}}